:100000000C9434000C9451000C9451000C94510049
:100010000C9451000C9451000C9451000C947622D5
:100020000C9451000C9451000C9451000C9451000C
:100030000C9451000C9451000C94C0030C9451008A
:100040000C9451000C9451000C9451000C945100EC
:100050000C9451000C94E3030C9451000C94510047
:100060000C9451000C94510011241FBECFEFD8E026
:10007000DEBFCDBF13E0A0E0B1E0E4E8FBE502C0E5
:1000800005900D92A433B107D9F723E0A4E3B3E0C0
:1000900001C01D92A235B207E1F70E945B040C94E7
:1000A000C02D0C9400002F923F924F925F926F925E
:1000B0007F928F929F92AF92BF92CF92DF92EF92F8
:1000C000FF920F931F93CF93DF93CDB7DEB729979E
:1000D0000FB6F894DEBF0FBECDBF99878887FB01AE
:1000E000128911301B0151F48485813081F4FB01A8
:1000F000848D803061F0FB01248F51C0178E248FD6
:1001000086858030012D09F45CC00E94B527FB0173
:10011000248F203009F443C0FB01178E8685803080
:10012000012D09F44EC0FB018588968843895489C6
:10013000638DA0E0B0E0103009F413C3F1014788EB
:10014000508C103019F0F101A18DB28D0F831E83F8
:1001500081E0441555058A069B0609F0812D8170C2
:100160009101F901738D8030CA01840109F03CC10D
:100170003D0185858F71E0E0F1E000E010E0803026
:100180007B836A83798309F4B1C0A0E0B0E0F6957F
:10019000E795B795A7958A958030C9F7A8C0FB0168
:1001A000878D839591E0803009F0912D0FEF90308D
:1001B00009F4082FB101FB01078F8685081709F0A4
:1001C000B2CFFB018785982F8827840F951F28E7DA
:1001D000811592079C0158F020E038E799234AF4F2
:1001E00020E030E0F1018081803041F037C0992378
:1001F000BAF3F1018081803009F030C0F101418112
:10020000403009F02BC0F1019281903009F026C0F6
:10021000F1019381903009F021C0F1019481903077
:10022000E9F4F10195819030C9F4F10196819030A3
:10023000A9F4F1019781903089F4F1019085903013
:1002400069F4F1019185903049F4F1019285903083
:1002500029F4F1019385903009F40CC2BF01E58DBA
:100260009BE2E902912D1124492F441F4427441F8A
:100270009595940F4CE094021124AE2E9E2F901968
:10028000A92FB92FBB0FBB0B9C3008F050C2A60F93
:10029000B71F9C91913009F04EC140E058E79BE2B6
:1002A0007CE06A2D639568370CF0FBC06902E12D94
:1002B0001124FE2FFF1FFF27FF1FE595EF0FE70219
:1002C0001124E62FE019AE2FBE2FBB0FBB0BEC3075
:1002D00008F02DC2F101AE0FBF1FEC91E03011F319
:1002E000C02ED12E762F6627AB01DDC0D8015D83ED
:1002F0004C839A0124193509A401C301480B590BF9
:10030000852F880F660B762FCB015D016F01780179
:100310000E94CA2C982F872FF62FE12D652F712D63
:10032000212D312D6E2B7F2B282B392BC90190705D
:1003300041E0611571058007910781E009F0812D89
:1003400061157105E0E0F1E02E073F0751E008F08C
:10035000512D58238C819D814816590668047904D3
:100360000CF0412D51704170EFEFFFEF403021F460
:10037000CF01503029F005C081E090E0503009F401
:10038000CB01403031F48F0150306A817B8129F0FC
:1003900005C050306A817B8109F48901840D951D67
:1003A000061D171D4030F101798121E089F04C8153
:1003B0005D8148175907800691060CF0212D2170A8
:1003C000203091F088E491E062E270E00E941D2507
:1003D0004C815D8184179507080519050CF0212DC6
:1003E0002170203009F0A6C1908F878B548B438BEE
:1003F000638F81E0828B128F018F968A858A268D8A
:10040000922F9A95291721E060F0212D2030212D7F
:1004100059F091E4761761F4922F3E81303059F013
:100420000BC02030212DA9F7292F91E47617A1F3D5
:100430003E81303009F4922FF101968FE885F985DD
:100440001583048363832F81213421E008F0212D5B
:10045000E885F9852283903021E009F4212DE88593
:10046000F98521839D3308F4812DA885B9858C9366
:1004700029960FB6F894DEBF0FBECDBFDF91CF91A6
:100480001F910F91FF90EF90DF90CF90BF90AF90B2
:100490009F908F907F906F905F904F903F902F90A4
:1004A0000895C02ED12E6A2D962F9A95FBEA0CE066
:1004B00060E070E0E12D9F9FB12D1124B695B695B7
:1004C000B695B0021124AA2DBA2FBE0F1B2F1A9574
:1004D00011169CF4102D1095EA95B10FAB2FBB2788
:1004E0007101AE0DBF1DAC919A95A13021F7AA2DD7
:1004F000EA0FFE2FEE27BF0101C0AA2DFD01FE2F3E
:10050000EE274E1B5F0B559547954E0F5F1F4A59BF
:100510005F4F421753071D2D0C2D6CF0AF01461B8A
:10052000570B55954795E41BF50BE656F0402E17F3
:100530003F070CF091C091E021153907912D08F08B
:10054000932FA9014078507020503F4F411551051D
:10055000692FF10109F0632F2BEA629F212D1124ED
:10056000269526952695A62F6CE026026A2F112443
:10057000262F2019A22FBB27AE0FBF1F2C91203092
:1005800009F068C041152BEA4CE0510509F030C074
:10059000692F0BC0962F9019A92FBB27AE0FBF1F35
:1005A0009C913395903009F055C0329F912D1124C4
:1005B00096959695969594021124932F9019A92FAC
:1005C000BB27AE0FBF1F9C91903009F040C0623036
:1005D0000CF461E06A95629F912D11249695969591
:1005E00096959402112437370CF4D4CF37E7D2CF45
:1005F000632F0BC0362F3019A32FBB27AE0FBF1FA1
:100600003C919A95303009F025C0929F312D1124EC
:1006100036953695369534021124392F3019A32F8B
:10062000BB27AE0FBF1F3C91313099F067370CF0FC
:1006300067E76395629F312D11243695369536957F
:100640003402112492300CF0D5CF91E0D3CF632F38
:1006500001C0692FA62E658F9101F9019089803024
:1006600011F06A2D2BC041816A2D4170403039F064
:10067000F10124C09089612D41704030C9F791018A
:10068000F90182818030C9F4F90183818030A9F4B5
:10069000F9018481803089F4F9018581803069F421
:1006A000F9018681803049F4F9018781803029F48D
:1006B000F9018085803009F429C0F90119160CF080
:1006C00040C08BE22CE0312D04C068E7391709F4F3
:1006D00038C0339563956837C4F76802412D1124FB
:1006E000542F551F5527551F4595450F420211247C
:1006F000462F4019A42FB42FBB0FBB0B4C30B8F4BE
:10070000AE0FBF1F4C91403029F3E0CFF901818536
:10071000803009F0D3CF8285803009F0A9CF191637
:100720007CF49101F9018385803059F0CACFCD0165
:100730000E94A42286E291E062E270E00E941D2500
:10074000F1018189860F18168CF4883708F088E744
:10075000982E812C512D412DA0E0B0E0103009F0F1
:10076000EDCC2D01103009F0EECCF0CC40E050E0A3
:100770004A01A0E0B0E01030A1F3E0CC0E94BB271A
:100780000F920FB60F922F933F938F939F93809169
:100790003403909135032091360330913703805F05
:1007A0009F4F2F4F3F4F90933503809334033093E7
:1007B0003703209336039F918F913F912F910F9094
:1007C0000FBE0F9018950F920FB60F921F92112423
:1007D0002F933F934F935F938F939F93AF93BF93C9
:1007E000EF93FF9381E08093510380917800909183
:1007F000790026E030914E03329F212D1124402DA7
:100800005527322F2227242B352B40914F03552774
:10081000440F551F420F531F475C5C4FFA019183F1
:10082000808390914F03292F2395812D2330382FDA
:1008300008F42CC020914E032395233008F42DC0DA
:1008400030934F03233008F42EC080934E039EEF65
:10085000823008F491E0980FA92FBB27A55BBC4F0D
:100860008C9190917C00907F982B90937C00FF91CD
:10087000EF91BF91AF919F918F915F914F913F9178
:100880002F911F900F900FBE0F901895322F20912F
:100890004E032395233008F0D3CF392F30934F03E5
:1008A000233008F0D2CF822F80934E039EEF823008
:1008B00008F4D0CFD0CF0E945D042F923F924F9288
:1008C0005F926F927F928F929F92AF92BF92CF92E0
:1008D000DF92EF92FF920F931F93CF93DF93CDB7E9
:1008E000DEB7C75DD0400FB6F894DEBF0FBECDBFF8
:1008F0008FB7F89490915103913011F40C947322B6
:100900009E0128553F4FF9013A96FC83EB833F8FB8
:100910002E8FF9013896FA83E98391E09093510381
:100920008FBF87E880937A0080E480937C002D98C5
:10093000259A2B98239A24982C9A2A98229A80E513
:100940008CBD9DBD80917E00806280937E003D982D
:100950004598299A219A4198399A42983A9A439807
:100960003B9A44983C9A409A389A5C98549A5D987D
:10097000559A2998CE018A599F4F44E250E09E83B0
:100980008D83612D0E94B92D80E090E0AD81BE8104
:10099000A80FB91F2C912EBD01962DB52223EAF781
:1009A0002EB52C938432910589F7299A8BE99FE023
:1009B0000197F1F7409882E08093B00095E0909322
:1009C000B1009DE79093B3008093700080917C000C
:1009D000807F856080937C0080917A008064809322
:1009E0007A0080917A0080748030D9F7C0907800C6
:1009F000D090790020917C00207F266020937C009D
:100A000020917A00206420937A0020917A0020744B
:100A10002030D9F7A0907800B090790040917C0008
:100A2000407F476040937C0040917A00406440934F
:100A30007A0040917A0040744030D9F740917800B4
:100A40005091790060917C00607F656060937C00CC
:100A500060917A00606460937A0060917A006074BB
:100A60006030D9F76091780070917900E0917C0056
:100A7000E07FE660E0937C00E0917A00E064E09340
:100A80007A00E0917A00E074E030D9F7E0917800E4
:100A9000F0917900A0917C00A07FA760A0937C00DA
:100AA000A0917A00A064A0937A00A0917A00A0742B
:100AB000A030D9F7A0917800B091790010917C0016
:100AC000107F156010937C0010917A0010641093D1
:100AD0007A0010917A0010741030D9F700917800E4
:100AE0001091790080917C00807F866080937C00EB
:100AF00080917A00806480937A0080917A0080747B
:100B00008030D9F7E0907800F090790080917C00F7
:100B1000807F876080937C0080917A0080648093DE
:100B20007A0080917A0080748030D9F780917800C3
:100B30009091790010924F0327E030E030934E03FC
:100B400020934D0325E036E030934C0320934B0374
:100B500090934A0380934903B0934803A0934703BB
:100B60005093460340934503F0924403E0924303BD
:100B7000F0934203E0934103B0924003A0923F03FD
:100B800010933E0300933D0370933C0360933B033B
:100B9000D0923A03C092390381E080933803809366
:100BA000510385E480937C0010927B008FEE80934C
:100BB0007A0080917C00807F866080937C007894AE
:100BC0002098289A52985A9853985B9880E091E020
:100BD0000FB6A8969FAF8EAFA8970FBE8D819E814E
:100BE000029640E450E00FB62C969FAF8EAF2C9744
:100BF0000FBE612D0E94B92D8FB382708030E1F756
:100C000081E090E092BD81BD81E08FBB20B58FB3C4
:100C100082708030E1F784E090E092BD81BD81E098
:100C20008FBB90B59A3A09F0812D880F9FB39270CF
:100C30009030E1F747E050E052BD41BD91E09FBBED
:100C40002A3A21E009F0212D30B53A3A09F0912DE8
:100C5000990F990F3FB332703030E1F74AE050E01E
:100C600052BD41BD31E03FBB40B54A3A09F0312D9C
:100C7000330F330F330F822B2FB322702030E1F765
:100C80004DE050E052BD41BD21E02FBB40B54A3A96
:100C900009F0212D2295207F892B9FB392709030EF
:100CA000E1F740E150E052BD41BD91E09FBB40B54E
:100CB0004A3A09F0912D9295907F990F832B3FB37B
:100CC00032703030E1F743E150E052BD41BD31E0D8
:100CD0003FBB40B54A3A09F0312D3295307F330F92
:100CE000330F822B2FB322702030E1F746E150E022
:100CF00052BD41BD41E04FBB20B52A3A09F0412D1C
:100D0000479544274795892B9FB392709030E1F720
:100D100069E170E072BD61BD91E09FBB832B30B58E
:100D20009FB392709030E1F76CE170E072BD61BDED
:100D300021E02FBB90B59A3A09F0212D220F842B88
:100D40009FB392709030E1F74FE150E052BD41BD4A
:100D500091E09FBB3A3A41E009F0412D30B53A3A73
:100D600009F0912D990F990F3FB332703030E1F7B0
:100D700062E270E072BD61BD31E03FBB50B55A3AEE
:100D800009F0312D330F330F330F242B4FB3427043
:100D90004030E1F745E250E052BD41BD41E04FBB7C
:100DA000292B40B59FB392709030E1F767E370E074
:100DB00072BD61BD91E09FBB50B55A3A09F0912DCB
:100DC000990F232B3FB332703030E1F769E470E0C4
:100DD00072BD61BD31E03FBB4A3A41E009F0412DAF
:100DE00050B55A3A09F0312D330F330F5FB35270BB
:100DF0005030E1F76BE570E072BD61BD51E05FBB63
:100E000060B56A3A09F0512D550F550F550F942BC7
:100E10004FB342704030E1F76DE670E072BD61BDE6
:100E200041E04FBB60B56A3A09F0412D4295407FE1
:100E3000932B3FB332703030E1F76FE770E072BD53
:100E400061BD31E03FBB60B56A3A09F0312D3295A2
:100E5000307F330F952B5FB352705030E1F761E96B
:100E600070E072BD61BD51E05FBB60B56A3A09F0E8
:100E7000512D5295507F550F550F942B4FB3427003
:100E80004030E1F763EA70E072BD61BD61E06FBBC5
:100E900040B54A3A09F0612D679566276795932B0F
:100EA0003FB332703030E1F7E5EBF0E0F2BDE1BD89
:100EB00031E03FBB952B30B54FB342704030E1F786
:100EC00047EC50E052BD41BD41E04FBB50B55A3AEE
:100ED00009F0412D440F962B5FB352705030E1F76B
:100EE00069ED70E072BD61BD51E05FBB3A3A61E00F
:100EF00009F0612D30B53A3A09F0512D550F550FD3
:100F00003FB332703030E1F7EBEEF0E0F2BDE1BD1F
:100F100031E03FBB70B532E00FB6C459DF4F3EAF92
:100F2000CC56D0400FBEE0E0F0E00FB6C659DF4F20
:100F3000FFAFEEAFCA56D0400FBE322F2227E82FA8
:100F4000FF27E22BF32B0FB6CE58DF4FFFAFEEAFEC
:100F5000C257D0400FBE7A3A81E009F0812D880F48
:100F6000880F880F462B452B482B542F4427892F59
:100F70009927842B952B0FB6CC58DF4F9FAF8EAFA0
:100F8000C457D0400FBE92E094BD8AEF87BD85E084
:100F900085BD90936E0016BC57985F9A56985E9ADE
:100FA000CE0184539F4F99A788A701969B8F8A8F64
:100FB000CE0180549F4FFC013C960FB62E96FFAF9A
:100FC000EEAF2E970FBEFC013696F987E8879EA7F5
:100FD0008DA705969D8F8C8FCE0186549F4F99AF1C
:100FE00088AF8D819E8182960FB628969FAF8EAF77
:100FF00028970FBE83E08AAF8BAF8CAF8DAF8EAFDB
:101000000FB621968EAF21970FBE83E00FB62296C2
:101010008EAF22970FBE80E090E05C019501350114
:1010200081E08CA7BFAAAEAABDAAACAA812D0FB63B
:101030002B968EAF2B970FBE812D0FB661968EAF7C
:1010400061970FBE812D0FB6A0968EAFA0970FBEF1
:1010500081E08BA7BBAAAAAAB9AAA8AA812D0FB61C
:101060002A968EAF2A970FBE812D0FB660968EAF4F
:1010700060970FBE812D0FB66F968EAF6F970FBE24
:10108000D5010FB66D96BFAEAEAE6D970FBEA12C5B
:101090001FA6812C83E00FB623968EAF23970FBE39
:1010A00083E00FB624968EAF24970FBE83E00FB671
:1010B00025968EAF25970FBE83E00FB626968EAF8E
:1010C00026970FBE83E00FB627968EAF27970FBEE9
:1010D0000FB66B96BFAFAEAF6B970FBE0FB66996EC
:1010E0003FAF2EAF69970FBE809150038130E1F77B
:1010F00010925003DFB6F89480913D0390913E0327
:1011000040913B0350913C032091390330913A03C5
:101110006091430370914403E0914103F0914203D5
:1011200040903F0350904003A0914903B0914A037F
:10113000E0904703F0904803009145031091460367
:10114000DFBEBFB6F8942090360330903703C090CE
:101150003403D09035030FB6A496DFAECEAEA4977D
:101160000FBEBFBEE016F106680108F08701CE147D
:10117000DF0408F067010FB6A696DFAECEAEA697E5
:101180000FBEAC15BD050FB667967FAE6EAE679706
:101190000FBE08F43FC00FB6A696BFAFAEAFA6977E
:1011A0000FBEA017B10708F039C0E415F505D2014C
:1011B00008F0DF014E165F0672010FB6A4960EAD61
:1011C0001FADA4970FBE08F435C07F0127016E152F
:1011D0007F0508F034C06A177B0708F435C02D017D
:1011E00042175307B90108F034C02417350708F433
:1011F00035C09A018217930708F034C08617970705
:1012000008F435C09B01211584E0380709F035C08A
:101210000C946B22A017B10708F4C7CF0FB6A6969F
:101220001FAF0EAFA6970FBEE415F505D20108F06B
:10123000C0CFC0CF27016E157F0508F4CCCF2B019E
:101240006A177B0708F0CBCF42175307B90108F4A0
:10125000CCCFBA012417350708F0CBCF82179307FC
:1012600008F4CCCF9C018617970708F0CBCF211547
:1012700084E0380711F40C946B2299E03902802D38
:101280001124299F412D1124480F542F4427802DCC
:101290009927842B952B81509C4F60E074E0621B52
:1012A000730B0E94602DFB01EC30882DF105A8F432
:1012B0008170F1E0803009F45FC09E16D8010FB64E
:1012C000A2963FAE2EAEA2970FBE81E00FB6A196BA
:1012D0008EAFA1970FBE71F05CC08170803051F06D
:1012E000F1E0D8010FB6A2963FAE2EAEA2970FBE88
:1012F000812D4AC098010FB66B96AEADBFAD6B970E
:101300000FBE2A1B3B0BA1010FB66D966EAD7FADD4
:101310006D970FBE460B570B81E02134310520E05D
:1013200030E04207530708F4812D8A218170803014
:10133000B9F0882D817093E0803009F492E0792E25
:101340000FB6A2967FAF6EAFA2970FBEF12D9AA6F1
:101350008FA6E92D0FB6A1968EAEA1970FBE1CC029
:101360000FB6A2967FAF6EAFA2970FBEFA2DE92DF2
:101370000FB6A1968EAE0BC0D8010FB6A2963FAEA7
:101380002EAEA2970FBE81E00FB6A1968EAFA197A9
:101390000FBE8FA58170782E89B191E0282F22236E
:1013A0000AF4912D0FB66F962EAD6F970FBE922750
:1013B00091709030A1F08095881F8827881F91E058
:1013C0000FB62A969EAF2A970FBE1BAB0AAB39AA5F
:1013D00028AA0FB66F968EAF6F970FBE3FC09801C9
:1013E0008AA99BA9281B390BA10188A999A9480B97
:1013F000590B81E02132310520E030E042075307EC
:1014000008F4812D0FB62A969EAD2A970FBE892328
:101410008170803009F422C00FB66F968EAD6F9741
:101420000FBE803009F465C281E00FB660968EAFC2
:1014300060970FBE1BA30AA339A228A2812D8BA7F8
:10144000812D0FB62A968EAF2A970FBE81E00FB678
:101450006F968EAF6F970FBE812D14C00FB660963A
:101460008EAD60970FBE8170803089F08BA5817042
:1014700091E00FB660969EAF60970FBE803009F482
:1014800088C185E00FB66D968EAF6D970BC086E074
:101490000FB66D968EAF6D970FBE812D0FB660960D
:1014A0008EAF60970FBE89B1807491E0803009F0F3
:1014B000912D0FB6A0962EADA0970FBE92279170DA
:1014C00090300FB66596FFAFEEAF65970FBE0FB6C3
:1014D0006496FEAF64970FBE0FB66296BFAFAEAF15
:1014E00062970FBEB1F082958F708695869521E048
:1014F00091E00FB62B969EAF2B970FBE82271FABA6
:101500000EAB3DAA2CAA0FB6A0968EAFA0970FBE29
:101510003FC098018EA99FA9281B390BA1018CA956
:101520009DA9480B590B81E02132310520E030E0C4
:101530004207530708F4812D0FB62B969EAD2B97CB
:101540000FBE89238170803009F422C00FB6A096A7
:101550008EADA0970FBE803009F4E8C181E00FB6D0
:1015600061968EAF61970FBE1FA30EA33DA22CA262
:10157000812D8CA7812D0FB62B968EAF2B970FBE8A
:1015800081E00FB6A0968EAFA0970FBE812D14C03C
:101590000FB661968EAD61970FBE8170803089F075
:1015A0008CA5817091E00FB661969EAF61970FBEDA
:1015B000803009F424C185E00FB66B968EAF6B972F
:1015C0000BC086E00FB66B968EAF6B970FBE812D6A
:1015D0000FB661968EAF61970FBE0FB6A6960EAD91
:1015E0001FADA6970FBE12950295107F1027007FA2
:1015F0001027000F111FC801990F990B892FB801EF
:1016000068277927681B790B40E050E0CA0120E089
:1016100038E70E94502D7C01770FEE1CFF1CB12C87
:1016200011231AF4F194E194FB08820112950295BA
:10163000107F1027007F1027000F111FC801990F7E
:10164000990B892FB80168277927681B790B40E02F
:1016500050E0CA0120E038E70E94502DAC01770F1E
:10166000441F551F11231AF4519541955B0989B107
:1016700009B10FB6A9969EADA9970FBE903009F09B
:1016800025C091E02F2D222321E00AF0212DE40E28
:10169000F51EE416F50684F0912D2927203079F007
:1016A000FF0CFF08EF2C20E030E8E226F326E114DF
:1016B00098E7F90644F40AC02927203089F7E11495
:1016C00098E7F9061CF020E038E779018470B12C26
:1016D00011E0803021E009F42B2D0870CE018C54EC
:1016E0009F4F0FB62C966EAD7FAD2C970FBE0E940C
:1016F0005300003021E009F42B2D88AD99AD0FB6D1
:1017000028966EAD7FAD28970FBEA7010E945300AB
:1017100083B181700FB6C158DF4FFEACCF57D040B8
:101720000FBE0FB6C758DF4F6EACC957D0400FBEC3
:101730000FB6C559DF4F9EADCB56D0400FBE90308F
:1017400001E062E00FB66B962EAD6B970FBE09F409
:1017500011C1803009F40EC10FB6C459DF4F9EADE0
:10176000CC56D0400FBE933009F004C10FB6C35918
:10177000DF4F9EADCD56D0400FBE903009F4F3C080
:10178000913009F0F7C00FB6C459DF4F6EAFCC5699
:10179000EFC0A8018AA19BA1481B590B910188A108
:1017A00099A1280B390B041715072206330691E07F
:1017B00008F0912D903060E070E009F4BA01613DCD
:1017C00087E0780781E008F056C0812D903040E036
:1017D00050E009F455C04115510591E009F056C09B
:1017E000912D4115510509F055C092E0803009F066
:1017F00056C094E0803081E009F454C054C0A80180
:101800008EA19FA1481B590B91018CA19DA1280B72
:10181000390B041715072206330691E008F0912DC5
:10182000903060E070E009F4BA01613D87E078072C
:1018300081E00FB6A6960EAD1FADA6970FBE08F0BD
:1018400039C0812D903040E050E009F438C0411596
:10185000510591E009F039C0912D4115510509F06C
:1018600038C092E0803009F039C094E0803081E0E7
:1018700009F437C037C0903040E050E009F0ABCFFA
:10188000A9014115510591E009F4AACF411551056F
:1018900009F4ABCF892F92E0803009F4AACF8030D1
:1018A00081E009F48BA50FB66D969EAF6D970FBEC4
:1018B0008BA7F9CD903040E050E009F0C8CFA901E6
:1018C0004115510591E009F4C7CF4115510509F4BF
:1018D000C8CF892F92E0803009F4C7CF803081E0F3
:1018E00009F48CA50FB66B969EAF6B970FBE8CA7B5
:1018F0007ACE8BA5817093E0803009F491E00FB629
:101900006D969EAF6D970FBE812D0FB62A968EAF46
:101910002A970FBE812D0FB660968EAF60970FBECF
:10192000812D0FB66F968EAF6F97BCCD8CA5817051
:1019300093E0803009F491E00FB66B969EAF6B9701
:101940000FBE812D0FB62B968EAF2B970FBE812D1C
:101950000FB661968EAF61970FBE812D0FB6A09620
:101960008EAFA09739CE0FB6C359DF4F0EAFCD560D
:10197000D0400FBE18270FB6C559DF4F1EAFCB564C
:10198000D0400FBE0FB66D969EAD6D970FBE9030D6
:1019900051F0203009F422C0253009F034C09230D3
:1019A00009F437C010C20FB6C459DF4F9EADCC56F4
:1019B000D0400FBE9250973008F095E0292F235069
:1019C0002230E0F0953009F4FEC10FB6C359DF4F65
:1019D0001EAFCD56D0400FBE95E0EEC10FB6C45934
:1019E000DF4F9EADCC56D0400FBE9250973008F0DE
:1019F00095E0292F2350223008F0D4C10FB6C459E6
:101A0000DF4F6EAFDDC1953009F0DDC1223009F046
:101A1000DAC10FB6A4962EAD3FADA4970FBE0FB698
:101A2000C359DF4F3FAF2EAFCD56D0400FBE20E0A1
:101A300030E00FB6CC58DF4F3FAF2EAFC457D04089
:101A40000FBE0FB6CE58DF4F3FAF2EAFC257D040BC
:101A50000FBE98E00FB6C459DF4F9EAFCC56D040B2
:101A60000FBE0FB6C159DF4F3FAE2EAECF56D0409E
:101A70000FBE9FB392709030E1F721E030E032BDAD
:101A800021BD0FBB90B59F3F29F09FEF90BD94E023
:101A90009FBB6FBB9FB392709030E1F724E030E0C2
:101AA00032BD21BD0FBB90B59F3F29F09FEF90BD88
:101AB00094E09FBB6FBB9FB392709030E1F727E03B
:101AC00030E032BD21BD0FBB90B59F3F29F09FEFA5
:101AD00090BD94E09FBB6FBB9FB392709030E1F7D5
:101AE0002AE030E032BD21BD0FBB90B59F3F29F009
:101AF0009FEF90BD94E09FBB6FBB9FB392709030FF
:101B0000E1F72DE030E032BD21BD0FBB90B59F3F26
:101B100029F09FEF90BD94E09FBB6FBB9FB3927085
:101B20009030E1F720E130E032BD21BD0FBB90B530
:101B30009F3F29F09FEF90BD94E09FBB6FBB9FB389
:101B400092709030E1F723E130E032BD21BD0FBB50
:101B500090B59F3F29F09FEF90BD94E09FBB6FBB76
:101B60009FB392709030E1F726E130E032BD21BDA5
:101B70000FBB90B59F3F29F09FEF90BD94E09FBBB6
:101B80006FBB9FB392709030E1F729E130E032BD36
:101B900021BD0FBB90B59F3F29F09FEF90BD94E012
:101BA0009FBB6FBB9FB392709030E1F72CE130E0A8
:101BB00032BD21BD0FBB90B59F3F29F09FEF90BD77
:101BC00094E09FBB6FBB9FB392709030E1F72FE121
:101BD00030E032BD21BD0FBB90B59F3F29F09FEF94
:101BE00090BD94E09FBB6FBB9FB392709030E1F7C4
:101BF00022E230E032BD21BD0FBB90B59F3F29F0FE
:101C00009FEF90BD94E09FBB6FBB9FB392709030ED
:101C1000E1F725E230E032BD21BD0FBB90B59F3F1B
:101C200029F09FEF90BD94E09FBB6FBB9FB3927074
:101C30009030E1F727E330E032BD21BD0FBB90B516
:101C40009F3F29F09FEF90BD94E09FBB6FBB9FB378
:101C500092709030E1F729E430E032BD21BD0FBB36
:101C600090B59F3F29F09FEF90BD94E09FBB6FBB65
:101C70009FB392709030E1F72BE530E032BD21BD8B
:101C80000FBB90B59F3F29F09FEF90BD94E09FBBA5
:101C90006FBB9FB392709030E1F72DE630E032BD1C
:101CA00021BD0FBB90B59F3F29F09FEF90BD94E001
:101CB0009FBB6FBB9FB392709030E1F72FE730E08E
:101CC00032BD21BD0FBB90B59F3F29F09FEF90BD66
:101CD00094E09FBB6FBB9FB392709030E1F721E916
:101CE00030E032BD21BD0FBB90B59F3F29F09FEF83
:101CF00090BD94E09FBB6FBB9FB392709030E1F7B3
:101D000023EA30E032BD21BD0FBB90B59F3F29F0E3
:101D10009FEF90BD94E09FBB6FBB9FB392709030DC
:101D2000E1F725EB30E032BD21BD0FBB90B59F3F01
:101D300029F09FEF90BD94E09FBB6FBB9FB3927063
:101D40009030E1F727EC30E032BD21BD0FBB90B5FC
:101D50009F3F29F09FEF90BD94E09FBB6FBB9FB367
:101D600092709030E1F729ED30E032BD21BD0FBB1C
:101D700090B59F3F29F09FEF90BD94E09FBB6FBB54
:101D80009FB392709030E1F72BEE30E032BD21BD71
:101D90000FBB90B59F3FB9F09FEF90BD94E09FBB04
:101DA0006FBB11C0953079F00FB6C359DF4F1EAF2E
:101DB000CD56D0400FBE96E00FB6C459DF4F9EAF50
:101DC000CC56D0400FBE972D923009F448C09330C6
:101DD00011F00C9453170FB6C459DF4F9EADCC567B
:101DE000D0400FBE9250973008F095E093300CF041
:101DF00046C0903009F4B8C1913011F00C945317DB
:101E00000FB6A8969EADA8970FBE913009F031C4C9
:101E10009AA59923973010F09AA59C500FB6C259F5
:101E2000DF4F2EADCE56D0400FBE22300CF45FC532
:101E3000223009F4E7C7233011F00C9418170FB6BD
:101E4000EA969EAFEA970FBE2AA522230FB6C65A7E
:101E5000DF4F9EAFCA55D0400FBE0C943F170FB650
:101E6000C459DF4F8EADCC56D0400FBE833009F43D
:101E700070C1843011F40C944C170C945317892FB3
:101E80008550823010F40C945317933009F0A2C19E
:101E90000FB6C359DF4F8EADCD56D0400FBE0FB633
:101EA000A6968EAFA6970FBE803009F414C40FB665
:101EB0006B966EAE6B970FBE82E19AA59802E02DED
:101EC0001124EE87EB5D0FB6CD5ADF4F8EADC355B3
:101ED000D0400FBE880F8E8B0FB6CF5ADF4F8EAD1E
:101EE000C155D0400FBE8795882787958C870FB640
:101EF000C55BDF4F7EADCB54D0400FBE770F0FB622
:101F0000E396BEACE3970FBEBB0C0FB6E1968EAD69
:101F1000E1970FBE8795882787958D870FB6AB967B
:101F20008EACAB970FBE880C0FB6A8968EADA89757
:101F30000FBE8F8382600FB66D968EAF6D970FBE0A
:101F40000FB6CC5ADF4F6EACC455D0400FBE660CF6
:101F5000660C0FB6C25BDF4F5EADCE54D0400FBEF5
:101F60005295507F0FB6C45BDF4F5EACCC54D0406F
:101F70000FBE550C550C0FB6E4968EADE4970FBE10
:101F8000880F880F0FB6AE966EADAE970FBE6295F6
:101F9000607F0FB6AC964EACAC970FBE440C440CB1
:101FA0000FB6CB5ADF4FAEACC555D0400FBEAA0C12
:101FB000AA0CAA0C0FB6C15BDF4FBEADCF54D04008
:101FC0000FBEB295B07FBB0F0FB6C35BDF4F9EACA9
:101FD000CD54D0400FBE990C990C990C0FB6E596D4
:101FE0009EADE5970FBE990F990F990F0FB6AF965B
:101FF0001EADAF970FBE1295107F110F0FB6AD96A5
:102000007EACAD970FBE770C770C770C0FB6C05B2C
:10201000DF4F4EADC055D0400FBE4295407F440FBC
:10202000440F0FB6E0960EADE0970FBE0295007F0D
:10203000000F000F0FB6C55ADF4F2EADCB55D04065
:102040000FBE298F0FB6C65ADF4F2EADCA55D040EE
:102050000FBE288F0FB6C75ADF4F2EADC955D040DF
:102060000FBE2F8B0FB6C85ADF4FDEACC855D0401D
:102070000FBE0FB6C95ADF4F2EADC755D0400FBEA9
:102080002D8B0FB6CA5ADF4F2EADC655D0400FBEAE
:102090002C8B0FB6CE5ADF4FAEADC255D0400FBE1F
:1020A0000FB6C65BDF4F2EADCA54D0400FBE2A8795
:1020B0000FB6EB962EADEB970FBE2B8B0FB6EA96B5
:1020C0002EADEA970FBE2A8B0FB6E9962EADE99793
:1020D0000FBE288B0FB6E8962EADE8970FBE298B62
:1020E0000FB6E796CEACE7970FBE0FB6E6962EADCD
:1020F000E6970FBE2F870FB6E296EEACE2970FBEC3
:102100000FB6AA962EADAA970FBE2B870FB6A9962B
:10211000FEADA9970FBE3FB332703030E1F72E2FDE
:10212000332732BD21BD21E02FBBF03031F42F81A8
:102130000FB66D962EAF6D970FBEE0B52E2F2A7A93
:102140002A3A3D2D09F0ECC3EA3A09F4EFC3E4E280
:10215000E8C30FB6C359DF4F8EADCD56D0400FBE8A
:10216000823009F499C69FC6803009F06CC28AA5F6
:1021700086300CF079C30FB6C659DF4F8EADCA5604
:10218000D0400FBEA82FBB27B295A295B07FBA272B
:10219000A07FBA27AA0FBB1F0FB62C968EAD9FAD9E
:1021A0002C970FBEA80FB91F8AA583300CF023C44B
:1021B000803011F40C94AE1F813011F40C94EA209D
:1021C000823011F00C9471220FB6C259DF4F1EAE4F
:1021D0000C943C210FB6C359DF4F8EADCD56D04085
:1021E0000FBE803009F4D1C282E19AA59802802DF9
:1021F0001124982F9B5D2FB322702030E1F7292FF7
:10220000332732BD21BD0FBB90B59A3A09F044C6C1
:102210008A5D9FB392709030E1F7E82FFF27F2BDFF
:10222000E1BD0FBBD0B49FB392709030E1F7DF01F6
:10223000A160B2BDA1BD0FBB00B52FB3227020308D
:10224000E1F7DF011296B2BDA1BD81E08FBB20B5E1
:102250003FB332703030E1F7DF011396B2BDA1BD5C
:1022600081E08FBBC0B44FB342704030E1F7DF0173
:102270001496B2BDA1BD81E08FBB80B45FB3527034
:102280005030E1F7DF011596B2BDA1BD81E08FBBF3
:1022900050B56FB362706030E1F7DF011696B2BDE2
:1022A000A1BD81E08FBB60B57FB372707030E1F784
:1022B000DF011796B2BDA1BD81E08FBB70B5AFB392
:1022C000A270A030E1F7DF011896B2BDA1BD81E098
:1022D0008FBBA0B5BFB3B270B030E1F72F01399614
:1022E000F2BDE1BD81E08FBBB0B5EFB3E270E0308D
:1022F000E1F7F2013A96F2BDE1BD81E08FBB10B586
:10230000EFB3E270E030E1F7F2013B96F2BDE1BDE0
:1023100081E08FBB30B5EFB3E270E030E1F7F2015E
:102320003C96F2BDE1BD81E08FBBB0B4EFB3E2708B
:10233000E030E1F7F2013D96F2BDE1BD81E08FBBF7
:10234000E0B4EFB3E270E030E1F7F2013E96F2BDA7
:10235000E1BD81E08FBBA0B4EFB3E270E030E1F704
:10236000F2013F96F2BDE1BD81E08FBB90B4EFB3C7
:10237000E270E030E1F7C201409692BD81BD41E0DC
:102380004FBBED81FE81FE9670B480E090E09383B8
:1023900082830FB6CA59DF4F9FAF8EAFC656D0406B
:1023A0000FBE0FB6C85BDF4F9FAF8EAFC854D04093
:1023B0000FBE0FB6CA5BDF4F9FAF8EAFC654D04083
:1023C0000FBE0FB6C45ADF4F1EAECC55D0400FBE65
:1023D0000FB6C55ADF4F7EAECB55D0400FBE0FB6FD
:1023E000C65ADF4F9EAECA55D0400FBE0FB6C75A71
:1023F000DF4FAEAEC955D0400FBE0FB6C85ADF4F43
:10240000EEAEC855D0400FBE0FB6C95ADF4FBEAEB4
:10241000C755D0400FBE3030E1E009F4E12D0FB6D2
:10242000CA5ADF4FEEAFC655D0400FBE812F8695FA
:10243000982F9695392F369531700FB6CB5ADF4FBE
:102440003EAFC555D0400FBE91700FB6CC5ADF4F8E
:102450009EAFC455D0400FBE81700FB6CD5ADF4F2E
:102460008EAFC355D0400FBE11700FB6CE5ADF4F9E
:102470001EAFC255D0400FBE8B2F881F8827881FE4
:102480000FB6CF5ADF4F8EAFC155D0400FBE8B2F46
:102490008295E82FEF70E6959E2F91700FB6C15B85
:1024A000DF4F9EAFCF54D0400FBE81700FB6C25BDE
:1024B000DF4F8EAFCE54D0400FBE8B2F8695982F16
:1024C0009695392F369531700FB6C35BDF4F3EAF0F
:1024D000CD54D0400FBE91700FB6C45BDF4F9EAF9E
:1024E000CC54D0400FBE81700FB6C55BDF4F8EAFAE
:1024F000CB54D0400FBEB1700FB6C65BDF4FBEAF3E
:10250000CA54D0400FBE0FB6EC961EAEEC970FBE6D
:102510000FB6EB96AEAFEB970FBE0FB6EA967EAF57
:10252000EA970FBE0FB6E9966EAFE9970FBE0FB6EA
:10253000E8965EAFE8970FBE0FB6E7968EAEE797C8
:102540000FBE8C2D803009F4412D0FB6E6964EAFAC
:10255000E6970FBE822F8695982F9695392F369540
:1025600031700FB6E5963EAFE5970FBE91700FB68E
:10257000E4969EAFE4970FBE81700FB6E3968EAFE0
:10258000E3970FBE21700FB6E2962EAFE2970FBE13
:10259000802F881F8827881F0FB6E1968EAFE1979E
:1025A0000FBE802F8295282F2F702695922F917025
:1025B0000FB6AF969EAFAF970FBE81700FB6AE96B7
:1025C0008EAFAE970FBE802F8695982F9695392F98
:1025D000369531700FB6AD963EAFAD970FBE917088
:1025E0000FB6AC969EAFAC970FBE81700FB6AB9690
:1025F0008EAFAB970FBE01700FB6AA960EAFAA971B
:102600000FBE9D2D892F869581700FB6A9968EAF2E
:10261000A9970FBE91700FB6A8969EAFA8970FBE50
:10262000E695E1700FB6C05BDF4FEEAFC055D0400E
:102630000FBE269521700FB6E0962EAFE0970FBE25
:1026400001E062E029C48AA599270FB6A8962EADAD
:10265000A8970FBE213009F02BC12D813E81820F3A
:10266000931FFC0182818027828382A1802782A31D
:102670001AC40FB6C659DF4F9EADCA56D0400FBE22
:102680002AA52223292F332732952295307F3227FE
:10269000207F3227220F331F0FB62C964EAD5FAD31
:1026A0002C970FBE240F351F0FB6C259DF4F9EADBA
:1026B000CE56D0400FBE92300CF42BC1923009F4AC
:1026C000B0C3933009F0C3C39AA5973008F09C506B
:1026D000F901908BD4C30FB6C659DF4F8EADCA56E1
:1026E000D0400FBEA82FBB27B295A295B07FBA27C6
:1026F000A07FBA27AA0FBB1F0FB62C968EAD9FAD39
:102700002C970FBEA80FB91FBD01FB0180859185D5
:10271000990F982BE284EE0CEE0CE92A83E09AA53F
:102720009802202D1124122F139543853C919781F7
:102730009795992797958181880F54815295507F5D
:102740007281770F770F65816295607F660FB38125
:10275000BB0FBB0FBB0FF681F295F07FFF0FFF0F92
:10276000EFB3E270E030E1F7012F112712BD01BD98
:1027700001E00FBBE0B5AE2FAA7AAA3A09F016C164
:10278000EA3A09F419C1E4E212C183E09AA5980279
:102790001124802D83950FB6C659DF4F9EADCA56C2
:1027A000D0400FBE2FB322702030E1F7E82FFF2773
:1027B000F2BDE1BD0FBB30B58FB382708030E1F761
:1027C000DF011196B2BDA1BD0FBB80B52FB3227042
:1027D0002030E1F73296F2BDE1BD0FBB20B53A3AA9
:1027E00009F05AC3A92FBB27B295A295B07FBA278B
:1027F000A07FBA27AA0FBB1F0FB62C964EAD5FADB8
:102800002C970FBEA40FB51F922F9695392F369592
:10281000432F46954170FD01438731703287917097
:10282000918721702087982F991F9927991F978347
:10283000282F2295922F9F709695392F31703583CE
:1028400021702483282F2695322F3695432F4695C5
:1028500041704383317032832170218381708C9366
:1028600096959170968318C389300CF0D3C086304A
:1028700011F40C94B420873011F40C943821883072
:1028800011F00C94712284E091E00FB6C459DF4F2F
:102890009FAF8EAFCC56D0400FBE0FB6A9968EAD6F
:1028A000A9970FBE80270FB6A9968EAFA997FAC237
:1028B0000FB6C659DF4F2EADCA56D0400FBEA22F5D
:1028C000BB27B295A295B07FBA27A07FBA27AA0FDF
:1028D000BB1F0FB62C962EAD3FAD2C970FBEA20F8F
:1028E000B31FA80FB91F8C9180278C93DCC22030B6
:1028F00009F0B4C29AA50FB6E7969EAFE7970FBE50
:1029000099230FB6C95ADF4F9EAFC755D0400FBEAF
:10291000B6C2F901903009F0B0C29AA59587AFC24E
:10292000E4E02AEA20BDEFBB22E02FBB2E892A2B50
:1029300026292A29BE28B82AB92A8A85782B7529FA
:102940007929752B7B2B742B8C85782B8B85882A8A
:1029500084288728862A812A802A8D85882A9E8530
:102960009A5D8FB382708030E1F7E92FFF27F2BDC7
:10297000E1BD01E00FBB80B5982F90950FB66D9625
:10298000AEAC6D970FBE9A21903062E00FB66B9699
:102990006EAC6B970FBEE98C4D895C89AB89BA89A7
:1029A000188909F451C084E0D98852C0E4E0AAEA49
:1029B000A0BDEFBBE2E0EFBB440F440F440FE42A9D
:1029C000832B872B8B2B852B862B8F2B892B2E5F95
:1029D0009FB392709030E1F7E22FFF27F2BDE1BD87
:1029E0000FBB90B5292F20952823203062E009F4F1
:1029F00043C094E044C0833011F40C94BA20843076
:102A000011F40C944821853011F00C94712284E06B
:102A10000C94B520893011F40C94BF208A3011F445
:102A20000C944E218B3011F00C9471220FB6A896A5
:102A30008EADA8970FBE803009F035C20FB6C659CB
:102A4000DF4F0EAF0C945B218A15D98821F084E208
:102A5000A0BC8FBB6FBB8FB382708030E1F7CF011A
:102A6000816092BD81BD0FBB80B5982F9095982154
:102A70009030D9F084E01CC0981721F094E280BD1A
:102A80009FBB6FBB8FB382708030E1F73196F2BD90
:102A9000E1BD0FBB80B5982F90959E219030E1F05D
:102AA00084E0A981BA819AA570C1881521F084E2D9
:102AB00080BC8FBB6FBB8FB382708030E1F7CF01DA
:102AC000029692BD81BD0FBB80B5982F90959B213A
:102AD000903061F084E00DC08E15A981BA819AA56D
:102AE00009F456C184E2A981BA814FC18B1521F046
:102AF00084E2B0BC8FBB6FBB8FB382708030E1F7D4
:102B0000CF01039692BD81BD0FBB80B5982F9095E4
:102B1000BF849B21903011F084E003C08B1521F01D
:102B200084E2B0BC8FBB6FBB8FB382708030E1F7A3
:102B3000CF01049692BD81BD0FBB80B5982F9095B3
:102B40009C21903011F084E003C08C1521F084E2C8
:102B5000C0BC8FBB6FBB8FB382708030E1F7CF01F9
:102B6000059692BD81BD0FBB80B5982F90959D2194
:102B7000903011F084E003C08D1521F084E2D0BCC8
:102B80008FBB6FBB8FB382708030E1F7CF010696A9
:102B900092BD81BD0FBB80B5982F90959123903049
:102BA00011F084E003C0811721F084E210BD8FBBD7
:102BB0006FBB8FB382708030E1F7CF01079692BD73
:102BC00081BD0FBB80B5982F90959B23903011F05D
:102BD00084E003C08B1721F084E2B0BD8FBB6FBBD4
:102BE0008FB382708030E1F7CF01089692BD81BD2E
:102BF0000FBB80B5982F90959A23903011F084E008
:102C000003C08A1721F084E2A0BD8FBB6FBB8FB3D6
:102C100082708030E1F7CF01099692BD81BD0FBB74
:102C200080B5982F90959723903011F084E003C0E1
:102C3000871721F084E270BD8FBB6FBB8FB38270AA
:102C40008030E1F7CF010A9692BD81BD0FBB80B500
:102C5000982F90959223903011F084E003C0821752
:102C600021F084E220BD8FBB6FBB8FB382708030B8
:102C7000E1F7CF010B9692BD81BD0FBB80B5982FB8
:102C8000909595239030288D11F084E003C085172E
:102C900021F084E250BD8FBB6FBB8FB38270803058
:102CA000E1F7CF010C9692BD81BD0FBB80B5982F87
:102CB00090959423903011F084E003C0841721F0A4
:102CC00084E240BD8FBB6FBB8FB382708030E1F771
:102CD000CF010D9692BD81BD0FBB80B5982F909509
:102CE0009323903011F084E003C0831721F084E235
:102CF00030BD8FBB6FBB8FB382708030E1F7CF01E7
:102D00000E9692BD81BD0FBB80B5982F90953F89DF
:102D10009323903011F084E003C0831721F084E204
:102D200030BD8FBB6FBB8FB382708030E1F7CF01B6
:102D30000F9692BD81BD0FBB80B5982F90959223C1
:102D4000903011F084E003C0821721F084E220BDAE
:102D50008FBB6FBB8FB382708030E1F77096F2BD8E
:102D6000E1BD0FBB80B5982F90959E21903029F042
:102D700084E0AB81BC819AA508C08E15AB81BC8173
:102D80009AA531F084E2AB81BC81E0BC8FBB6FBB04
:102D9000977081E09A951AF0880F9A95EAF74AA5FC
:102DA000942F969596959695292F3327A20FB31FAA
:102DB0009C91982B9C930FB6C059DF4F3FAE2EAE1F
:102DC000C057D0400FBE0FB6A4968EAD9FADA4974E
:102DD0000FBE0FB6C259DF4F9FAF8EAFCE56D04059
:102DE0000FBE0FB6C359DF4F4EAFCD56D0400FBE0A
:102DF0000FB6A6968EADA6970FBE0FB6C459DF4F7D
:102E00008EAF4EC00FB6E9969EAFE9970FBE2AA5CA
:102E100022230FB6C75ADF4F9EAFC955D0400FBE11
:102E20002EC09AA5973008F09C50F901978727C0CB
:102E30000FB6EB969EAFEB970FBE2AA522230FB6D7
:102E4000C55ADF4F9EAFCB55D0400FBE18C09AA5D4
:102E5000973008F09C50F901918B11C09AA50FB6DC
:102E6000E8969EAFE8970FBE99230FB6C85ADF4F7A
:102E70009EAFC855D0400FBE02C09AA596870FB628
:102E8000C359DF4F9EADCD56D0400FBE903009F4F0
:102E900044C6923009F043C60FB6C459DF4F6EAF37
:102EA000CC56D0400FBE0FB6C459DF4F8EADCC56B6
:102EB000D0400FBE982F9250973008F095E0933095
:102EC000ACF0292F2350223008F065C00FB6C3594B
:102ED000DF4F2EADCD56D0400FBE203009F000C2DE
:102EE0000FB6CE58DF4F3EADC257FFC1903009F448
:102EF000E5C0913009F0DEC10FB6C659DF4F8EAD87
:102F0000CA56D0400FBE992792958295907F9827F8
:102F1000807F9827880F991F0FB62C962EAD3FAD56
:102F20002C970FBE820F931F0FB6C259DF4F2EADE5
:102F3000CE56D0400FBEFC0122300CF453C42230D8
:102F400009F4BBC4233009F0DDC410898A8D9B8D40
:102F500063E04BE050E00E94B92D82E00FB6C2570B
:102F6000DF4F8EAFCE58D0400FBE812F88230AF09E
:102F7000DDC4145F88A599A5A12FB12FBB0FBB0B92
:102F80001C3010F00C946822A80FB91F0C931395F5
:102F90001C3091F7DEC5953009F053C20FB6C25907
:102FA000DF4F2EAD3FADCE56D0400FBE0FB6C0594D
:102FB000DF4F4EAD5FADC057D0400FBE0FB6A496E9
:102FC000AEADBFADA4970FBEA21BB30B240A350A4A
:102FD00091E0A11524E0FD01B20720E030E02206D7
:102FE000330608F4912D9170903039F00FB6C45922
:102FF000DF4F6EAFCC56D0400FBE0FB6C359DF4F78
:103000002EADCD56D0400FBE0FB6C659DF4F9EAD88
:10301000CA56D0400FBE43E053E00FB6C856DF4F4C
:103020005FAF4EAFC859D0400FBE0FB6CA56DF4F84
:103030005FAF4EAFC659D0400FBE0FB6CC56DF4F74
:103040005FAF4EAFC459D0400FBE0FB6CE56DF4F64
:103050005FAF4EAFC259D0400FBE0FB6C057DF4F63
:103060005FAF4EAFC059D0400FBE0FB6C257DF4F53
:103070005FAF4EAFCE58D0400FBEE078F07031E079
:10308000E115F10540E050E04407550709F4312D02
:103090003170303009F05DC5A22FBB272C3010F005
:1030A0000C946822817022E0803011F49170292FF5
:1030B00088A599A5A80FB91F2C934BC50FB6C65963
:1030C000DF4F8EADCA56D0400FBE23E033E00FB6BF
:1030D000C856DF4F3FAF2EAFC859D0400FBE0FB616
:1030E000CA56DF4F3FAF2EAFC659D0400FBE0FB606
:1030F000CC56DF4F3FAF2EAFC459D0400FBE0FB6F6
:10310000CE56DF4F3FAF2EAFC259D0400FBE0FB6E5
:10311000C057DF4F3FAF2EAFC059D0400FBE0FB6E4
:10312000C257DF4F3FAF2EAFCE58D0400FBE0FB6C5
:10313000A8969EADA8970FBE913009F000C20FB6B9
:10314000AA968EADAA970FBE803039F00FB6C2573F
:10315000DF4F6EAFCE58D0400FBE0FB6AB968EADE0
:10316000AB970FBE813039F40FB6C157DF4F6EAF4A
:10317000CF58D0400FBE0FB6AC968EADAC970FBEF9
:10318000813039F40FB6C057DF4F6EAFC059D04011
:103190000FBE0FB6AD968EADAD970FBE813039F430
:1031A0000FB6CF56DF4F6EAFC159D0400FBE0FB62E
:1031B000AE968EADAE970FBE813039F40FB6CE56B7
:1031C000DF4F6EAFC259D0400FBE0FB6AF968EAD77
:1031D000AF970FBE813039F40FB6CD56DF4F6EAFCB
:1031E000C359D0400FBE0FB6E0968EADE0970FBE2C
:1031F000813039F40FB6CC56DF4F6EAFC459D04092
:103200000FBE0FB6E1968EADE1970FBE813039F457
:103210000FB6CB56DF4F6EAFC559D0400FBE0FB6BD
:10322000E2968EADE2970FBE813039F40FB6CA56E2
:10323000DF4F6EAFC659D0400FBE0FB6E3968EADCE
:10324000E3970FBE813039F40FB6C956DF4F6EAF2A
:10325000C759D0400FBE0FB6E4968EADE4970FBEAF
:10326000813039F40FB6C856DF4F6EAFC859D04021
:103270000FBE0FB6E5968EADE5970FBE813039F4DF
:103280000FB6C756DF4F6EAFC959D0400FBE8F2D56
:103290009F2D990F990B2CE030E04901B4010E9459
:1032A000602DDC01A8A4B9A4AA0DBB1D0C93F62CBB
:1032B000112DC8C10FB6C359DF4F8EADCD56D040CA
:1032C0000FBE803009F4A2C2823009F0BBC20FB633
:1032D000A8962EADA8970FBE202783E093E0B9C231
:1032E0000FB6CC58DF4F3EADC457D0400FBE82E082
:1032F000203041F40FB6C659DF4F8EADCA56D040CC
:103300000FBE817093E0432F442343E00AF4482F1B
:103310000FB6C757DF4F4EAFC958D0400FBE432F2F
:103320004074403043E009F0482F0FB6C857DF4FD4
:103330004EAFC858D0400FBE432F4072403043E0DC
:1033400009F0482F0FB6C957DF4F4EAFC758D040CE
:103350000FBE432F4071403043E009F0482F0FB6B5
:10336000CA57DF4F4EAFC658D0400FBE432F4870EC
:10337000403043E009F0482F0FB6CB57DF4F4EAF38
:10338000C558D0400FBE432F4470403043E009F091
:10339000482F0FB6CC57DF4F4EAFC458D0400FBEAA
:1033A000432F4270403043E009F0482F0FB6CD570D
:1033B000DF4F4EAFC358D0400FBE3170303033E0D6
:1033C00009F0382F0FB6CE57DF4F3EAFC258D0406E
:1033D0000FBE2030ABE0B0E011F4A9E0B0E02E8DDC
:1033E0003F8DA20FB31F2C91322F3870303033E055
:1033F00009F0382F0FB6C357DF4F3EAFCD58D0403E
:103400000FBE322F3470303033E009F0382F0FB652
:10341000C457DF4F3EAFCC58D0400FBE322F327072
:10342000303033E009F0382F0FB6C557DF4F3EAFCD
:10343000CB58D0400FBE2170203009F438C2982FED
:1034400036C20FB6C359DF4F8EAD9FADCD56D040BB
:103450000FBE0FB6C159DF4F2EAD3FADCF56D04096
:103460000FBE0FB6A4964EAD5FADA4970FBE481B1E
:10347000590B220A330A81E0403493E07A0159075C
:1034800020E030E02206330608F4812D8170803080
:1034900039F00FB6C459DF4F6EAFCC56D0400FBED7
:1034A00083E093E00FB6C856DF4F9FAF8EAFC85989
:1034B000D0400FBE0FB6CA56DF4F9FAF8EAFC65972
:1034C000D0400FBE0FB6CC56DF4F9FAF8EAFC45962
:1034D000D0400FBE0FB6CE56DF4F9FAF8EAFC25952
:1034E000D0400FBE0FB6C057DF4F9FAF8EAFC05951
:1034F000D0400FBE0FB6C257DF4F9FAF8EAFCE5832
:10350000D0400FBEC701929582958F7089279F701A
:10351000892796958795969587956CE070E00E942F
:10352000602DE11423E0F206A0E0B0E008F4DC0135
:1035300088A599A5A80FB91F82E08C938EC0A82FEB
:10354000BB27B295A295B07FBA27A07FBA27AA0F52
:10355000BB1F0FB62C962EAD3FAD2C970FBEA20F02
:10356000B31F2C91982F9170203009F4D5C00FB65D
:10357000C257DF4F9EAFCE58D0400FBEFD01218114
:10358000213009F4CEC0FD012281213009F0D5C0DF
:103590000FB6C057DF4F9EAFC059D0400FBEFD01E0
:1035A0002381213009F4CEC0FD012481213009F0AE
:1035B000D5C00FB6CE56DF4F9EAFC259D0400FBE1A
:1035C000FD012581213009F4CEC0FD012681213085
:1035D00009F0D5C00FB6CC56DF4F9EAFC459D040CE
:1035E0000FBEFD012781213009F4CEC0FD012085E9
:1035F000213009F0D5C00FB6CA56DF4F9EAFC6596D
:10360000D0400FBEFD012185213009F4CEC0FD015F
:103610002285213009F0D5C00FB6C856DF4F9EAFC6
:10362000C859D0400FBEFD012385213009F4CEC01A
:103630008170803009F4F62C12E0A8A4B9A48CE0C3
:1036400090E04C018F2D9F2D990F990BB4010E9492
:10365000602DDC01AA0DBB1D1C930FB6C257DF4FB6
:103660008EAD9FADCE58D0400FBE0FB6CE57DF4FB8
:103670009FAF8EAFC258D0400FBE0FB6C057DF4FBE
:103680008EAD9FADC059D0400FBE0FB6CC57DF4FA7
:103690009FAF8EAFC458D0400FBE0FB6CE56DF4F8F
:1036A0008EAD9FADC259D0400FBE0FB6CA57DF4F87
:1036B0009FAF8EAFC658D0400FBE0FB6CC56DF4F6F
:1036C0008EAD9FADC459D0400FBE0FB6C857DF4F67
:1036D0009FAF8EAFC858D0400FBE0FB6CA56DF4F4F
:1036E0008EAD9FADC659D0400FBE0FB6C657DF4F47
:1036F0009FAF8EAFCA58D0400FBE0FB6C856DF4F2F
:103700008EAD9FADC859D0400FBE0FB6C457DF4F26
:103710009FAF8EAFCC587BC2FD012181213009F0D3
:1037200032CF0FB6C157DF4F9EAFCF58D0400FBE3C
:10373000FD012281213009F42BCFFD0123812130AD
:1037400009F032CF0FB6CF56DF4F9EAFC159D040F0
:103750000FBEFD012481213009F42BCFFD0125810D
:10376000213009F032CF0FB6CD56DF4F9EAFC3598F
:10377000D0400FBEFD012681213009F42BCFFD0181
:103780002781213009F032CF0FB6CB56DF4F9EAFE5
:10379000C559D0400FBEFD012085213009F42BCF43
:1037A000FD012185213009F032CF0FB6C956DF4F18
:1037B0009EAFC759D0400FBEFD012285213009F4CC
:1037C0002BCFFD012385213009F032CF0FB6C7562C
:1037D000DF4F9EAFC959D0400FBE8170803009F4D1
:1037E0002ACF2ACF203009F014C185858A958E3FD3
:1037F00008F414C1E3E0A3E0F3E073E063E053E016
:1038000043E033E023E093E083E035C10FB6C659CF
:10381000DF4F8EADCA56D0400FBE99279295829544
:10382000907F9827807F9827880F991F0FB62C9636
:103830002EAD3FAD2C970FBE820F931FFC018485E8
:1038400093E006C083E00FB6A9969EADA9970FBE80
:1038500023E043E053E00FB6CC57DF4F5FAF4EAFEE
:10386000C458D0400FBE0FB6CE57DF4F5FAF4EAF3C
:10387000C258D0400FBE0FB6CA57DF4F8EAFC658E2
:10388000D0400FBEEC8DFD8D83E082835183408359
:103890000FB6C457DF4F5FAF4EAFCC58D0400FBE0E
:1038A0000FB6C557DF4F2EAFCB58D0400FBE0FB667
:1038B000C657DF4F9EAFCA58AAC117858A8D9B8D08
:1038C00063E04BE050E00E94B92D82E00FB6C25792
:1038D000DF4F8EAFCE58D0400FBE812F88230AF025
:1038E00025C0145F88A599A5A12FB12FBB0FBB0BD5
:1038F0001C3008F0EDC5A80FB91F0C9313951C30B0
:1039000099F727C111898A8D9B8D63E04BE050E0C8
:103910000E94B92D82E00FB6C257DF4F8EAFCE584E
:10392000D0400FBE812F88230AF403C113951230B3
:103930000CF40FC10FB6C157DF4F1EAECF58D040A9
:103940000FBE123009F405C10FB6C057DF4F1EAECF
:10395000C059D0400FBE133009F4FBC00FB6CF568C
:10396000DF4F1EAEC159D0400FBE143009F4F1C074
:103970000FB6CE56DF4F1EAEC259D0400FBE153027
:1039800009F4E7C00FB6CD56DF4F1EAEC359D04085
:103990000FBE163009F4DDC00FB6CC56DF4F1EAE99
:1039A000C459D0400FBE173009F4D3C00FB6CB5660
:1039B000DF4F1EAEC559D0400FBE183009F4C9C044
:1039C0000FB6CA56DF4F1EAEC659D0400FBE1930D3
:1039D00009F4BFC00FB6C956DF4F1EAEC759D0405D
:1039E0000FBE1A3009F4B5C00FB6C856DF4F1EAE71
:1039F000C859D0400FBE1B3009F4ABC00FB6C75634
:103A0000DF4F1EAEC959D0400FBE1C3009F4A1C013
:103A100064C586858A958E3F08F0ECCE8B3008F021
:103A20005CC5A82FBB27FD01E353FE4F8081FD013C
:103A3000EE53FE4F9081FD01E954FE4F2081FD01C0
:103A4000E455FE4F3081FD01EF55FE4F4081FD01F1
:103A5000EA56FE4F5081FD01E557FE4F6081FD01A2
:103A6000E058FE4F7081FD01EB58FE4FF081A659E2
:103A7000BE4FAC91E12D0FB6C357DF4F8EAFCD587F
:103A8000D0400FBE0FB6C457DF4F9EAFCC58D040CA
:103A90000FBE0FB6C557DF4F2EAFCB58D0400FBE6D
:103AA0000FB6C657DF4F3EAFCA58D0400FBE0FB655
:103AB000C757DF4F4EAFC958D0400FBE0FB6C857DB
:103AC000DF4F5EAFC858D0400FBE0FB6C957DF4FAB
:103AD0006EAFC758D0400FBE0FB6CA57DF4F7EAF8C
:103AE000C658D0400FBE0FB6CB57DF4FFEAFC558FC
:103AF000D0400FBE0FB6CC57DF4FAEAFC458D0404A
:103B00000FBE0FB6CD57DF4FEEAFC358D0400FBE3C
:103B100082E00FB6CE57DF4F78C091E004C091E04D
:103B2000803009F092E00FB6C359DF4F9EAFCD56FB
:103B3000B8C9145F88A599A5A12FB12FBB0FBB0BE6
:103B40001C3008F0C5C4A80FB91F0C9313951C3086
:103B500099F70FB6C856DF4F8EAD9FADC859D0400C
:103B60000FBE0FB6C457DF4F9FAF8EAFCC58D040BB
:103B70000FBE0FB6CA56DF4F8EAD9FADC659D040AF
:103B80000FBE0FB6C657DF4F9FAF8EAFCA58D0409B
:103B90000FBE0FB6CC56DF4F8EAD9FADC459D0408F
:103BA0000FBE0FB6C857DF4F9FAF8EAFC858D0407B
:103BB0000FBE0FB6CE56DF4F8EAD9FADC259D0406F
:103BC0000FBE0FB6CA57DF4F9FAF8EAFC658D0405B
:103BD0000FBE0FB6C057DF4F8EAD9FADC059D0405E
:103BE0000FBE0FB6CC57DF4F9FAF8EAFC458D0403B
:103BF0000FBE0FB6C257DF4F8EAD9FADCE58D0402F
:103C00000FBE0FB6CE57DF4F9FAF8EAFC258D0401A
:103C10000FBE0FB667968EAD9FAD67970FBE0FB6FE
:103C2000C658DF4FEEACFFACCA57D0400FBEE81607
:103C3000F90609F42FC0E114F104812D912DE1F072
:103C4000C701990F990B892F182F0F2D7E2D612DEC
:103C5000C80128E730E040E050E00E94742D0837AA
:103C600011058FEF9FE038F4329522952F702327AE
:103C70003F702327C90101E090632A989EBD9DB53E
:103C80009923EAF79EB58EBD8DB58823EAF78EB5E8
:103C90002A9A2A9A0FB6C058DF4F2EAC3FACC058B4
:103CA000D0400FBE0FB669968EAD9FAD69970FBE1F
:103CB0002816390609F42EC021143104812D912DC6
:103CC000E1F0C101990F990B892F182F032D722D47
:103CD000612DC80128E730E040E050E00E94742DDB
:103CE000083711058FEF9FE038F4329522952F7039
:103CF00023273F702327C90101E0906B2A989EBDBE
:103D00009DB59923EAF79EB58EBD8DB58823EAF758
:103D10008EB52A9A009351030FB6CA58DF4F8EAD65
:103D2000C657D0400FBE829580710FB6C458DF4F82
:103D30003EADCC57D0400FBE3295307F330F30723E
:103D4000382B0FB6C258DF4F8EADCE57D0400FBEC6
:103D50000FB6C858DF4F9EADC857D0400FBE0FB644
:103D6000C358DF4F2EADCD57D0400FBE0FB6C95848
:103D7000DF4F4EADC757D0400FBE5BB15F7C532BBA
:103D80005BB9417034E0403009F4312D48B14B7FCC
:103D9000432B48B9217030E120300FB665966EADE7
:103DA0007FAD65970FBE0FB664965EAD64970FBE8C
:103DB0000FB662960EAD1FAD62970FBE09F4312D9E
:103DC00028B12F7E232B28B9917022E0903009F47E
:103DD000212D98B19D7F922B98B9817098E0803009
:103DE00009F4912D88B1877F892B88B90FB6CE57FA
:103DF000DF4F8EADC258D0400FBE0FB627969EAD96
:103E000027970FBE891709F08AC20FB6CD57DF4F2B
:103E10008EADC358D0400FBE0FB626969EAD2697E6
:103E20000FBE891709F07BC20FB6CC57DF4F8EAD9E
:103E3000C458D0400FBE0FB625969EAD25970FBE35
:103E4000891709F06CC20FB6CB57DF4F8EADC5583E
:103E5000D0400FBE0FB624969EAD24970FBE891793
:103E600009F05DC20FB6CA57DF4F8EADC658D040BD
:103E70000FBE0FB623969EAD23970FBE891709F08C
:103E80004EC20FB6C957DF4F8EADC758D0400FBED8
:103E90000FB622969EAD22970FBE891709F03FC23A
:103EA0000FB6C857DF4F8EADC858D0400FBE0FB603
:103EB00021969EAD21970FBE891709F030C20FB62B
:103EC000C757DF4F8EADC958D0400FBE9EAD891782
:103ED00009F025C20FB6C657DF4F8EADCA58D04085
:103EE0000FBE9DAD891709F01AC20FB6C557DF4F37
:103EF0008EADCB58D0400FBE9CAD891709F00FC2D4
:103F00000FB6C457DF4F8EADCC58D0400FBE9BAD1F
:103F1000891709F004C20FB6C357DF4F8EADCD58D5
:103F2000D0400FBE9AAD891791013701D8010FB665
:103F3000A2968EAD9FADA2970FBE0FB66D969FAFA6
:103F40008EAF6D970FBEA52E962E0FB6A1968EAC96
:103F5000A1970FBE11F40C946808E1C10FB6A896A2
:103F60008EADA8970FBE813009F0A8C10FB6E596B7
:103F70008EADE5970FBE0FB6AA969EADAA970FBE5F
:103F80000FB6E5969EAFE5970FBE0FB6E3962EAD42
:103F90003FADE3970FBE0FB6E4968EAFE4970FBE2A
:103FA0000FB6E1968EAD9FADE1970FBE0FB6E296CC
:103FB0003FAF2EAFE2970FBE0FB6AF962EAD3FAD1F
:103FC000AF970FBE0FB6E0969FAF8EAFE0970FBED4
:103FD0000FB6AD968EAD9FADAD970FBE0FB6AE9638
:103FE0003FAF2EAFAE970FBE0FB6AC962EADAC97CF
:103FF0000FBE0FB6AC969FAF8EAFAC970FBE0FB68D
:10400000AB968EADAB970FBE0FB6AB962EAFAB9700
:104010000FBE0FB6AA968EAFAA970FBE0FB6CB5A99
:10402000DF4F8EADC555D0400FBE0FB6C65BDF4F1C
:104030009EADCA54D0400FBE0FB6CB5ADF4F9EAFD5
:10404000C555D0400FBE0FB6CC5ADF4F9EADC455FC
:10405000D0400FBE0FB6CC5ADF4F8EAFC455D04004
:104060000FBE0FB6CD5ADF4F8EADC355D0400FBE39
:104070000FB6CD5ADF4F9EAFC355D0400FBE0FB61F
:10408000CE5ADF4F9EADC255D0400FBE0FB6CE5AAE
:10409000DF4F8EAFC255D0400FBE0FB6CF5ADF4FA5
:1040A0008EADC155D0400FBE0FB6CF5ADF4F9EAF79
:1040B000C155D0400FBE0FB6C05BDF4F9EADC0559F
:1040C000D0400FBE0FB6C05BDF4F8EAFC055D040A3
:1040D0000FBE0FB6C15BDF4F8EADCF54D0400FBEC9
:1040E0000FB6C15BDF4F9EAFCF54D0400FBE0FB6AF
:1040F000C25BDF4F9EADCE54D0400FBE0FB6C25B49
:10410000DF4F8EAFCE54D0400FBE0FB6C35BDF4F34
:104110008EADCD54D0400FBE0FB6C35BDF4F9EAF08
:10412000CD54D0400FBE0FB6C45BDF4F9EADCC5414
:10413000D0400FBE0FB6C45BDF4F8EAFCC54D04023
:104140000FBE0FB6C55BDF4F8EADCB54D0400FBE58
:104150000FB6C55BDF4F9EAFCB54D0400FBE0FB63E
:10416000C65BDF4F8EAF81C083E00FB6C259DF4F11
:104170008EAF82C00FB6C259DF4F0EAF7DC084E054
:1041800092E00FB6C459DF4F9FAF8EAFCC56D040F0
:104190000FBE0FB6A8968EADA8970FBE982F90278A
:1041A0000FB6A8969EAFA8970FBE803009F07FC0CB
:1041B0000FB628968EAD9FAD28970FBE0FB62C96E2
:1041C0006EAD7FAD2C970FBE42E150E00E94B02D46
:1041D00062E06DC00FB6A8968EADA8970FBE813075
:1041E00009F087C00FB6AA963EADAA970FBE81E030
:1041F00090E002C00196322F0FB62C96AEADBFAD47
:104200002C970FBEA80FB91F2C913C938B309105B2
:1042100088F30B9781159105322F71F70FB6AA9687
:104220002EAFAA970FBE0FB6C65BDF4F3EADCA5486
:10423000D0400FBE81E090E002C00196322F0FB651
:104240002896AEADBFAD28970FBEA80FB91F2C9111
:104250003C938B30910588F30B9781159105322F94
:1042600071F70FB6C65BDF4F2EAFCA540C945117CF
:104270000FB6C259DF4F6EAFCE56D0400FBE83E0AF
:1042800090E00FB6C459DF4F9FAF8EAF0C9450171C
:10429000FD0184858027848784E0F2CF0FB6A8963D
:1042A0008EADA8970FBE803011F00C9453170FB647
:1042B000C659DF4F1EAECA560C945117FD018385B7
:1042C0009C9193872185328582878781908531876C
:1042D00020872581368197838683838194813583E6
:1042E0002483228193838283818121838C930C9404
:1042F00053173C9181E090E002C00196322FFD01FE
:10430000E80FF91F208130838B309105B0F30B97B4
:1043100081159105322F99F72C930C9453172998F6
:1043200080E090E06C01A885B985A115B10509F080
:104330002AC035C0ADA5BEA5A80FB91F01966C0156
:1043400080E090E02C91E22FFF27DF01A852BE4FC2
:104350002C912EBDDF01A052BE4F2C91E452FE4F96
:1043600030814DB54423EAF74EB53EBD3DB533230C
:10437000EAF73EB52EBD2DB52223EAF72EB5DC01B6
:10438000A115B10561F00FB62E968EAD9FAD2E979B
:104390000FBEA817B90719F0CD010196D3CFC601FA
:1043A0008630910509F0C6CF299A0FB6C357DF4F63
:1043B0008EADCD58D0400FBE8AAF0FB6C457DF4F79
:1043C0008EADCC58D0400FBE8BAF0FB6C557DF4F68
:1043D0008EADCB58D0400FBE8CAF0FB6C657DF4F57
:1043E0008EADCA58D0400FBE8DAF0FB6C757DF4F46
:1043F0008EADC958D0400FBE8EAF0FB6C857DF4F35
:104400008EADC858D0400FBE0FB621968EAF219703
:104410000FBE0FB6C957DF4F8EADC758D0400FBE85
:104420000FB622968EAF22970FBE0FB6CA57DF4F38
:104430008EADC658D0400FBE0FB623968EAF2397D1
:104440000FBE0FB6CB57DF4F8EADC558D0400FBE55
:104450000FB624968EAF24970FBE0FB6CC57DF4F02
:104460008EADC458D0400FBE0FB625968EAF25979F
:104470000FBE0FB6CD57DF4F8EADC358D0400FBE25
:104480000FB626968EAF26970FBE0FB6CE57DF4FCC
:104490008EADC258D0400FBE0FB627968EAF27976D
:1044A0000FBE91013701D8010FB6A2968EAD9FAD18
:1044B000A2970FBE0FB66D969FAF8EAF6D970FBED2
:1044C000A52E962E0FB6A1968EACA1970C946708D8
:1044D000CD010E94A4220E9497278CE090E00E94C8
:1044E000A4220E94BE038FBF0E94B5270F920FB671
:1044F0000F928F939F9381E080935103909150038B
:104500009030D1F05998519A82E290E09093C50092
:104510008093C40082E08093C00088E18093C10052
:1045200086E08093C2008091C00080728030D9F311
:104530008EE28093C60002C0809350039F918F91BA
:104540000F900FBE0F901895CF93DF93CDB7DEB7C6
:1045500068970FB6F894DEBF0FBECDBF2CE030E0F9
:104560003C832B839A83898380E090E09E878D87AC
:1045700082E090E098878F8320E131E03E832D83B5
:104580009C878B87CE0141969A87898789ED92E235
:10459000988F8F8B9E012F5F3F4F3E8B2D8B9C8B77
:1045A0008B8BCE0103969A8B898BCE0105960E9448
:1045B000E2242F923F924F925F926F927F928F925E
:1045C0009F92AF92BF92CF92DF92EF92FF920F93A2
:1045D0001F93CF93DF93CDB7DEB760970FB6F894F4
:1045E000DEBF0FBECDBF7B01FC010081118187E2E0
:1045F0000031180708F447C060E177E2C8010E9463
:10460000602D87E26802802D112490E1699F912D31
:104610001124980F7295707F790F872FC62E982FCF
:104620008827202D3327282B392B021B130B64E6F8
:1046300070E0C8010E94602DCB01880F991F8D5A30
:104640009D4FFC01808191819E878D8784E6780251
:10465000902D1124689F4C2D812D1124890F982FA6
:104660008827202D3327282B392B021B130B000FF3
:10467000111F0D5A1D4FF80180819181988B8F87F2
:1046800081E090E03FC00436110508F435C064E6CF
:1046900070E0C8010E94602D84E67802902D1124FC
:1046A000689F812D1124890F982F8827202D33276B
:1046B000282B392B021B130B000F111F0D5A1D4FF6
:1046C000F80180819181988B8F8783E090E08B0146
:1046D0000A301105B0F002979E01245F3F4F280F6A
:1046E000391F000F111F0D5A1D4FF80140815181D4
:1046F000F901518340830DC085E090E00A30110537
:1047000050F7402F0197DE011C96A80FB91F406398
:104710004C93F70123853485B9016170707040E0D6
:1047200050E001E061156B0171054407550761E038
:1047300009F0612D6170603029F42A016030BA01FE
:1047400039F008C0E1E1F0E02F016030BA0111F466
:104750006BE270E01B01A5E0B0E0B901647070701D
:10476000611571054407550709F4012D017010709A
:10477000BE01645F7F4F680F791FA81BB90BF7015B
:104780008481803009F435C0CA0EDB1EF7018581B3
:1047900096813C014601C816D90608F02AC0287047
:1047A000307080E090E041E02115310588079907DD
:1047B00009F0412D41704030B987A8877F836E830F
:1047C000F70109F44CC0928581E0933009F0892FFC
:1047D000681879087B866A8680301D830C8309F40B
:1047E00079C0813009F079C080E090E00A851B85AE
:1047F0007CC04B015D01F701C188D288E784F08855
:10480000C701B6019101A2010E94E624803011F097
:1048100001E009C0F60126813781C701B401A50175
:10482000F9010995082F01701070C80160960FB644
:10483000F894DEBF0FBECDBFDF91CF911F910F91D6
:10484000FF90EF90DF90CF90BF90AF909F908F90B0
:104850007F906F905F904F903F902F9008952081B0
:1048600031813B872A8720E330E031832083228116
:1048700033813B832A83938382838285898381E08A
:104880008287C784D088A188B288C601B50191010A
:10489000A2010E94E62401E0803009F0C4CF68182C
:1048A000790800E010E080E390E04C01D801C301FA
:1048B000A817B90708F06CC0F5012085318511965D
:1048C000C601A401B801F9012D010995D20180307A
:1048D00071F39ECF00E010E00AC08A859B858C01B1
:1048E000169507950196969587959B878A87F70178
:1048F000E280F380C080D180A188B28887849088CC
:1049000080E090E08017910770F4F50120853185F3
:1049100001963C01C401A601B701F9010995803057
:10492000C30181F375CFC401B5019101A2010C81CE
:104930001D810E94E624803009F06ACFF5012681AE
:104940003781C4016E817F8148855985F9010995B8
:10495000803009F05DCFA0E0B0E001E08A859B8562
:10496000A817B90708F0012D8A859B85A817B907F4
:1049700008F059CFF501208531851196C401A601B3
:10498000B701F9012D010995D201803031F34BCFE8
:10499000F50126813781C6016E817F814885598561
:1049A000F9010995803009F033CFF7018A859B859D
:1049B00091838083898182878A819B81938382838B
:1049C000012D31CF80E091E00E94E327AF92BF92AA
:1049D000CF92DF92EF92FF92DA017B0161E170E00A
:1049E00041E021153105A607B70709F0412D4170B7
:1049F000403071F4F701A084B1846C01A901BD01BC
:104A0000F5010995282FC601203011F081E00DC075
:104A10000115110549F0F7012681378140E050E08A
:104A2000B801F901099501C0812D9927FF90EF90F8
:104A3000DF90CF90BF90AF900895CF93DF93CDB725
:104A4000DEB760970FB6F894DEBF0FBECDBF20E093
:104A500030E03A87298741E050E05C834B83FE01D8
:104A60003D96FA83E98338872F835E834D83788B65
:104A70006F879E878D87CE0101960E94E2242F9238
:104A80003F924F925F926F927F928F929F92AF92DE
:104A9000BF92CF92DF92EF92FF920F931F93CF932B
:104AA000DF93CDB7DEB726970FB6F894DEBF0FBE03
:104AB000CDBF5B01F50137816481FC0142815381E7
:104AC000E080F180603029F4832F8170803009F418
:104AD000B9C13170303009F457C047013A01840E32
:104AE000951EF501C084D184C11480E090E0D1040A
:104AF00009F420C0DC01F7010AC0329611969F012B
:104B0000201B310B820F931FAC15BD05A0F48F0144
:104B10000815190509F42AC0F8012191322F332311
:104B20006AF7F801203E48F3203F10F03496E6CFB4
:104B30003396E4CFF701E815F905C1F03081232F52
:104B40002223A3010AF4303E81159105A1F08417B8
:104B5000950770F4D701A80FB91F2C91203C5CF485
:104B600020E030E02115310551F40AC0A3010CC04A
:104B700084179507A9F797012115310509F07901E7
:104B80002115310509F0AC01603009F45BC1F50174
:104B900065807680483051057E826D82C8F441156B
:104BA00080E090E0510509F433C1FC0108C03327CF
:104BB000820F931F3196E417F50709F429C1D70135
:104BC000AE0FBF1F3C9121E0303C8CF7212DEFCF81
:104BD000CA018170907081159105BC82AB8219F475
:104BE00080E090E00AC0DA01AE7FAE0DBF1D9C915F
:104BF00081E0903C0CF4812D99274A019A01369569
:104C0000279560E070E01B01670116C0B501261B07
:104C1000370B8201C40CD51CDB01A370B070FA0104
:104C2000EF2FFF27E80FF91F50704E0F5F1FA115E0
:104C3000B105CA0109F0ADC02115310509F4A6C0BE
:104C40002601203C3105690118F040EC50E06A0172
:104C50005601CC0CDD1C24303105A10108F4D6CF5F
:104C6000B601687F7170D2016A0F7B1FA1013D01FF
:104C7000F30100811181F801F295E295EF70EF27C1
:104C8000FF70EF27F695E795F695E7950095109557
:104C9000129502950F7001271F7001271695079531
:104CA00016950795169507950E2B1F2B0170117001
:104CB000040F151FF30142815381FA01F295E29529
:104CC000EF70EF27FF70EF27F695E795F695E795DC
:104CD00040955095529542954F7045275F704527F6
:104CE0005695479556954795569547954E2B5F2B6C
:104CF00041705170400F511FF30104811581F8017B
:104D0000F295E295EF70EF27FF70EF27F695E795A4
:104D1000F695E79500951095129502950F7001276D
:104D20001F700127169507951695079516950795F7
:104D30000E2B1F2B01701170040F151FF3014681FC
:104D40005781FA01F295E295EF70EF27FF70EF2798
:104D5000F695E795F695E7954095509552954295CD
:104D60004F7045275F70452756954795569547954F
:104D7000569547954E2B5F2B41705170400F511F38
:104D80001896A617B70709F072CF40CFAB80BC804A
:104D90003EC06C7F7070660F771F060F171FAA0F3B
:104DA000BB1F9801A00FB11F80E090E0AB80BC80DA
:104DB000F90121913191B901729562956F70672760
:104DC0007F706727769567957695679520953095DE
:104DD000329522952F7023273F70232736952795EC
:104DE0003695279536952795262B372B21703170D0
:104DF000820F931F9F01EA17FB0709F0D9CF9C018F
:104E0000232F3327240F351F9070820F931FA40187
:104E1000AD81BE818A179B07A8F4F5013285333036
:104E2000212D09F0232FA81BB90B20305A83498369
:104E300009F430C0213009F031C080E090E08D01EC
:104E40001C0133C0F5018785908921893289F901D8
:104E500026813781B701F9010995082F017010707B
:104E6000C80126960FB6F894DEBF0FBECDBFDF9106
:104E7000CF911F910F91FF90EF90DF90CF90BF9057
:104E8000AF909F908F907F906F905F904F903F90EA
:104E90002F9008951D0100E010E007C08D011695C8
:104EA00007951196B695A7951D01F501C280D3808F
:104EB000A080B180618872888784908880E090E0CB
:104EC000F3018017910768F42085318501962C0144
:104ED000C401A501B601F90109958030C20181F331
:104EE0000AC026813781C401B70149815A81F9017D
:104EF0000995803011F001E0B1CFA0E0B0E001E011
:104F0000C101A817B90708F0012DA817B90708F0C3
:104F1000A5CFF301208531851196C401A501B60105
:104F2000F9017D010995D701803049F397CFCF93DF
:104F3000DF93CDB7DEB72C970FB6F894DEBF0FBE68
:104F4000CDBF80E090E09A87898721E030E03C8304
:104F50002B8348E151E05A83498398878F833E83AE
:104F60002D83CE0101960E94E22488EE91E06BE24F
:104F700070E00E941D25CF93DF93CDB7DEB7609719
:104F80000FB6F894DEBF0FBECDBF80E090E09A87E9
:104F9000898781E090E09C838B8324EE31E03A8323
:104FA000298398878F83CE010D969E838D838FE30F
:104FB00095E2988B8F878CE091E09E878D87CE015C
:104FC00001960E94E2242F923F924F925F926F923D
:104FD0007F928F929F92AF92BF92CF92DF92EF9289
:104FE000FF920F931F93CF93DF93CDB7DEB72A972E
:104FF0000FB6F894DEBF0FBECDBFF89421E020932A
:1050000051031CBC5998519A22E230E03093C500FC
:105010002093C40022E02093C00028E12093C10027
:1050200026E02093C2002091C00020722030D9F3E6
:105030002091C00020722030D9F32DE02093C600CB
:105040002091C00020722030D9F32AE02093C600BE
:105050002091C00020722030D9F32DE02093C600AB
:105060002091C00020722030D9F32AE02093C6009E
:10507000FC01E680F780C480D58082819381A08185
:10508000B1812091C00020722030D9F320E5209317
:10509000C6002091C00020722030D9F321E6209371
:1050A000C6002091C00020722030D9F32EE6209354
:1050B000C6002091C00020722030D9F329E6209349
:1050C000C6002091C00020722030D9F323E620933F
:1050D000C6002091C00020722030D9F320E2209336
:1050E000C6002091C00020722030D9F32FE6209313
:1050F000C6002091C00020722030D9F323E620930F
:10510000C6002091C00020722030D9F323E62093FE
:10511000C6002091C00020722030D9F325E72093EB
:10512000C6002091C00020722030D9F322E72093DE
:10513000C6002091C00020722030D9F322E72093CE
:10514000C6002091C00020722030D9F325E62093BC
:10515000C6002091C00020722030D9F324E62093AD
:10516000C6002091C00020722030D9F320E22093A5
:10517000C6002091C00020722030D9F329E6209388
:10518000C6002091C00020722030D9F32EE6209373
:10519000C6002091C00020722030D9F320E2209375
:1051A000C6002091C00020722030D9F326E620935B
:1051B000C6002091C00020722030D9F329E6209348
:1051C000C6002091C00020722030D9F32CE6209335
:1051D000C6002091C00020722030D9F325E620932C
:1051E000C6002091C00020722030D9F320E2209325
:1051F000C6002091C00020722030D9F327E220930E
:10520000C6008115910571F08A0F9B1F2C9130917A
:10521000C00030723030D9F32093C6001196A81721
:10522000B907A1F78091C00080728030D9F387E27E
:105230008093C6008091C00080728030D9F380E2F4
:105240008093C6008091C00080728030D9F381E6DF
:105250008093C6008091C00080728030D9F384E7CB
:105260008093C6008091C00080728030D9F380E2C4
:105270008093C6008091C00080728030D9F38CE6A4
:105280008093C6008091C00080728030D9F389E697
:105290008093C6008091C00080728030D9F38EE682
:1052A0008093C6008091C00080728030D9F385E67B
:1052B0008093C6008091C00080728030D9F380E274
:1052C0008093C6002AE030E000E010E0B601C7019C
:1052D000A8010E94742D60636A87960181E02A30DC
:1052E0003105E006F10608F0812D8170803019F05B
:1052F000E9E0F0E034C089E090E04C01CE01019695
:105300001C0106C0817080309601750109F023C030
:105310002901B201C7012AE030E03901A8010E9449
:10532000742D69015A01B601C5019301A8010E94BB
:10533000742D6063C4010197D1014C01A80FB91FFE
:105340006C9381E0920124363105E006F10608F401
:10535000D9CF812DD7CFF401EA30F10589F0CE0104
:105360000196DC01AE0FBF1F2C913091C00030724E
:105370003030D9F32093C6003196EA30F10589F731
:105380008091C00080728030D9F38AE08093C6009B
:105390002D98259A87EF9FE32BE73AE14BE754E0FE
:1053A0004FC0FA013197F1F72D98FC013197F1F7D1
:1053B000FC013197F1F7FC013197F1F7FC013197CE
:1053C000F1F7FC013197F1F7FC013197F1F7FC019E
:1053D0003197F1F7FC013197F1F7FC013197F1F7C3
:1053E000FC013197F1F7FC013197F1F7FC0131979E
:1053F000F1F7FC013197F1F7FC013197F1F7FC016E
:105400003197F1F7FC013197F1F7FC013197F1F792
:10541000FC013197F1F7FC013197F1F7FC0131976D
:10542000F1F7FC013197F1F7FC013197F1F7FC013D
:105430003197F1F7FC013197F1F7F9013197F1F765
:105440002D9AFC013197F1F7FC013197F1F7FC013E
:105450003197F1F7FC013197F1F7FC013197F1F742
:10546000FC013197F1F7FC013197F1F7FC0131971D
:10547000F1F7FC013197F1F7FC013197F1F7FC01ED
:105480003197F1F7FC013197F1F7FC013197F1F712
:10549000FC013197F1F7FC013197F1F7FC013197ED
:1054A000F1F7FC013197F1F7FC013197F1F7FC01BD
:1054B0003197F1F7FC013197F1F7FC013197F1F7E2
:1054C000FC013197F1F7FC013197F1F7FC013197BD
:1054D000F1F7F9013197F1F72D98FC013197F1F7C8
:1054E000FC013197F1F7FC013197F1F7FC0131979D
:1054F000F1F7FC013197F1F7FC013197F1F7FC016D
:105500003197F1F7FC013197F1F7FC013197F1F791
:10551000FC013197F1F7FC013197F1F7FC0131976C
:10552000F1F7FC013197F1F7FC013197F1F7FC013C
:105530003197F1F7FC013197F1F7FC013197F1F761
:10554000FC013197F1F7FC013197F1F7FC0131973C
:10555000F1F7FC013197F1F7FC013197F1F7FC010C
:105560003197F1F7FC013197F1F7F9013197F1F734
:105570002D9AFC013197F1F7FC013197F1F7FC010D
:105580003197F1F7FC013197F1F7FC013197F1F711
:10559000FC013197F1F7FC013197F1F7FC013197EC
:1055A000F1F7FC013197F1F7FC013197F1F7FC01BC
:1055B0003197F1F7FC013197F1F7FC013197F1F7E1
:1055C000FC013197F1F7FC013197F1F7FC013197BC
:1055D000F1F7FC013197F1F7FC013197F1F7FC018C
:1055E0003197F1F7FC013197F1F7FC013197F1F7B1
:1055F000FC013197F1F7FC013197F1F7FC0131978C
:10560000F1F7F9013197F1F72D98FC013197F1F796
:10561000FC013197F1F7FC013197F1F7FC0131976B
:10562000F1F7FC013197F1F7FC013197F1F7FC013B
:105630003197F1F7FC013197F1F7FC013197F1F760
:10564000FC013197F1F7FC013197F1F7FC0131973B
:10565000F1F7FC013197F1F7FC013197F1F7FC010B
:105660003197F1F7FC013197F1F7FC013197F1F730
:10567000FC013197F1F7FC013197F1F7FC0131970B
:10568000F1F7FC013197F1F7FC013197F1F7FC01DB
:105690003197F1F7FC013197F1F7F9013197F1F703
:1056A0002D9AFC013197F1F7FC013197F1F7FC01DC
:1056B0003197F1F7FC013197F1F7FC013197F1F7E0
:1056C000FC013197F1F7FC013197F1F7FC013197BB
:1056D000F1F7FC013197F1F7FC013197F1F7FC018B
:1056E0003197F1F7FC013197F1F7FC013197F1F7B0
:1056F000FC013197F1F7FC013197F1F7FC0131978B
:10570000F1F7FC013197F1F7FC013197F1F7FC015A
:105710003197F1F7FC013197F1F7FC013197F1F77F
:10572000FC013197F1F7FC013197F1F7FC0131975A
:10573000F1F7F9013197F1F72D98FC013197F1F765
:10574000FC013197F1F7FC013197F1F7FC0131973A
:10575000F1F7FC013197F1F7FC013197F1F7FC010A
:105760003197F1F7FC013197F1F7FC013197F1F72F
:10577000FC013197F1F7FC013197F1F7FC0131970A
:10578000F1F7FC013197F1F7FC013197F1F7FC01DA
:105790003197F1F7FC013197F1F7FC013197F1F7FF
:1057A000FC013197F1F7FC013197F1F7FC013197DA
:1057B000F1F7FC013197F1F7FC013197F1F7FC01AA
:1057C0003197F1F7FC013197F1F7F9013197F1F7D2
:1057D0002D9AB801F80107C0A1706F5F7F4FEF4F9E
:1057E000FF4FA03059F0DC011197F1F7A1E06937C4
:1057F0007105E007F10780F3A12DEECFFA01319793
:10580000F1F72D98FC013197F1F7FC013197F1F791
:10581000FC013197F1F7FC013197F1F7FC01319769
:10582000F1F7FC013197F1F7FC013197F1F7FC0139
:105830003197F1F7FC013197F1F7FC013197F1F75E
:10584000FC013197F1F7FC013197F1F7FC01319739
:10585000F1F7FC013197F1F7FC013197F1F7FC0109
:105860003197F1F7FC013197F1F7FC013197F1F72E
:10587000FC013197F1F7FC013197F1F7FC01319709
:10588000F1F7FC013197F1F7FC013197F1F7FC01D9
:105890003197F1F7F9013197F1F72D9AB801F80135
:1058A00007C0A1706F5F7F4FEF4FFF4FA03059F0DF
:1058B000DC011197F1F7A1E069377105E007F10705
:1058C00080F3A12DEECFFA013197F1F72D98FC016D
:1058D0003197F1F7FC013197F1F7FC013197F1F7BE
:1058E000FC013197F1F7FC013197F1F7FC01319799
:1058F000F1F7FC013197F1F7FC013197F1F7FC0169
:105900003197F1F7FC013197F1F7FC013197F1F78D
:10591000FC013197F1F7FC013197F1F7FC01319768
:10592000F1F7FC013197F1F7FC013197F1F7FC0138
:105930003197F1F7FC013197F1F7FC013197F1F75D
:10594000FC013197F1F7FC013197F1F7FC01319738
:10595000F1F7FC013197F1F7FC013197F1F7F9010B
:105960003197F1F72D9AB801F80109C0A1706F5F66
:105970007F4FEF4FFF4FA03011F40C94D129DC0181
:105980001197F1F7A1E069377105E007F10770F3AE
:10599000A12DECCF2F923F924F925F926F927F9208
:1059A0008F929F92AF92BF92CF92DF92EF92FF922F
:1059B0000F931F93CF93DF93CDB7DEB726970FB624
:1059C000F894DEBF0FBECDBF260145015C011B016F
:1059D0005C834B833901B701C8010E94502D8B01B4
:1059E0006C01B4015E824D82C2019101A5010E9449
:1059F000502D5B017C01A00EB11EEC1CFD1C00E0D3
:105A000010E0B201C8019301A8010E94502D6B0162
:105A10001C01B401C8014B805C809201A8010E9466
:105A2000502DC60ED71E281E391EC801881F991F6B
:105A30009A838983B401C8019301A8010E94502D63
:105A40004B013C016D817E81C8019201A8010E9439
:105A5000502D6C0C7D1C621D731D29813A81821FA3
:105A6000931F6A0D7B1D8E1D9F1D9401A301269619
:105A70000FB6F894DEBF0FBECDBFDF91CF911F915F
:105A80000F91FF90EF90DF90CF90BF90AF909F90DD
:105A90008F907F906F905F904F903F902F900895E0
:105AA000DB018F939F930E94962DBF91AF91A29F90
:105AB000800D911DA39F900DB29F900D112408950C
:105AC000AA1BBB1B51E107C0AA1FBB1FA617B70724
:105AD00010F0A61BB70B881F991F5A95A9F7809540
