:100000000C9434000C9451000C9451000C94510049
:100010000C9451000C9451000C9451000C94422308
:100020000C9451000C9451000C9451000C9451000C
:100030000C9451000C9451000C94C2030C94510088
:100040000C9451000C9451000C9451000C945100EC
:100050000C9451000C94E5030C9451000C94510045
:100060000C9451000C94510011241FBECFEFD8E026
:10007000DEBFCDBF13E0A0E0B1E0E0EAFCE502C0E6
:1000800005900D92A635B107D9F723E0A6E5B3E0B8
:1000900001C01D92A437B207E1F70E945D040C94E1
:1000A0004E2E0C9400002F923F924F925F926F92CF
:1000B0007F928F929F92AF92BF92CF92DF92EF92F8
:1000C000FF920F931F93CF93DF93CDB7DEB729979E
:1000D0000FB6F894DEBF0FBECDBF99878887FB01AE
:1000E000128911301B0151F48485813081F4FB01A8
:1000F000848D803061F0FB01248F51C0178E248FD6
:1001000086858030012D09F45CC00E944328FB01E4
:10011000248F203009F443C0FB01178E8685803080
:10012000012D09F44EC0FB018588968843895489C6
:10013000638DA0E0B0E0103009F415C3F1014788E9
:10014000508C103019F0F101A18DB28D0F831E83F8
:1001500081E0441555058A069B0609F0812D8170C2
:100160009101F901738D8030CA01840109F03CC10D
:100170003D0185858F71E0E0F1E000E010E0803026
:100180007B836A83798309F4B1C0A0E0B0E0F6957F
:10019000E795B795A7958A958030C9F7A8C0FB0168
:1001A000878D839591E0803009F0912D0FEF90308D
:1001B00009F4082FB101FB01078F8685081709F0A4
:1001C000B2CFFB018785982F8827840F951F28E7DA
:1001D000811592079C0158F020E038E799234AF4F2
:1001E00020E030E0F1018081803041F037C0992378
:1001F000BAF3F1018081803009F030C0F101418112
:10020000403009F02BC0F1019281903009F026C0F6
:10021000F1019381903009F021C0F1019481903077
:10022000E9F4F10195819030C9F4F10196819030A3
:10023000A9F4F1019781903089F4F1019085903013
:1002400069F4F1019185903049F4F1019285903083
:1002500029F4F1019385903009F40CC2BF01E58DBA
:100260009BE2E902912D1124492F441F4427441F8A
:100270009595940F4CE094021124AE2E9E2F901968
:10028000A92FB92FBB0FBB0B9C3008F050C2A60F93
:10029000B71F9C91913009F04EC140E058E79BE2B6
:1002A0007CE06A2D639568370CF0FBC06902E12D94
:1002B0001124FE2FFF1FFF27FF1FE595EF0FE70219
:1002C0001124E62FE019AE2FBE2FBB0FBB0BEC3075
:1002D00008F02DC2F101AE0FBF1FEC91E03011F319
:1002E000C02ED12E762F6627AB01DDC0D8015D83ED
:1002F0004C839A0124193509A401C301480B590BF9
:10030000852F880F660B762FCB015D016F01780179
:100310000E94582D982F872FF62FE12D652F712DD4
:10032000212D312D6E2B7F2B282B392BC90190705D
:1003300041E0611571058007910781E009F0812D89
:1003400061157105E0E0F1E02E073F0751E008F08C
:10035000512D58238C819D814816590668047904D3
:100360000CF0412D51704170EFEFFFEF403021F460
:10037000CF01503029F005C081E090E0503009F401
:10038000CB01403031F48F0150306A817B8129F0FC
:1003900005C050306A817B8109F48901840D951D67
:1003A000061D171D4030F101798121E089F04C8153
:1003B0005D8148175907800691060CF0212D2170A8
:1003C000203091F089E691E062E270E00E94C92558
:1003D0004C815D8184179507080519050CF0212DC6
:1003E0002170203009F0A8C1908F878B548B438BEC
:1003F000638F81E0828B128F018F968A858A268D8A
:10040000922F9A95291721E060F0212D2030212D7F
:1004100059F091E4761761F4922F3E81303059F013
:100420000BC02030212DA9F7292F91E47617A1F3D5
:100430003E81303009F4922FF101968FE885F985DD
:100440001583048363832F81213421E008F0212D5B
:10045000E885F9852283903021E009F4212DE88593
:10046000F98521839D3308F4812DA885B9858C9366
:1004700029960FB6F894DEBF0FBECDBFDF91CF91A6
:100480001F910F91FF90EF90DF90CF90BF90AF90B2
:100490009F908F907F906F905F904F903F902F90A4
:1004A0000895C02ED12E6A2D962F9A95FBEA0CE066
:1004B00060E070E0E12D9F9FB12D1124B695B695B7
:1004C000B695B0021124AA2DBA2FBE0F1B2F1A9574
:1004D00011169CF4102D1095EA95B10FAB2FBB2788
:1004E0007101AE0DBF1DAC919A95A13021F7AA2DD7
:1004F000EA0FFE2FEE27BF0101C0AA2DFD01FE2F3E
:10050000EE274E1B5F0B559547954E0F5F1F4A59BF
:100510005F4F421753071D2D0C2D6CF0AF01461B8A
:10052000570B55954795E41BF50BE656F0402E17F3
:100530003F070CF091C091E021153907912D08F08B
:10054000932FA9014078507020503F4F411551051D
:10055000692FF10109F0632F2BEA629F212D1124ED
:10056000269526952695A62F6CE026026A2F112443
:10057000262F2019A22FBB27AE0FBF1F2C91203092
:1005800009F068C041152BEA4CE0510509F030C074
:10059000692F0BC0962F9019A92FBB27AE0FBF1F35
:1005A0009C913395903009F055C0329F912D1124C4
:1005B00096959695969594021124932F9019A92FAC
:1005C000BB27AE0FBF1F9C91903009F040C0623036
:1005D0000CF461E06A95629F912D11249695969591
:1005E00096959402112437370CF4D4CF37E7D2CF45
:1005F000632F0BC0362F3019A32FBB27AE0FBF1FA1
:100600003C919A95303009F025C0929F312D1124EC
:1006100036953695369534021124392F3019A32F8B
:10062000BB27AE0FBF1F3C91313099F067370CF0FC
:1006300067E76395629F312D11243695369536957F
:100640003402112492300CF0D5CF91E0D3CF632F38
:1006500001C0692FA62E658F9101F9019089803024
:1006600011F06A2D2BC041816A2D4170403039F064
:10067000F10124C09089612D41704030C9F791018A
:10068000F90182818030C9F4F90183818030A9F4B5
:10069000F9018481803089F4F9018581803069F421
:1006A000F9018681803049F4F9018781803029F48D
:1006B000F9018085803009F429C0F90119160CF080
:1006C00042C08BE22CE0312D04C068E7391709F4F1
:1006D0003AC0339563956837C4F76802412D1124F9
:1006E000542F551F5527551F4595450F420211247C
:1006F000462F4019A42FB42FBB0FBB0B4C30B8F4BE
:10070000AE0FBF1F4C91403029F3E0CFF901818536
:10071000803009F0D3CF8285803009F0A9CF191637
:100720008CF49101F9018385803069F0CACF6CE0C7
:1007300070E0CD010E94522387E491E062E270E014
:100740000E94C925F1018189860F18168CF488371B
:1007500008F088E7982E812C512D412DA0E0B0E0C3
:10076000103009F0EBCC2D01103009F0ECCCEECCC0
:1007700040E050E04A01A0E0B0E01030A1F3DECC50
:100780000E9449280F920FB60F922F933F938F9399
:100790009F93809156039091570320915803309175
:1007A0005903805F9F4F2F4F3F4F90935703809384
:1007B000560330935903209358039F918F913F9193
:1007C0002F910F900FBE0F9018950F920FB60F92AA
:1007D0001F9211242F933F934F935F938F939F9377
:1007E000AF93BF93EF93FF9381E080937303809166
:1007F00078009091790026E030917003329F212D8E
:100800001124402D5527322F2227242B352B4091A0
:1008100071035527440F551F420F531F455A5C4F14
:10082000FA019183808390917103292F2395812D63
:100830002330382F08F42CC02091700323952330E7
:1008400008F42DC030937103233008F42EC0809338
:1008500070039EEF823008F491E0980FA92FBB2718
:10086000A359BC4F8C9190917C00907F982B9093D2
:100870007C00FF91EF91BF91AF919F918F915F911C
:100880004F913F912F911F900F900FBE0F90189591
:10089000322F209170032395233008F0D3CF392FC6
:1008A00030937103233008F0D2CF822F80937003EE
:1008B0009EEF823008F4D0CFD0CF0E945F042F92F9
:1008C0003F924F925F926F927F928F929F92AF92E0
:1008D000BF92CF92DF92EF92FF920F931F93CF932D
:1008E000DF93CDB7DEB7CD5CD0400FB6F894DEBF56
:1008F0000FBECDBF8FB7F89490917303913011F470
:100900000C943F2391E0909373038FBF87E880930B
:100910007A0010927C002D98259A2B98239A24987F
:100920002C9A2A98229A80E58CBD9DBD80917E00EC
:10093000806280937E003D984598299A219A41983B
:10094000399A42983A9A43983B9A44983C9A409AEA
:10095000389A5C98549A5D98559A2998CE01845A91
:100960009F4F44E250E09A838983612D0E94472E75
:1009700080E090E0A981BA81A80FB91F2C912EBD0B
:1009800001962DB52223EAF72EB52C9384329105DA
:1009900089F7299A8BE99FE00197F1F7409882E067
:1009A0008093B00095E09093B1009DE79093B300E1
:1009B0008093700080917C00807F856080937C00B4
:1009C00080917A00806480937A0080917A008074AC
:1009D0008030D9F7C0907800D090790020917C00C9
:1009E000207F266020937C0020917A002064209351
:1009F0007A0020917A0020742030D9F7A0907800F6
:100A0000B090790040917C00407F476040937C002B
:100A100040917A00406440937A0040917A0040749B
:100A20004030D9F7409178005091790060917C0076
:100A3000607F656060937C0060917A006064609381
:100A40007A0060917A0060746030D9F76091780024
:100A500070917900E0917C00E07FE660E0937C009B
:100A6000E0917A00E064E0937A00E0917A00E0742B
:100A7000E030D9F7E0917800F0917900A0917C0006
:100A8000A07FA760A0937C00A0917A00A064A093AF
:100A90007A00A0917A00A074A030D9F7A0917800D4
:100AA000B091790010917C00107F156010937C004C
:100AB00010917A00106410937A0010917A001074EB
:100AC0001030D9F7009178001091790080917C0066
:100AD000807F866080937C0080917A008064809320
:100AE0007A0080917A0080748030D9F7E0907800A5
:100AF000F090790080917C00807F876080937C00FB
:100B000080917A00806480937A0080917A0080746A
:100B10008030D9F78091780090917900109271031C
:100B200027E030E03093700320936F0325E036E038
:100B300030936E0320936D0390936C0380936B034B
:100B4000B0936A03A09369035093680340936703CB
:100B5000F0926603E0926503F0936403E09363030D
:100B6000B0926203A09261031093600300935F034D
:100B700070935E0360935D03D0925C03C0925B034D
:100B800081E080935A038093730385E480937C0013
:100B900010927B008FEE80937A0080917C00807FA2
:100BA000866080937C0078942098289A52985A986E
:100BB00053985B9880E091E00FB66E969FAF8EAF32
:100BC0006E970FBE89819A81029640E450E00FB67D
:100BD00029969FAF8EAF29970FBE612D0E94472E99
:100BE0008FB382708030E1F781E090E092BD81BDEB
:100BF00081E08FBB20B58FB382708030E1F784E055
:100C000090E092BD81BD81E08FBB90B59A3A09F02A
:100C1000812D880F9FB392709030E1F747E050E04C
:100C200052BD41BD91E09FBB2A3A21E009F0212D40
:100C300030B53A3A09F0912D990F990F3FB33270C0
:100C40003030E1F74AE050E052BD41BD31E03FBBFA
:100C500040B54A3A09F0312D330F330F330F822B51
:100C60002FB322702030E1F74DE050E052BD41BD7E
:100C700021E02FBB40B54A3A09F0212D2295207F73
:100C8000892B9FB392709030E1F740E150E052BD64
:100C900041BD91E09FBB40B54A3A09F0912D929534
:100CA000907F990F832B3FB332703030E1F743E1EF
:100CB00050E052BD41BD31E03FBB40B54A3A09F07A
:100CC000312D3295307F330F330F822B2FB32270AB
:100CD0002030E1F746E150E052BD41BD41E04FBB5D
:100CE00020B52A3A09F0412D479544274795892B8D
:100CF0009FB392709030E1F769E170E072BD61BD21
:100D000091E09FBB832B30B59FB392709030E1F799
:100D10006CE170E072BD61BD21E02FBB90B59A3AE5
:100D200009F0212D220F842B9FB392709030E1F7B0
:100D30004FE150E052BD41BD91E09FBB3A3A41E0E6
:100D400009F0412D30B53A3A09F0912D990F990FDC
:100D50003FB332703030E1F762E270E072BD61BDE6
:100D600031E03FBB50B55A3A09F0312D330F330F04
:100D7000330F242B4FB342704030E1F745E250E08F
:100D800052BD41BD41E04FBB292B40B59FB392708E
:100D90009030E1F767E370E072BD61BD91E09FBB09
:100DA00050B55A3A09F0912D990F232B3FB3327069
:100DB0003030E1F769E470E072BD61BD31E03FBB06
:100DC0004A3A41E009F0412D50B55A3A09F0312D27
:100DD000330F330F5FB352705030E1F76BE570E0C3
:100DE00072BD61BD51E05FBB60B56A3A09F0512D3B
:100DF000550F550F550F942B4FB342704030E1F70C
:100E00006DE670E072BD61BD41E04FBB60B56A3A0E
:100E100009F0412D4295407F932B3FB33270303023
:100E2000E1F76FE770E072BD61BD31E03FBB60B5D7
:100E30006A3A09F0312D3295307F330F952B5FB32D
:100E400052705030E1F761E970E072BD61BD51E070
:100E50005FBB60B56A3A09F0512D5295507F550F2E
:100E6000550F942B4FB342704030E1F763EA70E0C6
:100E700072BD61BD61E06FBB40B54A3A09F0612DBA
:100E8000679566276795932B3FB332703030E1F753
:100E9000E5EBF0E0F2BDE1BD31E03FBB952B30B5B5
:100EA0004FB342704030E1F747EC50E052BD41BDD6
:100EB00041E04FBB50B55A3A09F0412D440F962BF3
:100EC0005FB352705030E1F769ED70E072BD61BD03
:100ED00051E05FBB3A3A61E009F0612D30B53A3A32
:100EE00009F0512D550F550F3FB332703030E1F7F7
:100EF000EBEEF0E0F2BDE1BD31E03FBB70B532E0BA
:100F00000FB6CE59DF4F3EAFC256D0400FBEE0E025
:100F1000F0E00FB6C05ADF4FFFAFEEAFC056D04083
:100F20000FBE322F2227E82FFF27E22BF32B0FB61D
:100F3000C859DF4FFFAFEEAFC856D0400FBE7A3A68
:100F400081E009F0812D880F880F880F462B452BF3
:100F5000482B542F4427892F9927842B952B0FB684
:100F6000C659DF4F9FAF8EAFCA56D0400FBE92E03A
:100F700094BD8AEF87BD85E085BD90936E0016BC59
:100F800057985F9A56985E9ACE018E539F4F9EA3B4
:100F90008DA301969A8F898FCE018A549F4FFC01B1
:100FA0003C960FB62B96FFAFEEAF2B970FBEFC0112
:100FB0003696FD83EC839BA78AA705969C8F8B8F23
:100FC000CE0180559F4F9EAB8DAB89819A818296D1
:100FD0000FB625969FAF8EAF25970FBE83E08FABE0
:100FE00088AF89AF8AAF8BAF8CAF8DAF80E090E0D8
:100FF0004C019401D40181E089A79CAA8BAA9AAAEA
:1010000089AA812D0FB628968EAF28970FBE812D05
:101010000FB62E968EAF2E970FBE812D0FB6679608
:101020008EAF67970FBE81E088A798AA8FA69EA66D
:101030008DA6812D0FB627968EAF27970FBE812DD7
:101040000FB62D968EAF2D970FBE812D0FB66696DB
:101050008EAF66970FBE3401912D1CA6712D83E0D3
:101060008EAF0FB621968EAF21970FBE83E00FB6DD
:1010700022968EAF22970FBE83E00FB623968EAFD7
:1010800023970FBE83E00FB624968EAF24970FBE32
:101090000FB665969EAF65970FBE0FB62F96BFAF82
:1010A000AEAF2F970FBE0FB661963FAF2EAF6197D1
:1010B0000FBE809172038130E1F710927203DFB6A8
:1010C000F8948091650390916603E0906303F0903B
:1010D00064032090610330906203A0906B03B09092
:1010E0006C034090690350906A030091670310916C
:1010F000680320915F0330916003A0915D03B0917C
:101100005E0340915B0350915C03DFBEDFB6F89451
:10111000E0915803F09159030FB66C96FFAFEEAF14
:101120006C970FBEE0915603F09157030FB66A9685
:10113000FFAFEEAF6A970FBEDFBEA417B5076A0117
:10114000B8F06D014A175B07B0F424173507B8F003
:10115000A9012C153D05B0F44E3222E05207B8F03B
:10116000DA01AE52B240401651069801C0F418C0E0
:101170004A175B0750F3AD012417350748F72C15C4
:101180003D0550F3A6014E3222E0520748F7AEE289
:10119000B2E0A41BB50B40165106980108F092016D
:1011A0000415150508F453C08201A016B10608F015
:1011B00052C0A216B30608F453C08901E214F30426
:1011C000910108F052C02E143F0408F453C01701D7
:1011D0008215930508F052C08217930708F0190191
:1011E00051012BE03CE006C020303E2FDC012F2DCA
:1011F00009F44AC0203049F0E22FFF272D3010F0CB
:101200000C942A23F22EFA9403C0E0E0F0E0F12CD3
:10121000EE0FFF1FE557FE4F808191814817590758
:1012200048F0FA01E81BF90BCF018A179B07E22F60
:1012300038F407C0841B950B8A179B07E22F08F030
:10124000E32F8A179B0708F4CFCFCD01CDCFA0168F
:10125000B10608F4AECF8501A216B30608F0ADCFF3
:10126000E214F304910108F4AECF97012E143F0469
:1012700008F0ADCF8215930508F4AECF1C0182179C
:10128000930708F0ACCFACCF872F8170EC3008F01B
:101290001FC091E00FB669969EAF69970FBE803070
:1012A0000FB66A96AEADBFAD6A970FBE09F468C0BF
:1012B000E6176D010FB66C962EAC3FAC6C970FBE67
:1012C00081E00FB668968EAF68970FBEC1F065C01B
:1012D00080300FB66A96AEADBFAD6A970FBE79F09B
:1012E00081E00FB669968EAF69970FBE6D010FB69C
:1012F0006C962EAC3FAC6C970FBE812D49C09D0102
:10130000261937090FB66C964EAD5FAD6C970FBEC0
:101310004809590981E02134310520E030E04207D5
:10132000530708F4812D0FB665969EAD65970FBEE5
:10133000892381708030B9F0872F8170F3E080308D
:1013400009F4F2E063011401812D0FB669968EAFA6
:1013500069970FBE6FA37CA7E62F0FB668967EAF86
:1013600068970FBE1CC063011401892F0FB66996E0
:101370008EAF69970FBEE62F0FB668967EAF0BC093
:101380006D010FB66C962EAC3FAC6C970FBE81E032
:101390000FB668968EAF68970FBEFCA5F17089B145
:1013A00091E0282F22230FB66C966EAC7FAC6C9721
:1013B0000FBE0AF4912D0FB666962EAD66970FBE3E
:1013C000922791709030A1F08095881F8827881F00
:1013D00091E00FB627969EAF27970FBEB8ABAFA789
:1013E0007EA66DA60FB666968EAF66970FBE3FC0FF
:1013F0009D018FA598A9281B390BA3018DA59EA53A
:10140000480B590B81E02132310520E030E04207E2
:10141000530708F4812D0FB627969EAD27970FBE70
:1014200089238170803009F422C00FB666968EAD94
:1014300066970FBE803009F457C281E00FB62D9633
:101440008EAF2D970FBEB8A3AF8F7E8E6D8E812D80
:1014500088A7812D0FB627968EAF27970FBE81E004
:101460000FB666968EAF66970FBE812D14C00FB66D
:101470002D968EAD2D970FBE8170803089F088A596
:10148000817091E00FB62D969EAF2D970FBE8030E4
:1014900009F47FC185E00FB665968EAF65970BC0E6
:1014A00086E00FB665968EAF65970FBE812D0FB69D
:1014B0002D968EAF2D970FBE89B1807491E080304C
:1014C00009F0912D0FB667962EAD67970FBE922744
:1014D000917090305E2EB1F082958F7086958695D2
:1014E00021E091E00FB628969EAF28970FBE822785
:1014F000BCABABAB7AAA69AA0FB667968EAF6797FB
:101500000FBE40C09D018BA99CA9281B390BA301CC
:1015100089A99AA9480B590B81E02132310520E0B5
:1015200030E04207530708F4812D0FB628969EAD90
:1015300028970FBE89238170803009F423C00FB62D
:1015400067968EAD67970FBE803009F4EAC18F2E83
:1015500081E00FB62E968EAF2E970FBEBCA3ABA325
:101560007AA269A2812D89A7812D0FB628968EAF08
:1015700028970FBE81E00FB667968EAF67970FBEB4
:10158000812D15C00FB62E968EAD2E970FBE817091
:10159000803091F089A5817091E00FB62E969EAFB4
:1015A0002E970FBE803009F42AC18F2E85E00FB62A
:1015B00063968EAF63970CC08F2E86E00FB663964E
:1015C0008EAF63970FBE812D0FB62E968EAF2E97DE
:1015D0000FBE12950295107F1027007F1027000F75
:1015E000111FC801990F990B892FB8016827792716
:1015F000681B790B40E050E0CA0120E038E70E9408
:10160000DE2D7C01770FEE1CFF1C012D11231AF437
:10161000F194E194F00AF501F295E295F07FFE274E
:10162000E07FFE27EE0FFF1FCF01990F990B892F47
:10163000BF0168277927681B790B40E050E0CA0199
:1016400020E038E71F2F0E94DE2DAC01770F441FEA
:10165000551F112351011AF451954195500B89B131
:1016600009B10FB66F969EAD6F970FBE903009F01F
:1016700025C091E02F2D222321E00AF0212DE40E38
:10168000F51EE416F50684F0912D2927203079F017
:10169000FF0CFF08EF2C20E030E8E226F326E114EF
:1016A00098E7F90644F40AC02927203089F7E114A5
:1016B00098E7F9061CF020E038E779018470912C56
:1016C00011E0803021E009F4292D0870CE01865503
:1016D0009F4F0FB629966EAD7FAD29970FBE0E9422
:1016E0005300003021E009F4292D8DA99EA90FB6E1
:1016F00025966EAD7FAD25970FBEA7010E945300C2
:1017000083B181700FB6CB58DF4FFEACC557D040C8
:101710000FBE0FB6C159DF4F4EACCF56D0400FBEF3
:101720000FB6CF59DF4F9EADC156D0400FBE90309F
:1017300001E0E52D0FB66A96AEADBFAD6A970FBE5C
:10174000482D0FB663962EAD63970FBE09F40EC1F8
:10175000803009F40BC10FB6CE59DF4F9EADC25693
:10176000D0400FBE933009F001C10FB6CD59DF4F05
:101770009EADC356D0400FBE903009F4F0C09130FA
:1017800009F0F4C092E00FB6CE59DF4F9EAFC256BB
:10179000EBC0AD018F8D98A1481B590B93018D8D26
:1017A0009E8D280B390BA417B5076206730691E0CE
:1017B00008F0912D903060E070E009F4BA01613DCD
:1017C00087E0780781E008F050C0812D903040E03C
:1017D00050E009F44FC04115510591E009F050C0A7
:1017E000912D4115510509F04FC092E0803009F06C
:1017F00050C094E0803081E009F44EC04EC0AD018D
:101800008BA19CA1481B590B930189A19AA1280B7C
:10181000390BA417B5076206730691E008F0912D05
:10182000903060E070E009F4BA01613D87E078072C
:1018300081E008F039C0812D903040E050E009F49B
:1018400038C04115510591E009F039C0912D41157D
:10185000510509F038C092E0803009F039C094E0B9
:10186000803081E009F437C037C0903040E050E06C
:1018700009F0B1CFA9014115510591E009F4B0CFAC
:101880004115510509F4B1CF892F92E0803009F458
:10189000B0CF803081E009F488A50FB665969EAF81
:1018A00065970FBE88A708CE903040E050E009F061
:1018B000C8CFA9014115510591E009F4C7CF4115E1
:1018C000510509F4C8CF892F92E0803009F4C7CFC1
:1018D000803081E009F489A50FB663969EAF6397C7
:1018E0000FBE8F2E89A775CE88A5817093E08030BA
:1018F00009F491E00FB665969EAF65970FBE812DF6
:101900000FB627968EAF27970FBE812D0FB62D9657
:101910008EAF2D970FBE812D0FB666968EAF669750
:10192000CACD89A5817093E0803009F491E00FB6AB
:1019300063969EAF63970FBE8F2E812D0FB62896AC
:101940008EAF28970FBE812D0FB62E968EAF2E9795
:101950000FBE812D0FB667968EAF679739CE0FB643
:10196000CD59DF4F0EAFC356D0400FBE18270FB66C
:10197000CF59DF4F1EAFC156D0400FBE0FB6659690
:101980009EAD65970FBE903051F0203009F422C013
:10199000253009F038C0923009F43BC018C20FB6A8
:1019A000CE59DF4F9EADC256D0400FBE92509730F9
:1019B00008F095E0292F23502230E0F0953009F40B
:1019C00006C20FB6CD59DF4F1EAFC356D0400FBE73
:1019D00095E011C00FB6CE59DF4F9EADC256D04034
:1019E0000FBE9250973008F095E0292F23502230F7
:1019F00008F0EAC192E00FB6CE59DF4F9EAFC25653
:101A0000D0400FBEE4C1953009F0E1C1223009F0A9
:101A1000DEC10FB6CD59DF4FBFAFAEAFC356D0401A
:101A20000FBE20E030E00FB6C659DF4F3FAF2EAFFC
:101A3000CA56D0400FBE0FB6C859DF4F3FAF2EAFCA
:101A4000C856D0400FBE98E00FB6CE59DF4F9EAFBC
:101A5000C256D0400FBE0FB6CB59DF4F7FAE6EAE31
:101A6000C556D0400FBE9FB392709030E1F721E091
:101A700030E032BD21BD0FBB90B59F3F31F09FEFED
:101A800090BD94E09FBB92E09FBB9FB3927090305B
:101A9000E1F724E030E032BD21BD0FBB90B59F3FA0
:101AA00031F09FEF90BD94E09FBB92E09FBB9FB34E
:101AB00092709030E1F727E030E032BD21BD0FBBDE
:101AC00090B59F3F31F09FEF90BD94E09FBB92E0B7
:101AD0009FBB9FB392709030E1F72AE030E032BDB7
:101AE00021BD0FBB90B59F3F31F09FEF90BD94E0BB
:101AF0009FBB92E09FBB9FB392709030E1F72DE0C7
:101B000030E032BD21BD0FBB90B59F3F31F09FEF5C
:101B100090BD94E09FBB92E09FBB9FB392709030CA
:101B2000E1F720E130E032BD21BD0FBB90B59F3F12
:101B300031F09FEF90BD94E09FBB92E09FBB9FB3BD
:101B400092709030E1F723E130E032BD21BD0FBB50
:101B500090B59F3F31F09FEF90BD94E09FBB92E026
:101B60009FBB9FB392709030E1F726E130E032BD29
:101B700021BD0FBB90B59F3F31F09FEF90BD94E02A
:101B80009FBB92E09FBB9FB392709030E1F729E139
:101B900030E032BD21BD0FBB90B59F3F31F09FEFCC
:101BA00090BD94E09FBB92E09FBB9FB3927090303A
:101BB000E1F72CE130E032BD21BD0FBB90B59F3F76
:101BC00031F09FEF90BD94E09FBB92E09FBB9FB32D
:101BD00092709030E1F72FE130E032BD21BD0FBBB4
:101BE00090B59F3F31F09FEF90BD94E09FBB92E096
:101BF0009FBB9FB392709030E1F722E230E032BD9C
:101C000021BD0FBB90B59F3F31F09FEF90BD94E099
:101C10009FBB92E09FBB9FB392709030E1F725E2AB
:101C200030E032BD21BD0FBB90B59F3F31F09FEF3B
:101C300090BD94E09FBB92E09FBB9FB392709030A9
:101C4000E1F727E330E032BD21BD0FBB90B59F3FE8
:101C500031F09FEF90BD94E09FBB92E09FBB9FB39C
:101C600092709030E1F729E430E032BD21BD0FBB26
:101C700090B59F3F31F09FEF90BD94E09FBB92E005
:101C80009FBB9FB392709030E1F72BE530E032BDFF
:101C900021BD0FBB90B59F3F31F09FEF90BD94E009
:101CA0009FBB92E09FBB9FB392709030E1F72DE60F
:101CB00030E032BD21BD0FBB90B59F3F31F09FEFAB
:101CC00090BD94E09FBB92E09FBB9FB39270903019
:101CD000E1F72FE730E032BD21BD0FBB90B59F3F4C
:101CE00031F09FEF90BD94E09FBB92E09FBB9FB30C
:101CF00092709030E1F721E930E032BD21BD0FBB99
:101D000090B59F3F31F09FEF90BD94E09FBB92E074
:101D10009FBB9FB392709030E1F723EA30E032BD71
:101D200021BD0FBB90B59F3F31F09FEF90BD94E078
:101D30009FBB92E09FBB9FB392709030E1F725EB81
:101D400030E032BD21BD0FBB90B59F3F31F09FEF1A
:101D500090BD94E09FBB92E09FBB9FB39270903088
:101D6000E1F727EC30E032BD21BD0FBB90B59F3FBE
:101D700031F09FEF90BD94E09FBB92E09FBB9FB37B
:101D800092709030E1F729ED30E032BD21BD0FBBFC
:101D900090B59F3F31F09FEF90BD94E09FBB92E0E4
:101DA0009FBB9FB392709030E1F72BEE30E032BDD5
:101DB00021BD0FBB90B59F3F51F09FEF90BD94E0C8
:101DC0009FBB92E09FBB03C0953009F00EC242302A
:101DD00009F449C0433011F00C94C2170FB6CE5924
:101DE000DF4F9EADC256D0400FBE9250973008F0E4
:101DF00095E093300CF047C0903009F4BAC19130AF
:101E000011F00C94C2170FB66E969EAD6E970FBE72
:101E1000913009F05CC49FA19923973010F09FA1E5
:101E20009C500FB6CC59DF4F2EADC456D0400FBEDC
:101E300022300CF49DC5223011F40C946F1723301E
:101E400011F00C9485170FB6E0969EAFE0970FBE89
:101E50002FA122230FB6C05BDF4F9EAFC055D040ED
:101E60000FBE0C94AD170FB6CE59DF4F8EADC256D4
:101E7000D0400FBE833009F471C1843011F40C944A
:101E8000BA170C94C217892F8550823010F40C9425
:101E9000C217933009F0B2C10FB6CD59DF4F8EADE6
:101EA000C356D0400FBE0FB665968EAF65970FBE76
:101EB000803009F43EC40FB66396DFAECEAE6397B2
:101EC0000FBE82E19FA19802802D11248C878B5D2B
:101ED000D82E0FB6C75BDF4F8EADC954D0400FBEB2
:101EE000880F8D8B0FB6C95BDF4F8EADC754D040C6
:101EF0000FBE8795882787958A870FB6CF5BDF4F00
:101F00007EADC154D0400FBE770F0FB6A9968EACF0
:101F1000A9970FBE880C0FB6A7968EADA7970FBED8
:101F20008795882787958B870FB6A1963EADA19799
:101F30000FBE330F0FB66E968EAD6E970FBE8B83AE
:101F40008260888F0FB6C65BDF4F9EADCA54D0400B
:101F50000FBE990F990F0FB6CC5BDF4F8EADC454F7
:101F6000D0400FBE8295807F89870FB6CE5BDF4F52
:101F70001EADC254D0400FBE110F110F0FB6AA965E
:101F80009EACAA970FBE990C990C0FB6A4968EAD75
:101F9000A4970FBE8295807F88870FB6A2960EAD5C
:101FA000A2970FBE000F000F0FB6C55BDF4FFEAD4F
:101FB000CB54D0400FBEFF0FFF0FFF0F0FB6CB5B10
:101FC000DF4F5EADC554D0400FBE5295507F550FC8
:101FD0000FB6CD5BDF4F6EADC354D0400FBE660F62
:101FE000660F660F0FB6AB962EADAB970FBE220FE6
:101FF000220F220F0FB6A5964EADA5970FBE4295A4
:10200000407F440F0FB6A396EEACA3970FBEEE0C25
:10201000EE0CEE0C0FB6CA5BDF4FEEADC654D040EF
:102020000FBEE295E07FEE0FEE0F0FB6A6968EADD7
:10203000A6970FBE8295807F880F880F0FB6CF5A64
:10204000DF4FAEADC155D0400FBEAF8B0FB6C05BFA
:10205000DF4FAEADC055D0400FBEAE8B0FB6C15BEB
:10206000DF4FAEADCF54D0400FBEAC8B0FB6C25BCE
:10207000DF4FAEADCE54D0400FBEAB8B0FB6C35BBF
:10208000DF4FAEADCD54D0400FBEAA8B0FB6C45BB0
:10209000DF4FAEADCC54D0400FBEA98B0FB6C85B9E
:1020A000DF4F6EACC854D0400FBE0FB6C05CDF4FE0
:1020B000AEADC054D0400FBEAE830FB6E196AEAD0C
:1020C000E1970FBEA88B0FB6E096AEADE0970FBEBE
:1020D000AF870FB6AF963EACAF970FBE0FB6AE96BA
:1020E0002EACAE970FBE0FB6AD96AEADAD970FBE90
:1020F000AE870FB6AC96AEADAC970FBEAD870FB640
:10210000A8967EACA8970FBE0FB6A096AEADA097CE
:102110000FBEAF830FB66F96AEAD6F970FBEBFB356
:10212000B270B030E1F7CD2CDD24D2BCC1BCB1E03F
:10213000BFBBA03011F4AB81A88FA0B5BA2FBA7A7B
:10214000BA3A0FB66396CEACDFAC63970FBE09F018
:1021500028C4AA3A09F42BC4A4E224C40FB6CD596A
:10216000DF4F8EADC356D0400FBE823009F402C798
:1021700009C7803009F08FC28FA186300CF0B0C340
:102180000FB6C05ADF4F8EADC056D0400FBEA82F3D
:10219000BB27B295A295B07FBA27A07FBA27AA0F16
:1021A000BB1F0FB629968EAD9FAD29970FBEA80F06
:1021B000B91F8FA183300CF05EC4803011F40C94F1
:1021C0002E21813011F40C94702282300FB66A9661
:1021D000AEADBFAD6A970FBE11F00C943D230FB6A4
:1021E000CC59DF4F1EAE0C94C2220FB6CD59DF4F33
:1021F0001EAFC356D0400FBE96E0FDCB0FB6CD59F3
:10220000DF4F8EADC356D0400FBE803009F4EBC215
:1022100082E19FA19802802D1124982F9B5D2FB3FE
:1022200022702030E1F7292F332732BD21BD0FBBAB
:1022300090B59A3A09F09EC68A5D9FB3927090302D
:10224000E1F7E82FFF27F2BDE1BD0FBB30B49FB32C
:1022500092709030E1F7DF01A160B2BDA1BD0FBB6C
:1022600000B52FB322702030E1F7DF011296B2BD26
:10227000A1BD81E08FBB20B53FB332703030E1F7B4
:102280000FB66396DFAECEAE63970FBEDF01139637
:10229000B2BDA1BD81E08FBB60B44FB3427040308E
:1022A000E1F7DF011496B2BDA1BD81E08FBB20B480
:1022B0005FB352705030E1F7DF011596B2BDA1BD9A
:1022C00081E08FBB50B56FB362706030E1F7DF0122
:1022D0001696B2BDA1BD81E08FBB60B57FB37270B1
:1022E0007030E1F7DF011796B2BDA1BD81E08FBB71
:1022F00070B5AFB3A270A030E1F7DF011896B2BDA0
:10230000A1BD81E08FBBA0B5BFB3B270B030E1F723
:102310006F013996F2BDE1BD81E08FBBB0B5EFB37F
:10232000E270E030E1F7F6013A96F2BDE1BD81E0FE
:102330008FBB10B5EFB3E270E030E1F7F6013B96EA
:10234000F2BDE1BD81E08FBB30B5EFB3E270E030AC
:10235000E1F7F6013C96F2BDE1BD81E08FBBE0B450
:10236000EFB3E270E030E1F7F6013D96F2BDE1BD7A
:1023700081E08FBB90B4EFB3E270E030E1F7F6019B
:102380003E96F2BDE1BD81E08FBB80B4EFB3E27059
:10239000E030E1F7F6013F96F2BDE1BD81E08FBB91
:1023A00070B4EFB3E270E030E1F7C601409692BD41
:1023B00081BD41E04FBBE981FA81FE96C0B480E067
:1023C00090E0938382830FB6C45ADF4F9FAF8EAFE6
:1023D000CC55D0400FBE0FB6EE969FAF8EAFEE97A6
:1023E0000FBE0FB6EC969FAF8EAFEC970FBE0FB639
:1023F000CE5ADF4F1EAEC255D0400FBE0FB6CF5AD9
:10240000DF4FCEAEC155D0400FBE0FB6C05BDF4F21
:102410007EAEC055D0400FBE0FB6C15BDF4F8EAE53
:10242000CF54D0400FBE0FB6C25BDF4F9EAECE542E
:10243000D0400FBE0FB6C35BDF4FEEAECD54D040E1
:102440000FBE3030E1E009F4E12D0FB6C45BDF4F81
:10245000EEAFCC54D0400FBE812F8695982F969525
:10246000392F369531700FB6C55BDF4F3EAFCB5479
:10247000D0400FBE91700FB6C65BDF4F9EAFCA54FF
:10248000D0400FBE81700FB6C75BDF4F8EAFC9540F
:10249000D0400FBE11700FB6C85BDF4F1EAFC854DF
:1024A000D0400FBE8B2F881F8827881F0FB6C95BAF
:1024B000DF4F8EAFC754D0400FBE8B2F8295E82FD1
:1024C000EF70E6959E2F91700FB6CB5BDF4F9EAFFE
:1024D000C554D0400FBE81700FB6CC5BDF4F8EAFBE
:1024E000C454D0400FBE8B2F8695982F9695392FC8
:1024F000369531700FB6CD5BDF4F3EAFC354D04041
:102500000FBE91700FB6CE5BDF4F9EAFC254D0406E
:102510000FBE81700FB6CF5BDF4F8EAFC154D0407E
:102520000FBEB1700FB6C05CDF4FBEAFC054D0401D
:102530000FBE0FB6E2961EAEE2970FBE0FB6E19643
:10254000AEAFE1970FBE0FB6E0967EAFE0970FBE3D
:102550000FB6AF966EAFAF970FBE0FB6AE965EAF2B
:10256000AE970FBE0FB6AD962EAEAD970FBE862DB1
:1025700080300FB66C966EAC7FAC6C970FBE09F4D2
:10258000412D0FB6AC964EAFAC970FBE822F8695FD
:10259000982F9695392F369531700FB6AB963EAF82
:1025A000AB970FBE91700FB6AA969EAFAA970FBEBB
:1025B00081700FB6A9968EAFA9970FBE21700FB686
:1025C000A8962EAFA8970FBE802F881F8827881F38
:1025D0000FB6A7968EAFA7970FBE802F8295282F94
:1025E0002F702695922F91700FB6A5969EAFA59746
:1025F0000FBE81700FB6A4968EAFA4970FBE802F2A
:102600008695982F9695392F369531700FB6A396EB
:102610003EAFA3970FBE91700FB6A2969EAFA29742
:102620000FBE81700FB6A1968EAFA1970FBE01703D
:102630000FB6A0960EAFA0970FBE932D892F86954B
:1026400081700FB66F968EAF6F970FBE91700FB6F9
:102650006E969EAF6E970FBEE695E1700FB6CA5BA1
:10266000DF4FEEAFC654D0400FBE269521700FB697
:10267000A6962EAFA6970FBE01E0E52D0FB6639686
:10268000CEACDFAC63970FBE0FB66A96AEADBFADF2
:102690006A970FBE6FC43FA1832F99270FB66E961E
:1026A0002EAD6E970FBE213009F03EC13C3010F0C8
:1026B0000C94342329813A81820F931FFC0182817B
:1026C0008027828382A1802782A3E52D5BC40FB679
:1026D000C05ADF4F9EADC056D0400FBE2FA122235F
:1026E000292F332732952295307F3227207F3227BA
:1026F000220F331F0FB629964EAD5FAD29970FBE3F
:10270000240F351F0FB6CC59DF4F9EADC456D040B5
:102710000FBE92300CF43EC1923009F4EFC39330F7
:1027200009F002C49FA1973008F09C50F901908BEA
:1027300013C40FB6C05ADF4F8EADC056D0400FBE87
:10274000A82FBB27B295A295B07FBA27A07FBA2742
:10275000AA0FBB1F0FB629968EAD9FAD29970FBE4E
:10276000A80FB91FBD01FB0180859185990F982B9A
:102770008285880F880F892B93E02FA12902402D95
:102780001124242F23955385BC9137813795332706
:1027900037959181990F64816295607F1281110F45
:1027A000110F75817295707F770F0381000F000FF5
:1027B000000FA681A295A07FAA0FAA0FEFB3E27027
:1027C000E030E1F7E22FFF27F2BDE1BDE1E0EFBB32
:1027D000E0B5FE2FFA7AFA3A09F028C1EA3A09F48C
:1027E0002BC1E4E224C183E09FA198021124802D33
:1027F00083950FB6C05ADF4F9EADC056D0400FBE76
:102800002FB322702030E1F7E82FFF27F2BDE1BDA2
:102810000FBB30B58FB382708030E1F7DF011196C6
:10282000B2BDA1BD0FBB80B52FB322702030E1F740
:102830003296F2BDE1BD0FBB20B53A3AE52D0FB699
:102840006A96AEADBFAD6A970FBE09F093C3A92FCC
:10285000BB27B295A295B07FBA27A07FBA27AA0F4F
:10286000BB1F0FB629964EAD5FAD29970FBEA40FC3
:10287000B51F922F9695392F3695432F4695417067
:10288000FD014387317032879170918721702087D5
:10289000982F991F9927991F9783282F2295922F58
:1028A0009F709695392F3170358321702483282F9E
:1028B0002695322F3695432F4695417043833170CC
:1028C00032832170218381708C930FB66A96AEADEE
:1028D000BFAD6A970FBE969591709683E52D4AC35A
:1028E00089300CF0DDC0863011F40C94342287302E
:1028F00011F40C94BD22883011F00C943D2384E037
:1029000091E00FB6CE59DF4F9FAF8EAFC256D04089
:102910000FBE0FB66F968EAD6F970FBE80270FB6A6
:102920006F968EAF6F972DC33C3010F00C9434230C
:102930000FB6C05ADF4F2EADC056D0400FBEA22FEB
:10294000BB27B295A295B07FBA27A07FBA27AA0F5E
:10295000BB1F0FB629962EAD3FAD29970FBEA20F14
:10296000B31FA80FB91F8C9180278C930C94DC2285
:10297000203009F0E0C29FA10FB6AD969EAFAD9793
:102980000FBE99230FB6C35BDF4F9EAFCD54D0402F
:102990000FBEE3C2F901903009F0DCC29FA1958718
:1029A000DBC2A4E0BAEAB0BDAFBBA2E0AFBBAD8969
:1029B000A629A92BAF2B87288928822A9E81792BCB
:1029C000712B762B9985792B752B7E2B9A85792BFC
:1029D0009F81392B302B3E299885392B342B382B6E
:1029E0008B85382B9C859A5D8FB382708030E1F7A0
:1029F000E92FFF27F2BDE1BD01E00FBB80B5982FA5
:102A00009095288D922390300FB66C966EAC7FAC6B
:102A10006C970FBE4C895B896A89B9891889EF84E4
:102A20003D8A09F457C084E03D8458C0E4E0FAEAE6
:102A3000F0BDEFBBE2E0EFBB550F550F550F852BF7
:102A40009B2B912B902B962B972B9A2B932B4E5F96
:102A50003FB332703030E1F7E42FFF27F2BDE1BD24
:102A600001E00FBB20B5322F30953923303009F407
:102A700051C024E052C0833011F40C9436228430CB
:102A800011F40C94CD2285300FB66A96AEADBFAD71
:102A90006A970FBE11F00C943D2384E00C94BE2283
:102AA000893011F40C943F228A3011F40C94E32203
:102AB0008B3011F00C943D230FB66E968EAD6E9751
:102AC0000FBE803009F05EC20FB6C05ADF4F0EAFA6
:102AD0000C94F02282173D8429F084E220BD8FBB44
:102AE00082E08FBB8FB382708030E1F7CF018160CD
:102AF00092BD81BD0FBB80B5982F909593239030E8
:102B0000242F09F420C084E0452F562F6B2FB12FBE
:102B10001E2D21C0291729F024E290BD2FBB92E081
:102B20009FBB9FB392709030E1F73196F2BDE1BD4B
:102B30000FBB90B5292F20952823203009F421C000
:102B400094E0E52D22C08317452F562F6B2FB12F10
:102B50001E2D29F084E230BD8FBB82E08FBB8FB386
:102B600082708030E1F7CF01029692BD81BD0FBB2C
:102B700080B5982F9095982190303E8991F084E00F
:102B800013C09817E52D29F094E280BD9FBB82E029
:102B90008FBB9FA19C3028E030E008F465C10C9405
:102BA0002423881529F084E280BC8FBB82E08FBB90
:102BB0008FB382708030E1F7CF01039692BD81BD63
:102BC0000FBB80B5982F9095932190308E8411F093
:102BD00084E003C0831529F084E230BC8FBB82E01F
:102BE0008FBB8FB382708030E1F7CF01049692BD26
:102BF00081BD0FBB80B5982F909598219030ED88BE
:102C000011F084E003C0881529F084E280BC8FBBFA
:102C100082E08FBB8FB382708030E1F7CF010596E1
:102C200092BD81BD0FBB80B5982F909592219030B9
:102C300011F084E003C0821529F084E220BC8FBB30
:102C400082E08FBB8FB382708030E1F7CF010696B0
:102C500092BD81BD0FBB80B5982F90959E2190307D
:102C600011F084E003C08E1529F084E2E0BC8FBB34
:102C700082E08FBB8FB382708030E1F7CF0107967F
:102C800092BD81BD0FBB80B5982F90959123903058
:102C900011F084E003C0811729F084E210BD8FBBDE
:102CA00082E08FBB8FB382708030E1F7CF0108964E
:102CB00092BD81BD0FBB80B5982F90959B2390301E
:102CC00011F084E003C08B1729F084E2B0BD8FBB04
:102CD00082E08FBB8FB382708030E1F7CF0109961D
:102CE00092BD81BD0FBB80B5982F909597239030F2
:102CF00011F084E003C0871729F084E270BD8FBB18
:102D000082E08FBB8FB382708030E1F7CF010A96EB
:102D100092BD81BD0FBB80B5982F90959A239030BE
:102D200011F084E003C08A1729F084E2A0BD8FBBB4
:102D300082E08FBB8FB382708030E1F7CF010B96BA
:102D400092BD81BD0FBB80B5982F90959623903092
:102D500011F084E003C0861729F084E260BD8FBBC8
:102D600082E08FBB8FB382708030E1F7CF010C9689
:102D700092BD81BD0FBB80B5982F90959523903063
:102D800011F084E003C0851729F084E250BD8FBBA9
:102D900082E08FBB8FB382708030E1F7CF010D9658
:102DA00092BD81BD0FBB80B5982F90959423903034
:102DB00011F084E003C0841729F084E240BD8FBB8A
:102DC00082E08FBB8FB382708030E1F7CF010E9627
:102DD00092BD81BD0FBB80B5982F90959223903006
:102DE00011F084E003C0821729F084E220BD8FBB7C
:102DF00082E08FBB8FB382708030E1F7CF010F96F6
:102E000092BD81BD0FBB80B5982F909593239030D4
:102E10002F8911F084E003C0831729F084E230BDCC
:102E20008FBB82E08FBB8FB382708030E1F77096EA
:102E3000F2BDE1BD0FBB80B5982F909592239030E5
:102E400021F084E09FA1E52D05C082179FA1E52D0B
:102E500029F084E220BD8FBB82E08FBB9C302AE04A
:102E600030E010F00C942423977081E09A951AF0CA
:102E7000880F9A95EAF7AE0142565F4F420F531FF3
:102E80002FA1922F969596959695A92FBB27A40FC3
:102E9000B51F9C91982B9C930FB6CA59DF4F7FAEFC
:102EA0006EAEC656D0400FBE0FB66A96AEADBFAD81
:102EB0006A970FBE0FB6CC59DF4FBFAFAEAFC45647
:102EC000D0400FBE0FB6CD59DF4F2EAFC356D04006
:102ED0000FBE0FB665968EAD65970FBE4CC00FB690
:102EE000AF969EAFAF970FBE2FA122230FB6C15B47
:102EF000DF4F9EAFCF54D0400FBE2FC09FA1973061
:102F000008F09C50F901978727C00FB6E1969EAF55
:102F1000E1970FBE2FA122230FB6CF5ADF4F9EAFEE
:102F2000C155D0400FBE19C09FA1973008F09C50EA
:102F3000F901918B11C09FA10FB6AE969EAFAE97CF
:102F40000FBE99230FB6C25BDF4F9EAFCE54D04069
:102F50000FBE03C09FA19687E52D0FB6CD59DF4F59
:102F60009EADC356D0400FBE903009F4B8C6923023
:102F700009F0B7C682E00FB6CE59DF4F8EAFC2560A
:102F8000D0400FBE0FB6CE59DF4F8EADC256D040E7
:102F90000FBE982F9250973008F095E09330ACF028
:102FA000292F2350223008F066C00FB6CD59DF4FCD
:102FB0002EADC356D0400FBE203009F008C20FB668
:102FC000C859DF4F3EADC85607C2903009F4E0C083
:102FD000913009F0E6C10FB6C05ADF4F8EADC05632
:102FE000D0400FBE992792958295907F9827807F39
:102FF0009827880F991F0FB629962EAD3FAD2997B8
:103000000FBE820F931F0FB6CC59DF4F2EADC456A3
:10301000D0400FBEFC0122300CF4BFC4223009F4B2
:1030200027C5233009F04AC51089898D9A8D63E040
:103030004BE050E00E94472E82E00FB6CC57DF4FA6
:103040008EAFC458D0400FBE812F88230AF04AC5E6
:10305000145F8DA19EA1E52DA12FB12FBB0FBB0B3E
:103060001C3010F00C942F23A80FB91F0C9313954C
:103070001C3091F751C6953009F05FC20FB6CC599C
:10308000DF4F2EAD3FADC456D0400FBE0FB6CA596C
:10309000DF4F4EAD5FADC656D0400FBEA21BB30B87
:1030A000640A750A91E0A11524E0B20720E030E03F
:1030B0006206730608F4912D9170903041F092E011
:1030C0000FB6CE59DF4F9EAFC256D0400FBE0FB6DF
:1030D000CD59DF4F2EADC356D0400FBE0FB6C05AEC
:1030E000DF4F9EADC056D0400FBE43E053E00FB659
:1030F000C257DF4F5FAF4EAFCE58D0400FBE0FB6B6
:10310000C457DF4F5FAF4EAFCC58D0400FBE0FB6A5
:10311000C657DF4F5FAF4EAFCA58D0400FBE0FB695
:10312000C857DF4F5FAF4EAFC858D0400FBE0FB685
:10313000CA57DF4F5FAF4EAFC658D0400FBE0FB675
:10314000CC57DF4F5FAF4EAFC458D0400FBEA07812
:10315000B07031E0A115B10540E050E044075507DB
:1031600009F4312D3170303009F0D6C5A22FBB27BC
:103170002C3010F00C942F23817022E0803011F459
:103180009170292F8DA19EA1A80FB91F2C93C4C5A2
:103190000FB6C05ADF4F8EADC056D0400FBE23E0F1
:1031A00033E00FB6C257DF4F3FAF2EAFCE58D040FF
:1031B0000FBE0FB6C457DF4F3FAF2EAFCC58D04035
:1031C0000FBE0FB6C657DF4F3FAF2EAFCA58D04025
:1031D0000FBE0FB6C857DF4F3FAF2EAFC858D04015
:1031E0000FBE0FB6CA57DF4F3FAF2EAFC658D04005
:1031F0000FBE0FB6CC57DF4F3FAF2EAFC458D040F5
:103200000FBE0FB66E969EAD6E970FBE913009F051
:103210006BC20FB6A0968EADA0970FBE803041F066
:1032200082E00FB6CC57DF4F8EAFC458D0400FBEF0
:103230000FB6A1968EADA1970FBE813041F482E00A
:103240000FB6CB57DF4F8EAFC558D0400FBE0FB66D
:10325000A2968EADA2970FBE813041F482E00FB6E8
:10326000CA57DF4F8EAFC658D0400FBE0FB6A396D9
:103270008EADA3970FBE813041F482E00FB6C957DF
:10328000DF4F8EAFC758D0400FBE0FB6A4968EAD9D
:10329000A4970FBE813041F482E00FB6C857DF4FCC
:1032A0008EAFC858D0400FBE0FB6A5968EADA5976D
:1032B0000FBE813041F482E00FB6C757DF4F8EAFAB
:1032C000C958D0400FBE0FB6A6968EADA6970FBEBA
:1032D000813041F482E00FB6C657DF4F8EAFCA5837
:1032E000D0400FBE0FB6A7968EADA7970FBE813008
:1032F00041F482E00FB6C557DF4F8EAFCB58D040B8
:103300000FBE0FB6A8968EADA8970FBE813041F4C0
:1033100082E00FB6C457DF4F8EAFCC58D0400FBEFF
:103320000FB6A9968EADA9970FBE813041F482E009
:103330000FB6C357DF4F8EAFCD58D0400FBE0FB67C
:10334000AA968EADAA970FBE813041F482E00FB6E7
:10335000C257DF4F8EAFCE58D0400FBE36010FB6EA
:10336000AB968EADAB970FBE813041F482E00FB6C5
:10337000C157DF4F8EAFCF58D0400FBE8F2D9F2D3E
:10338000990F990B2CE030E04901B4010E94EE2D19
:10339000DC01CDA0DEA0AC0DBD1D0C93F42C112DD5
:1033A00027C20FB6CD59DF4F8EADC356D0400FBEEA
:1033B000803009F406C3823009F01FC30FB66E9641
:1033C0002EAD6E970FBE202783E093E01DC30FB68E
:1033D000C659DF4F3EADCA56D0400FBE82E0203006
:1033E00041F40FB6C05ADF4F8EADC056D0400FBE6D
:1033F000817093E0432F442343E00AF4482F0FB633
:10340000C158DF4F4EAFCF57D0400FBE432F40744F
:10341000403043E009F0482F0FB6C258DF4F4EAF9F
:10342000CE57D0400FBE432F4072403043E009F0EA
:10343000482F0FB6C358DF4F4EAFCD57D0400FBE09
:10344000432F4071403043E009F0482F0FB6C45875
:10345000DF4F4EAFCC57D0400FBE432F48704030A7
:1034600043E009F0482F0FB6C558DF4F4EAFCB579A
:10347000D0400FBE432F4470403043E009F0482F46
:103480000FB6C658DF4F4EAFCA57D0400FBE432FBE
:103490004270403043E009F0482F0FB6C758DF4F65
:1034A0004EAFC957D0400FBE3170303033E009F015
:1034B000382F0FB6C858DF4F3EAFC857D0400FBEA9
:1034C00020302BE030E011F429E030E0DE01A2569C
:1034D000BF4FA20FB31F2C91322F3870303033E022
:1034E00009F0382F0FB6CD57DF4F3EAFC358D0404D
:1034F0000FBE322F3470303033E009F0382F0FB662
:10350000CE57DF4F3EAFC258D0400FBE322F327081
:10351000303033E009F0382F0FB6CF57DF4F3EAFD2
:10352000C158D0400FBE2170203009F0982F0FB63F
:10353000C058DF4F9EAFC0584DC40FB6CD59DF4FB6
:103540008EAD9FADC356D0400FBE0FB6CB59DF4FE7
:103550002EAD3FADC556D0400FBEA81BB90B620AB9
:10356000730A81E0A03493E0B90720E030E06206FE
:10357000730608F4812D8170803041F082E00FB62F
:10358000CE59DF4F8EAFC256D0400FBE83E093E0DE
:103590000FB6C257DF4F9FAF8EAFCE58D0400FBE91
:1035A0000FB6C457DF4F9FAF8EAFCC58D0400FBE81
:1035B0000FB6C657DF4F9FAF8EAFCA58D0400FBE71
:1035C0000FB6C857DF4F9FAF8EAFC858D0400FBE61
:1035D0000FB6CA57DF4F9FAF8EAFC658D0400FBE51
:1035E0000FB6CC57DF4F9FAF8EAFC458D0400FBE41
:1035F000CD01929582958F7089279F708927969526
:103600008795969587956CE070E07D010E94EE2D80
:10361000E11423E0F206A0E0B0E008F4DC018DA1A3
:103620009EA1A80FB91F82E08C930FB6CC57DF4F35
:103630008EAD9FADC458D0400FBE0FB6C858DF4FF7
:103640009FAF8EAFC857D0400FBE0FB6CA57DF4FDF
:103650008EAD9FADC658D0400FBE0FB6C658DF4FD7
:103660009FAF8EAFCA57D0400FBE0FB6C857DF4FBF
:103670008EAD9FADC858D0400FBE0FB6C458DF4FB7
:103680009FAF8EAFCC57D0400FBE0FB6C657DF4F9F
:103690008EAD9FADCA58D0400FBE0FB6C258DF4F97
:1036A0009FAF8EAFCE57D0400FBE0FB6C457DF4F7F
:1036B0008EAD9FADCC58D0400FBE0FB6C058DF4F77
:1036C0009FAF8EAFC058D0400FBE0FB6C257DF4F6E
:1036D0008EAD9FADCE58D0400FBE0FB6CE57DF4F48
:1036E0009FAF8EAFC258F7C2A82FBB27B295A29545
:1036F000B07FBA27A07FBA27AA0FBB1F0FB62996A3
:103700002EAD3FAD29970FBEA20FB31F2C91982F5E
:103710009170203009F4DAC00FB6CC57DF4F9EAF5E
:10372000C458D0400FBEFD012181213009F4D3C01F
:10373000FD012281213009F0DAC00FB6CA57DF4FF0
:103740009EAFC658D0400FBEFD012381213009F441
:10375000D3C0FD012481213009F0DAC00FB6C8576B
:10376000DF4F9EAFC858D0400FBEFD0125812130EC
:1037700009F4D3C0FD012681213009F0DAC00FB66B
:10378000C657DF4F9EAFCA58D0400FBEFD012781FC
:10379000213009F4D3C0FD012085213009F0DAC0C1
:1037A0000FB6C457DF4F9EAFCC58D0400FBEFD01BF
:1037B0002185213009F4D3C0FD012285213009F093
:1037C000DAC00FB6C257DF4F9EAFCE58D0400FBE03
:1037D000FD012385213009F4D3C03601817080308A
:1037E00009F4F42C12E0CDA0DEA08CE090E04C01B6
:1037F0008F2D9F2D990F990BB4010E94EE2DDC01A6
:10380000AC0DBD1D1C930FB6CC57DF4F8EAD9FADD9
:10381000C458D0400FBE0FB6C858DF4F9FAF8EAF11
:10382000C857D0400FBE0FB6CA57DF4F8EAD9FAD01
:10383000C658D0400FBE0FB6C658DF4F9FAF8EAFF1
:10384000CA57D0400FBE0FB6C857DF4F8EAD9FADE1
:10385000C858D0400FBE0FB6C458DF4F9FAF8EAFD1
:10386000CC57D0400FBE0FB6C657DF4F8EAD9FADC1
:10387000CA58D0400FBE0FB6C258DF4F9FAF8EAFB1
:10388000CE57D0400FBE0FB6C457DF4F8EAD9FADA1
:10389000CC58D0400FBE0FB6C058DF4F9FAF8EAF91
:1038A000C058D0400FBE0FB6C257DF4F8EAD9FAD90
:1038B000CE58D0400FBE0FB6CE57DF4F9FAF8EAF62
:1038C000C258D0400FBEE52D630186C2FD012181A3
:1038D000213009F02DCF0FB6CB57DF4F9EAFC55823
:1038E000D0400FBEFD012281213009F426CFFD0119
:1038F0002381213009F02DCF0FB6C957DF4F9EAF7E
:10390000C758D0400FBEFD012481213009F426CFD5
:10391000FD012581213009F02DCF0FB6C757DF4FAC
:103920009EAFC958D0400FBEFD012681213009F459
:1039300026CFFD012781213009F02DCF0FB6C557C5
:10394000DF4F9EAFCB58D0400FBEFD012085213008
:1039500009F426CFFD012185213009F02DCF0FB6C6
:10396000C357DF4F9EAFCD58D0400FBEFD0122851B
:10397000213009F426CFFD012385213009F02DCF18
:103980000FB6C157DF4F9EAFCF58D0400FBE3601A4
:103990008170803009F425CF25CF203009F016C181
:1039A00085858A958E3F08F416C1E3E0A3E0F3E035
:1039B00073E063E053E043E033E023E093E083E02F
:1039C00037C10FB6C05ADF4F8EADC056D0400FBEC4
:1039D000992792958295907F9827807F9827880FC6
:1039E000991F0FB629962EAD3FAD29970FBE820FB6
:1039F000931FFC01848593E006C083E00FB66F96A9
:103A00009EAD6F970FBE23E043E053E00FB6C6585C
:103A1000DF4F5FAF4EAFCA57D0400FBE0FB6C8588A
:103A2000DF4F5FAF4EAFC857D0400FBE0FB6C45880
:103A3000DF4F8EAFCC57D0400FBEEB8DFC8D83E0B7
:103A40008283518340830FB6CE57DF4F5FAF4EAFB7
:103A5000C258D0400FBE0FB6CF57DF4F2EAFC15860
:103A6000D0400FBE0FB6C058DF4F9EAFC05833C115
:103A70001785898D9A8D63E04BE050E00E94472EB8
:103A800082E00FB6CC57DF4F8EAFC458D0400FBE88
:103A9000812F88230AF026C0145F8DA19EA1E52DF9
:103AA000A12FB12FBB0FBB0B1C3008F0D8C5A80F3E
:103AB000B91F0C9313951C3099F72EC11189898D6C
:103AC0009A8D63E04BE050E00E94472E82E00FB6F3
:103AD000CC57DF4F8EAFC458D0400FBE812F882304
:103AE0000AF409C113951230E52D0CF415C10FB677
:103AF000CB57DF4F1EAEC558D0400FBE123009F471
:103B00000BC10FB6CA57DF4F1EAEC658D0400FBE0E
:103B1000133009F401C10FB6C957DF4F1EAEC758A5
:103B2000D0400FBE143009F4F7C00FB6C857DF4FAE
:103B30001EAEC858D0400FBE153009F4EDC00FB608
:103B4000C757DF4F1EAEC958D0400FBE163009F41C
:103B5000E3C00FB6C657DF4F1EAECA58D0400FBEE7
:103B6000173009F4D9C00FB6C557DF4F1EAECB587A
:103B7000D0400FBE183009F4CFC00FB6C457DF4F86
:103B80001EAECC58D0400FBE193009F4C5C00FB6D8
:103B9000C357DF4F1EAECD58D0400FBE1A3009F4C8
:103BA000BBC00FB6C257DF4F1EAECE58D0400FBEBF
:103BB0001B3009F4B1C00FB6C157DF4F1EAECF584E
:103BC000D0400FBE1C3009F4A7C052C586858A9527
:103BD0008E3F08F0EACE8B3008F04AC5A82FBB27ED
:103BE000FD01E85FFD4F8081FD01E350FE4F9081B4
:103BF000FD01EE50FE4F2081FD01E951FE4F308165
:103C0000FD01E452FE4F4081FD01EF52FE4F508115
:103C1000FD01EA53FE4F6081FD01E554FE4F7081C6
:103C2000FD01E055FE4FF081AB55BE4FAC91E12D4B
:103C30000FB6CD57DF4F8EAFC358D0400FBE0FB673
:103C4000CE57DF4F9EAFC258D0400FBE0FB6CF57F2
:103C5000DF4F2EAFC158D0400FBE0FB6C058DF4F58
:103C60003EAFC058D0400FBE0FB6C158DF4F4EAF69
:103C7000CF57D0400FBE0FB6C258DF4F5EAFCE5702
:103C8000D0400FBE0FB6C358DF4F6EAFCD57D040F8
:103C90000FBE0FB6C458DF4F7EAFCC57D0400FBE1B
:103CA0000FB6C558DF4FFEAFCB57D0400FBE0FB693
:103CB000C658DF4FAEAFCA57D0400FBE0FB6C75879
:103CC000DF4FEEAFC957D0400FBE82E00FB6C858E5
:103CD000DF4F8EAFC857D0400FBEE52D7DC091E0BD
:103CE00004C091E0803009F092E00FB6CD59DF4F6B
:103CF0009EAFC35645C9145F8DA19EA1E52DA12F8E
:103D0000B12FBB0FBB0B1C3008F0A9C4A80FB91F03
:103D10000C9313951C3099F70FB6C257DF4F8EAD39
:103D20009FADCE58D0400FBE0FB6CE57DF4F9FAFDE
:103D30008EAFC258D0400FBE0FB6C457DF4F8EAD06
:103D40009FADCC58D0400FBE0FB6C058DF4F9FAFCD
:103D50008EAFC058D0400FBE0FB6C657DF4F8EADE6
:103D60009FADCA58D0400FBE0FB6C258DF4F9FAFAD
:103D70008EAFCE57D0400FBE0FB6C857DF4F8EADB7
:103D80009FADC858D0400FBE0FB6C458DF4F9FAF8D
:103D90008EAFCC57D0400FBE0FB6CA57DF4F8EAD97
:103DA0009FADC658D0400FBE0FB6C658DF4F9FAF6D
:103DB0008EAFCA57D0400FBE0FB6CC57DF4F8EAD77
:103DC0009FADC458D0400FBE0FB6C858DF4F9FAF4D
:103DD0008EAFC857D0400FBE0FB6C059DF4FEEAC04
:103DE000FFACC057D0400FBE0FB62F968EAD9FAD23
:103DF0002F970FBEE816F90609F430C0E114F1045C
:103E0000812D912DE9F0C701990F990B892F182F5A
:103E10000F2D7E2D612DC80128E730E040E050E0F5
:103E20000E94022E083711058FEF9FE038F432957B
:103E300022952F7023273F702327C90101E0E52D2C
:103E400090632A989EBD9DB59923EAF79EB58EBDD5
:103E50008DB58823EAF78EB52A9A2A9A0FB6CA58E2
:103E6000DF4F2EAC3FACC657D0400FBE0FB66196A9
:103E70008EAD9FAD61970FBE2816390609F42FC08D
:103E800021143104812D912DE9F0C101990F990B75
:103E9000892F182F032D722D612DC80128E730E0DE
:103EA00040E050E00E94022E083711058FEF9FE09E
:103EB00038F4329522952F7023273F702327C901AC
:103EC00001E0E52D906B2A989EBD9DB59923EAF7F8
:103ED0009EB58EBD8DB58823EAF78EB52A9A0093DC
:103EE00073030FB6C459DF4F8EADCC56D0400FBE12
:103EF000829580710FB6CE58DF4F3EADC257D0408D
:103F00000FBE3295307F330F3072382B0FB6CC583E
:103F1000DF4F8EADC457D0400FBE0FB6C259DF4F32
:103F20009EADCE56D0400FBE0FB6CD58DF4F2EAD52
:103F3000C357D0400FBE0FB6C359DF4F4EADCD565D
:103F4000D0400FBE5BB15F7C532B5BB9417034E056
:103F5000403009F4312D48B14B7F432B48B92170D3
:103F600030E120300FB669965EAD69970FBE0FB68F
:103F700068961EAD68970FBE09F4312D28B12F7ECB
:103F8000232B28B9917022E0903009F4212D98B1AB
:103F90009D7F922B98B9817098E0803009F4912D23
:103FA00088B1877F892B88B90FB6C858DF4F8EAD8F
:103FB000C857D0400FBE0FB624969EAD24970FBEB3
:103FC000891709F08BC00FB6C758DF4F8EADC957A0
:103FD000D0400FBE0FB623969EAD23970FBE891714
:103FE00009F07CC00FB6C658DF4F8EADCA57D0401F
:103FF0000FBE0FB622969EAD22970FBE891709F00D
:104000006DC00FB6C558DF4F8EADCB57D0400FBE39
:104010000FB621969EAD21970FBE891709F05EC09D
:104020000FB6C458DF4F8EADCC57D0400FBE9EADFB
:10403000891709F053C00FB6C358DF4F8EADCD5767
:10404000D0400FBE9DAD891709F048C00FB6C258C9
:10405000DF4F8EADCE57D0400FBE9CAD891709F013
:104060003DC00FB6C158DF4F8EADCF57D0400FBE09
:104070009BAD891709F032C00FB6C058DF4F8EAD27
:10408000C058D0400FBE9AAD891709F027C00FB6AF
:10409000CF57DF4F8EADC158D0400FBE99AD8917B5
:1040A000E9F40FB6CE57DF4F8EADC258D0400FBEE9
:1040B00098AD891799F40FB6CD57DF4F8EADC35821
:1040C000D0400FBE9FA989179101D7013601450144
:1040D000952F6E2F712F11F40C944808299880E0C9
:1040E00090E0BC01AC81BD81A115B10509F02BC0E8
:1040F00036C0AAA5BBA5A80FB91F0196BC0180E0D8
:1041000090E02C91E22FFF27DF01AD5EBD4F2C9197
:104110002EBDDF01A55EBD4F2C91E95EFD4F3081C4
:104120004DB54423EAF74EB53EBD3DB53323EAF71E
:104130003EB52EBDE52D2DB52223EAF72EB5DC01C7
:10414000A115B10561F00FB62B968EAD9FAD2B97E3
:104150000FBEA817B90719F0CD010196D2CFCB0138
:104160008630910509F0C5CF299A0FB6CD57DF4F9C
:104170008EADC358D0400FBE8FAB0FB6CE57DF4FBA
:104180008EADC258D0400FBE88AF0FB6CF57DF4FAD
:104190008EADC158D0400FBE89AF0FB6C058DF4FAB
:1041A0008EADC058D0400FBE8AAF0FB6C158DF4F9A
:1041B0008EADCF57D0400FBE8BAF0FB6C258DF4F7A
:1041C0008EADCE57D0400FBE8CAF0FB6C358DF4F69
:1041D0008EADCD57D0400FBE8DAF0FB6C458DF4F58
:1041E0008EADCC57D0400FBE8EAF0FB6C558DF4F47
:1041F0008EADCB57D0400FBE0FB621968EAF219714
:104200000FBE0FB6C658DF4F8EADCA57D0400FBE97
:104210000FB622968EAF22970FBE0FB6C758DF4F4C
:104220008EADC957D0400FBE0FB623968EAF2397E1
:104230000FBE0FB6C858DF4F8EADC857D0400FBE67
:104240000FB624968EAF24970FBE9101D701360189
:104250004501952F6E2F712F0C9448080FB66E965E
:104260008EAD6E970FBE813009F0BDC10FB6AB9613
:104270008EADAB970FBE0FB6A0969EADA0970FBEAA
:104280000FB6AB969EAFAB970FBE0FB6A9962EADED
:104290003FADA9970FBE0FB6AA968EAFAA970FBED5
:1042A0000FB6A7968EAD9FADA7970FBE0FB6A89677
:1042B0003FAF2EAFA8970FBE0FB6A5962EAD3FAD60
:1042C000A5970FBE0FB6A6969FAF8EAFA6970FBE4F
:1042D0000FB6A3968EAD9FADA3970FBE0FB6A49653
:1042E0003FAF2EAFA4970FBE0FB6A2962EADA297EA
:1042F0000FBE0FB6A2969FAF8EAFA2970FBE0FB69E
:10430000A1968EADA1970FBE0FB6A1962EAFA19725
:104310000FBE0FB6A0968EAFA0970FBE0FB6C55BAF
:10432000DF4F8EADCB54D0400FBE0FB6C05CDF4F19
:104330009EADC054D0400FBE0FB6C55BDF4F9EAFE1
:10434000CB54D0400FBE0FB6C65BDF4F9EADCA54F4
:10435000D0400FBE0FB6C65BDF4F8EAFCA54D04001
:104360000FBE0FB6C75BDF4F8EADC954D0400FBE36
:104370000FB6C75BDF4F9EAFC954D0400FBE0FB61C
:10438000C85BDF4F9EADC854D0400FBE0FB6C85BB0
:10439000DF4F8EAFC854D0400FBE0FB6C95BDF4FA2
:1043A0008EADC754D0400FBE0FB6C95BDF4F9EAF76
:1043B000C754D0400FBE0FB6CA5BDF4F9EADC65488
:1043C000D0400FBE0FB6CA5BDF4F8EAFC654D04091
:1043D0000FBE0FB6CB5BDF4F8EADC554D0400FBEC6
:1043E0000FB6CB5BDF4F9EAFC554D0400FBE0FB6AC
:1043F000CC5BDF4F9EADC454D0400FBE0FB6CC5B3C
:10440000DF4F8EAFC454D0400FBE0FB6CD5BDF4F31
:104410008EADC354D0400FBE0FB6CD5BDF4F9EAF05
:10442000C354D0400FBE0FB6CE5BDF4F9EADC2541B
:10443000D0400FBE0FB6CE5BDF4F8EAFC254D04020
:104440000FBE0FB6CF5BDF4F8EADC154D0400FBE55
:104450000FB6CF5BDF4F9EAFC154D0400FBE0FB63B
:10446000C05CDF4F8EAF87C083E088C00FB6CC59E9
:10447000DF4F0EAFC456D0400FBE83E094C084E03F
:1044800092E00FB6CE59DF4F9FAF8EAFC256D040ED
:104490000FBE0FB66E968EAD6E970FBE982F9027FB
:1044A0000FB66E969EAF6E970FBE803009F094C027
:1044B0000FB625968EAD9FAD25970FBE0FB62996E8
:1044C0006EAD7FAD29970FBE42E150E00E943E2EB7
:1044D0000FB66A96AEADBFAD6A970FBEE52D7CC034
:1044E0000FB66E968EAD6E970FBE813009F096C0F6
:1044F0000FB6A0963EADA0970FBE81E090E002C03F
:104500000196322F0FB62996AEADBFAD29970FBEDB
:10451000A80FB91F2C913C938B30910588F30B9712
:1045200081159105322F71F70FB6A0962EAFA09787
:104530000FBE0FB6C05CDF4F3EADC054D0400FBEC3
:1045400081E090E002C00196322F0FB62596AEAD05
:10455000BFAD25970FBEA80FB91F2C913C938B3090
:10456000910588F30B9781159105322F71F70FB6DE
:10457000C05CDF4F2EAFC0541DC082E00FB6CC59D7
:10458000DF4F8EAFC456D0400FBE83E090E00FB631
:10459000CE59DF4F9FAF0C94BE17FD018485802755
:1045A0008487E52D84E090E00FB6CE59DF4F9FAFB2
:1045B0008EAFC256D0400FBE0FB66A96AEADBFAD3D
:1045C0006A970C94C1170FB66E968EAD6E970FBE9C
:1045D000803011F00C94C2170FB6C05ADF4F1EAED8
:1045E000C0560C94C017FD0183859C91938721854B
:1045F0003285828787819085318720872581368122
:104600009783868383819481358324832281938356
:10461000828381812183E52D8C93CECF3C9181E0F3
:1046200090E002C00196322FFD01E80FF91F2081B2
:1046300030838B309105B0F30B9781159105322FA4
:1046400099F72C93E52DB8CF82E291E065E270E016
:104650000E94C9256DE070E0CF010E9452236CE0FA
:1046600070E0CD010E9452236CE070E00E94522362
:104670006CE070E0CB010E9452230E94C0038FBF08
:104680000E9443280F920FB60F928F93809172036E
:10469000803019F481E0809372038F910F900FBEE8
:1046A0000F901895CF93DF93CDB7DEB768970FB60D
:1046B000F894DEBF0FBECDBF7C836B839A83898362
:1046C00080E090E09E878D8782E090E098878F83DE
:1046D00020E131E03E832D839C878B87CE0141967C
:1046E0009A87898785E893E2988F8F8B9E012F5F49
:1046F0003F4F3E8B2D8B9C8B8B8BCE0103969A8BE1
:10470000898BCE0105960E948E252F923F924F9263
:104710005F926F927F928F929F92AF92BF92CF9251
:10472000DF92EF92FF920F931F93CF93DF93CDB75A
:10473000DEB760970FB6F894DEBF0FBECDBF7B012A
:10474000FC010081118187E20031180708F447C09D
:1047500060E177E2C8010E94EE2D87E26802802DB9
:10476000112490E1699F912D1124980F7295707F0B
:10477000790F872FC62E982F8827202D3327282B97
:10478000392B021B130B64E670E0C8010E94EE2D6A
:10479000CB01880F991F82579D4FFC018081918129
:1047A0009E878D8784E67802902D1124689F4C2D7A
:1047B000812D1124890F982F8827202D3327282B0E
:1047C000392B021B130B000F111F02571D4FF8014D
:1047D00080819181988B8F8781E090E03FC0043683
:1047E000110508F435C064E670E0C8010E94EE2DA2
:1047F00084E67802902D1124689F812D1124890F61
:10480000982F8827202D3327282B392B021B130B99
:10481000000F111F02571D4FF80180819181988B65
:104820008F8783E090E08B010A301105B0F002978A
:104830009E01245F3F4F280F391F000F111F0257A1
:104840001D4FF80140815181F901518340830DC012
:1048500085E090E00A30110550F7402F0197DE0106
:104860001C96A80FB91F40634C93F701238534852C
:10487000B9016170707040E050E001E061156B01BA
:1048800071054407550761E009F0612D61706030E2
:1048900029F42A016030BA0139F008C0E1E1F0E002
:1048A0002F016030BA0111F46BE270E01B01A5E04A
:1048B000B0E0B90164707070611571054407550767
:1048C00009F4012D01701070BE01645F7F4F680F05
:1048D000791FA81BB90BF7018481803009F435C01A
:1048E000CA0EDB1EF701858196813C014601C81680
:1048F000D90608F02AC02870307080E090E041E0CE
:10490000211531058807990709F0412D4170403084
:10491000B987A8877F836E83F70109F44CC092851D
:1049200081E0933009F0892F681879087B866A86C0
:1049300080301D830C8309F479C0813009F079C07F
:1049400080E090E00A851B857CC04B015D01F7018A
:10495000C188D288E784F088C701B6019101A2011D
:104960000E949225803011F001E009C0F6012681F5
:104970003781C701B401A501F9010995082F01701C
:104980001070C80160960FB6F894DEBF0FBECDBFA1
:10499000DF91CF911F910F91FF90EF90DF90CF901B
:1049A000BF90AF909F908F907F906F905F904F904F
:1049B0003F902F900895208131813B872A8720E303
:1049C00030E031832083228133813B832A839383A8
:1049D00082838285898381E08287C784D088A18889
:1049E000B288C601B5019101A2010E94922501E0A1
:1049F000803009F0C4CF6818790800E010E080E347
:104A000090E04C01D801C301A817B90708F06CC0A9
:104A1000F501208531851196C601A401B801F9017F
:104A20002D010995D201803071F39ECF00E010E096
:104A30000AC08A859B858C011695079501969695E7
:104A400087959B878A87F701E280F380C080D180B9
:104A5000A188B2888784908880E090E080179107D1
:104A600070F4F5012085318501963C01C401A60151
:104A7000B701F90109958030C30181F375CFC401F5
:104A8000B5019101A2010C811D810E949225803007
:104A900009F06ACFF50126813781C4016E817F81DB
:104AA00048855985F9010995803009F05DCFA0E06E
:104AB000B0E001E08A859B85A817B90708F0012DB1
:104AC0008A859B85A817B90708F059CFF50120857D
:104AD00031851196C401A601B701F9012D0109958F
:104AE000D201803031F34BCFF50126813781C601E9
:104AF0006E817F8148855985F9010995803009F0DB
:104B000033CFF7018A859B85918380838981828752
:104B10008A819B8193838283012D31CF80E091E054
:104B20000E947128AF92BF92CF92DF92EF92FF92D4
:104B3000DA017B0161E170E041E021153105A60752
:104B4000B70709F0412D4170403071F4F701A0849E
:104B5000B1846C01A901BD01F5010995282FC60199
:104B6000203011F081E00DC00115110549F0F70169
:104B70002681378140E050E0B801F901099501C074
:104B8000812D9927FF90EF90DF90CF90BF90AF904D
:104B90000895CF93DF93CDB7DEB760970FB6F89443
:104BA000DEBF0FBECDBF20E030E03A87298741E06D
:104BB00050E05C834B83FE013D96FA83E98338879E
:104BC0002F835E834D83788B6F879E878D87CE0181
:104BD00001960E948E252F923F924F925F926F9284
:104BE0007F928F929F92AF92BF92CF92DF92EF927D
:104BF000FF920F931F93CF93DF93CDB7DEB7269726
:104C00000FB6F894DEBF0FBECDBF5B01F501378153
:104C10006481FC0142815381E080F180603029F49D
:104C2000832F8170803009F4B9C13170303009F4BC
:104C300057C047013A01840E951EF501C084D18406
:104C4000C11480E090E0D10409F420C0DC01F70138
:104C50000AC0329611969F01201B310B820F931FC1
:104C6000AC15BD05A0F48F010815190509F42AC07B
:104C7000F8012191322F33236AF7F801203E48F3DF
:104C8000203F10F03496E6CF3396E4CFF701E815D5
:104C9000F905C1F03081232F2223A3010AF4303E0D
:104CA00081159105A1F08417950770F4D701A80F1D
:104CB000B91F2C91203C5CF420E030E02115310537
:104CC00051F40AC0A3010CC084179507A9F79701F6
:104CD0002115310509F079012115310509F0AC01E3
:104CE000603009F45BC1F50165807680483051057C
:104CF0007E826D82C8F4411580E090E0510509F490
:104D000033C1FC0108C03327820F931F3196E4178B
:104D1000F50709F429C1D701AE0FBF1F3C9121E06F
:104D2000303C8CF7212DEFCFCA0181709070811536
:104D30009105BC82AB8219F480E090E00AC0DA01F0
:104D4000AE7FAE0DBF1D9C9181E0903C0CF4812D97
:104D500099274A019A013695279560E070E01B017A
:104D6000670116C0B501261B370B8201C40CD51C88
:104D7000DB01A370B070FA01EF2FFF27E80FF91FD6
:104D800050704E0F5F1FA115B105CA0109F0ADC0EB
:104D90002115310509F4A6C02601203C3105690121
:104DA00018F040EC50E06A015601CC0CDD1C2430B8
:104DB0003105A10108F4D6CFB601687F7170D20128
:104DC0006A0F7B1FA1013D01F30100811181F801F0
:104DD000F295E295EF70EF27FF70EF27F695E795D4
:104DE000F695E79500951095129502950F7001279D
:104DF0001F70012716950795169507951695079527
:104E00000E2B1F2B01701170040F151FF30142812F
:104E10005381FA01F295E295EF70EF27FF70EF27CB
:104E2000F695E795F695E7954095509552954295FC
:104E30004F7045275F70452756954795569547957E
:104E4000569547954E2B5F2B41705170400F511F67
:104E5000F30104811581F801F295E295EF70EF27D7
:104E6000FF70EF27F695E795F695E7950095109575
:104E7000129502950F7001271F700127169507954F
:104E800016950795169507950E2B1F2B017011701F
:104E9000040F151FF30146815781FA01F295E2953F
:104EA000EF70EF27FF70EF27F695E795F695E795FA
:104EB00040955095529542954F7045275F70452714
:104EC0005695479556954795569547954E2B5F2B8A
:104ED00041705170400F511F1896A617B70709F07F
:104EE00072CF40CFAB80BC803EC06C7F7070660FCD
:104EF000771F060F171FAA0FBB1F9801A00FB11F26
:104F000080E090E0AB80BC80F90121913191B90142
:104F1000729562956F7067277F70672776956795A2
:104F20007695679520953095329522952F70232799
:104F30003F702327369527953695279536952795E3
:104F4000262B372B21703170820F931F9F01EA1798
:104F5000FB0709F0D9CF9C01232F3327240F351FDE
:104F60009070820F931FA401AD81BE818A179B07A9
:104F7000A8F4F50132853330212D09F0232FA81B29
:104F8000B90B20305A83498309F430C0213009F02D
:104F900031C080E090E08D011C0133C0F5018785B0
:104FA000908921893289F90126813781B701F90178
:104FB0000995082F01701070C80126960FB6F89455
:104FC000DEBF0FBECDBFDF91CF911F910F91FF903C
:104FD000EF90DF90CF90BF90AF909F908F907F9099
:104FE0006F905F904F903F902F9008951D0100E0CB
:104FF00010E007C08D01169507951196B695A795F7
:105000001D01F501C280D380A080B18061887288C3
:105010008784908880E090E0F3018017910768F41E
:105020002085318501962C01C401A501B601F90145
:1050300009958030C20181F30AC026813781C401FD
:10504000B70149815A81F9010995803011F001E0D9
:10505000B1CFA0E0B0E001E0C101A817B90708F0A6
:10506000012DA817B90708F0A5CFF30120853185D8
:105070001196C401A501B601F9017D010995D70179
:10508000803049F397CF83E292E06BE270E00E94B8
:10509000C925CF93DF93CDB7DEB760970FB6F894ED
:1050A000DEBF0FBECDBF80E090E09A87898781E0A8
:1050B00090E09C838B832FE132E03A8329839887A9
:1050C0008F83CE010D969E838D838BEE95E2988B18
:1050D0008F878CE091E09E878D87CE0101960E949C
:1050E0008E252F923F924F925F926F927F928F9276
:1050F0009F92AF92BF92CF92DF92EF92FF920F9367
:105100001F93CF93DF93CDB7DEB72A970FB6F894EE
:10511000DEBF0FBECDBFF89421E0209373031CBC0B
:105120005998519A22E230E03093C5002093C40090
:1051300022E02093C00028E12093C10026E02093C4
:10514000C2002091C00020722030D9F32091C0000D
:1051500020722030D9F32DE02093C6002091C000AA
:1051600020722030D9F32AE02093C6002091C0009D
:1051700020722030D9F32DE02093C6002091C0008A
:1051800020722030D9F32AE02093C600FC01E6808B
:10519000F780C480D58082819381A081B1812091E4
:1051A000C00020722030D9F320E52093C600209162
:1051B000C00020722030D9F321E62093C600209150
:1051C000C00020722030D9F32EE62093C600209133
:1051D000C00020722030D9F329E62093C600209128
:1051E000C00020722030D9F323E62093C60020911E
:1051F000C00020722030D9F320E22093C600209115
:10520000C00020722030D9F32FE62093C6002091F1
:10521000C00020722030D9F323E62093C6002091ED
:10522000C00020722030D9F323E62093C6002091DD
:10523000C00020722030D9F325E72093C6002091CA
:10524000C00020722030D9F322E72093C6002091BD
:10525000C00020722030D9F322E72093C6002091AD
:10526000C00020722030D9F325E62093C60020919B
:10527000C00020722030D9F324E62093C60020918C
:10528000C00020722030D9F320E22093C600209184
:10529000C00020722030D9F329E62093C600209167
:1052A000C00020722030D9F32EE62093C600209152
:1052B000C00020722030D9F320E22093C600209154
:1052C000C00020722030D9F326E62093C60020913A
:1052D000C00020722030D9F329E62093C600209127
:1052E000C00020722030D9F32CE62093C600209114
:1052F000C00020722030D9F325E62093C60020910B
:10530000C00020722030D9F320E22093C600209103
:10531000C00020722030D9F327E22093C600811507
:10532000910571F08A0F9B1F2C913091C000307253
:105330003030D9F32093C6001196A817B907A1F70A
:105340008091C00080728030D9F387E28093C600DC
:105350008091C00080728030D9F380E28093C600D3
:105360008091C00080728030D9F381E68093C600BE
:105370008091C00080728030D9F384E78093C600AA
:105380008091C00080728030D9F380E28093C600A3
:105390008091C00080728030D9F38CE68093C60083
:1053A0008091C00080728030D9F389E68093C60076
:1053B0008091C00080728030D9F38EE68093C60061
:1053C0008091C00080728030D9F385E68093C6005A
:1053D0008091C00080728030D9F380E28093C60053
:1053E0002AE030E000E010E0B601C701A8010E9409
:1053F000022E60636A87960181E02A303105E0065B
:10540000F10608F0812D8170803019F0E9E0F0E0BC
:1054100034C089E090E04C01CE0101961C0106C029
:10542000817080309601750109F023C02901B20115
:10543000C7012AE030E03901A8010E94022E69016B
:105440005A01B601C5019301A8010E94022E6063B2
:10545000C4010197D1014C01A80FB91F6C9381E0E1
:10546000920124363105E006F10608F4D9CF812DEA
:10547000D7CFF401EA30F10589F0CE010196DC01C5
:10548000AE0FBF1F2C913091C00030723030D9F375
:105490002093C6003196EA30F10589F78091C0006B
:1054A00080728030D9F38AE08093C6002D98259AC7
:1054B00087EF9FE32BE73AE14BE754E04FC0FA0157
:1054C0003197F1F72D98FC013197F1F7FC013197F5
:1054D000F1F7FC013197F1F7FC013197F1F7FC018D
:1054E0003197F1F7FC013197F1F7FC013197F1F7B2
:1054F000FC013197F1F7FC013197F1F7FC0131978D
:10550000F1F7FC013197F1F7FC013197F1F7FC015C
:105510003197F1F7FC013197F1F7FC013197F1F781
:10552000FC013197F1F7FC013197F1F7FC0131975C
:10553000F1F7FC013197F1F7FC013197F1F7FC012C
:105540003197F1F7FC013197F1F7FC013197F1F751
:10555000FC013197F1F7F9013197F1F72D9AFC0130
:105560003197F1F7FC013197F1F7FC013197F1F731
:10557000FC013197F1F7FC013197F1F7FC0131970C
:10558000F1F7FC013197F1F7FC013197F1F7FC01DC
:105590003197F1F7FC013197F1F7FC013197F1F701
:1055A000FC013197F1F7FC013197F1F7FC013197DC
:1055B000F1F7FC013197F1F7FC013197F1F7FC01AC
:1055C0003197F1F7FC013197F1F7FC013197F1F7D1
:1055D000FC013197F1F7FC013197F1F7FC013197AC
:1055E000F1F7FC013197F1F7FC013197F1F7F9017F
:1055F0003197F1F72D98FC013197F1F7FC013197C4
:10560000F1F7FC013197F1F7FC013197F1F7FC015B
:105610003197F1F7FC013197F1F7FC013197F1F780
:10562000FC013197F1F7FC013197F1F7FC0131975B
:10563000F1F7FC013197F1F7FC013197F1F7FC012B
:105640003197F1F7FC013197F1F7FC013197F1F750
:10565000FC013197F1F7FC013197F1F7FC0131972B
:10566000F1F7FC013197F1F7FC013197F1F7FC01FB
:105670003197F1F7FC013197F1F7FC013197F1F720
:10568000FC013197F1F7F9013197F1F72D9AFC01FF
:105690003197F1F7FC013197F1F7FC013197F1F700
:1056A000FC013197F1F7FC013197F1F7FC013197DB
:1056B000F1F7FC013197F1F7FC013197F1F7FC01AB
:1056C0003197F1F7FC013197F1F7FC013197F1F7D0
:1056D000FC013197F1F7FC013197F1F7FC013197AB
:1056E000F1F7FC013197F1F7FC013197F1F7FC017B
:1056F0003197F1F7FC013197F1F7FC013197F1F7A0
:10570000FC013197F1F7FC013197F1F7FC0131977A
:10571000F1F7FC013197F1F7FC013197F1F7F9014D
:105720003197F1F72D98FC013197F1F7FC01319792
:10573000F1F7FC013197F1F7FC013197F1F7FC012A
:105740003197F1F7FC013197F1F7FC013197F1F74F
:10575000FC013197F1F7FC013197F1F7FC0131972A
:10576000F1F7FC013197F1F7FC013197F1F7FC01FA
:105770003197F1F7FC013197F1F7FC013197F1F71F
:10578000FC013197F1F7FC013197F1F7FC013197FA
:10579000F1F7FC013197F1F7FC013197F1F7FC01CA
:1057A0003197F1F7FC013197F1F7FC013197F1F7EF
:1057B000FC013197F1F7F9013197F1F72D9AFC01CE
:1057C0003197F1F7FC013197F1F7FC013197F1F7CF
:1057D000FC013197F1F7FC013197F1F7FC013197AA
:1057E000F1F7FC013197F1F7FC013197F1F7FC017A
:1057F0003197F1F7FC013197F1F7FC013197F1F79F
:10580000FC013197F1F7FC013197F1F7FC01319779
:10581000F1F7FC013197F1F7FC013197F1F7FC0149
:105820003197F1F7FC013197F1F7FC013197F1F76E
:10583000FC013197F1F7FC013197F1F7FC01319749
:10584000F1F7FC013197F1F7FC013197F1F7F9011C
:105850003197F1F72D98FC013197F1F7FC01319761
:10586000F1F7FC013197F1F7FC013197F1F7FC01F9
:105870003197F1F7FC013197F1F7FC013197F1F71E
:10588000FC013197F1F7FC013197F1F7FC013197F9
:10589000F1F7FC013197F1F7FC013197F1F7FC01C9
:1058A0003197F1F7FC013197F1F7FC013197F1F7EE
:1058B000FC013197F1F7FC013197F1F7FC013197C9
:1058C000F1F7FC013197F1F7FC013197F1F7FC0199
:1058D0003197F1F7FC013197F1F7FC013197F1F7BE
:1058E000FC013197F1F7F9013197F1F72D9AB801E1
:1058F000F80107C0A1706F5F7F4FEF4FFF4FA030DF
:1059000059F0DC011197F1F7A1E069377105E00763
:10591000F10780F3A12DEECFFA013197F1F72D9821
:10592000FC013197F1F7FC013197F1F7FC01319758
:10593000F1F7FC013197F1F7FC013197F1F7FC0128
:105940003197F1F7FC013197F1F7FC013197F1F74D
:10595000FC013197F1F7FC013197F1F7FC01319728
:10596000F1F7FC013197F1F7FC013197F1F7FC01F8
:105970003197F1F7FC013197F1F7FC013197F1F71D
:10598000FC013197F1F7FC013197F1F7FC013197F8
:10599000F1F7FC013197F1F7FC013197F1F7FC01C8
:1059A0003197F1F7FC013197F1F7FC013197F1F7ED
:1059B000F9013197F1F72D9AB801F80107C0A170EC
:1059C0006F5F7F4FEF4FFF4FA03059F0DC01119711
:1059D000F1F7A1E069377105E007F10780F3A12D28
:1059E000EECFFA013197F1F72D98FC013197F1F7DD
:1059F000FC013197F1F7FC013197F1F7FC01319788
:105A0000F1F7FC013197F1F7FC013197F1F7FC0157
:105A10003197F1F7FC013197F1F7FC013197F1F77C
:105A2000FC013197F1F7FC013197F1F7FC01319757
:105A3000F1F7FC013197F1F7FC013197F1F7FC0127
:105A40003197F1F7FC013197F1F7FC013197F1F74C
:105A5000FC013197F1F7FC013197F1F7FC01319727
:105A6000F1F7FC013197F1F7FC013197F1F7FC01F7
:105A70003197F1F7FC013197F1F7F9013197F1F71F
:105A80002D9AB801F80109C0A1706F5F7F4FEF4FE9
:105A9000FF4FA03011F40C945F2ADC011197F1F74D
:105AA000A1E069377105E007F10770F3A12DECCF94
:105AB0002F923F924F925F926F927F928F929F921E
:105AC000AF92BF92CF92DF92EF92FF920F931F930C
:105AD000CF93DF93CDB7DEB726970FB6F894DEBF2E
