:100000000C9442000C945F000C945F000C945F0011
:100010000C945F000C947D050C945F000C945F00C1
:100020000C945F000C945F000C945F000C945F00D4
:100030000C945F000C9444050C945A050C945F00DA
:100040000C945F000C945F000C945F000C945F00B4
:100050000C945F000C940A060C945F000C945F00F3
:100060000C945F000C945F0000010400020100008A
:10007000020103000200031005000400050604004D
:100080000506002011241FBECFEFD8E0DEBFCDBF94
:1000900012E0A0E0B1E0E0EDF8E302C005900D92BF
:1000A000A43DB107D9F722E0A4EDB2E001C01D9252
:1000B000AA3EB207E1F70E9446060C94661C0C9417
:1000C00000002F923F924F925F926F927F928F9299
:1000D0009F92AF92BF92CF92DF92EF92FF920F93D7
:1000E0001F93CF93DF93CDB7DEB72A970FB6F8945F
:1000F000DEBF0FBECDBF21E02093E9025998519A8F
:1001000022E230E03093C5002093C40022E0209327
:10011000C00028E12093C10026E02093C200209176
:10012000C00020722030D9F32091C000207220300E
:10013000D9F32AE02093C6002091C000207220301D
:10014000D9F32AE02093C600FC0186819781FC0147
:10015000E680F780C480D58082819381A081B181BF
:100160002091C00020722030D9F320E52093C600F2
:100170002091C00020722030D9F321E62093C600E0
:100180002091C00020722030D9F32EE62093C600C3
:100190002091C00020722030D9F329E62093C600B8
:1001A0002091C00020722030D9F323E62093C600AE
:1001B0002091C00020722030D9F320E22093C600A5
:1001C0002091C00020722030D9F32FE62093C60082
:1001D0002091C00020722030D9F323E62093C6007E
:1001E0002091C00020722030D9F323E62093C6006E
:1001F0002091C00020722030D9F325E72093C6005B
:100200002091C00020722030D9F322E72093C6004D
:100210002091C00020722030D9F322E72093C6003D
:100220002091C00020722030D9F325E62093C6002B
:100230002091C00020722030D9F324E62093C6001C
:100240002091C00020722030D9F320E22093C60014
:100250002091C00020722030D9F329E62093C600F7
:100260002091C00020722030D9F32EE62093C600E2
:100270002091C00020722030D9F320E22093C600E4
:100280002091C00020722030D9F326E62093C600CA
:100290002091C00020722030D9F329E62093C600B7
:1002A0002091C00020722030D9F32CE62093C600A4
:1002B0002091C00020722030D9F325E62093C6009B
:1002C0002091C00020722030D9F320E22093C60094
:1002D0002091C00020722030D9F327E22093C6007D
:1002E0008115910571F08A0F9B1F2C913091C000F0
:1002F00030723030D9F32093C6001196A817B90791
:10030000A1F78091C00080728030D9F387E280939A
:10031000C6008091C00080728030D9F380E2809363
:10032000C6008091C00080728030D9F381E680934E
:10033000C6008091C00080728030D9F384E780933A
:10034000C6008091C00080728030D9F380E2809333
:10035000C6008091C00080728030D9F38CE6809313
:10036000C6008091C00080728030D9F389E6809306
:10037000C6008091C00080728030D9F38EE68093F1
:10038000C6008091C00080728030D9F385E68093EA
:10039000C6008091C00080728030D9F380E28093E3
:1003A000C60081E091E098878F839E838D839C8334
:1003B0008B839A8389832AE030E000E010E0B60165
:1003C000C701A8010E94441C60636A87960181E00E
:1003D00089872A303105E006F10608F0812D817009
:1003E000803011F40C94130589E090E04C01CE01AB
:1003F0000196F401DC01AE0FBF1F2C913091C000BB
:1004000030723030D9F32093C6003196EA30F105CE
:1004100089F78091C00080728030D9F38AE08093A0
:10042000C6002D98259A87EF9FE32BE73AE14BE72B
:1004300054E04FC0FA013197F1F72D98FC01319744
:10044000F1F7FC013197F1F7FC013197F1F7FC016D
:100450003197F1F7FC013197F1F7FC013197F1F792
:10046000FC013197F1F7FC013197F1F7FC0131976D
:10047000F1F7FC013197F1F7FC013197F1F7FC013D
:100480003197F1F7FC013197F1F7FC013197F1F762
:10049000FC013197F1F7FC013197F1F7FC0131973D
:1004A000F1F7FC013197F1F7FC013197F1F7FC010D
:1004B0003197F1F7FC013197F1F7FC013197F1F732
:1004C000FC013197F1F7FC013197F1F7F901319710
:1004D000F1F72D9AFC013197F1F7FC013197F1F713
:1004E000FC013197F1F7FC013197F1F7FC013197ED
:1004F000F1F7FC013197F1F7FC013197F1F7FC01BD
:100500003197F1F7FC013197F1F7FC013197F1F7E1
:10051000FC013197F1F7FC013197F1F7FC013197BC
:10052000F1F7FC013197F1F7FC013197F1F7FC018C
:100530003197F1F7FC013197F1F7FC013197F1F7B1
:10054000FC013197F1F7FC013197F1F7FC0131978C
:10055000F1F7FC013197F1F7FC013197F1F7FC015C
:100560003197F1F7F9013197F1F72D98FC013197A7
:10057000F1F7FC013197F1F7FC013197F1F7FC013C
:100580003197F1F7FC013197F1F7FC013197F1F761
:10059000FC013197F1F7FC013197F1F7FC0131973C
:1005A000F1F7FC013197F1F7FC013197F1F7FC010C
:1005B0003197F1F7FC013197F1F7FC013197F1F731
:1005C000FC013197F1F7FC013197F1F7FC0131970C
:1005D000F1F7FC013197F1F7FC013197F1F7FC01DC
:1005E0003197F1F7FC013197F1F7FC013197F1F701
:1005F000FC013197F1F7FC013197F1F7F9013197DF
:10060000F1F72D9AFC013197F1F7FC013197F1F7E1
:10061000FC013197F1F7FC013197F1F7FC013197BB
:10062000F1F7FC013197F1F7FC013197F1F7FC018B
:100630003197F1F7FC013197F1F7FC013197F1F7B0
:10064000FC013197F1F7FC013197F1F7FC0131978B
:10065000F1F7FC013197F1F7FC013197F1F7FC015B
:100660003197F1F7FC013197F1F7FC013197F1F780
:10067000FC013197F1F7FC013197F1F7FC0131975B
:10068000F1F7FC013197F1F7FC013197F1F7FC012B
:100690003197F1F7F9013197F1F72D98FC01319776
:1006A000F1F7FC013197F1F7FC013197F1F7FC010B
:1006B0003197F1F7FC013197F1F7FC013197F1F730
:1006C000FC013197F1F7FC013197F1F7FC0131970B
:1006D000F1F7FC013197F1F7FC013197F1F7FC01DB
:1006E0003197F1F7FC013197F1F7FC013197F1F700
:1006F000FC013197F1F7FC013197F1F7FC013197DB
:10070000F1F7FC013197F1F7FC013197F1F7FC01AA
:100710003197F1F7FC013197F1F7FC013197F1F7CF
:10072000FC013197F1F7FC013197F1F7F9013197AD
:10073000F1F72D9AFC013197F1F7FC013197F1F7B0
:10074000FC013197F1F7FC013197F1F7FC0131978A
:10075000F1F7FC013197F1F7FC013197F1F7FC015A
:100760003197F1F7FC013197F1F7FC013197F1F77F
:10077000FC013197F1F7FC013197F1F7FC0131975A
:10078000F1F7FC013197F1F7FC013197F1F7FC012A
:100790003197F1F7FC013197F1F7FC013197F1F74F
:1007A000FC013197F1F7FC013197F1F7FC0131972A
:1007B000F1F7FC013197F1F7FC013197F1F7FC01FA
:1007C0003197F1F7F9013197F1F72D98FC01319745
:1007D000F1F7FC013197F1F7FC013197F1F7FC01DA
:1007E0003197F1F7FC013197F1F7FC013197F1F7FF
:1007F000FC013197F1F7FC013197F1F7FC013197DA
:10080000F1F7FC013197F1F7FC013197F1F7FC01A9
:100810003197F1F7FC013197F1F7FC013197F1F7CE
:10082000FC013197F1F7FC013197F1F7FC013197A9
:10083000F1F7FC013197F1F7FC013197F1F7FC0179
:100840003197F1F7FC013197F1F7FC013197F1F79E
:10085000FC013197F1F7FC013197F1F7F90131977C
:10086000F1F72D9AB801F80107C0A1706F5F7F4FB3
:10087000EF4FFF4FA03059F0DC011197F1F7A1E0E5
:1008800069377105E007F10780F3A12DEECFFA017A
:100890003197F1F72D98FC013197F1F7FC01319771
:1008A000F1F7FC013197F1F7FC013197F1F7FC0109
:1008B0003197F1F7FC013197F1F7FC013197F1F72E
:1008C000FC013197F1F7FC013197F1F7FC01319709
:1008D000F1F7FC013197F1F7FC013197F1F7FC01D9
:1008E0003197F1F7FC013197F1F7FC013197F1F7FE
:1008F000FC013197F1F7FC013197F1F7FC013197D9
:10090000F1F7FC013197F1F7FC013197F1F7FC01A8
:100910003197F1F7FC013197F1F7FC013197F1F7CD
:10092000FC013197F1F7F9013197F1F72D9AB801F0
:10093000F80107C0A1706F5F7F4FEF4FFF4FA030EE
:1009400059F0DC011197F1F7A1E069377105E00773
:10095000F10780F3A12DEECFFA013197F1F72D9831
:10096000FC013197F1F7FC013197F1F7FC01319768
:10097000F1F7FC013197F1F7FC013197F1F7FC0138
:100980003197F1F7FC013197F1F7FC013197F1F75D
:10099000FC013197F1F7FC013197F1F7FC01319738
:1009A000F1F7FC013197F1F7FC013197F1F7FC0108
:1009B0003197F1F7FC013197F1F7FC013197F1F72D
:1009C000FC013197F1F7FC013197F1F7FC01319708
:1009D000F1F7FC013197F1F7FC013197F1F7FC01D8
:1009E0003197F1F7FC013197F1F7FC013197F1F7FD
:1009F000F9013197F1F72D9AB801F80109C0A170FA
:100A00006F5F7F4FEF4FFF4FA03011F40C941A022D
:100A1000DC011197F1F7A1E069377105E007F107F3
:100A200070F3A12DECCF89E090E04C01CE0101964E
:100A30001C0107C0817080309601750111F00C9483
:100A4000F7012901B201C7012AE030E03901A8010C
:100A50000E94441C69015A01B601C5019301A80115
:100A60000E94441C6063C4010197D1014C01A80F8E
:100A7000B91F6C9381E0920124363105E006F1063E
:100A800008F4D8CF812DD6CF0F920FB60F921F92B8
:100A900011248F9381E08093E90280E280938000AB
:100AA00010926F001092D4028F911F900F900FBE82
:100AB0000F9018950F920FB60F922F933F938F932D
:100AC0009F938091E5029091E6022091E702309198
:100AD000E802805F9F4F2F4F3F4F9093E602809335
:100AE000E5023093E8022093E7029F918F913F91B6
:100AF0002F910F900FBE0F9018950F920FB60F9277
:100B00001F9211242F933F934F935F936F937F9383
:100B10008F939F93AF93BF93CF93DF93EF93FF9305
:100B2000CDB7DEB721970FB6F894DEBF0FBECDBFAD
:100B300081E08093E90289B1A5EDB2E00FB6F894A7
:100B40009C910FBE973008F055C082958370282F76
:100B50003327E92FFF27EE0FFF1FEE0FFF1FE22BBA
:100B6000F32BE859FF4F81E0DE01119691E02591CA
:100B70002D939150E1F79981292F2F70273008F09C
:100B800041C0A5EDB2E00FB6F8942C930FBE92953C
:100B90009F70923021E009F0212D913011F0220F49
:100BA000822FA82FBB27AF52BD4F8C91A6EDB2E08C
:100BB0000FB6F8949C910FBE980F0FB6F8949C93C3
:100BC0000FBE21960FB6F894DEBF0FBECDBFFF91CA
:100BD000EF91DF91CF91BF91AF919F918F917F91D5
:100BE0006F915F914F913F912F911F900F900FBE8A
:100BF0000F9018958BE492E06CE170E040E151E0D9
:100C00000E94FF1B89EA92E068E270E040E151E057
:100C10000E94FF1B0F920FB60F922F933F938F935B
:100C20009F93AF93BF93EF93FF9381E08093E9028B
:100C300080917800909179002091E4023327220F6F
:100C4000331F28523D4FF901918380838091E40244
:100C5000982F939593709093E4028E5F8370A82FE2
:100C6000BB27A052BD4F8C9190917C00907F982B18
:100C700090937C00FF91EF91BF91AF919F918F91E5
:100C80003F912F910F900FBE0F9018950E9448062C
:100C90002F923F924F925F926F927F928F929F928C
:100CA000AF92BF92CF92DF92EF92FF920F931F937A
:100CB000CF93DF93CDB7DEB7CA5BD0400FB6F894C1
:100CC000DEBF0FBECDBF8FB7F8949091E902903090
:100CD00009F088C191E09093E9028FBF8AB18F7CBF
:100CE0008AB98BB180638BB980916D0080638093EA
:100CF0006D008091680084608093680087E880932D
:100D00007A0080E480937C005998519A82E290E0C6
:100D10009093C5008093C40082E08093C00088E176
:100D20008093C10086E08093C20080917E00816044
:100D300080937E003898409880917E0084608093F4
:100D40007E003A98429880917E00886080937E0071
:100D50003B98439880917E00806180937E003C9810
:100D6000449880917E00806280937E003D984598F3
:100D700080917C00807F856080937C0080917A00E8
:100D8000806480937A0080917A0080748030D9F7F3
:100D9000E0917800F091790080917C00807F836001
:100DA00080937C0080917A00806480937A008091A7
:100DB0007A0080748030D9F72091780030917900E2
:100DC00080917C00807F826080937C0080917A009B
:100DD000806480937A0032952295307F3227207F7D
:100DE000322780917A0080748030D9F74091780062
:100DF0005091790080917C00807F876080937C0097
:100E000080917A00806480937A00207F3070809196
:100E10007A0080748030D9F78091780090917900C1
:100E200060917E006F7D60937E003D98459A609151
:100E30007E006B7F60937E0042983A9A60917E00BC
:100E4000677F60937E0043983B9A2D98259A2B9854
:100E5000239A24982C9A2A98229A60E56CBD61E026
:100E60006DBD789460917C00607F676060937C00CA
:100E700060917A00606460937A00982F9295907FD9
:100E80008827542F442740705F70482B592B6F01DF
:100E9000EF70F0705F0180917A0080748030D9F734
:100EA000E0917800F091790080917C00807F8460EF
:100EB00080937C0080917A00806480937A00809196
:100EC0007A0080748030D9F7809178009091790011
:100ED000A0917C00A07FA0937C00A0917A00A064E8
:100EE000A0937A00A0917A00A074A030D9F7A091C5
:100EF0007800B091790010917C00107F16601093FB
:100F00007C0010917A00106410937A0010917A009E
:100F100010741030D9F7009178001091790060E0DA
:100F200076E07093E3026093E20267E074E070930E
:100F3000E1026093E0021093DF020093DE02B093BF
:100F4000DD02A093DC029093DB028093DA02F0933F
:100F5000D902E093D8021092E402E1E0E093D702D4
:100F6000E093E90287E480937C0010927B008FEE8F
:100F700080937A0080917C00807F846080937C00E5
:100F80002998219A5B98539A2A9A299880E090E0B0
:100F9000DC014C017C01870107C0E170E030E12DEC
:100FA000DC01780109F427C08F5F9F4F0F4F1F4F5F
:100FB0006E2F6170603081F01EBCE1E0A03CB10595
:100FC000B401E606F70648F3E12DE7CF6E2F6095F2
:100FD0006F236170603081F36DB5F1E06623B2F785
:100FE000F12DF4CF8FBF8CE191E06BE270E040E136
:100FF00051E00E94FF1B2A293B29DA01A22BB32BC7
:10100000299A29988DB58823EAF71EBC8DB58823C7
:10101000EAF71EBC8DB58823EAF71EBC8DB5882380
:10102000EAF71EBC8DB58823EAF71EBC8DB5882370
:10103000EAF71EBC8DB58823EAF71EBC8DB5882360
:10104000EAF71EBC8DB58823EAF71EBC8DB5882350
:10105000EAF71EBC8DB58823EAF71EBC299A2998A9
:101060001092D40280E28093800080E1809381001E
:1010700081E090E0909389008093880082E090E086
:1010800090938B0080938A0080E090E29093870099
:101090008093860083E28093B00088E08093B10063
:1010A0001092B40083E08093B3008091B100887FF8
:1010B00081608093B1000000000080918100887FF2
:1010C0008160809381002A9892E094BD8AEF87BD69
:1010D00085E085BD90936E0016BC452F5527322FB5
:1010E0002227242B352B20953095C901969587957D
:1010F000AC01569547955695479548275927F901CC
:10110000EF2FE295EF70FF27E427F527E227F3277B
:10111000FE2FF295F07FEE27FF0FFF0FFF0FE82B5A
:10112000F92BCF010FB6A596FFAFEEAFA5970FBE77
:10113000969587959C01369527953695279528276E
:101140003927AF01452F42954F7055274227532726
:101150004E275F27542F5295507F4427550F550F28
:10116000550F482B592BCA01FA010FB6A396FFAFB2
:10117000EEAFA3970FBE969587959C013695279560
:101180003695279528273927452F42954F705527A3
:10119000422753274E275F27542F5295507F4427CD
:1011A000550F550F550F482B592BCA01FA010FB691
:1011B000A196FFAFEEAFA1970FBE969587959C01C4
:1011C000369527953695279528273927452F429517
:1011D0004F705527422753274E275F27542F52958C
:1011E000507F4427550F550F550F482B592BCA01D7
:1011F000FA010FB66F96FFAFEEAF6F970FBE9695E1
:1012000087959C0136952795369527952827392768
:10121000452F42954F705527422753274E275F276A
:10122000542F5295507F4427550F550F550F482B7B
:10123000592BCA01FA010FB66D96FFAFEEAF6D974D
:101240000FBE969587959C013695279536952795DF
:1012500028273927452F42954F7055274227532776
:101260004E275F27542F5295507F4427550F550F17
:10127000550F482B592BCA01FA010FB66B96FFAFD9
:10128000EEAF6B970FBE969587959C013695279587
:101290003695279528273927452F42954F70552792
:1012A000422753274E275F27542F5295507F4427BC
:1012B000550F550F550F482B592BCA01FA010FB680
:1012C0006996FFAFEEAF69970FBE969587959C0123
:1012D000369527953695279528273927452F429506
:1012E0004F705527422753274E275F27542F52957B
:1012F000507F4427550F550F550F482B592BCA01C6
:10130000FA010FB66596FFAFEEAF65970FBE9695E3
:1013100087959C0136952795369527952827392757
:10132000452F42954F705527422753274E275F2759
:10133000542F5295507F4427550F550F550F482B6A
:10134000592BCA01FA010FB66396FFAFEEAF639750
:101350000FBE969587959C013695279536952795CE
:1013600028273927452F42954F7055274227532765
:101370004E275F27542F5295507F4427550F550F06
:10138000550F482B592BCA01FA010FB66196FFAFD2
:10139000EEAF61970FBE969587959C013695279580
:1013A0003695279528273927452F42954F70552781
:1013B000422753274E275F27542F5295507F4427AB
:1013C000550F550F550F482B592BCA01FA010FB66F
:1013D0002F96FFAFEEAF2F970FBE969587959C0186
:1013E000369527953695279528273927452F4295F5
:1013F0004F705527422753274E275F27542F52956A
:10140000507F4427550F550F550F482B592BCA01B4
:10141000FA010FB62D96FFAFEEAF2D970FBE969542
:1014200087959C0136952795369527952827392746
:10143000452F42954F705527422753274E275F2748
:10144000542F5295507F4427550F550F550F482B59
:10145000592BCA01FA010FB62996FFAFEEAF2997B3
:101460000FBE969587959C013695279536952795BD
:1014700028273927452F42954F7055274227532754
:101480004E275F27542F5295507F4427550F550FF5
:10149000550F482B592BCA01FA010FB62796FFAFFB
:1014A000EEAF27970FBE969587959C0136952795A9
:1014B0003695279528273927452F42954F70552770
:1014C000422753274E275F27542F5295507F44279A
:1014D000550F550F550F482B592BCA01FA010FB65E
:1014E0002596FFAFEEAF25970FBE969587959C0189
:1014F000369527953695279528273927452F4295E4
:101500004F705527422753274E275F27542F529558
:10151000507F4427550F550F550F482B592BCA01A3
:10152000FA010FB62396FFAFEEAF23970FBE969545
:1015300087959C0136952795369527952827392735
:10154000452F42954F705527422753274E275F2737
:10155000542F5295507F4427550F550F550F482B48
:10156000592BCA01FA010FB62196FFAFEEAF2197B2
:101570000FBE969587959C013695279536952795AC
:1015800028273927452F42954F7055274227532743
:101590004E275F27542F5295507F4427550F550FE4
:1015A000550F482B592BCA01FA01FEAFEDAF9695A6
:1015B00087959C01369527953695279528273927B5
:1015C000452F42954F705527422753274E275F27B7
:1015D000542F5295507F4427550F550F550F482BC8
:1015E000592BCA01FA01FCAFEBAF969587959C0188
:1015F000369527953695279528273927452F4295E3
:101600004F705527422753274E275F27542F529557
:10161000507F4427550F550F550F482B592BCA01A2
:10162000FA01FAAFE9AF969587959C013695279513
:101630003695279528273927452F42954F705527EE
:10164000422753274E275F27542F5295507F442718
:10165000550F550F550F482B592BCA01FA01F8AFFA
:10166000EFAB969587959C013695279536952795EE
:1016700028273927452F42954F7055274227532752
:101680004E275F27542F5295507F4427550F550FF3
:10169000550F482B592BCA01FA01FEABEDAB9695BD
:1016A00087959C01369527953695279528273927C4
:1016B000452F42954F705527422753274E275F27C6
:1016C000542F5295507F4427550F550F550F482BD7
:1016D000592BCA01FA01FCABEBAB969587959C019F
:1016E000369527953695279528273927452F4295F2
:1016F0004F705527422753274E275F27542F529567
:10170000507F4427550F550F550F482B592BCA01B1
:10171000FA01FAABE9AB969587959C01369527952A
:101720003695279528273927452F42954F705527FD
:10173000422753274E275F27542F5295507F442727
:10174000550F550F550F482B592BCA0158AB4FA7B2
:10175000969587959C013695279536952795282748
:1017600039278A01012F02950F70112702271327AD
:1017700004271527102F1295107F0027110F110F26
:10178000110F082B192BCD01969587959C01369545
:101790002795A9015695479542275327B295A295BB
:1017A000AF70AB27BF70AB27B695A795A427B52719
:1017B000AC25BD25BA2FB295B07FAA27BB0FBB0FB2
:1017C000BB0FA82BB92BCD01969587959C0136951B
:1017D0002795A90156954795422753279D01329594
:1017E00022952F7023273F7023273695279524278E
:1017F00035272A273B27322F3295307F2227330F78
:10180000330F330F282B392BC901F901FEA7EDA7A0
:10181000969587959C0136952795A90156954795EC
:10182000422753279F01329522952F7023273F701F
:10183000232736952795242735272E273F27322F14
:101840003295307F2227330F330F330F282B392B5C
:10185000C901F901FCA7EBA7969587959C013695E0
:101860002795A90156954795422753279F01329501
:1018700022952F7023273F702327369527952427FD
:1018800035272E273F27322F3295307F2227330FDF
:10189000330F330F282B392BC901F901FAA7E9A718
:1018A000969587959C0136952795A901569547955C
:1018B000422753279F01329522952F7023273F708F
:1018C000232736952795242735272E273F27322F84
:1018D0003295307F2227330F330F330F282B392BCC
:1018E000C901F901F8A7EFA3969587959C01369554
:1018F0002795A90156954795422753279F01329571
:1019000022952F7023273F7023273695279524276C
:1019100035272E273F27322F3295307F2227330F4E
:10192000330F330F282B392BC901F901FEA3EDA387
:10193000969587959C0136952795A90156954795CB
:10194000422753279F01329522952F7023273F70FE
:10195000232736952795242735272E273F27322FF3
:101960003295307F2227330F330F330F282B392B3B
:10197000C901F901FCA3EBA3969587959C013695C7
:101980002795A90156954795422753279F013295E0
:1019900022952F7023273F702327369527952427DC
:1019A00035272E273F27322F3295307F2227330FBE
:1019B000330F330F282B392BC901F901FAA3E9A3FF
:1019C000969587959C0136952795A901569547953B
:1019D000422753279F01329522952F7023273F706E
:1019E000232736952795242735272E273F27322F63
:1019F0003295307F2227330F330F330F282B392BAB
:101A0000C901F901F8A3EF8F969587959C0136954A
:101A10002795A90156954795422753279F0132954F
:101A200022952F7023273F7023273695279524274B
:101A300035272E273F27322F3295307F2227330F2D
:101A4000330F330F282B392BC901F901FE8FED8F8E
:101A5000969587959C0136952795A90156954795AA
:101A6000422753279F01329522952F7023273F70DD
:101A7000232736952795242735272E273F27322FD2
:101A80003295307F2227330F330F330F282B392B1A
:101A9000C901F901FC8FEB8F969587959C013695CE
:101AA0002795A90156954795422753279F013295BF
:101AB00022952F7023273F702327369527952427BB
:101AC00035272E273F27322F3295307F2227330F9D
:101AD000330F330F282B392BC901F901FA8FE98F06
:101AE000969587959C0136952795A901569547951A
:101AF000422753279F01329522952F7023273F704D
:101B0000232736952795242735272E273F27322F41
:101B10003295307F2227330F330F330F282B392B89
:101B2000C901F901F88FEF8B969587959C01369541
:101B30002795A90156954795422753279F0132952E
:101B400022952F7023273F7023273695279524272A
:101B500035272E273F27322F3295307F2227330F0C
:101B6000330F330F282B392BC901F901FE8BED8B75
:101B7000969587959C0136952795A9015695479589
:101B8000422753279F01329522952F7023273F70BC
:101B9000232736952795242735272E273F27322FB1
:101BA0003295307F2227330F330F330F282B392BF9
:101BB000C901F901FC8BEB8B969587959C013695B5
:101BC0002795A90156954795422753279F0132959E
:101BD00022952F7023273F7023273695279524279A
:101BE00035272E273F27322F3295307F2227330F7C
:101BF000330F330F282B392BC901F901FA8BE98BED
:101C0000969587959C0136952795A90156954795F8
:101C1000422753279F01329522952F7023273F702B
:101C2000232736952795242735272E273F27322F20
:101C30003295307F2227330F330F330F282B392B68
:101C4000C901F901F88BEF87969587959C01369528
:101C50002795A90156954795422753279F0132950D
:101C600022952F7023273F70232736952795242709
:101C700035272E273F27322F3295307F2227330FEB
:101C8000330F330F282B392BC901F901FE87ED875C
:101C9000969587959C0136952795A9015695479568
:101CA000422753279F01329522952F7023273F709B
:101CB000232736952795242735272E273F27322F90
:101CC0003295307F2227330F330F330F282B392BD8
:101CD000C901F901FC87EB87969587959C0136959C
:101CE0002795A90156954795422753279F0132957D
:101CF00022952F7023273F70232736952795242779
:101D000035272E273F27322F3295307F2227330F5A
:101D1000330F330F282B392BC901F901FA87E987D3
:101D2000969587959C0136952795A90156954795D7
:101D3000422753279F01329522952F7023273F700A
:101D4000232736952795242735272E273F27322FFF
:101D50003295307F2227330F330F330F282B392B47
:101D6000C901F901F887EF83969587959C0136950F
:101D70002795A90156954795422753279F013295EC
:101D800022952F7023273F702327369527952427E8
:101D900035272E273F27322F3295307F2227330FCA
:101DA000330F330F282B392BC901B9017E836D8383
:101DB000969587959C0136952795A9015695479547
:101DC000422753279B01329522952F7023273F707E
:101DD0002327369527952427352726273727322F7F
:101DE0003295307F2227330F330F330F282B392BB7
:101DF000C901B9017C836B83969587959C013695C3
:101E00002795A90156954795422753279B0132955F
:101E100022952F7023273F70232736952795242757
:101E2000352726273727322F3295307F2227330F49
:101E3000330F330F282B392BC901B9017A836983FA
:101E4000969587959C0136952795A90156954795B6
:101E5000422753279B01329522952F7023273F70ED
:101E60002327369527952427352726273727322FEE
:101E70003295307F2227330F330F330F282B392B26
:101E8000C9015901969587959C0136952795A90119
:101E900056954795422753279501329522952F70E5
:101EA00023273F70232736952795242735272A2572
:101EB0003B25322F3295307F2227330F330F330FDC
:101EC000282B392BC8018227932779016FEF7FE0F8
:101ED0006D011B010E94301CFE01EB59FF4F0FB634
:101EE0006796FFAFEEAF67970FBE3E960FB62B9685
:101EF000FFAFEEAF2B970FBE93AB82AB3F01C80194
:101F0000969587959C013695279536952795282790
:101F10003927A801452F42954F705527422753274F
:101F200040275127542F5295507F4427550F550F66
:101F3000550F482B592B2A01C701969587959C016F
:101F400036952795A901569547954227532787012E
:101F5000129502950F7001271F700127169507959E
:101F6000042715270E251F25102F1295107F0027F7
:101F7000110F110F110F082B192BC2018027912768
:101F8000B1010E94301CF30195AB84ABC201969560
:101F900087959C01369527953695279528273927CB
:101FA000A201452F42954F705527422753274425BC
:101FB0005525542F5295507F4427550F550F550FD7
:101FC000482B592B2A01C801969587959C01369577
:101FD0002795A90156954795422753279801329591
:101FE00022952F7023273F70232736952795242786
:101FF000352720273127322F3295307F2227330F84
:10200000330F330F282B392BC201822793277901F5
:10201000B1010E94301CF30197AB86ABC2019695CB
:1020200087959C013695279536952795282739273A
:10203000A201452F42954F7055274227532744252B
:102040005525542F5295507F4427550F550F550F46
:10205000482B592B2A01C701969587959C013695E7
:102060002795A90156954795422753278701129531
:1020700002950F7001271F700127169507950427F9
:1020800015270E251F25102F1295107F0027110FE1
:10209000110F110F082B192BC20180279127B101B5
:1020A0000E94301CF30191AF80AFC20196958795D5
:1020B0009C01369527953695279528273927A20123
:1020C000452F42954F7055274227532744255525C4
:1020D000542F5295507F4427550F550F550F482BBD
:1020E000592B2A01C801969587959C01369527950D
:1020F000A901569547954227532798013295229575
:102100002F7023273F7023273695279524273527BF
:1021100020273127322F3295307F2227330F330F7C
:10212000330F282B392BC201822793277901B10164
:102130000E94301CF30193AF82AFC2019695879540
:102140009C01369527953695279528273927A20192
:10215000452F42954F705527422753274425552533
:10216000542F5295507F4427550F550F550F482B2C
:10217000592B2A01C701969587959C01369527957D
:10218000A901569547954227532787011295029535
:102190000F7001271F700127169507950427152733
:1021A0000E251F25102F1295107F0027110F110FDC
:1021B000110F082B192B7201E026F126C701B1017E
:1021C0000E94301CF30195AF84AFC20196958795AC
:1021D0009C01369527953695279528273927C201E2
:1021E000892F82958F70992782279327842595259B
:1021F00098013695279536952795A90156954795C7
:10220000422753279801329522952F7023273F703C
:102210002327369527952427352720273127282758
:102220003927322F3295307F2227330F330F330F68
:10223000F694E794E22AF32AC701B1010E94301C08
:10224000F30197AF86AF0FB6A3968EAD9FADA39760
:102250000FBE2DA53EA528273927C901B1010E942F
:10226000301C0FB6E7969FAF8EAFE7970FBE0FB645
:10227000A5968EAD9FADA5970FBEC826D926C601DF
:10228000B1010E94301C0FB6E5969FAF8EAFE59767
:102290000FBE0FB6A1968EAD9FADA1970FBE2BA519
:1022A0003CA528273927C901B1010E94301C0FB66F
:1022B000E9969FAF8EAFE9970FBE0FB66F968EADC2
:1022C0009FAD6F970FBE29A53AA528273927C901C9
:1022D000B1010E94301C0FB6EB969FAF8EAFEB970B
:1022E0000FBE0FB66D968EAD9FAD6D970FBE2FA131
:1022F00038A528273927C901B1010E94301C0FB623
:10230000ED969FAF8EAFED970FBE0FB66B968EAD6D
:102310009FAD6B970FBE2DA13EA128273927C9017C
:10232000B1010E94301C0FB6EF969FAF8EAFEF97B2
:102330000FBE0FB669968EAD9FAD69970FBE2BA1EC
:102340003CA128273927C901B1010E94301C0FB6D2
:10235000CF5BDF4F9FAF8EAFC154D0400FBE0FB6E3
:1023600065968EAD9FAD65970FBE29A13AA128272E
:102370003927C901B1010E94301C0FB6CD5BDF4F78
:102380009FAF8EAFC354D0400FBE0FB663968EADD5
:102390009FAD63970FBE2F8D38A128273927C9011C
:1023A000B1010E94301C0FB6CB5BDF4F9FAF8EAFE9
:1023B000C554D0400FBE0FB661968EAD9FAD6197EC
:1023C0000FBE2D8D3E8D28273927C901B1010E94EE
:1023D000301C0FB6C95BDF4F9FAF8EAFC754D040E4
:1023E0000FBE0FB62F968EAD9FAD2F970FBE2B8DC4
:1023F0003C8D28273927C901B1010E94301C0FB636
:10240000C75BDF4F9FAF8EAFC954D0400FBE0FB632
:102410002D968EAD9FAD2D970FBE298D3A8D282715
:102420003927C901B1010E94301C0FB6C55BDF4FCF
:102430009FAF8EAFCB54D0400FBE0FB629968EAD56
:102440009FAD29970FBE2F89388D28273927C901BD
:10245000B1010E94301C0FB6C35BDF4F9FAF8EAF40
:10246000CD54D0400FBE0FB627968EAD9FAD2797A7
:102470000FBE2D893E8928273927C901B1010E9445
:10248000301C0FB6C15BDF4F9FAF8EAFCF54D04033
:102490000FBE0FB625968EAD9FAD25970FBE2B892B
:1024A0003C8928273927C901B1010E94301C0FB689
:1024B000CF5ADF4F9FAF8EAFC155D0400FBE0FB682
:1024C00023968EAD9FAD23970FBE29893A89282781
:1024D0003927C901B1010E94301C0FB6CD5ADF4F18
:1024E0009FAF8EAFC355D0400FBE0FB621968EADB5
:1024F0009FAD21970FBE2F85388928273927C9011D
:10250000B1010E94301C0FB6CB5ADF4F9FAF8EAF88
:10251000C555D0400FBE8DAD9EAD2D853E8528277B
:102520003927C901B1010E94301C0FB6C95ADF4FCB
:102530009FAF8EAFC755D0400FBE8BAD9CAD2B85E6
:102540003C8528273927C901B1010E94301C0FB6EC
:10255000C75ADF4F9FAF8EAFC955D0400FBE89AD70
:102560009AAD29853A8528273927C901B1010E94EA
:10257000301C0FB6C55ADF4F9FAF8EAFCB55D04042
:102580000FBE8FA998AD2F81388528273927C9011B
:10259000B1010E94301C0FB6C35ADF4F9FAF8EAF00
:1025A000CD55D0400FBE8DA99EA92D813E812827F3
:1025B0003927C901B1010E94301C0FB6C15ADF4F43
:1025C0009FAF8EAFCF55D0400FBE8BA99CA92B815A
:1025D0003C8128273927C901B1010E94301C0FB660
:1025E000CF59DF4F9FAF8EAFC156D0400FBE89A9E4
:1025F0009AA929813A8128273927C901B1010E9466
:10260000301C0FB6CD59DF4F9FAF8EAFC356D040B1
:102610000FBE8FA598A9A826B926C501B1010E94B1
:10262000301C0FB667962EAD3FAD67970FBE0FB645
:10263000CB59DF4F9FAF8EAFC556D0400FBE88E05D
:1026400090E00FB6CB58DF4F9FAF8EAFC557D0404D
:102650000FBEC4010FB6A7969FAF8EAFA7970FBE50
:1026600042E00FB6AD964EAFAD970FBE0FB6C9584C
:10267000DF4F1EAEC757D0400FBE5F98579A5E9887
:10268000569A39984198AE014A545F4F0FB62F962B
:102690005FAF4EAF2F970FBEFA0134960FB62D964F
:1026A000FFAFEEAF2D970FBEA901405B5F4F0FB696
:1026B000A1965FAF4EAFA1970FBEA901415B5F4FDF
:1026C0000FB669965FAF4EAF69970FBE225B3F4F63
:1026D0000FB6A3963FAF2EAFA3970FBE0AE010E050
:1026E0000FB66F969FAF8EAF6F970FBE0FB66D96FA
:1026F0009FAF8EAF6D970FBE04C08170803009F020
:10270000EAC48FB7F8942090E7023090E802609016
:10271000E5027090E6028FBFA6EDB2E00FB6F89426
:102720008C910FBE803009F4CCC08FB7F89426EDA1
:1027300032E0D9010FB6F8949C910FBE0FB6F89411
:102740001C920FBE8FBF903009F4BBC086B10FB68C
:10275000A396AEADBFADA3970FBE3C910FB6A796A3
:102760002EADA7970FBE203009F0319580728030D2
:1027700069F4232F225013160CF0232F290F822FD8
:102780008E5F2F3F0CF064C0822F62C0532F539591
:1027900021E0523081E008F464C3832F191641E030
:1027A0000CF063C3523008F0212D582F550F550BF4
:1027B000382F3527351B532F5695652F6575732F89
:1027C000761B672F6373769576957373760F672FF5
:1027D0006295670F6F702423921B613009F056C415
:1027E00027E0492F303009F463C4352B932F969599
:1027F0009695932B392F32953F70392B3095932F27
:1028000096959575391B932F93733695369533733B
:10281000390F932F9295930F9F70291B88230AF4E9
:102820002195240F822F880F880B322F3827381BD1
:102830003F7181E090E0303041F0A401880F991F92
:10284000441F551F3A953030C9F722230AF4819569
:10285000982F990F990B682F6927691B603208F030
:1028600060E20FB6A396AEADBFADA3970FBE6C935B
:10287000881F8827881F0FB6A7968EAFA7970FBE11
:10288000603009F4FDC40FB66996AEADBFAD69976F
:102890000FBE8C917D010E94241CD7019C930FB622
:1028A000AB963FAE2EAEAB970FBE0FB6A9967FAEDE
:1028B0006EAEA9970FBE81E00FB6A8968EAFA8970F
:1028C0000FBE8091D8029091D9029C013F7391E094
:1028D0008115310581E009F0812D26B1227020306B
:1028E00009F0912D0FB6AD965EADAD970FBE52308B
:1028F000412D212D312D09F462C00FB6A8962EADC1
:10290000A8970FBE203009F41FC00FB6A9966EAD70
:102910007FADA9970FBE0FB6AB96EEADFFADAB97EF
:102920000FBE6854744FEF4FFF4F21E066157705D7
:10293000E205F30508F0212D2170203029F00FB6B3
:10294000A8961EAEA8970FBE0FB6E1962EAD3FAD6E
:10295000E1970FBE0FB6E396AEADBFADE3970FBEE6
:10296000B301621B730BF101EA0BFB0B503081F4D6
:1029700021E06B307105A401E407F50708F4212D6F
:102980002170203029F052E00FB6AE965EAF03C042
:102990000FB6AE965EADAE970FBE21E06C337105FB
:1029A000B401E607F70741E008F4CEC0412D5130ED
:1029B00031E009F0CDC0503009F0212D4170892B54
:1029C00081708030812D09F484E098B19B7F982B31
:1029D00098B9440F440F440F88B1877F842B88B97E
:1029E000203009F4BAC0303009F4BBC0203009F0FF
:1029F0005F9A303009F05E9A6091DC027091DD02DE
:102A0000660F771F605074402091DA023091DB022C
:102A1000C901860F971F61E08217930708F0612DA7
:102A2000880F991F880F991F2091C00020722030B5
:102A3000D9F322E62093C6002091C00020722030F6
:102A4000D9F329E62093C600262F2170203020EFED
:102A50003FEF09F494014091C00040724030D9F337
:102A600041E64093C600807F4091C00040724030F4
:102A7000D9F343E74093C6004091C0004072403014
:102A8000D9F34AE34093C6004091C0004072403001
:102A9000D9F340E24093C60041E051E00FB6C6587A
:102AA000DF4F5FAF4EAFCA57D0400FBE0FB6C8580A
:102AB000DF4F5FAF4EAFC857D0400FBE41E0772326
:102AC0000AF4412D46274170403009F4C9010FB680
:102AD000A5969FAF8EAFA5970FBEB8010E94301C80
:102AE0000FB6A5960EAD1FADA5970FBE80630FB6AE
:102AF000C458DF4F8EAFCC57D0400FBE011584E0D5
:102B000090E0FC01110509F431C00FB62F96CEAC50
:102B1000DFAC2F970FBE8AE090E05C01C801B501E1
:102B20002F010E94301C7B01C701B5010E94301C9F
:102B3000F2013197D601AE0FBF1F80638C9304362C
:102B40001105870158F71BC0513031E009F433CF2C
:102B5000312D503009F031CF31CF5F98303009F04E
:102B600045CF5E98203009F043CF43CF0FB62D9666
:102B7000AEADBFAD2D970FBE8AE090E05C01CD01F8
:102B80008E1B9F0B059685012C913091C0003072F1
:102B90003030D9F32093C6001196A817B907A1F7D2
:102BA0008091C00080728030D9F38AE08093C600A3
:102BB0000FB6A8968EADA8970FBE8030F1F00FB675
:102BC000A396AEADBFADA3970FBE8C910FB6A796DF
:102BD0009EADA7970FBE9030982F11F0982F91952A
:102BE000282F220F220B8227821B8F73482F4064CD
:102BF00099230AF442C1482F40C10FB6A396AEAD47
:102C0000BFADA3970FBE1C91103009F439C30FB6A6
:102C10006996AEADBFAD69970FBE5C90852D612FF3
:102C20000E94241CE92EE10E83E0612F0E94241CE7
:102C3000F92EEF188E2D612F0E94241CC92EDD2441
:102C4000903208F026C3CC0CDD1CE12E0FB667963F
:102C50000EAD1FAD67970FBEC00ED11EF601A68444
:102C6000B784852D83956E2D0E94241C892F8E0D8F
:102C70008F196E2D0E94241CC92EDD24903208F07D
:102C800008C3CC0CDD1CC00ED11EF60186859785CD
:102C90000FB665969FAF8EAF65970FBE852D8E5F81
:102CA0006E2D0E94241C892F8E0D8F196E2D0E946F
:102CB000241CC92EDD24903208F0EBC20FB66396B7
:102CC0003FAE2EAE63970FBE0FB661967FAE6EAE6F
:102CD00061970FBECC0CDD1CC00ED11EF601268400
:102CE0003784852D8D5F6E2D0E94241C892F8E0DBB
:102CF0008F196E2D0E94241CC92EDD24903208F0FD
:102D0000C8C2CC0CDD1CC00ED11EF60166847784CF
:102D1000852D8C5F6E2D0E94241C892F8E0D8F199E
:102D20006E2D0E94241CC92EDD24903208F0B1C201
:102D3000852D8B5F6E2D0E94241C892F8E0D8F197F
:102D40006E2D0E94241C292F3327903208F0A0C238
:102D500081E00FB66B968EAF6B970FBE0FB6A59640
:102D60006EAD7FADA5970FBE6A157B0501E008F437
:102D7000012D0295007F000F000F0FB665968EADF6
:102D80009FAD65970FBE681779070FB62B964EADAE
:102D90005FAD2B970FBE08F000626215730508F057
:102DA00000610FB661968EAD9FAD61970FBE0FB6F5
:102DB00063962EAC3FAC63970FBE6615770508F09F
:102DC00008603C01CC0CDD1CC40ED51EF6018081D0
:102DD00091816817790711E008F4112D220F331F34
:102DE000240F351FF901808191816817790730F42C
:102DF000812D0FB66B968EAF6B970FBE852D8A5FB8
:102E00006E2D0E94241C892F8E0D8F196E2D0E940D
:102E1000241CC92EDD24903208F03BC2097F110F1B
:102E2000110F102B0FB66B964EAD6B970FBE440F64
:102E3000412BCC0CDD1C0FB667968EAD9FAD67970E
:102E40000FBEC80ED91EF601868597850FB6A596CA
:102E50002EAD3FADA5970FBE2817390758F44E7F0A
:102E60000AC0191641E00CF49DCC412D523008F0F7
:102E70009BCC9BCC41600AE010E00FB6A196AEADB2
:102E8000BFADA1970FBE8C91481709F4E2C08091A5
:102E9000D402803009F0DDC081E08093D402842F19
:102EA00082708030B40111F06FEF7FE0842F887062
:102EB0008030C401FC0119F08FEF9FE0FC01842FEA
:102EC00080728030C4018C0119F08FEF9FE08C017B
:102ED000842F84708030D40111F0AFEFBFE0842FD5
:102EE00080718030C4019C0119F08FEF9FE09C013C
:102EF000842F80748030C40111F08FEF9FE06C014B
:102F0000442E842F81708030A40111F04FEF5FE0D8
:102F10006295862F8F707295707F782BE2958E2F39
:102F20008F70F295F07FF82B0295802F8F7012959D
:102F3000107F182B607FCA01A8018D0112950295A0
:102F40000F7001271F7001270295B02FBF70572EF9
:102F5000B62BE07F5F01F901F295E295EF70EF2764
:102F6000FF70EF27E2953E2F3F703A29407F7A01AC
:102F7000B601AB01529542954F7045275F704527CA
:102F80004295742F142F7F70FF2D7E29AC0152952E
:102F900042954F7045275F7045274295542F942FD7
:102FA000507F8295807F82958F70852B482F007F80
:102FB000A295A07FA295AF70A02BE07F2295207FE5
:102FC00022952F702E2B107F6295607F62956F7017
:102FD000612BE62F9F708DB58823EAF79EBD8DB5D6
:102FE0008823EAF74EBD0AE010E08DB58823EAF7A2
:102FF0005EBCF42C8DB58823EAF7BEBD8DB5882361
:10300000EAF7AEBD8DB58823EAF7BB2DBEBD8DB501
:103010008823EAF73EBD8DB58823EAF72EBD8DB52E
:103020008823EAF7FEBD8DB58823EAF77EBD8DB50E
:103030008823EAF7EEBD80EA8093800081E086BBBA
:1030400080936F000FB6A196AEADBFADA1970FBE36
:10305000FC9293010FB66F968EAD9FAD6F970FBE2A
:10306000281B390BA1010FB66D968EAD9FAD6D97E4
:103070000FBE480B590B81E0283E93E039079401BD
:103080004207530708F039CB812D37CB292F28274A
:103090002223A2F02FEF903009F4212D41E0692F77
:1030A00066230AF0422F490F28E0303009F09DCB0B
:1030B00098E0291B88230AF4B3CBB3CB41E09030CE
:1030C00009F4412D292F22230AF44FEF490F27E05D
:1030D000303071F38ACB0FB66F968EAD9FAD6F9780
:1030E0000FBE88519C4F0FB66F969FAF8EAF6F97F4
:1030F0000FBE0FB66D968EAD9FAD6D970FBE8F4F05
:103100009F4F0FB66D969FAF8EAF6D970FBE4090DD
:10311000DE025090DF020091DC021091DD02C090CF
:10312000DA02D090DB028091D8029091D902B6B039
:103130000FB6A396AEADBFADA3970FBE6C91603036
:1031400009F49EC00FB6A5969FAF8EAFA5970FBE90
:103150000FB66996AEADBFAD69970FBE8C917D017C
:1031600083950E94241C292FD7012C93822F992705
:10317000203208F08FC0880F991F0FB667962EADCA
:103180003FAD67970FBE820F931FFC018685978521
:103190000FB6E3963FAE2EAEE3970FBE0FB6E196A5
:1031A0007FAE6EAEE1970FBE0FB6AF969FAF8EAFFC
:1031B000AF970FBE212D31E0A201413042E054070C
:1031C00041E008F0422F0FB6AD964EAFAD970FBE5F
:1031D000000F111F00501440412F442341E00AF416
:1031E000422F0C0D1D1D0C151D0551E068F0522FCE
:1031F000503060EF7FEF61F04527403069F48B017C
:103200000817190788F011C0503060EF7FEFA1F761
:10321000B4014527403099F3000F111F000F111F13
:10322000007F0817190708F4322F0FB6AE963EAF8D
:10323000AE970FBE0FB6A5966EAD7FADA5970FBE2C
:10324000AB015F736115510519F02B2D220F24700E
:1032500038B13B7F322B38B92FE70817190708F42C
:103260002FEB439A3BB132233BB920E408171907EF
:1032700008F420E88BB1822B8BB90AE010E041CA38
:1032800080E792E069E370E040E151E00E94FF1BBB
:103290006901C6010E948D19CF93DF93CDB7DEB7C8
:1032A0002A970FB6F894DEBF0FBECDBF9A878987E5
:1032B00080E091E09E838D8387E491E09C838B8303
:1032C00078876F8381E090E09A838983CE010196AD
:1032D0000E94610008952DE637ECFC0137872687B0
:1032E0008DEE95E29587848789EB9EE193878287AF
:1032F00083EB9EED9187808786EB9DEA978386839B
:1033000087E59EE89583848385ED9BEA938382839A
:1033100085E992E6918380830895CF93DF93CDB7BB
:10332000DEB768970FB6F894DEBF0FBECDBF20E2C0
:1033300030E03C832B839A83898380E090E09E87F2
:103340008D8782E090E098878F8328E031E03E838C
:103350002D839C878B87CE0141969A87898784EC41
:1033600099E1988F8F8B9E012F5F3F4F3E8B2D8B66
:103370009C8B8B8BCE0103969A8B898BCE01059605
:1033800060E171E00E944C192F923F924F925F9240
:103390006F927F928F929F92AF92BF92CF92DF9265
:1033A000EF92FF920F931F93CF93DF93CDB7DEB7CA
:1033B000AF970FB6F894DEBF0FBECDBF7B01FC0107
:1033C0000081118187E20031180708F447C060E1ED
:1033D00077E2C8010E94301C87E26802802D112428
:1033E00090E1699F912D1124980F7295707F790F4C
:1033F000872FC62E982F8827202D3327282B392B4F
:10340000021B130B64E670E0C8010E94301CCB0164
:10341000880F991F87589E4FFC01808191819DA73D
:103420008CA784E67802902D1124689F4C2D812D65
:103430001124890F982F8827202D3327282B392BEB
:10344000021B130B000F111F07581E4FF80180813C
:1034500091819FA78EA783E290E03FC004361105BB
:1034600008F435C064E670E0C8010E94301C84E6B0
:103470007802902D1124689F812D1124890F982F97
:103480008827202D3327282B392B021B130B000FE5
:10349000111F07581E4FF801808191819FA78EA7A9
:1034A00085E290E08B010A301105B0F002979E0191
:1034B000275F3F4F280F391F000F111F07581E4F5E
:1034C000F80140815181F901518340830DC087E2A9
:1034D00090E00A30110550F7402F0197DE01199650
:1034E000A80FB91F405D4C93F701A785B089AD01C6
:1034F0004170507020E030E0E1E041156A01510573
:103500002207330709F0E12DE170E03031F4A90121
:1035100067E270E0E03039F008C041E150E067E276
:1035200070E0E03011F42BE230E0FE013996E80F54
:10353000F91F2F01681B790BCD01982F9295907F71
:103540008827990F990F990B892F07E411E0082319
:103550001923F7018481803009F432C0C60ED71ECA
:10356000F701858196813C01C816D90608F028C06C
:103570004601A870B07080E090E0E1E0A115B105CF
:103580008807990709F0E12DE170E03078876F83B3
:1035900009F449C01E830D835C834B8319016818AD
:1035A0007908F7018285082F1127823011050CF068
:1035B00075C00115110509F07EC07A82698280C04C
:1035C0005B01F701C584D684E384F484C701B601A6
:1035D0000E94C81B803011F001E009C0F60126816D
:1035E0003781C701B201A501F9010995082F0170C2
:1035F0001070C801AF960FB6F894DEBF0FBECDBFF6
:10360000DF91CF911F910F91FF90EF90DF90CF90BE
:10361000BF90AF909F908F907F906F905F904F90F2
:103620003F902F900895F701608171817E836D83B3
:1036300060E370E071836083628173817C836B835C
:10364000938382838285898381E08287C384D48443
:10365000A584B684C601B5010E94C81B01E0803074
:1036600009F0C5CF68187908430100E010E080E355
:1036700090E03C01D801C401A817B90708F06FC059
:10368000F501208531851196C601A301B801F90124
:103690001D010995D101803071F39ECF02301105D3
:1036A00051F4C3018C01169507950196969587955F
:1036B0009A83898305C080E090E09A83898383019F
:1036C000F701E280F380C080D180A584B684838432
:1036D000948480E090E08017910770F4F5012085D4
:1036E000318501963C01C401A601B701F901099594
:1036F0008030C30181F370CFC401B50191014B81CA
:103700005C810D811E810E94C81B803009F064CF4E
:10371000F50126813781C401B2014F815885F90135
:103720000995803009F058CF80E090E069807A8078
:1037300001E08615970508F0012D8615970508F01C
:1037400056CFF5012085318501962C01C401A601D3
:10375000B701F90109958030C20151F348CFF50155
:1037600026813781C601B2014F815885F90109953B
:10377000803009F031CFF7018D819E819183808364
:10378000898182878B819C8193838283012D2FCFB6
:10379000AF92BF92CF92DF92EF92FF92DA016B016C
:1037A0007C0141E150E081E021153105A407B50716
:1037B00009F0812D8170803061F4F601A084B1841C
:1037C000C701A901BD01F5010995803011F081E023
:1037D0000EC00115110551F0F6012681378140E038
:1037E00050E0C701B801F901099501C0812D992761
:1037F000FF90EF90DF90CF90BF90AF900895CF9360
:10380000DF93CDB7DEB760970FB6F894DEBF0FBE7B
:10381000CDBF20E030E03A872987E1E0F0E0FC838B
:10382000EB83FE013D96FA83E98338872F8327E4F3
:1038300031E03E832D83788B6F879E878D87CE0105
:103840000196BA010E944C19991B79E004C0991F96
:10385000961708F0961B881F7A95C9F780950895EA
:10386000AA1BBB1B51E107C0AA1FBB1FA617B707A6
:1038700010F0A61BB70B881F991F5A95A9F78095C2
:103880009095BC01CD010895A1E21A2EAA1BBB1B85
:10389000FD010DC0AA1FBB1FEE1FFF1FA217B3071C
:1038A000E407F50720F0A21BB30BE40BF50B661F32
:1038B000771F881F991F1A9469F7609570958095F6
:1038C00090959B01AC01BD01CF010895F894FFCF05
:1038D0006A19000001006B194701200067011200FE
:1038E00041020A00000000000000000063616C6CEF
:1038F000656420604F7074696F6E3A3A756E7772C6
:103900006170282960206F6E206120604E6F6E65A7
:10391000602076616C7565696E646578206F75747A
:10392000206F6620626F756E64733A20746865203C
:103930006C656E2069732020627574207468652040
:10394000696E6465782069732030303031303230F0
:10395000333034303530363037303830393130313B
:10396000313132313331343135313631373138312B
:103970003932303231323232333234323532363219
:1039800037323832393330333133323333333433FF
:1039900035333633373338333934303431343234E5
:1039A00033343434353436343734383439353035CB
:1039B00031353235333534353535363537353835BB
:1039C00039363036313632363336343635363636A9
:1039D000373638363937303731373237333734378F
:1039E0003537363737373837393830383138323875
:1039F000333834383538363837383838393930395B
:103A0000313932393339343935393639373938394A
:103A1000393C72656461637465643E476976656EBE
:103A200020696E646578206973206F7574206F66F5
:103A300020626F756E6473000000000000000000DB
:103A4000617474656D707420746F2063616C63754C
:103A50006C617465207468652072656D61696E645F
:103A60006572207769746820612064697669736F74
:103A700072206F66207A65726F696E7465726E610E
:103A80006C206572726F723A20656E74657265643F
:103A900020756E726561636861626C6520636F6436
:043AA000650001FFBD
:00000001FF
