:100000000C9442000C9421010C945F000C945F004E
:100010000C945F000C949A000C945F000C945F00A9
:100020000C945F000C945F000C945F000C945F00D4
:100030000C945F000C9461000C9477000C945F00AA
:100040000C945F000C945F000C945F000C945F00B4
:100050000C945F000C942F010C945F000C945F00D3
:100060000C945F000C945F0000010400020100008A
:10007000020103000200031005000400050604004D
:100080000506002011241FBECFEFD8E0DEBFCDBF94
:1000900012E0A0E0B1E0E2E5F5E302C005900D92C8
:1000A000A43CB107D9F722E0A4ECB2E001C01D9254
:1000B000A93DB207E1F70E9493010C94A71A0C9492
:1000C00000000F920FB60F921F9211248F9381E0C0
:1000D0008093D80280E28093800010926F0010928B
:1000E000C4028F911F900F900FBE0F9018950F9222
:1000F0000FB60F922F933F938F939F938091C502DA
:100100009091C6022091C7023091C802805F9F4F34
:100110002F4F3F4F9093C6028093C5023093C80281
:100120002093C7029F918F913F912F910F900FBE07
:100130000F9018950F920FB60F921F9211242F93C4
:100140003F934F935F936F937F938F939F93AF935F
:10015000BF93CF93DF93EF93FF93CDB7DEB7219794
:100160000FB6F894DEBF0FBECDBF81E08093D802FA
:1001700089B1A9ECB2E00FB6F8949C910FBE97300C
:1001800008F04FC082958370282F3327E92FFF276F
:10019000EE0FFF1FEE0FFF1FE22BF32BE859FF4F6F
:1001A00081E0DE01119695919D938150E1F789815F
:1001B000982F9F70973008F03CC0A9ECB2E00FB6C2
:1001C000F8949C930FBE82958F709FEF823009F058
:1001D000912D21E0813009F0292FAAECB2E00FB671
:1001E000F8948C910FBE820F0FB6F8948C930FBECB
:1001F00021960FB6F894DEBF0FBECDBFFF91EF91F1
:10020000DF91CF91BF91AF919F918F917F916F912E
:100210005F914F913F912F911F900F900FBE0F90C4
:10022000189580E892E06CE170E04CE051E00E94AB
:1002300034158CE992E068E270E04CE051E00E94F5
:1002400034150F920FB60F928F938091CB02839546
:100250008093CB028F910F900FBE0F9018950F9245
:100260000FB60F921F9211242F933F934F935F93DA
:100270008F939F93AF93BF93EF93FF9381E080930E
:10028000D80280917800909179002091D70233278D
:10029000220F331F4091D6025527440F551F420F9E
:1002A000531F43535D4FFA01918380839091D6028F
:1002B0009395812D9330282F08F426C02093D702E0
:1002C000933008F428C08093D6029EEF823008F461
:1002D00091E0980FA92FBB27AD52BD4F8C91909103
:1002E0007C00907F982B90937C00FF91EF91BF91C1
:1002F000AF919F918F915F914F913F912F911F905F
:100300000F900FBE0F9018952091D7022093D7021F
:10031000933008F0D8CF892F8093D6029EEF823099
:1003200008F4D6CFD6CF0E9495012F923F924F92DC
:100330005F926F927F928F929F92AF92BF92CF9275
:10034000DF92EF92FF920F931F93CF93DF93CDB77E
:10035000DEB7C656D0400FB6F894DEBF0FBECDBF95
:100360008FB7F8949091D802913019F48FBF0E9402
:10037000571591E09093D8028FBF8AB18F7C8AB9CC
:100380008BB180638BB980916D00806380936D0029
:100390008091680084608093680052989DBB83E0E0
:1003A0008093690087E880937A0080E480937C00E2
:1003B00080917E00816080937E0038984098809183
:1003C0007E00846080937E003A98429880917E00FF
:1003D000886080937E003B98439880917E00806186
:1003E00080937E003C98449880917E008062809348
:1003F0007E003D98459880917C00807F8560809349
:100400007C0080917A00806480937A0080917A00E9
:1004100080748030D9F76091780070917900809174
:100420007C00807F836080937C0080917A00806470
:1004300080937A0080917A0080748030D9F7E091BF
:100440007800F091790080917C00807F82608093B9
:100450007C0080917A00806480937A00F295E29526
:10046000F07FFE27E07FFE2780917A008074803045
:10047000D9F7809178009091790020917C00207FBD
:10048000276020937C0020917A00206420937A00DA
:10049000982F8827E07FF07020917A002074203018
:1004A000D9F7409178005091790020917E002F7DFE
:1004B00020937E003D98459A20917E002B7F2093CB
:1004C0007E0042983A9A20917E00277F20937E00FA
:1004D00043983B9A20917E002F7E20937E00449883
:1004E0003C9A2D98259A2B98239A24982C9A2A98EE
:1004F000229A20E52CBD21E02DBD789420917C002E
:10050000207F276020937C0020917A002064209334
:100510007A005B016F7070706E2B7F2B542F529599
:10052000507F442780709F7020917A002074203083
:10053000D9F72091780030917900E0917C00E07F3C
:10054000E0937C00E0917A00E064E0937A00E0912F
:100550007A00E074E030D9F7E0917800F09179000A
:10056000A0917C00A07FA660A0937C00A0917A005F
:10057000A064A0937A00A0917A00A074A030D9F76B
:10058000A0917800B09179001092D70206E010E0B7
:100590001093D6020093D50207E010E01093D40226
:1005A0000093D302B093D202A093D102F093D00271
:1005B000E093CF023093CE022093CD0221E020932E
:1005C000CC022093D80227E420937C0010927B0079
:1005D0002FEE20937A0020917C00207F20937C00D6
:1005E0002998219A5B98539A2A9A299820E030E01A
:1005F000112DF9017901D70105C0E170E030F90151
:100600007D01E1F02F5F3F4FAF4FBF4F012F01C082
:1006100001230170003031F0DDB401E0DD20C2F7CC
:10062000012DF6CF1EBC11E0E03CF105E0E0F0E06A
:10063000EE06FF06E1E008F3E12DDFCF842B952BDA
:10064000862B972B299A29982DB52223EAF71EBCD1
:100650002DB52223EAF71EBC2DB52223EAF71EBCD6
:100660002DB52223EAF71EBC2DB52223EAF71EBCC6
:100670002DB52223EAF71EBC2DB52223EAF71EBCB6
:100680002DB52223EAF71EBC2DB52223EAF71EBCA6
:100690002DB52223EAF71EBC2DB52223EAF71EBC96
:1006A000299A29981092C40220E22093800020E128
:1006B0002093810021E030E030938900209388006E
:1006C00022E030E030938B0020938A0020E030E27B
:1006D000309387002093860023E22093B00028E027
:1006E0002093B1001092B40023E02093B300209136
:1006F000B100287F21602093B1000000000020910C
:100700008100287F2160209381002A9822E024BD67
:100710003AEF37BD35E035BD20936E0016BCBC0105
:10072000609570959B01232F3327762F6627622BC8
:10073000732B9B0136952795F901F695E795F6956C
:10074000E795E227F327AB01452F42954F705527D8
:100750004E275F2746275727542F5295507F44270F
:10076000550F550F550F422B532B9A013695279550
:10077000F901F695E795F695E795E227F327BA0193
:10078000672F62956F7077276E277F2764277527FD
:10079000762F7295707F6627770F770F770F622B12
:1007A000732B9C0136952795F901F695E795DF01A6
:1007B000B695A795AE27BF27929582958F7089270A
:1007C0009F708927969587958A279B278A259B2541
:1007D000982F9295907F8827990F990F990F822BC8
:1007E000932BFC01F695E7959F0136952795D90146
:1007F000B695A795A227B3279C01329522952F7015
:1008000023273F702327369527952A273B2728271C
:100810003927322F3295307F2227330F330F330F92
:100820002E2B3F2BFB01E227F327F295E295EF7089
:10083000EF27FF70EF27FBA3EAA384279527929564
:1008400082958F7089279F70892799A388A3CB01F0
:1008500096958795FC01F695E795F695E795E82737
:10086000F927AB01452F42954F7055274E275F273B
:1008700046275727542F5295507F4427550F550F21
:10088000550F482B592BB90176956795CB01969555
:100890008795FC01F695E795E827F927C901929518
:1008A00082958F7089279F708927969587958E27C7
:1008B0009F2782279327982F9295907F8827990FBB
:1008C000990F990F862B972B9A0128273927329554
:1008D00022952F7023273F7023273DA32CA39A0135
:1008E00036952795F901F695E795F695E795E22770
:1008F000F327BA01672F62956F7077276E277F27DE
:1009000064277527762F7295707F6627770F770F8C
:10091000770F622B732BAC01569547959A0136954C
:100920002795F901F695E795E227F3279C01329583
:1009300022952F7023273F702327369527952E2742
:100940003F2728273927322F3295307F2227330F30
:10095000330F330F242B352BCB018227932792950E
:1009600082958F7089279F7089279FA38EA3CB01C3
:1009700096958795FC01F695E795F695E795E82716
:10098000F927AB01452F42954F7055274E275F271A
:1009900046275727542F5295507F4427550F550F00
:1009A000550F482B592BB90176956795CB01969534
:1009B0008795FC01F695E795E827F927C9019295F7
:1009C00082958F7089279F708927969587958E27A6
:1009D0009F2782279327982F9295907F8827990F9A
:1009E000990F990F862B972B9A0128273927329533
:1009F00022952F7023273F70232739A728A79A0114
:100A000036952795F901F695E795F695E795E2274E
:100A1000F327BA01672F62956F7077276E277F27BC
:100A200064277527762F7295707F6627770F770F6B
:100A3000770F622B732BAC01569547959A0136952B
:100A40002795F901F695E795E227F3279C01329562
:100A500022952F7023273F702327369527952E2721
:100A60003F2728273927322F3295307F2227330F0F
:100A7000330F330F242B352BCB01822793279295ED
:100A800082958F7089279F7089279BA78AA7CB01A2
:100A900096958795FC01F695E795F695E795E827F5
:100AA000F927AB01452F42954F7055274E275F27F9
:100AB00046275727542F5295507F4427550F550FDF
:100AC000550F482B592BB90176956795CB01969513
:100AD0008795FC01F695E795E827F927C9019295D6
:100AE00082958F7089279F708927969587958E2785
:100AF0009F2782279327982F9295907F8827990F79
:100B0000990F990F862B972B9A0128273927329511
:100B100022952F7023273F7023273DA72CA79A01EA
:100B200036952795F901F695E795F695E795E2272D
:100B3000F327BA01672F62956F7077276E277F279B
:100B400064277527762F7295707F6627770F770F4A
:100B5000770F622B732BAC01569547959A0136950A
:100B60002795F901F695E795E227F3279C01329541
:100B700022952F7023273F702327369527952E2700
:100B80003F2728273927322F3295307F2227330FEE
:100B9000330F330F242B352BCB01822793279295CC
:100BA00082958F7089279F7089279FA78EA7CB0179
:100BB00096958795FC01F695E795F695E795E827D4
:100BC000F927AB01452F42954F7055274E275F27D8
:100BD00046275727542F5295507F4427550F550FBE
:100BE000550F482B592BB90176956795CB019695F2
:100BF0008795FC01F695E795E827F927C9019295B5
:100C000082958F7089279F708927969587958E2763
:100C10009F2782279327982F9295907F8827990F57
:100C2000990F990F862B972B9A01282739273295F0
:100C300022952F7023273F70232739AB28AB9A01C9
:100C400036952795F901F695E795F695E795E2270C
:100C5000F327BA01672F62956F7077276E277F277A
:100C600064277527762F7295707F6627770F770F29
:100C7000770F622B732BAC01569547959A013695E9
:100C80002795F901F695E795E227F3279C01329520
:100C900022952F7023273F702327369527952E27DF
:100CA0003F2728273927322F3295307F2227330FCD
:100CB000330F330F242B352BCB01822793279295AB
:100CC00082958F7089279F7089279BAB8AABCB0158
:100CD00096958795FC01F695E795F695E795E827B3
:100CE000F927AB01452F42954F7055274E275F27B7
:100CF00046275727542F5295507F4427550F550F9D
:100D0000550F482B592BB90176956795CB019695D0
:100D10008795FC01F695E795E827F927C901929593
:100D200082958F7089279F708927969587958E2742
:100D30009F2782279327982F9295907F8827990F36
:100D4000990F990F862B972B9A01282739273295CF
:100D500022952F7023273F7023273DAB2CAB9A01A0
:100D600036952795F901F695E795F695E795E227EB
:100D7000F327BA01672F62956F7077276E277F2759
:100D800064277527762F7295707F6627770F770F08
:100D9000770F622B732BAC01569547959A013695C8
:100DA0002795F901F695E795E227F3279C013295FF
:100DB00022952F7023273F702327369527952E27BE
:100DC0003F2728273927322F3295307F2227330FAC
:100DD000330F330F242B352BCB018227932792958A
:100DE00082958F7089279F7089279FAB8EABCB012F
:100DF00096958795FC01F695E795F695E795E82792
:100E0000F927AB01452F42954F7055274E275F2795
:100E100046275727542F5295507F4427550F550F7B
:100E2000550F482B592BB90176956795CB019695AF
:100E30008795FC01F695E795E827F927C901929572
:100E400082958F7089279F708927969587958E2721
:100E50009F2782279327982F9295907F8827990F15
:100E6000990F990F862B972B9A01282739273295AE
:100E700022952F7023273F70232739AF28AF9A017F
:100E800036952795F901F695E795F695E795E227CA
:100E9000F327BA01672F62956F7077276E277F2738
:100EA00064277527762F7295707F6627770F770FE7
:100EB000770F622B732BAC01569547959A013695A7
:100EC0002795F901F695E795E227F3279C013295DE
:100ED00022952F7023273F702327369527952E279D
:100EE0003F2728273927322F3295307F2227330F8B
:100EF000330F330F242B352BCB0182279327929569
:100F000082958F7089279F7089279BAF8AAFCB010D
:100F100096958795FC01F695E795F695E795E82770
:100F2000F927AB01452F42954F7055274E275F2774
:100F300046275727542F5295507F4427550F550F5A
:100F4000550F482B592BB90176956795CB0196958E
:100F50008795FC01F695E795E827F927C901929551
:100F600082958F7089279F708927969587958E2700
:100F70009F2782279327982F9295907F8827990FF4
:100F8000990F990F862B972B9A012827392732958D
:100F900022952F7023273F7023273DAF2CAF9A0156
:100FA00036952795F901F695E795F695E795E227A9
:100FB000F327BA01672F62956F7077276E277F2717
:100FC00064277527762F7295707F6627770F770FC6
:100FD000770F622B732BAC01569547959A01369586
:100FE0002795F901F695E795E227F3279C013295BD
:100FF00022952F7023273F702327369527952E277C
:101000003F2728273927322F3295307F2227330F69
:10101000330F330F242B352BCB0182279327929547
:1010200082958F7089279F7089279FAF8EAFCB01E4
:1010300096958795FC01F695E795F695E795E8274F
:10104000F927AB01452F42954F7055274E275F2753
:1010500046275727542F5295507F4427550F550F39
:10106000550F482B592BB90176956795CB0196956D
:101070008795FC01F695E795E827F927C901929530
:1010800082958F7089279F708927969587958E27DF
:101090009F2782279327982F9295907F8827990FD3
:1010A000990F990F862B972B9A012827392732956C
:1010B00022952F7023273F7023270FB622963FAF2C
:1010C0002EAF22970FBE9A0136952795F901F69516
:1010D000E795F695E795E227F327BA01672F629522
:1010E0006F7077276E277F2764277527762F729575
:1010F000707F6627770F770F770F622B732BAC010A
:10110000569547959A0136952795F901F695E795F5
:10111000E227F3279C01329522952F7023273F70F9
:101120002327369527952E273F2728273927322F23
:101130003295307F2227330F330F330F242B352B7B
:10114000CB0182279327929582958F7089279F7074
:1011500089270FB624969FAF8EAF24970FBECB0181
:1011600096958795FC01F695E795F695E795E8271E
:10117000F927AB01452F42954F7055274E275F2722
:1011800046275727542F5295507F4427550F550F08
:10119000550F482B592BB90176956795CB0196953C
:1011A0008795FC01F695E795E827F927C9019295FF
:1011B00082958F7089279F708927969587958E27AE
:1011C0009F2782279327982F9295907F8827990FA2
:1011D000990F990F862B972B9A012827392732953B
:1011E00022952F7023273F7023270FB626963FAFF7
:1011F0002EAF26970FBE9A0136952795F901F695E1
:10120000E795F695E795E227F327BA01672F6295F0
:101210006F7077276E277F2764277527762F729543
:10122000707F6627770F770F770F622B732BAC01D8
:10123000569547959A0136952795F901F695E795C4
:10124000E227F3279C01329522952F7023273F70C8
:101250002327369527952E273F2728273927322FF2
:101260003295307F2227330F330F330F242B352B4A
:10127000CB0182279327929582958F7089279F7043
:1012800089270FB628969FAF8EAF28970FBECB0148
:1012900096958795FC01F695E795F695E795E827ED
:1012A000F927AB01452F42954F7055274E275F27F1
:1012B00046275727542F5295507F4427550F550FD7
:1012C000550F482B592BB90176956795CB0196950B
:1012D0008795FC01F695E795E827F927C9019295CE
:1012E00082958F7089279F708927969587958E277D
:1012F0009F2782279327982F9295907F8827990F71
:10130000990F990F862B972B9A0128273927329509
:1013100022952F7023273F7023270FB62A963FAFC1
:101320002EAF2A970FBE9A0136952795F901F695AB
:10133000E795F695E795E227F327BA01672F6295BF
:101340006F7077276E277F2764277527762F729512
:10135000707F6627770F770F770F622B732BAC01A7
:10136000569547959A0136952795F901F695E79593
:10137000E227F3279C01329522952F7023273F7097
:101380002327369527952E273F2728273927322FC1
:101390003295307F2227330F330F330F242B352B19
:1013A000CB0182279327929582958F7089279F7012
:1013B00089270FB62C969FAF8EAF2C970FBECB010F
:1013C00096958795FC01F695E795F695E795E827BC
:1013D000F927AB01452F42954F7055274E275F27C0
:1013E00046275727542F5295507F4427550F550FA6
:1013F000550F482B592BB90176956795CB019695DA
:101400008795FC01F695E795E827F927C90192959C
:1014100082958F7089279F708927969587958E274B
:101420009F2782279327982F9295907F8827990F3F
:10143000990F990F862B972B9A01282739273295D8
:1014400022952F7023273F7023270FB62E963FAF8C
:101450002EAF2E970FBE9A0136952795F901F69576
:10146000E795F695E795E227F327BA01672F62958E
:101470006F7077276E277F2764277527762F7295E1
:10148000707F6627770F770F770F622B732BAC0176
:10149000569547959A0136952795F901F695E79562
:1014A000E227F3279C01329522952F7023273F7066
:1014B0002327369527952E273F2728273927322F90
:1014C0003295307F2227330F330F330F242B352BE8
:1014D000CB0182279327929582958F7089279F70E1
:1014E00089270FB660969FAF8EAF60970FBECB0176
:1014F00096958795FC01F695E795F695E795E8278B
:10150000F927AB01452F42954F7055274E275F278E
:1015100046275727542F5295507F4427550F550F74
:10152000550F482B592BB90176956795CB019695A8
:101530008795FC01F695E795E827F927C90192956B
:1015400082958F7089279F708927969587958E271A
:101550009F2782279327982F9295907F8827990F0E
:10156000990F990F862B972B9A01282739273295A7
:1015700022952F7023273F7023270FB662963FAF27
:101580002EAF62970FBE9A0136952795F901F69511
:10159000E795F695E795E227F327BA01672F62955D
:1015A0006F7077276E277F2764277527762F7295B0
:1015B000707F6627770F770F770F622B732BAC0145
:1015C000569547959A0136952795F901F695E79531
:1015D000E227F3279C01329522952F7023273F7035
:1015E0002327369527952E273F2728273927322F5F
:1015F0003295307F2227330F330F330F242B352BB7
:10160000CB0182279327929582958F7089279F70AF
:1016100089270FB664969FAF8EAF64970FBECB013C
:1016200096958795FC01F695E795F695E795E82759
:10163000F927AB01452F42954F7055274E275F275D
:1016400046275727542F5295507F4427550F550F43
:10165000550F482B592BB90176956795CB01969577
:101660008795FC01F695E795E827F927C90192953A
:1016700082958F7089279F708927969587958E27E9
:101680009F2782279327982F9295907F8827990FDD
:10169000990F990F862B972B9A0128273927329576
:1016A00022952F7023273F7023270FB666963FAFF2
:1016B0002EAF66970FBE9A0136952795F901F695DC
:1016C000E795F695E795E227F327BA01672F62952C
:1016D0006F7077276E277F2764277527762F72957F
:1016E000707F6627770F770F770F622B732BAC0114
:1016F000569547959A0136952795F901F695E79500
:10170000E227F3279C01329522952F7023273F7003
:101710002327369527952E273F2728273927322F2D
:101720003295307F2227330F330F330F242B352B85
:10173000CB0182279327929582958F7089279F707E
:1017400089270FB668969FAF8EAF68970FBECB0103
:1017500096958795FC01F695E795F695E795E82728
:10176000F927AB01452F42954F7055274E275F272C
:1017700046275727542F5295507F4427550F550F12
:10178000550F482B592BB90176956795CB01969546
:101790008795FC01F695E795E827F927C901929509
:1017A00082958F7089279F708927969587958E27B8
:1017B0009F2782279327982F9295907F8827990FAC
:1017C000990F990F862B972B9A0128273927329545
:1017D00022952F7023273F7023270FB66A963FAFBD
:1017E0002EAF6A970FBE9A0136952795F901F695A7
:1017F000E795F695E795E227F327BA01672F6295FB
:101800006F7077276E277F2764277527762F72954D
:10181000707F6627770F770F770F622B732BAC01E2
:10182000569547959A0136952795F901F695E795CE
:10183000E227F3279C01329522952F7023273F70D2
:101840002327369527952E273F2728273927322FFC
:101850003295307F2227330F330F330F242B352B54
:10186000CB0182279327929582958F7089279F704D
:1018700089270FB66C969FAF8EAF6C970FBECB01CA
:1018800096958795FC01F695E795F695E795E827F7
:10189000F927AB01452F42954F7055274E275F27FB
:1018A00046275727542F5295507F4427550F550FE1
:1018B000550F482B592BB90176956795CB01969515
:1018C0008795FC01F695E795E827F927C9019295D8
:1018D00082958F7089279F708927969587958E2787
:1018E0009F2782279327982F9295907F8827990F7B
:1018F000990F990F862B972B9A0128273927329514
:1019000022952F7023273F7023270FB66E963FAF87
:101910002EAF6E970FBEBA0176956795FB01F695CF
:10192000E795F695E795E627F7279A01232F229565
:101930002F7033272E273F2724273527322F329524
:10194000307F2227330F330F330F262B372BBC0169
:1019500076956795AB0156954795FA01F695E7950B
:10196000E427F527AC01529542954F7045275F70EB
:101970004527569547954E275F2748275927542FC7
:101980005295507F4427550F550F550F462B572B17
:10199000C90184279527929582958F7089279F701A
:1019A00089270FB6A0969FAF8EAFA0970FBE88E095
:1019B00090E00FB6A2969FAF8EAFA2970FBE80E0C9
:1019C00090E09A8B898B0FB6A4961EAEA4970FBE9B
:1019D0000FB6A5965FAF4EAFA5970FBE0FB6A796F1
:1019E0003FAF2EAFA7970FBE80E092E0988F8F8B0E
:1019F000289A209A5F98579A5E98569A3C984498ED
:101A0000CE0141969C012C5A3F4FAC014E5A5F4F7C
:101A100058874F83AC014F5A5F4F5A834983AC01BB
:101A2000405B5F4F588B4F87AC01415B5F4F5C87DA
:101A30004B870F969A87898701E03C832B838FB76A
:101A4000F8948090C7029090C8022091C50230910E
:101A5000C6023E872D878FBF1091CB02103009F44C
:101A6000A9C1C02ED12C9E828D820AC08EB5289A23
:101A70008BB1822B8BB9D116012DC12C09F49AC1DF
:101A8000A090CD02B090CE02AA0CBB1CAA0CBB1C2D
:101A900081E0A114B10401E009F4012D2091CF02ED
:101AA0003091D0024091D1025091D202E6B076B18D
:101AB000440F551F40505440952F992391E00AF44C
:101AC000912D420F531F4217530748F4803020EFE7
:101AD0003FEF51F09827903061F4A9010FC0812D9C
:101AE000803020EF3FEFB1F720E030E098279030D2
:101AF000A1F3440F551F440F551F407FAB85BC8594
:101B00006C918989803029F0613009F0DBC061E097
:101B100003C0603009F426C51A01AF85B8898C91DD
:101B20003D018395F72E0E94651A7F2DD3019C936A
:101B30004F805884727076950723802F8170803093
:101B400009F4B9C0F02E812FF20140815181BA0110
:101B5000769567959B0136952795D901B695A795FA
:101B6000A227B3279A01329522952F7023273F7021
:101B70002327369527952A273B2724273527322FD9
:101B80003295307F2227330F330F330F262B372B1D
:101B9000318320836B807C80F30160817181DB0164
:101BA000B695A7954D0196948794969487948A2626
:101BB0009B268B01012F02950F70112708251925EF
:101BC00006271727102F1295107F0027110F110FCE
:101BD000110F0A2B1B2B11830083B8016227732777
:101BE000729562956F7067277F7067277695679506
:101BF000769567956A157B0508F073C0F901F6952F
:101C0000E795BF0176956795DB01B695A795A62761
:101C1000B727B901729562956F7067277F70672744
:101C2000769567956A277B2762277327762F7295AB
:101C3000707F6627770F770F770F6E2B7F2BF20160
:101C400071836083980136952795D901B695A7953C
:101C5000B695A795A227B327A801452F42954F70A7
:101C600055274A275B2740275127542F5295507FED
:101C70004427550F550F550F422B532BF30151831A
:101C80004083292F3327903208F069C4220F331F75
:101C9000A985BA852A0F3B1F46275727529542959B
:101CA0004F7045275F704527F90151834083EF85C9
:101CB000F889908118C0A985BA85292F33279032D9
:101CC000D8F04DC4AF85B8899C918F8980304F8002
:101CD00058841A0109F457C0903009F465C09A95E8
:101CE00057C0A985BA85182F0F2D8D809E80292F6A
:101CF0003327903208F033C44E2D42954170220FA5
:101D0000331F2A0F3B1FF901808191819F8E8E8E98
:101D10002D853E853D8F2C8F9B8F8A8F21E042271A
:101D2000488F2816390608F4212D298F017024E0E8
:101D3000003009F4212D38B13B7F322B38B92FE721
:101D40002816390608F42FEB439A3BB132233BB9EE
:101D500028982C2D2170203019F02DB52223CAF798
:101D6000D394292F20632EBD2DB52223EAF72EB55B
:101D70008EBD2DB52223EAF720E42816390608F097
:101D800075CE20E873CE862F8A95981728F4939500
:101D9000AF85B8899C93CECE6250AF85B8896C93DD
:101DA00081E08F8B962FC6CE91E0AF85B8899C934A
:101DB0001F8AC0CE8FB7F8943091CB02932F911B1E
:101DC00021E0391708F0212D2030212D09F4292F89
:101DD0002093CB028FBFAAECB2E00FB6F8948C919F
:101DE0000FBE803009F4D4C08FB7F8942AEC32E0EB
:101DF000D9010FB6F8942C910FBE0FB6F8941C922F
:101E00000FBE8FBF203009F4C3C086B1AB85BC853F
:101E10003C919989903009F031958072803009F0B9
:101E200020C0932F925013160CF0932F920F892FEE
:101E30008E5F9F3F0CF4892F982F990F990B682F75
:101E40006927691B603208F060E2AB85BC856C9342
:101E5000982F991F9927991F998B88230AF084C07E
:101E600084C0432F439591E0423081E0C8F41216BC
:101E700031E0D4F4423008F0912D582F550F550B16
:101E8000482F4527451B542F5A95642F65279323C8
:101E9000291B561768F497E0322F4030E1F459C3FC
:101EA000832F121631E034F3312D423028F7E5CF7D
:101EB000922F982799230AF43FC39FEF203009F40B
:101EC000912D31E0522F55230AF0392F320F98E02F
:101ED000403009F43EC3242F2695242B422F4695EB
:101EE0004695422B542F52955F70542B5095252FB9
:101EF00026952575521B252F23735695569553739A
:101F0000520F252F2295250F2F70921B88230AF43C
:101F10009195930F292F220F220B892F8227821B45
:101F20008F7121E030E0803049F040E050E0220F36
:101F3000331F441F551F8A958030C9F7822F880FA1
:101F4000880B622F6827681B603208F060E2AB855F
:101F5000BC856C9399230AF42195822F881F8827CA
:101F6000881F898B22230AF01F8A603009F4FAC285
:101F7000AF85B8898C917D010E94651AD7019C9329
:101F80009E8A8D8A8D859E859C8B8B8B81E08A8B2A
:101F90002091CD023091CE0286B19A899130A9F478
:101FA0004B895C896D897E894854544F6F4F7F4FB0
:101FB00091E0ED85FE854E175F076805790508F00D
:101FC000912D9170903009F01A8AA9015F7391E008
:101FD0002115510509F4912D588D5230412D212D97
:101FE000312D09F42FC02C8D3D8D6E8D7F8D2D846C
:101FF0003E84221A330AF101860A970A503081F48E
:1020000021E0AF014B30510540E050E084069506D9
:1020100008F4212D2170203019F052E0598F01C0B1
:10202000598D21E0EC33F10560E070E086069706FB
:1020300041E008F06FC1513031E009F070C150301B
:1020400009F0212D827086959823917084E090305C
:1020500009F4812D98B19B7F982B98B9417088E045
:10206000403009F4812D98B1977F982B98B9822F31
:102070008170803009F420C1832F8170803009F491
:1020800021C12170203009F022C13170303009F0B7
:102090005E9A4091D1025091D202440F551F405098
:1020A000544081E0952F992391E00AF4912D2091DD
:1020B000CF023091D002420F531F4217530708F04E
:1020C0000CC1803020EF3FEF09F40DC1982790300C
:1020D00009F00FC1A9018A89803009F013C1AB85CD
:1020E000BC851C91103009F43DC25E874D87AF85D9
:1020F000B8893C90832D612F0E94651AE92EE10E6C
:1021000083E0612F0E94651AF92EEF188E2D612F42
:102110000E94651AC92EDD24903208F028C2CC0C2A
:10212000DD1C49845A84C40CD51CF601A080B18002
:10213000832D8395612F0E94651A892F810F8F1936
:10214000612F0E94651AC92EDD24903208F00FC25B
:10215000CC0CDD1CC40CD51CF60180809180832D35
:102160008E5F612F0E94651A892F810F8F19612F51
:102170000E94651AC92EDD24903208F0F8C1CC0CFB
:10218000DD1CC40CD51CF60160807180832D8D5F31
:10219000612F0E94651A892F810F8F19612F0E946C
:1021A000651AC92EDD24903208F0E1C1CC0CDD1C8B
:1021B000C40CD51CF60140805180832D8C5F612FAB
:1021C0000E94651A892F810F8F19612F0E94651A4D
:1021D000C92EDD24903208F0CAC1232C832D8B5FD9
:1021E000612F0E94651A892F810F8F19612F0E941C
:1021F000651A292F3327903208F0B8C1E12E81E00B
:102200008D836D857E856A157B0511E008F4112D9F
:102210001295107F110F110F6815790549855A85A0
:10222000A22D08F08DC06615770508F08EC06415E4
:10223000750508F01860CC0CDD1CC40ED51EF60127
:10224000808191816817790781E008F4812DB82E8B
:10225000220F331F240F351FF901808191816817E8
:10226000790710F4812D8D83AA5F8A2F6E2D0E942D
:10227000651A892F8E0D8F196E2D0E94651AC92E31
:10228000DD24903208F073C1197FBB0CBB0CB12A5E
:102290004D81440F4B29CC0CDD1C89859A85C80ED5
:1022A000D91EF601808191812D853E852817390739
:1022B00008F051C04E7F50C05F98832F81708030EE
:1022C00009F0DFCE5E982170203009F4DECE5F9AEF
:1022D0003170303009F0DCCEDCCE812D803020EF43
:1022E0003FEF09F0F3CE20E030E09827903009F47A
:1022F000F1CE440F551F440F551F407F8A8980300F
:1023000009F4EDCEAB85BC854C918989803061F4B0
:10231000842F0CC0412D513031E009F490CE312D85
:10232000503009F08ECE8ECE842F819586958074A4
:10233000942F990F990B4927491B4F73482B0CC0B9
:1023400010626615770508F472CF10616415750583
:1023500008F070CF70CF4160A981BA818C91481785
:1023600009F46DCB8091C402803009F068CB81E024
:102370008093C402842F82708030E0E0F0E011F09E
:10238000EFEFFFE0842F8870803080E090E0DC0188
:1023900019F08FEF9FE0DC01842F8072803080E0A5
:1023A00090E0BC0119F08FEF9FE0BC01842F847096
:1023B000803080E090E011F08FEF9FE06C01242FDF
:1023C0002071203020E030E0390119F02FEF3FE09C
:1023D0003901242F2074203020E030E0590119F019
:1023E0002FEF3FE05901F42E242F2170203020E000
:1023F00030E019F02FEF3FE000C0402F4170403037
:1024000019F04DB54423CAF7E2954E2F4F70F2955F
:10241000F07FF42BA2954A2F4F70B295B07FB42B6A
:102420006295462F4F707295707F742BE07F8D01FF
:10243000D601AB01BD01729562956F7067277F7001
:1024400067276295B62FBF709F2EBE2B007FC301FA
:10245000929582958F7089279F7089278295782F12
:10246000E82E7F70D12E702B407FC501E62D8C01A8
:10247000129502950F7001271F7001270295F02F0A
:10248000FF70152FF42BA901529542954F704527E7
:102490005F7045274295342F307F2295207F22950B
:1024A0002F70232B607FA295A07FA295AF70A62BE3
:1024B0006E2D607FE295E07FE295EF70E62B007F66
:1024C0008295807F82958F70802B082F4F704EBD34
:1024D0003DB53323EAF72EBD2DB52223EAF79EBC86
:1024E0002DB52223EAF7BEBD9DB59923EAF7AEBD0F
:1024F0008DB58823EAF7DEBC8DB58823EAF77EBD6B
:102500008DB58823EAF7EEBD8DB58823EAF7B12FA4
:10251000BEBD8DB58823EAF7FEBD8DB58823EAF7E9
:102520000EBD80EA8093800001E006BB00936F003F
:10253000A981BA81FC9283CA31E0203009F4312D9F
:10254000922F99230AF43FEF320F97E0403009F0C1
:10255000C2CC28E0921B88230AF4DACCDACCC90179
:102560000E94BA128CE091E00E945F156901C601D9
:102570000E94BA12CF93DF93CDB7DEB768970FB63C
:10258000F894DEBF0FBECDBF20E230E03C832B834A
:102590009A83898380E090E09E878D8782E090E037
:1025A00098878F8320E031E03E832D839C878B8743
:1025B000CE0141969A87898781EF92E1988F8F8B20
:1025C0009E012F5F3F4F3E8B2D8B9C8B8B8BCE01C3
:1025D00003969A8B898BCE0105966CE071E00E9480
:1025E000FA142F923F924F925F926F927F928F9246
:1025F0009F92AF92BF92CF92DF92EF92FF920F9392
:102600001F93CF93DF93CDB7DEB760970FB6F894E3
:10261000DEBF0FBECDBF7B01FC010081118187E2CF
:102620000031180708F447C060E177E2C8010E9452
:10263000711A87E26802802D112490E1699F912D23
:102640001124980F7295707F790F872FC62E982FBF
:102650008827202D3327282B392B021B130B64E6E8
:1026600070E0C8010E94711ACB01880F991F8B5826
:102670009E4FFC01808191819E878D8784E6780240
:10268000902D1124689F4C2D812D1124890F982F96
:102690008827202D3327282B392B021B130B000FE3
:1026A000111F0B581E4FF80180819181988B8F87E5
:1026B00081E090E03FC00436110508F435C064E6BF
:1026C00070E0C8010E94711A84E67802902D1124EE
:1026D000689F812D1124890F982F8827202D33275B
:1026E000282B392B021B130B000F111F0B581E4FE9
:1026F000F80180819181988B8F8783E090E08B0136
:102700000A301105B0F002979E01245F3F4F280F59
:10271000391F000F111F0B581E4FF80140815181C6
:10272000F901518340830DC085E090E00A30110526
:1027300050F7402F0197DE011C96A80FB91F406388
:102740004C93F70123853485B9016170707040E0C6
:1027500050E001E061156B0171054407550761E028
:1027600009F0612D6170603029F42A016030BA01EE
:1027700039F008C0E1E1F0E02F016030BA0111F456
:102780006BE270E01B01A5E0B0E0B901647070700D
:10279000611571054407550709F4012D017010708A
:1027A000BE01645F7F4F680F791FA81BB90BF7014B
:1027B0008481803009F435C0CA0EDB1EF7018581A3
:1027C00096813C014601C816D90608F02AC0287037
:1027D000307080E090E041E02115310588079907CD
:1027E00009F0412D41704030B987A8877F836E83FF
:1027F000F70109F44CC0928581E0933009F0892FEC
:10280000681879087B866A8680301D830C8309F4FA
:1028100079C0813009F079C080E090E00A851B859D
:102820007CC04B015D01F701C188D288E784F08844
:10283000C701B6019101A2010E94FD14803011F080
:1028400001E009C0F60126813781C701B401A50165
:10285000F9010995082F01701070C80160960FB634
:10286000F894DEBF0FBECDBFDF91CF911F910F91C6
:10287000FF90EF90DF90CF90BF90AF909F908F90A0
:102880007F906F905F904F903F902F9008952081A0
:1028900031813B872A8720E330E031832083228106
:1028A00033813B832A83938382838285898381E07A
:1028B0008287C784D088A188B288C601B5019101FA
:1028C000A2010E94FD1401E0803009F0C4CF681815
:1028D000790800E010E080E390E04C01D801C301EA
:1028E000A817B90708F06CC0F5012085318511964D
:1028F000C601A401B801F9012D010995D20180306A
:1029000071F39ECF00E010E00AC08A859B858C01A0
:10291000169507950196969587959B878A87F70167
:10292000E280F380C080D180A188B28887849088BB
:1029300080E090E08017910770F4F50120853185E3
:1029400001963C01C401A601B701F9010995803047
:10295000C30181F375CFC401B5019101A2010C81BE
:102960001D810E94FD14803009F06ACFF501268197
:102970003781C4016E817F8148855985F9010995A8
:10298000803009F05DCFA0E0B0E001E08A859B8552
:10299000A817B90708F0012D8A859B85A817B907E4
:1029A00008F059CFF501208531851196C401A601A3
:1029B000B701F9012D010995D201803031F34BCFD8
:1029C000F50126813781C6016E817F814885598551
:1029D000F9010995803009F033CFF7018A859B858D
:1029E00091838083898182878A819B81938382837B
:1029F000012D31CFCB010E947E15AF92BF92CF92B5
:102A0000DF92EF92FF92DA017B0161E170E041E039
:102A100021153105A607B70709F0412D4170403057
:102A200071F4F701A084B1846C01A901BD01F50125
:102A30000995282FC601203011F081E00DC0011545
:102A4000110549F0F7012681378140E050E0B801D7
:102A5000F901099501C0812D9927FF90EF90DF9032
:102A6000CF90BF90AF900895CF93DF93CDB7DEB7EF
:102A700060970FB6F894DEBF0FBECDBF20E030E008
:102A80003A872987E1E0F0E0FC83EB83DE011D96C5
:102A9000BA83A98338872F83FE83ED83788B6F8772
:102AA0009E878D87CE010196BA010E94FA1488E1B3
:102AB00091E06BE270E04CE051E00E943415CF935E
:102AC000DF93CDB7DEB72C970FB6F894DEBF0FBEFD
:102AD000CDBFBC0180E090E09A87898721E030E09B
:102AE0003C832B8348E051E05A83498398878F8346
:102AF0003E832D83CE0101960E94FA142F923F92BD
:102B00004F925F926F927F928F929F92AF92BF92FD
:102B1000CF92DF92EF92FF920F931F93CF93DF93A9
:102B2000CDB7DEB72A970FB6F894DEBF0FBECDBF84
:102B3000F89421E02093D8021CBC5998519A22E2C3
:102B400030E03093C5002093C40022E02093C00001
:102B500028E12093C10026E02093C2002091C0000C
:102B600020722030D9F32091C00020722030D9F398
:102B70002DE02093C6002091C00020722030D9F3B0
:102B80002AE02093C6002091C00020722030D9F3A3
:102B90002DE02093C6002091C00020722030D9F390
:102BA0002AE02093C600FC01E680F780C480D5802F
:102BB00082819381A081B1812091C0002072203058
:102BC000D9F320E52093C6002091C0002072203068
:102BD000D9F321E62093C6002091C0002072203056
:102BE000D9F32EE62093C6002091C0002072203039
:102BF000D9F329E62093C6002091C000207220302E
:102C0000D9F323E62093C6002091C0002072203023
:102C1000D9F320E22093C6002091C000207220301A
:102C2000D9F32FE62093C6002091C00020722030F7
:102C3000D9F323E62093C6002091C00020722030F3
:102C4000D9F323E62093C6002091C00020722030E3
:102C5000D9F325E72093C6002091C00020722030D0
:102C6000D9F322E72093C6002091C00020722030C3
:102C7000D9F322E72093C6002091C00020722030B3
:102C8000D9F325E62093C6002091C00020722030A1
:102C9000D9F324E62093C6002091C0002072203092
:102CA000D9F320E22093C6002091C000207220308A
:102CB000D9F329E62093C6002091C000207220306D
:102CC000D9F32EE62093C6002091C0002072203058
:102CD000D9F320E22093C6002091C000207220305A
:102CE000D9F326E62093C6002091C0002072203040
:102CF000D9F329E62093C6002091C000207220302D
:102D0000D9F32CE62093C6002091C0002072203019
:102D1000D9F325E62093C6002091C0002072203010
:102D2000D9F320E22093C6002091C0002072203009
:102D3000D9F327E22093C6008115910571F08A0F1F
:102D40009B1F2C913091C00030723030D9F320930A
:102D5000C6001196A817B907A1F78091C00080722C
:102D60008030D9F387E28093C6008091C0008072E2
:102D70008030D9F380E28093C6008091C0008072D9
:102D80008030D9F381E68093C6008091C0008072C4
:102D90008030D9F384E78093C6008091C0008072B0
:102DA0008030D9F380E28093C6008091C0008072A9
:102DB0008030D9F38CE68093C6008091C000807289
:102DC0008030D9F389E68093C6008091C00080727C
:102DD0008030D9F38EE68093C6008091C000807267
:102DE0008030D9F385E68093C6008091C000807260
:102DF0008030D9F380E28093C6002AE030E000E022
:102E000010E0B601C701A8010E94851A60636A87B5
:102E1000960181E02A303105E006F10608F0812DA7
:102E20008170803019F0E9E0F0E034C089E090E092
:102E30004C01CE0101961C0106C0817080309601C4
:102E4000750109F023C02901B201C7012AE030E071
:102E50003901A8010E94851A69015A01B601C5010C
:102E60009301A8010E94851A6063C4010197D101F2
:102E70004C01A80FB91F6C9381E0920124363105F3
:102E8000E006F10608F4D9CF812DD7CFF401EA305E
:102E9000F10589F0CE010196DC01AE0FBF1F2C9128
:102EA0003091C00030723030D9F32093C600319693
:102EB000EA30F10589F78091C00080728030D9F343
:102EC0008AE08093C6002D98259A87EF9FE32BE731
:102ED0003AE14BE754E04FC0FA013197F1F72D98F2
:102EE000FC013197F1F7FC013197F1F7FC013197C3
:102EF000F1F7FC013197F1F7FC013197F1F7FC0193
:102F00003197F1F7FC013197F1F7FC013197F1F7B7
:102F1000FC013197F1F7FC013197F1F7FC01319792
:102F2000F1F7FC013197F1F7FC013197F1F7FC0162
:102F30003197F1F7FC013197F1F7FC013197F1F787
:102F4000FC013197F1F7FC013197F1F7FC01319762
:102F5000F1F7FC013197F1F7FC013197F1F7FC0132
:102F60003197F1F7FC013197F1F7FC013197F1F757
:102F7000F9013197F1F72D9AFC013197F1F7FC0136
:102F80003197F1F7FC013197F1F7FC013197F1F737
:102F9000FC013197F1F7FC013197F1F7FC01319712
:102FA000F1F7FC013197F1F7FC013197F1F7FC01E2
:102FB0003197F1F7FC013197F1F7FC013197F1F707
:102FC000FC013197F1F7FC013197F1F7FC013197E2
:102FD000F1F7FC013197F1F7FC013197F1F7FC01B2
:102FE0003197F1F7FC013197F1F7FC013197F1F7D7
:102FF000FC013197F1F7FC013197F1F7FC013197B2
:10300000F1F7FC013197F1F7F9013197F1F72D98BC
:10301000FC013197F1F7FC013197F1F7FC01319791
:10302000F1F7FC013197F1F7FC013197F1F7FC0161
:103030003197F1F7FC013197F1F7FC013197F1F786
:10304000FC013197F1F7FC013197F1F7FC01319761
:10305000F1F7FC013197F1F7FC013197F1F7FC0131
:103060003197F1F7FC013197F1F7FC013197F1F756
:10307000FC013197F1F7FC013197F1F7FC01319731
:10308000F1F7FC013197F1F7FC013197F1F7FC0101
:103090003197F1F7FC013197F1F7FC013197F1F726
:1030A000F9013197F1F72D9AFC013197F1F7FC0105
:1030B0003197F1F7FC013197F1F7FC013197F1F706
:1030C000FC013197F1F7FC013197F1F7FC013197E1
:1030D000F1F7FC013197F1F7FC013197F1F7FC01B1
:1030E0003197F1F7FC013197F1F7FC013197F1F7D6
:1030F000FC013197F1F7FC013197F1F7FC013197B1
:10310000F1F7FC013197F1F7FC013197F1F7FC0180
:103110003197F1F7FC013197F1F7FC013197F1F7A5
:10312000FC013197F1F7FC013197F1F7FC01319780
:10313000F1F7FC013197F1F7F9013197F1F72D988B
:10314000FC013197F1F7FC013197F1F7FC01319760
:10315000F1F7FC013197F1F7FC013197F1F7FC0130
:103160003197F1F7FC013197F1F7FC013197F1F755
:10317000FC013197F1F7FC013197F1F7FC01319730
:10318000F1F7FC013197F1F7FC013197F1F7FC0100
:103190003197F1F7FC013197F1F7FC013197F1F725
:1031A000FC013197F1F7FC013197F1F7FC01319700
:1031B000F1F7FC013197F1F7FC013197F1F7FC01D0
:1031C0003197F1F7FC013197F1F7FC013197F1F7F5
:1031D000F9013197F1F72D9AFC013197F1F7FC01D4
:1031E0003197F1F7FC013197F1F7FC013197F1F7D5
:1031F000FC013197F1F7FC013197F1F7FC013197B0
:10320000F1F7FC013197F1F7FC013197F1F7FC017F
:103210003197F1F7FC013197F1F7FC013197F1F7A4
:10322000FC013197F1F7FC013197F1F7FC0131977F
:10323000F1F7FC013197F1F7FC013197F1F7FC014F
:103240003197F1F7FC013197F1F7FC013197F1F774
:10325000FC013197F1F7FC013197F1F7FC0131974F
:10326000F1F7FC013197F1F7F9013197F1F72D985A
:10327000FC013197F1F7FC013197F1F7FC0131972F
:10328000F1F7FC013197F1F7FC013197F1F7FC01FF
:103290003197F1F7FC013197F1F7FC013197F1F724
:1032A000FC013197F1F7FC013197F1F7FC013197FF
:1032B000F1F7FC013197F1F7FC013197F1F7FC01CF
:1032C0003197F1F7FC013197F1F7FC013197F1F7F4
:1032D000FC013197F1F7FC013197F1F7FC013197CF
:1032E000F1F7FC013197F1F7FC013197F1F7FC019F
:1032F0003197F1F7FC013197F1F7FC013197F1F7C4
:10330000F9013197F1F72D9AB801F80107C0A170C2
:103310006F5F7F4FEF4FFF4FA03059F0DC011197E7
:10332000F1F7A1E069377105E007F10780F3A12DFE
:10333000EECFFA013197F1F72D98FC013197F1F7B3
:10334000FC013197F1F7FC013197F1F7FC0131975E
:10335000F1F7FC013197F1F7FC013197F1F7FC012E
:103360003197F1F7FC013197F1F7FC013197F1F753
:10337000FC013197F1F7FC013197F1F7FC0131972E
:10338000F1F7FC013197F1F7FC013197F1F7FC01FE
:103390003197F1F7FC013197F1F7FC013197F1F723
:1033A000FC013197F1F7FC013197F1F7FC013197FE
:1033B000F1F7FC013197F1F7FC013197F1F7FC01CE
:1033C0003197F1F7FC013197F1F7F9013197F1F7F6
:1033D0002D9AB801F80107C0A1706F5F7F4FEF4FC2
:1033E000FF4FA03059F0DC011197F1F7A1E06937E8
:1033F0007105E007F10780F3A12DEECFFA013197B7
:10340000F1F72D98FC013197F1F7FC013197F1F7B5
:10341000FC013197F1F7FC013197F1F7FC0131978D
:10342000F1F7FC013197F1F7FC013197F1F7FC015D
:103430003197F1F7FC013197F1F7FC013197F1F782
:10344000FC013197F1F7FC013197F1F7FC0131975D
:10345000F1F7FC013197F1F7FC013197F1F7FC012D
:103460003197F1F7FC013197F1F7FC013197F1F752
:10347000FC013197F1F7FC013197F1F7FC0131972D
:10348000F1F7FC013197F1F7FC013197F1F7FC01FD
:103490003197F1F7F9013197F1F72D9AB801F80159
:1034A00009C0A1706F5F7F4FEF4FFF4FA03011F445
:1034B0000C946C17DC011197F1F7A1E069377105E5
:1034C000E007F10770F3A12DECCF991B79E004C060
:1034D000991F961708F0961B881F7A95C9F7809553
:1034E0000895AA1BBB1B51E107C0AA1FBB1FA6174B
:1034F000B70710F0A61BB70B881F991F5A95A9F79D
:1035000080959095BC01CD010895A1E21A2EAA1BC9
:10351000BB1BFD010DC0AA1FBB1FEE1FFF1FA21783
:10352000B307E407F50720F0A21BB30BE40BF50B80
:10353000661F771F881F991F1A9469F76095709509
:10354000809590959B01AC01BD01CF010895F89441
:02355000FFCFAB
:1035520043012000630112003D02390076020A0095
:10356200000000000000000063616C6C6564206074
:103572004F7074696F6E3A3A756E7772617028296E
:1035820060206F6E206120604E6F6E6560207661F4
:103592006C7565696E646578206F7574206F66203E
:1035A200626F756E64733A20746865206C656E2074
:1035B200697320206275742074686520696E646581
:1035C200782069732030303031303230333034304B
:1035D20035303630373038303931303131313231BF
:1035E20033313431353136313731383139323032A5
:1035F2003132323233323432353236323732383295
:103602003933303331333233333334333533363382
:103612003733383339343034313432343334343468
:10362200353436343734383439353035313532354E
:103632003335343535353635373538353936303634
:103642003136323633363436353636363736383624
:103652003937303731373237333734373537363712
:1036620037373837393830383138323833383438F8
:1036720035383638373838383939303931393239DE
:10368200333934393539363937393839396174741F
:10369200656D707420746F2063616C63756C617406
:1036A20065207468652072656D61696E646572205B
:1036B2007769746820612064697669736F72206F1C
:1036C20066207A65726F3C72656461637465643EFC
:1036D200476976656E20696E646578206973206F2C
:1036E2007574206F6620626F756E6473696E74659F
:1036F200726E616C206572726F723A20656E7465CB
:1037020072656420756E726561636861626C6520C2
:04371200636F646518
:00000001FF
