:100000000C9442000C940A060C945F000C945F0060
:100010000C945F000C947D050C945F000C945F00C1
:100020000C945F000C945F000C945F000C945F00D4
:100030000C945F000C9444050C945A050C945F00DA
:100040000C945F000C945F000C945F000C945F00B4
:100050000C945F000C9418060C945F000C945F00E5
:100060000C945F000C945F0000010400020100008A
:10007000020103000200031005000400050604004D
:100080000506002011241FBECFEFD8E0DEBFCDBF94
:1000900012E0A0E0B1E0E6EBF7E302C005900D92BC
:1000A000A43DB107D9F722E0A4EDB2E001C01D9252
:1000B000A83EB207E1F70E9461060C94D91B0C948C
:1000C00000002F923F924F925F926F927F928F9299
:1000D0009F92AF92BF92CF92DF92EF92FF920F93D7
:1000E0001F93CF93DF93CDB7DEB72A970FB6F8945F
:1000F000DEBF0FBECDBF21E02093E7025998519A91
:1001000022E230E03093C5002093C40022E0209327
:10011000C00028E12093C10026E02093C200209176
:10012000C00020722030D9F32091C000207220300E
:10013000D9F32AE02093C6002091C000207220301D
:10014000D9F32AE02093C600FC0186819781FC0147
:10015000E680F780C480D58082819381A081B181BF
:100160002091C00020722030D9F320E52093C600F2
:100170002091C00020722030D9F321E62093C600E0
:100180002091C00020722030D9F32EE62093C600C3
:100190002091C00020722030D9F329E62093C600B8
:1001A0002091C00020722030D9F323E62093C600AE
:1001B0002091C00020722030D9F320E22093C600A5
:1001C0002091C00020722030D9F32FE62093C60082
:1001D0002091C00020722030D9F323E62093C6007E
:1001E0002091C00020722030D9F323E62093C6006E
:1001F0002091C00020722030D9F325E72093C6005B
:100200002091C00020722030D9F322E72093C6004D
:100210002091C00020722030D9F322E72093C6003D
:100220002091C00020722030D9F325E62093C6002B
:100230002091C00020722030D9F324E62093C6001C
:100240002091C00020722030D9F320E22093C60014
:100250002091C00020722030D9F329E62093C600F7
:100260002091C00020722030D9F32EE62093C600E2
:100270002091C00020722030D9F320E22093C600E4
:100280002091C00020722030D9F326E62093C600CA
:100290002091C00020722030D9F329E62093C600B7
:1002A0002091C00020722030D9F32CE62093C600A4
:1002B0002091C00020722030D9F325E62093C6009B
:1002C0002091C00020722030D9F320E22093C60094
:1002D0002091C00020722030D9F327E22093C6007D
:1002E0008115910571F08A0F9B1F2C913091C000F0
:1002F00030723030D9F32093C6001196A817B90791
:10030000A1F78091C00080728030D9F387E280939A
:10031000C6008091C00080728030D9F380E2809363
:10032000C6008091C00080728030D9F381E680934E
:10033000C6008091C00080728030D9F384E780933A
:10034000C6008091C00080728030D9F380E2809333
:10035000C6008091C00080728030D9F38CE6809313
:10036000C6008091C00080728030D9F389E6809306
:10037000C6008091C00080728030D9F38EE68093F1
:10038000C6008091C00080728030D9F385E68093EA
:10039000C6008091C00080728030D9F380E28093E3
:1003A000C60081E091E098878F839E838D839C8334
:1003B0008B839A8389832AE030E000E010E0B60165
:1003C000C701A8010E94B71B60636A87960181E09C
:1003D00089872A303105E006F10608F0812D817009
:1003E000803011F40C94130589E090E04C01CE01AB
:1003F0000196F401DC01AE0FBF1F2C913091C000BB
:1004000030723030D9F32093C6003196EA30F105CE
:1004100089F78091C00080728030D9F38AE08093A0
:10042000C6002D98259A87EF9FE32BE73AE14BE72B
:1004300054E04FC0FA013197F1F72D98FC01319744
:10044000F1F7FC013197F1F7FC013197F1F7FC016D
:100450003197F1F7FC013197F1F7FC013197F1F792
:10046000FC013197F1F7FC013197F1F7FC0131976D
:10047000F1F7FC013197F1F7FC013197F1F7FC013D
:100480003197F1F7FC013197F1F7FC013197F1F762
:10049000FC013197F1F7FC013197F1F7FC0131973D
:1004A000F1F7FC013197F1F7FC013197F1F7FC010D
:1004B0003197F1F7FC013197F1F7FC013197F1F732
:1004C000FC013197F1F7FC013197F1F7F901319710
:1004D000F1F72D9AFC013197F1F7FC013197F1F713
:1004E000FC013197F1F7FC013197F1F7FC013197ED
:1004F000F1F7FC013197F1F7FC013197F1F7FC01BD
:100500003197F1F7FC013197F1F7FC013197F1F7E1
:10051000FC013197F1F7FC013197F1F7FC013197BC
:10052000F1F7FC013197F1F7FC013197F1F7FC018C
:100530003197F1F7FC013197F1F7FC013197F1F7B1
:10054000FC013197F1F7FC013197F1F7FC0131978C
:10055000F1F7FC013197F1F7FC013197F1F7FC015C
:100560003197F1F7F9013197F1F72D98FC013197A7
:10057000F1F7FC013197F1F7FC013197F1F7FC013C
:100580003197F1F7FC013197F1F7FC013197F1F761
:10059000FC013197F1F7FC013197F1F7FC0131973C
:1005A000F1F7FC013197F1F7FC013197F1F7FC010C
:1005B0003197F1F7FC013197F1F7FC013197F1F731
:1005C000FC013197F1F7FC013197F1F7FC0131970C
:1005D000F1F7FC013197F1F7FC013197F1F7FC01DC
:1005E0003197F1F7FC013197F1F7FC013197F1F701
:1005F000FC013197F1F7FC013197F1F7F9013197DF
:10060000F1F72D9AFC013197F1F7FC013197F1F7E1
:10061000FC013197F1F7FC013197F1F7FC013197BB
:10062000F1F7FC013197F1F7FC013197F1F7FC018B
:100630003197F1F7FC013197F1F7FC013197F1F7B0
:10064000FC013197F1F7FC013197F1F7FC0131978B
:10065000F1F7FC013197F1F7FC013197F1F7FC015B
:100660003197F1F7FC013197F1F7FC013197F1F780
:10067000FC013197F1F7FC013197F1F7FC0131975B
:10068000F1F7FC013197F1F7FC013197F1F7FC012B
:100690003197F1F7F9013197F1F72D98FC01319776
:1006A000F1F7FC013197F1F7FC013197F1F7FC010B
:1006B0003197F1F7FC013197F1F7FC013197F1F730
:1006C000FC013197F1F7FC013197F1F7FC0131970B
:1006D000F1F7FC013197F1F7FC013197F1F7FC01DB
:1006E0003197F1F7FC013197F1F7FC013197F1F700
:1006F000FC013197F1F7FC013197F1F7FC013197DB
:10070000F1F7FC013197F1F7FC013197F1F7FC01AA
:100710003197F1F7FC013197F1F7FC013197F1F7CF
:10072000FC013197F1F7FC013197F1F7F9013197AD
:10073000F1F72D9AFC013197F1F7FC013197F1F7B0
:10074000FC013197F1F7FC013197F1F7FC0131978A
:10075000F1F7FC013197F1F7FC013197F1F7FC015A
:100760003197F1F7FC013197F1F7FC013197F1F77F
:10077000FC013197F1F7FC013197F1F7FC0131975A
:10078000F1F7FC013197F1F7FC013197F1F7FC012A
:100790003197F1F7FC013197F1F7FC013197F1F74F
:1007A000FC013197F1F7FC013197F1F7FC0131972A
:1007B000F1F7FC013197F1F7FC013197F1F7FC01FA
:1007C0003197F1F7F9013197F1F72D98FC01319745
:1007D000F1F7FC013197F1F7FC013197F1F7FC01DA
:1007E0003197F1F7FC013197F1F7FC013197F1F7FF
:1007F000FC013197F1F7FC013197F1F7FC013197DA
:10080000F1F7FC013197F1F7FC013197F1F7FC01A9
:100810003197F1F7FC013197F1F7FC013197F1F7CE
:10082000FC013197F1F7FC013197F1F7FC013197A9
:10083000F1F7FC013197F1F7FC013197F1F7FC0179
:100840003197F1F7FC013197F1F7FC013197F1F79E
:10085000FC013197F1F7FC013197F1F7F90131977C
:10086000F1F72D9AB801F80107C0A1706F5F7F4FB3
:10087000EF4FFF4FA03059F0DC011197F1F7A1E0E5
:1008800069377105E007F10780F3A12DEECFFA017A
:100890003197F1F72D98FC013197F1F7FC01319771
:1008A000F1F7FC013197F1F7FC013197F1F7FC0109
:1008B0003197F1F7FC013197F1F7FC013197F1F72E
:1008C000FC013197F1F7FC013197F1F7FC01319709
:1008D000F1F7FC013197F1F7FC013197F1F7FC01D9
:1008E0003197F1F7FC013197F1F7FC013197F1F7FE
:1008F000FC013197F1F7FC013197F1F7FC013197D9
:10090000F1F7FC013197F1F7FC013197F1F7FC01A8
:100910003197F1F7FC013197F1F7FC013197F1F7CD
:10092000FC013197F1F7F9013197F1F72D9AB801F0
:10093000F80107C0A1706F5F7F4FEF4FFF4FA030EE
:1009400059F0DC011197F1F7A1E069377105E00773
:10095000F10780F3A12DEECFFA013197F1F72D9831
:10096000FC013197F1F7FC013197F1F7FC01319768
:10097000F1F7FC013197F1F7FC013197F1F7FC0138
:100980003197F1F7FC013197F1F7FC013197F1F75D
:10099000FC013197F1F7FC013197F1F7FC01319738
:1009A000F1F7FC013197F1F7FC013197F1F7FC0108
:1009B0003197F1F7FC013197F1F7FC013197F1F72D
:1009C000FC013197F1F7FC013197F1F7FC01319708
:1009D000F1F7FC013197F1F7FC013197F1F7FC01D8
:1009E0003197F1F7FC013197F1F7FC013197F1F7FD
:1009F000F9013197F1F72D9AB801F80109C0A170FA
:100A00006F5F7F4FEF4FFF4FA03011F40C941A022D
:100A1000DC011197F1F7A1E069377105E007F107F3
:100A200070F3A12DECCF89E090E04C01CE0101964E
:100A30001C0107C0817080309601750111F00C9483
:100A4000F7012901B201C7012AE030E03901A8010C
:100A50000E94B71B69015A01B601C5019301A801A3
:100A60000E94B71B6063C4010197D1014C01A80F1C
:100A7000B91F6C9381E0920124363105E006F1063E
:100A800008F4D8CF812DD6CF0F920FB60F921F92B8
:100A900011248F9381E08093E70280E280938000AD
:100AA00010926F001092D4028F911F900F900FBE82
:100AB0000F9018950F920FB60F922F933F938F932D
:100AC0009F938091D5029091D6022091D7023091C8
:100AD000D802805F9F4F2F4F3F4F9093D602809355
:100AE000D5023093D8022093D7029F918F913F91E6
:100AF0002F910F900FBE0F9018950F920FB60F9277
:100B00001F9211242F933F934F935F936F937F9383
:100B10008F939F93AF93BF93CF93DF93EF93FF9305
:100B2000CDB7DEB721970FB6F894DEBF0FBECDBFAD
:100B300081E08093E70289B1A9EDB2E00FB6F894A5
:100B40009C910FBE973008F055C082958370282F76
:100B50003327E92FFF27EE0FFF1FEE0FFF1FE22BBA
:100B6000F32BE859FF4F81E0DE01119691E02591CA
:100B70002D939150E1F79981292F2F70273008F09C
:100B800041C0A9EDB2E00FB6F8942C930FBE929538
:100B90009F70923021E009F0212D913011F0220F49
:100BA000822FA82FBB27AF52BD4F8C91AAEDB2E088
:100BB0000FB6F8949C910FBE980F0FB6F8949C93C3
:100BC0000FBE21960FB6F894DEBF0FBECDBFFF91CA
:100BD000EF91DF91CF91BF91AF919F918F917F91D5
:100BE0006F915F914F913F912F911F900F900FBE8A
:100BF0000F9018958BE492E06CE170E040E151E0D9
:100C00000E94721B89EA92E068E270E040E151E0E4
:100C10000E94721B0F920FB60F928F938091DB028E
:100C200083958093DB028F910F900FBE0F901895E4
:100C30000F920FB60F921F9211242F933F938F9311
:100C40009F93AF93BF93EF93FF9381E08093E7026D
:100C500080917800909179002091E6023327220F4D
:100C6000331F23523D4FF901918380838091E60227
:100C700083959BEA899F912D1124969523E09202FA
:100C8000112480198093E60283958330912D09F019
:100C9000982FA92FBB27AD51BD4F8C9190917C000F
:100CA000907F982B90937C00FF91EF91BF91AF9133
:100CB0009F918F913F912F911F900F900FBE0F909A
:100CC00018950E9463062F923F924F925F926F9207
:100CD0007F928F929F92AF92BF92CF92DF92EF92CC
:100CE000FF920F931F93CF93DF93CDB7DEB7C55B12
:100CF000D0400FB6F894DEBF0FBECDBF8FB7F894CB
:100D00009091E702903009F06EC191E09093E70274
:100D10008FBF8AB18F7C8AB98BB180638BB9809188
:100D20006D00806380936D00809168008460809383
:100D3000680052989DBB83E08093690087E88093A8
:100D40007A0080E480937C0080917E0081608093B3
:100D50007E003898409880917E00846080937E0069
:100D60003A98429880917E00886080937E003B98FC
:100D7000439880917E00806180937E003C984498E7
:100D800080917E00806280937E003D98459880919E
:100D90007C00807F856080937C0080917A008064F5
:100DA00080937A0080917A0080748030D9F74091E6
:100DB00078005091790080917C00807F83608093DF
:100DC0007C0080917A00806480937A0080917A0020
:100DD00080748030D9F7209178003091790080912B
:100DE0007C00807F826080937C0080917A008064A8
:100DF00080937A0032952295307F3227207F3227E8
:100E000080917A0080748030D9F7E0917800F09179
:100E1000790080917C00807F876080937C00809146
:100E20007A00806480937A00207F307080917A000D
:100E300080748030D9F7809178009091790060912A
:100E40007E006F7D60937E003D98459A60917E00A4
:100E50006B7F60937E0042983A9A60917E00677F34
:100E600060937E0043983B9A60917E006F7E609312
:100E70007E0044983C9A2D98259A2B98239A249882
:100E80002C9A2A98229A60E56CBD61E06DBD789439
:100E900060917C00607F676060937C0060917A0065
:100EA000606460937A00982F9295907F8827FE2F38
:100EB000EE27E070FF70E82BF92BCA018F7090705D
:100EC0004C0180917A0080748030D9F75F01809165
:100ED00078009091790060917C00607F60937C0045
:100EE00060917A00606460937A0060917A00607427
:100EF0006030D9F70FB66F965FAF4EAF6F970FBEEA
:100F00006091780070917900E0917C00E07FE6606C
:100F1000E0937C00E0917A00E064E0937A00E09155
:100F20007A00E074E030D9F7E0917800F091790030
:100F3000A6E0B0E0B093E602A093E502A7E0B0E03F
:100F4000B093E402A093E302F093E202E093E102A3
:100F50007093E0026093DF029093DE028093DD02E3
:100F600041E04093DC024093E70287E480937C00F9
:100F700010927B008FEE80937A0080917C00807FBE
:100F800080937C002998219A5B98539A2A9A2998F1
:100F900000E010E0D8017801BD01C70107C0E17091
:100FA000E030412DDB017C0109F426C06F5F7F4FEB
:100FB0008F4F9F4FF42FF170F03079F01EBCE1E0BD
:100FC000A03CB105E006F10650F3E12DE8CFE42F97
:100FD000E095EF23E170E03089F3DDB4F1E0DD204E
:100FE000B2F7F12DF4CF8FBF8CE191E06BE270E0AE
:100FF00040E151E00E94721B28293929A501DA013C
:10100000A22BB32B299A29988DB58823EAF71EBC09
:101010008DB58823EAF71EBC8DB58823EAF71EBC80
:101020008DB58823EAF71EBC8DB58823EAF71EBC70
:101030008DB58823EAF71EBC8DB58823EAF71EBC60
:101040008DB58823EAF71EBC8DB58823EAF71EBC50
:101050008DB58823EAF71EBC8DB58823EAF71EBC40
:10106000299A29981092D40280E28093800080E12E
:101070008093810081E090E09093890080938800C4
:1010800082E090E090938B0080938A0080E090E271
:10109000909387008093860083E28093B00088E07D
:1010A0008093B1001092B40083E08093B3008091EC
:1010B000B100887F81608093B100000000008091C2
:1010C0008100887F8160809381002A9892E094BD9E
:1010D0008AEF87BD85E085BD90936E0016BC452FD5
:1010E0005527322F2227242B352B20953095C901E7
:1010F00096958795AC0156954795569547954827FF
:101100005927F901EF2FE295EF70FF27E427F52724
:10111000E227F327FE2FF295F07FEE27FF0FFF0F58
:10112000FF0FE82BF92BCF010FB6A596FFAFEEAF5F
:10113000A5970FBE969587959C0136952795369570
:10114000279528273927AF01452F42954F705527FE
:10115000422753274E275F27542F5295507F44270D
:10116000550F550F550F482B592BCA01FA010FB6D1
:10117000A396FFAFEEAFA3970FBE969587959C0100
:10118000369527953695279528273927452F429557
:101190004F705527422753274E275F27542F5295CC
:1011A000507F4427550F550F550F482B592BCA0117
:1011B000FA010FB6A196FFAFEEAFA1970FBE9695BD
:1011C00087959C01369527953695279528273927A9
:1011D000452F42954F705527422753274E275F27AB
:1011E000542F5295507F4427550F550F550F482BBC
:1011F000592BCA01FA010FB66D96FFAFEEAF6D978E
:101200000FBE969587959C0136952795369527951F
:1012100028273927452F42954F70552742275327B6
:101220004E275F27542F5295507F4427550F550F57
:10123000550F482B592BCA01FA010FB66996FFAF1B
:10124000EEAF69970FBE969587959C0136952795C9
:101250003695279528273927452F42954F705527D2
:10126000422753274E275F27542F5295507F4427FC
:10127000550F550F550F482B592BCA01FA010FB6C0
:101280006796FFAFEEAF67970FBE969587959C0167
:10129000369527953695279528273927452F429546
:1012A0004F705527422753274E275F27542F5295BB
:1012B000507F4427550F550F550F482B592BCA0106
:1012C000FA010FB66596FFAFEEAF65970FBE969524
:1012D00087959C0136952795369527952827392798
:1012E000452F42954F705527422753274E275F279A
:1012F000542F5295507F4427550F550F550F482BAB
:10130000592BCA01FA010FB66396FFAFEEAF639790
:101310000FBE969587959C0136952795369527950E
:1013200028273927452F42954F70552742275327A5
:101330004E275F27542F5295507F4427550F550F46
:10134000550F482B592BCA01FA010FB66196FFAF12
:10135000EEAF61970FBE969587959C0136952795C0
:101360003695279528273927452F42954F705527C1
:10137000422753274E275F27542F5295507F4427EB
:10138000550F550F550F482B592BCA01FA010FB6AF
:101390002F96FFAFEEAF2F970FBE969587959C01C6
:1013A000369527953695279528273927452F429535
:1013B0004F705527422753274E275F27542F5295AA
:1013C000507F4427550F550F550F482B592BCA01F5
:1013D000FA010FB62D96FFAFEEAF2D970FBE969583
:1013E00087959C0136952795369527952827392787
:1013F000452F42954F705527422753274E275F2789
:10140000542F5295507F4427550F550F550F482B99
:10141000592BCA01FA010FB62B96FFAFEEAF2B97EF
:101420000FBE969587959C013695279536952795FD
:1014300028273927452F42954F7055274227532794
:101440004E275F27542F5295507F4427550F550F35
:10145000550F482B592BCA01FA010FB62996FFAF39
:10146000EEAF29970FBE969587959C0136952795E7
:101470003695279528273927452F42954F705527B0
:10148000422753274E275F27542F5295507F4427DA
:10149000550F550F550F482B592BCA01FA010FB69E
:1014A0002796FFAFEEAF27970FBE969587959C01C5
:1014B000369527953695279528273927452F429524
:1014C0004F705527422753274E275F27542F529599
:1014D000507F4427550F550F550F482B592BCA01E4
:1014E000FA010FB62596FFAFEEAF25970FBE969582
:1014F00087959C0136952795369527952827392776
:10150000452F42954F705527422753274E275F2777
:10151000542F5295507F4427550F550F550F482B88
:10152000592BCA01FA010FB62396FFAFEEAF2397EE
:101530000FBE969587959C013695279536952795EC
:1015400028273927452F42954F7055274227532783
:101550004E275F27542F5295507F4427550F550F24
:10156000550F482B592BCA01FA010FB62196FFAF30
:10157000EEAF21970FBE969587959C0136952795DE
:101580003695279528273927452F42954F7055279F
:10159000422753274E275F27542F5295507F4427C9
:1015A000550F550F550F482B592BCA01FA01FEAFA5
:1015B000EDAF969587959C0136952795369527959D
:1015C00028273927452F42954F7055274227532703
:1015D0004E275F27542F5295507F4427550F550FA4
:1015E000550F482B592BCA01FA01FCAFEBAF96956A
:1015F00087959C0136952795369527952827392775
:10160000452F42954F705527422753274E275F2776
:10161000542F5295507F4427550F550F550F482B87
:10162000592BCA01FA01FAAFE9AF969587959C014B
:10163000369527953695279528273927452F4295A2
:101640004F705527422753274E275F27542F529517
:10165000507F4427550F550F550F482B592BCA0162
:10166000FA01F8AFEFAB969587959C0136952795D3
:101670003695279528273927452F42954F705527AE
:10168000422753274E275F27542F5295507F4427D8
:10169000550F550F550F482B592BCA01FA01FEABB8
:1016A000EDAB969587959C013695279536952795B0
:1016B00028273927452F42954F7055274227532712
:1016C0004E275F27542F5295507F4427550F550FB3
:1016D000550F482B592BCA01FA01FCABEBAB969581
:1016E00087959C0136952795369527952827392784
:1016F000452F42954F705527422753274E275F2786
:10170000542F5295507F4427550F550F550F482B96
:10171000592BCA01FA01FAABE9AB969587959C0162
:10172000369527953695279528273927452F4295B1
:101730004F705527422753274E275F27542F529526
:10174000507F4427550F550F550F482B592BCA0171
:1017500058AB4FA7969587959C013695279536955A
:10176000279528273927FA01EF2FE295EF70FF27F9
:10177000E227F327E427F527FE2FF295F07FEE27E7
:10178000FF0FFF0FFF0FE82BF92B7F01CD0196957F
:1017900087959C0136952795A9015695479542272F
:1017A0005327B295A295AF70AB27BF70AB27B69504
:1017B000A795A427B5270FB66F962EAD3FAD6F97AF
:1017C0000FBEA227B327BA2FB295B07FAA27BB0FAF
:1017D000BB0FBB0FA82BB92BCD01969587959C010C
:1017E00036952795A90156954795422753279D0180
:1017F000329522952F7023273F7023273695279502
:10180000242735272A273B27322F3295307F22275E
:10181000330F330F330F282B392BC901F901FEA7E2
:10182000EDA7969587959C0136952795A901569524
:101830004795422753279F01329522952F702327E2
:101840003F70232736952795242735272E273F27B6
:10185000322F3295307F2227330F330F330F282B4F
:10186000392BC901F901FCA7EBA7969587959C0137
:1018700036952795A90156954795422753279F01ED
:10188000329522952F7023273F7023273695279571
:10189000242735272E273F27322F3295307F2227C6
:1018A000330F330F330F282B392BC901F901FAA756
:1018B000E9A7969587959C0136952795A901569598
:1018C0004795422753279F01329522952F70232752
:1018D0003F70232736952795242735272E273F2726
:1018E000322F3295307F2227330F330F330F282BBF
:1018F000392BC901F901F8A7EFA3969587959C01AB
:1019000036952795A90156954795422753279F015C
:10191000329522952F7023273F70232736952795E0
:10192000242735272E273F27322F3295307F222735
:10193000330F330F330F282B392BC901F901FEA3C5
:10194000EDA3969587959C0136952795A901569507
:101950004795422753279F01329522952F702327C1
:101960003F70232736952795242735272E273F2795
:10197000322F3295307F2227330F330F330F282B2E
:10198000392BC901F901FCA3EBA3969587959C011E
:1019900036952795A90156954795422753279F01CC
:1019A000329522952F7023273F7023273695279550
:1019B000242735272E273F27322F3295307F2227A5
:1019C000330F330F330F282B392BC901F901FAA339
:1019D000E9A3969587959C0136952795A90156957B
:1019E0004795422753279F01329522952F70232731
:1019F0003F70232736952795242735272E273F2705
:101A0000322F3295307F2227330F330F330F282B9D
:101A1000392BC901F901F8A3EF8F969587959C01A1
:101A200036952795A90156954795422753279F013B
:101A3000329522952F7023273F70232736952795BF
:101A4000242735272E273F27322F3295307F222714
:101A5000330F330F330F282B392BC901F901FE8FB8
:101A6000ED8F969587959C0136952795A9015695FA
:101A70004795422753279F01329522952F702327A0
:101A80003F70232736952795242735272E273F2774
:101A9000322F3295307F2227330F330F330F282B0D
:101AA000392BC901F901FC8FEB8F969587959C0125
:101AB00036952795A90156954795422753279F01AB
:101AC000329522952F7023273F702327369527952F
:101AD000242735272E273F27322F3295307F222784
:101AE000330F330F330F282B392BC901F901FA8F2C
:101AF000E98F969587959C0136952795A90156956E
:101B00004795422753279F01329522952F7023270F
:101B10003F70232736952795242735272E273F27E3
:101B2000322F3295307F2227330F330F330F282B7C
:101B3000392BC901F901F88FEF8B969587959C0198
:101B400036952795A90156954795422753279F011A
:101B5000329522952F7023273F702327369527959E
:101B6000242735272E273F27322F3295307F2227F3
:101B7000330F330F330F282B392BC901F901FE8B9B
:101B8000ED8B969587959C0136952795A9015695DD
:101B90004795422753279F01329522952F7023277F
:101BA0003F70232736952795242735272E273F2753
:101BB000322F3295307F2227330F330F330F282BEC
:101BC000392BC901F901FC8BEB8B969587959C010C
:101BD00036952795A90156954795422753279F018A
:101BE000329522952F7023273F702327369527950E
:101BF000242735272E273F27322F3295307F222763
:101C0000330F330F330F282B392BC901F901FA8B0E
:101C1000E98B969587959C0136952795A901569550
:101C20004795422753279F01329522952F702327EE
:101C30003F70232736952795242735272E273F27C2
:101C4000322F3295307F2227330F330F330F282B5B
:101C5000392BC901F901F88BEF87969587959C017F
:101C600036952795A90156954795422753279F01F9
:101C7000329522952F7023273F702327369527957D
:101C8000242735272E273F27322F3295307F2227D2
:101C9000330F330F330F282B392BC901F901FE877E
:101CA000ED87969587959C0136952795A9015695C0
:101CB0004795422753279F01329522952F7023275E
:101CC0003F70232736952795242735272E273F2732
:101CD000322F3295307F2227330F330F330F282BCB
:101CE000392BC901F901FC87EB87969587959C01F3
:101CF00036952795A90156954795422753279F0169
:101D0000329522952F7023273F70232736952795EC
:101D1000242735272E273F27322F3295307F222741
:101D2000330F330F330F282B392BC901F901FA87F1
:101D3000E987969587959C0136952795A901569533
:101D40004795422753279F01329522952F702327CD
:101D50003F70232736952795242735272E273F27A1
:101D6000322F3295307F2227330F330F330F282B3A
:101D7000392BC901B90178876F83969587959C01A6
:101D800036952795A90156954795422753279B01DC
:101D9000329522952F7023273F702327369527955C
:101DA0002427352726273727322F3295307F2227C1
:101DB000330F330F330F282B392BC901B9017E8321
:101DC0006D83969587959C0136952795A901569523
:101DD0004795422753279B01329522952F70232741
:101DE0003F70232736952795242735272627372721
:101DF000322F3295307F2227330F330F330F282BAA
:101E0000392BC901B9017C836B83969587959C0119
:101E100036952795A90156954795422753279B014B
:101E2000329522952F7023273F70232736952795CB
:101E30002427352726273727322F3295307F222730
:101E4000330F330F330F282B392BC901B9017A8394
:101E50006983969587959C0136952795A901569596
:101E60004795422753279B01329522952F702327B0
:101E70003F70232736952795242735272627372790
:101E8000322F3295307F2227330F330F330F282B19
:101E9000392BC9012901969587959C01369527957F
:101EA000A9015695479542275327920132952295CD
:101EB0002F7023273F702327369527952427352712
:101EC00024253525322F3295307F2227330F330FCB
:101ED000330F282B392BC7018227932759016FEF26
:101EE0007FE03D011B010E94A31BFE01EB59FF4F48
:101EF0000FB66F96FFAFEEAF6F970FBE3E960FB661
:101F00006B96FFAFEEAF6B970FBE93AB82AB6F01DB
:101F1000C701969587959C01369527953695279507
:101F200028273927B701672F62956F7077276227B7
:101F300073276E257F25762F7295707F6627770F22
:101F4000770F770F682B792B4B01C50196958795F5
:101F50009C0136952795A901569547954227532709
:101F60009501329522952F7023273F7023273695B0
:101F70002795242735272A253B25322F3295307F78
:101F80002227330F330F330F282B392BC40182271D
:101F900093277901B1010E94A31BF60195AB84AB95
:101FA000C401969587959C0136952795369527957A
:101FB00028273927A401452F42954F7055274227DE
:101FC000532748255925542F5295507F4427550FA4
:101FD000550F550F482B592B5A01C70196958795D8
:101FE0009C0136952795A901569547954227532779
:101FF0009701329522952F7023273F70232736951E
:102000002795242735272E253F25322F3295307FDF
:102010002227330F330F330F282B392BC50182278B
:1020200093277901B1010E94A31BF60197AB86AB00
:10203000C501969587959C013695279536952795E8
:1020400028273927A501452F42954F70552742274C
:1020500053274A255B25542F5295507F4427550F0F
:10206000550F550F482B592B5A01C7019695879547
:102070009C0136952795A9015695479542275327E8
:102080009701329522952F7023273F70232736958D
:102090002795242735272E253F25322F3295307F4F
:1020A0002227330F330F330F282B392BC5018227FB
:1020B00093277901B1010E94A31BF60191AF80AF74
:1020C000C501969587959C01369527953695279558
:1020D00028273927A501452F42954F7055274227BC
:1020E00053274A255B25542F5295507F4427550F7F
:1020F000550F550F482B592B5A01C70196958795B7
:102100009C0136952795A901569547954227532757
:102110009701329522952F7023273F7023273695FC
:102120002795242735272E253F25322F3295307FBE
:102130002227330F330F330F282B392BC50182276A
:1021400093277901B1010E94A31BF60193AF82AFDF
:10215000C501969587959C013695279536952795C7
:1021600028273927A501452F42954F70552742272B
:1021700053274A255B25542F5295507F4427550FEE
:10218000550F550F482B592B5A01C7019695879526
:102190009C0136952795A9015695479542275327C7
:1021A0009701329522952F7023273F70232736956C
:1021B0002795242735272E253F25322F3295307F2E
:1021C0002227330F330F330F282B392B7501E226CB
:1021D000F3264901C701B1010E94A31BF60195AF87
:1021E00084AFC501969587959C01369527953695C0
:1021F000279528273927C501892F82958F70992720
:10220000822793278A259B25940136952795369515
:102210002795A90156954795422753279401329552
:1022200022952F7023273F70232736952795242743
:1022300035272825392528273927322F3295307F11
:102240002227330F330F330FF694E794E22AF32A51
:10225000C701B1010E94A31BF60197AF86AF0FB66D
:10226000A3968EAD9FADA3970FBE2DA53EA52827A3
:102270003927C901B1010E94A31B0FB6E7969FAF92
:102280008EAFE7970FBE0FB6A5968EAD9FADA59703
:102290000FBE68267926C301B1010E94A31B0FB6A9
:1022A000E5969FAF8EAFE5970FBE0FB6A1968EADA8
:1022B0009FADA1970FBE2BA53CA528273927C901A3
:1022C000B1010E94A31B0FB6E9969FAF8EAFE997AD
:1022D0000FBE0FB66D968EAD9FAD6D970FBE29A543
:1022E0003AA528273927C901B1010E94A31B0FB6BF
:1022F000EB969FAF8EAFEB970FBE0FB669968EAD84
:102300009FAD69970FBE2FA138A528273927C9018E
:10231000B1010E94A31B0FB6ED969FAF8EAFED9754
:102320000FBE0FB667968EAD9FAD67970FBE2DA1FE
:102330003EA128273927C901B1010E94A31B0FB66E
:10234000EF969FAF8EAFEF970FBE0FB665968EAD2F
:102350009FAD65970FBE2BA13CA128273927C90146
:10236000B1010E94A31B0FB6CF5BDF4F9FAF8EAFB3
:10237000C154D0400FBE0FB663968EAD9FAD63972C
:102380000FBE29A13AA128273927C901B1010E940E
:10239000A31B0FB6CD5BDF4F9FAF8EAFC354D040B2
:1023A0000FBE0FB661968EAD9FAD61970FBE2F8D9C
:1023B00038A128273927C901B1010E94A31B0FB6F4
:1023C000CB5BDF4F9FAF8EAFC554D0400FBE0FB673
:1023D0002F968EAD9FAD2F970FBE2D8D3E8D28274A
:1023E0003927C901B1010E94A31B0FB6C95BDF4F9A
:1023F0009FAF8EAFC754D0400FBE0FB62D968EAD97
:102400009FAD2D970FBE2B8D3C8D28273927C901F5
:10241000B1010E94A31B0FB6C75BDF4F9FAF8EAF0A
:10242000C954D0400FBE0FB62B968EAD9FAD2B97E3
:102430000FBE298D3A8D28273927C901B1010E9485
:10244000A31B0FB6C55BDF4F9FAF8EAFCB54D04001
:102450000FBE0FB629968EAD9FAD29970FBE2F895F
:10246000388D28273927C901B1010E94A31B0FB657
:10247000C35BDF4F9FAF8EAFCD54D0400FBE0FB6C2
:1024800027968EAD9FAD27970FBE2D893E892827B1
:102490003927C901B1010E94A31B0FB6C15BDF4FF1
:1024A0009FAF8EAFCF54D0400FBE0FB625968EADE6
:1024B0009FAD25970FBE2B893C8928273927C90155
:1024C000B1010E94A31B0FB6CF5ADF4F9FAF8EAF53
:1024D000C155D0400FBE0FB623968EAD9FAD23974A
:1024E0000FBE29893A8928273927C901B1010E94DD
:1024F000A31B0FB6CD5ADF4F9FAF8EAFC355D04051
:102500000FBE0FB621968EAD9FAD21970FBE2F85C2
:10251000388928273927C901B1010E94A31B0FB6AA
:10252000CB5ADF4F9FAF8EAFC555D0400FBE8DAD9C
:102530009EAD2D853E8528273927C901B1010E940E
:10254000A31B0FB6C95ADF4F9FAF8EAFC755D04000
:102550000FBE8BAD9CAD2B853C8528273927C90143
:10256000B1010E94A31B0FB6C75ADF4F9FAF8EAFBA
:10257000C955D0400FBE89AD9AAD29853A85282727
:102580003927C901B1010E94A31B0FB6C55ADF4FFD
:102590009FAF8EAFCB55D0400FBE8FA998AD2F8186
:1025A000388528273927C901B1010E94A31B0FB61E
:1025B000C35ADF4F9FAF8EAFCD55D0400FBE8DA910
:1025C0009EA92D813E8128273927C901B1010E948A
:1025D000A31B0FB6C15ADF4F9FAF8EAFCF55D04070
:1025E0000FBE8BA99CA92B813C8128273927C901C3
:1025F000B1010E94A31B0FB6CF59DF4F9FAF8EAF23
:10260000C156D0400FBE89A99AA929813A812827AD
:102610003927C901B1010E94A31B0FB6CD59DF4F65
:102620009FAF8EAFC356D0400FBE8FA598A9482646
:102630005926C201B1010E94A31B0FB66F962EADA1
:102640003FAD6F970FBE0FB6CB59DF4F9FAF8EAF29
:10265000C556D0400FBE88E090E00FB6CB58DF4F94
:102660009FAF8EAFC557D0400FBE0FB6A7961FAF16
:102670000EAFA7970FBE82E00FB6AD968EAFAD97A7
:102680000FBE0FB6C958DF4F1EAEC757D0400FBEA2
:10269000289A209A5F98579A5E98569A3C98449840
:1026A000C901805B9F4F0FB66D969FAF8EAF6D9740
:1026B0000FBEC901815B9F4F0FB6A1969FAF8EAF32
:1026C000A1970FBE225B3F4F0FB6A3963FAF2EAF31
:1026D000A3970FBEE1E08FB7F8942091D702309115
:1026E000D8020FB6A5963FAF2EAFA5970FBE40906C
:1026F000D5025090D6028FBF8091DB02C82E803069
:1027000009F4C9C03E2ED12C0BC08EB5289A8BB1CE
:10271000822B8BB98C2DD816E12D312C09F4BBC03E
:102720004091E1025091E202440F551F4050544045
:1027300081E0952F992391E00AF4912D2091DF02F9
:102740003091E002420F531F4217530748F4803084
:1027500020EF3FEF51F09827903059F4A9010EC0B7
:10276000812D803020EF3FEFB1F79801982790300E
:10277000A9F3440F551F440F551F407FA090DD0261
:10278000B090DE0276B026B00FB6A396AEADBFAD68
:10279000A3970FBE6C91603009F4E3C44A010FB6F1
:1027A000A196AEADBFADA1970FBE8C917D01839573
:1027B0000E94971B292FD7012C93822F9927203213
:1027C00008F0D7C4472D42954170880F991F0FB666
:1027D0006F962EAD3FAD6F970FBE820F931FFC011A
:1027E000868597850FB6A5962EAD3FADA5970FBEF2
:1027F0000FB6E3963FAF2EAFE3970FBE92010FB631
:10280000E1963FAF2EAFE1970FBE0FB6AF969FAFE9
:102810008EAFAF970FBE31E043270FB6AD964EAFE8
:10282000AD970FBE212D8816990608F4322F0FB6EA
:10283000AE963EAFAE970FBEA5015F73A1145105D2
:1028400019F0222D220F247038B13B7F322B38B97A
:102850002FE78816990608F42FEB439A3BB13223F1
:102860003BB92898232D203019F02DB52223EAF703
:10287000D394292F20632EBD2DB52223EAF72EB540
:102880008EBD2DB52223EAF720E48816990608F0BC
:102890003CCF20E83ACF8FB7F8943091DB02932FEA
:1028A0009C1921E0391708F0212D2030212D09F441
:1028B000292F2093DB028FBFAAEDB2E00FB6F89468
:1028C0008C910FBE803009F4F0C08FB7F8942AEDD8
:1028D00032E0D9010FB6F8949C910FBE0FB6F89470
:1028E0001C920FBE8FBF903009F4DFC086B10FB6C7
:1028F000A396AEADBFADA3970FBE3C910FB6A79602
:102900002EADA7970FBE203009F031958072803030
:1029100069F4232F225013160CF0232F290F822F36
:102920008E5F2F3F0CF07FC0822F7DC0532F5395B9
:1029300021E0523081E008F026C0191641E00CF089
:1029400027C0523008F0212D582F550F550B382F26
:102950003527351B532F5695652F6575732F761BBD
:10296000672F6373769576957373760F672F6295ED
:10297000670F6F702423921B613079F427E0492F91
:102980003030F1F4E8C3832F191641E00CF4D9CFAD
:10299000412D523008F0D7CFD7CF292F2827222317
:1029A0000AF4CCC32FEF903009F4212D41E0692FB8
:1029B00066230AF0422F490F28E0303009F4CBC3D8
:1029C000352B932F96959695932B392F32953F70F3
:1029D000392B3095932F96959575391B932F9373BB
:1029E000369536953373390F932F9295930F9F70C9
:1029F000291B88230AF42195240F822F880F880B26
:102A0000322F3827381B3F7181E090E0303041F0A1
:102A1000A801880F991F441F551F3A953030C9F7F8
:102A200022230AF48195982F990F990B682F692713
:102A3000691B603208F060E20FB6A396AEADBFAD81
:102A4000A3970FBE6C93881F8827881F0FB6A79681
:102A50008EAFA7970FBE603009F483C30FB6A1965F
:102A6000AEADBFADA1970FBE8C917D01DE2E0E9451
:102A7000971BED2DD7019C930FB6A5968EAD9FADFC
:102A8000A5970FBE0FB6AB969FAF8EAFAB970FBE9D
:102A9000C2010FB6A9969FAF8EAFA9970FBE81E076
:102AA0000FB6A8968EAFA8970FBE8091DD029091C9
:102AB000DE0226B10FB6A8963EADA8970FBE303005
:102AC00009F426C00FB6A9964EAD5FADA9970FBE0B
:102AD0000FB6AB966EAD7FADAB970FBE4854544F5B
:102AE0006F4F7F4F31E0D2014A175B070FB6A596B3
:102AF0004EAD5FADA5970FBE6407750708F0312D89
:102B00003170303029F00FB6A8961EAEA8970FBED0
:102B1000AC015F7391E08115510581E009F0812DD1
:102B20002270203009F0912D0FB6AD965EADAD97B5
:102B30000FBE5230412D212D312D09F450C00FB65A
:102B4000E1962EAD3FADE1970FBE0FB6E3966EADA9
:102B50007FADE3970FBE421A530AD2010FB6A59676
:102B60002EAD3FADA5970FBE260B370B0FB6A59622
:102B70003FAF2EAFA5970FBE5030B1F421E0AD01AD
:102B80004B3051050FB6A5964EAD5FADA5970FBE64
:102B90004007510708F4212D2170203029F052E020
:102BA0000FB6AE965EAF03C00FB6AE965EADAE97F3
:102BB0000FBE21E0AC33B1050FB6A5966EAD7FAD6B
:102BC000A5970FBE6007710741E008F0A8C151301A
:102BD00031E009F0A9C1503009F0212D4170892B55
:102BE00081708030812D09F484E098B19B7F982B0F
:102BF00098B9440F440F440F88B1877F842B88B95C
:102C0000203009F45DC0303009F45EC0203009F096
:102C10005F9A303009F05E9A4091E1025091E202F1
:102C2000440F551F4050544081E0952F992391E067
:102C30000AF4912D2091DF023091E002420F531FE0
:102C40004217530748F4803020EF3FEF51F09827A8
:102C5000903059F4A9010EC0812D803020EF3FEF54
:102C6000B1F7980198279030A9F3440F551F440FEE
:102C7000551F407F0FB6A8968EADA8970FBE803027
:102C800009F427C00FB6A396AEADBFADA3970FBE94
:102C90008C910FB6A7969EADA7970FBE9030982F38
:102CA00011F0982F9195282F220F220B8227821B3B
:102CB0008F73482F406499230AF441C1482F3FC1C4
:102CC0005F98303009F0A2CF5E98203009F0A0CF95
:102CD000A0CF0FB6A396AEADBFADA3970FBE8C919C
:102CE000803009F43EC20FB6A5965FAF4EAFA597F0
:102CF0000FBE0FB66996EEAF69970FBE0FB6A196DD
:102D0000AEADBFADA1970FBEAC90B82E8A2D6B2D86
:102D10000E94971BE92EEB0C83E06B2D0E94971B02
:102D2000F92EEF188E2D6B2D0E94971BC92EDD24D6
:102D3000903208F021C2CC0CDD1C0FB66F964EAC61
:102D40005FAC6F970FBEC40CD51CF60186849784C8
:102D50008A2D83956B2D0E94971B892F8B0D8F19C0
:102D60006B2D0E94971BC92EDD24903208F004C2FF
:102D7000CC0CDD1CC40CD51CF601268437848A2DAE
:102D80008E5F6B2D0E94971B892F8B0D8F196B2DDA
:102D90000E94971BC92EDD24903208F0EDC1CC0CA7
:102DA000DD1CC40CD51CF601868597850FB6679689
:102DB0009FAF8EAF67970FBE8A2D8D5F6B2D0E94E0
:102DC000971B892F8B0D8F196B2D0E94971BC92E76
:102DD000DD24903208F0D0C1CC0CDD1CC40CD51C15
:102DE000F601468457848A2D8C5F6B2D0E94971BB9
:102DF000892F8B0D8F196B2D0E94971BC92EDD24F7
:102E0000903208F0B9C1EA2C8A2D8B5F6B2D0E949D
:102E1000971B892F8B0D8F19AB2C6B2D0E94971B45
:102E2000292F3327903208F0A6C141E00FB6A596AE
:102E30006EAD7FADA5970FBE6815790581E008F4EA
:102E4000812D8295807F880F880F621573055E2D16
:102E500008F080620FB66796EEADFFAD67970FBEC4
:102E60006E177F0708F080616415750508F08860AB
:102E7000B82ECC0CDD1C0FB66B968EAD9FAD6B974C
:102E80000FBEC80ED91EF60180819181681779079F
:102E900081E008F4812D982E220F331F0FB66B9618
:102EA0008EAD9FAD6B970FBE280F391FF901808142
:102EB00091816817790708F4412DE42E5A5F852F18
:102EC000DA2C6D2D0E94971B892F8D0D8F196D2D7A
:102ED0000E94971BC92EDD24903208F04DC18B2D26
:102EE000897F990C990C982A4E2D440F4929CC0CB6
:102EF000DD1C0FB66F968EAD9FAD6F970FBEC80EDF
:102F0000D91EF601868597850FB6A5962EAD3FADE5
:102F1000A5970FBE2817390760F44E7F0BC0412DCF
:102F2000513031E009F457CE312D503009F055CEF3
:102F300055CE41600FB66996EEAD69970FBE0FB6DC
:102F40006D96AEADBFAD6D970FBE8C91481709F46D
:102F5000C2CB8091D402803009F0BDCB81E0809358
:102F6000D402842F82708030B80111F06FEF7FE0BF
:102F7000842F88708030C80111F08FEF9FE06C01C2
:102F8000842F80728030D80119F08FEF9FE0DC0130
:102F9000842F84708030C80111F08FEF9FE00FB64E
:102FA00069969FAF8EAF69970FBE842F8071803076
:102FB000780119F08FEF9FE07C012B01842F807442
:102FC0008030B80119F08FEF9FE0BC01842F817031
:102FD0008030980111F02FEF3FE05B010FB6A5960E
:102FE0004EAFA5970FBEE03019F08DB58823EAF7F4
:102FF000F201E2958E2F8F70F295F07FF82BB601DB
:103000006295862F8F707295707F782BA2958A2F8C
:103010008F70B295B07FB82BE07FAD010FB6699687
:10302000AEADBFAD69970FBECD01929582958F7001
:1030300089279F7089278295B82FC82EBF705F2E71
:10304000BE2B607FC701FC01F295E295EF70EF2780
:10305000FF70EF27E295FE2FFF70D72EF62B407FF3
:10306000B501729562956F7067277F7067276295CB
:10307000962F9F70752F942BA901529542954F70F2
:1030800045275F7045275A2D4295342F307F229572
:10309000207F22952F70232B3C2D307FA295A07F7F
:1030A000A295AF70A32BE07F8295807F82958F7071
:1030B0008E2BE82F607F5295507F52955F70562B74
:1030C0004F704EBD8DB58823EAF72EBD8DB5882390
:1030D000EAF75EBC0FB6A596FEACA5970FBE8DB500
:1030E0008823EAF7BEBD8DB58823EAF7AEBD8DB55E
:1030F0008823EAF7DEBC8DB58823EAF7FEBD8DB5DF
:103100008823EAF7EEBD8DB58823EAF77EBD8DB53D
:103110008823EAF79EBD8DB58823EAF75EBD80EA75
:1031200080938000E1E0E6BBE0936F000FB66D9600
:10313000AEADBFAD6D970FBEFC92CDCA41E09030F1
:1031400009F4412D292F22230AF44FEF490F27E0DC
:10315000303009F035CC98E0291B88230AF44BCC99
:103160004BCC80E792E069E370E040E151E00E94DF
:10317000721B0E9400196901C6010E940019CF93B9
:10318000DF93CDB7DEB72A970FB6F894DEBF0FBE38
:10319000CDBF9A87898780E091E09E838D8387E405
:1031A00091E09C838B8378876F8381E090E09A83A2
:1031B0008983CE0101960E94610008952DE637ECC7
:1031C000FC01378726878DEE95E29587848789EB0A
:1031D0009EE19387828783EB9EED9187808786EBC4
:1031E0009DEA9783868387E59EE89583848385EDB2
:1031F0009BEA9383828385E992E691838083089595
:10320000CF93DF93CDB7DEB768970FB6F894DEBFE4
:103210000FBECDBF20E230E03C832B839A838983AD
:1032200080E090E09E878D8782E090E098878F8392
:1032300028E031E03E832D839C878B87CE01419629
:103240009A87898787E399E1988F8F8B9E012F5FFB
:103250003F4F3E8B2D8B9C8B8B8BCE0103969A8B95
:10326000898BCE01059660E171E00E94BF182F9214
:103270003F924F925F926F927F928F929F92AF9206
:10328000BF92CF92DF92EF92FF920F931F93CF9353
:10329000DF93CDB7DEB7AF970FB6F894DEBF0FBEA2
:1032A000CDBF7B01FC010081118187E2003118074D
:1032B00008F447C060E177E2C8010E94A31B87E2DF
:1032C0006802802D112490E1699F912D1124980F9F
:1032D0007295707F790F872FC62E982F8827202D03
:1032E0003327282B392B021B130B64E670E0C8012F
:1032F0000E94A31BCB01880F991F87589E4FFC018A
:10330000808191819DA78CA784E67802902D11245D
:10331000689F4C2D812D1124890F982F8827202DEF
:103320003327282B392B021B130B000F111F0758B3
:103330001E4FF801808191819FA78EA783E290E0C4
:103340003FC00436110508F435C064E670E0C801DA
:103350000E94A31B84E67802902D1124689F812D82
:103360001124890F982F8827202D3327282B392BBC
:10337000021B130B000F111F07581E4FF80180810D
:1033800091819FA78EA785E290E08B010A301105FD
:10339000B0F002979E01275F3F4F280F391F000FA3
:1033A000111F07581E4FF80140815181F9015183C7
:1033B00040830DC087E290E00A30110550F7402F9E
:1033C0000197DE011996A80FB91F405D4C93F701D4
:1033D000A785B089AD014170507020E030E0E1E098
:1033E00041156A0151052207330709F0E12DE1700B
:1033F000E03031F4A90167E270E0E03039F008C054
:1034000041E150E067E270E0E03011F42BE230E09F
:10341000FE013996E80FF91F2F01681B790BCD01CA
:10342000982F9295907F8827990F990F990B892F44
:1034300007E411E008231923F7018481803009F49F
:1034400032C0C60ED71EF701858196813C01C81691
:10345000D90608F028C04601A870B07080E090E05E
:10346000E1E0A115B1058807990709F0E12DE170A8
:10347000E03078876F8309F449C01E830D835C8335
:103480004B83190168187908F7018285082F1127E5
:10349000823011050CF075C00115110509F07EC0D0
:1034A0007A82698280C05B01F701C584D684E38497
:1034B000F484C701B6010E943B1B803011F001E08B
:1034C00009C0F60126813781C701B201A501F901C2
:1034D0000995082F01701070C801AF960FB6F894C7
:1034E000DEBF0FBECDBFDF91CF911F910F91FF9037
:1034F000EF90DF90CF90BF90AF909F908F907F9094
:103500006F905F904F903F902F900895F7016081EA
:1035100071817E836D8360E370E07183608362817B
:1035200073817C836B83938382838285898381E02B
:103530008287C384D484A584B684C601B5010E9461
:103540003B1B01E0803009F0C5CF681879084301C2
:1035500000E010E080E390E03C01D801C401A8172E
:10356000B90708F06FC0F501208531851196C601B5
:10357000A301B801F9011D010995D101803071F352
:103580009ECF0230110551F4C3018C0116950795A9
:103590000196969587959A83898305C080E090E08F
:1035A0009A8389838301F701E280F380C080D18010
:1035B000A584B6848384948480E090E0801791078A
:1035C00070F4F5012085318501963C01C401A60106
:1035D000B701F90109958030C30181F370CFC401AF
:1035E000B50191014B815C810D811E810E943B1BC5
:1035F000803009F064CFF50126813781C401B20122
:103600004F815885F9010995803009F058CF80E045
:1036100090E069807A8001E08615970508F0012D19
:103620008615970508F056CFF5012085318501965E
:103630002C01C401A601B701F90109958030C2012E
:1036400051F348CFF50126813781C601B2014F8180
:103650005885F9010995803009F031CFF7018D8146
:103660009E8191838083898182878B819C819383D2
:103670008283012D2FCFAF92BF92CF92DF92EF9234
:10368000FF92DA016B017C0141E150E081E02115FC
:103690003105A407B50709F0812D8170803061F4F0
:1036A000F601A084B184C701A901BD01F501099506
:1036B000803011F081E00EC00115110551F0F601C6
:1036C0002681378140E050E0C701B801F901099532
:1036D00001C0812D9927FF90EF90DF90CF90BF9090
:1036E000AF900895CF93DF93CDB7DEB760970FB655
:1036F000F894DEBF0FBECDBF20E030E03A872987C7
:10370000E1E0F0E0FC83EB83FE013D96FA83E98380
:1037100038872F8327E431E03E832D83788B6F87B2
:103720009E878D87CE010196BA010E94BF18991B12
:1037300079E004C0991F961708F0961B881F7A95A8
:10374000C9F780950895AA1BBB1B51E107C0AA1FAA
:10375000BB1FA617B70710F0A61BB70B881F991F32
:103760005A95A9F780959095BC01CD010895A1E2E5
:103770001A2EAA1BBB1BFD010DC0AA1FBB1FEE1FEB
:10378000FF1FA217B307E407F50720F0A21BB30B36
:10379000E40BF50B661F771F881F991F1A9469F7B2
:1037A00060957095809590959B01AC01BD01CF010E
:0637B0000895F894FFCF1C
:1037B600DD1800000100DE18470120006701120035
:1037C60041020A00000000000000000063616C6C0A
:1037D600656420604F7074696F6E3A3A756E7772E1
:1037E6006170282960206F6E206120604E6F6E65C3
:1037F600602076616C7565696E646578206F757496
:10380600206F6620626F756E64733A207468652057
:103816006C656E206973202062757420746865205B
:10382600696E64657820697320303030313032300B
:103836003330343035303630373038303931303156
:103846003131323133313431353136313731383146
:103856003932303231323232333234323532363234
:10386600373238323933303331333233333334331A
:103876003533363337333833393430343134323400
:1038860033343434353436343734383439353035E6
:1038960031353235333534353535363537353835D6
:1038A60039363036313632363336343635363636C4
:1038B60037363836393730373137323733373437AA
:1038C6003537363737373837393830383138323890
:1038D6003338343835383638373838383939303976
:1038E6003139323933393439353936393739383966
:1038F600393C72656461637465643E476976656EDA
:1039060020696E646578206973206F7574206F6610
:1039160020626F756E6473000000000000000000F6
:10392600617474656D707420746F2063616C637567
:103936006C617465207468652072656D61696E647A
:103946006572207769746820612064697669736F8F
:1039560072206F66207A65726F696E7465726E6129
:103966006C206572726F723A20656E74657265645A
:1039760020756E726561636861626C6520636F6451
:04398600650001FFD8
:00000001FF
