:100000000C9442000C9427010C945F000C945F0048
:100010000C945F000C949A000C945F000C945F00A9
:100020000C945F000C945F000C945F000C945F00D4
:100030000C945F000C9461000C9477000C945F00AA
:100040000C945F000C945F000C945F000C945F00B4
:100050000C945F000C9435010C945F000C945F00CD
:100060000C945F000C945F0000010400020100008A
:10007000020103000200031005000400050604004D
:100080000506002011241FBECFEFD8E0DEBFCDBF94
:1000900012E0A0E0B1E0E4E8F7E302C005900D92C1
:1000A000A43CB107D9F722E0A4ECB2E001C01D9254
:1000B000A83DB207E1F70E947E010C94C01B0C948E
:1000C00000000F920FB60F921F9211248F9381E0C0
:1000D0008093D70280E28093800010926F0010928C
:1000E000C4028F911F900F900FBE0F9018950F9222
:1000F0000FB60F922F933F938F939F938091C502DA
:100100009091C6022091C7023091C802805F9F4F34
:100110002F4F3F4F9093C6028093C5023093C80281
:100120002093C7029F918F913F912F910F900FBE07
:100130000F9018950F920FB60F921F9211242F93C4
:100140003F934F935F936F937F938F939F93AF935F
:10015000BF93CF93DF93EF93FF93CDB7DEB7219794
:100160000FB6F894DEBF0FBECDBF81E08093D702FB
:1001700089B1A9ECB2E00FB6F8949C910FBE97300C
:1001800008F055C082958370282F3327E92FFF2769
:10019000EE0FFF1FEE0FFF1FE22BF32BE859FF4F6F
:1001A00081E0DE01119691E025912D939150E1F7C8
:1001B0009981292F2F70273008F041C0A9ECB2E0B7
:1001C0000FB6F8942C930FBE92959F70923021E059
:1001D00009F0212D913011F0220F822FA82FBB277B
:1001E000AF53BD4F8C91AAECB2E00FB6F8949C913E
:1001F0000FBE980F0FB6F8949C930FBE21960FB6C2
:10020000F894DEBF0FBECDBFFF91EF91DF91CF918C
:10021000BF91AF919F918F917F916F915F914F911E
:100220003F912F911F900F900FBE0F90189583E470
:1002300092E06CE170E048E051E00E94AC1789E97F
:1002400092E068E270E048E051E00E94AC170F9243
:100250000FB60F928F938091CB0283958093CB0240
:100260008F910F900FBE0F9018950F920FB60F92AF
:100270001F9211242F933F938F939F93AF93BF931C
:10028000EF93FF9381E08093D70280917800909163
:1002900079002091D6023327220F331F23533D4F7D
:1002A000F901918380838091D60283959BEA899F8F
:1002B000912D1124969523E09202112480198093A8
:1002C000D60283958330912D09F0982FA92FBB2753
:1002D000AD52BD4F8C9190917C00907F982B909364
:1002E0007C00FF91EF91BF91AF919F918F913F91D2
:1002F0002F911F900F900FBE0F9018950E948001B4
:100300002F923F924F925F926F927F928F929F9225
:10031000AF92BF92CF92DF92EF92FF920F931F9313
:10032000CF93DF93CDB7DEB7C05BD0400FB6F89464
:10033000DEBF0FBECDBF8FB7F8949091D70290303B
:1003400009F06EC191E09093D7028FBF8AB18F7C84
:100350008AB98BB180638BB980916D008063809383
:100360006D008091680084608093680052989DBB06
:1003700083E08093690087E880937A0080E480932B
:100380007C0080917E00816080937E003898409848
:1003900080917E00846080937E003A98429880919C
:1003A0007E00886080937E003B98439880917E0019
:1003B000806180937E003C98449880917E008062AA
:1003C00080937E003D98459880917C00807F856079
:1003D00080937C0080917A00806480937A00809181
:1003E0007A0080748030D9F7E0917800F09179003C
:1003F00080917C00807F836080937C0080917A0074
:10040000806480937A0080917A0080748030D9F77C
:10041000809178009091790020917C00207F22606B
:1004200020937C0020917A00206420937A0092959A
:100430008295907F9827807F982720917A0020745A
:100440002030D9F7209178003091790040917C00DC
:10045000407F476040937C0040917A004064409325
:100460007A00807F907040917A0040744030D9F7D4
:10047000409178005091790060917E006F7D60938B
:100480007E003D98459A60917E006B7F60937E0070
:1004900042983A9A60917E00677F60937E0043980D
:1004A0003B9A60917E006F7E60937E0044983C9AF8
:1004B0002D98259A2B98239A24982C9A2A98229A38
:1004C00060E56CBD61E06DBD789460917C00607FFB
:1004D000676060937C0060917A00606460937A004A
:1004E000542F5295507F4427322F222720703F707F
:1004F000242B352BAF014F7050704A0140917A0088
:1005000040744030D9F70FB66396FFAFEEAF6397F4
:100510000FBE409178005091790060917C00607F1F
:1005200060937C0060917A00606460937A006091CF
:100530007A0060746030D9F7590160917800709149
:100540007900E0917C00E07FE660E0937C00E09140
:100550007A00E064E0937A00E0917A00E074E030A1
:10056000D9F7E0917800F0917900A6E0B0E0B0937F
:10057000D602A093D502A7E0B0E0B093D402A09336
:10058000D302F093D202E093D1027093D002609331
:10059000CF025093CE024093CD0221E02093CC02B3
:1005A0002093D70247E440937C0010927B004FEEEB
:1005B00040937A0040917C00407F40937C002998D2
:1005C000219A5B98539A2A9A299800E010E0F80142
:1005D0007801AF01D70107C061706030212DFA01A9
:1005E0007D0109F426C04F5F5F4FAF4FBF4F722FA1
:1005F0007170703079F01EBC61E0E03CF105E006FE
:10060000F10650F3612DE8CF622F6095672361708A
:10061000603089F3DDB471E0DD20B2F7712DF4CFE5
:100620008FBF84E191E06BE270E048E051E00E940E
:10063000AC1788299929A501BA01682B792B299A29
:1006400029982DB52223EAF71EBC2DB52223EAF7FF
:100650001EBC2DB52223EAF71EBC2DB52223EAF7D6
:100660001EBC2DB52223EAF71EBC2DB52223EAF7C6
:100670001EBC2DB52223EAF71EBC2DB52223EAF7B6
:100680001EBC2DB52223EAF71EBC2DB52223EAF7A6
:100690001EBC2DB52223EAF71EBC299A2998109278
:1006A000C40220E22093800020E12093810021E019
:1006B00030E0309389002093880022E030E03093CE
:1006C0008B0020938A0020E030E230938700209353
:1006D000860023E22093B00028E02093B10010921E
:1006E000B40023E02093B3002091B100287F216063
:1006F0002093B1000000000020918100287F21603C
:10070000209381002A9822E024BD3AEF37BD35E0DE
:1007100035BD20936E0016BC452F5527982F88278E
:10072000842B952B809590959C0136952795A90152
:10073000569547955695479542275327FC01EF2F2D
:10074000E295EF70FF27E427F527E827F927FE2F2A
:10075000F295F07FEE27FF0FFF0FFF0FE22BF32B39
:10076000CF010FB66B96FFAFEEAF6B970FBE9695AE
:1007700087959C0136952795369527952827392703
:10078000AF01452F42954F705527422753274E27DB
:100790005F27542F5295507F4427550F550F550F03
:1007A000482B592BCA01FA010FB66996FFAFEEAF7D
:1007B00069970FBE969587959C0136952795369536
:1007C000279528273927452F42954F7055274227CF
:1007D00053274E275F27542F5295507F4427550F9C
:1007E000550F550F482B592BCA01FA010FB66796C2
:1007F000FFAFEEAF67970FBE969587959C01369534
:1008000027953695279528273927452F42954F70EC
:100810005527422753274E275F27542F5295507F45
:100820004427550F550F550F482B592BCA01FA0174
:100830000FB66596FFAFEEAF65970FBE969587959D
:100840009C01369527953695279528273927452FDA
:1008500042954F705527422753274E275F27542F25
:100860005295507F4427550F550F550F482B592B44
:10087000CA01FA010FB66196FFAFEEAF61970FBEE6
:10088000969587959C013695279536952795282727
:100890003927452F42954F705527422753274E271A
:1008A0005F27542F5295507F4427550F550F550FF2
:1008B000482B592BCA01FA010FB62F96FFAFEEAFA6
:1008C0002F970FBE969587959C013695279536955F
:1008D000279528273927452F42954F7055274227BE
:1008E00053274E275F27542F5295507F4427550F8B
:1008F000550F550F482B592BCA01FA010FB62D96EB
:10090000FFAFEEAF2D970FBE969587959C0136955C
:1009100027953695279528273927452F42954F70DB
:100920005527422753274E275F27542F5295507F34
:100930004427550F550F550F482B592BCA01FA0163
:100940000FB62B96FFAFEEAF2B970FBE9695879500
:100950009C01369527953695279528273927452FC9
:1009600042954F705527422753274E275F27542F14
:100970005295507F4427550F550F550F482B592B33
:10098000CA01FA010FB62796FFAFEEAF27970FBE49
:10099000969587959C013695279536952795282716
:1009A0003927452F42954F705527422753274E2709
:1009B0005F27542F5295507F4427550F550F550FE1
:1009C000482B592BCA01FA010FB62596FFAFEEAF9F
:1009D00025970FBE969587959C0136952795369558
:1009E000279528273927452F42954F7055274227AD
:1009F00053274E275F27542F5295507F4427550F7A
:100A0000550F550F482B592BCA01FA010FB62396E3
:100A1000FFAFEEAF23970FBE969587959C01369555
:100A200027953695279528273927452F42954F70CA
:100A30005527422753274E275F27542F5295507F23
:100A40004427550F550F550F482B592BCA01FA0152
:100A50000FB62196FFAFEEAF21970FBE9695879503
:100A60009C01369527953695279528273927452FB8
:100A700042954F705527422753274E275F27542F03
:100A80005295507F4427550F550F550F482B592B22
:100A9000CA01FA01FEAFEDAF969587959C01369598
:100AA00027953695279528273927452F42954F704A
:100AB0005527422753274E275F27542F5295507FA3
:100AC0004427550F550F550F482B592BCA01FA01D2
:100AD000FCAFEBAF969587959C013695279536959B
:100AE000279528273927452F42954F7055274227AC
:100AF00053274E275F27542F5295507F4427550F79
:100B0000550F550F482B592BCA01FA01FAAFE9AF1F
:100B1000969587959C013695279536952795282794
:100B20003927452F42954F705527422753274E2787
:100B30005F27542F5295507F4427550F550F550F5F
:100B4000482B592BCA01FA01F8AFEFAB9695879560
:100B50009C01369527953695279528273927452FC7
:100B600042954F705527422753274E275F27542F12
:100B70005295507F4427550F550F550F482B592B31
:100B8000CA01FA01FEABEDAB969587959C013695AF
:100B900027953695279528273927452F42954F7059
:100BA0005527422753274E275F27542F5295507FB2
:100BB0004427550F550F550F482B592BCA01FA01E1
:100BC000FCABEBAB969587959C01369527953695B2
:100BD000279528273927452F42954F7055274227BB
:100BE00053274E275F27542F5295507F4427550F88
:100BF000550F550F482B592BCA01FA01FAABE9AB37
:100C0000969587959C0136952795369527952827A3
:100C10003927452F42954F705527422753274E2796
:100C20005F27542F5295507F4427550F550F550F6E
:100C3000482B592BCA01FA01F8ABEFA79695879577
:100C40009C01369527953695279528273927452FD6
:100C500042954F705527422753274E275F27542F21
:100C60005295507F4427550F550F550F482B592B40
:100C7000CA01FA01FEA7EDA7969587959C013695C6
:100C800027953695279528273927452F42954F7068
:100C90005527422753274E275F27542F5295507FC1
:100CA0004427550F550F550F482B592BCA01FA01F0
:100CB000FCA7EBA7969587959C01369527953695C9
:100CC000279528273927452F42954F7055274227CA
:100CD00053274E275F27542F5295507F4427550F97
:100CE000550F550F482B592BCA01FA01FAA7E9A74E
:100CF000969587959C0136952795369527952827B3
:100D00003927452F42954F705527422753274E27A5
:100D10005F27542F5295507F4427550F550F550F7D
:100D2000482B592BCA01FA01F8A7EFA3969587958E
:100D30009C01369527953695279528273927452FE5
:100D400042954F705527422753274E275F27542F30
:100D50005295507F4427550F550F550F482B592B4F
:100D6000CA015EA34DA3969587959C01369527955C
:100D70003695279528273927FA01EF2FE295EF704E
:100D8000FF27E227F327E427F527FE2FF295F07FD0
:100D9000EE27FF0FFF0FFF0FE82BF92B7F01CB0191
:100DA000969587959C0136952795A9015695479567
:100DB00042275327729562956F7067277F70672768
:100DC00076956795642775270FB663962EAD3FAD70
:100DD00063970FBE62277327762F7295707F662701
:100DE000770F770F770F682B792B7A836983CB0185
:100DF000969587959C0136952795A9015695479517
:100E0000422753279B01329522952F7023273F704D
:100E10002327369527952427352726273727322F4E
:100E20003295307F2227330F330F330F282B392B86
:100E3000C901F901FCA3EBA3969587959C01369512
:100E40002795A90156954795422753279F0132952B
:100E500022952F7023273F70232736952795242727
:100E600035272E273F27322F3295307F2227330F09
:100E7000330F330F282B392BC901F901FAA3E9A34A
:100E8000969587959C0136952795A9015695479586
:100E9000422753279F01329522952F7023273F70B9
:100EA000232736952795242735272E273F27322FAE
:100EB0003295307F2227330F330F330F282B392BF6
:100EC000C901F901F8A3EF8F969587959C01369596
:100ED0002795A90156954795422753279F0132959B
:100EE00022952F7023273F70232736952795242797
:100EF00035272E273F27322F3295307F2227330F79
:100F0000330F330F282B392BC901F901FE8FED8FD9
:100F1000969587959C0136952795A90156954795F5
:100F2000422753279F01329522952F7023273F7028
:100F3000232736952795242735272E273F27322F1D
:100F40003295307F2227330F330F330F282B392B65
:100F5000C901F901FC8FEB8F969587959C01369519
:100F60002795A90156954795422753279F0132950A
:100F700022952F7023273F70232736952795242706
:100F800035272E273F27322F3295307F2227330FE8
:100F9000330F330F282B392BC901F901FA8FE98F51
:100FA000969587959C0136952795A9015695479565
:100FB000422753279F01329522952F7023273F7098
:100FC000232736952795242735272E273F27322F8D
:100FD0003295307F2227330F330F330F282B392BD5
:100FE000C901F901F88FEF8B969587959C0136958D
:100FF0002795A90156954795422753279F0132957A
:1010000022952F7023273F70232736952795242775
:1010100035272E273F27322F3295307F2227330F57
:10102000330F330F282B392BC901F901FE8BED8BC0
:10103000969587959C0136952795A90156954795D4
:10104000422753279F01329522952F7023273F7007
:10105000232736952795242735272E273F27322FFC
:101060003295307F2227330F330F330F282B392B44
:10107000C901F901FC8BEB8B969587959C01369500
:101080002795A90156954795422753279F013295E9
:1010900022952F7023273F702327369527952427E5
:1010A00035272E273F27322F3295307F2227330FC7
:1010B000330F330F282B392BC901F901FA8BE98B38
:1010C000969587959C0136952795A9015695479544
:1010D000422753279F01329522952F7023273F7077
:1010E000232736952795242735272E273F27322F6C
:1010F0003295307F2227330F330F330F282B392BB4
:10110000C901F901F88BEF87969587959C01369573
:101110002795A90156954795422753279F01329558
:1011200022952F7023273F70232736952795242754
:1011300035272E273F27322F3295307F2227330F36
:10114000330F330F282B392BC901F901FE87ED87A7
:10115000969587959C0136952795A90156954795B3
:10116000422753279F01329522952F7023273F70E6
:10117000232736952795242735272E273F27322FDB
:101180003295307F2227330F330F330F282B392B23
:10119000C901F901FC87EB87969587959C013695E7
:1011A0002795A90156954795422753279F013295C8
:1011B00022952F7023273F702327369527952427C4
:1011C00035272E273F27322F3295307F2227330FA6
:1011D000330F330F282B392BC901F901FA87E9871F
:1011E000969587959C0136952795A9015695479523
:1011F000422753279F01329522952F7023273F7056
:10120000232736952795242735272E273F27322F4A
:101210003295307F2227330F330F330F282B392B92
:10122000C901F901F887EF83969587959C0136955A
:101230002795A90156954795422753279F01329537
:1012400022952F7023273F70232736952795242733
:1012500035272E273F27322F3295307F2227330F15
:10126000330F330F282B392BC901F901FE83ED838E
:10127000969587959C0136952795A9015695479592
:10128000422753279F01329522952F7023273F70C5
:10129000232736952795242735272E273F27322FBA
:1012A0003295307F2227330F330F330F282B392B02
:1012B000C901F901FC83EB83969587959C013695CE
:1012C0002795A90156954795422753279F013295A7
:1012D00022952F7023273F702327369527952427A3
:1012E00035272E273F27322F3295307F2227330F85
:1012F000330F330F282B392BC90119019695879588
:101300009C0136952795A901569547954227532765
:101310009101329522952F7023273F702327369510
:1013200027952427352722253325322F3295307FE4
:101330002227330F330F330F282B392BC9012901F3
:10134000969587959C0136952795A90156954795C1
:10135000422753279201329522952F7023273F7001
:101360002327369527952427352724253525322F01
:101370003295307F2227330F330F330F282B392B31
:10138000C9013901969587959C0136952795A90144
:1013900056954795422753279301329522952F70F2
:1013A00023273F7023273695279524273527262581
:1013B0003725322F3295307F2227330F330F330FEB
:1013C000282B392BC9014901969587959C013695A3
:1013D0002795A901569547954227532794013295A1
:1013E00022952F7023273F70232736952795242792
:1013F000352728253925322F3295307F2227330F84
:10140000330F330F282B392BC90159019695879536
:101410009C0136952795A901569547954227532754
:101420009501329522952F7023273F7023273695FB
:101430002795242735272A253B25322F3295307FC3
:101440002227330F330F330F282B392BC9016901A2
:10145000969587959C0136952795A90156954795B0
:1014600042275327D601B295A295AF70AB27BF7024
:10147000AB27B695A795A427B527AC25BD25BA2FD0
:10148000B295B07FAA27BB0FBB0FBB0FA82BB92B00
:101490009D0136952795C90196958795AC0156957E
:1014A000479548275927CD01929582958F708927B6
:1014B0009F70892796958795842795278A279B274C
:1014C000982F9295907F8827990F990F990F822BCB
:1014D000932B970128273927329522952F702327A0
:1014E0003F702327FE01E55AFF4F0FB66396FFAF0B
:1014F000EEAF63970FBE3F960FB62996FFAFEEAFE4
:1015000029970FBE33AB22AB970136952795B901CA
:10151000769567957695679562277327A701452F7E
:1015200042954F705527462757274E255F25542F44
:101530005295507F4427550F550F550F422B532B73
:10154000BC01769567959B01369527957901F694B0
:10155000E794E226F3269C01329522952F702327EB
:101560003F702327369527952E253F252827392795
:10157000322F3295307F2227330F330F330F262B34
:10158000372BCA0182279327929582958F708927DE
:101590009F70892795AB84ABCA01969587957C018E
:1015A000F694E794F694E794E826F926BA01672FB3
:1015B00062956F7077276E257F2564277527762FB4
:1015C0007295707F6627770F770F770F682B792BCF
:1015D000A90156954795CA01969587957C01F69481
:1015E000E794E826F926C901929582958F7089279C
:1015F0009F708927969587958E259F25822793270B
:10160000982F9295907F8827990F990F990F842B87
:10161000952B9B0128273927329522952F70232758
:101620003F70232737AB26AB9B0136952795790171
:10163000F694E794F694E794E226F326AB01452F5F
:1016400042954F7055274E255F2546275727542F23
:101650005295507F4427550F550F550F422B532B52
:10166000BC01769567959B01369527957901F6948F
:10167000E794E226F3269C01329522952F702327CA
:101680003F702327369527952E253F252827392774
:10169000322F3295307F2227330F330F330F262B13
:1016A000372BCA0182279327929582958F708927BD
:1016B0009F70892791AF80AFCA01969587957C016D
:1016C000F694E794F694E794E826F926BA01672F92
:1016D00062956F7077276E257F2564277527762F93
:1016E0007295707F6627770F770F770F682B792BAE
:1016F000A90156954795CA01969587957C01F69460
:10170000E794E826F926C901929582958F7089277A
:101710009F708927969587958E259F2582279327E9
:10172000982F9295907F8827990F990F990F842B66
:10173000952B9B0128273927329522952F70232737
:101740003F70232733AF22AF9B0136952795790150
:10175000F694E794F694E794E226F326AB01452F3E
:1017600042954F7055274E255F2546275727542F02
:101770005295507F4427550F550F550F422B532B31
:10178000BC01769567959B01369527957901F6946E
:10179000E794E226F3269C01329522952F702327A9
:1017A0003F702327369527952E253F252827392753
:1017B000322F3295307F2227330F330F330F262BF2
:1017C000372BCA0182279327929582958F7089279C
:1017D0009F70892795AF84AFCA01969587957C0144
:1017E000F694E794F694E794E826F926BA01672F71
:1017F00062956F7077276E257F2564277527762F72
:101800007295707F6627770F770F770F682B792B8C
:10181000A90156954795CA01969587957C01F6943E
:10182000E794E826F926C901929582958F70892759
:101830009F708927969587958E259F2582279327C8
:10184000982F9295907F8827990F990F990F842B45
:10185000952B9B0128273927329522952F70232716
:101860003F70232737AF26AF0FB669962EAD3FAD39
:1018700069970FBE4BA15CA1422753275295429511
:101880004F7045275F7045270FB6AE965FAF4EAFDE
:10189000AE970FBE0FB66B962EAD3FAD6B970FBEDA
:1018A00049815A8142275327529542954F704527C7
:1018B0005F7045270FB6AC965FAF4EAFAC970FBECB
:1018C0000FB667962EAD3FAD67970FBE49A15AA1DF
:1018D00042275327529542954F7045275F70452701
:1018E0000FB6E0965FAF4EAFE0970FBE0FB66596AE
:1018F0002EAD3FAD65970FBE4F8D58A142275327A0
:10190000529542954F7045275F7045270FB6E29676
:101910005FAF4EAFE2970FBE0FB661962EAD3FADF3
:1019200061970FBE4D8D5E8D42275327529542958C
:101930004F7045275F7045270FB6E4965FAF4EAFF7
:10194000E4970FBE0FB62F962EAD3FAD2F970FBE6B
:101950004B8D5C8D42275327529542954F704527FA
:101960005F7045270FB6E6965FAF4EAFE6970FBEA6
:101970000FB62D962EAD3FAD2D970FBE498D5A8DCA
:1019800042275327529542954F7045275F70452750
:101990000FB6E8965FAF4EAFE8970FBE0FB62B9627
:1019A0002EAD3FAD2B970FBE4F89588D4227532741
:1019B000529542954F7045275F7045270FB6EA96BE
:1019C0005FAF4EAFEA970FBE0FB627962EAD3FAD75
:1019D00027970FBE4D895E8942275327529542951E
:1019E0004F7045275F7045270FB6EC965FAF4EAF3F
:1019F000EC970FBE0FB625962EAD3FAD25970FBEC7
:101A00004B895C8942275327529542954F70452751
:101A10005F7045270FB6EE965FAF4EAFEE970FBEE5
:101A20000FB623962EAD3FAD23970FBE49895A8935
:101A300042275327529542954F7045275F7045279F
:101A40000FB6C05CDF4F5FAF4EAFC054D0400FBE8B
:101A50000FB621962EAD3FAD21970FBE4F85588909
:101A600042275327529542954F7045275F7045276F
:101A70000FB6CE5BDF4F5FAF4EAFC254D0400FBE4C
:101A80002DAD3EAD4D855E8542275327529542953B
:101A90004F7045275F7045270FB6CC5BDF4F5FAFB8
:101AA0004EAFC454D0400FBE2BAD3CAD4B855C85D2
:101AB00042275327529542954F7045275F7045271F
:101AC0000FB6CA5BDF4F5FAF4EAFC654D0400FBEFC
:101AD00029AD3AAD49855A854227532752954295FB
:101AE0004F7045275F7045270FB6C85BDF4F5FAF6C
:101AF0004EAFC854D0400FBE2FA938AD4F81588586
:101B000042275327529542954F7045275F704527CE
:101B10000FB6C65BDF4F5FAF4EAFCA54D0400FBEAB
:101B20002DA93EA94D815E814227532752954295AA
:101B30004F7045275F7045270FB6C45BDF4F5FAF1F
:101B40004EAFCC54D0400FBE2BA93CA94B815C8139
:101B500042275327529542954F7045275F7045277E
:101B60000FB6C25BDF4F5FAF4EAFCE54D0400FBE5B
:101B700029A93AA9A10142275327529542954F70AE
:101B800045275F7045270FB6C05BDF4F5FAF4EAF95
:101B9000C055D0400FBE2FA538A9A2014227532718
:101BA000529542954F7045275F7045270FB6CE5A24
:101BB000DF4F5FAF4EAFC255D0400FBE2DA53EA543
:101BC000A30142275327529542954F7045275F70D6
:101BD00045270FB6CC5ADF4F5FAF4EAFC455D0404C
:101BE0000FBE2BA53CA5A401422753275295429531
:101BF0004F7045275F7045270FB6CA5ADF4F5FAF5A
:101C00004EAFC655D0400FBE29A53AA5A501422723
:101C10005327529542954F7045275F7045270FB661
:101C2000C85ADF4F5FAF4EAFC855D0400FBE2FA18F
:101C300038A5A60142275327529542954F70452754
:101C40005F7045270FB6C65ADF4F5FAF4EAFCA551C
:101C5000D0400FBE0FB66396EEACFFAC63970FBEDD
:101C60002DA13EA1A227B327B295A295AF70AB27B5
:101C7000BF70AB270FB6C45ADF4FBFAFAEAFCC5566
:101C8000D0400FBEA7014E5A5F4FFA0173836283A3
:101C900028E030E00FB6C459DF4F3FAF2EAFCC562F
:101CA000D0400FBE0FB661965FAF4EAF61970FBECB
:101CB0000FB66D961FAF0EAF6D970FBE0FB6C25920
:101CC000DF4F1EAECE56D0400FBE0FB6C159DF4F0C
:101CD0009FAF8EAFCF56D0400FBE80E092E00FB6E0
:101CE000A3969FAF8EAFA3970FBE289A209A5F98B6
:101CF000579A5E98569A3C984498C7018F5A9F4FBE
:101D00000FB62B969FAF8EAF2B970FBEC701805B90
:101D10009F4F0FB66B969FAF8EAF6B970FBEC701ED
:101D2000815B9F4F0FB665969FAF8EAF65970FBED5
:101D3000CA0102960FB62D969FAF8EAF2D970FBE9C
:101D4000E1E08FB7F8948090C7029090C80220918C
:101D5000C5023091C6020FB669963FAF2EAF6997A4
:101D60000FBE8FBF8091CB020FB667968EAF67977D
:101D70000FBE803009F412C2FE2ED12C0FB62F9662
:101D80009FAE8EAE2F970FBE0FC08EB5289A8BB127
:101D9000822B8BB90FB667968EAD67970FBED8169C
:101DA000E12DF12C09F4FAC1A090CD02B090CE0241
:101DB000AA0CBB1CAA0CBB1C81E0A114B10471E0ED
:101DC00009F0712D2091CF023091D0024091D102C3
:101DD0005091D202C6B096B192709030E1E009F015
:101DE000E12D440F551F40505440952F992391E009
:101DF0000AF4912D420F531F4217530748F48030C5
:101E000020EF3FEF51F09827903059F4A9010EC010
:101E1000812D803020EF3FEFB1F798019827903067
:101E2000A9F3440F551F440F551F407F0FB6659609
:101E3000AEADBFAD65970FBE6C910FB66D968EAD12
:101E40006D970FBE803029F0613009F0F2C061E07B
:101E500003C0603009F4FFC51A010FB66B96AEAD32
:101E6000BFAD6B970FBE8C912D018395E72E7E2E13
:101E70000E94641B7E2DE72DD2019C930FB66196C4
:101E80006EAC7FAC61970FBE7E2B872F8170803048
:101E900061F00FB66396AEADBFAD63970FBE292F4D
:101EA0003327903208F4F2C0D3C5872FF301408165
:101EB0005181BA01769567959B0136952795D90191
:101EC000B695A795A227B3279A01329522952F7030
:101ED00023273F702327369527952A273B2724273A
:101EE0003527322F3295307F2227330F330F330FB0
:101EF000262B372B318320830FB62D964EAC5FAC4B
:101F00002D970FBEF20160817181AB015695479507
:101F10004A01969487949694879484269526DB01AB
:101F2000AB2FA295AF70BB27A825B925A627B72749
:101F3000BA2FB295B07FAA27BB0FBB0FBB0FA42B44
:101F4000B52BB183A083BD0162277327729562957B
:101F50006F7067277F706727769567957695679589
:101F60006A157B0508F080C0F901F695E795BF0179
:101F700076956795AB015695479546275727B90142
:101F8000729562956F7067277F7067277695679562
:101F90006427752762277327762F7295707F6627CF
:101FA000770F770F770F6E2B7F2BF3017183608391
:101FB0009D0136952795F901F695E795F695E795F4
:101FC000E227F327AD01452F42954F7055274E2745
:101FD0005F274A275B27542F5295507F4427550F80
:101FE000550F550F422B532BF20151834083292F5C
:101FF0003327903208F02CC5220F331F0FB663969B
:10200000AEADBFAD63970FBE2A0F3B1F46275727C4
:10201000529542954F7045275F704527F901508BC7
:1020200047870FB66B96EEADFFAD6B970FBE9081F5
:1020300021C00FB66B96AEADBFAD6B970FBE9C9136
:102040000FB6A3968EADA3970FBE80300FB66196E4
:102050006EAC7FAC61970FBE1A0109F475C0903069
:1020600009F47FC09A9575C00FB66396AEADBFAD4B
:1020700063970FBE0FB62F968EAC9FAC2F970FBEF7
:10208000782F292F3327903208F0E2C44C2D429547
:102090004170220F331F2A0F3B1FF901878590895A
:1020A0000FB6AA969FAE8EAEAA970FBE0FB66996D0
:1020B0002EAD3FAD69970FBE0FB6A8963FAF2EAFBE
:1020C000A8970FBE0FB6A6969FAF8EAFA6970FBE6E
:1020D00031E043270FB6A4964EAFA4970FBE212D33
:1020E0002816390608F4322F0FB6A5963EAFA597ED
:1020F0000FBE717070304F2D09F424E038B13B7F72
:10210000322B38B92FE72816390608F42FEB439AFB
:102110003BB132233BB92898403019F02DB522232A
:10212000EAF7D394292F20632EBD2DB52223EAF799
:102130002EB58EBD2DB52223EAF720E428163906E8
:1021400008F023CE20E821CE862F8A959817B0F488
:1021500093950FB66B96AEADBFAD6B970FBE9C93CC
:1021600093CE91E00FB66B96AEADBFAD6B970FBE41
:102170009C930FB6A3961EAEA39785CE62500FB662
:102180006B96AEADBFAD6B970FBE6C9381E00FB693
:10219000A3968EAFA3970FBE962F76CE8FB7F894E7
:1021A0003091CB02932F0FB667962EAD67970FBE77
:1021B000921B21E0391708F0212D2030212D09F440
:1021C000292F2093CB028FBFAAECB2E00FB6F89470
:1021D0008C910FBE803009F406C18FB7F8942AECB9
:1021E00032E0D9010FB6F8949C910FBE0FB6F89467
:1021F0001C920FBE8FBF903009F4F5C086B10FB6A8
:102200006596AEADBFAD65970FBE3C910FB66D96AE
:102210002EAD6D970FBE203009F031958072803061
:10222000E1F4232F225013160CF0232F290F822FB5
:102230008E5F2F3F0CF4822F982F990F990B682FE8
:102240006927691B603208F060E20FB66596AEAD93
:10225000BFAD65970FBE6C938DC0532F539521E092
:10226000523081E008F026C0191641E00CF027C07A
:10227000523008F0212D582F550F550B382F352788
:10228000351B532F5695652F6575732F761B672F5A
:102290006373769576957373760F672F6295670FE4
:1022A0006F702423921B613079F427E0492F30307E
:1022B000F1F4C8C3832F191641E00CF4D9CF412D96
:1022C000523008F0D7CFD7CF292F282722230AF45E
:1022D000ACC32FEF903009F4212D41E0692F662324
:1022E0000AF0422F490F28E0303009F4ABC3352BF8
:1022F000932F96959695932B392F32953F70392BC6
:102300003095932F96959575391B932F937336952A
:1023100036953373390F932F9295930F9F70291B26
:1023200088230AF42195240F822F880F880B322FDF
:102330003827381B3F7181E090E0303041F0A80130
:10234000880F991F441F551F3A953030C9F7982FB1
:10235000990F990B682F6927691B603208F060E2BA
:102360000FB66596AEADBFAD65970FBE6C932223D9
:102370000AF48195982F991F9927991F0FB66D968A
:102380009EAF6D970FBE88232AF00FB6A3961EAEA0
:10239000A3970FBE603009F45EC30FB66B96AEAD67
:1023A000BFAD6B970FBE8C917D01DE2E0E94641B2A
:1023B000ED2DD7019C930FB6A1969FAE8EAEA1973F
:1023C0000FBE0FB669968EAD9FAD69970FBE0FB663
:1023D0006F969FAF8EAF6F970FBE81E00FB66E9670
:1023E0008EAF6E970FBE8091CD029091CE0226B136
:1023F0000FB66E963EAD6E970FBE303009F425C015
:102400000FB66F964EAD5FAD6F970FBE0FB6A1962C
:102410006EAD7FADA1970FBE4854544F6F4F7F4FA5
:1024200031E00FB66996AEADBFAD69970FBE4A17E2
:102430005B076805790508F0312D3170303029F0DF
:102440000FB66E961EAE6E970FBEAC015F7391E035
:102450008115510581E009F0812D2270203009F0AD
:10246000912D0FB6A4965EADA4970FBE5230412DAC
:10247000212D312D09F43EC00FB6A8962EAD3FADEB
:10248000A8970FBE0FB6AA966EAD7FADAA970FBEE6
:102490000FB669962EAC3FAC69970FBE221A330A6D
:1024A000D101860A970A503081F421E0AD014B300A
:1024B00051058006910608F4212D2170203029F065
:1024C00052E00FB6A5965EAF03C00FB6A5965EADFF
:1024D000A5970FBE21E0AC33B1058006910641E01F
:1024E00008F09CC1513031E009F09DC1503009F035
:1024F000212D4170892B81708030812D09F484E079
:1025000098B19B7F982B98B9440F440F440F88B122
:10251000877F842B88B9203009F45DC0303009F4FE
:102520005EC0203009F05F9A303009F05E9A409129
:10253000D1025091D202440F551F4050544081E0C7
:10254000952F992391E00AF4912D2091CF0230919B
:10255000D002420F531F4217530748F4803020EF38
:102560003FEF51F09827903059F4A9010EC0812D0A
:10257000803020EF3FEFB1F7980198279030A9F312
:10258000440F551F440F551F407F0FB66E968EADFA
:102590006E970FBE803009F427C00FB66596AEADBA
:1025A000BFAD65970FBE8C910FB66D969EAD6D97C2
:1025B0000FBE9030982F11F0982F9195282F220F51
:1025C000220B8227821B8F73482F406499230AF4C1
:1025D00040C1482F3EC15F98303009F0A2CF5E98CD
:1025E000203009F0A0CFA0CF0FB66596AEADBFAD3D
:1025F00065970FBE8C91803009F42DC20FB6699695
:102600005FAF4EAF69970FBE0FB66796EEAF679795
:102610000FBE0FB66B96AEADBFAD6B970FBE2C90D5
:10262000382E822D632D0E94641BE92EE30C83E07B
:10263000632D0E94641BF92EEF188E2D632D0E94CE
:10264000641BC92EDD24903208F00EC2CC0CDD1CB8
:102650000FB663964EAC5FAC63970FBEC40CD51C2F
:10266000F601A784B088822D8395632D0E94641B98
:10267000892F830D8F19632D0E94641BC92EDD24C1
:10268000903208F0F1C1CC0CDD1CC40CD51CF60155
:1026900087849088822D8E5F632D0E94641B892F12
:1026A000830D8F19632D0E94641BC92EDD24903287
:1026B00008F0DAC1CC0CDD1CC40CD51CF601678413
:1026C0007088822D8D5F632D0E94641B892F830D7E
:1026D0008F19632D0E94641BC92EDD24903208F0EF
:1026E000C3C1CC0CDD1CC40CD51CF601478450883A
:1026F000822D8C5F632D0E94641B892F830D8F199F
:10270000632D0E94641BC92EDD24903208F0ACC1F9
:10271000E22C822D8B5F632D0E94641B892F830D19
:102720008F19232C632D0E94641B292F332790328D
:1027300008F099C141E00FB669966EAD7FAD69971B
:102740000FBE6A157B0581E008F4812D8295807F9C
:10275000880F880F681579055E2D08F069C0661529
:10276000770508F06AC06415750508F08860B82E12
:10277000CC0CDD1C0FB629968EAD9FAD29970FBEF0
:10278000C80ED91EF601808191816817790781E012
:1027900008F4812DA82E220F331F0FB629968EAD77
:1027A0009FAD29970FBE280F391FF90180819181B4
:1027B0006817790708F4412DE42E5A5F852FD22C33
:1027C0006D2D0E94641B892F8D0D8F196D2D0E9418
:1027D000641BC92EDD24903208F046C18B2D897F01
:1027E000AA0CAA0CA82A4E2D440F4A29CC0CDD1C99
:1027F0000FB663968EAD9FAD63970FBEC80ED91E00
:10280000F601878590890FB669962EAD3FAD699721
:102810000FBE28173907B8F44E7F16C0412D51302E
:1028200031E009F463CE312D503009F061CE61CE34
:1028300080626615770508F496CF8061641575058A
:1028400008F094CF94CF41600FB66796EEAD6797CE
:102850000FBE0FB62B96AEADBFAD2B970FBE8C91B2
:10286000481709F46ECA8091C402803009F069CA21
:1028700081E08093C402842F82708030B80111F00F
:102880006FEF7FE0842F88708030C80111F08FEFE8
:102890009FE06C01842F80728030D80119F08FEF97
:1028A0009FE0DC01842F84708030C80111F08FEF2D
:1028B0009FE02C01842F80718030C80111F08FEFD0
:1028C0009FE03C014B01842F80748030B80119F0E7
:1028D0008FEF9FE0BC01842F81708030980111F050
:1028E0002FEF3FE05B01F42EE03019F08DB5882327
:1028F000EAF7F401E2958E2F8F70F295F07FF82BB6
:10290000B6016295862F8F707295707F782BA29595
:102910008A2F8F70B295B07FB82BE07FAD01D201C6
:10292000CD01929582958F7089279F708927829516
:10293000B82FE82EBF709F2EBE2B607FC301FC0115
:10294000F295E295EF70EF27FF70EF27E295FE2FEB
:10295000FF70D72EF62B407FB501729562956F7090
:1029600067277F7067276295962F9F70752F942B2E
:10297000A901529542954F7045275F7045275A2D02
:102980004295342F307F2295207F22952F70232B64
:102990003E2D307FA295A07FA295AF70A32BE07F44
:1029A0008295807F82958F708E2BE82F607F529565
:1029B000507F52955F70562B4F704EBD8DB588235A
:1029C000EAF72EBD8DB58823EAF79EBC8DB5882326
:1029D000EAF7BEBD8DB58823EAF7AEBD8DB5882375
:1029E000EAF7DEBC8DB58823EAF7FEBD8DB58823F6
:1029F000EAF7EEBD8DB58823EAF77EBD8DB5882355
:102A0000EAF79EBD8DB58823EAF75EBD80EA809324
:102A10008000E1E0E6BBE0936F000FB62B96AEAD11
:102A2000BFAD2B970FBEFC928CC941E0903009F4EA
:102A3000412D292F22230AF44FEF490F27E0303090
:102A400009F055CC98E0291B88230AF46BCC6BCC99
:102A5000C9010E943A1580E692E069E370E048E01F
:102A600051E00E94AC176901C6010E943A15CB01E2
:102A70000E94D117CF93DF93CDB7DEB768970FB61B
:102A8000F894DEBF0FBECDBF20E230E03C832B8345
:102A90009A83898380E090E09E878D8782E090E032
:102AA00098878F8320E031E03E832D839C878B873E
:102AB000CE0141969A87898781E795E1988F8F8B20
:102AC0009E012F5F3F4F3E8B2D8B9C8B8B8BCE01BE
:102AD00003969A8B898BCE01059668E071E00E947F
:102AE00037152F923F924F925F926F927F928F9203
:102AF0009F92AF92BF92CF92DF92EF92FF920F938D
:102B00001F93CF93DF93CDB7DEB7AF970FB6F8948F
:102B1000DEBF0FBECDBF7B01FC010081118187E2CA
:102B20000031180708F447C060E177E2C8010E944D
:102B3000701B87E26802802D112490E1699F912D1E
:102B40001124980F7295707F790F872FC62E982FBA
:102B50008827202D3327282B392B021B130B64E6E3
:102B600070E0C8010E94701BCB01880F991F8F581D
:102B70009E4FFC01808191819DA78CA784E67802FD
:102B8000902D1124689F4C2D812D1124890F982F91
:102B90008827202D3327282B392B021B130B000FDE
:102BA000111F0F581E4FF801808191819FA78EA79A
:102BB00083E290E03FC00436110508F435C064E6B6
:102BC00070E0C8010E94701B84E67802902D1124E9
:102BD000689F812D1124890F982F8827202D332756
:102BE000282B392B021B130B000F111F0F581E4FE0
:102BF000F801808191819FA78EA785E290E08B01EB
:102C00000A301105B0F002979E01275F3F4F280F51
:102C1000391F000F111F0F581E4FF80140815181BD
:102C2000F901518340830DC087E290E00A3011051D
:102C300050F7402F0197DE011996A80FB91F405D8C
:102C40004C93F701A785B089AD014170507020E029
:102C500030E0E1E041156A0151052207330709F030
:102C6000E12DE170E03031F4A90167E270E0E0307D
:102C700039F008C041E150E067E270E0E03011F463
:102C80002BE230E0FE013996E80FF91F2F01681B97
:102C9000790BCD01982F9295907F8827990F990FE6
:102CA000990B892F0FE311E008231923F701848181
:102CB000803009F432C0C60ED71EF7018581968197
:102CC0003C01C816D90608F028C04601A870B070AB
:102CD00080E090E0E1E0A115B1058807990709F0CF
:102CE000E12DE170E03078876F8309F449C01E83DD
:102CF0000D835C834B83190168187908F70182857D
:102D0000082F1127823011050CF075C0011511052F
:102D100009F07EC07A82698280C05B01F701C584B8
:102D2000D684E384F484C701B6010E94751780300D
:102D300011F001E009C0F60126813781C701B20117
:102D4000A501F9010995082F01701070C801AF960F
:102D50000FB6F894DEBF0FBECDBFDF91CF911F91AC
:102D60000F91FF90EF90DF90CF90BF90AF909F902A
:102D70008F907F906F905F904F903F902F9008952D
:102D8000F701608171817E836D8360E370E0718300
:102D90006083628173817C836B839383828382856A
:102DA000898381E08287C384D484A584B684C601E4
:102DB000B5010E94751701E0803009F0C5CF681891
:102DC0007908430100E010E080E390E03C01D80185
:102DD000C401A817B90708F06FC0F5012085318537
:102DE0001196C601A301B801F9011D010995D10190
:102DF000803071F39ECF0230110551F4C3018C0174
:102E0000169507950196969587959A83898305C0AF
:102E100080E090E09A8389838301F701E280F38068
:102E2000C080D180A584B6848384948480E090E0BF
:102E30008017910770F4F5012085318501963C01DA
:102E4000C401A601B701F90109958030C30181F3DE
:102E500070CFC401B50191014B815C810D811E8150
:102E60000E947517803009F064CFF5012681378103
:102E7000C401B2014F815885F9010995803009F0EC
:102E800058CF80E090E069807A8001E08615970550
:102E900008F0012D8615970508F056CFF50120851D
:102EA000318501962C01C401A601B701F9010995EC
:102EB0008030C20151F348CFF50126813781C60128
:102EC000B2014F815885F9010995803009F031CF61
:102ED000F7018D819E8191838083898182878B8197
:102EE0009C8193838283012D2FCFAF92BF92CF928B
:102EF000DF92EF92FF92DA016B017C0141E150E039
:102F000081E021153105A407B50709F0812D8170F5
:102F1000803061F4F601A084B184C701A901BD012C
:102F2000F5010995803011F081E00EC00115110501
:102F300051F0F6012681378140E050E0C701B80129
:102F4000F901099501C0812D9927FF90EF90DF903D
:102F5000CF90BF90AF900895CF93DF93CDB7DEB7FA
:102F600060970FB6F894DEBF0FBECDBF20E030E013
:102F70003A872987E1E0F0E0FC83EB83FE013D9690
:102F8000FA83E98338872F832FE331E03E832D8353
:102F9000788B6F879E878D87CE010196BA010E943C
:102FA00037152F923F924F925F926F927F928F923E
:102FB0009F92AF92BF92CF92DF92EF92FF920F93C8
:102FC0001F93CF93DF93CDB7DEB72A970FB6F89450
:102FD000DEBF0FBECDBFF89421E02093D7021CBC0A
:102FE0005998519A22E230E03093C5002093C400F2
:102FF00022E02093C00028E12093C10026E0209326
:10300000C2002091C00020722030D9F32091C0006E
:1030100020722030D9F32DE02093C6002091C0000B
:1030200020722030D9F32AE02093C6002091C000FE
:1030300020722030D9F32DE02093C6002091C000EB
:1030400020722030D9F32AE02093C600FC01E680EC
:10305000F7800481158182819381A081B1812091C3
:10306000C00020722030D9F320E52093C6002091C3
:10307000C00020722030D9F321E62093C6002091B1
:10308000C00020722030D9F32EE62093C600209194
:10309000C00020722030D9F329E62093C600209189
:1030A000C00020722030D9F323E62093C60020917F
:1030B000C00020722030D9F320E22093C600209176
:1030C000C00020722030D9F32FE62093C600209153
:1030D000C00020722030D9F323E62093C60020914F
:1030E000C00020722030D9F323E62093C60020913F
:1030F000C00020722030D9F325E72093C60020912C
:10310000C00020722030D9F322E72093C60020911E
:10311000C00020722030D9F322E72093C60020910E
:10312000C00020722030D9F325E62093C6002091FC
:10313000C00020722030D9F324E62093C6002091ED
:10314000C00020722030D9F320E22093C6002091E5
:10315000C00020722030D9F329E62093C6002091C8
:10316000C00020722030D9F32EE62093C6002091B3
:10317000C00020722030D9F320E22093C6002091B5
:10318000C00020722030D9F326E62093C60020919B
:10319000C00020722030D9F329E62093C600209188
:1031A000C00020722030D9F32CE62093C600209175
:1031B000C00020722030D9F325E62093C60020916C
:1031C000C00020722030D9F320E22093C600209165
:1031D000C00020722030D9F327E22093C600811569
:1031E000910571F08A0F9B1F2C913091C0003072B5
:1031F0003030D9F32093C6001196A817B907A1F76C
:103200008091C00080728030D9F387E28093C6003D
:103210008091C00080728030D9F380E28093C60034
:103220008091C00080728030D9F381E68093C6001F
:103230008091C00080728030D9F384E78093C6000B
:103240008091C00080728030D9F380E28093C60004
:103250008091C00080728030D9F38CE68093C600E4
:103260008091C00080728030D9F389E68093C600D7
:103270008091C00080728030D9F38EE68093C600C2
:103280008091C00080728030D9F385E68093C600BB
:103290008091C00080728030D9F380E28093C600B4
:1032A0002AE030E040E050E0B801C7016A010E9426
:1032B000841B60636A8781E00A301105EC04FD0419
:1032C00008F0812D8170803019F0E9E0F0E034C021
:1032D00089E090E04C01CE0101962C0106C081707E
:1032E00080308601750109F023C0B801C7012AE0CA
:1032F00030E0190140E050E03A010E94841B69016E
:103300005A01B601C5019101A3010E94841B6063AB
:10331000C4010197D2014C01A80FB91F6C9381E041
:1033200004361105E604F70408F4D9CF812DD7CF70
:10333000F401EA30F10589F0CE010196DC01AE0F0F
:10334000BF1F2C913091C00030723030D9F32093E0
:10335000C6003196EA30F10589F78091C00080728D
:103360008030D9F38AE08093C6002D98259A80E0BA
:1033700090E05C01CE0101964C0188EE93E03C01A7
:1033800007EF1FE38BE79AE12C0181E090E01C013D
:1033900084EF91E09C838B8384E690E09A83898319
:1033A000212DC50153C02D98C8010197F1F7C8011F
:1033B0000197F1F7C8010197F1F7C8010197F1F7FB
:1033C000C8010197F1F7C8010197F1F7C80101970A
:1033D000F1F7C8010197F1F7C8010197F1F7C801AA
:1033E0000197F1F7C8010197F1F7C8010197F1F7CB
:1033F000C8010197F1F7C8010197F1F7C8010197DA
:10340000F1F7C8010197F1F7C8010197F1F7C80179
:103410000197F1F7C8010197F1F7C8010197F1F79A
:10342000C8010197F1F7C8010197F1F7C8010197A9
:10343000F1F7C8010197F1F7C2010197F1F78F2D5C
:103440008170803021E0C10109F0A2CFF22E880FF7
:10345000991F9401820F931FFC01C080D180B60197
:10346000A501CA0193010E94541BFB012F2F229535
:103470002F70829528278F702827929589279F7013
:103480008927382F892F912D2D9AA6014530510576
:1034900008F0C8C0E87FFF70E115F10541F0DF01D9
:1034A000AA0FBB1FAA0FBB1F15971197F1F72D98F5
:1034B000D8011197F1F7D8011197F1F7D8011197B9
:1034C000F1F7D8011197F1F7D8011197F1F7D80169
:1034D0001197F1F7D8011197F1F7D8011197F1F78A
:1034E000D8011197F1F7D8011197F1F7D801119789
:1034F000F1F7D8011197F1F7D8011197F1F7D80139
:103500001197F1F7D8011197F1F7D8011197F1F759
:10351000D8011197F1F7D8011197F1F7D801119758
:10352000F1F7D8011197F1F7D8011197F1F7D80108
:103530001197F1F7D8011197F1F7D8011197F1F729
:10354000D2011197F1F72D9AA6014530510508F0E7
:103550007FC0E115F10541F0DF01AA0FBB1FAA0FE3
:10356000BB1F15971197F1F72D98D8011197F1F717
:10357000D8011197F1F7D8011197F1F7D8011197F8
:10358000F1F7D8011197F1F7D8011197F1F7D801A8
:103590001197F1F7D8011197F1F7D8011197F1F7C9
:1035A000D8011197F1F7D8011197F1F7D8011197C8
:1035B000F1F7D8011197F1F7D8011197F1F7D80178
:1035C0001197F1F7D8011197F1F7D8011197F1F799
:1035D000D8011197F1F7D8011197F1F7D801119798
:1035E000F1F7D8011197F1F7D8011197F1F7D80148
:1035F0001197F1F7D8011197F1F7D2011197F1F76F
:103600002D9AA6014530510508F038C0E115F105A5
:1036100009F4C9CEEE0FFF1FEE0FFF1F359731974C
:10362000F1F7C1CEB501AB0104C0A170A03009F41F
:1036300031CFD8011197F1F74F5F5F4F6F4F7F4F39
:10364000A1E0421753076807790778F3A12DEDCF62
:10365000B501AB0104C0A170A03009F47ACFD80144
:103660001197F1F74F5F5F4F6F4F7F4FA1E0421708
:1036700053076807790778F3A12DEDCFB501AB01AA
:1036800004C0A170A03009F4C1CFD8011197F1F79F
:103690004F5F5F4F6F4F7F4FA1E04217530768079F
:1036A000790778F3A12DEDCFDB018F939F930E94D3
:1036B000A61BBF91AF91A29F800D911DA39F900D5E
:1036C000B29F900D11240895991B79E004C0991FB1
:1036D000961708F0961B881F7A95C9F7809508956C
:1036E000AA1BBB1B51E107C0AA1FBB1FA617B70728
:1036F00010F0A61BB70B881F991F5A95A9F7809544
:103700009095BC01CD010895A1E21A2EAA1BBB1B06
:10371000FD010DC0AA1FBB1FEE1FFF1FA217B3079D
:10372000E407F50720F0A21BB30BE40BF50B661FB3
:10373000771F881F991F1A9469F760957095809577
:1037400090959B01AC01BD01CF0108950E94B11B72
:10375000A59F900DB49F900DA49F800D911D1124E5
:103760000895A29FB001B39FC001A39F700D811D5A
:103770001124911DB29F700D811D1124911D08957A
:04378000F894FFCFEB
:103784003F0120005F01120039020A00000000001E
:103794000000000063616C6C656420604F707469A4
:1037A4006F6E3A3A756E77726170282960206F6E79
:1037B400206120604E6F6E65602076616C7565696E
:1037C4006E646578206F7574206F6620626F756E05
:1037D40064733A20746865206C656E2069732020D8
:1037E4006275742074686520696E646578206973F5
:1037F40020303030313032303330343035303630C0
:10380400373038303931303131313231333134318C
:103814003531363137313831393230323132323272
:103824003332343235323632373238323933303358
:103834003133323333333433353336333733383348
:103844003934303431343234333434343534363436
:10385400373438343935303531353235333534351C
:103864003535363537353835393630363136323602
:1038740033363436353636363736383639373037E8
:1038840031373237333734373537363737373837D8
:1038940039383038313832383338343835383638C6
:1038A40037383838393930393139323933393439AC
:1038B4003539363937393839393C7265646163745E
:1038C40065643E476976656E20696E646578206933
:1038D40073206F7574206F6620626F756E64730059
:1038E400617474656D707420746F2063616C6375AA
:1038F4006C617465207468652072656D61696E64BD
:103904006572207769746820612064697669736FD1
:1039140072206F66207A65726F696E7465726E616B
:103924006C206572726F723A20656E74657265649C
:1039340020756E726561636861626C6520636F6493
:04394400650001FF1A
:00000001FF
