:100000000C9442000C945F000C945F000C945F0011
:100010000C945F000C947D050C945F000C945F00C1
:100020000C945F000C945F000C945F000C945F00D4
:100030000C945F000C9444050C945A050C945F00DA
:100040000C945F000C945F000C945F000C945F00B4
:100050000C945F000C945F000C945F000C945F00A4
:100060000C945F000C945F0000010400020100008A
:10007000020103000200031005000400050604004D
:100080000506002011241FBECFEFD8E0DEBFCDBF94
:1000900011E0A0E0B1E0ECE3F4E102C005900D92C4
:1000A000A039B107D9F721E0A0E9B1E001C01D9264
:1000B000A839B207E1F70E9412060C941C0A0C94AE
:1000C00000002F923F924F925F926F927F928F9299
:1000D0009F92AF92BF92CF92DF92EF92FF920F93D7
:1000E0001F93CF93DF93CDB7DEB72A970FB6F8945F
:1000F000DEBF0FBECDBF21E0209397015998519AE2
:1001000022E230E03093C5002093C40022E0209327
:10011000C00028E12093C10026E02093C200209176
:10012000C00020722030D9F32091C000207220300E
:10013000D9F32AE02093C6002091C000207220301D
:10014000D9F32AE02093C600FC0186819781FC0147
:10015000E680F780C480D58082819381A081B181BF
:100160002091C00020722030D9F320E52093C600F2
:100170002091C00020722030D9F321E62093C600E0
:100180002091C00020722030D9F32EE62093C600C3
:100190002091C00020722030D9F329E62093C600B8
:1001A0002091C00020722030D9F323E62093C600AE
:1001B0002091C00020722030D9F320E22093C600A5
:1001C0002091C00020722030D9F32FE62093C60082
:1001D0002091C00020722030D9F323E62093C6007E
:1001E0002091C00020722030D9F323E62093C6006E
:1001F0002091C00020722030D9F325E72093C6005B
:100200002091C00020722030D9F322E72093C6004D
:100210002091C00020722030D9F322E72093C6003D
:100220002091C00020722030D9F325E62093C6002B
:100230002091C00020722030D9F324E62093C6001C
:100240002091C00020722030D9F320E22093C60014
:100250002091C00020722030D9F329E62093C600F7
:100260002091C00020722030D9F32EE62093C600E2
:100270002091C00020722030D9F320E22093C600E4
:100280002091C00020722030D9F326E62093C600CA
:100290002091C00020722030D9F329E62093C600B7
:1002A0002091C00020722030D9F32CE62093C600A4
:1002B0002091C00020722030D9F325E62093C6009B
:1002C0002091C00020722030D9F320E22093C60094
:1002D0002091C00020722030D9F327E22093C6007D
:1002E0008115910571F08A0F9B1F2C913091C000F0
:1002F00030723030D9F32093C6001196A817B90791
:10030000A1F78091C00080728030D9F387E280939A
:10031000C6008091C00080728030D9F380E2809363
:10032000C6008091C00080728030D9F381E680934E
:10033000C6008091C00080728030D9F384E780933A
:10034000C6008091C00080728030D9F380E2809333
:10035000C6008091C00080728030D9F38CE6809313
:10036000C6008091C00080728030D9F389E6809306
:10037000C6008091C00080728030D9F38EE68093F1
:10038000C6008091C00080728030D9F385E68093EA
:10039000C6008091C00080728030D9F380E28093E3
:1003A000C60081E091E098878F839E838D839C8334
:1003B0008B839A8389832AE030E000E010E0B60165
:1003C000C701A8010E94FA0960636A87960181E06B
:1003D00089872A303105E006F10608F0812D817009
:1003E000803011F40C94130589E090E04C01CE01AB
:1003F0000196F401DC01AE0FBF1F2C913091C000BB
:1004000030723030D9F32093C6003196EA30F105CE
:1004100089F78091C00080728030D9F38AE08093A0
:10042000C6002D98259A87EF9FE32BE73AE14BE72B
:1004300054E04FC0FA013197F1F72D98FC01319744
:10044000F1F7FC013197F1F7FC013197F1F7FC016D
:100450003197F1F7FC013197F1F7FC013197F1F792
:10046000FC013197F1F7FC013197F1F7FC0131976D
:10047000F1F7FC013197F1F7FC013197F1F7FC013D
:100480003197F1F7FC013197F1F7FC013197F1F762
:10049000FC013197F1F7FC013197F1F7FC0131973D
:1004A000F1F7FC013197F1F7FC013197F1F7FC010D
:1004B0003197F1F7FC013197F1F7FC013197F1F732
:1004C000FC013197F1F7FC013197F1F7F901319710
:1004D000F1F72D9AFC013197F1F7FC013197F1F713
:1004E000FC013197F1F7FC013197F1F7FC013197ED
:1004F000F1F7FC013197F1F7FC013197F1F7FC01BD
:100500003197F1F7FC013197F1F7FC013197F1F7E1
:10051000FC013197F1F7FC013197F1F7FC013197BC
:10052000F1F7FC013197F1F7FC013197F1F7FC018C
:100530003197F1F7FC013197F1F7FC013197F1F7B1
:10054000FC013197F1F7FC013197F1F7FC0131978C
:10055000F1F7FC013197F1F7FC013197F1F7FC015C
:100560003197F1F7F9013197F1F72D98FC013197A7
:10057000F1F7FC013197F1F7FC013197F1F7FC013C
:100580003197F1F7FC013197F1F7FC013197F1F761
:10059000FC013197F1F7FC013197F1F7FC0131973C
:1005A000F1F7FC013197F1F7FC013197F1F7FC010C
:1005B0003197F1F7FC013197F1F7FC013197F1F731
:1005C000FC013197F1F7FC013197F1F7FC0131970C
:1005D000F1F7FC013197F1F7FC013197F1F7FC01DC
:1005E0003197F1F7FC013197F1F7FC013197F1F701
:1005F000FC013197F1F7FC013197F1F7F9013197DF
:10060000F1F72D9AFC013197F1F7FC013197F1F7E1
:10061000FC013197F1F7FC013197F1F7FC013197BB
:10062000F1F7FC013197F1F7FC013197F1F7FC018B
:100630003197F1F7FC013197F1F7FC013197F1F7B0
:10064000FC013197F1F7FC013197F1F7FC0131978B
:10065000F1F7FC013197F1F7FC013197F1F7FC015B
:100660003197F1F7FC013197F1F7FC013197F1F780
:10067000FC013197F1F7FC013197F1F7FC0131975B
:10068000F1F7FC013197F1F7FC013197F1F7FC012B
:100690003197F1F7F9013197F1F72D98FC01319776
:1006A000F1F7FC013197F1F7FC013197F1F7FC010B
:1006B0003197F1F7FC013197F1F7FC013197F1F730
:1006C000FC013197F1F7FC013197F1F7FC0131970B
:1006D000F1F7FC013197F1F7FC013197F1F7FC01DB
:1006E0003197F1F7FC013197F1F7FC013197F1F700
:1006F000FC013197F1F7FC013197F1F7FC013197DB
:10070000F1F7FC013197F1F7FC013197F1F7FC01AA
:100710003197F1F7FC013197F1F7FC013197F1F7CF
:10072000FC013197F1F7FC013197F1F7F9013197AD
:10073000F1F72D9AFC013197F1F7FC013197F1F7B0
:10074000FC013197F1F7FC013197F1F7FC0131978A
:10075000F1F7FC013197F1F7FC013197F1F7FC015A
:100760003197F1F7FC013197F1F7FC013197F1F77F
:10077000FC013197F1F7FC013197F1F7FC0131975A
:10078000F1F7FC013197F1F7FC013197F1F7FC012A
:100790003197F1F7FC013197F1F7FC013197F1F74F
:1007A000FC013197F1F7FC013197F1F7FC0131972A
:1007B000F1F7FC013197F1F7FC013197F1F7FC01FA
:1007C0003197F1F7F9013197F1F72D98FC01319745
:1007D000F1F7FC013197F1F7FC013197F1F7FC01DA
:1007E0003197F1F7FC013197F1F7FC013197F1F7FF
:1007F000FC013197F1F7FC013197F1F7FC013197DA
:10080000F1F7FC013197F1F7FC013197F1F7FC01A9
:100810003197F1F7FC013197F1F7FC013197F1F7CE
:10082000FC013197F1F7FC013197F1F7FC013197A9
:10083000F1F7FC013197F1F7FC013197F1F7FC0179
:100840003197F1F7FC013197F1F7FC013197F1F79E
:10085000FC013197F1F7FC013197F1F7F90131977C
:10086000F1F72D9AB801F80107C0A1706F5F7F4FB3
:10087000EF4FFF4FA03059F0DC011197F1F7A1E0E5
:1008800069377105E007F10780F3A12DEECFFA017A
:100890003197F1F72D98FC013197F1F7FC01319771
:1008A000F1F7FC013197F1F7FC013197F1F7FC0109
:1008B0003197F1F7FC013197F1F7FC013197F1F72E
:1008C000FC013197F1F7FC013197F1F7FC01319709
:1008D000F1F7FC013197F1F7FC013197F1F7FC01D9
:1008E0003197F1F7FC013197F1F7FC013197F1F7FE
:1008F000FC013197F1F7FC013197F1F7FC013197D9
:10090000F1F7FC013197F1F7FC013197F1F7FC01A8
:100910003197F1F7FC013197F1F7FC013197F1F7CD
:10092000FC013197F1F7F9013197F1F72D9AB801F0
:10093000F80107C0A1706F5F7F4FEF4FFF4FA030EE
:1009400059F0DC011197F1F7A1E069377105E00773
:10095000F10780F3A12DEECFFA013197F1F72D9831
:10096000FC013197F1F7FC013197F1F7FC01319768
:10097000F1F7FC013197F1F7FC013197F1F7FC0138
:100980003197F1F7FC013197F1F7FC013197F1F75D
:10099000FC013197F1F7FC013197F1F7FC01319738
:1009A000F1F7FC013197F1F7FC013197F1F7FC0108
:1009B0003197F1F7FC013197F1F7FC013197F1F72D
:1009C000FC013197F1F7FC013197F1F7FC01319708
:1009D000F1F7FC013197F1F7FC013197F1F7FC01D8
:1009E0003197F1F7FC013197F1F7FC013197F1F7FD
:1009F000F9013197F1F72D9AB801F80109C0A170FA
:100A00006F5F7F4FEF4FFF4FA03011F40C941A022D
:100A1000DC011197F1F7A1E069377105E007F107F3
:100A200070F3A12DECCF89E090E04C01CE0101964E
:100A30001C0107C0817080309601750111F00C9483
:100A4000F7012901B201C7012AE030E03901A8010C
:100A50000E94FA0969015A01B601C5019301A80172
:100A60000E94FA096063C4010197D1014C01A80FEB
:100A7000B91F6C9381E0920124363105E006F1063E
:100A800008F4D8CF812DD6CF0F920FB60F921F92B8
:100A900011248F9381E08093970180E280938000FE
:100AA00010926F00109290018F911F900F900FBEC7
:100AB0000F9018950F920FB60F922F933F938F932D
:100AC0009F93809193019091940120919501309191
:100AD0009601805F9F4F2F4F3F4F909394018093DB
:100AE000930130939601209395019F918F913F91AF
:100AF0002F910F900FBE0F9018950F920FB60F9277
:100B00001F9211242F933F934F935F936F937F9383
:100B10008F939F93AF93BF93CF93DF93EF93FF9305
:100B2000CDB7DEB721970FB6F894DEBF0FBECDBFAD
:100B300081E08093970189B1A1E9B1E00FB6F89403
:100B40009C910FBE973008F05DC0282F22952F7022
:100B5000269521708695869586958270822B282F02
:100B60003327E92FFF27EE0FFF1FEE0FFF1FE22BAA
:100B7000F32BE859FF4F81E0DE01119691E02591BA
:100B80002D939150E1F79981292F2F70273008F08C
:100B900041C0A1E9B1E00FB6F8942C930FBE929535
:100BA0009F70923021E009F0212D913011F0220F39
:100BB000822FA82FBB27A357BE4F8C91A2E9B1E08B
:100BC0000FB6F8949C910FBE980F0FB6F8949C93B3
:100BD0000FBE21960FB6F894DEBF0FBECDBFFF91BA
:100BE000EF91DF91CF91BF91AF919F918F917F91C5
:100BF0006F915F914F913F912F911F900F900FBE7A
:100C00000F90189589E491E06CE170E048E051E0C4
:100C10000E94D50985E691E068E270E048E051E085
:100C20000E94D5090E9414062F923F924F925F9224
:100C30006F927F928F929F92AF92BF92CF92DF92EC
:100C4000EF92FF920F931F93CF93DF93CDB7DEB751
:100C500029970FB6F894DEBF0FBECDBF8FB7F894BB
:100C600090919701903009F056C391E090939701CD
:100C70008FBF8AB18F7C8AB98BB180638BB9809129
:100C80006D00806380936D00809168008460809324
:100C9000680087E880937A0080E480937C008091EC
:100CA0007E00806280937E003D98459880917C0014
:100CB000807F856080937C0080917A00806480933F
:100CC0007A0080917A0080748030D9F78091780022
:100CD000909179002D98259A2B98239A24982C9AF4
:100CE0002A98229A80E58CBD41E04DBD2998219A31
:100CF0005B98539A80917E008F7D80937E003D9813
:100D0000459A2A9A2998E0E0F0E0BF01CB019F01C3
:100D100007C041704030412DBC01F90109F41FC0EA
:100D20008F5F9F4F2F4F3F4F542F5170503089F09E
:100D30001EBC41E0603C710560E070E0E607F7072B
:100D400040F3412DE6CFA42FA095A523A170A0309C
:100D500079F3ADB551E0AA23B2F7512DF4CF299A1A
:100D600029988DB58823EAF71EBC8DB58823EAF74C
:100D70001EBC8DB58823EAF71EBC8DB58823EAF723
:100D80001EBC8DB58823EAF71EBC8DB58823EAF713
:100D90001EBC8DB58823EAF71EBC8DB58823EAF703
:100DA0001EBC8DB58823EAF71EBC8DB58823EAF7F3
:100DB0001EBC8DB58823EAF71EBC299A299810928B
:100DC000900180E28093800080E18093810081E047
:100DD00090E0909389008093880082E090E0909367
:100DE0008B0080938A0080E090E29093870080934C
:100DF000860083E28093B00098E088E08983909336
:100E0000B1001092B40083E08093B3008091B100F0
:100E1000887F81608093B100000000008091810094
:100E2000887F8160809381002A9882E084BD2AEFC8
:100E300027BD25E025BD80936E0016BC789422E97D
:100E400031E049012FEF3FEF29012FEF3FE019017A
:100E5000312D812DF12DA5014854544FB7016F4F0D
:100E60007F4F6090950170909601009193011091D1
:100E70009401D4010FB6F8942C910FBE2030A1F04C
:100E8000EFB7F8940FB6F8942C910FBE0FB6F89404
:100E90001C920FBEEFBF203039F0F8017301803093
:100EA000998109F028C028C0303009F065C0F17080
:100EB000F03009F408C1D401E0909501F09096015A
:100EC000E0919301F09194010FB6F8942C910FBE2C
:100ED000203091F33FB7F8940FB6F8942C910FBEE1
:100EE0000FB6F8941C920FBE3FBF203009F4E4CF38
:100EF0008030998109F0919586B18072803069F4D3
:100F0000892F825019160CF0892F280F822F8E5F9F
:100F10002F3F0CF0BDC0822FBBC0592F539531E03D
:100F2000523081E008F063C0121641E00CF064C05A
:100F3000523008F0312D582F550F550B982F95270B
:100F4000951B592F5695652F6575792F761B672F41
:100F50006373769576957373760F672F6295670F37
:100F60006F703423231B613009F04BC037E0422FF0
:100F7000903009F059C0C2C121E040175107660501
:100F8000770508F0212D2170203009F09CC0F17008
:100F9000F03039F4F5019981B3C02170203009F0A7
:100FA00092C00091950110919601A0919301B0918A
:100FB0009401F4010FB6F89420810FBE203071F037
:100FC0003FB7F8940FB6F89420810FBE0FB6F8948F
:100FD00010820FBE3FBF203009F096C121E04A17B2
:100FE0005B076007710708F4D8CF212DD6CF892F72
:100FF000121641E00CF49CCF412D523008F09ACFEC
:101000009ACF322F382733230AF46BC13FEF2030B9
:1010100009F4312D41E0622F66230AF0432F420F7D
:1010200038E0903009F46AC1952B292F2695269532
:10103000292B522F52955F70522B5095952F9695D4
:101040009575591B952F9373569556955373590F54
:10105000952F9295950F9F70391B88230AF431952F
:10106000340F832F880F880B232F2827281B2F71DD
:1010700081E090E0203049F040E050E0880F991F77
:10108000441F551F2A952030C9F733230AF4819550
:1010900021E0E83494EFF907A201E406F50608F42C
:1010A000212D382F330F330B982F9327931B90321A
:1010B00008F090E22170881F8827881F203009F4EB
:1010C0001FC099835F011FE02FEF3987288720EF2A
:1010D0003F832E83312DAFEF40EFEFEF2FEF3D83B6
:1010E0002C839FE09B838A8370EF9FEF5FE0B0EFDC
:1010F0006FEFF0919001F030F12D09F0ACCE77C098
:101100008030292F11F0292F21955F012223910191
:10111000A90112F040E050E09A01329522952F701B
:1011200023273F702327398728874295407F5F8395
:101130004E83292F220F220B9983392F3227321BFE
:10114000E32FFF279F01322F3295307F2227B901ED
:10115000770F770B672F462F5D834C837F707B83E0
:101160006A83BF0161707070719561957109B62FC6
:10117000B295B07F7F70729562956F7067277F70B0
:101180006727330F922FA32FAA0FAA0FAA0B9A2F0C
:10119000FE2FEE27FF0FFF0F8F01110F110B012FF5
:1011A000330F330B232F722F7295707F492F5A2FD5
:1011B0005F703F70329522952F7023273F70232751
:1011C000A02F1F70FF0FFF0FFF0BEF2F4E2F429529
:1011D000407FFF70F295E295EF70EF27FF70EF27E9
:1011E00031E0F0919001F030F12D09F034CEF1E0D2
:1011F000F0939001B295BF706295F62FF07FFB2BB4
:101200009295B92FBF705295507F5B2B2295B22FCC
:10121000BF70907F9B2B72957F70207F272BCC8097
:10122000DD800C2D0295702F7F70CA80DB80BD2D74
:10123000B295B07FB72BDB2EE2957E2F7F70007FBB
:10124000072BC02E42954F70E07FE42BA2954A2FCA
:101250004F701295107F142BB12F68847984762DEE
:101260007295472F4F70A07FA42B0E811F81402FB6
:1012700042954F70707F742B6F704DB54423EAF721
:101280006EBD4DB54423EAF7FEBD4DB54423EAF7E4
:101290005EBD4DB54423EAF79EBD4DB54423EAF744
:1012A0002EBD2DB52223EAF7DEBC2DB52223EAF7A9
:1012B000CEBC2DB52223EAF7EEBD2DB52223EAF7E9
:1012C000BEBD2DB52223EAF7AEBD2DB52223EAF728
:1012D0007EBD20EA20938000F1E0F6BBF0936F0022
:1012E000BACD41E0203009F4412D322F33230AF4E6
:1012F0004FEF420F37E0903009F096CE98E0391B5F
:1013000088230AF4ACCEACCEFD01780180309981FF
:1013100009F0F1CDF1CD8FBF84E191E06BE270E097
:1013200048E051E00E94D509CF93DF93CDB7DEB7F7
:101330002A970FB6F894DEBF0FBECDBF9A87898774
:1013400080E091E09E838D838FE391E09C838B838B
:1013500078876F8381E090E09A838983CE0101963C
:101360000E94610008952EE036E1FC013787268750
:1013700086E593EB9587848786E49AEF9387828747
:101380008CEC9FE89187808784E49EE59783868331
:101390008BEE9CE3958384838DE296E9938382832D
:1013A00081E999E4918380830895CF93DF93CDB74A
:1013B000DEB760970FB6F894DEBF0FBECDBF20E05A
:1013C00030E03A872987E1E0F0E0FC83EB83FE011F
:1013D0003D96FA83E98338872F832FE331E03E83FC
:1013E0002D83788B6F879E878D87CE010196BA01FA
:1013F0000E949409A1E21A2EAA1BBB1BFD010DC07D
:10140000AA1FBB1FEE1FFF1FA217B307E407F507B4
:1014100020F0A21BB30BE40BF50B661F771F881F90
:10142000991F1A9469F760957095809590959B0126
:0C143000AC01BD01CF010895F894FFCF7E
:10143C00B20900000100B3093F010A0000000000DE
:10144C000000000063616C6C656420604F7074690F
:10145C006F6E3A3A756E77726170282960206F6EE4
:10146C00206120604E6F6E65602076616C75653C06
:10147C0072656461637465643E476976656E206964
:10148C006E646578206973206F7574206F662062B6
:10149C006F756E6473696E7465726E616C206572C3
:1014AC00726F723A20656E746572656420756E7227
:1014BC006561636861626C6520636F64650001FF40
:00000001FF
