:100000000C94B4030C94D1030C94D1030C94D1033D
:100010000C94D1030C94D1030C94D1030C94D10310
:100020000C94D1030C94D1030C94D1030C94D10300
:100030000C94D1030C94D1030C94E3100C94D103D1
:100040000C94D1030C94D1030C94D1030C94D103E0
:100050000C94D1030C94D3030C94D1030C94D103CE
:100060000C94D1030C94D1030180518B019099938E
:10007000A2964D99B79BF09D01A0F2A1C8A387A5B8
:1000800032A7CCA856AAD2AB42ADA7AE01B052B1AE
:1000900099B2D9B312B543B66EB792B8B1B9CABA6C
:1000A000DFBBEEBCF8BDFFBE01C0FFC0F9C1F0C2AE
:1000B000E3C3D2C4BFC5A8C68FC772C853C931CA6B
:1000C0000DCBE6CBBCCC91CD63CE33CF01D0CCD021
:1000D00096D15ED224D3E8D3ABD46BD52AD6E8D65A
:1000E000A3D75ED816D9CDD983DA37DBEADB9CDC1F
:1000F0004CDDFBDDA9DE55DF01E0ABE054E1FBE1C7
:10010000A2E248E3ECE390E432E5D3E574E613E7DA
:10011000B2E74FE8ECE888E922EABCEA55EBEEEBFF
:1001200085EC1CEDB1ED46EEDAEE6EEF01F092F0EB
:1001300024F1B4F144F2D3F261F3EFF37CF408F567
:1001400094F51FF6A9F633F7BCF745F8CDF854F946
:10015000DBF961FAE6FA6CFBF0FB74FCF7FC7AFD64
:10016000FCFD7EFEFFFE80FF010081000201830195
:10017000050287020A038D03110496041B05A005DE
:100180002606AD063407BC074508CE085809E20923
:100190006D0AF90A850B120CA00C2E0DBD0D4D0E2B
:1001A000DD0E6F0F011093102711BB115012E612D4
:1001B0007C131414AC144515DF157A161517B217F5
:1001C0005018EE188D192E1ACF1A721B151CBA1C56
:1001D0005F1D061EAE1E571F0120AC2058210622AF
:1001E000B52265231724CA247E253426EB26A427AE
:1001F0005E281A29D729962A572B192CDD2CA32DD6
:100200006B2E352F0130CF309F31713245331C3486
:10021000F534D135AF36903773385A39433A303BDD
:100220001F3C123D093E033F014003410A42144373
:1002300024443845514670479548BF49F14A294CF6
:10024000694DB14E02505C51C1523154AD553857D1
:10025000D1587D5A3C5C125E036014624D64B866EE
:1002600064696D6C0770000000000100560B01000E
:100270002C1701008823010070300100EA3D0100C5
:10028000FE4B0100B05A01000A6A0100117A010018
:10029000CE8A0100499C01008AAE01009AC101008A
:1002A00082D501004BEA010000000200AB160200FB
:1002B000572E02000F470200E0600200D57B0200CB
:1002C000FB97020061B5020014D4020023F402007F
:1002D0009D15030092380300145D0300338303006F
:1002E00003AB030096D4030000000400562D040065
:1002F000AE5C04001F8E0400C0C10400AAF7040015
:10030000F72F0500C26A050028A8050045E805008A
:10031000392B06002471060028BA0600670607007C
:10032000065607002CA9070000000800AC5A080078
:100330005CB908003D1C09007F83090053EF0900E8
:10034000ED5F0A0084D50A004F500B008AD00B00E5
:1003500073560C0049E20C0050740D00CE0C0E00D8
:100360000CAC0E0058520F000000100058B51000E1
:10037000B87211007A381200FE061300A6DE1300D0
:10038000DBBF140008AB15009EA0160014A11700D7
:10039000E5AC180092C41900A0E81A009C191C00D2
:1003A00019581D00B0A41E0000002000B16A2100F1
:1003B00070E52200F5702400FC0D26004DBD2700DD
:1003C000B67F290010562B003D412D0029422F00F9
:1003D000CB593100238933003FD135003833380001
:1003E00032B03A005F493D000000400062D5420053
:1003F000E1CA4500EAE14800F81B4C00997A4F0039
:100400006BFF52001FAC56007A825A0052845E0085
:1004100095B36200461267007EA26B006F667000A3
:1004200063607500BF927A0000008000C3AA850057
:10043000C2958B00D3C39100F037980032F59E002F
:10044000D7FEA5003F58AD00F304B500A408BD00D9
:100450002A67C5008C24CE00FD44D700DFCCE00025
:10046000C7C0EA007D25F5000000000187550B019B
:10047000842B1701A7872301E16F300165EA3D0155
:10048000ADFD4B017EB05A01E6096A0147117A01C0
:1004900054CE8A0118499C01FA89AE01BE99C10166
:1004A0008E81D501FA4AEA01000000020EAB160265
:1004B00008572E024E0F4702C1DF6002CAD47B02EA
:1004C0005BFB9702FC60B502CD13D4028E22F402CE
:1004D000A89C150330923803F3135D037C33830328
:1004E0001C03AB03F495D403000000041B562D0439
:1004F0000FAE5C049C1E8E0483BFC10493A9F70455
:10050000B5F62F05F7C16A059A27A8051D45E80528
:1005100051392B0661247106E627BA06F7660607ED
:1005200037065607E92BA9070000000836AC5A0821
:100530001E5CB908373D1C09057F83092653EF0966
:100540006BED5F0AEF83D50A334F500B3A8AD00B1D
:10055000A172560CC148E20CCD4F740DEFCD0C0EBC
:100560006E0CAC0ED157520F000000106D58B51034
:100570003CB872116E7A38120AFE06134CA6DE13CE
:10058000D5DABF14DD07AB15669EA0167414A1174B
:1005900042E5AC188391C419999FE81ADE9B191C97
:1005A000DD18581DA3AFA41E00000020DAB06A2198
:1005B0007970E522DDF4702414FC0D26984CBD27DB
:1005C000AAB57F29BB0F562BCD3C412DE828422FE1
:1005D00084CA593105238933333FD135BB3733388A
:1005E000BA31B03A455F493D00000040B461D542A0
:1005F000F2E0CA45BAE9E14829F81B4C30997A4F34
:10060000556BFF52751FAC569A79825AD051845E51
:100610000995B3620B461267657EA26B766F6670B2
:10062000746360758BBE927A0000008068C3AA85EF
:10063000E4C1958B74D3C39152F037986132F59E23
:10064000AAD6FEA5EA3E58AD34F304B59FA308BD73
:10065000112A67C5158C24CECBFC44D7ECDECCE048
:10066000E8C6C0EA157D25F5000000000000000086
:100670000000000000000001010101010101010171
:100680000102020202020202030303030304040440
:1006900004050505050606060607070708080809F4
:1006A00009090A0A0B0B0B0C0C0D0D0D0E0E0F0F8A
:1006B00010101111121213131414151616171718FF
:1006C00019191A1A1B1C1C1D1E1E1F202121222352
:1006D00023242526272728292A2B2B2C2D2E2F3083
:1006E000313132333435363738393A3B3C3D3E3F91
:1006F0004041424344454647494A4B4C4D4E4F5179
:10070000525354555758595A5B5D5E5F616263643A
:100710006667696A6B6D6E6F717274757778797BD5
:100720007C7E7F8182848587898A8C8D8F9192944B
:100730009597999A9C9E9FA1A3A5A6A8AAACADAF98
:10074000B1B3B5B6B8BABCBEC0C2C4C5C7C9CBCDBB
:10075000CFD1D3D5D7D9DBDDDFE1E3E5E7EAECEEB6
:10076000F0F2F4F6F8FBFDFF11241FBECFEFD8E046
:10077000DEBFCDBF11E0A0E0B1E0E8EDFBE202C0DA
:1007800005900D92A438B107D9F721E0A4E8B1E0B3
:1007900001C01D92A439B207E1F70E940F040C9426
:1007A000EA150C9400000F920FB60F922F933F930F
:1007B0008F939F93AF93BF93EF93FF9381E08093C9
:1007C00093018091780090917900209191013327D5
:1007D000220F331F2B573E4FF90191838083809165
:1007E0009101982F93959370909391018E5F8370F0
:1007F000A82FBB27A357BE4F8C9190917C00907F70
:10080000982B90937C00FF91EF91BF91AF919F91B6
:100810008F913F912F910F900FBE0F9018950E94CE
:1008200011042F923F924F925F926F927F928F921C
:100830009F92AF92BF92CF92DF92EF92FF920F936F
:100840001F93CF93DF93CDB7DEB7A0970FB6F89481
:10085000DEBF0FBECDBF8FB7F8949091930190305B
:1008600009F0D7C191E0909393018FBF87E88093FF
:100870007A0080E480937C0080917E008160809388
:100880007E003898409880917E00826080937E0040
:100890003998419880917E00846080937E003A98D8
:1008A000429880917E00886080937E003B984398B8
:1008B00080917E00806180937E003C984498809176
:1008C0007E00806280937E003D98459880917C00F8
:1008D000807F80937C0080917A00806480937A008E
:1008E00080917A0080748030D9F7A0917800B0911F
:1008F000790080917C00807F816080937C00809172
:100900007A00806480937A0080917A0080748030CD
:10091000D9F7E0917800F091790080917C00807F98
:10092000826080937C0080917A00806480937A005A
:10093000FE2FEE27FF0FFF0F80917A00807480302A
:10094000D9F7609178007091790080917C00807F68
:10095000836080937C0080917A00806480937A0029
:10096000E070FC7172956295707F7627607F7627C4
:10097000660F771F660F771F660F771F80917A00CB
:1009800080748030D9F7809178009091790020911F
:100990007C00207F266020937C0020917A002064D8
:1009A00020937A0092958295907F9827807F982750
:1009B0006078737020917A0020742030D9F72091EC
:1009C00078003091790040917C00407F47604093EF
:1009D0007C0040917A00406440937A008077907068
:1009E000BA2FB295B07FAA27BB0F220F331F220F59
:1009F000331F220F331F40917A0040744030D9F7E3
:100A00007C01409178005091790010917C00107F1A
:100A1000186010937C0010917A00106410937A0093
:100A2000EA2BFB2B28703070440F551F440F551FC5
:100A3000A0917A00A074A030D9F7809178009091AD
:100A40007900A0917C00A07FAE60A0937C00A09173
:100A50007A00A064A0937A006E2B7F2B880F991FD9
:100A600044705070E0917A00E074E030D9F7E09182
:100A70007800F0917900A0917E00AE7FA0937E0077
:100A8000A0917E00AD7FA0937E00A0917E00AB7F01
:100A9000A0937E00A0917E00A77FA0937E00559832
:100AA0005D9A54985C9A2D98259A2B98239A2498AD
:100AB0002C9A2A98229AA0E5ACBDA1E0ADBD78940D
:100AC000A0917C00A07FA460A0937C00A0917A00FC
:100AD000A064A0937A00E62AF72A67012E293F290D
:100AE000422B532BE170F0705F0182709070609127
:100AF0007A0060746030D9F7E0907800F090790067
:100B0000A0917C00A07FA560A0937C00A0917A00BA
:100B1000A064A0937A00A0917A00A074A030D9F7C5
:100B2000A0917800B091790010917C00107F166040
:100B300010937C0010917A00106410937A00109149
:100B40007A0010741030D9F7009178001091790074
:100B500060917C00607F676060937C0060917A00A8
:100B6000606460937A0060917A0060746030D9F7B5
:100B70006091780070917900E6E0F7E0F0939001E1
:100B8000E0938F01E4E0F5E0F0938E01E0938D01B6
:100B900070938C0160938B0110938A0100938901FB
:100BA000B0938801A0938701F0928601E0928501BD
:100BB0001092910161E0609384016093930164E479
:100BC00060937C0010927B006FEE60937A006091DE
:100BD0007C00607F656060937C00DC01AA29BB29F2
:100BE000A42BB52B79B169B1607170727030C1F40A
:100BF000603009F075C0A0E0B0E08FEF9FE79A8FFA
:100C0000898F8FEF9FEF988F8F8B23E0BC8FAB8FF7
:100C10007AC08FBF89E591E06BE270E00E9483119A
:100C20007D01A095B095FD01EF2FFF27BA2FAA27D0
:100C3000AE2BBF2BFD01F695E7958F011695079515
:100C4000169507950E271F27CD01892F82958F7046
:100C50009927802791278A279B27982F9295907F05
:100C60008827990F990F990F8E2B9F2B5695479593
:100C70005695479536952795369527953695279518
:100C800024273527A601529542954F7045275F705E
:100C9000452756954795422753274E255F25542FC4
:100CA0005295507F4427550F550F550FF694E794F2
:100CB000E42AF52AFC01EE25FF25603009F024C066
:100CC0009A8F898FF295E295EF70EF27FF70EF27EB
:100CD000A0E0B0E021E0F88EEF8ABC8FAB8F13C0AC
:100CE0009D0120953095C901892F9927322F222700
:100CF000282B392B3C8F2B8F80E090E022E0988FBF
:100D00008F8B9A8F898F25C16F01A70156954795C3
:100D10009A0136952795B9017695679562277327CD
:100D2000D701B295A295AF70AB27BF70AB27B69530
:100D3000A795A627B727AE25BF25BA2FB295B07FB6
:100D4000AA27BB0FBB0FBB0FA42BB52BBD017695FC
:100D50006795AB0156954795FA01F695E795E42717
:100D6000F5279D01329522952F7023273F70232769
:100D7000369527952E273F277D012A273B27322F9F
:100D80003295307F2227330F330F330F262B372B2B
:100D9000B90176956795FB01F695E795DF01B69564
:100DA000A795AE27BF27A901529542954F704527B9
:100DB0005F704527569547954A275B27422753275B
:100DC000542F5295507F4427550F550F550F462BE2
:100DD000572BFC01F695E795DF01B695A795B695DB
:100DE000A795AE27BF27BC01672F62956F70772745
:100DF0006A277B2768277927CB01982F9295907FC8
:100E00008827990F990F990F8E2B9F2BDC01B69590
:100E1000A7958D0116950795169507950A271B2707
:100E2000BC01672F62956F7077276027712768274D
:100E30007927762F7295707F6627770F770F770F58
:100E40006A2B7B2BDB01B695A7958D01169507952F
:100E5000169507950A271B27FB01EF2FE295EF70E8
:100E6000FF27E027F127E627F727FE2FF295F07FEF
:100E7000EE27FF0FFF0FFF0FEA2BFB2BFE83ED8307
:100E80005A874987E427F5278F01102F0027110F74
:100E9000110F110F00701873E870F070E115F10573
:100EA00029F0A0E0B8EF0A271B2702C00050184F16
:100EB00062277327FB01FE2FEE27FF0FFF0FFF0FA7
:100EC000E070F873687070706115710529F040E08A
:100ED00058EFE427F52702C0E050F84FA6018E2511
:100EE0009F259C01322F2227330F330F330F2070A1
:100EF0003873887090708115910539F0C90120E030
:100F000038EF822793279C0102C02050384FCA0136
:100F1000982F8827990F990F990F807098734870B0
:100F200050704115510518870F833A8F298F41F072
:100F30009C0180E098EF28273927388F2F8B04C039
:100F40008050984F988F8F8BA0E0B0E0BC8FAB8F14
:100F5000212D00E010E082E084BD93E095BD94E691
:100F600097BD80936E002A9880EA8EBD8DB5882348
:100F7000EAF78EB51EBC8DB58823EAF78EB52A9A9E
:100F80005B98539A83E28093B00084E08093B10031
:100F9000422F55271A8B098B1C870B87588B4F873D
:100FA0002FB7F89460918B0170918C018091890129
:100FB00090918A012FBF20919201203089F7423011
:100FC00051050CF08BC041155105FC8BEB8B7E8BD2
:100FD0006D8B09F006C12D012CE09202902D112499
:100FE000829F212D1124290F322F2227802D99270E
:100FF000822B932B65E070E00E943B15673989E0F6
:10100000780710F067E979E094E17902802D1124E6
:10101000699F212D1124280F322F2227802D9927F7
:10102000822B932B929582958F7089279F708927A9
:1010300096958795969587958C7F9370FC01E859D6
:10104000FD4FDE015D9624E035913D932150E1F79F
:1010500084599D4F8F8C98A06D8C7E8CDE015D969F
:10106000FC0184E095919D938150E1F7A1E04D8DC5
:101070005E8D8F8D98A1461557058805990508F056
:10108000A12DA170FA01E619F709BC0168097909D7
:101090009301241B350BA401480B590BA03009F414
:1010A0009F013A2EA03009F4AB01F001FE2FEE278C
:1010B000B801C8015F01680178010E94F910832D11
:1010C000803009F4D8C1215030404F4F5F4F6F4FEF
:1010D0007F4F641A750A860A970AD1C142305105BA
:1010E00009F032C1CB8CDC8C3D2D36952C2D27950B
:1010F00036952795369527955D2D56954C2D479518
:10110000422753272D2D22952F70312D2427352747
:101110002C253D25322F3295307F2227330F330F78
:10112000330FD694C794C22AD32A9D0136952795AA
:10113000A901569547957D01DA01B695A795A42793
:10114000B527A701529542954F7045275F704527F7
:10115000569547954A275B274E255F25542F529574
:10116000507F4427550F550F550F422B532B160117
:1011700096015C8F4B8F2427352792958295907F1F
:101180009827807F9827880F991F880F991F281705
:10119000390710F00C942110AF89B88DA33343E3C5
:1011A000B40708F0D2C3AC01452F55279695879513
:1011B000841B950B2817390710F00C940F104F89DA
:1011C000588DCA018058904021E04817590708F00F
:1011D000212D2030188F0F8B11F40C941F100C94BC
:1011E00021101D01112D29893A89213C2FEF320749
:1011F00001E00CF4012F2CE09202902D1124829F2B
:10120000212D1124290F322F2227802D9927822B5F
:10121000932B65E070E00E943B1529893A89C9014A
:10122000990F990B892F892F992786958695820F7B
:10123000931F959587959595879595958795959500
:1012400087959595879595958795860F971F86170E
:10125000970721E008F4FFC0212F0227003009F48E
:10126000FEC0873929E0920710F087E999E024E170
:101270009202902D1124829F212D1124290F322FAB
:101280002227802D9927822B932B929582958F7000
:1012900089279F70892796958795969587958C7F46
:1012A0009370FC01E859FD4FDE015D9624E0359115
:1012B0003D932150E1F784599D4F8F8C98A06D8C00
:1012C0007E8CDE015D9624E0FC0185918D9321509A
:1012D000E1F74D8D5E8D8F8D98A1461557058805D8
:1012E0009905A1E008F0A12FA170FA01E619F7090C
:1012F000BC01680979099301241B350BA401480B33
:10130000590BA03009F49F015A2EA03080E090E0E4
:101310006C0109F4AB01F001FE2FEE27B601C60106
:101320005F01760186010E94F910852D803009F455
:101330004BC1215030404F4F5F4F6F4F7F4F641A6A
:10134000750A860A970A44C12D017E8B6D8BFC8B32
:10135000EB8B2CE09202902D1124829F212D1124E1
:10136000290F322F2227802D9927822B932B65E07E
:1013700070E00E943B15673989E0780710F067E953
:1013800079E094E17902802D1124699F212D1124A7
:10139000280F322F2227802D9927822B932B92956D
:1013A00082958F7089279F70892796958795969546
:1013B00087958C7F9370FC01E859FD4FDE015D96A7
:1013C00024E035913D932150E1F784599D4F8F8C56
:1013D00098A06D8C7E8CDE015D9624E0FC018591E9
:1013E0008D932150E1F7A1E04D8D5E8D8F8D98A1F9
:1013F000461557058805990508F0A12DA170FA0139
:10140000E619F709BC01680979099301241B350B1A
:10141000A401480B590BA03009F49F013A2EA030CB
:1014200009F4AB01F001FE2FEE27B801C8015F01FE
:10143000680178010E94F910832D803009F48CC175
:10144000215030404F4F5F4F6F4F7F4F641A750AE6
:10145000860A970A85C10227003009F002CF217061
:10146000307031952195310BC901873929E09207F8
:1014700008F0FBCEFCCE640E751E861E971E81E022
:101480006114710420E030E079018E049F0409F4B6
:10149000812D8170803009F48AC6970140E05AE5B9
:1014A00062E672E0C7015301640100E010E00E94AF
:1014B0007E15A0E0B0E081E0203938074A075B07DD
:1014C00008F4812D8170803009F471C6B901CA0118
:1014D00020E931E0AD010E944F156FEF7FEFCB01A6
:1014E0000E944F155A01A201FA013E872D87E20F93
:1014F000F31F6B8D7C8D4B018A1C9B1C81E0E417D4
:10150000F5078606970608F0812DFC8FEB8F81701A
:10151000803069857A85ED81FE8109F4B5C1CB0102
:10152000969587959C0136952795A90156954795DF
:10153000422753278B01129502950F7001271F70C8
:101540000127169507950427152706271727102F1B
:101550001295107F0027110F110F110F082B192B57
:10156000CF01969587959C013695279536952795B9
:1015700028273927AF01452F42954F70552742271D
:1015800053274E275F27542F5295507F4427550FDE
:10159000550F550F482B592B5E834D83CA01802769
:1015A00091279C01322F2227330F330F330F2070E6
:1015B0003873887090708115910509F4D7C180E067
:1015C00098EF28273927D4C1640E751E861E971EF2
:1015D00081E06114710420E030E079018E049F0401
:1015E00009F4812D8170803009F4E1C5970140E054
:1015F0005AE562E672E0C7015301640100E010E0C1
:101600000E947E1581E0203938074007510708F411
:10161000812D8170803009F4CAC5B901CA0120E961
:1016200031E0A8010E944F156FEF7FEFCB010E94C0
:101630004F15220D331D6B8D7C8D461F571F81E08A
:10164000221533054607570791E008F0912D903099
:10165000EFEFFFEFAD89BE8909F4FA0190304FEF4B
:101660005FEF09F4A9014F3F9FEF59072FEF3FEFBD
:10167000E207F30709F0812D817080301801298D70
:101680003A8D09F04EC01F01803009F44DC0803002
:101690001C8F0B8F09F04EC0E295EF70F295EF278B
:1016A000FF70EF27412D512DA11582E0B807152FAE
:1016B0001295042F02957F2F72956E2F629508F078
:1016C00017C1107F1027007F10270727707F07277B
:1016D0007627607F76277B01C8015F019F010E940A
:1016E0002B156C01B60180E090E09701A8010E94E3
:1016F0002B15F6019C019DEFE99F402D812D1124B2
:10170000F9021124770F221F331F4B885C88CB848A
:10171000DC844C145D0408F426C4B2016C197D0904
:1017200025C4803009F0B3CF8A0180301C8F0B8F25
:1017300009F4B2CFAF3F83E0B80718F08FEF93E022
:10174000DC01A11582E0B80708F025C38FEF91E016
:101750008A1B9B0BDC0121C3640E751E861E971E1F
:1017600081E06114710420E030E079018E049F046F
:1017700009F4812D8170803009F419C5970140E08A
:101780005AE562E672E0C7015301640100E010E02F
:101790000E947E15A0E0B0E081E0203938074A07BA
:1017A0005B0708F4812D8170803009F400C5B90110
:1017B000CA0120E931E0AD010E944F156FEF7FEFC4
:1017C000CB010E944F15240D351D8B8D9C8D481F1C
:1017D000591F61E0241535054807590771E008F0E5
:1017E000712D70308FEF9FEF2D883E8809F4CA016C
:1017F00070304FEF5FEF09F4A9014F3F2FEF520711
:101800002FEF3FEF8207930721E009F0212D217090
:1018100036942794012D0795369427940795F12C3B
:10182000E12C203011F4EF88F88C122D203011F4C7
:10183000098D1A8D4E155F058007910708F0612DFF
:101840002030E0E0F0E01F0109F41C01203020E02E
:1018500030E009F49A013C8F2B8F617021E06030F9
:10186000D9F0E114F10441E050E00407150708F055
:10187000212D2170203009F09AC440E050E0BA01D7
:1018800098010E944F1527C0E98CFA8C8B01FE83CA
:10189000ED832F89388D71C0E114F1046FEF7FEF74
:1018A0000607170708F4212D2170203009F07FC4A6
:1018B0004E195F09800B910B98012095309540E0FF
:1018C00050E0BA010E944F154115510511F02FEF5C
:1018D0003FEF209530956B887C88329522952F704C
:1018E00023273F702327F88EEF8A1A8F098F50C263
:1018F000107F1027007F10270727707F0727762784
:10190000607F76277B01C8019F010E942B156C0127
:10191000B60180E090E09701A8010E942B15A60176
:10192000481B590B33E05302202D1124439F412DB6
:1019300011244B885C88CB84DC844C145D0408F44F
:1019400025C3B2016C197D0924C3AC015695479596
:10195000AD3CACECBA0708F45CC3892F9927840F1F
:10196000951F2817390708F42ACC59C32050384F3F
:101970007901298D3A8D388F2F8BA901550F550B81
:10198000452FB4016E7F80E090E00E942B156C0122
:10199000792D7695682D67956F5F7F47CB01990FFD
:1019A000990B892FA701550F550B452FFA82E98214
:1019B00097010E942B153C01770F661C771C6C1455
:1019C0007D04DA8EC98E24F07301EC18FD0803C083
:1019D0007601E618F708B40180E090E01C0194015C
:1019E000A1010E942B15BC01C1019401A1010E941B
:1019F0002B156C01B601C10120E030EAA1010E9463
:101A00002B152C01B601C1019401A1010E942B15D7
:101A10006C01B601C10120E030EFA1010E942B153D
:101A2000481A590AB601C1019C828B829401A10116
:101A30000E942B15BC01C10120E030E6A1010E94EB
:101A40002B159C01240D351D2F3F8FE0380710F01A
:101A50002FEF3FE0220F331F220F331F220F331FC0
:101A6000B70140E050E0CA010E942B159B012150B4
:101A70003048AC014F4F5F4F330F441F551F770F56
:101A8000881F991F298D3A8D6216730614F06C0118
:101A900004C05195419551096A016B887C884B853A
:101AA0005C856D857E85660F771FAA1CBB1C660F43
:101AB000771FAA1CBB1C29893A89620F731FA41EB9
:101AC000B51E81E07E876D8762177307A406B50691
:101AD00008F0812D8170803009F454C0C8019695BA
:101AE00087959C0136952795A901569547954227DC
:101AF0005327B801729562956F7067277F706727CB
:101B0000769567956427752760277127762F7295DC
:101B1000707F6627770F770F770F682B792BED8112
:101B2000FE81CF01969587959C0136952795369530
:101B3000279528273927AF01452F42954F70552704
:101B4000422753274E275F27542F5295507F442713
:101B5000550F550F550F482B592BCA01862797272C
:101B60009C01322F2227330F330F330F207038732D
:101B7000887090708115910561F080E098EF2827BA
:101B8000392709C0EF80F8841A87098700E010E040
:101B90000BC02050384F790100E010E05E834D8388
:101BA0007A8769876F807884A301550F550B452F7D
:101BB000B5016E7FC80193010E942B154C017B2D4E
:101BC00076956A2D67956F5F7F47CB01990F990BCB
:101BD000892FA701550F550B452FFC8AEB8A9701DA
:101BE0000E942B151C01770F221C331C281439046A
:101BF00024F021014818590803C024014218530851
:101C0000B501C8019501A8010E942B15BC01C801AE
:101C10009501A8010E942B158C01B80180E090E08D
:101C200020E030EA40E050E00E942B157C01B80132
:101C300080E090E0950140E050E00E942B158C017F
:101C4000B80180E090E020E030EF40E050E00E94FA
:101C50002B15E81AF90AB80100E010E0C801950157
:101C6000A8010E942B15BC01C80120E030E6A801A4
:101C70000E942B159C012E0D3F1D2F3F8FE0380732
:101C800010F02FEF3FE0220F331F220F331F220FE0
:101C9000331FB201C801A8010E942B15AB014150AE
:101CA00050489C012F4F3F4F550F221F331F770F76
:101CB000881F991F2814390414F09C0103C0319522
:101CC000219531096D897E892B803C80898D9A8D83
:101CD000C80ED91E280D391DA901550F550B452FCA
:101CE00072956295707F7627607F7627660F771FE3
:101CF0008B01110F110B012FC8012B010E942B1515
:101D00004C01770F881C991C93E096013902802DB5
:101D10001124299F412D1124480F542F4427E02CD2
:101D2000FF24E42AF52A8FEF9FE748265926A901C8
:101D3000550F550B452FB201C8010E942B15770F87
:101D4000881F991F8E0D9F1D880D991D9C01330FB3
:101D5000330B232F232F22952F703327280F391F62
:101D6000359527953595279535952795359527955B
:101D70002050384F89819A819A8F898F8D859E85D1
:101D80009A8B898BBC86AB868B899C8998878F833D
:101D900000E010E0E1C1AF5FB140932F9695822F34
:101DA00087959695879596958795F90136952E2F67
:101DB0002795282739278F2F82958F70912D82277D
:101DC00093278E279F27982F9295907F8827990F8A
:101DD000990F990FF695E795E82BF92B6F89788D78
:101DE000CB01969587959C0136952795A901569527
:101DF0004795422753278B01129502950F700127B3
:101E00001F70012716950795042715270627172702
:101E1000102F1295107F0027110F110F110F082B93
:101E2000192BA138B10550F4188F0F8BAF0180E04A
:101E300090E09A8B898B2B893C897AC17D01C801FE
:101E4000969587959C0136952795A90156954795B6
:101E500042275327B801729562956F7067277F708C
:101E60006727769567956427752760277127762FF2
:101E70007295707F6627770F770F770F682B792B16
:101E8000CF01969587959C01369527953695279590
:101E900028273927AF01452F42954F7055274227F4
:101EA00053273F014E275F27542F5295507F4427D9
:101EB000550F550F550F482B592B2A019A01788F32
:101EC0006F8B262737274901329522952F702327BC
:101ED0003F70232736952795369527953695279574
:101EE000C9019070FC01EE0FFF1FE859FF4FDE01A2
:101EF0005D9632E045914D933150E1F72E3F9105CB
:101F000010F08EEF90E0880F991F86599F4FCD8C6F
:101F1000DE8CDE015D96FC0182E095919D938150FF
:101F2000E1F7970120583040203881E038076FE70B
:101F300071E009F0B90180E090E07C012FEF3FE70C
:101F4000A7010E942B152FE731E0A7010E944F1532
:101F50005901ED8CFE8CEC14FD040CF4B0C0B701FB
:101F60006C197D09AFC0B6016419750972018E1B29
:101F7000800D982F88275527482B592BAA0CBB1C5E
:101F8000A40EB51E2E7F2A0D3B1D0DC0B60164198F
:101F900075097201420F542F4427202D3327242B1B
:101FA000352B280F391F00E010E0C801A8010E945E
:101FB0002B159C01EC14FD04A701C60198F4615097
:101FC000704F2F4F3F4F72957F70229572272F7061
:101FD0007227329523273F703227272F821B930BBE
:101FE0009C010DC072957F70229572272F70722709
:101FF000329523273F703227272F280F391F2115AD
:1020000080E138073A0109F0A2C03A012FEF3FE022
:10201000A3C0CA012817390710F40C94DF084F89B0
:10202000588DCA0180589F4F21E08417950708F00A
:10203000212D20302FEF3FEF388F2F8B11F4988F09
:102040008F8B6C3F83E0780718F02F89388D2DC077
:102050007F01C80120EF3FE1A8010E942B15FC0180
:102060003F968F89988D298D3A8D2817390768F406
:10207000BC01621B730BC8019F01A8010E942B15B4
:10208000298D3A8D280F391F0FC08217930760F4EE
:10209000B901681B790BC8019F01A8010E942B158B
:1020A000298D3A8D281B390BF7013A8F298F3295EC
:1020B00022952F7023273F7023273F014DC0B60183
:1020C0006E197F099401322F222720703F7780E01C
:1020D00090E04C01A4010E942B159C01892D880FD2
:1020E000AA1CBB1C880BFB01E150F048A9014F4F13
:1020F0005F4FFF0F441F551F770F221F331FEC1434
:10210000FD0414F0A90103C0519541955109982F80
:10211000C40ED51EA601550F550B452FB5019601CE
:102120000E942B159A8B898B2B893C89F301A20184
:10213000E027F127F295E295EF70EF27FF70EF2788
:102140003F015A8F498F3C872B8700E010E0211513
:1021500080E1380708F031C0F901F295E295EF709F
:10216000EF27FF70EF27E859F94FDE015D9681E018
:1021700095919D938150E1F78D8D8093B4002A98BD
:1021800030633EBD8DB58823EAF78EB52EBD4F85F1
:1021900058898DB58823EAF78EB581E08093920146
:1021A000AB8DBC8D3C8E2B8EF3010C94D00780E45C
:1021B00091E069E170E00E94831186E191E06CE1B9
:1021C00070E00E9483110F920FB60F921F9211249C
:1021D0008F9381E08093930180919201813019F473
:1021E000109292012A9A8F911F900F900FBE0F901C
:1021F00018952F923F924F925F926F927F928F929B
:102200009F92AF92BF92CF92DF92EF92FF920F9385
:102210001F93CF93DF93CDB7DEB726970FB6F89411
:10222000DEBF0FBECDBF260145015C011B015C83F3
:102230004B833901B701C8010E942B158B016C013A
:10224000B4015E824D82C2019101A5010E942B154D
:102250005B017C01A00EB11EEC1CFD1C00E010E037
:10226000B201C8019301A8010E942B156B011C014A
:10227000B401C8014B805C809201A8010E942B151B
:10228000C60ED71E281E391EC801881F991F9A83A3
:102290008983B401C8019301A8010E942B154B0149
:1022A0003C016D817E81C8019201A8010E942B151D
:1022B0006C0C7D1C621D731D29813A81821F931F46
:1022C0006A0D7B1D8E1D9F1D9401A30126960FB6DE
:1022D000F894DEBF0FBECDBFDF91CF911F910F915C
:1022E000FF90EF90DF90CF90BF90AF909F908F9036
:1022F0007F906F905F904F903F902F90089580E077
:1023000091E00E94A811CF93DF93CDB7DEB760971D
:102310000FB6F894DEBF0FBECDBF20E030E03A87A5
:10232000298741E050E05C834B83AE01435F5F4F00
:102330005A83498338872F8324E831E03E832D83F5
:10234000788B6F879E878D87CE0101960E947F11C3
:102350002F923F924F925F926F927F928F929F92B5
:10236000AF92BF92CF92DF92EF92FF920F931F93A3
:10237000CF93DF93CDB7DEB72A970FB6F894DEBFC1
:102380000FBECDBFF89421E0209393011CBC599857
:10239000519A22E230E03093C5002093C40022E03D
:1023A0002093C00028E12093C10026E02093C200C2
:1023B0002091C00020722030D9F32091C0002072FB
:1023C0002030D9F32DE02093C6002091C000207268
:1023D0002030D9F32AE02093C6002091C00020725B
:1023E0002030D9F32DE02093C6002091C000207248
:1023F0002030D9F32AE02093C600FC01E680F78064
:102400000481158182819381A081B1812091C000D6
:1024100020722030D9F320E52093C6002091C0001F
:1024200020722030D9F321E62093C6002091C0000D
:1024300020722030D9F32EE62093C6002091C000F0
:1024400020722030D9F329E62093C6002091C000E5
:1024500020722030D9F323E62093C6002091C000DB
:1024600020722030D9F320E22093C6002091C000D2
:1024700020722030D9F32FE62093C6002091C000AF
:1024800020722030D9F323E62093C6002091C000AB
:1024900020722030D9F323E62093C6002091C0009B
:1024A00020722030D9F325E72093C6002091C00088
:1024B00020722030D9F322E72093C6002091C0007B
:1024C00020722030D9F322E72093C6002091C0006B
:1024D00020722030D9F325E62093C6002091C00059
:1024E00020722030D9F324E62093C6002091C0004A
:1024F00020722030D9F320E22093C6002091C00042
:1025000020722030D9F329E62093C6002091C00024
:1025100020722030D9F32EE62093C6002091C0000F
:1025200020722030D9F320E22093C6002091C00011
:1025300020722030D9F326E62093C6002091C000F7
:1025400020722030D9F329E62093C6002091C000E4
:1025500020722030D9F32CE62093C6002091C000D1
:1025600020722030D9F325E62093C6002091C000C8
:1025700020722030D9F320E22093C6002091C000C1
:1025800020722030D9F327E22093C60081159105EF
:1025900071F08A0F9B1F2C913091C0003072303047
:1025A000D9F32093C6001196A817B907A1F7809117
:1025B000C00080728030D9F387E28093C60080919A
:1025C000C00080728030D9F380E28093C600809191
:1025D000C00080728030D9F381E68093C60080917C
:1025E000C00080728030D9F384E78093C600809168
:1025F000C00080728030D9F380E28093C600809161
:10260000C00080728030D9F38CE68093C600809140
:10261000C00080728030D9F389E68093C600809133
:10262000C00080728030D9F38EE68093C60080911E
:10263000C00080728030D9F385E68093C600809117
:10264000C00080728030D9F380E28093C6002AE017
:1026500030E040E050E0B801C7016A010E944F1528
:1026600060636A8781E00A301105EC04FD0408F01C
:10267000812D8170803019F0E9E0F0E034C089E00C
:1026800090E04C01CE0101962C0106C08170803093
:102690008601750109F023C0B801C7012AE030E0C6
:1026A000190140E050E03A010E944F1569015A01BA
:1026B000B601C5019101A3010E944F156063C401D9
:1026C0000197D2014C01A80FB91F6C9381E0043629
:1026D0001105E604F70408F4D9CF812DD7CFF40112
:1026E000EA30F10589F0CE010196DC01AE0FBF1F83
:1026F0002C913091C00030723030D9F32093C60055
:102700003196EA30F10589F78091C00080728030FF
:10271000D9F38AE08093C6002D98259A80E090E056
:102720005C01CE0101964C0188EE93E03C0107EF7D
:102730001FE38BE79AE12C0181E090E01C0184EF1C
:1027400091E09C838B8384E690E09A838983212D9A
:10275000C50153C02D98C8010197F1F7C801019731
:10276000F1F7C8010197F1F7C8010197F1F7C80126
:102770000197F1F7C8010197F1F7C8010197F1F747
:10278000C8010197F1F7C8010197F1F7C801019756
:10279000F1F7C8010197F1F7C8010197F1F7C801F6
:1027A0000197F1F7C8010197F1F7C8010197F1F717
:1027B000C8010197F1F7C8010197F1F7C801019726
:1027C000F1F7C8010197F1F7C8010197F1F7C801C6
:1027D0000197F1F7C8010197F1F7C8010197F1F7E7
:1027E000C8010197F1F7C2010197F1F78F2D8170B0
:1027F000803021E0C10109F0A2CFF22E880F991F8D
:102800009401820F931FFC01C080D180B601A50105
:10281000CA0193010E942B15FB012F2F22952F70C7
:10282000829528278F702827929589279F7089275E
:10283000382F892F912D2D9AA6014530510508F08A
:10284000C8C0E87FFF70E115F10541F0DF01AA0F74
:10285000BB1FAA0FBB1F15971197F1F72D98D80131
:102860001197F1F7D8011197F1F7D8011197F1F706
:10287000D8011197F1F7D8011197F1F7D801119705
:10288000F1F7D8011197F1F7D8011197F1F7D801B5
:102890001197F1F7D8011197F1F7D8011197F1F7D6
:1028A000D8011197F1F7D8011197F1F7D8011197D5
:1028B000F1F7D8011197F1F7D8011197F1F7D80185
:1028C0001197F1F7D8011197F1F7D8011197F1F7A6
:1028D000D8011197F1F7D8011197F1F7D8011197A5
:1028E000F1F7D8011197F1F7D8011197F1F7D2015B
:1028F0001197F1F72D9AA6014530510508F07FC0D8
:10290000E115F10541F0DF01AA0FBB1FAA0FBB1FA4
:1029100015971197F1F72D98D8011197F1F7D80174
:102920001197F1F7D8011197F1F7D8011197F1F745
:10293000D8011197F1F7D8011197F1F7D801119744
:10294000F1F7D8011197F1F7D8011197F1F7D801F4
:102950001197F1F7D8011197F1F7D8011197F1F715
:10296000D8011197F1F7D8011197F1F7D801119714
:10297000F1F7D8011197F1F7D8011197F1F7D801C4
:102980001197F1F7D8011197F1F7D8011197F1F7E5
:10299000D8011197F1F7D8011197F1F7D8011197E4
:1029A000F1F7D8011197F1F7D2011197F1F72D9AAC
:1029B000A6014530510508F038C0E115F10509F4CC
:1029C000C9CEEE0FFF1FEE0FFF1F35973197F1F7BE
:1029D000C1CEB501AB0104C0A170A03009F431CF64
:1029E000D8011197F1F74F5F5F4F6F4F7F4FA1E015
:1029F000421753076807790778F3A12DEDCFB5018A
:102A0000AB0104C0A170A03009F47ACFD8011197AE
:102A1000F1F74F5F5F4F6F4F7F4FA1E042175307B2
:102A20006807790778F3A12DEDCFB501AB0104C09C
:102A3000A170A03009F4C1CFD8011197F1F74F5F11
:102A40005F4F6F4F7F4FA1E0421753076807790729
:102A500078F3A12DEDCFDB018F939F930E94711529
:102A6000BF91AF91A29F800D911DA39F900DB29F2A
:102A7000900D11240895AA1BBB1B51E107C0AA1F8A
:102A8000BB1FA617B70710F0A61BB70B881F991F0F
:102A90005A95A9F780959095BC01CD010895A1E2C2
:102AA0001A2EAA1BBB1BFD010DC0AA1FBB1FEE1FC8
:102AB000FF1FA217B307E407F50720F0A21BB30B13
:102AC000E40BF50B661F771F881F991F1A9469F78F
:102AD00060957095809590959B01AC01BD01CF01EB
:102AE00008950E94DB15A59F900DB49F900DA49FA3
:102AF000800D911D11240895689401C0E8948F926F
:102B00009F92CF93DF930E948A15DF91CF919F9080
:102B10008F90089588249924F401E401B0E49F93F0
:102B2000AA279A158B049C04ED05FE05CF05D00756
:102B3000A10798F4AD2FDC2FCF2FFE2FE92D982C75
:102B4000892E982F872F762F652F542F432F322FC2
:102B50002227B85031F7BF9127C01B2EBF91BB274A
:102B6000220F331F441F551F661F771F881F991F91
:102B7000881C991CEE1FFF1FCC1FDD1FAA1FBB1F47
:102B80008A149B04EC05FD05CE05DF05A007B107FF
:102B900048F08A189B08EC09FD09CE09DF09A00B53
:102BA000B10B21601A94E1F62EF49401AF01BE013D
:102BB000CD01000C0895A29FB001B39FC001A39F57
:102BC000700D811D1124911DB29F700D811D112466
:082BD000911D0895F894FFCF58
:102BD8000C010A0000000000000000003C7265645F
:102BE80061637465643E476976656E20696E6465E5
:102BF80078206973206F7574206F6620626F756E18
:102C080064730000000000000000000000000000E5
:102C1800617474656D707420746F2064697669647A
:102C280065206279207A65726F63616C6C656420D7
:102C3800604F7074696F6E3A3A756E77726170287A
:102C48002960206F6E206120604E6F6E656020766F
:042C5800616C7565D1
:00000001FF
