:100000000C9412090C942F090C942F090C948A2437
:100010000C942F090C942F090C942F090C942F0980
:100020000C942F090C942F090C942F090C942F0970
:100030000C942F090C942F090C9467240C942F090D
:100040000C942F090C942F090C942F090C942F0950
:100050000C942F090C942F090C942F090C942F0940
:100060000C942F090C942F090000000000000000E0
:100070000000000000000000000000000000000080
:100080000000000000000000000000000000000070
:100090000000000000000000F03F03F03F030000FC
:1000A0000000000000000000000000000000000050
:1000B000000000000000FC0000FC00000000000048
:1000C0000000FC0000FC0000000000000000000038
:1000D00000000000C00C00C00C00F03F00F03F002A
:1000E000C00C00C00C00F03F00F03F00C00C00C08E
:1000F0000C00000000000000C0C300E0C701708ECB
:1001000003300C03FCFF0FFCFF0F300C03709C034B
:10011000E0F801C0F000000000000000C0C303E0F0
:10012000E703307C00303C00F0FF00F0FF01300FAF
:1001300003B00F03F0F901F0F00000000000000030
:10014000C0F300E0FF01709E03301E03303F03B098
:10015000F303F0E101E0E00100F0030030030000F0
:10016000000000000000000000000000000000008F
:10017000FC0000FC00000000000000000000000087
:100180000000000000000000000000000000C0FFB0
:1001900000E0FF017080033800071C000E0C000C0B
:1001A000000000000000000000000000000000004F
:1001B00000000C000C1C000E380007708003E0FFEC
:1001C00001C0FF000000000000000000000000006F
:1001D000C00C00C00C00800700800700F03F00F05A
:1001E0003F00800700800700C00C00C00C0000002A
:1001F00000000000000C00000C00000C00000C00CF
:10020000C0FF00C0FF00000C00000C00000C00004C
:100210000C000000000000000000000000000000D2
:100220001000C03800E01D00E00F00C00700000013
:1002300000000000000000000000000000000000BE
:100240000000000C00000C00000C00000C00000C72
:1002500000000C0000000000000000000000000092
:1002600000000000000000000000C00000E00100ED
:10027000E00100C0000000000000000000000000DD
:100280000000000000003000003C00000F00C00330
:1002900000F000003C00000F00C00300F000003C34
:1002A00000000C0000000000C0FF00E0FF0170F043
:1002B00003303803301C03300E03300703F0830390
:1002C000E0FF01C0FF00000000000000000003C0CC
:1002D0000003C00003C00003F0FF03F0FF030000B1
:1002E0000300000300000300000300000000000002
:1002F000C00003E0800370C00330E00330700330BF
:100300003803301C03700E03E00703C00303000032
:1003100000000000C0C000E0C00170800330000396
:10032000300C03300C03300C03709E03E0FB01C063
:10033000F100000000000000003C00003E0000371B
:1003400000803300C03103E03003F0FF03F0FF030F
:10035000003003003003000000000000F0C300F094
:10036000C30130830330030330030330030330033E
:100370000330870330FE0130FC0000000000000065
:10038000C0FF00E0FF01708303300303300303303C
:10039000030330030330870300FE0100FC0000006C
:1003A000000000003000003000003000003000008D
:1003B00030F00330F803301C00300E00F00700F07E
:1003C0000300000000000000C0F100E0FB01709E8F
:1003D00003300C03300C03300C03300C03709E030D
:1003E000E0FB01C0F100000000000000C00F00E0D1
:1003F0001F007038033030033030033030033030AA
:100400000370B003E0FF01C0FF0000000000000027
:1004100000000000000000000000C30080E7018031
:10042000E70100C300000000000000000000000021
:100430000000000000000000000000001000C338B1
:1004400080E71D80E70F00C30700000000000000E8
:100450000000000000000000000000000000000C90
:1004600000001E00003F00807300C0E100E0C001FA
:100470007080033000030000000000000033000023
:10048000330000330000330000330000330000333A
:1004900000003300003300003300000000000000C3
:1004A000000000000000300003708003E0C001C0C5
:1004B000E100807300003F00001E00000C000000FF
:1004C00000000000C00000E00000700000300000EC
:1004D000303003303803301C00700E00E00700C0DD
:1004E0000300000000000000C0FF00E0FF0170807A
:1004F00003300003301E03303F03303303703303F7
:10050000E03F03C01F0300000000000000F80300EC
:10051000FE03803700E03100703000703000E031C1
:100520000080370000FE0300F80300000000000018
:10053000F0FF03F0FF03300C03300C03300C0330EA
:100540000C03300C03709E03E0FB01C0F1000000BF
:1005500000000000C0FF00E0FF01708003300003D6
:10056000300003300003300003708003E0C001C09E
:10057000C000000000000000F0FF03F0FF033000A7
:1005800003300003300003300003300003708003A9
:10059000E0FF01C0FF00000000000000F0FF03F0DA
:1005A000FF03300C03300C03300C03300C03300C11
:1005B00003300C0330000330000300000000000093
:1005C000F0FF03F0FF03300C00300C00300C003063
:1005D0000C00300C00300C00300000300000000037
:1005E00000000000C0FF00E0FF0170800330000346
:1005F000300003300003300C03708C03E0FC01C0BA
:10060000FC00000000000000F0FF03F0FF03000CFE
:1006100000000C00000C00000C00000C00000C009E
:10062000F0FF03F0FF030000000000003000033083
:100630000003300003300003F0FF03F0FF0330003D
:10064000033000033000033000030000000000000E
:1006500000F00000F0010080030000030000030030
:100660000003000003008003F0FF01F0FF00000022
:1006700000000000F0FF03F0FF03000E00001F0069
:10068000803B00C07100E0E00070C00130800310CA
:100690000003000000000000F0FF03F0FF03000073
:1006A0000300000300000300000300000300000338
:1006B000000003000003000000000000F0FF03F052
:1006C000FF03E00000C00100800F00800F00C001A8
:1006D00000E00000F0FF03F0FF0300000000000056
:1006E000F0FF03F0FF03E00000C001008003000002
:1006F0000700000E00001C00F0FF03F0FF030000E5
:1007000000000000C0FF00E0FF0170800330000324
:10071000300003300003300003708003E0FF01C0AD
:10072000FF00000000000000F0FF03F0FF03300CAA
:1007300000300C00300C00300C00300C00700E004B
:10074000E00700C00300000000000000C0FF00E060
:10075000FF0170800330000330C00330C0033080DD
:1007600003708007E0FF0FC0FF0C000000000000D6
:10077000F0FF03F0FF03300C00300C00300C0030B1
:100780000C00300C00701E00E0FB03C0F103000001
:1007900000000000C0C300E0C701708E03300C03EE
:1007A000300C03300C03300C03709C03E0F801C0E4
:1007B000F0000000000000003000003000003000B9
:1007C00000300000F0FF03F0FF03300000300000B5
:1007D000300000300000000000000000F0FF00F0DA
:1007E000FF0100800300000300000300000300007D
:1007F00003008003F0FF01F0FF0000000000000094
:10080000F00300F00F00003C0000F00000C0030007
:10081000C00300F000003C00F00F00F003000000F7
:1008200000000000F0FF03F0FF0300C00100E00043
:10083000007C00007C0000E00000C001F0FF03F03D
:10084000FF03000000000000F0C003F0E10380732C
:1008500000003F00001E00001E00003F00807300EB
:10086000F0E103F0C003000000000000F00300F01E
:100870000700000E00001C0000F80300F803001C35
:1008800000000E00F00700F0030000000000000070
:1008900030C00330E003307003303803301C0330C5
:1008A0000E03300703B00303F00103F00003000060
:1008B0000000000000000000000000000000000038
:1008C000FCFF0FFCFF0F0C000C0C000C00000000E4
:1008D00000000000000000000000000C00003C00D0
:1008E00000F00000C00300000F00003C0000F0001A
:1008F00000C00300000F00003C00003000000000BA
:1009000000000C000C0C000CFCFF0FFCFF0F0000A3
:1009100000000000000000000000000000000000D7
:10092000000100800300C00100E0000070000070C2
:100930000000E00000C00100800300000100000092
:1009400000000000000030000030000030000030E7
:1009500000003000003000003000003000003000A7
:1009600000300000300000300000000000000C00EB
:10097000001C0000380000300000000000000000F3
:1009800000000000000000000000000000FC00006B
:10099000FE0100870300030300030300830300C379
:1009A0000100E30000FF0300FF030000000000005F
:1009B000F0FF03F0FF030003030003030003030041
:1009C000030300030300870300FE0100FC00000096
:1009D0000000000000FC0000FE010087030003038C
:1009E000000303000303000303000703000E0300DA
:1009F0000C0300000000000000FC0000FE01008766
:100A000003000303000303000303000303000303C5
:100A1000F0FF03F0FF0300000000000000FC0000F6
:100A2000FE0100B703003303003303003303003338
:100A300003003703003E03003C03000000000000F9
:100A4000000000000000000300000300C0FF03E0FE
:100A5000FF0370030030030030000030000000008E
:100A60000000000000FC0000FE010087330003339B
:100A700000033300033300033300033B00FF1F0078
:100A8000FF0F000000000000F0FF03F0FF03000371
:100A90000000030000030000030000030000070043
:100AA00000FE0300FC030000000000000000000046
:100AB000000000030300030330FF0330FF030000C6
:100AC0000300000300000000000000000000000020
:100AD00000003000003000033000033830FF1F30CA
:100AE000FF0F0000000000000000000000000000F8
:100AF00000000000F0FF03F0FF030070000038006A
:100B0000003C00007E0000E70000C30100810300FC
:100B100000030000000000000000000000003000A2
:100B200003300003F0FF03F0FF03000003000003A5
:100B300000000000000000000000000000FF0300B3
:100B4000FF0300030000030000FF0300FF03000396
:100B50000000070000FE0300FC030000000000008E
:100B600000FF0300FF03001C00000E000007000050
:100B7000030000030000070000FE0300FC03000068
:100B80000000000000FC0000FE01008703000303DA
:100B900000030300030300030300870300FE0100BA
:100BA000FC0000000000000000FF3F00FF3F0003CA
:100BB0000300030300030300030300030300870390
:100BC00000FE0100FC0000000000000000FC00002E
:100BD000FE01008703000303000303000303000377
:100BE0000300030300FF3F00FF3F00000000000080
:100BF00000FF0300FF03001C00000E0000070000C0
:100C00000300000300000700000E00000C000000BD
:100C100000000000000C03001E0300330300330338
:100C200000330300330300330300330300E3010008
:100C3000C3000000000000000000000000000003EE
:100C400000000300F0FF00F0FF0100830300030336
:100C500000000300000300000000000000FF00008F
:100C6000FF0100800300000300000300800300C0B8
:100C70000100E00000FF0300FF030000000000008F
:100C8000000700001F0000780000E0010080030062
:100C9000800300E001007800003F00000700000032
:100CA0000000000000FF0000FF010000030000033F
:100CB00000FF0100FF0100000300000300FF01002E
:100CC000FF0000000000000000030300870300CEC7
:100CD0000100FC0000780000780000FC0000CE015C
:100CE00000870300030300000000000000FF000075
:100CF000FF010080330000330000330000330000A8
:100D00003300003B00FF1F00FF0F00000000000049
:100D100000030300830300C30300E3030073030025
:100D20003B03001F03000F03000703000303000041
:100D300000000000000000000000000C00001E0089
:100D4000FCFF0FFEF31F0700380300300000000017
:100D50000000000000000000000000000000000093
:100D600000000000FCFF0FFCFF0F0000000000006F
:100D70000000000000000000000000000000000073
:100D80000000030030070038FEF31FFCFF0F001EB9
:100D900000000C0000000000000000000000000047
:100DA000000C00000E00000300000300000600001D
:100DB0000600000C00000C0000070000030000000B
:100DC0000000000000000000000000000000000023
:100DD0000000000000000000000000000000000013
:100DE000000000000000000000FE0F0080FF3F0038
:100DF000C0FF7F00C0017F00E080E700E0C0E300AB
:100E0000E0E0E100E0F0E000E078E000E03CE0005D
:100E1000C01F7000C0FF7F0080FF3F0000FE0F007A
:100E200000000000000000000000E0000007E000FB
:100E30000007E0000007E0008007E000E0FFFF009F
:100E4000E0FFFF00E0FFFF000000E0000000E00026
:100E50000000E0000000E0000000E00000000000F2
:100E600000000000000000000006C0008007E00055
:100E7000C007F000C001F800E000FC00E000FE0048
:100E8000E000EF00E080E700E0C0E300E0E0E10028
:100E9000C0F1E000C07FE000803FE000000EE00015
:100EA000000000000000000000060C0080073C006D
:100EB000C0077C00C0017000E000E000E000E0003E
:100EC000E0E0E000E0E0E000E0E0E000E0F0E10091
:100ED000C0F17100C0BF7F00801F3F00000E0E00F8
:100EE000000000000000000000E0030000F003002C
:100EF00000F8030000BC0300009E0300008FE30025
:100F00008087E300C083E300E0FFFF00E0FFFF0015
:100F1000E0FFFF000080E3000080E3000080E300CA
:100F20000000000000000000E01F0C00E01F3C007B
:100F3000E01F7C00E01C7000E01CE000E01CE00012
:100F4000E01CE000E01CE000E01CE000E01CE00031
:100F5000E0387000E0F87F00E0F03F00E0C00F00F4
:100F6000000000000000000000FE0F0080FF3F00B6
:100F7000C0FF7F00C01D7000E01CE000E01CE0002E
:100F8000E01CE000E01CE000E01CE000E01CE000F1
:100F9000E038700000F87F0000F03F0000C00F0054
:100FA0000000000000000000E0000000E000000081
:100FB000E0000000E0000000E0000000E000FF00B2
:100FC000E080FF00E0C0FF00E0E00100E0F0000092
:100FD000E0780000E03F0000E01F0000E00F0000AC
:100FE0000000000000000000000E0E00801F3F0007
:100FF000C0BF7F00C0F17100E0F0E100E0E0E00080
:10100000E0E0E000E0E0E000E0E0E000E0F0E1004F
:10101000C0F17100C0BF7F00801F3F00000E0E00B6
:101020000000000000000000007E000080FF0100C2
:10103000C0FF0300C081E300E000E700E000E7003C
:10104000E000E700E000E700E000E700E000E70084
:10105000C0017700C0FF7F0080FF3F0000FE0F004F
:101060000000000000000000FF898989760000FF71
:10107000090909060000FF020C02FF040C1C3C7C5D
:10108000FC7C3C1C0C042030383C3E3F3E3C38305D
:1010900020000300000300800700800700C00F0C41
:1010A000C00F0CE01F0CE01F0CF03F0C00030C0005
:1010B000030C00030C00030C00030C00070E0006D9
:1010C00006009E0700FC0300F000E30F00F31F0082
:1010D000DB3000DB3000DB3007DBB0079BDF0603D3
:1010E0006F0603303603F83F03F83F0300365465BC
:1010F0006D706F50756C7365575068617365537789
:10110000696E6745786974D022E7D520F8E938A17F
:101110004E188C47308CFEF5FFF7F728B9F8FBF531
:101120001C7CCCCC4C24016B1CEAA3CAE0F580A744
:10113000CC095CD936EFAEAD66C1BDBE79646CA793
:101140002C2B4DB4CC085146DF0B2618FED2D2B161
:101150002051C3F37D08A970206135C30DCB092F41
:10116000687D75727CA5CBB5EBC1CE46B4AE00A749
:10117000B529A41E747FC6F59257E095CE3904C0F8
:10118000D241D281F0B269E46CF5948C2823C32655
:101190003A41CFD7FD4155D04C3E03ED3759E832A7
:1011A000D940F49DC779FC5A11D4CB95988CBBEAF1
:1011B000B149AEC164C08F6135918713670D5A87FD
:1011C00097C75BEFF721279165786303BA566329C8
:1011D000EDCB6F4FDC879E2A1E9A784357A787B0C6
:1011E000B7BFFD73B815E93A81E98E2780D37689B8
:1011F0008BFF7214DA719A1B7FF6FA0108C6FAD1D6
:101200005CDEAD155866DB0001040002010000023F
:101210000103000200031005000400050604000598
:101220000600200011241FBECFEFD8E0DEBFCDBFE7
:1012300012E0A0E0B1E0E8E0F1E602C005900D9216
:10124000A433B107D9F722E0A4E3B2E001C01D92B4
:10125000AB33B207E1F70E9412250C9482300C9454
:1012600000004F925F926F927F928F929F92AF9207
:10127000BF92CF92DF92EF92FF920F931F93CF9383
:10128000DF93CDB7DEB7C058D0400FB6F894DEBFBD
:101290000FBECDBFDB012C91422F552723305105C6
:1012A0005C010CF432C0453051050CF060C0433095
:1012B000510509F0B9C0FD0183819481880F991F00
:1012C0008115910509F40BC2FD01A181B281F501DF
:1012D000308121E0303009F0212D8A0F9B1F2170D1
:1012E000203019F42DB52223EAF7FD0131962C9117
:1012F0002EBD2DB52223EAF7D5011C922EB521E093
:10130000E817F907DF0159F7EAC14115510509F45A
:10131000D3C04130FD01510509F0F6C083819481AD
:10132000880F991F8115910509F4D9C1FD01A1818B
:10133000B281F501308121E0303009F0212D8A0F92
:101340009B1F2170203019F42DB52223EAF7FD01EF
:1013500031962C912EBD2DB52223EAF7D5011C9292
:101360002EB521E0E817F907DF0159F7B8C145307C
:10137000FD01510509F009C1C180D28003811481AA
:10138000CE01019640E850E04C01612D0E947B3077
:10139000F801E680F780C601F7010995D501982F7D
:1013A000872F6170603009F49AC11C9120E030E011
:1013B0003901D9010BC02D01C601F7010995982FFC
:1013C000872F61706030D20109F42CC19D01220F7A
:1013D000331FA401240F351FAC01452F5527982F2B
:1013E0008827842B952BF901918380831196A03453
:1013F000B10509F7C301F501103019F02DB522230D
:10140000EAF7D401A80FB91F01962C912EBD2DB576
:101410002223EAF710822EB580389105112D61F74D
:10142000112DC3012C01C8CFFD01C180D2800381E1
:101430001481CE01019640E250E04C01612D0E94E2
:101440007B30F801E680F780C601F7010995F501C8
:101450008170803009F443C1108120E030E039010F
:10146000290109C02C01C601F7010995817080305E
:10147000F50109F4F8C0D401A40DB51D9C93C20177
:1014800001968032910571F7C301103019F02DB526
:101490002223EAF7D401A80FB91F01962C912EBD83
:1014A0002DB52223EAF710822EB580329105112D39
:1014B00061F7112DC301D6CFFD0183819481811580
:1014C000910509F40CC1FD01A181B281F5013081C2
:1014D00021E0303009F0212D8A0F9B1F2170203030
:1014E00019F42DB52223EAF7FD0131962C912EBD7A
:1014F0002DB52223EAF7D5011C922EB521E0E8177D
:10150000F907DF0159F7EBC023813481211531053B
:1015100009F4E5C0FD01A181B281220F331FCD0185
:10152000820F931F7D018D01F80140815181BA0125
:10153000672F7727542F4427462B572B51834083FF
:101540001296A817B90779F721153105D70109F4C3
:10155000C6C0F501308121E0303009F0212D217025
:10156000203019F42DB52223EAF7FD0131962C9194
:101570002EBD2DB52223EAF7D5011C922EB521E010
:10158000E817F907DF0159F7AAC0C180D2800381AB
:101590001481CE01019640E450E04C01612D0E947F
:1015A0007B30F801E680F780C601F7010995D50187
:1015B0006170603009F493C01C9120E030E0390183
:1015C000D90109C02D01C601F7010995617060308C
:1015D000D20109F465C09D01220F331FA401240F1D
:1015E000351FF901818370831196A032B10551F73F
:1015F000C301F501103019F02DB52223EAF7D4010B
:10160000A80FB91F01962C912EBD2DB52223EAF704
:1016100010822EB580349105112D61F7112DC30173
:101620002C01D1CFA115B105D50109F458C0440C46
:10163000551CC401480E591EA201103019F08DB579
:101640008823EAF7F401CF01019620812EBD2DB544
:101650002223EAF71C922EB59A0182179307112DC7
:101660004C0159F73CC0A2014115510509F437C09E
:10167000C401480F591F103019F08DB58823EAF7BF
:10168000D401CD0101962C912EBD2DB52223EAF770
:1016900010822EB584179507112D4C0161F71FC0DC
:1016A000A115B105D501D9F0440C551CC401480E53
:1016B000591EA201103019F08DB58823EAF7F40104
:1016C000CF01019620812EBD2DB52223EAF71C9271
:1016D0002EB59A0182179307112D4C0159F7C05866
:1016E000DF4F0FB6F894DEBF0FBECDBFDF91CF91B5
:1016F0001F910F91FF90EF90DF90CF90BF90AF9030
:101700009F908F907F906F905F904F9008954F9231
:101710005F926F927F928F929F92AF92BF92DF9271
:10172000EF92FF920F931F93CF93DF93CDB7DEB766
:1017300025970FB6F894DEBF0FBECDBF7C01F70131
:101740001181103059F08EE090E09A838983CE01A8
:101750000196B7010E94490CF7011182F70122811D
:10176000822F9927223091050CF022C08115D12EAD
:10177000910509F421C08FE38B838FE090E09A8379
:101780008983CE010196B7010E94490CF70181813E
:10179000823059F08FE08B8380E190E09A838983D7
:1017A000CE010196B7010E94490C80E490E820C068
:1017B0008230D12E9105F9F68FE78B838FE090E090
:1017C0009A838983CE010196B7010E94490CF701E3
:1017D0008181823059F087E08B8380E190E09A83A9
:1017E0008983CE010196B7010E94490C80E890E4FC
:1017F000899F212D1124802D9927322F2227282BD4
:10180000392B232F3327269521605901E0E0F0E0A2
:1018100080E490E03C018AE991E02C018E010F5FA9
:101820001F4FC3019D838C83C2019B838A831982CE
:101830004298419AC701B8014F010E943109F40151
:10184000429A3196C501E817F90758F31D2D10305B
:1018500051F08EE089831A83CE010196B7010E9470
:10186000490CF701118325960FB6F894DEBF0FBE21
:10187000CDBFDF91CF911F910F91FF90EF90DF903F
:10188000BF90AF909F908F907F906F905F904F90A0
:101890000895CF93DF93CDB7DEB72C970FB6F894AA
:1018A000DEBF0FBECDBFDC019C91892F83508B31F1
:1018B00008F085E08D307CF08431ECF4FD0180315E
:1018C0000CF435C082310CF068C0803109F081C061
:1018D0008181806AC0C0FD018630ECF089300CF453
:1018E0002FC08B300CF062C0893009F077C0818145
:1018F0008F708061B0C087310CF42EC089310CF03C
:101900005DC0873109F072C0FD0181819BED988730
:101910008295807FD3C083300CF029C0803009F4D9
:101920006CC0813009F06EC08181846A94C08D30B2
:1019300009F46BC08E3009F06EC08181806B8BC062
:10194000863009F46CC0873009F06CC081819281C7
:101950009A87898783EAA5C0FD01843109F465C0AF
:10196000853109F06EC08181928125ED6DC0833093
:1019700009F46FC0843009F071C0818193812281A4
:10198000348140E05FEF5F834E833D832C839B83F4
:101990001A828662898387E06DC0823109F077C040
:1019A0008181880F880F880F806C55C08B3009F0BB
:1019B00073C08181898780E2888781C0FD01893178
:1019C00009F072C081819DE89887880F880F806137
:1019D00075C08181898788EA888771C08181982F45
:1019E0009F70988782958F70806168C081E090E0D9
:1019F0009D838C838AED91E068C08181898781E82D
:101A000088875DC08181866A26C0818192819A879C
:101A1000898782E246C081818F7380641CC0818186
:101A20008E6219C081818F7016C0828191812AEDEA
:101A300028879295907F8295807F880F892B82607E
:101A40003DC08281918129ED28879F708295807F9A
:101A500034C081818E6A888781E032C08281218191
:101A6000338144814E833D832C838B831A82986219
:101A7000998386E090E09C878B87CE0101969A87B8
:101A800089871886429841989E01285F25C08181E8
:101A9000898783ED888713C0818192819A8789879E
:101AA00081E2888783E00CC0828191812DEA2887BA
:101AB0009295907F8295807F880F892B898782E01D
:101AC00090E09D838C83CE0108969B838A83198244
:101AD000429841989E012F5F3F4FCB01B9010E9470
:101AE0003109429A2C960FB6F894DEBF0FBECDBFD7
:101AF000DF91CF9108952F923F924F925F926F9214
:101B00007F928F929F92AF92BF92CF92DF92EF928D
:101B1000FF920F931F93CF93DF93CDB7DEB7A797B5
:101B20000FB6F894DEBF0FBECDBF3B01F30140807E
:101B30005180C280D380E418F5080C091D0998A3D0
:101B40008F8FFC0180A1803009F4FEC2F3018680F2
:101B50009780A480B58089A3282F332760E077E899
:101B60001C830B8383E993E040E050E00E94D72F71
:101B70006B817C8181E02E153F054607570708F0F1
:101B8000812D81708030FA82E982F30109F428C046
:101B9000A085B18582859385AF5FBF4F8F4F9F4FE3
:101BA000BBA3AAA3B187A0879E8B8D8B93878287C7
:101BB00080E090E0420E531EC41ED51EA81EB91E22
:101BC000881E991E97828682B582A482D382C282A1
:101BD00051824082E21AF30ACB01840B950B09C0B3
:101BE000828593859E8B8D8B808591859BA38AA30F
:101BF000CB0169015A010AE010E0F88AEF86B701CB
:101C00009E878D87980140E050E07A010E94D72F8F
:101C10003E8F2D8F5C8F4B8FDC8ACB8AB601BA8AC0
:101C2000A98AC50198018701A8010E94D72F3A8F80
:101C3000298F588F4F8BE12CF12C89A1823391E0B1
:101C400008F0912DAF2DBB27AA0FBB1FAA0FBB1FFA
:101C50002F8D38A1A20FB31F8C91803E21E00CF094
:101C6000212D922390308F88988C09F42AC09030CF
:101C7000698D7A8D09F42CC090304B8C5C8C09F402
:101C80002EC09030AD8CBE8C09F430C08F3BBDA30C
:101C9000ACA309F032C081E02AA13BA12115310596
:101CA0002D893E892007310709F081C0817080307D
:101CB00009F482C0803009F45B01812D9FA38EA3BB
:101CC000BFC089889A889030698D7A8D09F0D4CF09
:101CD0006B897C8990304B8C5C8C09F0D2CF4D8421
:101CE0005E849030AD8CBE8C09F0D0CFAF84B888C4
:101CF0008F3BBDA3ACA309F4CECF82300CF061C002
:101D0000803009F41BC27C876B87982F990F990B41
:101D10008927891B282E382E330C33086101DD0CEE
:101D2000DD08CD2C6AA17BA18D899E899101A60138
:101D30000E94D72F5E834D833901C9018170907055
:101D400021E0811591050007110709F0212D3FA31E
:101D50002EA30B851C85B801C4019101A6010E9428
:101D6000C72F7A87698798878F83B3018D819E817A
:101D70009101A6010E94C72F2AA13BA1261B370B68
:101D80004D895E89480B590BB901CA019801A4011C
:101D90000E94C72FA60EB71E481E591E69857A8558
:101DA0008F80988400E010E0ACA1BDA149C0812DD6
:101DB0008170803009F07ECF2401803009F47CCF1F
:101DC0007CCFC82EDD24C4019601A8010E94D72F24
:101DD0004A0181149104C90109F479C12230310505
:101DE00008F47BC18114910409F09C013901B5010B
:101DF000C201A4010E94D72F8901B801CA011301B1
:101E00009301A4010E94C72FA61AB70A480A590ACB
:101E10000170107081E00115110500E010E000076D
:101E2000110709F0812D6AA17BA19601A801D82E86
:101E30000E94C72F6D257FA36EA3ACA1BDA1B101E8
:101E4000FD019381892F8195282F22230AF433C025
:101E5000903009F468C0282F33271B01C401A80162
:101E60000E94C72F660F771F881F991F712C771C40
:101E7000660F771F881F991F771CC72EB101D82EB8
:101E8000692ECA0CDB1C641C751C81E06C157D0579
:101E90008604970408F4812D8170803009F040C0D9
:101EA000C61AD70A6808790881E02EA13FA1282721
:101EB0003FA32EA335C0292F392F330F330BA90190
:101EC000550F550B452F1B01C4010E94C72F660FEC
:101ED000771F881F991F312D331F660F771F881FAB
:101EE000991F331F472F582F292F81E0A416B506BD
:101EF0004206530608F0812D81708030B9F0B1019F
:101F0000A60EB71E481C591CA41AB50A420A530A49
:101F100081E02EA13FA128273FA32EA36501320116
:101F2000ACA1BDA10CC06501320109C0A41AB50A5B
:101F3000420A530A65013201ACA1BDA1B1019B0166
:101F400028583341A4014040504081E06217730794
:101F50008406950691E0D0F490305801D9F0903085
:101F6000A80109F4A901493893E15907A006B1066F
:101F700008F0812D8170803091F0592C5694482CB6
:101F80004794372E3794262E27944EC0912D9030AB
:101F9000580129F75A019030A80121F3E4CFFD013F
:101FA0008281803009F43CC084361A01250109F48D
:101FB0003BC01A01282F33272B01C401A8010E941E
:101FC000C72FA80101E0603221EA720727E030E064
:101FD0008207930711E008F0112D24E630E00E94FB
:101FE000D72FC101281739074A055B0508F0012DD5
:101FF0000030ACA1BDA1B20109F4A50111701030EF
:1020000080E090E02C0109F42A010030A10109F4DC
:102010009A01103088E893E11C0131F4190104C0E1
:1020200088E893E11C0128011F2D13958EA19FA123
:102030008170803059F001E0C214D3046404750447
:1020400089A108F438C0012D017038C0C416D50626
:102050006A047B0401E008F0012DFD018181282F35
:102060003327C40140E050E00E94C72F660F771F5E
:10207000881F991F312D331F660F771F881F991FE7
:10208000331F472F582F292F4C155D05260537057F
:1020900081E008F0812D420D531D241D351DC4160D
:1020A000D5066206730691E008F0912D8923082376
:1020B000017089A103C0017001C0000FFA94EAF712
:1020C000E02A1830F12E00E010E071F0B7CD81E089
:1020D00090E02230310508F085CE21E030E0811417
:1020E000910409F082CE82CE91E029813A814B8918
:1020F0005C89421753072B813C8149895A894207E1
:10210000530708F0912D91708E2DA7960FB6F89475
:10211000DEBF0FBECDBFDF91CF911F910F91FF901A
:10212000EF90DF90CF90BF90AF909F908F907F9077
:102130006F905F904F903F902F90089580E691E0D0
:1021400069E370E00E94C32F80E491E069E170E0F0
:102150000E94C32FCF92DF92EF92FF920F931F93B3
:1021600023E0312D12C050955C93F70151818F010E
:102170005095D601FD0157831896F801528150956C
:1021800033955C93333109F45DC0329FA12D112446
:10219000E02DFF27BA2FAA27AE2BBF2BFB01EA0F9A
:1021A000FB1FA80FB91F6D0116967F0150814230A9
:1021B000DCF0423009F426C0433009F033C05095BA
:1021C0001C9115231C93D601FD0157816F01F70166
:1021D000118110951523F60117831085F70152819F
:1021E000509551231896CCCF403009F0BCCF5C936A
:1021F000F70151818F01D601FD0157831896F8012F
:102200005281BECF1C91152B1C93F7015181D60131
:10221000FD011781152B17831085F7015281512B72
:102220001896AECF1C9115271C93F7015181D6014A
:10223000FD011781152717831085F701528151275A
:1022400018969ECF1F910F91FF90EF90DF90CF9047
:102250000895AF92BF92CF92DF92EF92FF920F93C9
:102260001F9323E0312D24C010956D01D7011C93DD
:102270008501F801E758FF4F7F01F601A181BA2FD0
:10228000BB0F551F5527551F5B2B5095F7015083EA
:10229000AA1FAA27AA1FF6015281550F5A2B509543
:1022A0003395D501A658BF4F5C933C3009F42EC03E
:1022B000329F012D1124A02DBB27102F00270A2BA0
:1022C0001B2BDB01A00FB11F080F191F5801085865
:1022D0001F4F78015C91152F110F403009F0C4CFCA
:1022E0006D01D7011C93F6011181012F000F551FBD
:1022F0005527551F502BD501A758BF4F5C93111F71
:102300001127111F5281550F512BCACF1F910F91C9
:10231000FF90EF90DF90CF90BF90AF900895FA01BB
:10232000DC01A60FB71F80819F018C938181FD0185
:102330008183F9018281FD018283F9018381FD019D
:102340008383F9018481FD018483F9018581FD0185
:102350008583F9018681FD018683F9018781FD016D
:102360008783F9018085FD018087F9018185FD0161
:102370008187F9018285FD01828708954F925F92DE
:102380006F927F928F929F92AF92BF92CF92DF9285
:10239000EF92FF921F93CF93DF93CDB7DEB7A49751
:1023A0000FB6F894DEBF0FBECDBF7901DA016C0124
:1023B000EA0EFB1ECE0101964C0183E008C0FB0132
:1023C0003C96BF01D501AE15BF0509F4D9C04D91AA
:1023D0005D0140320CF4EAC0405294E2499FE12D85
:1023E0001124402D5527FE2FEE27E42BF52BE8591D
:1023F000FF4F44E2D40155915D934150E1F7912D97
:102400001EC0109510832F01FD0121813F01322F45
:10241000330F441F4427441F432B4095D201FD0135
:102420004183221F2227221FF3014281440F422BA6
:10243000409512964C9393959C3009F4C0CF989F89
:10244000F02DA12D1124292F3327AB01240F351F87
:102450003802502D1124289F412D11242A34310592
:1024600050F72F2F3327BA2FAA27A22BB32B450FB4
:10247000542F4427E02DFF27E42BF52BEC0DFD1DF9
:102480009401A20FB31F4C91142F110F02300CF4C2
:1024900025C0023009F43BC0033009F055C0109547
:1024A0002081212320833F012181FD013181532F90
:1024B000550F441F4427441F452B40954223F301E9
:1024C0004183331F3327331FFD012281220F232B2A
:1024D0002095F3014281D3014223ABCF003009F0B4
:1024E00090CF10832F01FD0121813F01322F330F47
:1024F000441F4427441F432BD201FD014183221F67
:102500002227221FF3014281440F422B92CF2081C8
:10251000212B20832F013D01F3012181322F330F25
:10252000441F4427441F432BD201FD013181342B2A
:102530003183221F2227221FF3013281330F322BD6
:10254000FD014281432B75CF2081212720833D014E
:10255000DF01F3012181322F330F441F4427441F31
:10256000432BFD01318134273183221F2227221F73
:10257000F3013281330F322BFD014281432759CFC2
:10258000A4960FB6F894DEBF0FBECDBFDF91CF91FA
:102590001F91FF90EF90DF90CF90BF90AF909F90F2
:1025A0008F907F906F905F904F90089580E091E0C2
:1025B00065E370E00E94C32F4F925F926F927F920B
:1025C0008F929F92AF92BF92CF92DF92EF92FF9243
:1025D0000F931F93CF93DF93CDB7DEB7C054D04096
:1025E0000FB6F894DEBF0FBECDBF6A01DB01C11488
:1025F000D10409F45DC1B601660F771F660F771F1E
:10260000660F771F40E250E0461B570B31E0413226
:102610004A01510508F4312D303019F040E050E006
:102620004A01CA0EDB1EBE016F5F7F4F45E008C046
:10263000F40170964F01D501AC15BD0509F438C100
:10264000ED915D01E053EA3008F04AC1FF27F295B1
:10265000E295F07FFE27E07FFE27EE0FFF1FEE0FD3
:10266000FF1FE851F24F10E4DB0105910D9311506B
:10267000E1F7312D47C0F095D8015C915F235C9361
:10268000FD012D015181D301A160A60FB71F1C913F
:10269000F12FF295F07FFF0FFF0FF694F694FF2ACB
:1026A000F094F522F201F18216951695D301A260FD
:1026B000A60FB71F5C91A52FA295A07FAA0FAA0F06
:1026C000A12BA095B281BA23B28356955695F301FA
:1026D000E360E60FF71FA081BA2FB295B07FBB0F62
:1026E000BB0FB52BB095F20153815B23538354810B
:1026F000A695A695A095A5233496A0833395303151
:1027000009F496CFE32EFF24D401AE0DBF1DB40211
:10271000F02D1124A49F012D1124A034B10570F7D0
:102720000F0F102F0027E02DFF27E02BF12BEE0CD1
:10273000FF1CEE0CFF1CE80FF91F8F01DB013701B6
:10274000AE0DBF1DFC90FF2DF295F07FFF0FFF0F28
:1027500022300CF036C0203009F072C0D801FC9352
:102760002D01D301A160A60FB71F1C91A12FA29527
:10277000A07FAA0FAA0FF694F694FA2AF201F1822A
:1027800016951695D301A260A60FB71F5C91A52FD1
:10279000A295A07FAA0FAA0FA12BA28356955695AA
:1027A000F301E360E60FF71FA081BA2FB295B07F67
:1027B000BB0FBB0FB52BF201B3833496A695A6953C
:1027C0009CCF223009F057CFD8015C915F2B5C93EE
:1027D000D301A160A60FB71F5C91E52FE295E07FC2
:1027E000EE0FEE0FF694F694FE2AF801A181AF29C0
:1027F000A18356955695D301A260A60FB71FBC9131
:10280000AB2FA295A07FAA0FAA0FA52BF80152818A
:102810005A2B5283B695B695F301E360E60FF71F86
:10282000A0815A2F5295507F550F550F5B2BF80101
:10283000B381B52BB3835481A695A695A52B5CCF08
:10284000F095D801FC93D301A160A60FB71F5C914E
:10285000E52FE295E07FEE0FEE0FF694F694FE2A58
:10286000F094F801F18256955695D301A260A60F17
:10287000B71FBC91AB2FA295A07FAA0FAA0FA52BC3
:10288000A095F801A283B695B695F301E360E60F33
:10289000F71FA0815A2F5295507F550F550F5B2B74
:1028A0005095F80153833496A695A695A09525CF0B
:1028B000C05CDF4F0FB6F894DEBF0FBECDBFDF9117
:1028C000CF911F910F91FF90EF90DF90CF90BF902D
:1028D000AF909F908F907F906F905F904F900895F2
:1028E00080E091E065E370E00E94C32F4F925F9219
:1028F0006F927F928F929F92AF92BF92CF92DF9210
:10290000EF92FF920F931F93CF93DF93CDB7DEB774
:10291000A4970FB6F894DEBF0FBECDBFDB01411503
:102920008A01510509F432C13CE0A8015302602D2F
:102930001124439FE12D1124E60FFE2FEE27602D79
:1029400077276E2B7F2B76956795E0E2F0E0E61B0C
:10295000F70B31E0E1325F01F10508F4312D303041
:1029600019F060E070E05B010A0F1B1F3801BE0127
:102970006F5F7F4F43E009C0F5013C965F01D601D0
:10298000F301AE17BF0709F401C1ED916D01E0320B
:102990000CF413C1E052F4E2EF9FE12D1124A02DBD
:1029A000BB27FE2FEE27EA2BFB2BE859FF4FDB015D
:1029B00004E2F590FD920150E1F7312D3AC0009507
:1029C000F080F022F082F401E160E80FF91F00814D
:1029D0007F01FD01A1812F01BA2FB295B07FBB0FFE
:1029E0001695169516951B2B10951023F70110833D
:1029F000A695A695A695F2010281F02FF295F07F9B
:102A0000FF0FFA2BF095D401A260A80FB91FFC901C
:102A1000FF22FC92D4010695069506950095A360C9
:102A2000A80FB91F5C9150235C9333953C3009F497
:102A3000A3CF349FA12D1124032F112775010E0D53
:102A40001F1D0034110588F7E02CFF24BA2FAA2798
:102A5000AE29BF29000F111F000F111FFC014801F3
:102A6000E00FF11FA60FB71F1C91012F0295007FE9
:102A7000000F22300CF02DC0203009F05BC0008325
:102A8000F401E160E80FF91F7F01FD01A1812F0131
:102A9000BA2FB295B07FBB0F1695169516951B2BC6
:102AA000F7011083A695A695A695F2015281052FF0
:102AB0000295007F000F0A2BD401A260A80FB91F56
:102AC0000C93D401A360A80FB91F5695569556953F
:102AD000ABCF223009F073CFF080F02AF082FD01F5
:102AE0000181A02FA295A07FAA0F16951695169585
:102AF0001A2BD401A160A80FB91FFC90F12AFC92F7
:102B0000069506950695F280FF2DF295F07FFF0F52
:102B1000F02BD401A260A80FB91F0C910F2B0C93BE
:102B2000D401F694F694F694A360A80FB91F5C91B3
:102B30005F297ACF00950083F401E160E80FF91F67
:102B40007F01FD015180B52DB295B07FBB0F169569
:102B5000169516951B2B1095D7011C9356945694D9
:102B600056945281052F0295007F000F052900958C
:102B7000D401A260A80FB91F0C93D401A360A80FC1
:102B8000B91F56955695569550954ECFA4960FB6AB
:102B9000F894DEBF0FBECDBFDF91CF911F910F9193
:102BA000FF90EF90DF90CF90BF90AF909F908F906D
:102BB0007F906F905F904F90089580E091E065E383
:102BC00070E00E94C32F2F923F924F925F926F92BC
:102BD0007F928F929F92AF92BF92CF92DF92EF92AD
:102BE000FF920F931F93CF93DF93CDB7DEB7CB55F3
:102BF000D1400FB6F894DEBF0FBECDBF7901D42E01
:102C0000C82E89E2689F812D112482958F70982F9C
:102C1000906399839CE989021124902D862E960F4A
:102C20008DEC989F292F812D112486958695869568
:102C3000982F90639A8396EF89021124802D820F3A
:102C4000622E782E80638B838E010C5F1F4F612D67
:102C500040E451E0C801962E5A010E947B3081E089
:102C6000962D9A3068F0982D9436292D70F4482FBF
:102C70005527823079F0CA01372D303081F010C0ED
:102C800082E0982D9436292D90F3822F482F5527D6
:102C9000823089F782E090E0372D303009F4CA01A4
:102CA000BE016F5F7F4F680F791F43E050E04827F8
:102CB00059278C2D803009F02DC03A014B0140E09E
:102CC00050E025E03FEF8FEF9FEF1C01CA01520259
:102CD000E02D1124429F612D11246E0F762F66275F
:102CE000A02DBB27A62BB72BA00FB11F2D01F201E2
:102CF0003383B101728361836C91606F6C936481E3
:102D00006F60648301964F335105AC0100F323E0FB
:102D1000B401A3018E010C5F1F4FC8010E94DC1299
:102D20008D2D853019F4C7010E94870BF701228190
:102D3000822F99272230910524F48115910529F0DD
:102D400058C08230910509F054C08FE50FB6C85FB6
:102D5000DE4F8EAFC850D1400FBE8FE090E20FB66D
:102D6000CA5FDE4F9FAF8EAFC650D1400FBECE01BF
:102D70008C5B9E4FB7010E94490CF7018181823024
:102D8000C1F085E00FB6C85FDE4F8EAFC850D140AE
:102D90000FBE80E191E00FB6CA5FDE4F9FAF8EAFEE
:102DA000C650D1400FBECE018C5B9E4FB7010E9432
:102DB000490C0FB6C75FDE4FBFAEAEAEC950D140B3
:102DC0000FBE0FB6C95FDE4F1FAF0EAFC750D14069
:102DD0000FBE0FB6CA5FDE4F1EAEC650D1400FBE4B
:102DE0004298419ABE016C5B7E4FC7010E94310937
:102DF000429A8D2D853009F061C083E1E8E6F0E16B
:102E00008E010C5B1E4FD80195919D938150E1F787
:102E100088E40FB6C55EDE4F8EAFCB51D1400FBEFA
:102E20008FE096E30FB6C75EDE4F9FAF8EAFC951FE
:102E3000D1400FBECE01895A9E4FB7010E94490C66
:102E4000F70181818230C1F086E00FB6C55EDE4FAA
:102E50008EAFCB51D1400FBE80E196E00FB6C75E7A
:102E6000DE4F9FAF8EAFC951D1400FBECE01895A00
:102E70009E4FB7010E94490C83E190E00FB6C45EFB
:102E8000DE4F9FAF8EAFCC51D1400FBE0FB6C65EA6
:102E9000DE4F1FAF0EAFCA51D1400FBE0FB6C75E97
:102EA000DE4F1EAEC951D1400FBE4298419ABE01BD
:102EB000695A7E4FC7010E943109429AC55ADE4FB6
:102EC0000FB6F894DEBF0FBECDBFDF91CF911F913B
:102ED0000F91FF90EF90DF90CF90BF90AF909F90B9
:102EE0008F907F906F905F904F903F902F900895BC
:102EF000CF92DF921F93FA01182F23300CF42EC0CB
:102F0000822F8450823008F43EC0233009F041C043
:102F1000802F8127843008F036C0A02FBB270830CF
:102F200008F048C0AA0FBB1FAA0FBB1FAE0FBF1FE0
:102F30006C91802F42E097016F010E944918A12FE8
:102F4000BB27183008F036C0AA0FBB1FAA0FBB1F43
:102F5000F601EA0FFB1F6081812F13C02A952230F2
:102F6000C0F4812F9927183008F020C0880F991FCE
:102F7000880F991FE80FF91F9081812F603069F049
:102F8000692F41E00CC0862FBF01412F97010E949D
:102F9000DF171F91DF90CF900895692F412D970182
:102FA0000E9449181F91DF90CF90089568E070E06B
:102FB0000E94C12F68E070E0CD010E94C12FAF9246
:102FC000BF92DF92EF92FF920F931F937901142F1C
:102FD0005B01012F0C7FA02FBB27083008F054C0E5
:102FE0000117D82E482F09F042E0AA0FBB1FAA0FE5
:102FF000BB1FC501A80FB91F6C91802F97010E94BC
:103000004918802F816081174D2D09F042E0A82FCB
:10301000BB27AA0FBB1FAA0FBB1F9501A20FB31F8F
:103020006C9197010E944918026001174D2D09F01B
:1030300042E0A02FBB27AA0FBB1FAA0FBB1FC501D1
:10304000A80FB91F6C91802F97010E944918812FFA
:103050008360A82FBB278830B8F481174D2D09F065
:1030600042E0AA0FBB1FAA0FBB1FF501EA0FFB1F0F
:10307000608197010E9449181F910F91FF90EF9076
:10308000DF90BF90AF90089568E070E0CD010E949E
:10309000C12F4F925F926F927F928F929F92AF92C9
:1030A000BF92CF92DF92EF92FF920F931F93CF9335
:1030B000DF93CDB7DEB7C950D1400FB6F894DEBF6D
:1030C0000FBECDBF7901D82E80E090E09C838B832A
:1030D0009A838983603C84F4C42E83E495E49C83C2
:1030E0008B838FE49EE49A838983CE0101964C0101
:1030F00084E090E03C0163C02FE2862F88230AF031
:1031000028E7603009F451C0862F880F880B362FCE
:103110003827381B912D81E0343651E008F4592FBF
:1031200050635A833436532F10F0532F54567DEC8E
:10313000579FE12D1124E695E695E6957E2F706365
:103140007B8376EFE7021124F02DF50F7F2F70635C
:103150007C835A3051E008F488C1343671E008F0BD
:1031600089C15723EFEF343608F08AC1503009F493
:103170008BC1752732E0703009F48CC1F03009F44E
:103180008DC1832F9927343008F08EC13DE266232C
:103190000AF03BE2DE011196A80FB91F3C9364E0F0
:1031A00070E0681B790B3B0107C080E38983DE0177
:1031B000119681E090E03C01C42E4D012C938E01CC
:1031C0000B5F1F4F512C40E051E0C801652D5A01A3
:1031D0000E947B30252D8C2D803009F02BC0C82E0D
:1031E00025E030E0E0E0F0E04FEF5FEFC901D9010A
:1031F000AA0FBB1FAA0FBB1FA00FB11F6C91606E5F
:103200006C93BF01660F771F660F771F600F711FEA
:103210002F01FB01568B458BFD0163816760FD012A
:103220006383F201319601962A3331059C01F8F24D
:1032300023E08C2D8E010B5F1F4FC82EC801B401F7
:10324000A3010E9476148C2D813009F082C025E004
:1032500030E0C901D901AA0FBB1FAA0FBB1FA00FE5
:10326000B11F4C9140664C9301962A3331059C0165
:1032700088F325E030E0C901F901EE0FFF1FEE0FE2
:10328000FF1FE00FF11F43814660438301962A33FD
:1032900031059C0188F38FEF9FEF9B8F8A8F9F8F63
:1032A0008E8F0FB6C455DF4F9FAF8EAFCC5AD04034
:1032B0000FBE0FB6C055DF4F9FAF8EAFC05BD04083
:1032C0000FBE898D806E898F8C8D87608C8F8D8DE0
:1032D000806E8D8F88A1876088A30FB6C555DF4F9C
:1032E0008EADCB5AD0400FBE806E0FB6C555DF4FA6
:1032F0008EAFCB5AD0400FBE0FB6C255DF4F8EAD4A
:10330000CE5AD0400FBE87600FB6C255DF4F8EAF8A
:10331000CE5AD0400FBE0FB6C155DF4F8EADCF5A3B
:10332000D0400FBE806E0FB6C155DF4F8EAFCF5A63
:10333000D0400FBE0FB6CE54DF4F8EADC25BD04033
:103340000FBE87600FB6CE54DF4F8EAFC25BD0404A
:103350000FBEF7018281A82FBB27A452BE4F9C91BC
:103360008D2D8295807F880F880F8074282F205C98
:10337000921708F462C09FE00FB6C953DF4F9EAFAB
:10338000C75CD0400FBE0FB6C853DF4F8EAFC85CCE
:10339000D0400FBE8F630FB6C753DF4F8EAFC95CEF
:1033A000D0400FBECE018B5F9E4FB7010E94490CEB
:1033B000F7018181823009F420C080E10FB6C95342
:1033C000DF4F8EAFC75CD0400FBE8D2D880F84704D
:1033D0000FB6C853DF4F8EAFC85CD0400FBE8360BE
:1033E0000FB6C753DF4F8EAFC95CD0400FBECE01C2
:1033F0008B5F9E4FB7010E94490C0FB6C653DF4F3B
:10340000BFAEAEAECA5CD0400FBE0FB6C853DF4FE2
:103410001FAF0EAFC85CD0400FBE0FB6C953DF4F11
:103420001EAEC75CD0400FBE4298419ABE016B5F92
:103430007E4FC7010E943109429AC75FDE4F0FB627
:10344000F894DEBF0FBECDBFDF91CF911F910F91DA
:10345000FF90EF90DF90CF90BF90AF909F908F90B4
:103460007F906F905F904F900895592F343671E0A0
:1034700008F477CE792F5723EFEF343608F476CE61
:10348000E92F503009F075CE8E2F752732E070305D
:1034900009F074CE382FF03009F073CE382F832F17
:1034A0009927343008F472CE64E070E00E94C12F96
:1034B0006F927F929F92AF92BF92CF92DF92EF92E4
:1034C000FF920F931F93CF93DF93CDB7DEB7CB5807
:1034D000D0400FB6F894DEBF0FBECDBF7A01062FE5
:1034E000182FCE01019640E850E06C01612D5A0181
:1034F0000E947B301030812D09F487E0982E003037
:1035000009F424C0103019F4EBE7F0E102C0E6E85A
:10351000F0E18BE08E010F571F4FD80195919D93DD
:103520008150E1F7CE0101966BE370E03C01A80108
:103530000E948F116DE170E0C301A8010E948F11FC
:1035400069E570E0C301A8010E948F11F701228193
:10355000822F99272230910524F48115910529F0B5
:103560005CC08230910509F058C08FE70FB6CB5B85
:10357000DF4F8EAFC554D0400FBE8FE090E00FB646
:10358000CD5BDF4F9FAF8EAFC354D0400FBECE0197
:103590008F579F4FB7010E94490CF70181818230FC
:1035A000E1F00FB6CB5BDF4F9EAEC554D0400FBEEF
:1035B0000FB6CC5BDF4F9EAEC454D0400FBE80E14F
:1035C0000FB6CD5BDF4F8EAFC354D0400FBECE01E0
:1035D0008F579F4FB7010E94490C0FB6CA5BDF4F50
:1035E000BFAEAEAEC654D0400FBE0FB6CC5BDF4F01
:1035F000DFAECEAEC454D0400FBE0FB6CD5BDF4FB2
:103600001EAEC354D0400FBE4298419ABE016F57C0
:103610007F4FC7010E943109429AC557DF4F0FB64D
:10362000F894DEBF0FBECDBFDF91CF911F910F91F8
:10363000FF90EF90DF90CF90BF90AF909F907F90E2
:103640006F9008952F923F924F925F926F927F9268
:103650008F929F92AF92BF92CF92DF920F931F9360
:10366000CF93DF93CDB7DEB7CF5ED0400FB6F894DF
:10367000DEBF0FBECDBF822EC42E762ED82ECE0139
:103680000296612D42EA50E05C01262F29830E94B8
:103690007B309C2C872D8C21C82E803049F0CE01A8
:1036A000029642EA50E06FEF0E947B3081E089830E
:1036B000A0E0B0E00FB6C859DF4FBFAFAEAFC856FD
:1036C000D0400FBE0FB6CA59DF4FBFAFAEAFC65620
:1036D000D0400FBEFE01EC55FF4F882D82300CF418
:1036E00063C0823009F476C0833009F0CEC02F0168
:1036F0003D01F801218189E2289F812D11248295C5
:103700008F70982F90630FB6CA59DF4F9EAFC65681
:10371000D0400FBE9CE989021124102D822E120F79
:103720008DEC189F812D1124869586958695982F6E
:1037300090630FB6C959DF4F9EAFC756D0400FBE3A
:1037400096EF89021124802D810F382E80630FB6E9
:10375000C859DF4F8EAFC856D0400FBE84E2EAECA6
:10376000F0E1BE0168557F4FDB0195919D9381503B
:10377000E1F7CE0184539F4F44E250E00E94723043
:1037800081E01A3008F482E0982D943608F0812DFB
:10379000282F33278230850109F4C8C0C901432D81
:1037A000403009F4C8C0C8C0803009F070C03F0183
:1037B000F8013081303C0CF0C7C083E495E40FB6CB
:1037C000C859DF4F9FAF8EAFC856D0400FBE8FE4B1
:1037D0009EE46AC1BF01F8012381203009F423C1AE
:1037E000822F880F880B322F3827381B912D81E0CC
:1037F000343641E0850108F4492F40630FB6C959BA
:10380000DF4F4EAFC756D0400FBE3436532FFB01AB
:1038100010F0532F54564DEC549F412D11244695D2
:1038200046954695642F60630FB6C859DF4F6EAF5B
:10383000C856D0400FBE66EF46021124402D450FFA
:10384000642F60630FB6C759DF4F6EAFC956D040C3
:103850000FBE5A3051E008F03FC0592F343661E0B6
:1038600008F03EC056237FEF343608F43FC0792F6E
:10387000503009F43EC0652732E0603009F03FC0A7
:10388000382F403009F43DC03DC01D011BC12F0140
:10389000F8012281203009F4FBC02436850109F0AB
:1038A00006C386E594E50FB6C859DF4F9FAF8EAFCC
:1038B000C856D0400FBE89E49EE40FB6CA59DF4F08
:1038C0009FAF8EAFC656D0400FBE84E090E01C0183
:1038D000FE01EC55FF4FF7C0343661E008F4C2CF6B
:1038E000692F56237FEF343608F0C1CF503009F0EE
:1038F000C2CF872F652732E0603009F4C1CF403056
:1039000009F4382F832F9927343008F056C344E048
:1039100050E03DE222230AF03BE23D01E80FF91FAF
:103920002F0130831A01281A390A8EC082E090E0F4
:10393000432D403009F4C901480E591E23E030E000
:103940002827392719018AC02FE2832F8823850170
:103950000AF028E7303009F442C3832F880F880B20
:10396000432F4827481B912D81E0443651E008F44D
:10397000592F50630FB6C959DF4F5EAFC756D040BD
:103980000FBE4436642F10F0642F64565DEC659FC3
:10399000512D1124569556955695752F70630FB677
:1039A000C859DF4F7EAFC856D0400FBE76EF5702E2
:1039B0001124502D560F752F70630FB6C759DF4F66
:1039C0007EAFC956D0400FBE6A3061E008F0D8C261
:1039D000692F443671E008F0D7C26723EFEF443611
:1039E00008F4D8C2E92F603009F4D7C2762742E044
:1039F000703009F0D8C2482F5030F30109F4D7C213
:103A0000842F9927443008F0D8C24DE233230AF0BE
:103A10004BE2E80FF91F408344E050E0481B590B8C
:103A20001A01208350C03D0180E30FB6CA59DF4F11
:103A30008EAFC656D0400FBE81E090E01C01CE0193
:103A40008C559F4F2C01850184E2EAECF0E1DE0108
:103A5000A453BF4F95919D938150E1F7CE018855B6
:103A60009F4FBE0164537F4F44E250E05C010E94CF
:103A70007230CE010296B50149810E94291188E277
:103A8000D301F20191012115310509F022C015C1C0
:103A900089E497E40FB6C859DF4F9FAF8EAFC85681
:103AA000D0400FBE84E592E50FB6CA59DF4F9FAFF5
:103AB0008EAFC656D0400FBE84E090E01C01FE01E0
:103AC000EC55FF4F850184E391012115310509F47F
:103AD000F4C09CE0A1015902202D1124499F412DE1
:103AE0001124420F542F4427202D3327242B352B0C
:103AF000482F5527CA01821B930B21E0481759070D
:103B000008F0212D203009F4DC012E0E3F1E8C2DF3
:103B100024E2803009F46AC0CE0184539F4F33E021
:103B200007C01C96F201A101E417F50709F4C5C00E
:103B30003D0141912F0140320CF461C24052429F3D
:103B4000E12D1124402D5527FE2FEE27E42BF52BD8
:103B5000E859FF4F44E2DC0155915D934150E1F794
:103B6000412DD30104C043954C3009F4DACF642FC2
:103B70007727FD01E60FF71FE633F105A0F7F30203
:103B8000502D1124E39FE12D1124E50FFE2FEE2788
:103B9000A02DBB27AE2BBF2BA00FB11FFD01639F34
:103BA000A12D1124602D7727BA2FAA27A62BB72B7A
:103BB000A80FB91F5C91652F660F609560835F0148
:103BC000FD016181762F771F7727771FA281AA0FCA
:103BD000A72BA095F501A283D301551F5527551F8B
:103BE000660F652B6095F5016183BDCFCE018453CF
:103BF0009F4F33E007C01C96F201A101E417F507BF
:103C000009F45BC03D0141912F0140320CF4F7C132
:103C10004052429FE12D1124402D5527FE2FEE27C3
:103C2000E42BF52BE859FF4F44E2DC0155915D93FD
:103C30004150E1F7412DD30104C043954C3009F4C4
:103C4000DACF642F7727FD01E60FF71FE633F10582
:103C5000A0F7F302502D1124E39FE12D1124E50F6D
:103C6000FE2FEE27A02DBB27AE2BBF2BA00FB11F21
:103C7000FD01639FA12D1124602D7727BA2FAA275C
:103C8000A62BB72BA80FB91F5C91652F660F608319
:103C90005F01FD016181762F771F7727771FA28152
:103CA000AA0FA72BF501A283D301551F5527551F36
:103CB000660F652BF5016183C0CF892D803009F037
:103CC0004FC080E090E023E0FC019202302D1124EF
:103CD000829F412D1124430F542F4427A02DBB2731
:103CE000A42BB52BA00FB11F3C9133603C933196B0
:103CF00085339105CF0148F380E090E023E0DC01BB
:103D00009202302D1124829F412D1124430F542FF4
:103D10004427602D7727642B752B600F711FFB01E3
:103D20003281306C3283119685339105CD0140F399
:103D3000C80184569F4F2FEF3FEFFC01338322834E
:103D4000358324833F832E833D832C833B832A83C7
:103D50000FB6C05ADF4F3FAF2EAFC056D0400FBE98
:103D60008D2D87708030C1F0C151DF4F0FB6F894B0
:103D7000DEBF0FBECDBFDF91CF911F910F91DF90BE
:103D8000CF90BF90AF909F908F907F906F905F90FB
:103D90004F903F902F900895F7012281822F99270D
:103DA0002230910524F48115910529F0DDCF823070
:103DB000910509F0D9CF8D2D885E813408F0D4CFDC
:103DC000C82E8FE70FB6C057DF4F8EAFC059D04017
:103DD0000FBE8FE09AE40FB6C257DF4F9FAF8EAF92
:103DE000CE58D0400FBECE0184539F4FB7010E94E2
:103DF000490CF7018181823009F436C08D2D88236A
:103E00000AF4E7C03C2D932F9A95812D21E03917B4
:103E100008F4D7C0282F203009F4D6C0982F992352
:103E20000AF4D7C090E10FB6C257DF4F9EAFCE580D
:103E3000D0400FBE8695869586950FB6C057DF4F4A
:103E40008EAFC059D0400FBED694D694D6940FB63C
:103E5000C157DF4FDEAECF58D0400FBECE018453E6
:103E60009F4FB7010E94490C82EA90E00FB6CF56EF
:103E7000DF4F9FAF8EAFC159D0400FBE0FB6C157B5
:103E8000DF4F1FAF0EAFCF58D0400FBE0FB6C25797
:103E9000DF4F1EAECE58D0400FBE4298419ABE01B1
:103EA00064537F4FC7010E943109429A5DCF3D01A3
:103EB00089E2289F812D112482958F70982F90631D
:103EC0000FB6CA59DF4F9EAFC656D0400FBE9CE911
:103ED00089021124902D822E920F8DEC989F292F0C
:103EE000812D1124869586958695982F90630FB61F
:103EF000C959DF4F9EAFC756D0400FBE96EF89021B
:103F00001124802D820FA22EB82E80630FB6C859BF
:103F1000DF4F8EAFC856D0400FBE84E2ECE1F1E037
:103F2000BE0168557F4FDB0195919D938150E1F76C
:103F3000CE0184539F4F44E250E00E94723081E0F2
:103F40009A2D9A3070F482E0982D943668F4282FD8
:103F50003327823071F0C9014B2D403009F0ECCC91
:103F6000EACC982D943698F3812D282F3327823070
:103F700091F782E090E04B2D403009F0DDCCDBCCB6
:103F8000443671E008F429CD792F6723EFEF4436EA
:103F900008F028CD603009F029CD8E2F762742E039
:103FA000703009F428CD5030F30109F029CD482FA5
:103FB000842F9927443008F428CD64E070E00E94F3
:103FC000C12F203009F02ACF892F982F99230AF08A
:103FD00029CF84E292E06DE070E00E94C32F80E37D
:103FE0000FB6CA59DF4F8EAFC656D0400FBEFE0186
:103FF000EC55FF4F81E090E01C01208364CD80E010
:1040000091E065E370E00E94C32F6F927F928F92E0
:104010009F92AF92BF92DF92EF92FF920F931F9306
:10402000CF93DF93CDB7DEB7CD51D1400FB6F89423
:10403000DEBF0FBECDBF7901042F162FD82ECE01C3
:1040400002964EED50E05C01612D4A010E947B30EA
:10405000103009F41EC0CE0102964EED50E06FEF15
:104060000E947B302BED31E002300CF417C002309F
:1040700009F423C0033009F033C085E0EEEFF0E12E
:10408000AE0140525F4FDA0195919D938150E1F767
:104090001FC029E931E002300CF0E9CF003009F00F
:1040A00043C085E0EEEEF0E1AE0140525F4FDA0131
:1040B00095919D938150E1F70BC085E0E9EFF0E128
:1040C000AE0140525F4FDA0195919D938150E1F727
:1040D000D9010C91CE01029662E070E025E036C075
:1040E00089E3E1E9F0E1BE0160527F4FDB01959188
:1040F0009D938150E1F7D9010C91CE0102963C01CC
:10410000402F0E94AA1084E0E3E0F1E1AE01475E97
:104110005E4FDA0195919D938150E1F76AE170E07D
:1041200024E030E0C30113C086E0E3EFF0E1AE012C
:1041300040525F4FDA0195919D938150E1F7D9018B
:104140000C91CE01029662E070E026E030E00E9421
:10415000BE118D2D87708030A9F0C35EDE4F0FB683
:10416000F894DEBF0FBECDBFDF91CF911F910F91AD
:10417000FF90EF90DF90BF90AF909F908F907F90D7
:104180006F900895F7012281822F9927223091059F
:1041900024F48115910529F0E0CF8230910509F0D2
:1041A000DCCF1D2D185E113408F0D7CF89E40FB68F
:1041B000CC55DF4F8EAFC45AD0400FBE8FE090E099
:1041C0000FB6CE55DF4F9FAF8EAFC25AD0400FBE55
:1041D000CE0180529F4FB7010E94490CF7018181A7
:1041E000823009F435C08D2D88230AF45AC0912FEE
:1041F0009A95812D21E0191708F44BC0282F203003
:1042000009F44AC0982F99230AF44BC090E10FB6E5
:10421000CE55DF4F9EAFC25AD0400FBE86958695D1
:1042200086950FB6CC55DF4F8EAFC45AD0400FBE27
:10423000D694D694D6940FB6CD55DF4FDEAEC35A82
:10424000D0400FBECE0180529F4FB7010E94490C53
:104250000FB6CB55DF4F9FAE8EAEC55AD0400FBEC6
:104260000FB6CD55DF4FBFAEAEAEC35AD0400FBE76
:104270000FB6CE55DF4F1EAEC25AD0400FBE429889
:10428000419ABE0160527F4FC7010E943109429A94
:1042900064CF203009F0B6CF892F982F99230AF0E8
:1042A000B5CF84E292E06DE070E00E94C32FEF9200
:1042B000FF921F938CB58F7B8CBD81E080933A0277
:1042C0002D98259A67EF7FE32BE73AE140E050E035
:1042D0008BE794E07C014FC0C7010197F1F72D985F
:1042E000CB010197F1F7CB010197F1F7CB010197D2
:1042F000F1F7CB010197F1F7CB010197F1F7CB0172
:104300000197F1F7CB010197F1F7CB010197F1F795
:10431000CB010197F1F7CB010197F1F7CB010197A1
:10432000F1F7CB010197F1F7CB010197F1F7CB0141
:104330000197F1F7CB010197F1F7CB010197F1F765
:10434000CB010197F1F7CB010197F1F7CB01019771
:10435000F1F7CB010197F1F7CB010197F1F7CB0111
:104360000197F1F7CB010197F1F7CB010197F1F735
:10437000C9010197F1F72D9AFB013197F1F7FB0184
:104380003197F1F7FB013197F1F7FB013197F1F725
:10439000FB013197F1F7FB013197F1F7FB01319701
:1043A000F1F7FB013197F1F7FB013197F1F7FB01D1
:1043B0003197F1F7FB013197F1F7FB013197F1F7F5
:1043C000FB013197F1F7FB013197F1F7FB013197D1
:1043D000F1F7FB013197F1F7FB013197F1F7FB01A1
:1043E0003197F1F7FB013197F1F7FB013197F1F7C5
:1043F000FB013197F1F7FB013197F1F7FB013197A1
:10440000F1F7FB013197F1F7F9013197F1F72D98A9
:10441000FB013197F1F7FB013197F1F7FB01319780
:10442000F1F7FB013197F1F7FB013197F1F7FB0150
:104430003197F1F7FB013197F1F7FB013197F1F774
:10444000FB013197F1F7FB013197F1F7FB01319750
:10445000F1F7FB013197F1F7FB013197F1F7FB0120
:104460003197F1F7FB013197F1F7FB013197F1F744
:10447000FB013197F1F7FB013197F1F7FB01319720
:10448000F1F7FB013197F1F7FB013197F1F7FB01F0
:104490003197F1F7FB013197F1F7FB013197F1F714
:1044A000F9013197F1F72D9AFB013197F1F7FB01F3
:1044B0003197F1F7FB013197F1F7FB013197F1F7F4
:1044C000FB013197F1F7FB013197F1F7FB013197D0
:1044D000F1F7FB013197F1F7FB013197F1F7FB01A0
:1044E0003197F1F7FB013197F1F7FB013197F1F7C4
:1044F000FB013197F1F7FB013197F1F7FB013197A0
:10450000F1F7FB013197F1F7FB013197F1F7FB016F
:104510003197F1F7FB013197F1F7FB013197F1F793
:10452000FB013197F1F7FB013197F1F7FB0131976F
:10453000F1F7FB013197F1F7F9013197F1F72D9878
:10454000FB013197F1F7FB013197F1F7FB0131974F
:10455000F1F7FB013197F1F7FB013197F1F7FB011F
:104560003197F1F7FB013197F1F7FB013197F1F743
:10457000FB013197F1F7FB013197F1F7FB0131971F
:10458000F1F7FB013197F1F7FB013197F1F7FB01EF
:104590003197F1F7FB013197F1F7FB013197F1F713
:1045A000FB013197F1F7FB013197F1F7FB013197EF
:1045B000F1F7FB013197F1F7FB013197F1F7FB01BF
:1045C0003197F1F7FB013197F1F7FB013197F1F7E3
:1045D000F9013197F1F72D9AFB013197F1F7FB01C2
:1045E0003197F1F7FB013197F1F7FB013197F1F7C3
:1045F000FB013197F1F7FB013197F1F7FB0131979F
:10460000F1F7FB013197F1F7FB013197F1F7FB016E
:104610003197F1F7FB013197F1F7FB013197F1F792
:10462000FB013197F1F7FB013197F1F7FB0131976E
:10463000F1F7FB013197F1F7FB013197F1F7FB013E
:104640003197F1F7FB013197F1F7FB013197F1F762
:10465000FB013197F1F7FB013197F1F7FB0131973E
:10466000F1F7FB013197F1F7F9013197F1F72D9847
:10467000FB013197F1F7FB013197F1F7FB0131971E
:10468000F1F7FB013197F1F7FB013197F1F7FB01EE
:104690003197F1F7FB013197F1F7FB013197F1F712
:1046A000FB013197F1F7FB013197F1F7FB013197EE
:1046B000F1F7FB013197F1F7FB013197F1F7FB01BE
:1046C0003197F1F7FB013197F1F7FB013197F1F7E2
:1046D000FB013197F1F7FB013197F1F7FB013197BE
:1046E000F1F7FB013197F1F7FB013197F1F7FB018E
:1046F0003197F1F7FB013197F1F7FB013197F1F7B2
:10470000F9013197F1F72D9AFA01DA0107C011701A
:10471000EF5FFF4FAF4FBF4F103059F0CB01019704
:10472000F1F711E0E937F105A407B50780F3112D82
:10473000EECFC7010197F1F72D98CB010197F1F763
:10474000CB010197F1F7CB010197F1F7CB0101976D
:10475000F1F7CB010197F1F7CB010197F1F7CB010D
:104760000197F1F7CB010197F1F7CB010197F1F731
:10477000CB010197F1F7CB010197F1F7CB0101973D
:10478000F1F7CB010197F1F7CB010197F1F7CB01DD
:104790000197F1F7CB010197F1F7CB010197F1F701
:1047A000CB010197F1F7CB010197F1F7CB0101970D
:1047B000F1F7CB010197F1F7CB010197F1F7CB01AD
:1047C0000197F1F7CB010197F1F7C9010197F1F7D3
:1047D0002D9AFA01DA0107C01170EF5FFF4FAF4F5A
:1047E000BF4F103059F0CB010197F1F711E0E937D5
:1047F000F105A407B50780F3112DEECFC70101978E
:10480000F1F72D98CB010197F1F7CB010197F1F763
:10481000CB010197F1F7CB010197F1F7CB0101979C
:10482000F1F7CB010197F1F7CB010197F1F7CB013C
:104830000197F1F7CB010197F1F7CB010197F1F760
:10484000CB010197F1F7CB010197F1F7CB0101976C
:10485000F1F7CB010197F1F7CB010197F1F7CB010C
:104860000197F1F7CB010197F1F7CB010197F1F730
:10487000CB010197F1F7CB010197F1F7CB0101973C
:10488000F1F7CB010197F1F7CB010197F1F7CB01DC
:104890000197F1F7C9010197F1F72D9AFA01DA01B1
:1048A00009C01170EF5FFF4FAF4FBF4F103011F4D1
:1048B0000C946C21CB010197F1F711E0E937F10578
:1048C000A407B50770F3112DECCF0E94C52F0F92EE
:1048D0000FB60F922F933F938F939F938091340243
:1048E000909135022091360230913702805F9F4FC0
:1048F0002F4F3F4F9093350280933402309337020D
:10490000209336029F918F913F912F910F900FBE70
:104910000F9018950F920FB60F921F9211242F939C
:104920003F934F935F936F937F938F939F93AF9337
:10493000BF93CF93DF93EF93FF93CDB7DEB721976C
:104940000FB6F894DEBF0FBECDBF81E080933A0270
:1049500083B1A8E3B2E00FB6F8949C910FBE9730F4
:1049600008F054C08370282F3327E92FFF27EE0F5C
:10497000FF1FEE0FFF1FE22BF32BE95FFD4E81E0DF
:10498000DE01119691E025912D939150E1F79981E7
:10499000292F2F70273008F03FC0A8E3B2E00FB6F0
:1049A000F8942C930FBE92959F70923021E009F0FD
:1049B000212D913011F0220F822FA82FBB27AF5C41
:1049C000BD4F8C91A9E3B2E00FB6F8949C910FBE55
:1049D000980F0FB6F8949C930FBE21960FB6F894DB
:1049E000DEBF0FBECDBFFF91EF91DF91CF91BF91A1
:1049F000AF919F918F917F916F915F914F913F9177
:104A00002F911F900F900FBE0F90189580EE91E0A0
:104A10006CE170E00E94C32F8CEF91E068E270E0DF
:104A20000E94C32F0E9414252F923F924F925F92B3
:104A30006F927F928F929F92AF92BF92CF92DF92AE
:104A4000EF92FF920F931F93CF93DF93CDB7DEB713
:104A5000C756D0400FB6F894DEBF0FBECDBF8FB79C
:104A6000F89490913A02903019F491E090933A02C0
:104A70008FBF92E094BD8AEF87BD85E085BD90939E
:104A80006E00F12CF6BC8FEF8AB9F4B883E085B9DB
:104A9000FBBA80936B0081E08093680091E078948A
:104AA0002D98259A2B98239A24982C9A2A98229A02
:104AB00080E58CBD9DBD4198399A42983A9AFDA2F5
:104AC00080E092E09CA38BA34098389A409A8BE9AF
:104AD0009FE00197F1F7409887EF9FE3FC01319742
:104AE000F1F70197F1F78BE39CE10197F1F7409A19
:104AF00086E090E09EAB8DABCE01C5968E010D5D3C
:104B00001F4FB8010E94490CFFAA88E198E09EABB4
:104B10008DABCE01C596B8010E94490C84E19FE39C
:104B20009EAB8DABCE01C596B8010E94490C86E1C3
:104B300090E09EAB8DABCE01C596B8010E94490CAA
:104B400082E190E09EAB8DABCE01C596B8010E948C
:104B5000490C8CE191E09EAB8DABCE01C596B801BE
:104B60000E94490C8EE091E09EAB8DABCE01C596C4
:104B7000B8010E94490CFFAA87E191E09EAB8DAB82
:104B8000CE01C596B8010E94490CFDA283E191E0D7
:104B90009EAB8DABCE01C596B8010E94490C85E154
:104BA00091E09EAB8DABCE01C596B8010E94490C39
:104BB00082E08FAB89E191E09EAB8DABCE01C596D3
:104BC000B8010E94490C83E09FE59EAB8DABCE01FE
:104BD000C596B8010E94490C8AE194E09EAB8DAB6A
:104BE000CE01C596B8010E94490C84E090E09EABCE
:104BF0008DAB6C01CE01C596B8010E94490C85E0D1
:104C000090E09EAB8DABCE01C596B8010E94490CD9
:104C100089E090E09EAB8DABCE01C596B8010E94B5
:104C2000490C86E091E09EAB8DABCE01C596B801F4
:104C30000E94490C81E08CA31E8F0D8FC8010E9439
:104C4000870B8DA18AA38BA19CA199A388A33C98D3
:104C5000449A3B98439A00E010E01BA70AA719A7C3
:104C600008A782E08BAB81E08FA3FBA282E390E0F8
:104C70000FB665969FAF8EAF65970FBE20EF30E001
:104C80000FB663963FAF2EAF63970FBE0FB6619618
:104C90009FAF8EAF61970FBE28EF30E00FB62F9613
:104CA0003FAF2EAF2F970FBE0FB62D969FAF8EAF93
:104CB0002D970FBE2CEF30E00FB62B963FAF2EAFE7
:104CC0002B970FBE0FB629969FAF8EAF29970FBEB9
:104CD0002EEF30E00FB627963FAF2EAF27970FBECF
:104CE0000FB625969FAF8EAF25970FBE28E030E018
:104CF0000FB623963FAF2EAF23970FBE0FB6219668
:104D00009FAF8EAF21970FBEDEAECDAE9CAF8BAF07
:104D100022E030E03AAF29AF98AF8FAB81E090E06E
:104D20009EAB8DAB80E80FB667968EAF67970FBED0
:104D30000FB6A2961FAF0EAFA2970FBE0FB6A096EA
:104D40001FAF0EAFA0970FBE0FB66E961FAF0EAF80
:104D50006E970FBE0FB66C961FAF0EAF6C970FBE5F
:104D60000FB66A961FAF0EAF6A970FBE0FB6689662
:104D70001FAF0EAF68970FBE9E01205E3F4F81E0D0
:104D800060E845E00E94E31581E080933A021C87C9
:104D90000B871A8709878F2D8C8F81E0888F188762
:104DA0000F831E830D838F2D898F8F8F8B8F8A8F1B
:104DB000FF8A1C8B0B8B1A8B098B188B0F871E8716
:104DC0000D870AC06FA18CA1AE014B5C5F4FFE0145
:104DD000B0967F010E94781786B5409136025091B7
:104DE0003702209134023091350296B48915892D0D
:104DF000A0F780E090E06C01B601E8EEF3E05F011F
:104E0000760186010E94392FE92DFF278D2C86948B
:104E10007C2C7794F795E795412C4794869477946A
:104E2000F795E79547946F2E5E2E912C212C312C0F
:104E3000420E531E641E751E861E971E281E391EA6
:104E40009201A301B401C1010E94063069015A0117
:104E500021E08C8D803091E0B1F4912D86B1887085
:104E60008030A9F4922791709030B1F086958695A4
:104E7000869521E091E09A8F82278C8FDC86CB8605
:104E8000BA86A98639C086B18870803059F3212D41
:104E900092279170903051F78A8D803009F42AC0A2
:104EA000C6012B853C85821B930B950149855A854C
:104EB000240B350B41E04A8F8132910580E090E070
:104EC0002807390781E008F0812D81708030A1F436
:104ED0008C8D813069F48F898170803009F01AC21D
:104EE0001BB881E08C8F812D8A8F81E08F8B04C06D
:104EF000812D8C8F812D8A8F8B899C89481A590A24
:104F000089899A89680A790A8F859889880A990A0D
:104F10008D859E85280A390ACE01C596BE016A5A3A
:104F20007F4F9E8B8D8B720183019401A1010E94A2
:104F30007B0D2F892170203009F48BB931E08B8DE6
:104F4000803021E0A9E3B2E0EF8D09F4212D4BA9D7
:104F500086B18071803009F0312D232721704230D5
:104F600081F420304D8D5E8DD9F082958F7021E0D7
:104F700091E0998F8227D886CF82BE82AD828B8FB7
:104F80007CC0203009F448C082958F7031E021E068
:104F9000298F8327D886CF82BE82AD828B8F32C184
:104FA000898D803009F467C0C6012F813885821B46
:104FB000930B95016D817E81260B370B61E0698F24
:104FC0008132910580E090E02807390781E008F4FC
:104FD000812D8170803009F450C08B8D803009F4B0
:104FE000CEC1D9A6C8A6BBA6AAA68BA1803009F4BB
:104FF0007BC199278130910509F476C18CA1853058
:1050000008F02FC7843009F06FC18EA18CA391E006
:1050100081E08F8F9BA32DC0898D803009F4F0C073
:1050200096014F815885241B350BA5016D817E812A
:10503000460B570B81E0898F2132310520E030E0AB
:105040004207530708F4812D817080304D8D5E8DAD
:1050500009F4D8C08B8D803009F497C1D9A6C8A6B1
:1050600082E08BAB91E081E08F8F9FA31BA2BBA658
:10507000AAA625E040C1812D898FE03009F457C0F0
:10508000C6012B813C81821B930BA50129813A81AA
:10509000420B530B71E0C816D906A406B50661E0B1
:1050A00070F0612D603020E030E069F0603040E069
:1050B00050E071F4AC01888D803071F03AC06030FE
:1050C00020E030E099F79A01603040E050E091F341
:1050D000888D803009F02DC081E0453F580740E0C1
:1050E00050E02407350708F0812D8170803009F0E9
:1050F00020C0D9A6C8A6BBA6AAA68BA191E0988F6E
:1051000080309F8F09F468CE99278130910509F08E
:10511000B2C091E081E0888F9FA38CA18EA31DA2D5
:1051200082E090E09CA38BA325E081E0ACC0712DD0
:1051300006C04D8D5E8DD9A6C8A6BBA6AAA60FB681
:10514000F8948C910FBE80307F8F09F430C09FB7E8
:10515000F8940FB6F8948C910FBE0FB6F8941C9289
:105160000FBE9FBF803009F422C0D9A6C8A6BBA637
:10517000AAA69BA1903009F488C0292F332721309B
:10518000310509F092C00CA19FA1903009F4E8C24A
:10519000800F982F99230AF4FEC3873008F087E028
:1051A0008CA323E01BA9123009F0E9C41BC128A578
:1051B00039A54AA55BA528573C4E4F4F5F4F81E06C
:1051C0002C153D054A055B0508F0812D8170803066
:1051D00009F402CE80E090E09AAB89AB98AB8FA740
:1051E0009EA78DA79CA78BA79AA789A798A78FA3EF
:1051F0009EA38DA39CA38BA381E08BABCCAAEBC019
:10520000812D898FE030888D29F0E1E0803021F018
:1052100081E0C1C0E12DBFC096014B815C81241BA0
:10522000350BB50149815A81640B750BC216D30643
:10523000A606B70681E0A8F0812D803040E050E05E
:10524000A1F0803060E070E009F4B901653F7E07AD
:1052500020E030E04207530781E008F4812D81709F
:105260009AC0803040E050E061F7AB01803060E0F0
:1052700070E059F3EBCF91E09FA38EA18CA381E066
:10528000888F9BA325E08F8FA7C09FA1903009F442
:105290000AC318160CF0A0CD91E09BA38A95873025
:1052A00008F480C387E08CA396C09FA1903009F4D6
:1052B00019C391E0282F222321E00AF037C2212DC3
:1052C0000CA1800F801708F036C22927203009F082
:1052D00037C291709195892F843008F034C28CA325
:1052E000081709F479CD34C221E08FA191E09F8F96
:1052F00082278FA322E0DC82CB82BA82A982812D11
:10530000888F812D898F81E08B8F1BA9123009F046
:1053100036C468C080E090E00FB6A2969FAF8EAF13
:10532000A2970FBE0FB6A0969FAF8EAFA0970FBEED
:105330000FB66E969FAF8EAF6E970FBE0FB66C9680
:105340009FAF8EAF6C970FBE0FB66A969FAF8EAFB2
:105350006A970FBE0FB668969FAF8EAF68970FBE65
:1053600081E08C8F812D8A8F812D8F8B5C8A4B8A77
:105370007A8A698A988A8F863E862D86BDCD812D50
:10538000898F712D812D8B8FD6CE812D898FE12D27
:10539000812D8B8F888D888FEF8F0FB6F8948C912D
:1053A0000FBE803009F434C08FB7F8940FB6F8946C
:1053B0002C910FBE0FB6F8941C920FBE8FBF2030F9
:1053C00009F426C0D9A6C8A682E08BAB81E08FA3E2
:1053D0001BA2BBA6AAA625E04D8D5E8D1BA912308F
:1053E00009F0CDC38BA1823009F439C099278130EF
:1053F000910509F4E7CC0FB667966EAD67970FBEBF
:105400008FA1FE01B096422F9F010E94E315E4CCCC
:105410009170903009F4E0CC8CA983958CABE82F87
:10542000FF27E95FFE4EDE01AD59BF4F81E0959148
:105430009D938150E1F70FB6A5969EADA5970FBE3F
:10544000092F0F70A02FBB274D8D5E8DFA01EA0F3B
:10545000FB1F8081873008F06DC0892F1EC13EA1DF
:10546000832F9927383008F0EEC4880F991F880FD2
:10547000991FCD88DE88C80ED91E822F8350AFA019
:105480003CA14DA1833008F031C1B32EF12CE42EA4
:10549000403061E009F46F2D8E01005E1F4F81E006
:1054A000A8010E94581A8E2D833061E008F06F2DFC
:1054B0008F2DA8010E94581A4E2D4E3F2B2D08F01B
:1054C0008BCC46304D8B10F495E09D8B942F9E5FD6
:1054D000892E88E010C0182B872D602F412F860160
:1054E0000E94221B872D492D885E4395982D4917D0
:1054F0002B2D08F071CC9D89941709F4B2C4612C4E
:1055000011E0241701E009F0062D9E01205E3F4FB7
:10551000782E602F7901942E0E940520292D8B2D45
:10552000821781E009F4862D9A2D903009F0D3CFAF
:10553000162DD1CFBF01892F8395282F2F70E22FF1
:10554000FF27E40FF51F2081273008F4A6C0892F1C
:105550008E5F282F2F70E22FFF27E40FF51F208189
:10556000273008F49AC0892F8D5F282F2F70E22FE3
:10557000FF27E40FF51F2081273008F48EC0892F04
:105580008C5F282F2F70E22FFF27E40FF51F20815B
:10559000273008F482C0892F8B5F282F2F70E22FCD
:1055A000FF27E40FF51F2081273008F476C0892FEC
:1055B0008A5F282F2F70E22FFF27E40FF51F20812D
:1055C000273008F46AC0892F895F282F2F70E22FB7
:1055D000FF27E40FF51F2081273008F45EC0892FD4
:1055E000885F282F2F70E22FFF27E40FF51F2081FF
:1055F000273008F452C0892F875F282F2F70E22FA1
:10560000FF27E40FF51F2081273008F446C0892FBB
:10561000865F282F2F70E22FFF27E40FF51F2081D0
:10562000273008F43AC0892F855F282F2F70E22F8A
:10563000FF27E40FF51F2081273008F42EC0892FA3
:10564000845F282F2F70E22FFF27E40FF51F2081A2
:10565000273008F422C0892F835F282F2F70E22F74
:10566000FF27E40FF51F20812730B8F0892F825FD4
:10567000282F2F70E22FFF27E40FF51F20812730FE
:1056800060F0915F892F8F70E82FFF27E40FF51FDF
:1056900080818730892F08F051C29CA993959CABDB
:1056A000E92FFF27E95FFE4EDE01AD59BF4F91E0C4
:1056B00025912D939150E1F70FB6A5962EADA597A4
:1056C0000FBE2F70239505C0231B8395203009F44E
:1056D0004DC2082F0F70A02FBB27FA01EA0FFB1F46
:1056E000908131E0973080F3312DEECF2A95223032
:1056F00008F072CB353008F0B4C3932F941B812D82
:10570000391721E008F0282F203009F4892F98E17B
:105710008902802D1124885FFE01B09661E04A2D38
:10572000232F86017F010E94221B56CB0CA1800FE4
:10573000801708F4CACD912D2927203009F4C9CD4E
:10574000843008F4CCCD84E08CA3081709F444CB52
:105750009DA1891708F028C18DA324E0012D3CCE1E
:10576000A02FBB27083008F077C3AA0FBB1FAA0FD2
:10577000BB1F2D893E89A20FB31F3C910BC0382F50
:10578000330F330B21E032274D8D5E8D891B803026
:1057900009F4FAC021E0982F99239FEF0AF442C040
:1057A00091E0512D303009F441C0432F44230AF4D5
:1057B0002FEF29021124632F660F660B432F462714
:1057C000461B50150CF038C03030312D09F420C084
:1057D000342F3695342B432F46954695432B342F43
:1057E00032953F70342B3095432F46954575341BC9
:1057F000432F4373369536953373340F432F4295B9
:10580000430F4F703FEF4A951AF036954A95EAF7E5
:105810003395482F44230AF433C0303408F43AC097
:1058200030E438C0512D303009F0BFCF252F432F41
:1058300044230AF4BDCFBDCF4230312D08F42AC035
:105840004A95403009F420C0342F3695342B432F2D
:1058500046954695432B342F32953F70342B309527
:10586000432F46954575341B432F43733695369524
:105870003373340F432F4295430F4F7030E808C005
:10588000313440F031E406C048E030E801C03695DC
:105890004A95EAF732021124202D2395223008F48C
:1058A0006ECF302D71CF21E0982F992391E00AF42B
:1058B000912D0FB667963EAD67970FBE830F831786
:1058C00031E008F448C0312D9327903009F447C0E7
:1058D0008A3F4D8D5E8D08F44AC08AEF8F3108F4FF
:1058E00048C048C09EA1A92FBB27983008F0B4C279
:1058F0009CA1953008F0B5C292300CF464C092308F
:1059000009F49AC0933009F067CAAA0FBB1FAA0F07
:10591000BB1F2D893E89A20FB31FFD013181932F3B
:10592000980F21E0931731E008F0312D882381E0B2
:105930004D8D5E8D0AF0A4C0812D8327803009F43F
:10594000A3C0903208F090E2FD0191831BA91230B0
:1059500009F015C147CD9327903009F0B9CF3170C8
:105960003195832F8A3F4D8D5E8D08F0B6CF8F31F4
:1059700008F48EE10FB667968EAF67970FBE1BA92E
:10598000123009F0FCC02ECD3C9321E01BA912304F
:1059900009F428CDF4C01BA225E01BA9123009F0A0
:1059A000EEC020CD8CA317CD939598174D8D5E8DAD
:1059B00008F03CC08A958DA324E001E01BA91230B9
:1059C00009F0DDC00FCDAA0FBB1FAA0FBB1F90307F
:1059D00009F061C02D893E89A20FB31F9C9106C0BA
:1059E0004D8D5E8D821B803009F472C031E02FEF47
:1059F000482F442362F021E0920F90345CF4903CF5
:105A000064F49FEB492F4395423050F70AC0920F40
:105A10009034ACF390E4903CA4F3492F439542308A
:105A2000F8F6982F990F990B9327DACF23E01BA94B
:105A3000123009F0A4C0D6CCAA0FBB1FAA0FBB1FFF
:105A40002D893E89A20FB31FFD013381932F980F3B
:105A500021E0931731E00CF442C0312D882381E01E
:105A60000AF041C08327803009F042C04D8D5E8D21
:105A700090320CF446C090E2913E0CF444C044C015
:105A80008327803009F05DCF31703195932F9032AC
:105A900008F059CF59CF2D893E89A20FB31FFD01C0
:105AA0003281932F980F21E0931731E008F433C02F
:105AB000312D882381E00AF432C08327803009F039
:105AC00033C031703195932F943608F02FC02FC01A
:105AD0009C9321E01BA9123009F484CC50C0882388
