:100000000C9400090C941D090C941D090C940C25EA
:100010000C941D090C941D090C941D090C941D09C8
:100020000C941D090C941D090C941D090C941D09B8
:100030000C941D090C941D090C94E1240C941D09C9
:100040000C941D090C941D090C941D090C941D0998
:100050000C941D090C941D090C941D090C941D0988
:100060000C941D090C941D09000000000000000004
:100070000000000000000000000000000000000080
:100080000000000000000000000000000000000070
:100090000000000000000000F03F03F03F030000FC
:1000A0000000000000000000000000000000000050
:1000B000000000000000FC0000FC00000000000048
:1000C0000000FC0000FC0000000000000000000038
:1000D00000000000C00C00C00C00F03F00F03F002A
:1000E000C00C00C00C00F03F00F03F00C00C00C08E
:1000F0000C00000000000000C0C300E0C701708ECB
:1001000003300C03FCFF0FFCFF0F300C03709C034B
:10011000E0F801C0F000000000000000C0C303E0F0
:10012000E703307C00303C00F0FF00F0FF01300FAF
:1001300003B00F03F0F901F0F00000000000000030
:10014000C0F300E0FF01709E03301E03303F03B098
:10015000F303F0E101E0E00100F0030030030000F0
:10016000000000000000000000000000000000008F
:10017000FC0000FC00000000000000000000000087
:100180000000000000000000000000000000C0FFB0
:1001900000E0FF017080033800071C000E0C000C0B
:1001A000000000000000000000000000000000004F
:1001B00000000C000C1C000E380007708003E0FFEC
:1001C00001C0FF000000000000000000000000006F
:1001D000C00C00C00C00800700800700F03F00F05A
:1001E0003F00800700800700C00C00C00C0000002A
:1001F00000000000000C00000C00000C00000C00CF
:10020000C0FF00C0FF00000C00000C00000C00004C
:100210000C000000000000000000000000000000D2
:100220001000C03800E01D00E00F00C00700000013
:1002300000000000000000000000000000000000BE
:100240000000000C00000C00000C00000C00000C72
:1002500000000C0000000000000000000000000092
:1002600000000000000000000000C00000E00100ED
:10027000E00100C0000000000000000000000000DD
:100280000000000000003000003C00000F00C00330
:1002900000F000003C00000F00C00300F000003C34
:1002A00000000C0000000000C0FF00E0FF0170F043
:1002B00003303803301C03300E03300703F0830390
:1002C000E0FF01C0FF00000000000000000003C0CC
:1002D0000003C00003C00003F0FF03F0FF030000B1
:1002E0000300000300000300000300000000000002
:1002F000C00003E0800370C00330E00330700330BF
:100300003803301C03700E03E00703C00303000032
:1003100000000000C0C000E0C00170800330000396
:10032000300C03300C03300C03709E03E0FB01C063
:10033000F100000000000000003C00003E0000371B
:1003400000803300C03103E03003F0FF03F0FF030F
:10035000003003003003000000000000F0C300F094
:10036000C30130830330030330030330030330033E
:100370000330870330FE0130FC0000000000000065
:10038000C0FF00E0FF01708303300303300303303C
:10039000030330030330870300FE0100FC0000006C
:1003A000000000003000003000003000003000008D
:1003B00030F00330F803301C00300E00F00700F07E
:1003C0000300000000000000C0F100E0FB01709E8F
:1003D00003300C03300C03300C03300C03709E030D
:1003E000E0FB01C0F100000000000000C00F00E0D1
:1003F0001F007038033030033030033030033030AA
:100400000370B003E0FF01C0FF0000000000000027
:1004100000000000000000000000C30080E7018031
:10042000E70100C300000000000000000000000021
:100430000000000000000000000000001000C338B1
:1004400080E71D80E70F00C30700000000000000E8
:100450000000000000000000000000000000000C90
:1004600000001E00003F00807300C0E100E0C001FA
:100470007080033000030000000000000033000023
:10048000330000330000330000330000330000333A
:1004900000003300003300003300000000000000C3
:1004A000000000000000300003708003E0C001C0C5
:1004B000E100807300003F00001E00000C000000FF
:1004C00000000000C00000E00000700000300000EC
:1004D000303003303803301C00700E00E00700C0DD
:1004E0000300000000000000C0FF00E0FF0170807A
:1004F00003300003301E03303F03303303703303F7
:10050000E03F03C01F0300000000000000F80300EC
:10051000FE03803700E03100703000703000E031C1
:100520000080370000FE0300F80300000000000018
:10053000F0FF03F0FF03300C03300C03300C0330EA
:100540000C03300C03709E03E0FB01C0F1000000BF
:1005500000000000C0FF00E0FF01708003300003D6
:10056000300003300003300003708003E0C001C09E
:10057000C000000000000000F0FF03F0FF033000A7
:1005800003300003300003300003300003708003A9
:10059000E0FF01C0FF00000000000000F0FF03F0DA
:1005A000FF03300C03300C03300C03300C03300C11
:1005B00003300C0330000330000300000000000093
:1005C000F0FF03F0FF03300C00300C00300C003063
:1005D0000C00300C00300C00300000300000000037
:1005E00000000000C0FF00E0FF0170800330000346
:1005F000300003300003300C03708C03E0FC01C0BA
:10060000FC00000000000000F0FF03F0FF03000CFE
:1006100000000C00000C00000C00000C00000C009E
:10062000F0FF03F0FF030000000000003000033083
:100630000003300003300003F0FF03F0FF0330003D
:10064000033000033000033000030000000000000E
:1006500000F00000F0010080030000030000030030
:100660000003000003008003F0FF01F0FF00000022
:1006700000000000F0FF03F0FF03000E00001F0069
:10068000803B00C07100E0E00070C00130800310CA
:100690000003000000000000F0FF03F0FF03000073
:1006A0000300000300000300000300000300000338
:1006B000000003000003000000000000F0FF03F052
:1006C000FF03E00000C00100800F00800F00C001A8
:1006D00000E00000F0FF03F0FF0300000000000056
:1006E000F0FF03F0FF03E00000C001008003000002
:1006F0000700000E00001C00F0FF03F0FF030000E5
:1007000000000000C0FF00E0FF0170800330000324
:10071000300003300003300003708003E0FF01C0AD
:10072000FF00000000000000F0FF03F0FF03300CAA
:1007300000300C00300C00300C00300C00700E004B
:10074000E00700C00300000000000000C0FF00E060
:10075000FF0170800330000330C00330C0033080DD
:1007600003708007E0FF0FC0FF0C000000000000D6
:10077000F0FF03F0FF03300C00300C00300C0030B1
:100780000C00300C00701E00E0FB03C0F103000001
:1007900000000000C0C300E0C701708E03300C03EE
:1007A000300C03300C03300C03709C03E0F801C0E4
:1007B000F0000000000000003000003000003000B9
:1007C00000300000F0FF03F0FF03300000300000B5
:1007D000300000300000000000000000F0FF00F0DA
:1007E000FF0100800300000300000300000300007D
:1007F00003008003F0FF01F0FF0000000000000094
:10080000F00300F00F00003C0000F00000C0030007
:10081000C00300F000003C00F00F00F003000000F7
:1008200000000000F0FF03F0FF0300C00100E00043
:10083000007C00007C0000E00000C001F0FF03F03D
:10084000FF03000000000000F0C003F0E10380732C
:1008500000003F00001E00001E00003F00807300EB
:10086000F0E103F0C003000000000000F00300F01E
:100870000700000E00001C0000F80300F803001C35
:1008800000000E00F00700F0030000000000000070
:1008900030C00330E003307003303803301C0330C5
:1008A0000E03300703B00303F00103F00003000060
:1008B0000000000000000000000000000000000038
:1008C000FCFF0FFCFF0F0C000C0C000C00000000E4
:1008D00000000000000000000000000C00003C00D0
:1008E00000F00000C00300000F00003C0000F0001A
:1008F00000C00300000F00003C00003000000000BA
:1009000000000C000C0C000CFCFF0FFCFF0F0000A3
:1009100000000000000000000000000000000000D7
:10092000000100800300C00100E0000070000070C2
:100930000000E00000C00100800300000100000092
:1009400000000000000030000030000030000030E7
:1009500000003000003000003000003000003000A7
:1009600000300000300000300000000000000C00EB
:10097000001C0000380000300000000000000000F3
:1009800000000000000000000000000000FC00006B
:10099000FE0100870300030300030300830300C379
:1009A0000100E30000FF0300FF030000000000005F
:1009B000F0FF03F0FF030003030003030003030041
:1009C000030300030300870300FE0100FC00000096
:1009D0000000000000FC0000FE010087030003038C
:1009E000000303000303000303000703000E0300DA
:1009F0000C0300000000000000FC0000FE01008766
:100A000003000303000303000303000303000303C5
:100A1000F0FF03F0FF0300000000000000FC0000F6
:100A2000FE0100B703003303003303003303003338
:100A300003003703003E03003C03000000000000F9
:100A4000000000000000000300000300C0FF03E0FE
:100A5000FF0370030030030030000030000000008E
:100A60000000000000FC0000FE010087330003339B
:100A700000033300033300033300033B00FF1F0078
:100A8000FF0F000000000000F0FF03F0FF03000371
:100A90000000030000030000030000030000070043
:100AA00000FE0300FC030000000000000000000046
:100AB000000000030300030330FF0330FF030000C6
:100AC0000300000300000000000000000000000020
:100AD00000003000003000033000033830FF1F30CA
:100AE000FF0F0000000000000000000000000000F8
:100AF00000000000F0FF03F0FF030070000038006A
:100B0000003C00007E0000E70000C30100810300FC
:100B100000030000000000000000000000003000A2
:100B200003300003F0FF03F0FF03000003000003A5
:100B300000000000000000000000000000FF0300B3
:100B4000FF0300030000030000FF0300FF03000396
:100B50000000070000FE0300FC030000000000008E
:100B600000FF0300FF03001C00000E000007000050
:100B7000030000030000070000FE0300FC03000068
:100B80000000000000FC0000FE01008703000303DA
:100B900000030300030300030300870300FE0100BA
:100BA000FC0000000000000000FF3F00FF3F0003CA
:100BB0000300030300030300030300030300870390
:100BC00000FE0100FC0000000000000000FC00002E
:100BD000FE01008703000303000303000303000377
:100BE0000300030300FF3F00FF3F00000000000080
:100BF00000FF0300FF03001C00000E0000070000C0
:100C00000300000300000700000E00000C000000BD
:100C100000000000000C03001E0300330300330338
:100C200000330300330300330300330300E3010008
:100C3000C3000000000000000000000000000003EE
:100C400000000300F0FF00F0FF0100830300030336
:100C500000000300000300000000000000FF00008F
:100C6000FF0100800300000300000300800300C0B8
:100C70000100E00000FF0300FF030000000000008F
:100C8000000700001F0000780000E0010080030062
:100C9000800300E001007800003F00000700000032
:100CA0000000000000FF0000FF010000030000033F
:100CB00000FF0100FF0100000300000300FF01002E
:100CC000FF0000000000000000030300870300CEC7
:100CD0000100FC0000780000780000FC0000CE015C
:100CE00000870300030300000000000000FF000075
:100CF000FF010080330000330000330000330000A8
:100D00003300003B00FF1F00FF0F00000000000049
:100D100000030300830300C30300E3030073030025
:100D20003B03001F03000F03000703000303000041
:100D300000000000000000000000000C00001E0089
:100D4000FCFF0FFEF31F0700380300300000000017
:100D50000000000000000000000000000000000093
:100D600000000000FCFF0FFCFF0F0000000000006F
:100D70000000000000000000000000000000000073
:100D80000000030030070038FEF31FFCFF0F001EB9
:100D900000000C0000000000000000000000000047
:100DA000000C00000E00000300000300000600001D
:100DB0000600000C00000C0000070000030000000B
:100DC0000000000000000000000000000000000023
:100DD0000000000000000000000000000000000013
:100DE000000000000000000000FE0F0080FF3F0038
:100DF000C0FF7F00C0017F00E080E700E0C0E300AB
:100E0000E0E0E100E0F0E000E078E000E03CE0005D
:100E1000C01F7000C0FF7F0080FF3F0000FE0F007A
:100E200000000000000000000000E0000007E000FB
:100E30000007E0000007E0008007E000E0FFFF009F
:100E4000E0FFFF00E0FFFF000000E0000000E00026
:100E50000000E0000000E0000000E00000000000F2
:100E600000000000000000000006C0008007E00055
:100E7000C007F000C001F800E000FC00E000FE0048
:100E8000E000EF00E080E700E0C0E300E0E0E10028
:100E9000C0F1E000C07FE000803FE000000EE00015
:100EA000000000000000000000060C0080073C006D
:100EB000C0077C00C0017000E000E000E000E0003E
:100EC000E0E0E000E0E0E000E0E0E000E0F0E10091
:100ED000C0F17100C0BF7F00801F3F00000E0E00F8
:100EE000000000000000000000E0030000F003002C
:100EF00000F8030000BC0300009E0300008FE30025
:100F00008087E300C083E300E0FFFF00E0FFFF0015
:100F1000E0FFFF000080E3000080E3000080E300CA
:100F20000000000000000000E01F0C00E01F3C007B
:100F3000E01F7C00E01C7000E01CE000E01CE00012
:100F4000E01CE000E01CE000E01CE000E01CE00031
:100F5000E0387000E0F87F00E0F03F00E0C00F00F4
:100F6000000000000000000000FE0F0080FF3F00B6
:100F7000C0FF7F00C01D7000E01CE000E01CE0002E
:100F8000E01CE000E01CE000E01CE000E01CE000F1
:100F9000E038700000F87F0000F03F0000C00F0054
:100FA0000000000000000000E0000000E000000081
:100FB000E0000000E0000000E0000000E000FF00B2
:100FC000E080FF00E0C0FF00E0E00100E0F0000092
:100FD000E0780000E03F0000E01F0000E00F0000AC
:100FE0000000000000000000000E0E00801F3F0007
:100FF000C0BF7F00C0F17100E0F0E100E0E0E00080
:10100000E0E0E000E0E0E000E0E0E000E0F0E1004F
:10101000C0F17100C0BF7F00801F3F00000E0E00B6
:101020000000000000000000007E000080FF0100C2
:10103000C0FF0300C081E300E000E700E000E7003C
:10104000E000E700E000E700E000E700E000E70084
:10105000C0017700C0FF7F0080FF3F0000FE0F004F
:101060000000000000000000FF898989760000FF71
:10107000090909060000FF020C02FF040C1C3C7C5D
:10108000FC7C3C1C0C042030383C3E3F3E3C38305D
:1010900020000300000300800700800700C00F0C41
:1010A000C00F0CE01F0CE01F0CF03F0C00030C0005
:1010B000030C00030C00030C00030C00070E0006D9
:1010C00006009E0700FC0300F00054656D706F5031
:1010D000756C73655750686173655377696E6745C2
:1010E000786974D022E7D520F8E938A14E188C47EA
:1010F000308CFEF5FFF7F728B9F8FBF51C7CCCCC5B
:101100004C24016B1CEAA3CAE0F580A7CC095CD98A
:1011100036EFAEAD66C1BDBE79646CA72C2B4DB465
:10112000CC085146DF0B2618FED2D2B12051C3F3B2
:101130007D08A970206135C30DCB092F687D7572BC
:101140007CA5CBB5EBC1CE46B4AE00A7B529A41E95
:10115000747FC6F59257E095CE3904C0D241D28152
:10116000F0B269E46CF5948C2823C3263A41CFD7BA
:10117000FD4155D04C3E03ED3759E832D940F49D3E
:10118000C779FC5A11D4CB95988CBBEAB149AEC152
:1011900064C08F6135918713670D5A8797C75BEFDE
:1011A000F721279165786303BA566329EDCB6F4F1A
:1011B000DC879E2A1E9A784357A787B0B7BFFD7376
:1011C000B815E93A81E98E2780D376898BFF7214AE
:1011D000DA719A1B7FF6FA0108C6FAD15CDEAD150A
:1011E0005866DB0001040002010000020103000256
:1011F0000003100500040005060400050600200099
:1012000011241FBECFEFD8E0DEBFCDBF15E0A0E0B8
:10121000B1E0E8E0F4E602C005900D92A23EB1070D
:10122000D9F725E0A2EEB5E001C01D92A93EB207B4
:10123000E1F70E9490250C9402320C9400006F920A
:101240007F928F929F92AF92BF92CF92DF92EF9256
:10125000FF920F931F93CF93DF93CDB7DEB7C058A4
:10126000D0400FB6F894DEBF0FBECDBFDB012C918E
:1012700023306C010CF438C025300CF06DC02330E5
:1012800009F0C5C0FD0183819481880F991F8030CA
:10129000910509F453C2FD01A181B281F6013081AB
:1012A00021E0303009F0212D8A0F9B1F3D91422F04
:1012B0004170403029F00DC0422B4170403049F45C
:1012C0005DB541E05523C2F3412D422B41704030C2
:1012D000B9F33EBD2DB52223EAF710822EB521E0E9
:1012E000A817B90719F72AC2FD01203009F4DBC09D
:1012F000213009F007C183819481880F991F8030C4
:10130000910509F41BC2FD01A181B281F601308172
:1013100021E0303009F0212D8A0F9B1F3D91422F93
:101320004170403029F00DC0422B4170403049F4EB
:101330005DB541E05523C2F3412D422B4170403051
:10134000B9F33EBD2DB52223EAF710822EB521E078
:10135000A817B90719F7F2C1FD01253009F019C125
:1013600001811281E380F480CE01019640E850E0D3
:101370005C01612D0E94FB31F701E680F780C80116
:10138000F7010995F501272F382F6170603009F4B6
:10139000D5C180E090E03C014C010AC0C801F701D2
:1013A0000995272F382F61706030F50109F43DC190
:1013B000D401CD01880F991F5F018E0F9F1FA901D6
:1013C000452F5527322F2227242B352BFC01208334
:1013D00031831196A0344D01B10501F7F60120814A
:1013E000C301D501A80FB91F3C910196203019F017
:1013F0002DB52223EAF73EBD2DB52223EAF7108250
:101400002EB580389105212D61F74301C7CFFD012D
:1014100001811281E380F480CE01019640E250E028
:101420005C01612D0E94FB31F701E680F780C80165
:10143000F7010995D50181708030F60109F47EC16C
:1014400020E030E03901490109C0C801F7010995E0
:10145000F60181708030D50109F416C19F015D014C
:10146000F401AE0FBF1F9C933196E0324F01F1059E
:1014700061F7F9012081C301D501A80FB91F3C9183
:101480000196203019F02DB52223EAF73EBD2DB587
:101490002223EAF710822EB580329105212DD50145
:1014A00061F74301D2CF838194818030910509F4A3
:1014B00045C1FD01A181B281F601308121E03030CA
:1014C00009F0212D8A0F9B1F3D91422F4170403022
:1014D00029F00DC0422B4170403049F45DB541E028
:1014E0005523C2F3412D422B41704030B9F33EBD2C
:1014F0002DB52223EAF710822EB521E0A817B907EF
:1015000019F71CC1238134812030310509F416C13B
:10151000FD01A181B281220F331FCD01820F931FE4
:101520008D01FD0140815181BA01672F7727542F2A
:101530004427462B572B4D935D93A817B90789F77E
:1015400020303105D601F80109F4F8C03C9121E0C2
:10155000303009F0212D3191422F4170403029F077
:101560000DC0422B4170403049F45DB541E0552338
:10157000C2F3412D422B41704030B9F33EBD2DB531
:101580002223EAF71C922EB521E0E817F90719F794
:10159000D5C001811281E380F480CE01019640E440
:1015A00050E05C01612D0E94FB31F701E680F7807D
:1015B000C801F7010995F5016170603009F4BEC0FA
:1015C00020E030E03901490108C0C801F701099560
:1015D00061706030F50109F483C0D4019D01220FD0
:1015E000331F5F012E0F3F1FF90170838183119616
:1015F000A0324D01B10549F7F6012081C301D501A3
:10160000A80FB91F3C910196203019F02DB5222367
:10161000EAF73EBD2DB52223EAF710822EB58034BD
:101620009105212D61F74301D0CFC4018030910590
:10163000D60109F483C09C9181E0903009F0812D9E
:10164000880C991C8E0E9F1EA4019191282F217049
:10165000203029F00DC0282B2170203049F43DB5F1
:1016600021E03323C2F3212D282B21702030B9F340
:101670009EBD8DB58823EAF71C928EB581E09A0154
:10168000E217F30711F75AC0C4018030910509F43D
:1016900055C0908181E0903009F0812D8A0E9B1E0B
:1016A000A4019D91282F2170203029F00DC0282BF6
:1016B0002170203049F43DB521E03323C2F3212DC0
:1016C000282B21702030B9F39EBD8DB58823EAF711
:1016D00010828EB581E09A01A217B30711F72EC0D0
:1016E000C40180309105D60109F428C09C9181E0A5
:1016F000903009F0812D880C991C8E0E9F1EA4013C
:101700009191282F2170203029F00DC0282B2170B5
:10171000203049F43DB521E03323C2F3212D282B9D
:1017200021702030B9F39EBD8DB58823EAF71C9255
:101730008EB581E09A01E217F30711F7C058DF4F29
:101740000FB6F894DEBF0FBECDBFDF91CF911F91D2
:101750000F91FF90EF90DF90CF90BF90AF909F9050
:101760008F907F906F900895AF92BF92CF92DF924B
:10177000EF92FF920F931F93CF93DF93CDB7DEB716
:101780002F970FB6F894DEBF0FBECDBFDC011C91C2
:101790005D018FE08D83198202E00127A02FBB2716
:1017A0007D01A353BA4F8C918A83F5013296CE0105
:1017B00001966F01BF010E94210CF50181818230E9
:1017C000A9F0003019F0103009F033C0D701A75349
:1017D000BA4F8C9190E19A871E8286958695869560
:1017E0008F83CE010696B6010E94210C80E094E022
:1017F0008E879F8789EB91E08C879D871B86429817
:10180000419ABE01655F7F4FC6010E941F09429A3F
:101810002F960FB6F894DEBF0FBECDBFDF91CF91EC
:101820001F910F91FF90EF90DF90CF90BF90AF90FE
:10183000089585ED95E06DE070E00E941C310E94F6
:10184000F6310F931F93CF93DF93CDB7DEB72C976D
:101850000FB6F894DEBF0FBECDBFDC01FD01848161
:10186000982F9350833008F495E09D3074F09431B4
:10187000DCF490310CF434C092310CF06AC0903139
:1018800009F083C08C91806AC6C09630ECF0993024
:101890000CF42FC09B300CF065C0993009F07AC071
:1018A0008C918F708061B7C097310CF42FC0993143
:1018B0000CF060C0973109F076C09C919295907FB2
:1018C00022E030E08BEDAAC093300CF030C09030B5
:1018D00009F46DC0913009F06FC08C91846A9BC08F
:1018E0009D3009F46CC09E3009F070C08C91806B03
:1018F00092C0963009F46EC0973009F06EC0FD01B9
:1019000041819C9123E030E083EA89C0943109F45D
:1019100067C0953109F072C0FD0181818F709C9183
:101920009295907F982B22E030E085ED77C0933040
:1019300009F46FC0943009F099C0FD015281018112
:101940004C918381866227E030E0AFEF912D112D1D
:101950006AC0923109F094C08C91880F880F880F6B
:10196000806C59C09B3009F090C09C9122E030E01F
:1019700080E254C0993109F08FC09C91990F990F62
:10198000906122E030E08DE849C09C9122E030E097
:1019900088EA44C09C91892F8F7092959F709061C6
:1019A00022E030E03BC021E030E083EE36C09C9185
:1019B00022E030E081E832C08C91866A2CC0FD01C3
:1019C00041819C9123E030E082E229C08C918F73A9
:1019D000806421C08C918E621EC08C918F701BC060
:1019E0008C918295807FFD0191819295907F990FD6
:1019F000982B926022E030E08AED10C08C918F70BD
:101A0000FD0191819295907F982B22E030E089ED45
:101A100005C08C918E6A21E030E0912D412D512D31
:101A2000012D112DA12DAF831E830D835C834B836C
:101A30009A8389832B873C87CE01019689879A8771
:101A40001886429841989E01285F3F4FCB01B9010B
:101A50000E941F09429A2C960FB6F894DEBF0FBE63
:101A6000CDBFDF91CF911F910F91089588621C9196
:101A7000FD0153810281418126E030E0912DD2CFDA
:101A80009C9122E030E083EDC9CFFD0141819C9122
:101A900023E030E081E2C3CF8C918295807FFD010D
:101AA00091819295907F990F982B22E030E08DEAFA
:101AB000B5CF2F923F924F925F926F927F928F920B
:101AC0009F92AF92BF92CF92DF92EF92FF920F93CD
:101AD0001F93CF93DF93CDB7DEB7A7970FB6F894D8
:101AE000DEBF0FBECDBF4B013C0188EE93E000E0AE
:101AF00010E05C01680178010E9424312901F401A1
:101B000000811181E280F380401A510A4E095F0979
:101B1000F30180A1803009F412C3F401A680B780DC
:101B2000C480D5804B835C838D8F282F332760E062
:101B300077E883E993E040E050E00E94BA31D901B0
:101B40002B813C8181E0A415B5054F87588B420756
:101B5000530708F0812D8170803049825A82F40148
:101B600009F42AC040855185828593854F5F5F4F78
:101B70008F4F9F4F4E8F5F8F408751878B8B9C8BF2
:101B80008287938780E090E00A0F1B1F4F8558895A
:101B9000E41EF51EC81ED91EA81EB91EA682B78255
:101BA000C482D582E282F382008311837A014A1AC9
:101BB0005B0A2E093F090AC0828593858B8B9C8B1B
:101BC000808591858E8F9F8FEF84F8886D014AE024
:101BD00050E04B865C86B20129873A87C9019A0199
:101BE0005A0100E010E0A8010E94BA312B8F3C8F0F
:101BF000498F5A8FCD86DE86B601C7019501A801AF
:101C00000E94BA312F8B388F4D8B5E8B512C412C1B
:101C1000698A7A8A8D8D823391E008F0912DA42D06
:101C2000BB27AA0FBB1FAA0FBB1FA60DB71D8C9108
:101C3000803E21E00CF0212D922390302D883E88AB
:101C400009F42CC090306F89788D09F42EC0903043
:101C5000C98CDA8C09F430C09030EB8CFC8C09F420
:101C600032C08F3BA8A3B9A309F034C081E02E8D08
:101C70003F8D203031052B893C892007310709F041
:101C800084C08170803009F485C0803009F47B0104
:101C90006EA37FA3812D8AA39BA3C3C02F84388802
:101CA00090306F89788D09F0D2CF6D857E85903028
:101CB000C98CDA8C09F0D0CFC984DA849030EB8CEF
:101CC000FC8C09F0CECFEB84FC848F3BA8A3B9A396
:101CD00009F4CCCF82300CF062C0803009F427C206
:101CE0005B012CA23DA2982F990F990B8927891B84
:101CF000682E782E770C77084301990C9908892C67
:101D00006E8D7F8D8B899C899301A4010E94BA31CD
:101D10004D835E831901C9018170907021E080308C
:101D200091050007110709F0212D2AA33BA3B50156
:101D30000CA11DA1C8019301A4010E94AA316EA3A8
:101D40007FA38F839887B1018D819E819301A40128
:101D50000E94AA312E8D3F8D261B370B4B895C8943
:101D6000480B590BB901CA019501A8010E94AA317B
:101D7000E60EF71EC81ED91E2F80388469887A881F
:101D800000E010E0A8A1B9A14CC0812D8170803085
:101D900009F07BCF6101803009F479CF79CF882EAB
:101DA0009924C1019401A8010E94BA314030510523
:101DB000C90109F484C12230310508F486C14030DC
:101DC0001A01510509F09C01B701C6015101A50195
:101DD00039010E94BA318901B801CA016EA27FA2FD
:101DE0009301A5010E94AA31E61AF70AC80AD90A86
:101DF0000170107081E00030110500E010E0000774
:101E0000110709F0812D6E8D7F8D9401A801B82EE8
:101E10000E94AA316B256AA37BA3A8A1B9A16988F6
:101E20007A88FD019381892F8195282F22232CA266
:101E30003DA20AF432C090306EA17FA109F468C0BF
:101E4000282F33278CA19DA1A8010E94AA3124E646
:101E500030E0A8010E94BA312CA03DA06EA17FA164
:101E60002E0D3F1D4C1D5D1D81E06217730724067A
:101E7000350608F4812D8170803051F4261B370B14
:101E80004209530981E0EAA1FBA1E827EAA3FBA3E9
:101E900079016A01A8A1B9A13BC0292F392F330FBD
:101EA000330BA901550F550B452F6EA17FA1C10121
:101EB0000E94AA3124E630E0A8010E94BA3181E0F4
:101EC000E216F306C406D50608F4812D8170803031
:101ED000A9F46EA17FA1E60EF71E2CA03DA0C21CA6
:101EE000D31CE21AF30AC40AD50A81E02AA13BA155
:101EF00028272AA33BA3A8A1B9A10AC0E21AF30A82
:101F0000C40AD50AA8A1B9A12CA03DA06EA17FA1A9
:101F10009B012A503040A1014040504081E06217AF
:101F200073072406350691E008F022C0903058016E
:101F300009F423C09030A80109F4A9014B305105E0
:101F4000A006B10608F0812D81708030E1F0CB0150
:101F5000969587958101102F1295107F0027110FFC
:101F6000110F110F082B192B41019694879459C01A
:101F7000912D9030580109F0DDCF5A019030A80121
:101F800009F4DBCFDBCFFD018281803009F444C04E
:101F900084368A0145016EA17FA109F442C03A014D
:101FA000282F3327C10100E010E0A8010E94AA31C8
:101FB0004C011B0124E630E0A8010E94BA314A1509
:101FC0005B05C90108F0C301B3012617370708F004
:101FD00093014A155B05A8A1B9A109F09C0181E014
:101FE000B101683E93E079078006910608F0812DE3
:101FF000817080300AE010E009F489014A155B0520
:1020000008F0A501803080E090E04C0109F44A011D
:10201000A30169887A8805C00AE010E080E090E0BA
:102020004C01242D23958AA19BA18170803059F009
:1020300081E0E016F106C804D90408F0812D817012
:1020400000E010E035C0322EE416F506CA04DB04C9
:1020500081E008F0812D282EFD018181282F332772
:102060006EA17FA18CA19DA140E050E05A010E9489
:10207000AA3124E630E0A5010E94BA312E153F05B1
:102080004C055D0581E008F0812D200F311F481DB2
:10209000591DE216F306C406D50691E008F0912D0D
:1020A00089238221817000E010E0232D01C0880F78
:1020B0004A94EAF7582A2830422E79F0ABCD81E0D5
:1020C00090E02230310508F07ACE21E030E0403057
:1020D0001A01510509F077CE77CE91E029813A8136
:1020E0004D855E85421753072B813C814F8558896A
:1020F0004207530708F0912D9170852DA7960FB6D2
:10210000F894DEBF0FBECDBFDF91CF911F910F912D
:10211000FF90EF90DF90CF90BF90AF909F908F9007
:102120007F906F905F904F903F902F90089580E840
:1021300091E069E370E00E941C310E94F63180E674
:1021400091E069E170E00E941C310E94F631AF928B
:10215000BF92CF92DF92EF92FF920F931F935C0199
:1021600023E04770312D20C0EC9150955E235C93A5
:10217000C801FC01EA0DFB1D57816F01F701A18128
:10218000A095A523F601A7830896D501A80FB91F2E
:10219000AC91F701528150955A23DC01AA0DBB1D69
:1021A0005C93333109F469C0329F012D1124A02DB5
:1021B000BB27102F00270A2B1B2BC80106966C018A
:1021C000DB01A00FB11F7D015C913395D601AA0DF3
:1021D000BB1D4230E4F0423009F429C0433009F419
:1021E000C3CFEC91E527EC93F7015181C801FC01C5
:1021F000EA0DFB1DDF01D780D526D7820896D501D1
:10220000A80FB91FAC91F70152815A27C6CF4030B1
:1022100009F023C05C93D801AA0DBB1DF7015181C1
:10222000FD015783D801F70152811896B7CFC80135
:10223000EC91E52BEC93F7015181FC01EA0DFB1DBC
:10224000DF01D780D52AD7820896D501A80FB91FFC
:10225000AC91F70152815A2BA0CF50955C93D801D5
:10226000AA0DBB1DF70151815095FD015783D8017F
:10227000F70152815095189691CF1F910F91FF90C1
:10228000EF90DF90CF90BF90AF9008959C01CB016D
:102290008038910538F4F901E80FF91FDA018C91C3
:1022A0008083CB01DC011196A038B10538F4C90157
:1022B000A80FB91FFA0181818C93CB01DC01129622
:1022C000A038B10538F4C901A80FB91FFA018281FD
:1022D0008C93CB01DC011396A038B10538F4C90109
:1022E000A80FB91FFA0183818C93CB01DC011496EE
:1022F000A038B10538F4C901A80FB91FFA018481CB
:102300008C93CB01DC011596A038B10538F4C901D6
:10231000A80FB91FFA0185818C93CB01DC011696B9
:10232000A038B10538F4C901A80FB91FFA01868198
:102330008C93CB01DC011796A038B10538F4C901A4
:10234000A80FB91FFA0187818C93CB01DC01189685
:10235000A038B10538F4C901A80FB91FFA0180856A
:102360008C93CB01DC011996A038B10528F00A96B0
:102370008038910560F00895C901A80FB91FFA01CE
:1023800081858C93CB010A9680389105A0F7D901FD
:10239000A80FB91FFA0182858C9308952F923F925E
:1023A0004F925F926F927F928F929F92AF92BF9265
:1023B000CF92DF92EF92FF920F931F93CF93DF9311
:1023C000CDB7DEB7A6970FB6F894DEBF0FBECDBF70
:1023D000DA013B014C012A0F3B1F29833A8374E247
:1023E000CE0103962C0163E007700AC0C3010C966E
:1023F0003C01D50189819A81A817B90709F4F8C071
:102400008D915D018052879FE12D1124802D9927A8
:10241000FE2FEE27E82BF92B9F012D553D402F373E
:1024200082EF380708F4FDC0E859FF4F84E2D2017B
:1024300095919D938150E1F7812D902F1FC0F094CD
:10244000F0821F017D01F7013181432F440F111FDD
:102450001127111F142B1095D601F1011183331F81
:102460003327331FF7011281110F132B109512968A
:10247000A80DB91D1C938C3009F4B8CF869FF02DA0
:10248000A12D1124482F55279301420F531F5602A7
:10249000F02C1124469F212D112483954A34510597
:1024A00050F74F2F5527BA2FAA27A42BB52B2F0D46
:1024B000322F2227C02CDD24C22AD32A9201A20F58
:1024C000B31F1C91F12EFF0C92300CF42DC09230F2
:1024D00009F446C0933009F067C014012C0C3D1C70
:1024E000F1013081F094F322F0823181FD014181CC
:1024F000542F550F111F1127111F152B1095132342
:10250000F1011183441F4427441FFD013281330F21
:10251000342B3095F6013296D401AE0FBF1FAF01B8
:102520001C91DA011323A4CFF401EC0DFD1D9030B2
:1025300009F085CFF0827F019D01F9014181542F7F
:10254000550F111F1127111F152BD601F7011183EC
:10255000441F4427441FF9011281110F142B87CF08
:10256000F401EC0DFD1D30813F2930837F01FD0119
:102570003181432F440F111F1127111F142BF70115
:102580004181412B4183331F3327331FFD0142819A
:10259000440F432BF6013296D401AE0FBF1F9F01AB
:1025A0001C91D901142B64CFF401EC0DFD1D308179
:1025B0003F2530837F01FD013181432F440F111FDF
:1025C0001127111F142BF701418141274183331F2C
:1025D0003327331FFD014281440F432BF60132960E
:1025E000D401AE0FBF1F9F011C91D901142740CF0A
:1025F000A6960FB6F894DEBF0FBECDBFDF91CF9188
:102600001F910F91FF90EF90DF90CF90BF90AF9010
:102610009F908F907F906F905F904F903F902F9002
:1026200008958BE291E065E370E00E941C310E9406
:10263000F6312F923F924F925F926F927F928F92DC
:102640009F92AF92BF92CF92DF92FF920F931F9310
:10265000CF93DF93CDB7DEB7C054D0400FB6F89418
:10266000DEBF0FBECDBFDB014030FA01510509F4DA
:1026700072C1BF01660F771F660F771F660F771F46
:10268000687F7F7740E250E0461B570B31E04132D4
:102690004A01510508F4312D303019F040E050E086
:1026A0004A01EA0FFB1F6F01BE016F5F7F4F45E0DC
:1026B000277009C0F40170964F01F601D501AE17DD
:1026C000BF0709F448C13D915D013053E32FFF2757
:1026D000F295E295F07FFE27E07FFE27EE0FFF1FC9
:1026E000EE0FFF1FDF01A154B240AF373DEFB3073C
:1026F00008F44AC1E851F24F30E4DB0105910D9333
:102700003150E1F7012D45C05C91532B5C93F201F0
:10271000E160E60FF71F3081532F5295507F550F20
:10272000550FF694F694F52AFD0151815F295183E6
:1027300036953695F201E260E60FF71F1081512FB2
:102740005295507F550F550F532BFD013281352B7C
:10275000328316951695F201E360E60FF71F50815C
:10276000352F3295307F330F330F312BFD0113811D
:10277000132B1383F3013496DC01AE0FBF1F3C9182
:1027800056955695532BE80FF91F5083003109F4E5
:1027900091CF402E5524F401E40DF51DF402302DA7
:1027A0001124E49FA12D11240395E034F10570F765
:1027B000A30FBA2FAA27602C77246A2A7B2A440CFD
:1027C000551C440C551CDB01A40DB51DFC903F2D80
:1027D0003295307F330F330FDC01A60DB71D223049
:1027E0000CF037C0203009F07DC03C931D01D201B0
:1027F000FD01E160E60FF71F3081E32FE295E07FF6
:10280000EE0FEE0FF694F694FE2AF101F182369562
:102810003695FD01E260E60FF71FF0801F2D12953F
:10282000107F110F110F132BF1011283F694F69400
:10283000A360A60FB71F5C91352F3295307F330F01
:10284000330F3F29F1013383F301569556953496A2
:102850009ACF223009F458CF5C91309535233C93C0
:10286000FD013181F201E160E60FF71F5081E52F94
:10287000E295E07FEE0FEE0FF694F694FE2AF094C8
:10288000F322FD01F18256955695F201E260E60FC2
:10289000F71F3081132F1295107F110F110F152B79
:1028A0001095FD0152815123528336953695F201E0
:1028B000E360E60FF71F5081152F1295107F110F5F
:1028C000110F132B1095FD01338131233383F30155
:1028D0003496DC01AE0FBF1F3C915695569550952E
:1028E000532351CF30953C931D01D201FD01E1608E
:1028F000E60FF71F3081532F5295507F550F550F1C
:10290000F694F694F52AF094F101F1823695369515
:10291000FD01E260E60FF71F1081512F5295507FA5
:10292000550F550F532B5095F1015283169516955F
:10293000A360A60FB71F5C91352F3295307F330F00
:10294000330F312B3095F1013383F30156955695B2
:102950005095349618CFC05CDF4F0FB6F894DEBFA9
:102960000FBECDBFDF91CF911F910F91FF90DF90F0
:10297000CF90BF90AF909F908F907F906F905F901F
:102980004F903F902F9008958BE291E065E370E0C7
:102990000E941C310E94F6312F923F924F925F921B
:1029A0006F927F928F929F92AF92BF92CF92DF925F
:1029B000EF92FF920F931F93CF93DF93CDB7DEB7C4
:1029C000A4970FB6F894DEBF0FBECDBFDB01403039
:1029D0008A01510509F443C13CE0A8015302602D6E
:1029E0001124439FE12D1124E60FFE2FEE27602DC9
:1029F00077276E2B7F2B76956795E0E2F0E0E61B5C
:102A0000F70B31E0E132F10508F4312D303011F0EF
:102A1000E0E0F0E00A0F1B1F480152EFBE016F5FBC
:102A20007F4F43E0277007C03C968401D701A01771
:102A3000B10709F414C15F013D916D013052E4E228
:102A40003E9FE12D1124A02DBB27FE2FEE27EA2B60
:102A5000FB2BDF01AD55BD40AF37B50708F418C1FA
:102A6000E859FF4F34E2DB01F590FD923150E1F778
:102A7000312D7601F50138C0EC91EF2BEC9331014B
:102A8000F301E180FE2DF295F07FFF0FF694F694AE
:102A9000F694FF2AD801A160A80FB91FFC91FF2965
:102AA000FC93E694E694E694F301F280FF2DF29510
:102AB000F07FFF0FFE29D801A260A80FB91FEC918B
:102AC000EF2BEC93F694F694F6940360DC01A00FE0
:102AD000B11FEC90D801EF28A80FB91FEC92760136
:102AE000F5013C3009F4A0CF349FA12D1124032F10
:102AF00011270E0F1F1F33950034110590F7E02D9D
:102B0000FF27BA2FAA27AE2BBF2B000F111F000FD4
:102B1000111F0C7F1F71A60FB71FFC90FF2DF295A0
:102B2000F07FFF0F22301D010CF02EC0203009F085
:102B300067C03101DC01A00FB11FFC93F801E16017
:102B4000E80FF91F2F01F301A181BA2FB295B07FD1
:102B5000BB0FF694F694F694FB2AF201F082A69548
:102B6000A695A695F301E280EE2DE295E07FEE0FAB
:102B7000EA2BD801A260A80FB91FEC93D801E69404
:102B8000E694E694A360A8CFDC01A00FB11F223029
:102B900009F472CFEC91F095FE23FC93F801E1600B
:102BA000E80FF91F3101A0812F01F301E180BE2D53
:102BB000B295B07FBB0FF694F694F694FB2AF0948E
:102BC000FA22D201FC92E694E694E6947280F72D04
:102BD000F295F07FFF0FFE29F095D801A260A80FB3
:102BE000B91FFC90FF22FC927694769476947094B0
:102BF0000360DC01A00FB11FEC90D801E7206CCF7F
:102C0000DC01A00FB11FF095FC93F801E160E80F23
:102C1000F91F2F013101F301A181BA2FB295B07FC5
:102C2000BB0FF694F694F694FB2AF094F201F0822E
:102C3000A695A695A695F301E280EE2DE295E07F9C
:102C4000EE0FEA2BE095D801A260A80FB91FEC9314
:102C5000D801E694E694E694E094A3603DCFA49670
:102C60000FB6F894DEBF0FBECDBFDF91CF911F919D
:102C70000F91FF90EF90DF90CF90BF90AF909F901B
:102C80008F907F906F905F904F903F902F9008951E
:102C90008BE291E065E370E00E941C310E94F63106
:102CA0000F931F93DB0120E430E0A034B10508F05E
:102CB000D9014A0F5B1F4034510508F0A901A41740
:102CC000B50708F033C021E03FEFFD01EE0FFF1F15
:102CD000EE0FFF1FEC7FFF71E030F20708F030C00D
:102CE0008D01DC01AE0FBF1F6C91606E6C93DF0134
:102CF000A160A030B207E8F4A80FB91F3C93DF0130
:102D0000A260A030B207A8F4A80FB91F3C93E360FB
:102D1000E030F207A8F4D8011196E80FF91F60819E
:102D200067606083A417B50708F4CFCF1F910F9198
:102D3000089560E071E0CD010E9418310E94F631E3
:102D400060E071E0CF010E9418310E94F6312F92AD
:102D50003F924F925F926F927F928F929F92AF922B
:102D6000BF92CF92DF92EF92FF920F931F93CF9378
:102D7000DF93CDB7DEB7CB55D1400FB6F894DEBFA9
:102D80000FBECDBF7901B42EA62ED82E89E2A89E03
:102D9000812D112482958F70982F906399839CE9DF
:102DA00089021124202D2A0D8DEC289F812D1124BC
:102DB000869586958695982F90639A8396EF8902DB
:102DC0001124802D622E820F782E80638B838E01DA
:102DD0000C5F1F4FC12C40E451E0C8016C2D4A012B
:102DE0000E94FB313A2D2C2D343681E008F0822FE1
:102DF000880F962D9A30982F58F4343660F0482F6B
:102E00005527823069F0CA01372D303071F00EC07D
:102E100091E03436A0F7892F482F5527823099F753
:102E200082E090E0372D303009F4CA01BE016F5FB7
:102E30007F4F680F791F43E050E0482759278D2DB9
:102E4000803009F02DC03A016B0140E050E025E0F0
:102E50008FEF9FEF1C013FEFCA015202E02D1124BA
:102E6000429F612D11246E0F762F6627A02DBB2760
:102E7000A62BB72BA00FB11F2D01F201B101618369
:102E8000728333836C91606F6C9364816F60648331
:102E900001964F335105AC0100F323E0B601A301C5
:102EA0008E010C5F1F4FC8010E9419138B2D8530B6
:102EB00019F4C7010E94B40BD7018C9182304CF4F5
:102EC000803049F0CE018C5B9E4F0E9420310E94E1
:102ED000F6318230B9F78FE00FB6C65FDE4F8EAFA6
:102EE000CA50D1400FBE80E29FE50FB6CA5FDE4FE9
:102EF0008EAF9FAFC650D1400FBE6701F60132962C
:102F0000CE018C5B9E4F3F01BF010E94210CF60158
:102F100081818230C1F080E10FB6C65FDE4F8EAF97
:102F2000CA50D1400FBE81E095E00FB6CA5FDE4FB8
:102F30008EAF9FAFC650D1400FBECE018C5B9E4F6F
:102F4000B3010E94210C0FB6C75FDE4F8EAE9FAE5D
:102F5000C950D1400FBE0FB6C95FDE4F0EAF1FAFD5
:102F6000C750D1400FBE0FB6CA5FDE4F1EAEC6506F
:102F7000D1400FBE4298419ABE016C5B7E4FC301A7
:102F80000E941F09429A8B2D853009F064C0C70149
:102F900001967C0183E1E8E6F0E18E010C5B1E4FB7
:102FA000D80195919D938150E1F78FE00FB6C35EF4
:102FB000DE4F8EAFCD51D1400FBE86E398E40FB601
:102FC000C75EDE4F8EAF9FAFC951D1400FBECE015D
:102FD000895A9E4FB3010E94210CD7018C918230F7
:102FE000C1F080E10FB6C35EDE4F8EAFCD51D14050
:102FF0000FBE86E096E00FB6C75EDE4F8EAF9FAF86
:10300000C951D1400FBECE01895A9E4FB3010E94D3
:10301000210C83E190E00FB6C45EDE4F8EAF9FAF10
:10302000CC51D1400FBE0FB6C65EDE4F0EAF1FAF04
:10303000CA51D1400FBE0FB6C75EDE4F1EAEC9519A
:10304000D1400FBE4298419ABE01695A7E4FC301DA
:103050000E941F09429AC55ADE4F0FB6F894DEBF90
:103060000FBECDBFDF91CF911F910F91FF90EF90D9
:10307000DF90CF90BF90AF909F908F907F906F9098
:103080005F904F903F902F900895CF92DF921F93C3
:10309000FA01182F277023300CF42EC0822F845091
:1030A000823008F43EC0233009F041C0802F8127D0
:1030B000843008F036C0A02FBB27083008F04AC083
:1030C000AA0FBB1FAA0FBB1FAE0FBF1F6C91802F93
:1030D00042E097016F010E941D19A12FBB271830F4
:1030E00008F038C0AA0FBB1FAA0FBB1FF601EA0FDA
:1030F000FB1F6081812F13C02A952230C0F4812FDD
:103100009927183008F020C0880F991F880F991F41
:10311000E80FF91F9081812F603069F0692F41E03D
:103120000CC0862FBF01412F97010E94B1181F913B
:10313000DF90CF900895692F412D97010E941D19AE
:103140001F91DF90CF90089568E070E00E941831E1
:103150000E94F63168E070E0CD010E9418310E94B3
:10316000F631AF92BF92DF92EF92FF920F931F93CF
:103170007901142F5B01012F0C7FA02FBB27083092
:1031800008F054C00117D82E482F09F042E0AA0FCA
:10319000BB1FAA0FBB1FC501A80FB91F6C91802FC1
:1031A00097010E941D19802F816081174D2D09F014
:1031B00042E0A82FBB27AA0FBB1FAA0FBB1F950178
:1031C000A20FB31F6C9197010E941D190260011795
:1031D0004D2D09F042E0A02FBB27AA0FBB1FAA0F5D
:1031E000BB1FC501A80FB91F6C91802F97010E94CA
:1031F0001D19812F8360A82FBB278830B8F4811751
:103200004D2D09F042E0AA0FBB1FAA0FBB1FF5010D
:10321000EA0FFB1F608197010E941D191F910F91FA
:10322000FF90EF90DF90BF90AF90089568E070E05E
:10323000CD010E9418310E94F6313F924F925F9269
:103240006F927F928F929F92AF92BF92CF92DF92B6
:10325000EF92FF920F931F93CF93DF93CDB7DEB71B
:10326000C950D1400FB6F894DEBF0FBECDBF690183
:10327000142FE82F80E090E08B839C8389839A83CE
:10328000603C7CF483E495E48B839C838FE49EE430
:1032900089839A83CE0101963C0184E090E02C0161
:1032A00064C02FE2862F88230AF028E7603009F4F3
:1032B00053C0962F990F990B862F8927891B99E266
:1032C000899F912D112492959F70392F30633A83F5
:1032D0003CE993021124402D480F9DEC499F912D0C
:1032E0001124969596959695392F30633B8336EF4A
:1032F00093021124902D940F392F30633C8331E0D9
:103300004A3041E008F426C1843651E008F027C174
:1033100045237FEF843608F028C1403009F429C1E5
:10332000542742E0503009F42AC1903009F42BC1EF
:10333000842F9927443008F02CC13DE266230AF01F
:103340003BE2DE011196A80FB91F3C9344E050E028
:10335000481B590B2A0107C080E38983DE011196BF
:1033600081E090E02C013D012C93FE2EE295E07F60
:10337000EE0FEE0FE074EE2ECE01059640E051E028
:103380005C01612D4A010E94FB31103009F444C0F8
:10339000312E8E010B5F1F4FC801B301A201212DF9
:1033A0000E94CC14832D813009F046C025E030E026
:1033B000C901D901AA0FBB1FAA0FBB1FA00FB11FC4
:1033C0004C9140664C9301962A3331059C0188F359
:1033D00025E030E0C901F901EE0FFF1FEE0FFF1FDE
:1033E000E00FF11F43814660438301962A33310584
:1033F0009C0188F38E010B5F1F4F65E070E042E097
:1034000050E0C8013A010E94501669E370E0C8011B
:10341000A3010E94501610C08E010B5F1F4F65E084
:1034200070E046E350E0C8010E945016C801B301A5
:10343000A20123E00E94CC14F601808192E098273B
:10344000A92FBB27AF52BA4F8C912E2D922F905C93
:10345000891708F4A4C08FE00FB6C553DF4F8EAFB5
:10346000CB5CD0400FBE0FB6C953DF4F2EAFC75C49
:10347000D0400FBE2F630FB6C853DF4F2EAFC85CCE
:10348000D0400FBEDF011296CE018B5F9E4F6D01C3
:10349000BD018F010E94210CF8018181823009F465
:1034A00020C080E10FB6C553DF4F8EAFCB5CD0405C
:1034B0000FBE8F2D880F84700FB6C953DF4F8EAFAC
:1034C000C75CD0400FBE83600FB6C853DF4F8EAFCE
:1034D000C85CD0400FBECE018B5F9E4FB6010E94EC
:1034E000210C0FB6C653DF4F8EAE9FAECA5CD040E4
:1034F0000FBE0FB6C853DF4FAEAEBFAEC85CD040F4
:103500000FBE0FB6C953DF4F1EAEC75CD0400FBE13
:103510004298419ABE016B5F7E4FC6010E941F090F
:10352000429AC75FDE4F0FB6F894DEBF0FBECDBF25
:10353000DF91CF911F910F91FF90EF90DF90CF908F
:10354000BF90AF909F908F907F906F905F904F90C3
:103550003F900895412D843651E008F4D9CE512D85
:1035600045237FEF843608F4D8CE712D403009F022
:10357000D7CE372F542742E0503009F0D6CE432F14
:10358000903009F0D5CE432F842F9927443008F48A
:10359000D4CE64E070E00E9418310E94F631CE0172
:1035A0008B5F9E4F0E9420310E94F6316F927F9276
:1035B0009F92AF92BF92CF92DF92EF92FF920F93C2
:1035C0001F93CF93DF93CDB7DEB7CB58D0400FB664
:1035D000F894DEBF0FBECDBF5A01062F182FCE01C3
:1035E000019640E850E07C01612D6A010E94FB31A8
:1035F0001030812D91F0982E003099F4D5018C91E6
:1036000082300CF037C0803009F437C0CE018F57BC
:103610009F4F0E9420310E94F63187E0982E0030A3
:1036200069F3103019F4EBE7F0E102C0E6E8F0E1ED
:103630008BE08E010F571F4FD80195919D938150BC
:10364000E1F7CE0101966BE370E03C01A8010E9416
:1036500046116DE170E0C301A8010E94461169E5C1
:1036600070E0C301A8010E944611D5018C918230FF
:103670000CF4C9CF823009F0C9CF8FE00FB6C95B17
:10368000DF4F8EAFC754D0400FBE80E09FE70FB62C
:10369000CD5BDF4F8EAF9FAFC354D0400FBEF5015F
:1036A0003296CE018F579F4F8F01BF010E94210C90
:1036B000F50181818230E1F080E10FB6C95BDF4F17
:1036C0008EAFC754D0400FBE0FB6CC5BDF4F9EAE5F
:1036D000C454D0400FBE0FB6CD5BDF4F9EAEC35477
:1036E000D0400FBECE018F579F4FB8010E94210CD2
:1036F0000FB6CA5BDF4FCEAEDFAEC654D0400FBEB2
:103700000FB6CC5BDF4FEEAEFFAEC454D0400FBE61
:103710000FB6CD5BDF4F1EAEC354D0400FBE4298F4
:10372000419ABE016F577F4FC8010E941F09429AFC
:10373000C557DF4F0FB6F894DEBF0FBECDBFDF9188
:10374000CF911F910F91FF90EF90DF90CF90BF909E
:10375000AF909F907F906F9008952F923F924F92DD
:103760005F926F927F928F929F92AF92BF92CF9211
:10377000DF920F931F93CF93DF93CDB7DEB7CA5C71
:10378000D0400FB6F894DEBF0FBECDBFC22ED42EF0
:10379000762E982ECE01019642EA50E02C01612D42
:1037A0005A010E94FB318D2C872D8D21782E81307E
:1037B00039F4CE01019642EA50E06FEF0E94FB31EE
:1037C00080E090E00FB6C959DF4F8EAF9FAFC7566C
:1037D000D0400FBE0FB6CB59DF4F8EAF9FAFC5564F
:1037E000D0400FBE8C2D823062010CF450C082306C
:1037F00009F46CC0833009F067C3F801818199E254
:10380000899F912D112492959F70292F20630FB6C7
:10381000CB59DF4F2EAFC556D0400FBE2CE99202D8
:103820001124202D280F9DEC299F912D1124969570
:1038300096959695392F30630FB6CA59DF4F3EAF34
:10384000C656D0400FBE36EF93021124902D920F32
:10385000392F30630FB6C959DF4F3EAFC756D0403E
:103860000FBE843631E008F09AC0330F2A30232F80
:1038700008F09BC0843608F49CC0432F5527323093
:1038800009F49DC09A01903009F49DC09DC080301C
:1038900009F078C0D8013C91303C0CF0A3C083E41F
:1038A00095E40FB6C959DF4F8EAF9FAFC756D040D2
:1038B0000FBE8FE49EE40FB6CB59DF4F8EAF9FAFA4
:1038C000C556D0400FBE44E050E0D9C1F801238175
:1038D000203009F4E6C0922F990F990B822F892787
:1038E000891B99E2899F912D112492959F70392F00
:1038F00030630FB6CA59DF4F3EAFC656D0400FBE39
:103900003CE993021124402D480F9DEC499F912DD5
:103910001124969596959695392F30630FB6C9590F
:10392000DF4F3EAFC756D0400FBE36EF9302112493
:10393000902D940F392F30630FB6C859DF4F3EAF2B
:10394000C856D0400FBE31E04A3041E008F416C1FD
:10395000843651E008F017C145236FEF843608F034
:1039600018C1403009F419C1542742E0503009F41D
:103970001AC1903009F41BC1842F9927443008F4F0
:103980001CC1A4C3F8018281803009F495C084363B
:1039900009F0AFC086E594E529E43EE491C0312DFD
:1039A000330F2A30232F08F465CF21E0843608F046
:1039B00064CF322F432F5527323009F063CF22E0F6
:1039C00030E0903009F49A01DE01AD55BF4FA20FEF
:1039D000B31F43E050E0422753274030510509F020
:1039E00084C172C22FE2832F88230AF028E7303087
:1039F00009F4F6C0932F990F990B832F8927891B00
:103A000099E2899F912D112492959F70492F4063CF
:103A10000FB6CA59DF4F4EAFC656D0400FBE4CE965
:103A200094021124502D580F9DEC599F912D112473
:103A3000969596959695492F40630FB6C959DF4FD5
:103A40004EAFC756D0400FBE46EF94021124902DC2
:103A5000950F492F40630FB6C859DF4F4EAFC85678
:103A6000D0400FBE41E05A3051E008F40CC184361A
:103A700061E008F00DC156237FEF843608F00EC1D7
:103A8000503009F40FC1652752E0603009F410C1CD
:103A9000903009F411C1852F9927543008F412C1D0
:103AA00015C380E30FB6CB59DF4F8EAFC556D0405C
:103AB0000FBE41E050E0E3C089E497E424E532E53D
:103AC0000FB6CB59DF4F2EAF3FAFC556D0400FBE1C
:103AD0000FB6C959DF4F8EAF9FAFC756D0400FBE4C
:103AE000DE01AD55BF4FCD0104962C0144E050E0FE
:103AF00000C199E2899F912D112492959F70292FE1
:103B000020630FB6CB59DF4F2EAFC556D0400FBE46
:103B10002CE992021124202D280F9DEC299F912D34
:103B20001124969596959695392F30630FB6CA59FC
:103B3000DF4F3EAFC656D0400FBE36EF9302112482
:103B4000902D920F392F30630FB6C959DF4F3EAF1A
:103B5000C756D0400FBE843631E008F04FC0330F57
:103B60002A30232F08F050C0843608F451C0432F68
:103B70005527323009F452C0FA0152C0412D843623
:103B800051E008F4E9CE512D45236FEF843608F457
:103B9000E8CE612D403009F0E7CE362F542742E0C1
:103BA000503009F0E6CE432F903009F0E5CE432F98
:103BB000842F9927443008F089C244E050E03DE268
:103BC00022230AF03BE2DE01AD55BF4FA80FB91F1B
:103BD0003C93481B590B4030510509F086C074C115
:103BE00080E30FB6CB59DF4F8EAFC556D0400FBE26
:103BF000DE01AD55BF4F41E050E072C0312D330FB3
:103C00002A30232F08F4B0CF21E0843608F0AFCF5C
:103C1000322F432F5527323009F0AECFE2E0F0E0EB
:103C2000903009F4FA01DE01AD55BF4F83E090E01A
:103C30008E279F278030E1F0EA0FFB1F20810FB60F
:103C4000CB59DF4F2EAFC556D0400FBE813081F02B
:103C50009D018D011196AF0121812C93D8018230F5
:103C600039F0FD013296BF01FA012281FB01208368
:103C7000A80FB91F25E22C938395482F5527DE0105
:103C8000AD55BF4F32C0512D843661E008F4F3CEFC
:103C9000612D56237FEF843608F4F2CE712D50301B
:103CA00009F0F1CE472F652752E0603009F0F0CEE1
:103CB000542F903009F0EFCE542F852F9927543090
:103CC00008F004C24DE233230AF04BE2DE01AD55A9
:103CD000BF4FA80FB91F4C9344E050E0481B590B4D
:103CE0002C934030510509F4EFC0CD01840F951F8E
:103CF0002C0184EF5802902D1124489F212D11246E
:103D0000241B290F322F2227802D9927822B932BBA
:103D1000C496072D003009F46DC004E29E012955B8
:103D20003F4F63E007C00C96D301A201A417B5076B
:103D300009F4CAC07D913D017052709FE12D11249C
:103D4000A02DBB27FE2FEE27EA2BFB2BDF01AD5565
:103D5000BD40AF3742EFB40708F4BEC1E859FF4F8A
:103D600074E2D90145914D937150E1F7712D03C073
:103D70007C3009F4D8CFE72FFF27DC01AE0FBF1F3F
:103D80007395A633B105A0F7B602102D1124A69F96
:103D9000412D1124410F542F4427A02DBB27A42BC4
:103DA000B52BA601A40FB51F1D01E69FA12D11245F
:103DB000402D5527BA2FAA27A42BB52BA20FB31F2E
:103DC0004C91542F550F5095F1015083FD015181B5
:103DD000152F111F1127111FA281AA0FA12BA0952A
:103DE000F101A283441F4427441F550F542B5095C3
:103DF0005183BECF04E29E0129553F4F63E007C0C7
:103E00000C96D301A201A417B50709F45DC07D91FA
:103E10003D017052709FE12D1124A02DBB27FE2F74
:103E2000EE27EA2BFB2BDF01AD55BD40AF3742EF4C
:103E3000B40708F451C1E859FF4F74E2D901159154
:103E40001D937150E1F7712D03C07C3009F4D8CF78
:103E5000E72FFF27DC01AE0FBF1F7395A633B10517
:103E6000A0F7B602102D1124A69F412D1124410F59
:103E7000542F4427A02DBB27A42BB52BA601A40F9C
:103E8000B51F1D01E69FA12D1124402D5527BA2FE6
:103E9000AA27A42BB52BA20FB31F4C91542F550F5B
:103EA000F1015083FD015181152F111F1127111FA1
:103EB000A281AA0FA12BF101A283441F4427441F12
:103EC000550F542B5183C1CF882D8030192D09F007
:103ED0004FC080E090E023E0FC019202302D1124DD
:103EE000829F412D1124430F542F4427A02DBB271F
:103EF000A42BB52BAC0DBD1D3C9133603C9331968A
:103F000085339105CF0148F380E090E023E0DC01A8
:103F10009202302D1124829F412D1124430F542FE2
:103F20004427602D7727642B752B6C0D7D1DFB01BD
:103F30003281306C3283119685339105CD0140F387
:103F4000C60184569F4F2FEF3FEFFC01228333833E
:103F5000248335832D833E832B833C8329833A83BB
:103F60000FB6C15ADF4F2EAF3FAFCF55D0400FBE77
:103F7000812F8770803009F0B7C0D7018C918230D3
:103F80001CF4803021F0B0C0823009F0ADC0012FA8
:103F9000085E013408F0A8C08FE00FB6C359DF4FA8
:103FA0008EAFCD56D0400FBE8AE49FE70FB6C759FB
:103FB000DF4F8EAF9FAFC956D0400FBEF70132968C
:103FC000CE0189559F4F4F01BF010E94210CF7017F
:103FD0008181823009F432C0103408F06FC0902F14
:103FE0009A95812D21E0091708F060C0203009F46E
:103FF00061C0803408F062C090E10FB6C359DF4F52
:104000009EAFCD56D0400FBE8695869586950FB64D
:10401000C659DF4F8EAFCA56D0400FBE16951695C3
:1040200016950FB6C759DF4F1EAFC956D0400FBE09
:10403000CE0189559F4FB4010E94210C0FB6C4597F
:10404000DF4FAEAEBFAECC56D0400FBE0FB6C65996
:10405000DF4FCEAEDFAECA56D0400FBE0FB6C75947
:10406000DF4F1EAEC956D0400FBE4298419ABE01E6
:1040700069557F4FC4010E941F09429AC653DF4F02
:104080000FB6F894DEBF0FBECDBFDF91CF911F9169
:104090000F91DF90CF90BF90AF909F908F907F90C7
:1040A0006F905F904F903F902F900895282F203071
:1040B00009F09FCF892F803408F49ECF85ED95E0DD
:1040C0006DE070E00E941C310E94F63164E070E007
:1040D0000E9418310E94F6318BE291E065E370E0B6
:1040E0000E941C310E94F631CE0189559F4F0E94DB
:1040F00020310E94F6316F927F928F929F92AF9201
:10410000BF92CF92DF92EF92FF920F931F93CF93C4
:10411000DF93CDB7DEB7CB51D1400FB6F894DEBFF9
:104120000FBECDBF4901042F162FB82ECE01019628
:104130004EED50E07C01612D6A010E94FB31103090
:1041400009F41EC0CE0101964EED50E06FEF0E94C3
:10415000FB3128EC35E002300CF417C0023009F4D2
:1041600023C0033009F033C085E0EAEDF0E1AE0191
:1041700041525F4FDA0195919D938150E1F71FC045
:1041800027EC35E002300CF0E9CF003009F043C0F5
:1041900085E0EAECF0E1AE0141525F4FDA01959122
:1041A0009D938150E1F70BC085E0E5EDF0E1AE01B4
:1041B00041525F4FDA0195919D938150E1F7D9010A
:1041C0000C91CE01019662E070E025E036C089E3F3
:1041D000E1E9F0E1BE0161527F4FDB0195919D93D2
:1041E0008150E1F7D9010C91CE0101963C01402F9D
:1041F0000E94A71084E0EFEDF0E1AE01485E5E4F53
:10420000DA0195919D938150E1F76AE170E024E035
:1042100030E0C30113C086E0EFECF0E1AE014152A3
:104220005F4FDA0195919D938150E1F7D9010C918F
:10423000CE01019662E070E026E030E00E94CE11EF
:104240000B2D802F8770803009F0A7C0D4018C918E
:1042500082301CF4803021F0A0C0823009F09DC073
:10426000102F185E113408F098C08FE00FB6CB55B0
:10427000DF4F8EAFC55AD0400FBE80E099E40FB635
:10428000CF55DF4F8EAF9FAFC15AD0400FBEF40164
:104290003296CE0181529F4F5F01BF010E94210CD7
:1042A000F4018181823009F433C0003408F06DC01C
:1042B000912F9A95812D21E0191708F45FC0282FBE
:1042C000203009F45EC0803408F05FC090E10FB682
:1042D000CB55DF4F9EAFC55AD0400FBE8695869511
:1042E00086950FB6CE55DF4F8EAFC25AD0400FBE67
:1042F0000695069506950FB6CF55DF4F0EAFC15AFE
:10430000D0400FBECE0181529F4FB5010E94210CBB
:104310000FB6CC55DF4FCEAEDFAEC45AD0400FBE85
:104320000FB6CE55DF4FEEAEFFAEC25AD0400FBE35
:104330000FB6CF55DF4F1EAEC15AD0400FBE4298C8
:10434000419ABE0161527F4FC5010E941F09429AE6
:10435000C55EDE4F0FB6F894DEBF0FBECDBFDF9156
:10436000CF911F910F91FF90EF90DF90CF90BF9072
:10437000AF909F908F907F906F900895203009F0BC
:10438000A2CF892F803408F4A1CF85ED95E06DE0B0
:1043900070E00E941C310E94F631CE0181529F4F85
:1043A0000E9420310E94F631EF92FF921F938CB54C
:1043B0008F7B8CBD81E08093E8052D98259A67EF6F
:1043C0007FE32BE73AE140E050E08BE794E07C01AB
:1043D0004FC0C7010197F1F72D98CB010197F1F775
:1043E000CB010197F1F7CB010197F1F7CB010197D1
:1043F000F1F7CB010197F1F7CB010197F1F7CB0171
:104400000197F1F7CB010197F1F7CB010197F1F794
:10441000CB010197F1F7CB010197F1F7CB010197A0
:10442000F1F7CB010197F1F7CB010197F1F7CB0140
:104430000197F1F7CB010197F1F7CB010197F1F764
:10444000CB010197F1F7CB010197F1F7CB01019770
:10445000F1F7CB010197F1F7CB010197F1F7CB0110
:104460000197F1F7CB010197F1F7C9010197F1F736
:104470002D9AFB013197F1F7FB013197F1F7FB0121
:104480003197F1F7FB013197F1F7FB013197F1F724
:10449000FB013197F1F7FB013197F1F7FB01319700
:1044A000F1F7FB013197F1F7FB013197F1F7FB01D0
:1044B0003197F1F7FB013197F1F7FB013197F1F7F4
:1044C000FB013197F1F7FB013197F1F7FB013197D0
:1044D000F1F7FB013197F1F7FB013197F1F7FB01A0
:1044E0003197F1F7FB013197F1F7FB013197F1F7C4
:1044F000FB013197F1F7FB013197F1F7FB013197A0
:10450000F1F7F9013197F1F72D98FB013197F1F7A8
:10451000FB013197F1F7FB013197F1F7FB0131977F
:10452000F1F7FB013197F1F7FB013197F1F7FB014F
:104530003197F1F7FB013197F1F7FB013197F1F773
:10454000FB013197F1F7FB013197F1F7FB0131974F
:10455000F1F7FB013197F1F7FB013197F1F7FB011F
:104560003197F1F7FB013197F1F7FB013197F1F743
:10457000FB013197F1F7FB013197F1F7FB0131971F
:10458000F1F7FB013197F1F7FB013197F1F7FB01EF
:104590003197F1F7FB013197F1F7F9013197F1F715
:1045A0002D9AFB013197F1F7FB013197F1F7FB01F0
:1045B0003197F1F7FB013197F1F7FB013197F1F7F3
:1045C000FB013197F1F7FB013197F1F7FB013197CF
:1045D000F1F7FB013197F1F7FB013197F1F7FB019F
:1045E0003197F1F7FB013197F1F7FB013197F1F7C3
:1045F000FB013197F1F7FB013197F1F7FB0131979F
:10460000F1F7FB013197F1F7FB013197F1F7FB016E
:104610003197F1F7FB013197F1F7FB013197F1F792
:10462000FB013197F1F7FB013197F1F7FB0131976E
:10463000F1F7F9013197F1F72D98FB013197F1F777
:10464000FB013197F1F7FB013197F1F7FB0131974E
:10465000F1F7FB013197F1F7FB013197F1F7FB011E
:104660003197F1F7FB013197F1F7FB013197F1F742
:10467000FB013197F1F7FB013197F1F7FB0131971E
:10468000F1F7FB013197F1F7FB013197F1F7FB01EE
:104690003197F1F7FB013197F1F7FB013197F1F712
:1046A000FB013197F1F7FB013197F1F7FB013197EE
:1046B000F1F7FB013197F1F7FB013197F1F7FB01BE
:1046C0003197F1F7FB013197F1F7F9013197F1F7E4
:1046D0002D9AFB013197F1F7FB013197F1F7FB01BF
:1046E0003197F1F7FB013197F1F7FB013197F1F7C2
:1046F000FB013197F1F7FB013197F1F7FB0131979E
:10470000F1F7FB013197F1F7FB013197F1F7FB016D
:104710003197F1F7FB013197F1F7FB013197F1F791
:10472000FB013197F1F7FB013197F1F7FB0131976D
:10473000F1F7FB013197F1F7FB013197F1F7FB013D
:104740003197F1F7FB013197F1F7FB013197F1F761
:10475000FB013197F1F7FB013197F1F7FB0131973D
:10476000F1F7F9013197F1F72D98FB013197F1F746
:10477000FB013197F1F7FB013197F1F7FB0131971D
:10478000F1F7FB013197F1F7FB013197F1F7FB01ED
:104790003197F1F7FB013197F1F7FB013197F1F711
:1047A000FB013197F1F7FB013197F1F7FB013197ED
:1047B000F1F7FB013197F1F7FB013197F1F7FB01BD
:1047C0003197F1F7FB013197F1F7FB013197F1F7E1
:1047D000FB013197F1F7FB013197F1F7FB013197BD
:1047E000F1F7FB013197F1F7FB013197F1F7FB018D
:1047F0003197F1F7FB013197F1F7F9013197F1F7B3
:104800002D9AFA01DA0107C01170EF5FFF4FAF4F29
:10481000BF4F103059F0CB010197F1F711E0E937A4
:10482000F105A407B50780F3112DEECFC70101975D
:10483000F1F72D98CB010197F1F7CB010197F1F733
:10484000CB010197F1F7CB010197F1F7CB0101976C
:10485000F1F7CB010197F1F7CB010197F1F7CB010C
:104860000197F1F7CB010197F1F7CB010197F1F730
:10487000CB010197F1F7CB010197F1F7CB0101973C
:10488000F1F7CB010197F1F7CB010197F1F7CB01DC
:104890000197F1F7CB010197F1F7CB010197F1F700
:1048A000CB010197F1F7CB010197F1F7CB0101970C
:1048B000F1F7CB010197F1F7CB010197F1F7CB01AC
:1048C0000197F1F7C9010197F1F72D9AFA01DA0181
:1048D00007C01170EF5FFF4FAF4FBF4F103059F05F
:1048E000CB010197F1F711E0E937F105A407B5070E
:1048F00080F3112DEECFC7010197F1F72D98CB0171
:104900000197F1F7CB010197F1F7CB010197F1F78F
:10491000CB010197F1F7CB010197F1F7CB0101979B
:10492000F1F7CB010197F1F7CB010197F1F7CB013B
:104930000197F1F7CB010197F1F7CB010197F1F75F
:10494000CB010197F1F7CB010197F1F7CB0101976B
:10495000F1F7CB010197F1F7CB010197F1F7CB010B
:104960000197F1F7CB010197F1F7CB010197F1F72F
:10497000CB010197F1F7CB010197F1F7CB0101973B
:10498000F1F7CB010197F1F7CB010197F1F7C901DD
:104990000197F1F72D9AFA01DA0108C01170EF5F63
:1049A000FF4FAF4FBF4F103009F413CDCB0101972C
:1049B000F1F711E0E937F105A407B50778F3112DF8
:1049C000EDCF0F921F920FB60F9211242F933F93AA
:1049D0004F935F938F938FB7F8942091E4053091B4
:1049E000E5054091E6055091E705285F3F4F4F4FA1
:1049F0005F4F3093E5052093E4055093E70540931E
:104A0000E6058FBF8F915F914F913F912F910F904E
:104A10000FBE1F900F9018950F921F920FB60F9216
:104A200011242F933F934F935F936F937F938F93B3
:104A30009F93AF93BF93CF93DF93EF93FF93CDB744
:104A4000DEB721970FB6F894DEBF0FBECDBF81E071
:104A50008093E80593B19370292F3327A2EEB5E038
:104A60000FB6F8949C910FBEE92FFF27EE0FFF1FA2
:104A7000EE0FFF1FE22BF32BED51FE4EDE011196E0
:104A800091E025912D939150E1F79981292F2F7075
:104A9000273008F03DC0A2EEB5E00FB6F8942C9395
:104AA0000FBE92959F70923021E009F0212D913038
:104AB00011F0220F822FA3EEB5E00FB6F8949C916F
:104AC0000FBE803029F0813011F481E001C08FEFFA
:104AD000890FA3EEB5E00FB6F8948C930FBE219624
:104AE0000FB6F894DEBF0FBECDBFFF91EF91DF91FF
:104AF000CF91BF91AF919F918F917F916F915F9176
:104B00004F913F912F910F900FBE1F900F901895CE
:104B100089EB95E06EE070E00E941C310E94F63156
:104B20000E9494250E94F6312F923F924F925F92FD
:104B30006F927F928F929F92AF92BF92CF92DF92AD
:104B4000EF92FF920F931F93CF93DF93CDB7DEB712
:104B5000CC57D0400FB6F894DEBF0FBECDBF8FB795
:104B6000F8949091E805903011F00C94E73091E0C2
:104B70009093E80591E08FBF22E024BD8DE787BDCB
:104B800085E085BD20936E00F12CF6BC8FEF8AB9CD
:104B9000F4B803E005B9FBBA00936B00909368008A
:104BA00078942D98259A2B98239A24982C9A2A98B1
:104BB000229A80E58CBD9DBD11E04198399A4298BA
:104BC0003A9AFAAE80E092E088AF99AF4098389A6E
:104BD000409A8BE99FE00197F1F7409887EF9FE3B8
:104BE000FC013197F1F70197F1F78BE39CE1019715
:104BF000F1F7409A86E00FB660968EAF60970FBED1
:104C00000FB62C96FEAE2C970FBECE01C896FC01B7
:104C10006C013296CE01865B9F4FBF014F010E940F
:104C2000210C88E10FB660968EAF60970FBE88E0CA
:104C300090E00FB62C968EAF9FAF2C970FBE5C0105
:104C4000CE01865B9F4FB4010E94210C84E10FB618
:104C500060968EAF60970FBE8FE30FB62C968EAF27
:104C60002C970FBECE01865B9F4FB4010E94210C92
:104C700086E10FB660968EAF60970FBE0FB62C968A
:104C8000FEAE2C970FBECE01865B9F4FB4010E94F3
:104C9000210C82E10FB660968EAF60970FBE0FB603
:104CA0002C96FEAE2C970FBECE01865B9F4FB401B3
:104CB0000E94210C8CE10FB660968EAF60970FBEFC
:104CC0000FB62C961EAF2C970FBECE01865B9F4F62
:104CD000B4010E94210C8EE00FB660968EAF6097F3
:104CE0000FBE0FB62C961EAF2C970FBECE01865B63
:104CF0009F4FB4010E94210C87E10FB660968EAFE2
:104D000060970FBE81E090E00FB62C968EAF9FAFFC
:104D10002C970FBE3C01CE01865B9F4FB4010E94D1
:104D2000210CF8AE83E10FB660968EAF60970FBE90
:104D30000FB62C961EAF2C970FBECE01865B9F4FF1
:104D4000B4010E94210C85E10FB660968EAF60978A
:104D50000FBE0FB62C961EAF2C970FBECE01865BF2
:104D60009F4FB4010E94210C89E10FB660968EAF6F
:104D700060970FBE81E092E00FB62C968EAF9FAF8A
:104D80002C970FBECE01865B9F4FB4010E94210C71
:104D90000FB660960EAF60970FBE8FE50FB62C96DC
:104DA0008EAF2C970FBECE01865B9F4FB4010E9441
:104DB000210C8AE10FB660968EAF60970FBE04E0BB
:104DC0000FB62C960EAF2C970FBECE01865B9F4F71
:104DD000B4010E94210C0FB660960EAF60970FBE13
:104DE0000FB62C96FEAE2C970FBECE01865B9F4F62
:104DF000B4010E94210C85E00FB660968EAF6097DB
:104E00000FBE0FB62C96FEAE2C970FBECE01865B62
:104E10009F4FB4010E94210C89E00FB660968EAFBF
:104E200060970FBE0FB62C96FEAE2C970FBECE012C
:104E3000865B9F4FB4010E94210C86E00FB66096FE
:104E40008EAF60970FBE11E00FB62C961EAF2C9759
:104E50000FBECE01865B9F4F2C018D829E82B401D6
:104E60000E94210C19AFC6010E94B40B8AAD8FAB12
:104E700088AD99AD8DAB9EAB3C98449A3B98439AD4
:104E800040E050E00FB621964EAF5FAF21970FBEC6
:104E90004DAF5EAF82E00FB62A968EAF2A970FBE57
:104EA00081E08CAFF8AE82E390E00FB6AA968EAFA9
:104EB0009FAFAA970FBE20EF30E00FB6A8962EAF97
:104EC0003FAFA8970FBE0FB6A6968EAF9FAFA6971F
:104ED0000FBE28EF30E00FB6A4962EAF3FAFA497D9
:104EE0000FBE0FB6A2968EAF9FAFA2970FBE2CEF4C
:104EF00030E00FB6A0962EAF3FAFA0970FBE0FB613
:104F00006E968EAF9FAF6E970FBE2EEF30E00FB64E
:104F10006C962EAF3FAF6C970FBE0FB66A968EAFF2
:104F20009FAF6A970FBE0FB66896AEAEBFAE6897DA
:104F30000FBE0FB666968EAF9FAF66970FBE24E08A
:104F400030E00FB664962EAF3FAF64970FBE0FB63A
:104F500062968EAF9FAF62970FBE22E030E00FB631
:104F600060962EAF3FAF60970FBE0FB62E968EAFF6
:104F70009FAF2E970FBE0FB62C966EAE7FAE2C97BE
:104F80000FBE80E80FB6AC968EAFAC970FBE0FB6D3
:104F9000E7964EAF5FAFE7970FBE0FB6E5964EAF01
:104FA0005FAFE5970FBE0FB6E3964EAF5FAFE397E7
:104FB0000FBE0FB6E1964EAF5FAFE1970FBE0FB6D3
:104FC000AF964EAF5FAFAF970FBE0FB6AD964EAF79
:104FD0005FAFAD970FBE5A018E010B5C1F4F81E092
:104FE00060E845E098010E94A71681E08093E805FB
:104FF000CE0188589F4FFC013396E987FA87FC0160
:105000003196E98BFA8B04968F87988BF801CF0144
:1050100001968B879C873296EB8BFC8BC6010196A1
:10502000898F9A8FC60103968F839887C601419610
:105030008D879E87CE018D589F4F89839A83C201A9
:1050400080968B839C83C601409689AB9AABC60140
:1050500005968E8F9F8F3601C60104968C8F9D8F8B
:10506000AFA2B8A6ADA2BEA28F2D88ABAAA2BBA24A
:10507000A8A2B9A2FBAAFCA281E08B8F8F2D8FA7DB
:105080008CABFEA6ACA6BDA6AAA6BBA60FC0AC8DD7
:10509000BD8D6C91A98DBA8D8C91AE01465B5F4F31
:1050A000FE01F596092F7F010E9445188FB7F894ED
:1050B0000091E6051091E7058090E4059090E505E4
:1050C00096B58FBF892F9927BC01762F6627770F5A
:1050D000770F929582958F7089279F708927969573
:1050E00087959695879520E83EE340E050E00E9442
:1050F000BA3179016A01E80CF91CC01ED11E8CA9D5
:10510000803091E009F4912D86B18870803021E0E3
:1051100009F0212D92279170903069F0869586953F
:10512000869521E091E098AB82278CABEFA2F8A6A0
:10513000CDA2DEA259C097018FA198A5281B390BDB
:10514000A6018DA19EA1480B590B88A9803009F4B6
:105150004BC081E02132310520E030E042075307A7
:1051600008F4812D8170803009F43EC08CA9813013
:1051700061F48EA58170803069F41BB881E08CAB3E
:10518000812D88AB81E08EA72FC0812D88AB812D2A
:105190008CAB2AC080E090E00FB6E3968EAF9FAF55
:1051A000E3970FBE0FB6E1968EAF9FAFE1970FBEAC
:1051B0000FB6AF968EAF9FAFAF970FBE0FB6AD963F
:1051C0008EAF9FAFAD970FBEE981FA818283938343
:1051D0008083918381E08CAB812D88AB812D8EA75C
:1051E000ECA6FDA6CAA6DBA697018CA59DA5281B4B
:1051F000390BA6018AA59BA5480B590B8E01065BAE
:105200001F4FBE0165597F4FC8010E94590D2EA541
:105210002170203009F48BB931E08BA9803021E076
:10522000A9A9BAA909F4212D4C9186B180718030C9
:1052300009F0312D23272170423009F03DC0203084
:1052400009F463C082958F7021E091E09FA78227C7
:10525000EAA2FBA2C8A2D9A28BAB83E09CA19030AA
:1052600009F082E0837082300CF075C0803009F064
:105270006DC1EE8DFF8DE082F182C282D38288AD56
:10528000803009F4DEC28130F30109F091C32C8D26
:105290003D8DAD01D9018C9191E089278C93DA0184
:1052A00022E0EF8AF88ECD8ADE8A812D8B8F8C9159
:1052B000823009F008C6D7C2203009F471C0829547
:1052C0008F7031E021E02FA78327EAA2FBA2C8A2BA
:1052D000D9A28BAB83E02CA1203009F082E083704F
:1052E00082300CF083C0803009F0B0C018AE81E08D
:1052F000EC8DFD8D8083EE8DFF8DC282D382E082A6
:10530000F18282E08C9325E0A3C297018AA19BA140
:10531000281B390BA60188A199A1480B590B8FA511
:10532000803009F49ACF81E02132310520E030E06D
:105330004207530708F4812D8170803009F48DCF26
:105340002BA9822F91E089272CA3912D9FA78370F1
:1053500082300CF48BCF823009F0FEC0C7012F8958
:10536000388D821B930BA6012D893E89420B530B6E
:1053700061E0E816F906C406D50608F4B2C0612D4E
:10538000603020E030E009F4B1C0603040E050E02F
:1053900009F0B2C0AC018B8D803009F4B1C0D6C029
:1053A00097014AA15BA1241B350BA60168A179A135
:1053B000460B570B8FA5803009F48CCF81E021324A
:1053C000310520E030E04207530708F4812D817059
:1053D000803009F47FCF3BA9832F21E082273CA3B3
:1053E000212D2FA7837082300CF47DCF823009F0FD
:1053F0002DC081E02B8D203021E02B8F09F026C0BD
:1054000097014F89588D241B350BB6014D895E8954
:10541000640B750BE216F306C606D706E1E008F446
:1054200004C2E12DE03040E050E009F403C2E03076
:1054300060E070E009F4B901653F780720E030E0F2
:105440004207530708F4812D81708B8FE3EEF5E05E
:105450000FB6F89480810FBE8030D9F08FB7F894E2
:105460000FB6F89420810FBE0FB6F89410820FBECD
:105470008FBF203071F018AE81E0EC8DFD8D808300
:10548000EE8DFF8DC282D382E082F18282E08C9326
:10549000DDC09170903009F409CEAD85BE858C9148
:1054A00083958C93E82FFF27ED51FF4EDE01A8581E
:1054B000BF4F81E095919D938150E1F70FB6EA9639
:1054C0002EADEA970FBE922F9F70A92FBB27A30185
:1054D000FA01EA0FFB1F8081873008F0B9C0822FE4
:1054E00078C1603020E030E009F04FCF9A016030A1
:1054F00040E050E009F44ECF8B8D803009F026C09B
:1055000081E0453F580740E050E02407350708F0A8
:10551000812D81708030D1F4EE8DFF8DE082F1829B
:10552000C282D38281E08B8F88AD803009F4BECDFA
:10553000813009F07EC2A98DBA8D8C9192E098AF2E
:105540001C92AD81BE811C92A3E079C2EE8DFF8DCD
:10555000E082F182C282D382A3EEB5E00FB6F89466
:105560008C910FBE803009F432C09FB7F8940FB60B
:10557000F8947C910FBE0FB6F8941C920FBE9FBF9B
:10558000703009F424C0EE8DFF8DE082F182C2827A
:10559000D38298AD903009F41EC2913009F030C228
:1055A000A98DBA8D9C91AC8DBD8D2C912030F301CD
:1055B00009F460C2790F272F22230AF44FC37730F2
:1055C00008F077E0A98DBA8D7C9323E076C4EE8D48
:1055D000FF8D208131814281538128573C4E4F4FAE
:1055E0005F4F81E02E153F054C055D0508F0812DCC
:1055F0008170803009F45ACD80E090E00FB6289693
:105600008EAF9FAF28970FBE0FB626968EAF9FAF77
:1056100026970FBE0FB624968EAF9FAF24970FBE6E
:105620000FB622968EAF9FAF22970FBE8EAF9FAF61
:105630008CAF9DAF8AAF9BAF88AF99AF81E0E9A9EE
:10564000FAA98083AD85BE85EC92DF0125E006C115
:10565000BF01822F8395382F3F70E32FFF27E40F80
:10566000F51F3081373008F4B4C0822F8E5F382F99
:105670003F70E32FFF27A301E40FF51F3081373080
:1056800008F4A7C0822F8D5F382F3F70E32FFF27CC
:10569000A301E40FF51F3081373008F49AC0822F40
:1056A0008C5F382F3F70E32FFF27A301E40FF51F16
:1056B0003081373008F48DC0822F8B5F382F3F70D8
:1056C000E32FFF27A301E40FF51F3081373008F4E3
:1056D00080C0822F8A5F382F3F70E32FFF27A301FE
:1056E000E40FF51F3081373008F473C0822F895FD3
:1056F000382F3F70E32FFF27A301E40FF51F308100
:10570000373008F466C0822F885F382F3F70E32F50
:10571000FF27A301E40FF51F3081373008F459C08B
:10572000822F875F382F3F70E32FFF27A301E40FFD
:10573000F51F3081373008F44CC0822F865F382F38
:105740003F70E32FFF27A301E40FF51F30813730AF
:1057500008F43FC0822F855F382F3F70E32FFF276B
:10576000A301E40FF51F3081373008F432C0822FD7
:10577000845F382F3F70E32FFF27A301E40FF51F4D
:105780003081373008F425C0822F835F382F3F7077
:10579000E32FFF27A301E40FF51F30813730C8F056
:1057A000822F825F382F3F70E32FFF27A301E40F82
:1057B000F51F3081373068F0215F822F8F70E82F1E
:1057C000FF27A301E40FF51F80818730822F08F0A7
:1057D00044C3AD85BE859C9193959C93E92FFF278B
:1057E000ED51FF4EDE01A858BF4F91E025912D935A
:1057F0009150E1F70FB6EA963EADEA970FBE3F70C3
:105800003395F30106C0341B83953030F30109F45E
:105810004FC3982F9F70A92FBB27EA0FFB1F208132
:1058200041E0273080F3412DEECFE03040E050E002
:1058300009F0FDCDAB01E03060E070E009F4FBCD94
:10584000FBCDEC8DFD8D808191E08927808322E066
:10585000EF8AF88ECD8ADE8A812D8B8FF3018C91B1
:10586000823009F030C388AD803009F475C08130D2
:1058700009F40DCCAF81B8853C91832F992738303E
:10588000AD81BE8108F0ACC44C91A98DBA8D3C911C
:10589000880F991F880F991F080F191FAC8DBD8D98
:1058A0009C90822F8350833008F063C0A32E680140
:1058B000F12CE42E403061E009F46F2D8E010B5C79
:1058C0001F4F81E0A8010E94D61A8E2D833061E01F
:1058D00008F06F2D8F2DA8010E94D61A4E2D4E3F35
:1058E0002A2D08F0E3CB463049A710F495E099A79C
:1058F000942F9E5FB92E88E010C0182B852D602F45
:10590000412F86010E94AD1B852D482D885E439551
:105910009B2D49172A2D08F0C9CB99A5941709F496
:1059200073C4412C11E0241701E009F0042D9E01FD
:105930002B5C3F4F582E602F7901842E0E947B20D4
:10594000282D8A2D821781E009F4842D992D90301D
:1059500009F0D3CF142DD1CFAB81BC816C91AC8D2C
:10596000BD8D8C91FE01F596422F9F010E94A716D6
:105970009DCB2A95223008F099CB353008F044C4ED
:10598000932F941B812D391721E008F0282F203008
:1059900009F4892F98E18902802D1124885FFE0186
:1059A000F59661E0492D232F7F010E94AD1B7ECB30
:1059B000A98DBA8D8C91853008F026C4843009F009
:1059C0004BC0AF81B8858C9191E098AFA98DBA8D0D
:1059D0008C9325E048C0AC8DBD8D9C91903009F42E
:1059E000F1C017160CF062CB91E098AF7A95773042
:1059F00008F077E0A98DBA8D7C9325E0F3015DC2B4
:105A0000AC8DBD8D9C919030F30109F4EEC0A98D51
:105A1000BA8D9C91272F790F22230AF422C131E0FD
:105A2000791708F42CC1312D2FEF303009F02AC13D
:105A300022C1AF81B8858C9191E098AFA1E0B0E030
:105A4000F301AE0FBF1F8C9391E0AC8DBD8D81E053
:105A50008B8F9C9325E031C2AC8DBD8D8C9191E0F4
:105A600089278C9322E0EF8AF88ECD8ADE8A812DF9
:105A70008B8F23C2A92FBB27983008F0BEC3AA0F73
:105A8000BB1FAA0FBB1FA00FB11F3C9109C0372F2E
:105A9000330F330B21E03227791B703009F48FC0AC
:105AA00021E0972F99239FEF0AF442C091E0512DF6
:105AB000303009F441C0432F44230AF42FEF290268
:105AC0001124632F660F660B432F4627461B501584
:105AD0000CF038C03030312D09F420C0342F369509
