:100000000C9434030C9451030C94FF0C0C94510386
:100010000C9451030C9451030C9451030C940B0D4C
:100020000C9451030C9451030C9451030C94510300
:100030000C9451030C9451030C94DC0C0C9451035C
:100040000C9451030C9451030C9451030C945103E0
:100050000C9451030C94210D0C9451030C945103F6
:100060000C9451030C94510300000100560B010045
:100070002C1701008823010070300100EA3D0100C7
:10008000FE4B0100B05A01000A6A0100117A01001A
:10009000CE8A0100499C01008AAE01009AC101008C
:1000A00082D501004BEA010000000200AB160200FD
:1000B000572E02000F470200E0600200D57B0200CD
:1000C000FB97020061B5020014D4020023F4020081
:1000D0009D15030092380300145D03003383030071
:1000E00003AB030096D4030000000400562D040067
:1000F000AE5C04001F8E0400C0C10400AAF7040017
:10010000F72F0500C26A050028A8050045E805008C
:10011000392B06002471060028BA0600670607007E
:10012000065607002CA9070000000800AC5A08007A
:100130005CB908003D1C09007F83090053EF0900EA
:10014000ED5F0A0084D50A004F500B008AD00B00E7
:1001500073560C0049E20C0050740D00CE0C0E00DA
:100160000CAC0E0058520F000000100058B51000E3
:10017000B87211007A381200FE061300A6DE1300D2
:10018000DBBF140008AB15009EA0160014A11700D9
:10019000E5AC180092C41900A0E81A009C191C00D4
:1001A00019581D00B0A41E0000002000B16A2100F3
:1001B00070E52200F5702400FC0D26004DBD2700DF
:1001C000B67F290010562B003D412D0029422F00FB
:1001D000CB593100238933003FD135003833380003
:1001E00032B03A005F493D000000400062D5420055
:1001F000E1CA4500EAE14800F81B4C00997A4F003B
:100200006BFF52001FAC56007A825A0052845E0087
:1002100095B36200461267007EA26B006F667000A5
:1002200063607500BF927A0000008000C3AA850059
:10023000C2958B00D3C39100F037980032F59E0031
:10024000D7FEA5003F58AD00F304B500A408BD00DB
:100250002A67C5008C24CE00FD44D700DFCCE00027
:10026000C7C0EA007D25F5000000000187550B019D
:10027000842B1701A7872301E16F300165EA3D0157
:10028000ADFD4B017EB05A01E6096A0147117A01C2
:1002900054CE8A0118499C01FA89AE01BE99C10168
:1002A0008E81D501FA4AEA01000000020EAB160267
:1002B00008572E024E0F4702C1DF6002CAD47B02EC
:1002C0005BFB9702FC60B502CD13D4028E22F402D0
:1002D000A89C150330923803F3135D037C3383032A
:1002E0001C03AB03F495D403000000041B562D043B
:1002F0000FAE5C049C1E8E0483BFC10493A9F70457
:10030000B5F62F05F7C16A059A27A8051D45E8052A
:1003100051392B0661247106E627BA06F7660607EF
:1003200037065607E92BA9070000000836AC5A0823
:100330001E5CB908373D1C09057F83092653EF0968
:100340006BED5F0AEF83D50A334F500B3A8AD00B1F
:10035000A172560CC148E20CCD4F740DEFCD0C0EBE
:100360006E0CAC0ED157520F000000106D58B51036
:100370003CB872116E7A38120AFE06134CA6DE13D0
:10038000D5DABF14DD07AB15669EA0167414A1174D
:1003900042E5AC188391C419999FE81ADE9B191C99
:1003A000DD18581DA3AFA41E00000020DAB06A219A
:1003B0007970E522DDF4702414FC0D26984CBD27DD
:1003C000AAB57F29BB0F562BCD3C412DE828422FE3
:1003D00084CA593105238933333FD135BB3733388C
:1003E000BA31B03A455F493D00000040B461D542A2
:1003F000F2E0CA45BAE9E14829F81B4C30997A4F36
:10040000556BFF52751FAC569A79825AD051845E53
:100410000995B3620B461267657EA26B766F6670B4
:10042000746360758BBE927A0000008068C3AA85F1
:10043000E4C1958B74D3C39152F037986132F59E25
:10044000AAD6FEA5EA3E58AD34F304B59FA308BD75
:10045000112A67C5158C24CECBFC44D7ECDECCE04A
:10046000E8C6C0EA157D25F500007101E0024E04E2
:10047000BA0525078E08F7095D0BC30C270E8A0FF6
:10048000EB104B12AA1308156416BF171919711A2D
:10049000C81B1E1D731EC61F19216A22BA230825F8
:1004A0005626A227ED28372A802BC82C0F2E542F32
:1004B0009830DC311E335F349F35DE361B385839B7
:1004C000943ACE3B083D413E783FAF40E44119436A
:1004D0004C447F45B046E14710493F4A6C4B994C2C
:1004E000C54DEF4E195042516A529153B754DC55E5
:1004F000005724584659685A895BA85CC75DE55E79
:1005000003601F613A6255636F648865A066B767D0
:10051000CE68E469F86A0C6C206D326E446F5570D9
:1005200065717472837390749D75AA76B577C0787F
:10053000CA79D37ADB7BE37CEA7DF07EF67FFB80B1
:10054000FF81028305840785088609870988088951
:10055000068A048B018CFE8CFA8DF58EEF8FE99064
:10056000E291DB92D293CA94C095B696AB97A098CD
:100570009499879A7A9B6C9C5E9D4F9E3F9F2EA07C
:100580001EA10CA2FAA2E7A3D4A4C0A5ABA696A76D
:1005900081A86AA953AA3CAB24AC0CADF2ADD9AE8C
:1005A000BEAFA4B088B16CB250B333B415B5F7B5D3
:1005B000D9B6BAB79AB87AB959BA38BB16BCF4BC2E
:1005C000D1BDADBE8ABF65C040C11BC2F5C2CFC39D
:1005D000A8C480C558C630C707C8DEC8B4C98ACA0F
:1005E0005FCB34CC08CDDCCDAFCE82CF54D026D17A
:1005F000F7D1C8D299D369D438D507D6D6D6A4D7DF
:1006000072D83FD90CDAD9DAA5DB70DC3BDD06DE27
:10061000D0DE9ADF63E02CE1F5E1BDE285E34CE456
:1006200013E5D9E59FE665E72AE8EFE8B3E977EA5D
:100630003BEBFEEBC1EC83ED45EE06EFC8EF88F037
:1006400049F109F2C8F287F346F405F5C3F580F6DF
:100650003EF7FBF7B7F873F92FFAEAFAA5FB60FC4F
:100660001AFDD4FD8EFE47FF11241FBECFEFD8E048
:10067000DEBFCDBF11E0A0E0B1E0ECE5F5E302C0E4
:1006800005900D92A237B107D9F721E0A2E7B1E0BA
:1006900001C01D92A738B207E1F70E945D0D0C94CE
:1006A000AC1A0C9400002F923F924F925F926F927F
:1006B0007F928F929F92AF92BF92CF92DF92EF92F2
:1006C000FF920F931F93CF93DF93CDB7DEB7609761
:1006D0000FB6F894DEBF0FBECDBF2E837A016C013A
:1006E00001ED13E04801061B170B93E081E0023D8A
:1006F000190758F0803061F482E00115180770F492
:1007000016950795169507951FC0812D8030A1F38A
:1007100000E010E082E00115180790F383E0011576
:10072000180718F4005811400FC01802902D11241A
:10073000089F812D1124890F982F8827002D1127BC
:10074000082B192B0058174021E631E540E050E016
:10075000B801CA010E94011A9695879577959695DA
:10076000879577950115110519F0272F382F02C0AD
:1007700021E030E00115110540E050E011F0492F73
:10078000512D0FEF1FEFB801C8010E94111AF60199
:100790008081918162817381280F391F461F571F05
:1007A000B12C281739074607570781E008F04DC0DC
:1007B00080301C870B8709F44EC08030B80109F4E3
:1007C000B9018FEF6F3F78078B859C858007910774
:1007D00081E009F08B2D8170803040E050E09A017B
:1007E000D40109F49B01F601318320838030CA01D2
:1007F00011F48B859C85F60193838283AE19BF0922
:1008000083E0A23DB80781E008F48B2D80309A0187
:1008100009F49D01C90192958295907F9827807F68
:100820009827880F991F880F991F880F991F293EB5
:10083000F1E0E1E0E9873F077D836C8338872F8310
:1008400088F08050944F9C0111C08B2D80301C8704
:100850000B8709F0B2CF5C874B878030B80109F471
:10086000AFCFAFCF20E034EF281B390B6B857C85F1
:10087000CA0149010E94011A7C01892F912DFC01B6
:10088000EE0FFF1FEE0FFF1FE859FF4F24E0DE01C0
:100890001D9634E045914D933150E1F78E3F91051F
:1008A00010F08EEF90E0880F991F880F991F8459E0
:1008B0009F4F4F8558896D847E84DE011D96FC0113
:1008C00085918D932150E1F7DA014D855E858F8505
:1008D0009889461557058A079B0708F0B986198538
:1008E0001170FA01E619F709BC016A0B7B0B930141
:1008F000241B350BAD01480B590B312E103009F478
:100900009F012D01832D803009F4AB01F701FE2FEB
:10091000EE2780E090E06C01B6015F017601860170
:100920000E941319832D803059F0215030404F4FD1
:100930005F4F6F4F7F4F641A750A460A570A04C00B
:10094000640E751E461E571E5A8649868401C801CC
:10095000892F9927FC01EE0FFF1FEE0FFF1FE859AB
:10096000FF4F24E0DE011D9634E045914D93315058
:10097000E1F71E3F910510F08EEF90E0880F991F70
:10098000880F991F84599F4F8F8498884D845E8467
:10099000DE011D96FC0185918D932150E1F721E048
:1009A0004D855E858F85988944155505880599057F
:1009B00008F0212D2170FA01E419F509BC0168093C
:1009C00079097201E41AF50AA401480B590B322E79
:1009D000203009F47F01832D803009F4AB01102F02
:1009E0000027580100E010E09701B801C801680134
:1009F00078010E941319832D803061F0215030401E
:100A00004F4F5F4F6F4F7F4F441A550AD401A60BCB
:100A1000B70B05C0440E551ED401A61FB71FE985AC
:100A2000FA8581E02F813885293E380708F03AC0E1
:100A300061147104E007F10709F4812D81708030A1
:100A400009F49BC081E041145104A007B10709F4E7
:100A5000812D8170803009F490C061E070E09801D0
:100A6000A801C80153016F0178013D010E94401A9D
:100A700019014A019801A80161E070E0C801520122
:100A800063010E94401A2801421A530A81E090E053
:100A9000DC01A40BB50B38016218730888099909A9
:100AA000FC0102C01197319781E041145104A00765
:100AB000B10709F4812D8170803069F081E0641400
:100AC0007504EA07FB0709F0812D8170803061F021
:100AD0002FEF3FE021C02B853C8522952F7032956A
:100AE00023273F70232718C09801A301BF01C80125
:100AF00052016D0178010E94401A912D812D22959D
:100B00002F70329523273F702327429534274F704B
:100B10004327342F282B392B9FEF4FEF5FEF81E0D6
:100B20006C817D816F3F79076B857C8564077507D4
:100B300009F0812D81709E81903011F4B90104C0BB
:100B40006FEF7FE0621B730B60960FB6F894DEBF09
:100B50000FBECDBFDF91CF911F910F91FF90EF900E
:100B6000DF90CF90BF90AF909F908F907F906F90CD
:100B70005F904F903F902F90089580E291E069E15F
:100B800070E00E94DC192F923F924F925F926F9219
:100B90007F928F929F92AF92BF92CF92DF92EF920D
:100BA000FF920F931F93CF93DF93CDB7DEB72897B4
:100BB0000FB6F894DEBF0FBECDBF6115710509F405
:100BC00068C01C01FB01EF2FFF277E3FF105CF011D
:100BD00010F08EEF90E0880F991F880F991F8459AD
:100BE0009F4F9B01322F22275901EE0FFF1FEE0F5F
:100BF000FF1FE859FF4F40307C836B8324E0DE0108
:100C000009F44EC0159634E045914D933150E1F70B
:100C10008F8098846D807E80DE011596FC01859121
:100C20008D932150E1F7A1E04D815E818F81988500
:100C3000461557058805990508F0A12DA170FA0100
:100C4000E619F709BC01680979099301241B350BE2
:100C5000A401480B590BA03009F49F015A2EA03073
:100C600009F4AB0100E010E0B801C80168017801A7
:100C70000E941319852D803009F45CC0215030404A
:100C80004F4F5F4F6F4F7F4F641A750A860A970A5E
:100C900055C0929582958F7089279F7089277AC158
:100CA000159634E045914D933150E1F74F815885C9
:100CB0008D809E80DE011596FC0185918D932150DB
:100CC000E1F7DA0111E04D815E818F819885481549
:100CD00059058A079B0708F0112D1170FA01E819D0
:100CE000F909BC016A0B7B0B9401241B350BAD0188
:100CF000480B590B103009F49F013D01512E103063
:100D000009F4AB0100E010E0B801C8016801780106
:100D10000E941319852D803009F4A2C02150304063
:100D20004F4F5F4F6F4F7F4F841A950AF301E60BC9
:100D3000F70B9BC0640E751E861E971E81E0611422
:100D400071048006910609F4812D8170803009F4C8
:100D50003AC161E070E09801A8012B01C80153017C
:100D6000640178010E94401AF801E21BF30BD201E2
:100D7000A40BB50B9101A801B801C8015F016D0179
:100D80000E9413199201041B150BD901A60BB70B76
:100D900081E001151105A207B30708F4812D8170C8
:100DA0008030C9F481E0411551056207730709F4E9
:100DB000812D8170803009F406C161E070E020E08F
:100DC00030E0A901C90158016D01790189010E9432
:100DD000401A8901DA01A115B10509F057C0C8010F
:100DE00096958795802B912B9C0136952795369566
:100DF0002795282B392BA901529542954F704527ED
:100E00005F704527422B532BCA01892F9927842BCA
:100E1000952B809590959C01369527952575357570
:100E2000821B930B9C01237333739695879596953C
:100E3000879583739373820F931F9C01329522953C
:100E40002F7023273F702327280F391F2F703F70E3
:100E5000C901892F9927820F931F9070409655C022
:100E6000840E951EF301E61FF71F31979101A8012B
:100E7000B801C80154016F0178010E9413198A0159
:100E8000DB011196A115B10509F4A9CFCD01969505
:100E900087958A2B9B2B9C01369527953695279510
:100EA000282B392BA901529542954F7045275F7029
:100EB0004527422B532BCA01892F9927842B952B29
:100EC000809590959C013695279525753575821BE3
:100ED000930B9C012373337396958795969587950D
:100EE00083739373820F931F9C01329522952F7009
:100EF00023273F702327280F391F2F703F70C90108
:100F0000892F9927820F931F907020E030E0482F9F
:100F10004F71403039F0000F111FAA1FBB1F4A95B7
:100F20004030C9F7AA0FBB1FF12DFF1FAA0FBB1F2F
:100F3000FF1FEB2FEE7FF170E859FB4F42E0DE011F
:100F4000159655915D934150E1F76FE070E0681B95
:100F5000790B032F0295B02FB07FA22FA295BA274D
:100F6000A07FBA27EB81FC81F295AF27F07FAF27F6
:100F7000E295FE27E07FFE270F70112D812C912C2A
:100F80004D815E81C9015F016D01780184010E947C
:100F9000401AC90128960FB6F894DEBF0FBECDBF28
:100FA000DF91CF911F910F91FF90EF90DF90CF9045
:100FB000BF90AF909F908F907F906F905F904F9079
:100FC0003F902F90089580E291E069E170E00E94E7
:100FD000DC192F923F924F925F926F927F928F9285
:100FE0009F92AF92BF92CF92DF92EF92FF920F93B8
:100FF0001F93CF93DF93CDB7DEB72A970FB6F89440
:10100000DEBF0FBECDBF21E0209386015998519AD3
:1010100022E230E03093C5002093C40022E0209308
:10102000C00028E12093C10026E02093C200209157
:10103000C00020722030D9F32091C00020722030EF
:10104000D9F32DE02093C6002091C00020722030FB
:10105000D9F32AE02093C6002091C00020722030EE
:10106000D9F32DE02093C6002091C00020722030DB
:10107000D9F32AE02093C600FC0186819781FC0108
:10108000E680F780C480D58082819381A081B18180
:101090002091C00020722030D9F320E52093C600B3
:1010A0002091C00020722030D9F321E62093C600A1
:1010B0002091C00020722030D9F32EE62093C60084
:1010C0002091C00020722030D9F329E62093C60079
:1010D0002091C00020722030D9F323E62093C6006F
:1010E0002091C00020722030D9F320E22093C60066
:1010F0002091C00020722030D9F32FE62093C60043
:101100002091C00020722030D9F323E62093C6003E
:101110002091C00020722030D9F323E62093C6002E
:101120002091C00020722030D9F325E72093C6001B
:101130002091C00020722030D9F322E72093C6000E
:101140002091C00020722030D9F322E72093C600FE
:101150002091C00020722030D9F325E62093C600EC
:101160002091C00020722030D9F324E62093C600DD
:101170002091C00020722030D9F320E22093C600D5
:101180002091C00020722030D9F329E62093C600B8
:101190002091C00020722030D9F32EE62093C600A3
:1011A0002091C00020722030D9F320E22093C600A5
:1011B0002091C00020722030D9F326E62093C6008B
:1011C0002091C00020722030D9F329E62093C60078
:1011D0002091C00020722030D9F32CE62093C60065
:1011E0002091C00020722030D9F325E62093C6005C
:1011F0002091C00020722030D9F320E22093C60055
:101200002091C00020722030D9F327E22093C6003D
:101210008115910571F08A0F9B1F2C913091C000B0
:1012200030723030D9F32093C6001196A817B90751
:10123000A1F78091C00080728030D9F387E280935B
:10124000C6008091C00080728030D9F380E2809324
:10125000C6008091C00080728030D9F381E680930F
:10126000C6008091C00080728030D9F384E78093FB
:10127000C6008091C00080728030D9F380E28093F4
:10128000C6008091C00080728030D9F38CE68093D4
:10129000C6008091C00080728030D9F389E68093C7
:1012A000C6008091C00080728030D9F38EE68093B2
:1012B000C6008091C00080728030D9F385E68093AB
:1012C000C6008091C00080728030D9F380E28093A4
:1012D000C60081E091E098878F839E838D839C83F5
:1012E0008B839A8389832AE030E000E010E0B60126
:1012F000C701A8010E94111A60636A87960181E004
:1013000089872A303105E006F10608F0812D8170C9
:10131000803011F40C94AB0C89E090E04C01CE01CC
:101320000196F401DC01AE0FBF1F2C913091C0007B
:1013300030723030D9F32093C6003196EA30F1058F
:1013400089F78091C00080728030D9F38AE0809361
:10135000C6002D98259A87EF9FE32BE73AE14BE7EC
:1013600054E04FC0FA013197F1F72D98FC01319705
:10137000F1F7FC013197F1F7FC013197F1F7FC012E
:101380003197F1F7FC013197F1F7FC013197F1F753
:10139000FC013197F1F7FC013197F1F7FC0131972E
:1013A000F1F7FC013197F1F7FC013197F1F7FC01FE
:1013B0003197F1F7FC013197F1F7FC013197F1F723
:1013C000FC013197F1F7FC013197F1F7FC013197FE
:1013D000F1F7FC013197F1F7FC013197F1F7FC01CE
:1013E0003197F1F7FC013197F1F7FC013197F1F7F3
:1013F000FC013197F1F7FC013197F1F7F9013197D1
:10140000F1F72D9AFC013197F1F7FC013197F1F7D3
:10141000FC013197F1F7FC013197F1F7FC013197AD
:10142000F1F7FC013197F1F7FC013197F1F7FC017D
:101430003197F1F7FC013197F1F7FC013197F1F7A2
:10144000FC013197F1F7FC013197F1F7FC0131977D
:10145000F1F7FC013197F1F7FC013197F1F7FC014D
:101460003197F1F7FC013197F1F7FC013197F1F772
:10147000FC013197F1F7FC013197F1F7FC0131974D
:10148000F1F7FC013197F1F7FC013197F1F7FC011D
:101490003197F1F7F9013197F1F72D98FC01319768
:1014A000F1F7FC013197F1F7FC013197F1F7FC01FD
:1014B0003197F1F7FC013197F1F7FC013197F1F722
:1014C000FC013197F1F7FC013197F1F7FC013197FD
:1014D000F1F7FC013197F1F7FC013197F1F7FC01CD
:1014E0003197F1F7FC013197F1F7FC013197F1F7F2
:1014F000FC013197F1F7FC013197F1F7FC013197CD
:10150000F1F7FC013197F1F7FC013197F1F7FC019C
:101510003197F1F7FC013197F1F7FC013197F1F7C1
:10152000FC013197F1F7FC013197F1F7F90131979F
:10153000F1F72D9AFC013197F1F7FC013197F1F7A2
:10154000FC013197F1F7FC013197F1F7FC0131977C
:10155000F1F7FC013197F1F7FC013197F1F7FC014C
:101560003197F1F7FC013197F1F7FC013197F1F771
:10157000FC013197F1F7FC013197F1F7FC0131974C
:10158000F1F7FC013197F1F7FC013197F1F7FC011C
:101590003197F1F7FC013197F1F7FC013197F1F741
:1015A000FC013197F1F7FC013197F1F7FC0131971C
:1015B000F1F7FC013197F1F7FC013197F1F7FC01EC
:1015C0003197F1F7F9013197F1F72D98FC01319737
:1015D000F1F7FC013197F1F7FC013197F1F7FC01CC
:1015E0003197F1F7FC013197F1F7FC013197F1F7F1
:1015F000FC013197F1F7FC013197F1F7FC013197CC
:10160000F1F7FC013197F1F7FC013197F1F7FC019B
:101610003197F1F7FC013197F1F7FC013197F1F7C0
:10162000FC013197F1F7FC013197F1F7FC0131979B
:10163000F1F7FC013197F1F7FC013197F1F7FC016B
:101640003197F1F7FC013197F1F7FC013197F1F790
:10165000FC013197F1F7FC013197F1F7F90131976E
:10166000F1F72D9AFC013197F1F7FC013197F1F771
:10167000FC013197F1F7FC013197F1F7FC0131974B
:10168000F1F7FC013197F1F7FC013197F1F7FC011B
:101690003197F1F7FC013197F1F7FC013197F1F740
:1016A000FC013197F1F7FC013197F1F7FC0131971B
:1016B000F1F7FC013197F1F7FC013197F1F7FC01EB
:1016C0003197F1F7FC013197F1F7FC013197F1F710
:1016D000FC013197F1F7FC013197F1F7FC013197EB
:1016E000F1F7FC013197F1F7FC013197F1F7FC01BB
:1016F0003197F1F7F9013197F1F72D98FC01319706
:10170000F1F7FC013197F1F7FC013197F1F7FC019A
:101710003197F1F7FC013197F1F7FC013197F1F7BF
:10172000FC013197F1F7FC013197F1F7FC0131979A
:10173000F1F7FC013197F1F7FC013197F1F7FC016A
:101740003197F1F7FC013197F1F7FC013197F1F78F
:10175000FC013197F1F7FC013197F1F7FC0131976A
:10176000F1F7FC013197F1F7FC013197F1F7FC013A
:101770003197F1F7FC013197F1F7FC013197F1F75F
:10178000FC013197F1F7FC013197F1F7F90131973D
:10179000F1F72D9AB801F80107C0A1706F5F7F4F74
:1017A000EF4FFF4FA03059F0DC011197F1F7A1E0A6
:1017B00069377105E007F10780F3A12DEECFFA013B
:1017C0003197F1F72D98FC013197F1F7FC01319732
:1017D000F1F7FC013197F1F7FC013197F1F7FC01CA
:1017E0003197F1F7FC013197F1F7FC013197F1F7EF
:1017F000FC013197F1F7FC013197F1F7FC013197CA
:10180000F1F7FC013197F1F7FC013197F1F7FC0199
:101810003197F1F7FC013197F1F7FC013197F1F7BE
:10182000FC013197F1F7FC013197F1F7FC01319799
:10183000F1F7FC013197F1F7FC013197F1F7FC0169
:101840003197F1F7FC013197F1F7FC013197F1F78E
:10185000FC013197F1F7F9013197F1F72D9AB801B1
:10186000F80107C0A1706F5F7F4FEF4FFF4FA030AF
:1018700059F0DC011197F1F7A1E069377105E00734
:10188000F10780F3A12DEECFFA013197F1F72D98F2
:10189000FC013197F1F7FC013197F1F7FC01319729
:1018A000F1F7FC013197F1F7FC013197F1F7FC01F9
:1018B0003197F1F7FC013197F1F7FC013197F1F71E
:1018C000FC013197F1F7FC013197F1F7FC013197F9
:1018D000F1F7FC013197F1F7FC013197F1F7FC01C9
:1018E0003197F1F7FC013197F1F7FC013197F1F7EE
:1018F000FC013197F1F7FC013197F1F7FC013197C9
:10190000F1F7FC013197F1F7FC013197F1F7FC0198
:101910003197F1F7FC013197F1F7FC013197F1F7BD
:10192000F9013197F1F72D9AB801F80109C0A170BA
:101930006F5F7F4FEF4FFF4FA03011F40C94B2094F
:10194000DC011197F1F7A1E069377105E007F107B4
:1019500070F3A12DECCF89E090E04C01CE0101960F
:101960001C0107C0817080309601750111F00C9444
:101970008F092901B201C7012AE030E03901A8012D
:101980000E94111A69015A01B601C5019301A8010B
:101990000E94111A6063C4010197D1014C01A80F84
:1019A000B91F6C9381E0920124363105E006F106FF
:1019B00008F4D8CF812DD6CF0F920FB60F922F9368
:1019C0003F938F939F938091720190917301209127
:1019D000740130917501805F9F4F2F4F3F4F90935F
:1019E00073018093720130937501209374019F916C
:1019F0008F913F912F910F900FBE0F9018950F92DE
:101A00000FB60F928F9381E0809385018F910F9095
:101A10000FBE0F9018950F920FB60F921F921124C0
:101A20008F9381E08093860180918401813019F445
:101A3000109284012A9A8F911F900F900FBE0F90E1
:101A400018950F920FB60F922F933F938F939F93FA
:101A5000AF93BF93EF93FF9381E0809386018091D2
:101A6000780090917900209183013327220F331F52
:101A700029583E4FF9019183808380918301982FEB
:101A800093959370909383018E5F8370A82FBB27EB
:101A9000A158BE4F8C9190917C00907F982B909391
:101AA0007C00FF91EF91BF91AF919F918F913F91FA
:101AB0002F910F900FBE0F9018950E945F0D2F92DF
:101AC0003F924F925F927F928F929F92AF92BF927E
:101AD000CF92DF92EF92FF920F931F93CF93DF93FA
:101AE000CDB7DEB76C970FB6F894DEBF0FBECDBF93
:101AF0009FB7F89480918601803011F00C940C19F6
:101B000081E0809386019FBF53985B9A92E09DBBD2
:101B100098E09093690097E890937A0090E490930E
:101B20007C0090917E00906190937E003C98449858
:101B300090917E00906290937E003D9845985298D7
:101B40005A9A3A98429A3998419A2D98259A2B9800
:101B5000239A24982C9A2A98229A90E59CBD8DBDB0
:101B6000789480917C00807F846080937C00809159
:101B70007A00806480937A0080917A00807480304B
:101B8000D9F7809178009091790020917C00207F96
:101B9000256020937C0020917A00206420937A00B5
:101BA00020917A0020742030D9F72091780030916C
:101BB000790040917C00407F466040937C004091DA
:101BC0007A00406440937A0040917A00407440303B
:101BD000D9F7409178005091790060917C00607F46
:101BE000676060937C0060917A00606460937A0023
:101BF00060917A0060746030D9F7609178007091DC
:101C00007900E6E0F7E0F0938201E0938101E4E0FF
:101C1000F5E0F0938001E0937F0170937E01609383
:101C20007D0150937C0140937B0130937A01209396
:101C3000790190937801809377011092830181E07C
:101C4000809376018093860194E490937C001092B7
:101C50007B009FEE90937A0090917C00907F95603E
:101C600090937C005C98549A5D98559A5E98569A29
:101C70005F98579A2098289A96B146B13A98429818
:101C80003998419822E024BD3AEF37BD35E035BDA3
:101C900020936E0016BC809386011C8EE0E0F0E07D
:101CA000FB8FEA8FF98FE88FFF8BEE8BFD8BEC8B30
:101CB0008BB18F7080618BB92093B00084E08093EA
:101CC000B10088E78093B300209370002A9880EADF
:101CD0008EBD947083E0903009F082E04270482716
:101CE000CE0147969A8389838DB58823EAF74B8383
:101CF0008EB51EBC8DB58823EAF78EB52A9A299831
:101D0000219A80ED97E099878887FD87EC87FB878C
:101D1000EA87112D812D8B8BF12C812D8D83F98BF1
:101D2000E88BFF87EE87FF83EE83812D8A8B23C0AC
:101D3000A82FB82FBB0FBB0BA359BE4F9C9181E0BE
:101D400080938601892F82958F709F709295907FE6
:101D5000982B892F8373880F880F96959695937388
:101D6000982B892F8575880F96959575982B8BB133
:101D70008F70892B8BB9512EFC822AC091E081E0B3
:101D80008D83909386018D89A82FBB27A359BE4FC1
:101D90008C91982F92959F708F708295807F892B60
:101DA000982F9373990F990F869586958373892B36
:101DB000982F9575990F86958575892B9BB19F7086
:101DC000982B9BB9512E80918401803009F464C115
:101DD0008FB7F894C0907D01D0907E01E0907B0198
:101DE000F0907C01A0907901B0907A018090770109
:101DF000909078018FBF96B5009174011091750194
:101E0000209072013090730186B59817982FA0F733
:101E100091E02B89203031E009F4312D23B121707C
:101E2000422E203009F0912D39273170732E282F42
:101E30003327220F331F9E2F991F220F331F991F05
:101E4000832F722F612D20E83EE3AF010E94111A0B
:101E5000220D331D401F511F872D803041F011E0AE
:101E600041264B8A3D872C875B874A8739C0852D61
:101E7000803009F434C0C9016C857D85861B970BC1
:101E8000BA01EA85FB856E0B7F0B11E0813291056B
:101E9000E0E0F0E06E077F0781E008F0812D8170BF
:101EA000803009F01FC08B89813009F043C06D89F3
:101EB000862F9927623091050CF091C0811591050C
:101EC00009F09DC0FA8FE98FF88FEF8BFC8FEB8FB5
:101ED0001E8A80E091E09D8B8C8B84E0A7C0112D41
:101EE000E0E0F0E08A898170803009F06BCF81E01A
:101EF00068857985621773076E817F81640775072E
:101F000008F0812D8170803009F445C08D899E894B
:101F100082304CF4A92FB92FBB0FBB0B803099F442
:101F2000AC59BE4F19C0823089F48CE09030A9F0D2
:101F300083E013C0812D8B8B112D8A8981708030B5
:101F400009F040CFD4CFA759BE4F06C0A92FB92F53
:101F5000BB0FBB0BA359BE4F8C9161E091E09A8BF4
:101F600060938601982F92959F708F708295807FE5
:101F7000892B982F9373990F990F86958695837364
:101F8000892B982F9575990F86958575892B9BB10F
:101F90009F70982B9BB981E06889798962177307D4
:101FA0006E857F856407750708F0812D817080300C
:101FB00009F408CF2C593F4F398B288B4F4F5F4F77
:101FC0005F874E878D818170803009F4D7CE81E0A4
:101FD000809386019BB19F70812D8D83F2CE8230DC
:101FE0009105D1F4FA8FE98FF88FEF8BFC8FEB8F8F
:101FF0001E8A80E093E09D8B8C8B81E017C0FA8F66
:10200000E98FF88FEF8BFC8FEB8F1E8A80E092E0D8
:102010009D8B8C8B82E00AC01C8EFB8FEA8FF98F20
:10202000E88FFF8BEE8BFD8BEC8B88E061E091E01D
:102030009D83609386018295982F907F8F70892B66
:10204000982F9373990F990F869586958373892B93
:10205000982F9575990F86958575892B9BB19F70E3
:10206000982B9BB9C9018C599F4F998B888BCA01BA
:102070008F4F9F4F9F878E87C9018053984F9987B5
:102080008887CA018F4F9F4F9F838E83812D8A8BB4
:10209000112D81E08B8B2BCF29B19FB7F8948091C4
:1020A0008501109285019FBF122F147051E092E0BC
:1020B000103009F091E00C810170003039F4229564
:1020C000207F220F220F220B2370922F212F269583
:1020D0002695322E4D89242F3327423031050CF0BE
:1020E0004FC02115310509F075C06B8D7C8D803096
:1020F000152D29F08E898670823009F4F4C0892F5D
:102100008250823008F0ECC08E89682F77278230A9
:1021100071050CF4CDC16230710509F43DC3633023
:1021200081ED93E0710509F050C38E199F09012DCF
:1021300021E0823D33E0930708F4202F20309F01F7
:10214000F32C09F49C019E2F9295907F3295932752
:10215000307F932722953227207F3227832F722FBB
:10216000612D21ED33E0AF010E94111AB9016F3FDB
:102170008FE0780708F43EC28FEF9FE0BC013AC2BF
:102180002230310509F058C0803009F058C08E89DE
:10219000803009F443C189819A81B701A60121E009
:1021A0000E94530381708030E0E0F0E0F32C51E0B6
:1021B00009F4EBC2003009F4E7C2103009F0E4C2C0
:1021C0008FEF9FEF9A8F898F988F8F8BBF01012D93
:1021D000152D8FC7AB8DBC8D9230152D0CF03DC0E9
:1021E00021ED33E0903009F09FC02A193B0901E04E
:1021F000223D83E0380781E0F32C08F4812D803004
:1022000009F4F9019F0132952295307F3227207F12
:102210003227220F331F220F331F220F331FE93EB5
:10222000F00708F464C12050344FB901E93EF007CB
:1022300041E008F064C164C1803009F42CC0FA8F19
:10224000E98FF88FEF8B8E891E8A01E0803009F4C8
:10225000012DBF01F32C152D4CC7923009F08CC015
:102260008E89682F7727823071050CF0C6C1611501
:102270007105012DF32C09F43CC7012D89819A8148
:10228000B401A501202F0E9453038170803009F40E
:10229000B1C182E0ADC12E89822F992722309105EC
:1022A0000CF096C08115910509F03DC181ED93E0D8
:1022B0008819990921E0823D33E09307F32C08F057
:1022C0004CC1212D20308F0109F44BC1011582E052
:1022D000180708F04CC1169507951695079578C311
:1022E000903009F0ACC081ED93E08819990921E0A4
:1022F0002E8B823D33E0930708F4212D20308F018F
:1023000009F48C01F12C7295707F62957627607FBD
:102310007627011582E0180708F077C06B01169543
:10232000079516950795BAC12C193D0983E08E8B48
:1023300001E0223D380781E0F32C08F4812D803044
:1023400009F4F9019F0132952295307F3227207FD1
:102350003227220F331F220F331F220F331FE93E74
:10236000F00708F40CC12050344FB901E93EF007E2
:1023700041E008F00CC10CC1803083E009F41CC1BD
:1023800021ED33E02A193B0901E0223D380781E0C5
:1023900008F4812D8030F32C09F4F9019F01329566
:1023A0002295307F3227207F3227220F331F220FC2
:1023B000331F220F331FE93EF00708F455C22050A7
:1023C000344FB901E93EF00741E008F055C255C26B
:1023D0008230910509F02DC181ED93E08E199F099E
:1023E00021E0823D33E0930708F4212D20308F0156
:1023F00009F48C01011582E01807F32C08F051C292
:102400001695079516950795BDC3011593E06B01C9
:10241000190708F034C10058114040C1012D8981CD
:102420009A81B401A501202F0E945303817080304E
:1024300011F001E00E8BE0E0F0E0F32C58C684E0F0
:102440008E8B8FEF9FE0861B970B9295907F8295E6
:102450009827807F9827F12CE12C5C019A8F898F37
:10246000F88EEF8A81ED93E08C199D0921E0823D81
:1024700033E0930768F4212D20308F0161F00115BE
:1024800082E0180768F416950795169507952CC2F3
:1024900020308F01A1F78C01011582E0180798F315
:1024A000011593E0190708F010C2005811401CC232
:1024B00061157105012DF32C09F41BC681ED93E024
:1024C0008819990921E0823D33E0930708F095C10E
:1024D000212D20308F0109F494C1011582E01807E5
:1024E00008F095C11695079516950795C6C360E047
:1024F00074EF621B730BE93EF00741E008F0412DD9
:10250000CD0192958295907F9827807F98276D01C5
:102510000E94C305B6019A8F898FE0E0F0E0F88F42
:10252000EF8B0E8BE5C581ED93E08A199B0921E0C5
:10253000823D33E09307F32C08F069C0212D203051
:102540008F0109F468C0011582E0180708F069C01E
:102550001695079516950795A4C220308F0109F0AE
:10256000B5CE8C01011582E0180708F4B4CE011530
:1025700093E0190708F01DC20058114029C260E01D
:1025800074EF621B730BE93EF00741E008F0412D48
:10259000CD018095909592958295907F9827807F28
:1025A00098276D010E94C305B6019A8F898FE0E0DC
:1025B000F0E0F88FEF8B9CC58E89682F77278230EB
:1025C0007105DCF461157105012DF32C09F491C539
:1025D000012D89819A81B401A501202F0E94530306
:1025E0008170803039F09C8982E0903009F083E07E
:1025F0008E8B01E0E0E0F0E07BC56230710509F010
:10260000B6C08FEF9FE0BC01012DF32C72C52030C6
:102610008F0109F098CF8C01011582E0180708F4AA
:1026200097CF011593E0190708F02CC2005811400C
:1026300038C281ED93E08C199D0921E0823D33E0A1
:10264000930740F4212D2030BF01F32C39F00030E6
:1026500049F42FC12030BF01F32CC9F7BC01003071
:1026600009F427C1103009F024C1611582E0780710
:1026700008F0ECC27695679576956795F7C41902D0
:10268000802D1124099F212D1124280F322F22275C
:10269000002D1127022B132B00581740B801CF0132
:1026A00021E631E5AF010E94011A9695879577954D
:1026B0009695879577950115110521E030E011F089
:1026C000272F382F0115110540E050E06FEF7FEF05
:1026D00011F0492F512DEF2CCB010E94111A2E0D14
:1026E0003F1D4C1D5D1D81E02E153F054C055D0510
:1026F00091E0152D08F0912D90306FEF7FEFFB01E9
:10270000F32C09F4BA019030AF01E0E0F0E009F4F5
:10271000A9014F3F9FEF59072FEF3FEF6207730764
:1027200091E009F0912D917090309F0109F49B0187
:102730003A8F298F90309F0109F49A01388F2F8B9F
:102740004F3F9FEF59072FEF3FEF6207730709F4E1
:10275000812D8170803051E011F482E08E8B629582
:102760006F70729567277F70672701E0C2C4898107
:102770009A81B701A60121E00E9453038170803045
:1027800009F011C1012D11C11E8A01E08030152D03
:1027900009F0AFC4012DADC481ED93E08A199B0906
:1027A00021E0823D33E0930708F039C0212D20302D
:1027B0008F0109F438C0011582E0180708F039C00C
:1027C0001695079516950795C7C28C199D0921E0A6
:1027D000823D33E0930708F034C0212D20308F0173
:1027E000F32C09F433C0011582E0180708F034C057
:1027F000169507951695079550C320308F0109F05F
:102800006CCE8C01011582E0180708F46BCE01151F
:1028100093E0190708F022C2005811402EC2203060
:102820008F0109F0C8CF8C01011582E0180708F468
:10283000C7CF011593E0190708F07FC20058114077
:102840008BC220308F01F32C09F0CDCF8C01011504
:1028500082E0180708F4CCCF011593E0190708F0BF
:102860000DC30058114019C360E074EF621B730B75
:10287000E93EF00741E008F0412DCD0192958295A7
:10288000907F9827807F98276D010E94C305B6012D
:102890009A8F898FE0E0F0E0F88FEF8B0E8B0C8B36
:1028A00027C4011593E0190708F05DC100581140D5
:1028B00069C1611582E0780793E008F0BFC17695A1
:1028C000679576956795152D5AC31902802D1124A9
:1028D000099F212D1124280F322F2227002D112787
:1028E000022B132B00581740B801CF0121E631E528
:1028F000AF010E94011A96958795779596958795D1
:1029000077950115110521E030E011F0272F382FC0
:102910000115110540E050E06FEF7FEF11F0492FF6
:10292000512DCB010E94111A2E0D3F1D4A1D5B1D1A
:1029300081E02E153F054A055B0591E0152D08F055
:10294000912D90306FEF7FEFFB01F32C09F4BA016A
:102950009030AF01E0E0F0E009F4A9014F3F9FEFB4
:1029600059072FEF3FEF6207730709F0812D817040
:1029700080309F0109F49B013A8F298F80309F019D
:1029800009F49A01388F2F8B803009F01E8A6295E6
:102990006F70729567277F7067278FEF9FE06827BA
:1029A000792701E0A5C31E8A01E0E0E0F0E0F32C06
:1029B0009FC31902802D1124099F212D1124280F56
:1029C000322F2227002D1127022B132B00581740DE
:1029D000B801CF0121E631E5AF010E94011A9695B9
:1029E000879577959695879577950115110521E03F
:1029F00030E011F0272F382F0115110540E050E08D
:102A00006FEF7FEF11F0492F512DCB010E94111A6A
:102A10008F89988D698D7A8D280F391F461F571F12
:102A200001E0281739074607570781E0152D08F000
:102A3000812D80306FEF7FEFFB0109F4BA01803008
:102A4000CF01E0E0F0E009F4C9018F3F2FEF9207DA
:102A50002FEF3FEF6207730709F0012D202F217040
:102A60002030AF0109F4AC01588F4F8B2030CF01DB
:102A700009F4CB019A8F898F203051E009F456C1B7
:102A800081E053C11902802D1124099F212D1124A9
:102A9000280F322F2227002D1127022B132B00582D
:102AA0001740B801CF0121E631E5AF010E94011ABC
:102AB0009695879577959695879577950115110544
:102AC00021E030E011F0272F382F0115110540E0EB
:102AD00050E06FEF7FEF11F0492F512DCB010E9495
:102AE000111A6F89788DE98DFA8D260F371F4E1FC9
:102AF0005F1F81E0261737074E075F0791E0152D0E
:102B000008F0912D9030EFEFFFEFBF0109F4BA010B
:102B10009030AF01E0E0F0E009F4A9014F3F9FEFF2
:102B200059072FEF3FEF6207730709F0812D81707E
:102B300080309F0109F49A01388F2F8B80309F01DC
:102B400009F49B013A8F298F80308FEF9FE0BC0101
:102B5000012D51E009F4CDC282E08E8B01E08FEFB0
:102B60009FE0BC01C6C21902802D1124099F212DAE
:102B70001124280F322F2227002D1127022B132B6F
:102B800000581740B801CF0121E631E5AF010E949E
:102B9000011A96958795779596958795779501155E
:102BA000110521E030E011F0272F382F0115110514
:102BB00040E050E06FEF7FEF11F0492F512DCB0136
:102BC0000E94111A8F89988D698D7A8D280F391F6F
:102BD000461F571F01E0281739074607570781E0AE
:102BE000152D08F0812D80306FEF7FEFFB0109F488
:102BF000BA018030CF01E0E0F0E009F4C9018F3F75
:102C00002FEF92072FEF3FEF6207730709F0012DB7
:102C1000202F21702030AF0109F4AC01588F4F8B69
:102C20002030CF0109F4CB019A8F898F203051E0F9
:102C300011F083E08E8B6095709578C061157907EF
:102C4000152D08F08DC16058714099C1611593E050
:102C5000790708F0FCC16058714008C21902802D44
:102C60001124099F212D1124280F322F2227002DF6
:102C70001127022B132B00581740B801CF0121E672
:102C800031E5AF010E94011A969587957795969543
:102C9000879577950115110521E030E011F0272F78
:102CA000382F0115110540E050E06FEF7FEF11F074
:102CB000492F512DCB010E94111A8F89988D698D52
:102CC0007A8D280F391F461F571F01E02817390733
:102CD0004607570781E0152D08F0812D80306FEFF2
:102CE0007FEFFB0109F4BA018030CF01E0E0F0E0B2
:102CF00009F4C9018F3F2FEF92072FEF3FEF6207D3
:102D0000730709F0012D202F21702030AF0109F445
:102D1000AC01588F4F8B2030CF0109F4CB019A8F33
:102D2000898F203051E011F082E08E8B62956F70B8
:102D3000729567277F706727DCC11902802D1124E7
:102D4000099F212D1124280F322F2227002D112712
:102D5000022B132B00581740B801CF0121E631E5B3
:102D6000AF010E94011A969587957795969587955C
:102D700077950115110521E030E011F0272F382F4C
:102D80000115110540E050E06FEF7FEF11F0492F82
:102D9000512DCB010E94111A8F89988D698D7A8DE2
:102DA000280F391F461F571FE1E0EC83281739070A
:102DB0004607570781E008F0812D80306FEF7FEFE5
:102DC0008B0109F48A018030CB0140E050E009F426
:102DD000C9018F3F2FEF92070607170711F0212D2A
:102DE0002C832C8121702030BA0109F4BC01788F2A
:102DF0006F8B2030CA0109F4C8019A8F898F203067
:102E000011F083E08E8B81ED93E08E199F0921E014
:102E1000823D33E0930708F4212D20309A0109F414
:102E20009C01942F9295907F32959327307F932722
:102E300022953227207F3227832F722F612D21ED9B
:102E400033E00E94111A2F3F8FE0380710F02FEF68
:102E50003FE08FEF9FE07C012E253F25B80100E089
:102E600010E0C801A8010E94011AF801BC016E25FA
:102E70007F25F32C152D51E00C813BC11902802DCB
:102E80001124099F212D1124280F322F2227002DD4
:102E90001127022B132B00581740B801CF0121E650
:102EA00031E5AF010E94011A969587957795969521
:102EB000879577950115110521E030E011F0272F56
:102EC000382F0115110540E050E06FEF7FEF11F052
:102ED000492F512DCB010E94111A8F89988D698D30
:102EE0007A8D280F391F461F571F01E02817390711
:102EF0004607570781E0152D08F0812D80306FEFD0
:102F00007FEFFB0109F4BA018030CF01E0E0F0E08F
:102F100009F4C9018F3F2FEF92072FEF3FEF6207B0
:102F2000730709F0012D202F21702030AF0109F423
:102F3000AC01588F4F8B2030CF0109F4CB019A8F11
:102F4000898F203051E009F01E8A62956F7072956A
:102F500067277F7067278FEF9FE068277927C9C0B1
:102F60007902802D1124699F212D1124280F322FE1
:102F70002227602D7727622B732B60587740CF0173
:102F800021E631E56B01AF010E94011AA601969579
:102F9000879577959695879577954115510521E009
:102FA00030E011F0272F382F4115510540E050E057
:102FB0006FEF7FEF11F0492F512DCB010E94111AB5
:102FC0006F89788DE98DFA8D260F371F4E1F5F1F91
:102FD00081E0261737074E075F0791E008F0912D33
:102FE0009030EFEFFFEFBF0109F4BA019030AF016D
:102FF000E0E0F0E009F4A9014F3F9FEF59072FEF00
:103000003FEF6207730791E009F0912D91709030C6
:103010009F0109F49A01388F2F8B90309F0109F49A
:103020009B013A8F298F4F3F9FEF59072FEF3FEFBB
:103030006207730709F4812D81708030BF01012D73
:1030400051E009F056C01E8A01E0BF0152C079026A
:10305000802D1124699F212D1124280F322F222722
:10306000602D7727622B732B60587740CF0121E6C4
:1030700031E56B01AF018F010E94011AA6019695FF
:10308000879577959695879577954115510521E018
:1030900030E011F0272F382F41155105A8016FEFAF
:1030A0007FEF11F0492F512DCB018B010E94111A96
:1030B0006F89788DE98DFA8D260F371F4E1F5F1FA0
:1030C00081E0261737074E075F0708F0812D803013
:1030D000B80109F4B901788F6F8B8030C801E0E046
:1030E000F0E009F4CA019A8F898FBF01012D152DD7
:1030F00051E0F5267C8F6B8F2A9870637EBD8DB56D
:103100008823EAF78EB56EBD8DB58823EAF78EB5B4
:1031100081E0809384010170003011F40C94BB0EA7
:103120008E899D892B81223054F4203091F4923085
:103130000CF023C09030823008F440C03BC02230F5
:1031400081F492300CF021C09030803009F032C010
:1031500035C092300CF021C09030803009F02EC084
:1031600029C0292F2250223008F428C09030F1F4D1
:10317000282F2A952330F0F021C09230B9F425B1E0
:103180002D7F8030312DC1F41CC0923099F025B1D3
:103190002D7F8330312D80F014C0923009F035C07E
:1031A00025B12D7F8030312D61F406C0282F2A955E
:1031B000223020F425B12D7F32E003C025B12D7FD0
:1031C000312D232B25B92A892170203011F40C943C
:1031D000BB0E923054F4A82FB82FBB0FBB0B90300E
:1031E00081F4AC59BE4F0C949E0E923011F00C94A9
:1031F000980E9CE0803011F40C949F0E93E00C9498
:103200009F0EA759BE4F0C949E0E25B12D7F833083
:10321000312D08F0D1CFD5CF9FBF89E391E06BE28C
:1032200070E00E94DC192F923F924F925F926F9252
:103230007F928F929F92AF92BF92CF92DF92EF9246
:10324000FF920F931F93CF93DF93CDB7DEB72697EF
:103250000FB6F894DEBF0FBECDBF260145015C015D
:103260001B015C834B833901B701C8010E94011A1D
:103270008B016C01B4015E824D82C2019101A501F6
:103280000E94011A5B017C01A00EB11EEC1CFD1C0A
:1032900000E010E0B201C8019301A8010E94011AE8
:1032A0006B011C01B401C8014B805C809201A80134
:1032B0000E94011AC60ED71E281E391EC801881F7B
:1032C000991F9A838983B401C8019301A8010E94C0
:1032D000011A4B013C016D817E81C8019201A80158
:1032E0000E94011A6C0C7D1C621D731D29813A819C
:1032F000821F931F6A0D7B1D8E1D9F1D9401A301CC
:1033000026960FB6F894DEBF0FBECDBFDF91CF91EA
:103310001F910F91FF90EF90DF90CF90BF90AF90F3
:103320009F908F907F906F905F904F903F902F90E5
:103330000895CF93DF93CDB7DEB72A970FB6F894F1
:10334000DEBF0FBECDBF9A8789878CE091E09E8358
:103350008D8381E791E09C838B8380E091E0988767
:103360008F8381E090E09A838983CE0101960E9449
:10337000E90708952DE637ECFC01378726878DEEA7
:1033800095E29587848789EB9EE19387828783EB1B
:103390009EED9187808786EB9DEA9783868387E5FC
:1033A0009EE89583848385ED9BEA9383828385E9F8
:1033B00092E6918380830895CF93DF93CDB7DEB7F4
:1033C00060970FB6F894DEBF0FBECDBF20E030E0AF
:1033D0003A87298741E050E05C834B83AE01435F2D
:1033E0005F4F5A83498338872F8321E731E03E833B
:1033F0002D83788B6F879E878D87CE0101960E94E3
:103400009919DB018F939F930E94331ABF91AF915B
:10341000A29F800D911DA39F900DB29F900D11242E
:103420000895A1E21A2EAA1BBB1BFD010DC0AA1F05
:10343000BB1FEE1FFF1FA217B307E407F50720F01D
:10344000A21BB30BE40BF50B661F771F881F991F98
:103450001A9469F760957095809590959B01AC01E1
:10346000BD01CF0108950E949D1AA59F900DB49FA4
:10347000900DA49F800D911D11240895689401C0A2
:10348000E8948F929F92CF93DF930E944C1ADF9122
:10349000CF919F908F90089588249924F401E4019E
:1034A000B0E49F93AA279A158B049C04ED05FE05B2
:1034B000CF05D007A10798F4AD2FDC2FCF2FFE2F1B
:1034C000E92D982C892E982F872F762F652F542F32
:1034D000432F322F2227B85031F7BF9127C01B2E20
:1034E000BF91BB27220F331F441F551F661F771F35
:1034F000881F991F881C991CEE1FFF1FCC1FDD1F02
:10350000AA1FBB1F8A149B04EC05FD05CE05DF0531
:10351000A007B10748F08A189B08EC09FD09CE09FD
:10352000DF09A00BB10B21601A94E1F62EF494018F
:10353000AF01BE01CD01000C0895A29FB001B39F61
:10354000C001A39F700D811D1124911DB29F700DAC
:0C355000811D1124911D0895F894FFCFF7
:10355C0014010A000000000000000000B91900006E
:10356C000100BA193C72656461637465643E0000C5
:10357C00617474656D707420746F2064697669640D
:10358C0065206279207A65726F63616C6C6564206A
:10359C00604F7074696F6E3A3A756E77726170280D
:1035AC002960206F6E206120604E6F6E6560207602
:1035BC00616C75650008040201000C00030804022C
:0235CC000100FC
:00000001FF
