:100000000C9434030C9451030C9459100C94510328
:100010000C9451030C9451030C9451030C946510EF
:100020000C9451030C9451030C9451030C94510300
:100030000C9451030C9451030C9436100C945103FE
:100040000C9451030C9451030C9451030C945103E0
:100050000C9451030C947B100C9451030C94510399
:100060000C9451030C94510300000100560B010045
:100070002C1701008823010070300100EA3D0100C7
:10008000FE4B0100B05A01000A6A0100117A01001A
:10009000CE8A0100499C01008AAE01009AC101008C
:1000A00082D501004BEA010000000200AB160200FD
:1000B000572E02000F470200E0600200D57B0200CD
:1000C000FB97020061B5020014D4020023F4020081
:1000D0009D15030092380300145D03003383030071
:1000E00003AB030096D4030000000400562D040067
:1000F000AE5C04001F8E0400C0C10400AAF7040017
:10010000F72F0500C26A050028A8050045E805008C
:10011000392B06002471060028BA0600670607007E
:10012000065607002CA9070000000800AC5A08007A
:100130005CB908003D1C09007F83090053EF0900EA
:10014000ED5F0A0084D50A004F500B008AD00B00E7
:1001500073560C0049E20C0050740D00CE0C0E00DA
:100160000CAC0E0058520F000000100058B51000E3
:10017000B87211007A381200FE061300A6DE1300D2
:10018000DBBF140008AB15009EA0160014A11700D9
:10019000E5AC180092C41900A0E81A009C191C00D4
:1001A00019581D00B0A41E0000002000B16A2100F3
:1001B00070E52200F5702400FC0D26004DBD2700DF
:1001C000B67F290010562B003D412D0029422F00FB
:1001D000CB593100238933003FD135003833380003
:1001E00032B03A005F493D000000400062D5420055
:1001F000E1CA4500EAE14800F81B4C00997A4F003B
:100200006BFF52001FAC56007A825A0052845E0087
:1002100095B36200461267007EA26B006F667000A5
:1002200063607500BF927A0000008000C3AA850059
:10023000C2958B00D3C39100F037980032F59E0031
:10024000D7FEA5003F58AD00F304B500A408BD00DB
:100250002A67C5008C24CE00FD44D700DFCCE00027
:10026000C7C0EA007D25F5000000000187550B019D
:10027000842B1701A7872301E16F300165EA3D0157
:10028000ADFD4B017EB05A01E6096A0147117A01C2
:1002900054CE8A0118499C01FA89AE01BE99C10168
:1002A0008E81D501FA4AEA01000000020EAB160267
:1002B00008572E024E0F4702C1DF6002CAD47B02EC
:1002C0005BFB9702FC60B502CD13D4028E22F402D0
:1002D000A89C150330923803F3135D037C3383032A
:1002E0001C03AB03F495D403000000041B562D043B
:1002F0000FAE5C049C1E8E0483BFC10493A9F70457
:10030000B5F62F05F7C16A059A27A8051D45E8052A
:1003100051392B0661247106E627BA06F7660607EF
:1003200037065607E92BA9070000000836AC5A0823
:100330001E5CB908373D1C09057F83092653EF0968
:100340006BED5F0AEF83D50A334F500B3A8AD00B1F
:10035000A172560CC148E20CCD4F740DEFCD0C0EBE
:100360006E0CAC0ED157520F000000106D58B51036
:100370003CB872116E7A38120AFE06134CA6DE13D0
:10038000D5DABF14DD07AB15669EA0167414A1174D
:1003900042E5AC188391C419999FE81ADE9B191C99
:1003A000DD18581DA3AFA41E00000020DAB06A219A
:1003B0007970E522DDF4702414FC0D26984CBD27DD
:1003C000AAB57F29BB0F562BCD3C412DE828422FE3
:1003D00084CA593105238933333FD135BB3733388C
:1003E000BA31B03A455F493D00000040B461D542A2
:1003F000F2E0CA45BAE9E14829F81B4C30997A4F36
:10040000556BFF52751FAC569A79825AD051845E53
:100410000995B3620B461267657EA26B766F6670B4
:10042000746360758BBE927A0000008068C3AA85F1
:10043000E4C1958B74D3C39152F037986132F59E25
:10044000AAD6FEA5EA3E58AD34F304B59FA308BD75
:10045000112A67C5158C24CECBFC44D7ECDECCE04A
:10046000E8C6C0EA157D25F500007101E0024E04E2
:10047000BA0525078E08F7095D0BC30C270E8A0FF6
:10048000EB104B12AA1308156416BF171919711A2D
:10049000C81B1E1D731EC61F19216A22BA230825F8
:1004A0005626A227ED28372A802BC82C0F2E542F32
:1004B0009830DC311E335F349F35DE361B385839B7
:1004C000943ACE3B083D413E783FAF40E44119436A
:1004D0004C447F45B046E14710493F4A6C4B994C2C
:1004E000C54DEF4E195042516A529153B754DC55E5
:1004F000005724584659685A895BA85CC75DE55E79
:1005000003601F613A6255636F648865A066B767D0
:10051000CE68E469F86A0C6C206D326E446F5570D9
:1005200065717472837390749D75AA76B577C0787F
:10053000CA79D37ADB7BE37CEA7DF07EF67FFB80B1
:10054000FF81028305840785088609870988088951
:10055000068A048B018CFE8CFA8DF58EEF8FE99064
:10056000E291DB92D293CA94C095B696AB97A098CD
:100570009499879A7A9B6C9C5E9D4F9E3F9F2EA07C
:100580001EA10CA2FAA2E7A3D4A4C0A5ABA696A76D
:1005900081A86AA953AA3CAB24AC0CADF2ADD9AE8C
:1005A000BEAFA4B088B16CB250B333B415B5F7B5D3
:1005B000D9B6BAB79AB87AB959BA38BB16BCF4BC2E
:1005C000D1BDADBE8ABF65C040C11BC2F5C2CFC39D
:1005D000A8C480C558C630C707C8DEC8B4C98ACA0F
:1005E0005FCB34CC08CDDCCDAFCE82CF54D026D17A
:1005F000F7D1C8D299D369D438D507D6D6D6A4D7DF
:1006000072D83FD90CDAD9DAA5DB70DC3BDD06DE27
:10061000D0DE9ADF63E02CE1F5E1BDE285E34CE456
:1006200013E5D9E59FE665E72AE8EFE8B3E977EA5D
:100630003BEBFEEBC1EC83ED45EE06EFC8EF88F037
:1006400049F109F2C8F287F346F405F5C3F580F6DF
:100650003EF7FBF7B7F873F92FFAEAFAA5FB60FC4F
:100660001AFDD4FD8EFE47FF11241FBECFEFD8E048
:10067000DEBFCDBF12E0A0E0B1E0E0E3F3E402C0F2
:1006800005900D92AA33B107D9F722E0AAE3B2E0B0
:1006900001C01D92A035B207E1F70E94CE100C9464
:1006A00096210C9400004F925F926F927F928F92EE
:1006B0009F92AF92BF92CF92DF92EF92FF920F93F1
:1006C0001F93CF93DF93CDB7DEB721970FB6F89482
:1006D000DEBF0FBECDBF6C01603001E010E009F459
:1006E00052C08FB382708030E1F712BD01BD81E04E
:1006F0008FBB90B59F3F31F09FEF90BD94E09FBBC3
:1007000092E09FBBA1E0B0E093E02FEF34E042E045
:10071000FD0106C0562B51705030DF0109F033C087
:10072000329651E0ED3FF90761E049F07FEFAB3FD2
:10073000B90750F47F3F59F0703061F024C0612D4B
:100740007FEFAB3FB907B0F3762F7F3FA9F7FD01ED
:100750003396512DAD3FB90708F0B8C26FB3627040
:100760006030E1F71396B2BDA1BD8FBB60B56F3F9E
:1007700019F020BD3FBB4FBB61E0EE3FF90708F029
:10078000C9CF612DC7CF8FB382708030E1F712BD22
:1007900001BD81E08FBB80B58F3F91F020E030E05C
:1007A0009FB392709030E1F732BD21BD91E09FBBC5
:1007B000982F882720B5622F7727682B792B02C0C6
:1007C0006FEF7FEF8FB382708030E1F78FEF91E0B2
:1007D00092BD81BD81E08FBB80B548018F3F91F014
:1007E0009FB392709030E1F72EEF31E032BD21BD22
:1007F00091E09FBB982F882720B5022F1127082B47
:10080000192B02C00FEF1FEF8FB382708030E1F71A
:100810008DEF93E092BD81BD81E08FBB80B58F3FAE
:1008200091F09FB392709030E1F72CEF33E032BD3E
:1008300021BD91E09FBB982F882720B5E22FFF278D
:10084000E82BF92B02C0EFEFFFEF80E090E024E50A
:1008500031E0AAEAB0E04FEF5FEF2A015C013C0112
:1008600081E06F3F4FEF740791E039F00F3F1407BD
:1008700041F40617170748F418C0912D0F3F1407CD
:10088000C1F3812D0617170780F08923817080300E
:1008900061F481E00F3F140791E081F0EF3FF4072E
:1008A00089F4E017F10790F417C0C30101968A1785
:1008B0009B07F8019D01CB01C1F456C0912DEF3F7C
:1008C000F40779F3812DE017F10730F08923817067
:1008D0008030CB0109F448C0CD01019682179307FF
:1008E000B8013D01CD0109F43FC0D901C301A81BE6
:1008F000B90BB695A795A80FB91F93E0B902802D43
:100900001124A99F412D1124480F542F4427E02C76
:10091000FF24E42AF52AC7010196811544E09407D3
:1009200008F0D4C14FB342704030E1F792BD81BDB1
:1009300081E08FBB40B54F3F820109F491CFE114B4
:1009400084E0F80608F0C2C18FB382708030E1F70E
:10095000F2BCE1BC81E08FBB542F442780B5082F47
:100960001127042B152B7CCFBC0183E093013802A7
:10097000902D1124289F812D11242FEF6F3FAB0163
:10098000720709F47EC0890F982F8827202D3327FE
:10099000282B392B2901C9018B5F93402BEF8F3F07
:1009A0009207D50110F0D2011396CA010196BC013D
:1009B000672F77275C019F3F710509F088C0C3014D
:1009C0008115910589F08FB382708030E1F792BC78
:1009D00081BC81E08FBB80B58F3F31F08FEF80BD50
:1009E00084E08FBB82E08FBB7D01E1E0F0E023E09B
:1009F00031E014E002E006C0742B71707030FC012D
:100A000009F06DC0DF011296AD3FB20781E081F0C1
:100A10009FEFEB3FF20788F49F3F91F0903009F091
:100A20005EC0CD0171E0A201A417B50781F422C018
:100A3000812D9FEFEB3FF20778F3982F9F3F71F7DF
:100A4000CF010396712DA201A417B50799F0ED3FD0
:100A5000F20708F03BC14FB342704030E1F73396E4
:100A6000F2BDE1BD3FBB40B54F3F21F04FEF40BD70
:100A70001FBB0FBB41E08E3F920708F0BDCF412D59
:100A8000BBCFD6018C919FB392709030E1F792BCAE
:100A900081BC91E09FBB90B59F3F31F09FEF90BD2F
:100AA00094E09FBB92E09FBB9FB392709030E1F7C0
:100AB00022E030E032BD21BD91E09FBB90B5292FEF
:100AC00020952823203009F4BEC094E0BFC0C201A5
:100AD0008E5F93408F3F920708F036C0FDC084E0E0
:100AE00092012115380708F0F1C08FB38270803071
:100AF000E1F7C20192BD81BD81E08FBB90B59F3F00
:100B000031F09FEF90BD94E09FBB92E09FBB9301BB
:100B100025353807D70109F4D9C0C20101969C01D7
:100B20008FB382708030E1F732BD21BD81E08FBB91
:100B300080B58F3F31F08FEF80BD84E08FBB82E0C6
:100B40008FBB80E090E02C018FB382708030E1F7A2
:100B5000C201029692BD81BD81E08FBBFD0131963D
:100B600020B584E0E115F80708F0B0C08FB38270BB
:100B70008030E1F7F2BDE1BD81E08FBB80B58F3FF2
:100B800031F08FEF80BD84E08FBB82E08FBBCD0161
:100B90008E5F93403BEF8F3F930708F49DC08FB368
:100BA00082708030E1F7CD01029692BD81BD81E077
:100BB0008FBB80B5982F90959223903011F084E0F0
:100BC00003C0821729F084E220BD8FBB82E08FBB77
:100BD00084E0A115B80708F079C08FB38270803027
:100BE000E1F7B2BDA1BD81E08FBB80B5982F909594
:100BF000A5019423903011F084E003C0841731F0F4
:100C000084E2A50140BD8FBB82E08FBB8FB38270B1
:100C10008030E1F7AD01F2BDE1BD81E08FBB80B571
:100C2000982F90959623903011F084E003C086179A
:100C300029F084E260BD8FBB82E08FBBD6012C938C
:100C4000BA01C5012CC0981729F094E280BD9FBB62
:100C500082E08FBB8FB382708030E1F780E090E05C
:100C600092BD81BD81E08FBB80B5803029F010BC82
:100C700084E28FBB82E08FBB8FB382708030E1F75C
:100C800092BC81BC81E08FBB80B5803029F010BC64
:100C900084E28FBB82E08FBB80E090E0BC012196B4
:100CA0000FB6F894DEBF0FBECDBFDF91CF911F917D
:100CB0000F91FF90EF90DF90CF90BF90AF909F90FB
:100CC0008F907F906F905F904F9008958FE591E0A7
:100CD00069E270E00E947D1DCE0101960E942120F4
:100CE000FB018785908921893289F9012681378125
:100CF00063EB71E040E150E0F9010995992708950F
:100D00002F923F924F925F926F927F928F929F921B
:100D1000AF92BF92CF92DF92EF92FF920F931F9309
:100D2000CF93DF93CDB7DEB72B970FB6F894DEBF26
:100D30000FBECDBF2D836A017C0141ED53E08A01D6
:100D4000061B170B93E081E0023D190758F0803035
:100D500061F482E00115180770F416950795169551
:100D600007951FC0812D8030A1F300E010E082E0E4
:100D70000115180790F323E01202902D1124029F11
:100D8000812D11240115120750F0890F982F882703
:100D9000002D1127082B192B0058174002C00058AE
:100DA00011405A0184E001151807B80110F060E005
:100DB00074E021E631E540E050E0CA014A010E94BA
:100DC000EB2096958795779596958795779501155C
:100DD000110539F0272F382F01151105A40139F419
:100DE00008C021E030E001151105A40111F0492FE0
:100DF000512D0FEF1FEFB801C8010E94FB20F70132
:100E000060817181A281B381260F371F4A1F5B1F4A
:100E100081E0261737074A075B0791E008F045C0D5
:100E20009030280109F446C09030D801A40109F49B
:100E3000D9019FEFAF3FB9074006510691E009F095
:100E4000912D917090309A0109F49D01F701318341
:100E5000208390309A0109F49201F70133832283B1
:100E600095012C193D0913E0223D310791E008F46A
:100E7000912D9030BA0109F4B901FB01F295E29588
:100E8000F07FFE27E07FFE27EE0FFF1FEE0FFF1F14
:100E9000EE0FFF1F693E7807BC83AB837F836E83B1
:100EA00080F0E050F44F9F0110C0912D9030280148
:100EB00009F0BACF2A019030D801A40109F4B8CFC3
:100EC000B8CF20E034EF2E1B3F0BB201CA0149011D
:100ED0000E94EB20292F312DF901EE0FFF1FEE0F9D
:100EE000FF1FBF01E859FF4FDE01189654E04591FE
:100EF0004D935150E1F7A9015F6F2E3F2FEF52073D
:100F000018F0ECEFF3E002C0FB013496ED3FF1077F
:100F100008F06EC14A855B8568847984E859FF4F83
:100F200024E0DE01189635913D932150E1F7FA0156
:100F300061E0288539854A855B85261537054E078A
:100F40005F0708F4612D6170982F882760305C017D
:100F5000E1F4C301821B930BBF01640B750B00E02E
:100F600010E09C01AB01B801C801680178011F01C4
:100F70000E946520215030404F4F5F4F6F4F7F4F91
:100F8000641A750A260A370A11C0261937094E0B4A
:100F90005F0B00E010E0B801C801680178011F0193
:100FA0000E946520640E751E261E371EB4019B012B
:100FB000232F3327C901880F991F880F991FFC0120
:100FC000E859FF4F44E0DE01189655915D9341507A
:100FD000E1F73F6F2FEF7E3F320718F08CEF93E081
:100FE00001C0049623E08D3F920708F001C15A82A8
:100FF00049824A855B854884598488599F4F24E0FB
:10100000DE011896FC0185918D932150E1F7DA01FC
:1010100081E0288539854A855B85241535054A0791
:101020005B0708F4812D8170F401FE2FEE278030DC
:10103000E1F4C201821B930BBD01640B750B9C0193
:10104000AB01B801C8015F01680178014D010E9440
:101050006520D401215030404F4F5F4F6F4F7F4F7D
:10106000441A550AA60BB70B11C0241935094A0BAF
:101070005B0BB801C8015F01680178014D010E9456
:101080006520D401440E551EA61FB71F81E02E8196
:101090003F81293E3807F10108F03AC0611471041C
:1010A000E007F10709F4812D8170803009F4A6C0B2
:1010B00081E041145104A007B10709F4812DBF83D9
:1010C000AE838170803009F499C061E070E09801CE
:1010D000A8014B01C80153016F0178010E942A2128
:1010E00039011A019801A801B401C8015201CE804A
:1010F000DF800E942A212801421A530AD401A40B3E
:10110000B50B06191709820893083801F40102C0CB
:101110001197319720E030E081E041145104A2079B
:10112000B30709F4812D8170803069F081E0641487
:101130007504EA07FB0709F0812D8170803071F09A
:101140002FEF3FE025C0E981FA812E2F22952F70E5
:101150003F2F329523273F7023271CC000E010E06B
:101160009801A301BF01C80152016D0178010E94DD
:101170002A21912D812D22952F70329523273F70A2
:101180002327429534274F704327342F282B392BA0
:10119000E981FA819FEF4FEF5FEF81E06B817C8106
:1011A0006F3F7907E407F50709F0812D9D819030A5
:1011B00011F4B90104C06FEF7FE0621B730B2B9633
:1011C0000FB6F894DEBF0FBECDBFDF91CF911F9158
:1011D0000F91FF90EF90DF90CF90BF90AF909F90D6
:1011E0008F907F906F905F904F903F902F900895D9
:1011F0008AE291E065E370E00E947D1D0E94032079
:101200002F923F924F925F926F927F928F929F9216
:10121000AF92BF92CF92DF92EF92FF920F931F9304
:10122000CF93DF93CDB7DEB726970FB6F894DEBF26
:101230000FBECDBF6115710581F0FB01EF2FFF27B8
:101240009F013F6FEE0FFF1FEE0FFF1F2FEF7E3F3F
:10125000320750F00CEF13E00AC0929582958F7020
:1012600089279F708927EEC1DF0114968D01E85907
:10127000FF4F40307A83698324E0DE0109F447C0E0
:10128000139635913D932150E1F723E0F801ED3FAE
:10129000F20708F0F0C18D809E806B807C80E85959
:1012A000FF4F24E0DE01139635913D932150E1F785
:1012B000A1E02B813C814D815E81261537054805D3
:1012C000590508F4A12D1C01A170FB01FE2FEE278A
:1012D000A03009F065C0C301821B930BB401640BFD
:1012E000750B00E010E09C01AB01B801C8015F0183
:1012F000680178010E946520215030404F4F5F4FB8
:101300006F4F7F4F641A750A860A970A5AC0139660
:1013100035913D932150E1F723E0F801ED3FF207CD
:1013200008F0A9C10D811E818B809C80E859FF4F78
:1013300024E0DE01139635913D932150E1F7A1E0C1
:101340002B813C814D815E812815390518014007AC
:10135000510708F4A12D3C01A170FB01FE2FEE27DF
:10136000A03009F0C8C0C401821B930BB101640B0B
:10137000750B00E010E09C01AB01B801C8015F01F2
:10138000680178010E946520F101215030404F4FE3
:101390005F4F6F4F7F4F841A950AE60BF70BBDC066
:1013A000261937094809590900E010E0B801C801B9
:1013B0005F01680178010E946520640E751E861E1B
:1013C000971E81E06114710420E030E082069306EC
:1013D00009F4812D8170803009F453C161E070E01F
:1013E00080E090E07C019701A7012B01530164018B
:1013F00087010E942A21F701E21BF30BD201A40B03
:10140000B50B9101A701B701C7015F016D010E94F2
:1014100065205701A41AB50AD201A60BB70B81E0CB
:10142000A114B104A405B50508F4812D81708030A4
:10143000C1F481E0411551056405750509F4812D5C
:101440008170803009F41DC161E070E000E010E0BF
:101450009801A801C8016D0178010E942A21590153
:10146000DA01A115B10509F069C0C5019695879506
:101470008A299B299C013695279536952795282BF7
:10148000392BA901529542954F7045275F7045272A
:10149000422B532BCA01892F9927842B952B80959A
:1014A00090959C013695279525753575821B930B74
:1014B0009C012373337396958795969587958373CF
:1014C0009373820F931F9C01329522952F702327CF
:1014D0003F702327280F391F2F703F70C901892FB4
:1014E0009927820F931F90704096282F2F712030DC
:1014F00009F067C06DC0281939094209530900E095
:1015000010E0B801C8015F01680178010E94652000
:10151000F101840E951EE61FF71F31979301A80174
:10152000B801C80154016F0178010E9465205A0179
:10153000DB011196A115B10509F497CFCD01969560
:1015400087958A2B9B2B9C01369527953695279559
:10155000282B392BA901529542954F7045275F7072
:101560004527422B532BCA01892F9927842B952B72
:10157000809590959C013695279525753575821B2C
:10158000930B9C0123733373969587959695879556
:1015900083739373820F931F9C01329522952F7052
:1015A00023273F702327280F391F2F703F70C90151
:1015B000892F9927820F931F9070282F2F71203029
:1015C00039F0AA0CBB1CAA1FBB1F2A952030C9F7F3
:1015D000AA0FBB1FF12DFF1FAA0FBB1FFF1FEB2F71
:1015E000EE7FF170E859FB4F22E0DE011396359152
:1015F0003D932150E1F76FE070E0681B790B20E02C
:1016000030E0032F0295B02FB07FA22FA295BA270A
:10161000A07FBA27E981FA81F295AF27F07FAF2743
:10162000E295FE27E07FFE270F70112D812C912C73
:101630004B815C81C9015F016D01780184010E94C9
:101640002A21C90126960FB6F894DEBF0FBECDBF82
:10165000DF91CF911F910F91FF90EF90DF90CF908E
:10166000BF90AF909F908F907F906F905F904F90C2
:101670003F902F9008958AE291E065E370E00E9428
:101680007D1D0E9403202F923F924F925F926F9296
:101690007F928F929F92AF92BF92CF92DF92EF9202
:1016A000FF920F931F93CF93DF93CDB7DEB72A97A7
:1016B0000FB6F894DEBF0FBECDBF21E020934F02DE
:1016C0005998519A22E230E03093C5002093C4002B
:1016D00022E02093C00028E12093C10026E020935F
:1016E000C2002091C00020722030D9F32091C000A8
:1016F00020722030D9F32DE02093C6002091C00045
:1017000020722030D9F32AE02093C6002091C00037
:1017100020722030D9F32DE02093C6002091C00024
:1017200020722030D9F32AE02093C600FC01848186
:101730009581FC01E680F780C480D5808281938109
:10174000A081B1812091C00020722030D9F320E522
:101750002093C6002091C00020722030D9F321E6EA
:101760002093C6002091C00020722030D9F32EE6CD
:101770002093C6002091C00020722030D9F329E6C2
:101780002093C6002091C00020722030D9F323E6B8
:101790002093C6002091C00020722030D9F320E2AF
:1017A0002093C6002091C00020722030D9F32FE68C
:1017B0002093C6002091C00020722030D9F323E688
:1017C0002093C6002091C00020722030D9F323E678
:1017D0002093C6002091C00020722030D9F325E765
:1017E0002093C6002091C00020722030D9F322E758
:1017F0002093C6002091C00020722030D9F322E748
:101800002093C6002091C00020722030D9F325E635
:101810002093C6002091C00020722030D9F324E626
:101820002093C6002091C00020722030D9F320E21E
:101830002093C6002091C00020722030D9F329E601
:101840002093C6002091C00020722030D9F32EE6EC
:101850002093C6002091C00020722030D9F320E2EE
:101860002093C6002091C00020722030D9F326E6D4
:101870002093C6002091C00020722030D9F329E6C1
:101880002093C6002091C00020722030D9F32CE6AE
:101890002093C6002091C00020722030D9F325E6A5
:1018A0002093C6002091C00020722030D9F320E29E
:1018B0002093C6002091C00020722030D9F327E287
:1018C0002093C6008115910571F08A0F9B1F2C9102
:1018D0003091C00030723030D9F32093C600119699
:1018E000A817B907A1F78091C00080728030D9F3A2
:1018F00087E28093C6008091C00080728030D9F367
:1019000080E28093C6008091C00080728030D9F35D
:1019100081E68093C6008091C00080728030D9F348
:1019200084E78093C6008091C00080728030D9F334
:1019300080E28093C6008091C00080728030D9F32D
:101940008CE68093C6008091C00080728030D9F30D
:1019500089E68093C6008091C00080728030D9F300
:101960008EE68093C6008091C00080728030D9F3EB
:1019700085E68093C6008091C00080728030D9F3E4
:1019800080E28093C60081E091E098878F839E83F8
:101990008D839C838B839A8389832AE030E000E0E7
:1019A00010E0B601C701A8010E94FB2060636A87AE
:1019B000960181E089872A303105E006F10608F0BA
:1019C000812D8170803011F40C94051089E090E035
:1019D0004C01CE010196F401DC01AE0FBF1F2C912A
:1019E0003091C00030723030D9F32093C600319668
:1019F000EA30F10589F78091C00080728030D9F318
:101A00008AE08093C6002D98259A87EF9FE32BE705
:101A10003AE14BE754E04FC0FA013197F1F72D98C6
:101A2000FC013197F1F7FC013197F1F7FC01319797
:101A3000F1F7FC013197F1F7FC013197F1F7FC0167
:101A40003197F1F7FC013197F1F7FC013197F1F78C
:101A5000FC013197F1F7FC013197F1F7FC01319767
:101A6000F1F7FC013197F1F7FC013197F1F7FC0137
:101A70003197F1F7FC013197F1F7FC013197F1F75C
:101A8000FC013197F1F7FC013197F1F7FC01319737
:101A9000F1F7FC013197F1F7FC013197F1F7FC0107
:101AA0003197F1F7FC013197F1F7FC013197F1F72C
:101AB000F9013197F1F72D9AFC013197F1F7FC010B
:101AC0003197F1F7FC013197F1F7FC013197F1F70C
:101AD000FC013197F1F7FC013197F1F7FC013197E7
:101AE000F1F7FC013197F1F7FC013197F1F7FC01B7
:101AF0003197F1F7FC013197F1F7FC013197F1F7DC
:101B0000FC013197F1F7FC013197F1F7FC013197B6
:101B1000F1F7FC013197F1F7FC013197F1F7FC0186
:101B20003197F1F7FC013197F1F7FC013197F1F7AB
:101B3000FC013197F1F7FC013197F1F7FC01319786
:101B4000F1F7FC013197F1F7F9013197F1F72D9891
:101B5000FC013197F1F7FC013197F1F7FC01319766
:101B6000F1F7FC013197F1F7FC013197F1F7FC0136
:101B70003197F1F7FC013197F1F7FC013197F1F75B
:101B8000FC013197F1F7FC013197F1F7FC01319736
:101B9000F1F7FC013197F1F7FC013197F1F7FC0106
:101BA0003197F1F7FC013197F1F7FC013197F1F72B
:101BB000FC013197F1F7FC013197F1F7FC01319706
:101BC000F1F7FC013197F1F7FC013197F1F7FC01D6
:101BD0003197F1F7FC013197F1F7FC013197F1F7FB
:101BE000F9013197F1F72D9AFC013197F1F7FC01DA
:101BF0003197F1F7FC013197F1F7FC013197F1F7DB
:101C0000FC013197F1F7FC013197F1F7FC013197B5
:101C1000F1F7FC013197F1F7FC013197F1F7FC0185
:101C20003197F1F7FC013197F1F7FC013197F1F7AA
:101C3000FC013197F1F7FC013197F1F7FC01319785
:101C4000F1F7FC013197F1F7FC013197F1F7FC0155
:101C50003197F1F7FC013197F1F7FC013197F1F77A
:101C6000FC013197F1F7FC013197F1F7FC01319755
:101C7000F1F7FC013197F1F7F9013197F1F72D9860
:101C8000FC013197F1F7FC013197F1F7FC01319735
:101C9000F1F7FC013197F1F7FC013197F1F7FC0105
:101CA0003197F1F7FC013197F1F7FC013197F1F72A
:101CB000FC013197F1F7FC013197F1F7FC01319705
:101CC000F1F7FC013197F1F7FC013197F1F7FC01D5
:101CD0003197F1F7FC013197F1F7FC013197F1F7FA
:101CE000FC013197F1F7FC013197F1F7FC013197D5
:101CF000F1F7FC013197F1F7FC013197F1F7FC01A5
:101D00003197F1F7FC013197F1F7FC013197F1F7C9
:101D1000F9013197F1F72D9AFC013197F1F7FC01A8
:101D20003197F1F7FC013197F1F7FC013197F1F7A9
:101D3000FC013197F1F7FC013197F1F7FC01319784
:101D4000F1F7FC013197F1F7FC013197F1F7FC0154
:101D50003197F1F7FC013197F1F7FC013197F1F779
:101D6000FC013197F1F7FC013197F1F7FC01319754
:101D7000F1F7FC013197F1F7FC013197F1F7FC0124
:101D80003197F1F7FC013197F1F7FC013197F1F749
:101D9000FC013197F1F7FC013197F1F7FC01319724
:101DA000F1F7FC013197F1F7F9013197F1F72D982F
:101DB000FC013197F1F7FC013197F1F7FC01319704
:101DC000F1F7FC013197F1F7FC013197F1F7FC01D4
:101DD0003197F1F7FC013197F1F7FC013197F1F7F9
:101DE000FC013197F1F7FC013197F1F7FC013197D4
:101DF000F1F7FC013197F1F7FC013197F1F7FC01A4
:101E00003197F1F7FC013197F1F7FC013197F1F7C8
:101E1000FC013197F1F7FC013197F1F7FC013197A3
:101E2000F1F7FC013197F1F7FC013197F1F7FC0173
:101E30003197F1F7FC013197F1F7FC013197F1F798
:101E4000F9013197F1F72D9AB801F80107C0A17097
:101E50006F5F7F4FEF4FFF4FA03059F0DC011197BC
:101E6000F1F7A1E069377105E007F10780F3A12DD3
:101E7000EECFFA013197F1F72D98FC013197F1F788
:101E8000FC013197F1F7FC013197F1F7FC01319733
:101E9000F1F7FC013197F1F7FC013197F1F7FC0103
:101EA0003197F1F7FC013197F1F7FC013197F1F728
:101EB000FC013197F1F7FC013197F1F7FC01319703
:101EC000F1F7FC013197F1F7FC013197F1F7FC01D3
:101ED0003197F1F7FC013197F1F7FC013197F1F7F8
:101EE000FC013197F1F7FC013197F1F7FC013197D3
:101EF000F1F7FC013197F1F7FC013197F1F7FC01A3
:101F00003197F1F7FC013197F1F7F9013197F1F7CA
:101F10002D9AB801F80107C0A1706F5F7F4FEF4F96
:101F2000FF4FA03059F0DC011197F1F7A1E06937BC
:101F30007105E007F10780F3A12DEECFFA0131978B
:101F4000F1F72D98FC013197F1F7FC013197F1F78A
:101F5000FC013197F1F7FC013197F1F7FC01319762
:101F6000F1F7FC013197F1F7FC013197F1F7FC0132
:101F70003197F1F7FC013197F1F7FC013197F1F757
:101F8000FC013197F1F7FC013197F1F7FC01319732
:101F9000F1F7FC013197F1F7FC013197F1F7FC0102
:101FA0003197F1F7FC013197F1F7FC013197F1F727
:101FB000FC013197F1F7FC013197F1F7FC01319702
:101FC000F1F7FC013197F1F7FC013197F1F7FC01D2
:101FD0003197F1F7F9013197F1F72D9AB801F8012E
:101FE00009C0A1706F5F7F4FEF4FFF4FA03011F41A
:101FF0000C940C0DDC011197F1F7A1E06937710524
:10200000E007F10770F3A12DECCF89E090E04C01DF
:10201000CE0101961C0107C08170803096017501C8
:1020200011F00C94E90C2901B201C7012AE030E05B
:102030003901A8010E94FB2069015A01B601C501BE
:102040009301A8010E94FB206063C4010197D101A4
:102050004C01A80FB91F6C9381E092012436310521
:10206000E006F10608F4D8CF812DD6CF0F920FB637
:102070000F922F933F938F939F9380913A02909169
:102080003B0220913C0230913D02805F9F4F2F4FD9
:102090003F4F90933B0280933A0230933D0220934E
:1020A0003C029F918F913F912F910F900FBE0F9007
:1020B00018950F920FB60F928F9381E080934E0286
:1020C0008F910F900FBE0F9018950F920FB60F9231
:1020D0001F9211248F9381E080934F0280914D02D3
:1020E000813019F410924D022A9A8F911F900F900F
:1020F0000FBE0F9018950F920FB60F921F921124DA
:102100002F933F934F935F938F939F93AF93BF937F
:10211000EF93FF9381E080934F028091780090913C
:10212000790020914C023327220F331F40914B023C
:102130005527440F551F420F531F415C5D4FFA0155
:102140009183808390914B029395812D9430282F19
:1021500010F420914C0220934C02943008F4892F03
:1021600080934B0283958370A82FBB27A95BBD4F3B
:102170008C9190917C00907F982B90937C00FF91A4
:10218000EF91BF91AF919F918F915F914F913F914F
:102190002F911F900F900FBE0F9018950E94D01096
:1021A0002F923F924F925F926F927F928F929F9267
:1021B000AF92BF92CF92DF92EF92FF920F931F9355
:1021C000CF93DF93CDB7DEB7A0970FB6F894DEBFFD
:1021D0000FBECDBF9FB7F89480914F02803019F0A9
:1021E0009FBF0E945F2081E080934F029FBF539862
:1021F0005B9A92E09DBB98E09093690097E890937A
:102200007A0090E490937C0090917E00906190938E
:102210007E003C98449890917E00906290937E005E
:102220003D9845982098289A52985A9A3A98429AF6
:102230003998419A2D98259A2B98239A24982C9A6C
:102240002A98229A90E59CBD8DBD789480917C005F
:10225000807F846080937C0080917A00806480938A
:102260007A0080917A0080748030D9F7809178006C
:102270009091790020917C00207F256020937C0044
:1022800020917A00206420937A0020917A002074B3
:102290002030D9F7209178003091790040917C006E
:1022A000407F466040937C0040917A0040644093B8
:1022B0007A0040917A0040744030D9F7409178001C
:1022C0005091790060917C00607F676060937C0032
:1022D00060917A00606460937A0060917A00607423
:1022E0006030D9F76091780070917900E6E0F7E00E
:1022F000F0934A02E0934902E4E0F5E0F0934802EB
:10230000E093470270934602609345025093440263
:102310004093430230934202209341029093400243
:1023200080933F0280E090E090934C0280934B02B8
:1023300081E080933E0280934F0284E480937C008E
:10234000612D60937B008FEE80937A0080917C00FA
:10235000807F856080937C005C98549A5D98559A44
:102360005E98569A5F98579A86B1847003E08030E1
:1023700009F002E016B13A9842983998419883B131
:102380008170803009F058C061E060934F028BB1DA
:10239000806F8BB987EF9FE3FC013197F1F7FC0168
:1023A0003197F1F7FC013197F1F7FC013197F1F723
:1023B000FC013197F1F7FC013197F1F7FC013197FE
:1023C000F1F7FC013197F1F7FC013197F1F7FC01CE
:1023D0003197F1F7FC013197F1F7FC013197F1F7F3
:1023E000FC013197F1F7FC013197F1F7FC013197CE
:1023F000F1F7FC013197F1F7FC013197F1F7FC019E
:102400003197F1F7FC013197F1F7FC013197F1F7C2
:10241000FC013197F1F7FC013197F1F7FC0131979D
:10242000F1F70197F1F78BE79AE10197F1F783B1A3
:102430008170803009F0612D1F8A6170CE0147964E
:102440000E94530381E080934F028BB18F708BB950
:1024500083B18170803029F4000083B181708030B5
:10246000D9F3127082E084BD9AEF97BD95E095BDD7
:1024700080936E0016BC8F898130E0E0F0E02F0180
:1024800009F427C08230A1F0833009F035C05E8E98
:102490004D8E5C8E4B8E58A24F8E1A8E80E093E04C
:1024A000998F888FCE014B969A83898381E032C0C1
:1024B0005E8E4D8E5C8E4B8E58A24F8E1A8E80E0B3
:1024C00092E0998F888FCE014B969A83898382E020
:1024D00021C080E090E09E8F8D8F9C8F8B8F98A382
:1024E0008F8F1A8E80E091E0998F888FCE014B9666
:1024F0009A83898384E00EC018A25F8E4E8E5D8E13
:102500004C8E5B8E4A8E598E488ECE014B969A83A6
:10251000898388E001270B8391E090934F02829595
:10252000982F907F8F70892B982F9373990F990F05
:10253000869586958373892B982F9575990F869527
:102540008575892B9BB19F70982B9BB982E08093F6
:10255000B00094E09093B10098E79093B30080931B
:1025600070002A9880EA8EBD8DB58823EAF78EB573
:102570001EBC8DB58823EAF78EB52A9A43983B9AFC
:10258000CB0102969E838D8380ED97E09B878A879F
:10259000812D8C8B812D8E8B5B8A4A8A598A488A41
:1025A0001C82812D8F835F864E865D864C86598680
:1025B0004886812D8D8B28C020934F02898DA82FAE
:1025C000BB27A452BE4F8C91982F92959F708F700D
:1025D0008295807F892B982F9373990F990F8695F9
:1025E00086958373892B982F9575990F8695857598
:1025F000892B9BB19F70982B9BB932273F83809189
:102600004D02803009F454C18FB7F894C090450250
:10261000D0904602E0904302F0904402A090410224
:10262000B090420280903F02909040028FBF96B5DA
:1026300020903C0230903D0260903A0270903B0244
:1026400086B59817982FA0F703B1017011E00030FC
:1026500009F0112D9E8919271170282F3327220F79
:10266000331F942D991F220F331F991F832F722F11
:10267000612D20E83EE3A2010E94FB20260D371DBC
:10268000421D531D103051F091E081E08C8B0927E1
:102690003B8B2A8B598B488B0E8B26C0B9018A89BC
:1026A0009B89681B790BFA0188899989E80BF90BDA
:1026B00081E061327105E405F50508F4812D9C89FE
:1026C00089238170803081F08E89813049F4898D31
:1026D000823084F48030A1F4188E84E091E017C039
:1026E000812D8E8B812D8C8B8D898170803009F0AE
:1026F00086CF6DC0823041F4188E81E093E007C030
:10270000188E92E082E003C0188E88E0912D5E8ED4
:102710004D8E5C8E4B8E58A24F8E1A8E998F91E003
:1027200090934F028295982F907F8F70892B982FCE
:102730009373990F990F869586958373892B982F9C
:102740009575990F86958575892B9BB19F70982BF0
:102750009BB98D819E81811584E0980710F00C94BF
:102760005F1DC9018053984F9B878A87CA018F4F8D
:102770009F4F99878887898D9FB392709030E1F73A
:102780006D817E8172BD61BD91E09FBBB9016C59C5
:102790007F4F7F876E87BA016F4F7F4F7D876C8732
:1027A00090B5692F60956823603011F094E003C004
:1027B000981729F094E280BD9FBB82E08FBB81E037
:1027C0008F83812D8D8B812D8C8B81E08E8B81E091
:1027D0006A857B8562177307688579856407750745
:1027E00008F0812D8170803009F438C0898D9A8D70
:1027F00082304CF4A92FB92FBB0FBB0B803069F48A
:10280000A151BE4F0CC0833009F04BC0A92FB92F86
:10281000BB0FBB0BA452BE4F02C0A852BE4F8C913F
:1028200061E091E09D8B60934F02982F92959F708D
:102830008F708295807F892B982F9373990F990FB2
:10284000869586958373892B982F9575990F869514
:102850008575892B9BB19F70982B9BB981E06E8504
:102860007F85621773076C857D856407750708F09F
:10287000812D8170803009F4C2CE2C593F4F3F87A3
:102880002E874F4F5F4F5D874C873F81832F81702D
:1028900021E0803009F490CE20934F029BB19F70CD
:1028A000ABCE917083E0903009F0BACF8CE0B8CF16
:1028B00029B19FB7F89480914E0210924E029FBFAB
:1028C000022F047011E092E0003009F091E03C81A9
:1028D0003170303039F42295207F220F220F220BE5
:1028E0002370922F302E36943694298D223041E079
:1028F0000CF047C0203009F051C06F8D78A18030B6
:1029000029F08A8D8670823009F4E6C0892F8250C2
:10291000823008F0DEC08A8D82300CF4D7C182305C
:1029200009F477C3833009F0A7C381ED93E08E19D2
:102930009F09012D21E0823D33E0930708F4202F09
:102940002030920109F49C01942D9295907F32954C
:102950009327307F932722953227207F3227832F9A
:10296000722F612D21ED33E0A2010E94FB20B901FD
:102970006F3F8FE0780708F447C38FEF9FE0BC01FB
:1029800043C3223009F03AC0803009F446C05E8E5D
:102990004D8E5C8E4B8E0A8D1A8E3DC0AF8DB8A1C8
:1029A00092300CF05CC021ED33E0903009F0B5C0FE
:1029B0002A193B0901E0223D83E0380781E008F451
:1029C000812D8030F20109F4F9019F0132952295A1
:1029D000307F3227207F3227220F331F220F331FF1
:1029E000220F331FE93EF00708F48CC12050344F0A
:1029F000B901E93EF00708F08CC18CC1803009F4C0
:102A000048C05E8E4D8E5C8E4B8E8A8D1A8E01E094
:102A1000803009F4012DB2013CC78A8D803009F461
:102A2000A3C089819A81B701A60121E00E94800696
:102A30008170803009F4E7C28C8181708030E0E0E1
:102A4000F0E02F0141E009F469C3003009F066C3EA
:102A50008FEF9FEF9E8F8D8F9C8F8B8F18C792303B
:102A600009F091C08A8D82300CF0DDC1803009F40C
:102A70000EC7012D89819A81B401A501202F0E94E2
:102A800080068170803009F4BFC282E08A8F01E045
:102A9000BBC28A8D82300CF0A1C0803009F04FC1DA
:102AA00081ED93E08819990921E0823D33E0930795
:102AB00008F05EC1212D2030B20109F45DC161151D
:102AC00082E0780708F05EC1769567957695679500
:102AD000CEC3903009F0B4C081ED93E08819990914
:102AE00021E02A8F823D33E0930708F4212D203026
:102AF000A20109F4AC01F12C7295707F62957627E2
:102B0000607F7627411582E0580708F083C06B018B
:102B10005695479556954795FAC12C193D0983E07E
:102B20008A8F01E0223D380781E008F4812D803052
:102B3000F20109F4F9019F0132952295307F322785
:102B4000207F3227220F331F220F331F220F331F04
:102B5000E93EF00708F42BC12050344FB901E93E9B
:102B6000F00708F02BC12BC1012D89819A81B40196
:102B7000A501202F0E9480068170803009F444C294
:102B800001E00A8F41C2803009F42FC121ED33E00A
:102B90002A193B0901E0223D83E0380781E008F46F
:102BA000812D8030F20109F4F9019F0132952295BF
:102BB000307F3227207F3227220F331F220F331F0F
:102BC000220F331FE93EF00708F4B5C22050344FFE
:102BD000B901E93EF00708F0B5C2B5C2823009F08C
:102BE0002AC181ED93E08E199F0921E0823D33E0F7
:102BF000930708F035C1212D2030B20109F434C10A
:102C0000611582E0780708F035C17695679576956D
:102C100067958FC323E05202902D1124429F812D8E
:102C2000112441156B01520708F46FC1890F982FC9
:102C30008827402D5527482B592B4058574067C1AE
:102C400084E08A8F8FEF9FE0861B970B9295907F91
:102C500082959827807F9827F12CE12C5C019E8F2C
:102C60008D8FFC8EEB8E81ED93E08C199D0921E018
:102C7000823D33E0930768F4212D2030B20161F0EA
:102C8000611582E0780768F4769567957695679583
:102C900072C22030B201A1F7BC01611582E0780751
:102CA00098F323E07202902D1124629F812D11244C
:102CB0006115720708F45DC2890F982F8827602D6F
:102CC0007727682B792B6058774055C2803009F4FC
:102CD000DEC581ED93E08819990921E0823D33E05A
:102CE000930708F0FCC1212D2030B20109F4FBC18B
:102CF000611582E0780708F0FCC1769567957695B6
:102D0000679500C560E074EF621B730BE93EF00746
:102D100008F0412DCD0192958295907F9827807F74
:102D200098277D010E940009B7019E8F8D8FE0E0FA
:102D3000F0E02F015C8E4B8E0A8F41E0AAC581ED39
:102D400093E08A199B0921E0823D33E0930708F064
:102D5000A6C0212D2030B20109F4A5C0611582E082
:102D6000780708F0A6C0769567957695679545C370
:102D70002030B20109F0A3CEBC01611582E07807D2
:102D800008F4A2CE23E07202902D1124629F812DBF
:102D900011246115720708F468C2890F982F8827DB
:102DA000602D7727682B792B6058774060C260E0F0
:102DB00074EF621B730BE93EF00708F0412DCD0163
:102DC0008095909592958295907F9827807F9827FF
:102DD0007D010E940009B7019E8F8D8FE0E0F0E039
:102DE0002F015C8E4B8E41E054C58A8D8230DCF41D
:102DF000803009F44CC5012D89819A81B401A50167
:102E0000202F0E9480068170803009F4FDC0988DCB
:102E100083E0903041E009F482E08A8F01E0E0E055
:102E2000F0E02F0136C5823009F0E0C08FEF9FE05F
:102E3000BC01012D2EC581ED93E08C199D0921E087
:102E4000823D33E0930708F049C0212D2030B201C4
:102E500009F448C08C818170803009F049C061C19B
:102E60002030B20109F0CCCEBC01611582E07807B8
:102E700008F4CBCE23E07202902D1124629F812DA5
:102E800011246115720708F452C2890F982F882700
:102E9000602D7727682B792B605877404AC2203005
:102EA000B20109F05BCFBC01611582E0780708F43C
:102EB0005ACF23E07202902D1124629F812D11249C
:102EC0006115720708F497C2890F982F8827602D23
:102ED0007727682B792B605877408FC22030B2015A
:102EE00009F0B8CFBC018C818170803009F419C120
:102EF000003009F016C1611582E0780708F0E5C2DC
:102F0000769567957695679590C5405851404115DF
:102F100084E058075A01BA0110F060E074E0C20181
:102F200021E631E5A2010E94EB20969587957795E1
:102F3000969587957795A114B10421E030E011F0C2
:102F4000272F382FA114B10440E050E011F0492F91
:102F5000512DEF2C6FEF7FEFCB010E94FB202E0D48
:102F60003F1D4C1D5D1D81E02E153F054C055D0587
:102F700091E008F0912D90306FEF7FEF09F4BA01E6
:102F800090304FEF5FEFE0E0F0E02F0109F4A9018E
:102F90004F3F9FEF59072FEF3FEF6207730791E015
:102FA00009F0912D91709030920109F49B013E8FB0
:102FB0002D8F9030920109F49A013C8F2B8F4F3F57
:102FC0009FEF59072FEF3FEF6207730709F4812D39
:102FD0008170803041E011F482E08A8F62956F70D9
:102FE000729567277F70672701E053C489819A81B2
:102FF000B701A60121E00E9480068170803019F09F
:103000001A8E01E001C0012DE0E0F0E02F0141E067
:1030100040C481ED93E08A199B0921E0823D33E0B1
:10302000930768F4212D2030820161F0011582E0C0
:10303000180768F416950795169507955DC2203018
:103040008201A1F78C01011582E0180798F323E0B3
:103050001202902D1124029F812D112401151207B7
:1030600008F448C2890F982F8827002D1127082BB4
:10307000192B0058174040C281ED93E08C199D092F
:1030800021E0823D33E0930768F4212D2030B20126
:1030900061F0611582E0780768F47695679576951A
:1030A0006795C5C22030B201A1F7BC01611582E06D
:1030B000780798F323E07202902D1124629F812DEE
:1030C00011246115720708F4B0C2890F982F882760
:1030D000602D7727682B792B60587740A8C2203065
:1030E000B20109F005CEBC01611582E0780708F451
:1030F00004CE23E07202902D1124629F812D1124B1
:103100006115720708F4FCC2890F982F8827602D7B
:103110007727682B792B60587740F4C21A8E01E02C
:10312000B8C3611582E0780708F08AC07695679584
:10313000769567954FC360E074EF621B730BE93EB1
:10314000F00708F0412DCD0192958295907F982748
:10315000807F98277D010E940009B7019E8F8D8F87
:10316000E0E0F0E02F015C8E4B8E0A8F088F41E08B
:1031700090C360587140611584E078076B0110F0CE
:1031800060E074E0C20121E631E5A2010E94EB207B
:10319000969587957795969587957795C114D104DF
:1031A00021E030E011F0272F382FC114D10440E086
:1031B00050E011F0492F512D6FEF7FEFCB010E94AE
:1031C000FB202E0D3F1D4A1D5B1D81E02E153F0586
:1031D0004A055B0591E008F0912D90306FEF7FEF8D
:1031E00009F4BA0190304FEF5FEFE0E0F0E02F011B
:1031F00009F4A9014F3F9FEF59072FEF3FEF6207F7
:10320000730709F0812D81708030920109F49B01D0
:103210003E8F2D8F8030920109F49A013C8F2B8FC5
:10322000803009F01A8E62956F70729567277F70F3
:1032300067278FEF9FE06827792701E041E029C3E6
:1032400023E07202902D1124629F812D11246115BB
:10325000720708F4BDC2890F982F8827602D772741
:10326000682B792B60587740B5C260587140611562
:1032700084E078077B0110F060E074E0C20121E691
:1032800031E5A2010E94EB2096958795779596955A
:1032900087957795E114F10421E030E011F0272FB4
:1032A000382FE114F10440E050E011F0492F512D86
:1032B0006FEF7FEFCB010E94FB208B8D9C8D6D8D7E
:1032C0007E8D280F391F461F571F01E02817390729
:1032D0004607570781E008F0812D80306FEF7FEFC0
:1032E00009F4BA0180308FEF9FEFE0E0F0E02F01AA
:1032F00009F4C9018F3F2FEF92072FEF3FEF6207CD
:10330000730709F0012D202F21702030A20109F44C
:10331000AC015C8F4B8F2030C20109F4CB019E8F32
:103320008D8F203041E009F44CC24A8F4AC2605868
:103330007140611584E078077B0110F060E074E073
:10334000C20121E631E5A2010E94EB209695879506
:103350007795969587957795E114F10421E030E013
:1033600011F0272F382FE114F10440E050E011F064
:10337000492F512D6FEF7FEFCB010E94FB208B8DEA
:103380009C8D6D8D7E8D280F391F461F571F01E0C4
:10339000281739074607570781E008F0812D80304C
:1033A0006FEF7FEF09F4BA0180308FEF9FEFE0E01D
:1033B000F0E02F0109F4C9018F3F2FEF92072FEFA3
:1033C0003FEF6207730709F0012D202F2170203095
:1033D000A20109F4AC015C8F4B8F2030C20109F4CB
:1033E000CB019E8F8D8F203041E011F083E08A8FDA
:1033F00060957095E6C160587140611584E078076A
:103400007B0110F060E074E0C20121E631E5A20129
:103410000E94EB2096958795779596958795779559
:10342000E114F10421E030E011F0272F382FE114EE
:10343000F10440E050E011F0492F512D6FEF7FEF84
:10344000CB010E94FB206B8D7C8DED8DFE8D260FB8
:10345000371F4E1F5F1F81E0261737074E075F0794
:1034600091E008F0912D90306FEF7FEF09F4BA01F1
:1034700090304FEF5FEFE0E0F0E02F0109F4A90199
:103480004F3F9FEF59072FEF3FEF6207730709F098
:10349000812D81708030920109F49A013C8F2B8F2D
:1034A0008030920109F49B013E8F2D8F80308FEF89
:1034B0009FE0BC01012D41E009F4EBC182E08A8F5D
:1034C00001E08FEF9FE0BC01E4C123E07202902D88
:1034D0001124629F812D11246115720708F4A3C283
:1034E000890F982F8827602D7727682B792B6058B4
:1034F00077409BC200581140011584E01807B801BD
:1035000010F060E074E0C20121E631E5A2010E9402
:10351000EB209695879577959695879577950115E4
:10352000110521E030E011F0272F382F011511058A
:1035300040E050E011F0492F512D6FEF7FEFCB01AC
:103540000E94FB208B8D9C8D6D8D7E8D280F391FE9
:10355000461F571FE1E0281739074607570781E044
:1035600008F0812D80306FEF7FEF6B0109F46A0165
:1035700080308FEF9FEF40E050E009F4C9018F3FAA
:103580002FEF92072FEF3FEFC206D30609F0E12D90
:103590002E2F21702030BA0109F4BC017C8F6B8F73
:1035A0002030CA0109F4C6019E8F8D8F203011F0A2
:1035B00083E08A8F81ED93E08E199F0921E0823D9F
:1035C00033E0930708F4212D20309A0109F49C017F
:1035D000BE2E942F9295907F32959327307F93271C
:1035E00022953227207F3227832F722F612D21EDE4
:1035F00033E00E94FB202F3F8FE0380710F02FEFC1
:103600003FE08FEF9FE07C012E253F25B60100E0D3
:1036100010E02801C201A2010E94EB20BC016E252E
:103620007F2541E011E00B2D34C1605871406115D8
:1036300084E078077B0110F060E074E0C20121E6CD
:1036400031E5A2010E94EB20969587957795969596
:1036500087957795E114F10421E030E011F0272FF0
:10366000382FE114F10440E050E011F0492F512DC2
:103670006FEF7FEFCB010E94FB208B8D9C8D6D8DBA
:103680007E8D280F391F461F571F01E02817390765
:103690004607570781E008F0812D80306FEF7FEFFC
:1036A00009F4BA0180308FEF9FEFE0E0F0E02F01E6
:1036B00009F4C9018F3F2FEF92072FEF3FEF620709
:1036C000730709F0012D202F21702030A20109F489
:1036D000AC015C8F4B8F2030C20109F4CB019E8F6F
:1036E0008D8F203041E009F01A8E62956F707295CF
:1036F00067277F7067278FEF9FE068277927C9C00A
:1037000060587140611584E078077B0110F060E03B
:1037100074E0C20121E631E5A2010E94EB209695FA
:1037200087957795969587957795E114F10421E033
:1037300030E011F0272F382FE114F10440E050E081
:1037400011F0492F512D6FEF7FEFCB010E94FB202D
:103750008B8D9C8D6D8D7E8D280F391F461F571FB9
:1037600001E0281739074607570781E008F0812D47
:1037700080306FEF7FEF09F4BA0180308FEF9FEF59
:10378000E0E0F0E02F0109F4C9018F3F2FEF92072D
:103790002FEF3FEF6207730709F0012D202F2170F3
:1037A0002030A20109F4AC015C8F4B8F2030C201A4
:1037B00009F4CB019E8F8D8F203041E011F082E023
:1037C0008A8F62956F70729567277F70672761C0D7
:1037D00060587140611584E078077B0110F060E06B
:1037E00074E0C20121E631E5A2010E94EB2096952A
:1037F00087957795969587957795E114F10421E063
:1038000030E011F0272F382FE114F10440E050E0B0
:1038100011F0492F512D6FEF7FEFCB010E94FB205C
:103820006B8D7C8DED8DFE8D260F371F4E1F5F1F1C
:1038300081E0261737074E075F0791E008F0912DCA
:1038400090306FEF7FEF09F4BA0190304FEF5FEFE8
:10385000E0E0F0E02F0109F4A9014F3F9FEF590785
:103860002FEF3FEF6207730709F0812D81708030E1
:10387000920109F49A013C8F2B8F8030920109F458
:103880009B013E8F2D8F803041E009F0C8C0B2010E
:10389000012D312678A36F8F2A9870637EBD8DB578
:1038A0008823EAF78EB56EBD8DB58823EAF78EB50D
:1038B00040934D02017000303C8211F40C940413CB
:1038C0008A8D998D2B8122307CF42030E1F4923066
:1038D0000CF035C0A82FB82FBB0FBB0B903009F0F0
:1038E00044C0AD53BE4F49C02230D1F492300CF0E9
:1038F00030C0A82FB82FBB0FBB0B903009F038C0D9
:10390000AB51BE4F3AC092300CF029C0A82FB82F4F
:10391000BB0FBB0B903009F02EC0A052BE4F2DC084
:10392000292F22502230212D08F428C0903051F444
:10393000A82FB82FBB0FBB0BA651BE4F1EC0923095
:10394000282FE1F0A82FB82FBB0FBB0BAC52BE4FF6
:1039500014C021E0923091F0833080F05EC092304C
:1039600009F057C0282F242709C0A853BE4F05C00F
:10397000A053BE4F02C0A453BE4F2C91217038E01B
:10398000203009F4312D28B1277F232B28B92D8928
:10399000217020303C8211F40C94041392304CF4CA
:1039A000A82FB82FBB0FBB0B903059F4A151BE4FBD
:1039B00011C0923049F4817093E0803061F49CE052
:1039C0000AC0A852BE4F06C0A82FB82FBB0FBB0B12
:1039D000A452BE4F9C9140934F02892F82958F70C5
:1039E0009F709295907F982B892F8373880F880FF3
:1039F000969596959373982B892F8575880F969534
:103A00009575982B8BB18F70892B8BB93C820C9458
:103A1000041321E0833008F0B1CF212DAFCF1A8EEF
:103A200001E00C940B1560587140611584E0780733
:103A30007B0110F060E074E0C20121E631E5A201F3
:103A40000E94EB2096958795779596958795779523
:103A5000E114F10421E030E011F0272F382FE114B8
:103A6000F10440E050E011F0492F512D6FEF7FEF4E
:103A7000CB010E94FB206B8D7C8DED8DFE8D260F82
:103A8000371F4E1F5F1F81E0261737074E075F075E
:103A900008F0812D80306FEF7FEF09F4B9017C8F42
:103AA0006B8F80308FEF9FEFE0E0F0E02F0109F4A3
:103AB000CA019E8F8D8FB201012D41E0EACE8FE5C4
:103AC00091E069E270E00E947D1DCF93DF93CDB756
:103AD000DEB726970FB6F894DEBF0FBECDBF20E04D
:103AE00031E03E832D839C838B8381E090E09A8339
:103AF0008983CE0101960E94430BCF93DF93CDB70C
:103B0000DEB760970FB6F894DEBF0FBECDBF20E0E2
:103B100030E03A87298741E050E05C834B83FE0127
:103B20003D96FA83E98338872F835E834D83788BB4
:103B30006F879E878D87CE0101960E94651D2F920B
:103B40003F924F925F926F927F928F929F92AF922D
:103B5000BF92CF92DF92EF92FF920F931F93CF937A
:103B6000DF93CDB7DEB726970FB6F894DEBF0FBE52
:103B7000CDBF5B01F50137816481FC014281538136
:103B8000E080F180603029F4832F8170803009F467
:103B9000B9C13170303009F457C047013A01840E81
:103BA000951EF501C084D184C11480E090E0D10459
:103BB00009F420C0DC01F7010AC0329611969F017A
:103BC000201B310B820F931FAC15BD05A0F48F0194
:103BD0000815190509F42AC0F8012191322F332361
:103BE0006AF7F801203E48F3203F10F03496E6CF04
:103BF0003396E4CFF701E815F905C1F03081232FA2
:103C00002223A3010AF4303E81159105A1F0841707
:103C1000950770F4D701A80FB91F2C91203C5CF4D4
:103C200020E030E02115310551F40AC0A3010CC099
:103C300084179507A9F797012115310509F0790136
:103C40002115310509F0AC01603009F45BC1F501C3
:103C500065807680483051057E826D82C8F44115BA
:103C600080E090E0510509F433C1FC0108C033271E
:103C7000820F931F3196E417F50709F429C1D70184
:103C8000AE0FBF1F3C9121E0303C8CF7212DEFCFD0
:103C9000CA018170907081159105BC82AB8219F4C4
:103CA00080E090E00AC0DA01AE7FAE0DBF1D9C91AE
:103CB00081E0903C0CF4812D99274A019A013695B8
:103CC000279560E070E01B01670116C0B501261B57
:103CD000370B8201C40CD51CDB01A370B070FA0154
:103CE000EF2FFF27E80FF91F50704E0F5F1FA11530
:103CF000B105CA0109F0ADC02115310509F4A6C00E
:103D00002601203C3105690118F040EC50E06A01C1
:103D10005601CC0CDD1C24303105A10108F4D6CFAE
:103D2000B601687F7170D2016A0F7B1FA1013D014E
:103D3000F30100811181F801F295E295EF70EF2710
:103D4000FF70EF27F695E795F695E79500951095A6
:103D5000129502950F7001271F7001271695079580
:103D600016950795169507950E2B1F2B0170117050
:103D7000040F151FF30142815381FA01F295E29578
:103D8000EF70EF27FF70EF27F695E795F695E7952B
:103D900040955095529542954F7045275F70452745
:103DA0005695479556954795569547954E2B5F2BBB
:103DB00041705170400F511FF30104811581F801CA
:103DC000F295E295EF70EF27FF70EF27F695E795F4
:103DD000F695E79500951095129502950F700127BD
:103DE0001F70012716950795169507951695079547
:103DF0000E2B1F2B01701170040F151FF30146814C
:103E00005781FA01F295E295EF70EF27FF70EF27E7
:103E1000F695E795F695E79540955095529542951C
:103E20004F7045275F70452756954795569547959E
:103E3000569547954E2B5F2B41705170400F511F87
:103E40001896A617B70709F072CF40CFAB80BC8099
:103E50003EC06C7F7070660F771F060F171FAA0F8A
:103E6000BB1F9801A00FB11F80E090E0AB80BC8029
:103E7000F90121913191B901729562956F706727AF
:103E80007F7067277695679576956795209530952D
:103E9000329522952F7023273F702327369527953B
:103EA0003695279536952795262B372B217031701F
:103EB000820F931F9F01EA17FB0709F0D9CF9C01DE
:103EC000232F3327240F351F9070820F931FA401D7
:103ED000AD81BE818A179B07A8F4F5013285333086
:103EE000212D09F0232FA81BB90B20305A834983B9
:103EF00009F430C0213009F031C080E090E08D013C
:103F00001C0133C0F5018785908921893289F90127
:103F100026813781B701F9010995082F01701070CA
:103F2000C80126960FB6F894DEBF0FBECDBFDF9155
:103F3000CF911F910F91FF90EF90DF90CF90BF90A6
:103F4000AF909F908F907F906F905F904F903F9039
:103F50002F9008951D0100E010E007C08D01169517
:103F600007951196B695A7951D01F501C280D380DE
:103F7000A080B180618872888784908880E090E01A
:103F8000F3018017910768F42085318501962C0193
:103F9000C401A501B601F90109958030C20181F380
:103FA0000AC026813781C401B70149815A81F901CC
:103FB0000995803011F001E0B1CFA0E0B0E001E060
:103FC000C101A817B90708F0012DA817B90708F013
:103FD000A5CFF301208531851196C401A501B60155
:103FE000F9017D010995D701803049F397CFFC0194
:103FF0008081918122813381F90126813781F90104
:10400000099599270895CF93DF93CDB7DEB72C9705
:104010000FB6F894DEBF0FBECDBF80E090E09A8768
:10402000898721E030E03C832B834CE151E05A83C7
:10403000498398878F833E832D83CE0101960E940A
:10404000651DCF93DF93CDB7DEB76C970FB6F894AD
:10405000DEBF0FBECDBF2BE230E03C832B8328E8D0
:1040600031E03A8329832CE031E038872F839E8327
:104070008D8380E090E09A8B898B82E090E09C8732
:104080008B8724E131E03A872987988B8F87CE018F
:1040900045969E878D8787EF9FE19C8F8B8FCE0102
:1040A00005969A8F898F8FE99DE1988F8F8BCE012E
:1040B00001969E8B8D8BCE0109960E94651D84EF23
:1040C00091E06BE270E00E947D1D2F923F924F9233
:1040D0005F926F927F928F929F92AF92BF92CF9298
:1040E000DF92EF92FF920F931F93CF93DF93CDB7A1
:1040F000DEB726970FB6F894DEBF0FBECDBF260100
:1041000045015C011B015C834B833901B701C80188
:104110000E94EB208B016C01B4015E824D82C201D2
:104120009101A5010E94EB205B017C01A00EB11E54
:10413000EC1CFD1C00E010E0B201C8019301A801D5
:104140000E94EB206B011C01B401C8014B805C8014
:104150009201A8010E94EB20C60ED71E281E391E10
:10416000C801881F991F9A838983B401C8019301EC
:10417000A8010E94EB204B013C016D817E81C801AA
:104180009201A8010E94EB206C0C7D1C621D731D26
:1041900029813A81821F931F6A0D7B1D8E1D9F1DF1
:1041A0009401A30126960FB6F894DEBF0FBECDBFD3
:1041B000DF91CF911F910F91FF90EF90DF90CF9003
:1041C000BF90AF909F908F907F906F905F904F9037
:1041D0003F902F900895DB018F939F930E941D21A4
:1041E000BF91AF91A29F800D911DA39F900DB29F93
:1041F000900D11240895A1E21A2EAA1BBB1BFD01EC
:104200000DC0AA1FBB1FEE1FFF1FA217B307E407B5
:10421000F50720F0A21BB30BE40BF50B661F771F0D
:10422000881F991F1A9469F76095709580959095ED
:104230009B01AC01BD01CF0108950E948721A59F7C
:10424000900DB49F900DA49F800D911D1124089591
:10425000689401C0E8948F929F92CF93DF930E945D
:104260003621DF91CF919F908F90089588249924D3
:10427000F401E401B0E49F93AA279A158B049C04EF
:10428000ED05FE05CF05D007A10798F4AD2FDC2F73
:10429000CF2FFE2FE92D982C892E982F872F762F40
:1042A000652F542F432F322F2227B85031F7BF915B
:1042B00027C01B2EBF91BB27220F331F441F551F42
:1042C000661F771F881F991F881C991CEE1FFF1FF0
:1042D000CC1FDD1FAA1FBB1F8A149B04EC05FD0524
:1042E000CE05DF05A007B10748F08A189B08EC0946
:1042F000FD09CE09DF09A00BB10B21601A94E1F68C
:104300002EF49401AF01BE01CD01000C0895A29FCF
:10431000B001B39FC001A39F700D811D1124911D99
:10432000B29F700D811D1124911D0895F894FFCF47
:1043300020010A0000000000000000000000000052
:1043400001007006010000001F0202002102190096
:104350003C72656461637465643E5468652073757E
:104360006220617272617920676F6573206265797E
:104370006F6E642074686520656E64206F662074BB
:10438000686520736F75726365206172726179610F
:104390007373657274696F6E206661696C65643AE7
:1043A000206F6666736574203C2053656C663A3AEC
:1043B000434150414349545963616C6C65642060CA
:1043C000526573756C743A3A756E7772617028290C
:1043D00060206F6E20616E20604572726020766191
:1043E0006C75654F75744F66426F756E6473457278
:1043F000726F720000010101000001010100000064
:104400000001010100010100000C00030804020189
:104410000100000000000101010100010101000094
:104420000804020163616C6C656420604F707469FC
:104430006F6E3A3A756E77726170282960206F6EE0
:10444000206120604E6F6E65602076616C75653A04
:1044500020617474656D707420746F20646976696E
:0A4460006465206279207A65726FAE
:00000001FF
