:100000000C9434030C9451030C9424100C9451035D
:100010000C9451030C9451030C9451030C94301024
:100020000C9451030C9451030C9451030C94510300
:100030000C9451030C9451030C9401100C94510333
:100040000C9451030C9451030C9451030C945103E0
:100050000C9451030C9446100C9451030C945103CE
:100060000C9451030C94510300000100560B010045
:100070002C1701008823010070300100EA3D0100C7
:10008000FE4B0100B05A01000A6A0100117A01001A
:10009000CE8A0100499C01008AAE01009AC101008C
:1000A00082D501004BEA010000000200AB160200FD
:1000B000572E02000F470200E0600200D57B0200CD
:1000C000FB97020061B5020014D4020023F4020081
:1000D0009D15030092380300145D03003383030071
:1000E00003AB030096D4030000000400562D040067
:1000F000AE5C04001F8E0400C0C10400AAF7040017
:10010000F72F0500C26A050028A8050045E805008C
:10011000392B06002471060028BA0600670607007E
:10012000065607002CA9070000000800AC5A08007A
:100130005CB908003D1C09007F83090053EF0900EA
:10014000ED5F0A0084D50A004F500B008AD00B00E7
:1001500073560C0049E20C0050740D00CE0C0E00DA
:100160000CAC0E0058520F000000100058B51000E3
:10017000B87211007A381200FE061300A6DE1300D2
:10018000DBBF140008AB15009EA0160014A11700D9
:10019000E5AC180092C41900A0E81A009C191C00D4
:1001A00019581D00B0A41E0000002000B16A2100F3
:1001B00070E52200F5702400FC0D26004DBD2700DF
:1001C000B67F290010562B003D412D0029422F00FB
:1001D000CB593100238933003FD135003833380003
:1001E00032B03A005F493D000000400062D5420055
:1001F000E1CA4500EAE14800F81B4C00997A4F003B
:100200006BFF52001FAC56007A825A0052845E0087
:1002100095B36200461267007EA26B006F667000A5
:1002200063607500BF927A0000008000C3AA850059
:10023000C2958B00D3C39100F037980032F59E0031
:10024000D7FEA5003F58AD00F304B500A408BD00DB
:100250002A67C5008C24CE00FD44D700DFCCE00027
:10026000C7C0EA007D25F5000000000187550B019D
:10027000842B1701A7872301E16F300165EA3D0157
:10028000ADFD4B017EB05A01E6096A0147117A01C2
:1002900054CE8A0118499C01FA89AE01BE99C10168
:1002A0008E81D501FA4AEA01000000020EAB160267
:1002B00008572E024E0F4702C1DF6002CAD47B02EC
:1002C0005BFB9702FC60B502CD13D4028E22F402D0
:1002D000A89C150330923803F3135D037C3383032A
:1002E0001C03AB03F495D403000000041B562D043B
:1002F0000FAE5C049C1E8E0483BFC10493A9F70457
:10030000B5F62F05F7C16A059A27A8051D45E8052A
:1003100051392B0661247106E627BA06F7660607EF
:1003200037065607E92BA9070000000836AC5A0823
:100330001E5CB908373D1C09057F83092653EF0968
:100340006BED5F0AEF83D50A334F500B3A8AD00B1F
:10035000A172560CC148E20CCD4F740DEFCD0C0EBE
:100360006E0CAC0ED157520F000000106D58B51036
:100370003CB872116E7A38120AFE06134CA6DE13D0
:10038000D5DABF14DD07AB15669EA0167414A1174D
:1003900042E5AC188391C419999FE81ADE9B191C99
:1003A000DD18581DA3AFA41E00000020DAB06A219A
:1003B0007970E522DDF4702414FC0D26984CBD27DD
:1003C000AAB57F29BB0F562BCD3C412DE828422FE3
:1003D00084CA593105238933333FD135BB3733388C
:1003E000BA31B03A455F493D00000040B461D542A2
:1003F000F2E0CA45BAE9E14829F81B4C30997A4F36
:10040000556BFF52751FAC569A79825AD051845E53
:100410000995B3620B461267657EA26B766F6670B4
:10042000746360758BBE927A0000008068C3AA85F1
:10043000E4C1958B74D3C39152F037986132F59E25
:10044000AAD6FEA5EA3E58AD34F304B59FA308BD75
:10045000112A67C5158C24CECBFC44D7ECDECCE04A
:10046000E8C6C0EA157D25F500007101E0024E04E2
:10047000BA0525078E08F7095D0BC30C270E8A0FF6
:10048000EB104B12AA1308156416BF171919711A2D
:10049000C81B1E1D731EC61F19216A22BA230825F8
:1004A0005626A227ED28372A802BC82C0F2E542F32
:1004B0009830DC311E335F349F35DE361B385839B7
:1004C000943ACE3B083D413E783FAF40E44119436A
:1004D0004C447F45B046E14710493F4A6C4B994C2C
:1004E000C54DEF4E195042516A529153B754DC55E5
:1004F000005724584659685A895BA85CC75DE55E79
:1005000003601F613A6255636F648865A066B767D0
:10051000CE68E469F86A0C6C206D326E446F5570D9
:1005200065717472837390749D75AA76B577C0787F
:10053000CA79D37ADB7BE37CEA7DF07EF67FFB80B1
:10054000FF81028305840785088609870988088951
:10055000068A048B018CFE8CFA8DF58EEF8FE99064
:10056000E291DB92D293CA94C095B696AB97A098CD
:100570009499879A7A9B6C9C5E9D4F9E3F9F2EA07C
:100580001EA10CA2FAA2E7A3D4A4C0A5ABA696A76D
:1005900081A86AA953AA3CAB24AC0CADF2ADD9AE8C
:1005A000BEAFA4B088B16CB250B333B415B5F7B5D3
:1005B000D9B6BAB79AB87AB959BA38BB16BCF4BC2E
:1005C000D1BDADBE8ABF65C040C11BC2F5C2CFC39D
:1005D000A8C480C558C630C707C8DEC8B4C98ACA0F
:1005E0005FCB34CC08CDDCCDAFCE82CF54D026D17A
:1005F000F7D1C8D299D369D438D507D6D6D6A4D7DF
:1006000072D83FD90CDAD9DAA5DB70DC3BDD06DE27
:10061000D0DE9ADF63E02CE1F5E1BDE285E34CE456
:1006200013E5D9E59FE665E72AE8EFE8B3E977EA5D
:100630003BEBFEEBC1EC83ED45EE06EFC8EF88F037
:1006400049F109F2C8F287F346F405F5C3F580F6DF
:100650003EF7FBF7B7F873F92FFAEAFAA5FB60FC4F
:100660001AFDD4FD8EFE47FF11241FBECFEFD8E048
:10067000DEBFCDBF11E0A0E0B1E0E8E9F4E402C0E4
:1006800005900D92A83EB107D9F721E0A8EEB1E0A0
:1006900001C01D92AD3FB207E1F70E9482100C9499
:1006A0004A220C94000008956F927F928F929F923D
:1006B000AF92BF92CF92DF92EF92FF920F931F9370
:1006C000CF93DF93CDB7DEB721970FB6F894DEBF97
:1006D0000FBECDBF7C01603001E010E009F452C0D4
:1006E0008FB382708030E1F712BD01BD81E08FBB16
:1006F00090B59F3F31F09FEF90BD94E09FBB92E09B
:100700009FBBA1E0B0E093E02FEF34E042E0FD01B9
:1007100006C0562B51705030DF0109F033C03296BD
:1007200051E0ED3FF90761E039F07FEFAB3FB907EA
:1007300040F4703049F40DC0612D7FEFAB3FB90735
:10074000C0F3762F703029F07F3FE1F4FD0133963E
:10075000512DAD3FB90708F0B1C26FB36270603080
:10076000E1F71396B2BDA1BD8FBB60B56F3F19F025
:1007700020BD3FBB4FBB61E0EE3FF90708F0C9CF9A
:10078000612DC7CF8FB382708030E1F712BD01BDFC
:1007900081E08FBB80B58F3F91F020E030E09FB3C8
:1007A00092709030E1F732BD21BD91E09FBB982F50
:1007B000882720B5422F5527482B592B02C04FEFD1
:1007C0005FEF8FB382708030E1F78FEF91E092BDE1
:1007D00081BD81E08FBB80B558018F3F91F09FB301
:1007E00092709030E1F72EEF31E032BD21BD91E003
:1007F0009FBB982F882720B5022F1127082B192B74
:1008000002C00FEF1FEF8FB382708030E1F78DEFE2
:1008100093E092BD81BD81E08FBB80B58F3F91F0A9
:100820009FB392709030E1F72CEF33E032BD21BDE1
:1008300091E09FBB982F882720B5822E9924882A83
:10084000992A03C08FEF9FEF4C0160E070E024E530
:1008500031E0AAEAB0E08FEF9FEF3C016B0181E04D
:100860004F3F9FEF590791E041F00F3FEFEF1E0719
:1008700049F40417150758F42FC0912D0F3FEFEFDF
:100880001E07B9F3812D0417150708F425C0892325
:100890008170803009F020C081E00F3F9FEF190781
:1008A00091E009F4912DF401EF3FEFEFFE0709F01D
:1008B000812DF401E017F10730F089238170803039
:1008C000FA0109F450C0CD01019682179307A801DF
:1008D000BD01FD0151F447C0CB0101968A179B076A
:1008E00048019D01FA0109F43EC0D901A61BB70BCE
:1008F000B695A795A60FB71F93E0B902802D1124D6
:10090000A99FE12D1124E80FFE2FEE27802D9927B6
:100910008E2B9F2BFC013196E11514E0F10708F0B6
:10092000CDC11FB312701030E1F7F2BDE1BDE1E0BF
:10093000EFBBE0B5EF3F830109F491CF8115F4E0FF
:100940009F0708F0BBC1FFB3F270F030E1F792BD32
:1009500081BD81E08FBBFE2FEE2780B5082F1127C8
:100960000E2B1F2B7CCF83E07802902D1124689FE3
:10097000812D11242FEFEF3FF20709F47CC0890F7E
:10098000982F8827202D3327282B392B3901C9018F
:100990008B5F93402BEF8F3F9207D60110F0D3016E
:1009A00013963196AF01452F5527FF3F51054F0153
:1009B00009F087C06115710589F08FB382708030AE
:1009C000E1F7B2BCA1BC81E08FBB80B58F3F31F0B5
:1009D0008FEF80BD84E08FBB82E08FBB6D01E1E0D3
:1009E000F0E023E031E05FEF64E072E006C01E2B30
:1009F00011701030FC0109F06CC0DF011296AD3FA0
:100A0000B20781E089F09FEFEB3FF20790F490305E
:100A100099F09F3F09F05DC0CF010396112D53015E
:100A2000AA15BB0579F420C0812D9FEFEB3FF2079B
:100A300070F3982F903069F7CD0111E05301AA159A
:100A4000BB0591F0ED3FF20708F038C1AFB3A270DB
:100A5000A030E1F73396F2BDE1BD3FBBE0B5EF3F1B
:100A600019F050BD6FBB7FBBE1E08E3F920708F0ED
:100A7000BECFE12DBCCFD7018C919FB39270903047
:100A8000E1F7B2BCA1BC91E09FBB90B59F3F31F0B4
:100A90009FEF90BD94E09FBB92E09FBB9FB392708D
:100AA0009030E1F722E030E032BD21BD91E09FBB04
:100AB00090B59827292F2823203009F4BEC094E050
:100AC000BFC0C3018E5F93408F3F920708F036C0CE
:100AD000FBC084E093012115380708F0EFC08FB305
:100AE00082708030E1F7C30192BD81BD81E08FBB90
:100AF00080B58F3F31F08FEF80BD84E08FBB82E007
:100B00008FBBF301319684E0E1159F01F807D60110
:100B100008F0D4C08FB382708030E1F732BD21BDC0
:100B200081E08FBB80B58F3F31F08FEF80BD84E0D7
:100B30008FBB82E08FBB80E090E03C018FB382707E
:100B40008030E1F7C301029692BD81BD81E08FBB89
:100B5000FD01319620B584E0E115F80708F0AEC03C
:100B60008FB382708030E1F7F2BDE1BD81E08FBBD1
:100B700080B58F3F31F08FEF80BD84E08FBB82E086
:100B80008FBBCD018E5F93403BEF8F3F930708F4FF
:100B90009BC08FB382708030E1F7CD01029692BD89
:100BA00081BD81E08FBB80B58227982F9223903042
:100BB00011F084E003C0803029F084E220BD8FBBB7
:100BC00082E08FBB84E0A115B80708F077C08FB32F
:100BD00082708030E1F7B2BDA1BD81E08FBB80B5EE
:100BE000B4018627982F9623903011F084E003C03B
:100BF000803031F084E2B40160BD8FBB82E08FBBF6
:100C00008FB382708030E1F7BD01F2BDE1BD81E0BC
:100C10008FBB80B58427982F9423903019F034E04F
:100C2000C40104C08030C40129F034E240BD3FBBA0
:100C300032E03FBBD7012C932CC0903029F094E2D6
:100C400080BD9FBB82E08FBB8FB382708030E1F7A5
:100C500080E090E092BD81BD81E08FBB80B58030A7
:100C600029F010BC84E28FBB82E08FBB8FB382700F
:100C70008030E1F7B2BCA1BC81E08FBB80B5803091
:100C800029F010BC84E28FBB82E08FBB80E090E053
:100C9000BC0121960FB6F894DEBF0FBECDBFDF9129
:100CA000CF911F910F91FF90EF90DF90CF90BF9069
:100CB000AF909F908F907F906F90089589E491E01E
:100CC00069E270E00E94D81DCE0101960E94612168
:100CD000FB018385948525853685F9012681378139
:100CE0006DE971E040E150E0F90109959927089517
:100CF0002F923F924F925F926F927F928F929F922C
:100D0000AF92BF92CF92DF92EF92FF920F931F9319
:100D1000CF93DF93CDB7DEB760970FB6F894DEBF01
:100D20000FBECDBF2E837A016C0101ED13E04801A7
:100D3000061B170B93E081E0023D190758F0803045
:100D400061F482E00115180770F416950795169561
:100D500007951FC0812D8030A1F300E010E082E0F4
:100D60000115180790F383E00115180718F40058CF
:100D700011400FC01802902D1124089F812D1124BD
:100D8000890F982F8827002D1127082B192B005821
:100D9000174021E631E540E050E0B801CA010E9469
:100DA0009F219695879577959695879577950115C7
:100DB000110519F0272F382F02C021E030E001156E
:100DC000110540E050E011F0492F512D0FEF1FEFBA
:100DD000B801C8010E94AF21F60180819181628132
:100DE0007381280F391F461F571FB12C2817390749
:100DF0004607570781E008F04DC080301C870B87FD
:100E000009F44EC08030B80109F4B9018FEF6F3F8B
:100E100078078B859C858007910781E009F08B2DF1
:100E20008170803040E050E09A01D40109F49B01C8
:100E3000F601318320838030CA0111F48B859C85B3
:100E4000F60193838283AE19BF0983E0A23DB80700
:100E500081E008F48B2D80309A0109F49D01C901CD
:100E600092958295907F9827807F9827880F991F69
:100E7000880F991F880F991F293EF1E0E1E0E9876B
:100E80003F077D836C8338872F8388F08050944F91
:100E90009C0111C08B2D80301C870B8709F0B2CFCD
:100EA0005C874B878030B80109F4AFCFAFCF20E02B
:100EB00034EF281B390B6B857C85CA0149010E94E0
:100EC0009F217C01892F912DFC01EE0FFF1FEE0F5A
:100ED000FF1FE859FF4F24E0DE011D9634E04591E5
:100EE0004D933150E1F78E3F910510F08EEF90E079
:100EF000880F991F880F991F84599F4F4F855889D4
:100F00006D847E84DE011D96FC0185918D932150B8
:100F1000E1F7DA014D855E858F859889461557057D
:100F20008A079B0708F0B98619851170FA01E6193E
:100F3000F709BC016A0B7B0B9301241B350BAD0138
:100F4000480B590B312E103009F49F012D01832DD0
:100F5000803009F4AB01F701FE2FEE2780E090E02E
:100F60006C01B6015F01760186010E94101D832D80
:100F7000803059F0215030404F4F5F4F6F4F7F4FBF
:100F8000641A750A460A570A04C0640E751E461E86
:100F9000571E5A8649868401C801892F9927FC016A
:100FA000EE0FFF1FEE0FFF1FE859FF4F24E0DE0199
:100FB0001D9634E045914D933150E1F71E3F910568
:100FC00010F08EEF90E0880F991F880F991F8459B9
:100FD0009F4F8F8498884D845E84DE011D96FC01AE
:100FE00085918D932150E1F721E04D855E858F85B8
:100FF0009889441555058805990508F0212D21701B
:10100000FA01E419F509BC01680979097201E41AC9
:10101000F50AA401480B590B322E203009F47F0148
:10102000832D803009F4AB01102F0027580100E018
:1010300010E09701B801C801680178010E94101DF5
:10104000832D803061F0215030404F4F5F4F6F4F04
:101050007F4F441A550AD401A60BB70B05C0440EA6
:10106000551ED401A61FB71FE985FA8581E02F819F
:101070003885293E380708F03AC061147104E0074A
:10108000F10709F4812D8170803009F49BC081E063
:1010900041145104A007B10709F4812D81708030FB
:1010A00009F490C061E070E09801A801C801530103
:1010B0006F0178013D010E94DE2119014A0198016A
:1010C000A80161E070E0C801520163010E94DE21C5
:1010D0002801421A530A81E090E0DC01A40BB50B11
:1010E00038016218730888099909FC0102C0119738
:1010F000319781E041145104A007B10709F4812D13
:101100008170803069F081E064147504EA07FB07A0
:1011100009F0812D8170803061F02FEF3FE021C018
:101120002B853C8522952F70329523273F702327EE
:1011300018C09801A301BF01C80152016D017801D7
:101140000E94DE21912D812D22952F70329523272B
:101150003F702327429534274F704327342F282B85
:10116000392B9FEF4FEF5FEF81E06C817D816F3F07
:1011700079076B857C856407750709F0812D81707F
:101180009E81903011F4B90104C06FEF7FE0621BC3
:10119000730B60960FB6F894DEBF0FBECDBFDF9124
:1011A000CF911F910F91FF90EF90DF90CF90BF9064
:1011B000AF909F908F907F906F905F904F903F90F7
:1011C0002F90089580E391E069E170E00E94D81DBE
:1011D0002F923F924F925F926F927F928F929F9247
:1011E000AF92BF92CF92DF92EF92FF920F931F9335
:1011F000CF93DF93CDB7DEB728970FB6F894DEBF55
:101200000FBECDBF6115710509F468C01C01FB015B
:10121000EF2FFF277E3FF105CF0110F08EEF90E01A
:10122000880F991F880F991F84599F4F9B01322F58
:1012300022275901EE0FFF1FEE0FFF1FE859FF4F46
:1012400040307C836B8324E0DE0109F44EC01596A8
:1012500034E045914D933150E1F78F8098846D8053
:101260007E80DE011596FC0185918D932150E1F77A
:10127000A1E04D815E818F819885461557058805CF
:10128000990508F0A12DA170FA01E619F709BC0132
:10129000680979099301241B350BA401480B590BEC
:1012A000A03009F49F015A2EA03009F4AB0100E0F0
:1012B00010E0B801C801680178010E94101D852D59
:1012C000803009F45CC0215030404F4F5F4F6F4F6A
:1012D0007F4F641A750A860A970A55C092958295BF
:1012E0008F7089279F7089277AC1159634E04591C0
:1012F0004D933150E1F74F8158858D809E80DE01FE
:101300001596FC0185918D932150E1F7DA0111E0EA
:101310004D815E818F819885481559058A079B0705
:1013200008F0112D1170FA01E819F909BC016A0BD6
:101330007B0B9401241B350BAD01480B590B10306E
:1013400009F49F013D01512E103009F4AB0100E07A
:1013500010E0B801C801680178010E94101D852DB8
:10136000803009F4A2C0215030404F4F5F4F6F4F83
:101370007F4F841A950AF301E60BF70B9BC0640EAE
:10138000751E861E971E81E0611471048006910609
:1013900009F4812D8170803009F43AC161E070E078
:1013A0009801A8012B01C8015301640178010E9432
:1013B000DE21F801E21BF30BD201A40BB50B910166
:1013C000A801B801C8015F016D010E94101D9201C2
:1013D000041B150BD901A60BB70B81E001151105F4
:1013E000A207B30708F4812D81708030C9F481E031
:1013F000411551056207730709F4812D8170803012
:1014000009F406C161E070E020E030E0A901C90103
:1014100058016D01790189010E94DE218901DA01FB
:10142000A115B10509F057C0C80196958795802B85
:10143000912B9C013695279536952795282B392B8E
:10144000A901529542954F7045275F704527422B61
:10145000532BCA01892F9927842B952B8095909522
:101460009C013695279525753575821B930B9C013C
:1014700023733373969587959695879583739373A6
:10148000820F931F9C01329522952F7023273F7066
:101490002327280F391F2F703F70C901892F9927E3
:1014A000820F931F9070409655C0840E951EF301D5
:1014B000E61FF71F31979101A801B801C801540137
:1014C0006F0178010E94101D8A01DB011196A115A0
:1014D000B10509F4A9CFCD01969587958A2B9B2B51
:1014E0009C013695279536952795282B392BA901F0
:1014F000529542954F7045275F704527422B532BDD
:10150000CA01892F9927842B952B809590959C0152
:101510003695279525753575821B930B9C01237392
:101520003373969587959695879583739373820FFA
:10153000931F9C01329522952F7023273F702327FC
:10154000280F391F2F703F70C901892F9927820FEB
:10155000931F907020E030E0482F4F71403039F0F9
:10156000000F111FAA1FBB1F4A954030C9F7AA0FD1
:10157000BB1FF12DFF1FAA0FBB1FFF1FEB2FEE7F1D
:10158000F170E859FB4F42E0DE01159655915D93ED
:101590004150E1F76FE070E0681B790B032F029573
:1015A000B02FB07FA22FA295BA27A07FBA27EB81D8
:1015B000FC81F295AF27F07FAF27E295FE27E07F11
:1015C000FE270F70112D812C912C4D815E81C90158
:1015D0005F016D01780184010E94DE21C901289616
:1015E0000FB6F894DEBF0FBECDBFDF91CF911F9134
:1015F0000F91FF90EF90DF90CF90BF90AF909F90B2
:101600008F907F906F905F904F903F902F900895B4
:1016100080E391E069E170E00E94D81D2F923F9233
:101620004F925F926F927F928F929F92AF92BF92F2
:10163000CF92DF92EF92FF920F931F93CF93DF939E
:10164000CDB7DEB72A970FB6F894DEBF0FBECDBF79
:1016500021E02093FC015998519A22E230E0309326
:10166000C5002093C40022E02093C00028E120930D
:10167000C10026E02093C2002091C00020722030DB
:10168000D9F32091C00020722030D9F32DE02093AF
:10169000C6002091C00020722030D9F32AE02093A8
:1016A000C6002091C00020722030D9F32DE0209395
:1016B000C6002091C00020722030D9F32AE0209388
:1016C000C600FC0186819781FC01E680F780C4801A
:1016D000D58082819381A081B1812091C000207248
:1016E0002030D9F320E52093C6002091C00020725D
:1016F0002030D9F321E62093C6002091C00020724B
:101700002030D9F32EE62093C6002091C00020722D
:101710002030D9F329E62093C6002091C000207222
:101720002030D9F323E62093C6002091C000207218
:101730002030D9F320E22093C6002091C00020720F
:101740002030D9F32FE62093C6002091C0002072EC
:101750002030D9F323E62093C6002091C0002072E8
:101760002030D9F323E62093C6002091C0002072D8
:101770002030D9F325E72093C6002091C0002072C5
:101780002030D9F322E72093C6002091C0002072B8
:101790002030D9F322E72093C6002091C0002072A8
:1017A0002030D9F325E62093C6002091C000207296
:1017B0002030D9F324E62093C6002091C000207287
:1017C0002030D9F320E22093C6002091C00020727F
:1017D0002030D9F329E62093C6002091C000207262
:1017E0002030D9F32EE62093C6002091C00020724D
:1017F0002030D9F320E22093C6002091C00020724F
:101800002030D9F326E62093C6002091C000207234
:101810002030D9F329E62093C6002091C000207221
:101820002030D9F32CE62093C6002091C00020720E
:101830002030D9F325E62093C6002091C000207205
:101840002030D9F320E22093C6002091C0002072FE
:101850002030D9F327E22093C6008115910571F05D
:101860008A0F9B1F2C913091C00030723030D9F319
:101870002093C6001196A817B907A1F78091C00060
:1018800080728030D9F387E28093C6008091C000D7
:1018900080728030D9F380E28093C6008091C000CE
:1018A00080728030D9F381E68093C6008091C000B9
:1018B00080728030D9F384E78093C6008091C000A5
:1018C00080728030D9F380E28093C6008091C0009E
:1018D00080728030D9F38CE68093C6008091C0007E
:1018E00080728030D9F389E68093C6008091C00071
:1018F00080728030D9F38EE68093C6008091C0005C
:1019000080728030D9F385E68093C6008091C00054
:1019100080728030D9F380E28093C60081E091E04C
:1019200098878F839E838D839C838B839A838983FF
:101930002AE030E000E010E0B601C701A8010E94F3
:10194000AF2160636A87960181E089872A3031057B
:10195000E006F10608F0812D8170803011F40C94BE
:10196000D00F89E090E04C01CE010196F401DC013A
:10197000AE0FBF1F2C913091C00030723030D9F3C0
:101980002093C6003196EA30F10589F78091C000B6
:1019900080728030D9F38AE08093C6002D98259A12
:1019A00087EF9FE32BE73AE14BE754E04FC0FA01A2
:1019B0003197F1F72D98FC013197F1F7FC01319740
:1019C000F1F7FC013197F1F7FC013197F1F7FC01D8
:1019D0003197F1F7FC013197F1F7FC013197F1F7FD
:1019E000FC013197F1F7FC013197F1F7FC013197D8
:1019F000F1F7FC013197F1F7FC013197F1F7FC01A8
:101A00003197F1F7FC013197F1F7FC013197F1F7CC
:101A1000FC013197F1F7FC013197F1F7FC013197A7
:101A2000F1F7FC013197F1F7FC013197F1F7FC0177
:101A30003197F1F7FC013197F1F7FC013197F1F79C
:101A4000FC013197F1F7F9013197F1F72D9AFC017B
:101A50003197F1F7FC013197F1F7FC013197F1F77C
:101A6000FC013197F1F7FC013197F1F7FC01319757
:101A7000F1F7FC013197F1F7FC013197F1F7FC0127
:101A80003197F1F7FC013197F1F7FC013197F1F74C
:101A9000FC013197F1F7FC013197F1F7FC01319727
:101AA000F1F7FC013197F1F7FC013197F1F7FC01F7
:101AB0003197F1F7FC013197F1F7FC013197F1F71C
:101AC000FC013197F1F7FC013197F1F7FC013197F7
:101AD000F1F7FC013197F1F7FC013197F1F7F901CA
:101AE0003197F1F72D98FC013197F1F7FC0131970F
:101AF000F1F7FC013197F1F7FC013197F1F7FC01A7
:101B00003197F1F7FC013197F1F7FC013197F1F7CB
:101B1000FC013197F1F7FC013197F1F7FC013197A6
:101B2000F1F7FC013197F1F7FC013197F1F7FC0176
:101B30003197F1F7FC013197F1F7FC013197F1F79B
:101B4000FC013197F1F7FC013197F1F7FC01319776
:101B5000F1F7FC013197F1F7FC013197F1F7FC0146
:101B60003197F1F7FC013197F1F7FC013197F1F76B
:101B7000FC013197F1F7F9013197F1F72D9AFC014A
:101B80003197F1F7FC013197F1F7FC013197F1F74B
:101B9000FC013197F1F7FC013197F1F7FC01319726
:101BA000F1F7FC013197F1F7FC013197F1F7FC01F6
:101BB0003197F1F7FC013197F1F7FC013197F1F71B
:101BC000FC013197F1F7FC013197F1F7FC013197F6
:101BD000F1F7FC013197F1F7FC013197F1F7FC01C6
:101BE0003197F1F7FC013197F1F7FC013197F1F7EB
:101BF000FC013197F1F7FC013197F1F7FC013197C6
:101C0000F1F7FC013197F1F7FC013197F1F7F90198
:101C10003197F1F72D98FC013197F1F7FC013197DD
:101C2000F1F7FC013197F1F7FC013197F1F7FC0175
:101C30003197F1F7FC013197F1F7FC013197F1F79A
:101C4000FC013197F1F7FC013197F1F7FC01319775
:101C5000F1F7FC013197F1F7FC013197F1F7FC0145
:101C60003197F1F7FC013197F1F7FC013197F1F76A
:101C7000FC013197F1F7FC013197F1F7FC01319745
:101C8000F1F7FC013197F1F7FC013197F1F7FC0115
:101C90003197F1F7FC013197F1F7FC013197F1F73A
:101CA000FC013197F1F7F9013197F1F72D9AFC0119
:101CB0003197F1F7FC013197F1F7FC013197F1F71A
:101CC000FC013197F1F7FC013197F1F7FC013197F5
:101CD000F1F7FC013197F1F7FC013197F1F7FC01C5
:101CE0003197F1F7FC013197F1F7FC013197F1F7EA
:101CF000FC013197F1F7FC013197F1F7FC013197C5
:101D0000F1F7FC013197F1F7FC013197F1F7FC0194
:101D10003197F1F7FC013197F1F7FC013197F1F7B9
:101D2000FC013197F1F7FC013197F1F7FC01319794
:101D3000F1F7FC013197F1F7FC013197F1F7F90167
:101D40003197F1F72D98FC013197F1F7FC013197AC
:101D5000F1F7FC013197F1F7FC013197F1F7FC0144
:101D60003197F1F7FC013197F1F7FC013197F1F769
:101D7000FC013197F1F7FC013197F1F7FC01319744
:101D8000F1F7FC013197F1F7FC013197F1F7FC0114
:101D90003197F1F7FC013197F1F7FC013197F1F739
:101DA000FC013197F1F7FC013197F1F7FC01319714
:101DB000F1F7FC013197F1F7FC013197F1F7FC01E4
:101DC0003197F1F7FC013197F1F7FC013197F1F709
:101DD000FC013197F1F7F9013197F1F72D9AB8012C
:101DE000F80107C0A1706F5F7F4FEF4FFF4FA0302A
:101DF00059F0DC011197F1F7A1E069377105E007AF
:101E0000F10780F3A12DEECFFA013197F1F72D986C
:101E1000FC013197F1F7FC013197F1F7FC013197A3
:101E2000F1F7FC013197F1F7FC013197F1F7FC0173
:101E30003197F1F7FC013197F1F7FC013197F1F798
:101E4000FC013197F1F7FC013197F1F7FC01319773
:101E5000F1F7FC013197F1F7FC013197F1F7FC0143
:101E60003197F1F7FC013197F1F7FC013197F1F768
:101E7000FC013197F1F7FC013197F1F7FC01319743
:101E8000F1F7FC013197F1F7FC013197F1F7FC0113
:101E90003197F1F7FC013197F1F7FC013197F1F738
:101EA000F9013197F1F72D9AB801F80107C0A17037
:101EB0006F5F7F4FEF4FFF4FA03059F0DC0111975C
:101EC000F1F7A1E069377105E007F10780F3A12D73
:101ED000EECFFA013197F1F72D98FC013197F1F728
:101EE000FC013197F1F7FC013197F1F7FC013197D3
:101EF000F1F7FC013197F1F7FC013197F1F7FC01A3
:101F00003197F1F7FC013197F1F7FC013197F1F7C7
:101F1000FC013197F1F7FC013197F1F7FC013197A2
:101F2000F1F7FC013197F1F7FC013197F1F7FC0172
:101F30003197F1F7FC013197F1F7FC013197F1F797
:101F4000FC013197F1F7FC013197F1F7FC01319772
:101F5000F1F7FC013197F1F7FC013197F1F7FC0142
:101F60003197F1F7FC013197F1F7F9013197F1F76A
:101F70002D9AB801F80109C0A1706F5F7F4FEF4F34
:101F8000FF4FA03011F40C94D70CDC011197F1F73E
:101F9000A1E069377105E007F10770F3A12DECCFDF
:101FA00089E090E04C01CE0101961C0107C08170D0
:101FB00080309601750111F00C94B40C2901B20126
:101FC000C7012AE030E03901A8010E94AF21690170
:101FD0005A01B601C5019301A8010E94AF216063B7
:101FE000C4010197D1014C01A80FB91F6C9381E086
:101FF000920124363105E006F10608F4D8CF812D90
:10200000D6CF0F920FB60F922F933F938F939F933C
:102010008091E8019091E9012091EA013091EB0172
:10202000805F9F4F2F4F3F4F9093E9018093E801CE
:102030003093EB012093EA019F918F913F912F9173
:102040000F900FBE0F9018950F920FB60F928F93AF
:1020500081E08093FB018F910F900FBE0F90189538
:102060000F920FB60F921F9211248F9381E08093ED
:10207000FC018091FA01813019F41092FA012A9A38
:102080008F911F900F900FBE0F9018950F920FB663
:102090000F922F933F938F939F93AF93BF93EF93A1
:1020A000FF9381E08093FC0180917800909179000A
:1020B0002091F9013327220F331F23513E4FF9019D
:1020C000918380838091F901982F939593709093D9
:1020D000F9018E5F8370A82FBB27AB50BE4F8C9148
:1020E00090917C00907F982B90937C00FF91EF91D2
:1020F000BF91AF919F918F913F912F910F900FBE04
:102100000F9018950E9484102F923F924F925F92E9
:102110007F928F929F92AF92BF92CF92DF92EF9277
:10212000FF920F931F93CF93DF93CDB7DEB76F97D7
:102130000FB6F894DEBF0FBECDBF9FB7F894809165
:10214000FC01803009F061C181E08093FC019FBFF8
:1021500053985B9A92E09DBB98E09093690097E852
:1021600090937A0090E490937C0090917E0090612F
:1021700090937E003C98449890917E00906290935A
:102180007E003D9845982098289A52985A9A3A98F5
:10219000429A3998419A2D98259A2B98239A2498F7
:1021A0002C9A2A98229A90E59CBD8DBD78948091B6
:1021B0007C00807F846080937C0080917A008064C2
:1021C00080937A0080917A0080748030D9F7809172
:1021D00078009091790020917C00207F25602093E9
:1021E0007C0020917A00206420937A0020917A006C
:1021F00020742030D9F720917800309179004091F7
:102200007C00407F466040937C0040917A004064AF
:1022100040937A0040917A0040744030D9F7409161
:1022200078005091790060917C00607F67606093D6
:102230007C0060917A00606460937A0060917A001B
:1022400060746030D9F76091780070917900E6E0B1
:10225000F7E0F093F801E093F701E4E0F5E0F093A4
:10226000F601E093F5017093F4016093F30150934C
:10227000F2014093F1013093F0012093EF0190932C
:10228000EE018093ED01612D6093F90181E080936F
:10229000EC018093FC0184E480937C0060937B00DC
:1022A0008FEE80937A0080917C00807F85608093A0
:1022B0007C005C98549A5D98559A5E98569A5F98FF
:1022C000579A86B1847003E0803009F002E016B1BD
:1022D0003A9842983998419883B18170803009F0DA
:1022E00058C061E06093FC018BB1806F8BB987EFC0
:1022F0009FE3FC013197F1F7FC013197F1F7FC0105
:102300003197F1F7FC013197F1F7FC013197F1F7C3
:10231000FC013197F1F7FC013197F1F7FC0131979E
:10232000F1F7FC013197F1F7FC013197F1F7FC016E
:102330003197F1F7FC013197F1F7FC013197F1F793
:10234000FC013197F1F7FC013197F1F7FC0131976E
:10235000F1F7FC013197F1F7FC013197F1F7FC013E
:102360003197F1F7FC013197F1F7FC013197F1F763
:10237000FC013197F1F7FC013197F1F70197F1F783
:102380008BE79AE10197F1F783B18170803009F012
:10239000612D1E8A6170CE0146960E94540381E031
:1023A0008093FC018BB18F708BB983B181708030C9
:1023B00029F4000083B181708030D9F3127082E07B
:1023C00084BD9AEF97BD95E095BD80936E0016BCD5
:1023D0008E898130E0E0F0E009F41EC0823009F41B
:1023E0002EC0833009F03CC0FD8FEC8FFB8FEA8F4D
:1023F000FF8FEE8F198E80E093E0988F8F8BCE0148
:102400004A969A83898381E039C09FBF8DEA91E023
:102410006BE270E00E94D81D80E090E09D8F8C8F71
:102420009B8F8A8F9F8F8E8F198E80E091E0988F7F
:102430008F8BCE014A969A83898384E01FC0FD8FDB
:10244000EC8FFB8FEA8FFF8FEE8F198E80E092E08A
:10245000988F8F8BCE014A969A83898382E00EC033
:102460001F8EFE8FED8FFC8FEB8FFA8FE98FF88F29
:10247000EF8BCE014A969A83898388E001270B83EC
:1024800091E09093FC018295982F907F8F70892B1B
:10249000982F9373990F990F869586958373892B3F
:1024A000982F9575990F86958575892B9BB19F708F
:1024B000982B9BB982E08093B00094E09093B10098
:1024C00098E79093B300809370002A9880EA8EBDBD
:1024D0008DB58823EAF78EB51EBC8DB58823EAF743
:1024E0008EB52A9A2998219ACB0102969E838D83D4
:1024F00080ED97E09B878A87112D812D8D8BFF873B
:10250000EE87FD87EC87312C812D8F83FB8BEA8B47
:10251000F98BE88BF987E887812D8C8B23C0A82F56
:10252000B82FBB0FBB0BAF51BE4F9C9181E0809386
:10253000FC01892F82958F709F709295907F982BC8
:10254000892F8373880F880F969596959373982B90
:10255000892F8575880F96959575982B8BB18F70FF
:10256000892B8BB9512E3C822AC091E081E08F8368
:102570009093FC01888DA82FBB27AF51BE4F8C9143
:10258000982F92959F708F708295807F892B982FBE
:102590009373990F990F869586958373892B982F3E
:1025A0009575990F86958575892B9BB19F70982B92
:1025B0009BB9512E8091FA01803009F47AC18FB70E
:1025C000F894C090F301D090F401E090F101F09004
:1025D000F201A090EF01B090F0018090ED01909099
:1025E000EE018FBF96B50091EA011091EB012090AA
:1025F000E8013090E90186B59817982FA0F791E08F
:102600002D89203031E009F4312D23B12170422E83
:10261000203009F0912D39273170732E282F332760
:10262000220F331F9E2F991F220F331F991F832FB5
:10263000722F612D20E83EE3AF010E94AF21220DF1
:10264000331D401F511F872D803041F011E041267E
:102650003F872E875D874C874D8A3EC0852D803011
:1026600009F439C0C9016E857F85861B970BBA01B5
:10267000EC85FD856E0B7F0B11E081329105E0E06A
:10268000F0E06E077F0781E028F0812D81708030B7
:1026900029F024C08170803009F020C08D898130FC
:1026A00009F044C0688D862F9927623091050CF09F
:1026B00092C08115910509F09FC0FD8FEC8FFB8FB3
:1026C000EA8FFF8FEE8F198E80E091E0988F8F8BCD
:1026D00081E090E2AAC0112DE0E0F0E08C898170E9
:1026E000803009F066CF81E06A857B8562177307C9
:1026F000688579856407750708F0812D81708030C1
:1027000009F445C0888D998D82304CF4A92FB92FDA
:10271000BB0FBB0B803099F4A852BE4F19C082305A
:1027200089F48CE09030A9F083E013C0812D8D8B6B
:10273000112D8C898170803009F03BCFD4CFA3520A
:10274000BE4F06C0A92FB92FBB0FBB0BAF51BE4F59
:102750008C9161E091E09C8B6093FC01982F9295A5
:102760009F708F708295807F892B982F9373990F1C
:10277000990F869586958373892B982F9575990F58
:1027800086958575892B9BB19F70982B9BB981E0AD
:102790006A897B8962177307688979896407750775
:1027A00008F0812D8170803009F403CF2C593F4F00
:1027B0003B8B2A8B4F4F5F4F598B488B8F8181709A
:1027C000803009F4D2CE81E08093FC019BB19F70F0
:1027D000812D8F83EDCE82309105E1F4FD8FEC8F5A
:1027E000FB8FEA8FFF8FEE8F198E80E093E0988F3A
:1027F0008F8B83E090E819C0FD8FEC8FFB8FEA8F01
:10280000FF8FEE8F198E80E092E0988F8F8B82E0A1
:1028100090E40BC01F8EFE8FED8FFC8FEB8FFA8F35
:10282000E98FF88FEF8B90E1812D61E06093FC01DF
:102830006BB16F70692B6BB96D817E81611594E00E
:10284000790710F00C940A1DB9016053784F7B870B
:102850006A87BA016F4F7F4F798768879FB39270FD
:102860009030E1F76D817E8172BD61BD91E09FBBCB
:10287000B9016C597F4F7B8B6A8BBA016F4F7F4FC9
:10288000798B688B90B59827692F6823603011F099
:1028900094E003C0903029F094E280BD9FBB82E0B9
:1028A0008FBB81E08F83812D8C8B112D81E08D8BEF
:1028B0001ACF29B19FB7F8948091FB011092FB01C8
:1028C0009FBF122F147061E092E0103009F091E088
:1028D0000C810170003039F42295207F220F220FE5
:1028E000220B2370922F212F26952695322E488D6C
:1028F000242F3327423031050CF04DC0211531050E
:1029000009F073C04E8D5F8D8030152D29F0898DB3
:102910008670823009F4EFC0892F8250823008F02F
:10292000E7C0898DA82FBB278230B1050CF4C8C140
:10293000A230B10509F449C3A33081ED93E0B1059C
:1029400009F05CC38E199F09012D21E0823D33E01F
:10295000930708F4202F20309F0109F49C019E2F3B
:102960009295907F32959327307F93272295322737
:10297000207F3227832F722F612D21ED33E0AF01AD
:102980000E94AF21D901AF3F8FE0B80708F41BC404
:10299000AFEFBFE018C42230310509F057C08030D6
:1029A00009F057C0898D803009F43EC189819A8130
:1029B000B701A60121E00E947806DB01817080301A
:1029C000E0E0F0E061E009F4F9C2003009F4F5C29A
:1029D000103009F0F2C28FEF9FEF9D8F8C8F9B8F8D
:1029E0008A8FDF01012D152DA9C5AE8DBF8D9230C7
:1029F000152D0CF03BC021ED33E0903009F09CC068
:102A00002A193B0901E0223D83E0380781E008F400
:102A1000812D803009F4F9019F0132952295307F94
:102A20003227207F3227220F331F220F331F220F1E
:102A3000331FE93EF00708F461C12050344FB9015B
:102A4000E93EF00741E008F061C161C1803009F45E
:102A50002BC0FD8FEC8FFB8FEA8F898D198E01E0E3
:102A6000803009F4012DDF01152D68C5923009F081
:102A70008AC0898DA82FBB278230B1050CF0C3C155
:102A8000A115B105012D09F459C5012D89819A813E
:102A9000B401A501202F0E947806DB0181708030EF
:102AA00009F491C382E0ADC1298D822F992722308C
:102AB00091050CF093C08115910509F03CC181EDA1
:102AC00093E08819990921E0823D33E0930708F0EB
:102AD0004BC1212D20308F0109F44AC1011582E03C
:102AE000180708F04BC116950795169507957EC3F4
:102AF000903009F0ACC081ED93E08819990921E08C
:102B0000298F823D33E0930708F4212D20308F0177
:102B100009F48C01F12C5295507F42955427407F47
:102B20005427011582E0180708F075C06A01169550
:102B3000079516950795CBC12C193D0983E0898F20
:102B400001E0223D380781E008F4812D803009F44E
:102B5000F9019F0132952295307F3227207F32275D
:102B6000220F331F220F331F220F331FE93EF007BE
:102B700008F40CC12050344FB901E93EF00741E0A0
:102B800008F00CC10CC1803009F41EC121ED33E006
:102B90002A193B0901E0223D83E0380781E008F46F
:102BA000812D803009F4F9019F0132952295307F03
:102BB0003227207F3227220F331F220F331F220F8D
:102BC000331FE93EF00708F466C22050344FB901C4
:102BD000E93EF00741E008F066C266C28230910526
:102BE00009F019C181ED93E08E199F0921E0823D22
:102BF00033E0930708F022C1212D20308F0109F422
:102C000021C1011582E0180708F022C11695079529
:102C10001695079552C3011593E06A01190708F04C
:102C200047C10058114053C1012D89819A81B401D7
:102C3000A501202F0E947806DB018170803011F001
:102C400001E0098FE0E0F0E0152D61E077C484E059
:102C5000898F8FEF9FE0841B950B9295907F8295D3
:102C60009827807F9827F12CE12C5C019D8F8C8F19
:102C7000FB8EEA8E81ED93E08C199D0921E0823D67
:102C800033E0930768F4212D20308F0161F00115A6
:102C900082E0180768F4169507951695079532C2D5
:102CA00020308F01A1F78C01011582E0180798F3FD
:102CB000011593E0190708F016C20058114022C20E
:102CC000A115B105012D09F439C481ED93E08819EE
:102CD000990921E0823D33E0930708F0A6C1212D38
:102CE00020308F0109F4A5C1011582E0180708F012
:102CF000A6C11695079516950795C3C360E074EFB6
:102D0000621B730BE93EF00741E008F0412DCD0155
:102D100092958295907F9827807F98277D010E94C9
:102D2000E808D7019D8F8C8FE0E0F0E0FB8FEA8F01
:102D3000098F61E003C481ED93E08A199B0921E0CA
:102D4000823D33E0930708F08BC0212D20308F01A6
:102D500009F48AC0011582E0180708F08BC01695A7
:102D600007951695079512C320308F0109F0B6CE4E
:102D70008C01011582E0180708F4B5CE011593E027
:102D8000190708F024C20058114030C260E074EF07
:102D9000621B730BE93EF00741E008F0412DCD01C5
:102DA0008095909592958295907F9827807F98271F
:102DB0007D010E94E808D7019D8F8C8FE0E0F0E054
:102DC000FB8FEA8F61E0BAC3898DA82FBB278230C1
:102DD000B105CCF4A115B105012D09F4AFC3012D46
:102DE00089819A81B401A501202F0E947806DB0118
:102DF0008170803009F4E7C19F8982E0903009F04A
:102E000083E0898FDFC1A230B10509F0C8C0AFEF00
:102E1000BFE0012D93C381ED93E08C199D0921E062
:102E2000823D33E0930708F02DC0212D2030BF01F3
:102E300009F42CC0003009F02DC04BC120308F01A7
:102E400009F0DFCE8C01011582E0180708F4DECE10
:102E5000011593E0190708F021C2005811402DC256
:102E600020308F0109F076CF8C01011582E0180720
:102E700008F475CF011593E0190708F078C20058DF
:102E8000114084C22030BF0109F0D4CFBC01003012
:102E900009F41FC1103009F01CC1611582E07807E8
:102EA00008F0CFC27695679576956795152DF6C48F
:102EB0001902802D1124099F212D1124280F322F52
:102EC0002227002D1127022B132B00581740B80181
:102ED000CF0121E631E5AF010E949F2196958795AC
:102EE00077959695879577950115110521E030E046
:102EF00011F0272F382F0115110540E050E06FEF3A
:102F00007FEF11F0492F512DEF2CCB010E94AF2103
:102F10002E0D3F1D4C1D5D1D81E02E153F054C05FE
:102F20005D0591E0152D08F0912D90306FEF7FEF4A
:102F3000DB0109F4DA019030AB01E0E0F0E009F4E4
:102F4000A9014F3F9FEF59072FEF3FEFA207B307AC
:102F500091E061E009F0912D917090309F0109F4AA
:102F60009D013D8F2C8F90309F0109F49A013B8F7A
:102F70002A8F4F3F9FEF59072FEF3FEFA207B3076D
:102F800009F4812D8170803011F482E0898FA2953F
:102F9000AF70B295AB27BF70AB2701E0CFC289817C
:102FA0009A81B701A60121E00E947806DB018170B9
:102FB000803009F006C1012D06C1198E01E0803074
:102FC000152D09F0BBC2012DB9C281ED93E08A191C
:102FD0009B0921E0823D33E0930708F038C0212DA2
:102FE00020308F0109F437C0011582E0180708F07E
:102FF00038C0169507951695079542C38C199D09FB
:1030000021E0823D33E0930708F033C0212D2030CA
:103010008F0109F432C0011582E0180708F033C0AF
:103020001695079516950795C9C320308F0109F0AD
:103030005BCE8C01011582E0180708F45ACE011509
:1030400093E0190708F00EC2005811401AC2203050
:103050008F0109F0C9CF8C01011582E0180708F42F
:10306000C8CF011593E0190708F0FBC200581140C2
:1030700007C320308F0109F0CECF8C01011582E00B
:10308000180708F4CDCF011593E0190708F087C39E
:103090000058114093C360E074EF621B730BE93E6C
:1030A000F00741E008F0412DCD0192958295907F87
:1030B0009827807F98277D010E94E808D7019D8F7F
:1030C0008C8FE0E0F0E0FB8FEA8F098F0F8B61E0DF
:1030D00035C2611582E0780708F0BCC17695679526
:1030E000769567952EC41902802D1124099F212DF4
:1030F0001124280F322F2227002D1127022B132BEA
:1031000000581740B801CF0121E631E5AF010E9418
:103110009F21969587957795969587957795011533
:10312000110521E030E011F0272F382F011511058E
:1031300040E050E06FEF7FEF11F0492F512DCB01B0
:103140000E94AF212E0D3F1D4A1D5B1D81E02E15F3
:103150003F054A055B0591E0152D08F0912D903053
:103160006FEF7FEFDB0109F4DA019030AB01E0E0B3
:10317000F0E009F4A9014F3F9FEF59072FEF3FEF10
:10318000A207B30761E009F0812D817080309F01B3
:1031900009F49D013D8F2C8F80309F0109F49A0125
:1031A0003B8F2A8F803009F0198EA295AF70B295AF
:1031B000AB27BF70AB278FEF9FE0A827B92701E0AF
:1031C000BDC1198E01E0E0E0F0E061E0B7C1190295
:1031D000802D1124099F212D1124280F322F222701
:1031E000002D1127022B132B00581740B801CF01D7
:1031F00021E631E5AF017F010E949F2196958795D9
:1032000077959695879577950115110521E030E022
:1032100011F0272F382F01151105A7016FEF7FEF50
:1032200011F0492F512DCB018B010E94AF218A8DC6
:103230009B8D6C8D7D8D280F391F461F571F2817BA
:1032400039074607570781E008F0812D8030D80103
:10325000B80109F4DA018030CB01E0E0F0E0152D8F
:1032600001E009F4C9018F3F2FEF9207A607B707C6
:1032700009F0012D202F21702030AF0161E009F409
:10328000AC015B8F4A8F2030CF0109F4CD019D8FB7
:103290008C8F203009F44CC181E049C11902802D86
:1032A0001124099F212D1124280F322F2227002DB0
:1032B0001127022B132B00581740B801CF0121E62C
:1032C00031E5AF017F010E949F2196958795779503
:1032D0009695879577950115110521E030E011F05D
:1032E000272F382F01151105A7016FEF7FEF11F080
:1032F000492F512DCB018B010E94AF218A8D9B8DCF
:103300006C8D7D8D280F391F461F571F28173907D1
:103310004607570781E008F0812D8030D801B801B9
:1033200009F4DA018030CB01E0E0F0E0152D01E096
:1033300009F4C9018F3F2FEF9207A607B70709F0DD
:10334000012D202F21702030AF0161E009F4AC0184
:103350005B8F4A8F2030CF0109F4CD019D8F8C8F78
:10336000203011F083E0898FA095B095E1C019025B
:10337000802D1124099F212D1124280F322F22275F
:10338000002D1127022B132B00581740B801CF0135
:1033900021E631E5AF017F010E949F219695879537
:1033A00077959695879577950115110521E030E081
:1033B00011F0272F382F01151105A7016FEF7FEFAF
:1033C00011F0492F512DCB018B010E94AF216A8D45
:1033D0007B8DEC8DFD8D260F371F4E1F5F1F81E00B
:1033E000261737074E075F0791E008F0912D9030C0
:1033F000B80109F4BA019030A801E0E0F0E009F466
:10340000A9014F3F9FEF59076007710709F0812D10
:10341000817080309F01152D09F49A013B8F2A8F0E
:1034200080309F0109F49B013D8F2C8F8030AFEFDE
:10343000BFE0012D61E009F481C082E0898F01E0E5
:103440007DC0611593E07907152D08F018C260580A
:10345000714024C2611593E0790708F063C2605897
:1034600071406FC21902802D1124099F212D112452
:10347000280F322F2227002D1127022B132B005843
:103480001740B801CF0121E631E5AF017F010E946D
:103490009F219695879577959695879577950115B0
:1034A000110521E030E011F0272F382F011511050B
:1034B000A7016FEF7FEF11F0492F512DCB018B0149
:1034C0000E94AF218A8D9B8D6C8D7D8D280F391FB9
:1034D000461F571F281739074607570781E008F08E
:1034E000812D8030D801B80109F4DA018030CB0198
:1034F000E0E0F0E0152D01E009F4C9018F3F2FEF66
:103500009207A607B70709F0012D202F2170203060
:10351000AF0161E009F4AC015B8F4A8F2030CF012D
:1035200009F4CD019D8F8C8F203011F082E0898FBE
:10353000A295AF70B295AB27BF70AB273626BF8F71
:10354000AE8F2A98B063BEBD8DB58823EAF78EB5DD
:10355000AEBD8DB58823EAF78EB581E08093FA0180
:103560000170003011F40C94B212898D988D2B816A
:10357000223054F4203091F492300CF023C090307B
:10358000823008F440C03BC0223081F492300CF00D
:1035900021C09030803009F032C035C092300CF03C
:1035A00021C09030803009F02EC029C0292F225030
:1035B000223008F428C09030F1F4282F2A952330C7
:1035C000F0F021C09230B9F425B12D7F8030312D3B
:1035D000C1F41CC0923099F025B12D7F8330312D7C
:1035E00080F014C0923009F035C025B12D7F8030B5
:1035F000312D61F406C0282F2A95223020F425B100
:103600002D7F32E003C025B12D7F312D232B25B92D
:103610002C892170203011F40C94B212923054F4A1
:10362000A82FB82FBB0FBB0B903081F4A852BE4F10
:103630000C949512923011F00C948F129CE0803013
:1036400011F40C94961293E00C949612A352BE4F70
:103650000C94951225B12D7F8330312D08F0D1CFF8
:10366000D5CF1902802D1124099F212D1124280F57
:10367000322F2227002D1127022B132B0058174021
:10368000B801CF0121E631E5AF016F010E949F2112
:103690009695879577959695879577950115110558
:1036A00021E030E011F0272F382F01151105A60178
:1036B0006FEF7FEF11F0492F512DCB016B010E946D
:1036C000AF218A8D9B8D6C8D7D8D280F391F461FF4
:1036D000571FE1E0EC83281739074607570781E0B9
:1036E00008F0812D8030860109F48A018030C601FE
:1036F00040E050E009F4C9018F3F2FEF92070C051D
:103700001D0511F0212D2C832C8121702030BA0150
:1037100009F4BC017B8F6A8F2030CA0109F4C8010B
:103720009D8F8C8F203011F083E0898F81ED93E0A5
:103730008E199F0921E0823D33E0930708F4212D83
:1037400020309A0109F49C01942F9295907F329534
:103750009327307F932722953227207F3227832F8C
:10376000722F612D21ED33E07A010E94AF212F3FAE
:103770008FE0380710F02FEF3FE08FEF9FE06C01F4
:103780002C253D25B801C701A7010E949F21DC011E
:10379000AC25BD25F701152D61E00C81CFCE1902B6
:1037A000802D1124099F212D1124280F322F22272B
:1037B000002D1127022B132B00581740B801CF0101
:1037C00021E631E5AF017F010E949F219695879503
:1037D00077959695879577950115110521E030E04D
:1037E00011F0272F382F01151105A7016FEF7FEF7B
:1037F00011F0492F512DCB018B010E94AF218A8DF1
:103800009B8D6C8D7D8D280F391F461F571F2817E4
:1038100039074607570781E008F0812D8030D8012D
:10382000B80109F4DA018030CB01E0E0F0E0152DB9
:1038300001E009F4C9018F3F2FEF9207A607B707F0
:1038400009F0012D202F21702030AF0161E009F433
:10385000AC015B8F4A8F2030CF0109F4CD019D8FE1
:103860008C8F203009F0198EA295AF70B295AB27DE
:10387000BF70AB278FEF9FE0A827B9275FCE7902F3
:10388000802D1124699F212D1124280F322F2227EA
:10389000602D7727622B732B60587740CF0121E68C
:1038A00031E57B01AF010E949F21A7019695879585
:1038B00077959695879577954115510521E030E0EC
:1038C00011F0272F382F4115510540E050E06FEFE0
:1038D0007FEF11F0492F512DCB010E94AF216A8D4E
:1038E0007B8DEC8DFD8D260F371F4E1F5F1F81E0F6
:1038F000261737074E075F0708F0812D8030EFEF5E
:10390000FFEFBF0109F4B9017B8F6A8F8030CF01CF
:10391000E0E0F0E009F4CA019D8F8C8FDF01012DFA
:1039200061E00CCE7902802D1124699F212D112494
:10393000280F322F2227602D7727622B732B605898
:103940007740152DCF0121E631E57B01AF010E94C3
:103950009F21A70196958795779596958795779559
:103960004115510521E030E011F0272F382F411586
:10397000510540E050E06FEF7FEF11F0492F512DDE
:10398000CB010E94AF216A8D7B8DEC8DFD8D260FC2
:10399000371F4E1F5F1F81E0261737074E075F074F
:1039A00091E008F0912D9030EFEFFFEFBF0109F4A7
:1039B000BA019030AF01E0E0F0E009F4A9014F3F17
:1039C0009FEF59072FEF3FEF6207730791E009F070
:1039D000912D917090309F0109F49A013B8F2A8FAD
:1039E00090309F0109F49B013D8F2C8F4F3F9FEF3B
:1039F00059072FEF3FEF6207730709F4812D81709C
:103A00008030DF01012D61E009F098CD198E01E0D1
:103A1000DF0194CD89E491E069E270E00E94D81D55
:103A20002F923F924F925F926F927F928F929F92CE
:103A3000AF92BF92CF92DF92EF92FF920F931F93BC
:103A4000CF93DF93CDB7DEB726970FB6F894DEBFDE
:103A50000FBECDBF260145015C011B015C834B837A
:103A60003901B701C8010E949F218B016C01B4018B
:103A70005E824D82C2019101A5010E949F215B01DE
:103A80007C01A00EB11EEC1CFD1C00E010E0B20198
:103A9000C8019301A8010E949F216B011C01B40180
:103AA000C8014B805C809201A8010E949F21C60E34
:103AB000D71E281E391EC801881F991F9A83898323
:103AC000B401C8019301A8010E949F214B013C0150
:103AD0006D817E81C8019201A8010E949F216C0C1A
:103AE0007D1C621D731D29813A81821F931F6A0DFF
:103AF0007B1D8E1D9F1D9401A30126960FB6F89481
:103B0000DEBF0FBECDBFDF91CF911F910F91FF9010
:103B1000EF90DF90CF90BF90AF909F908F907F906D
:103B20006F905F904F903F902F900895CF93DF93C9
:103B3000CDB7DEB72A970FB6F894DEBF0FBECDBF64
:103B40009A87898784E191E09E838D8385EE91E059
:103B50009C838B8380E091E098878F8381E090E065
:103B60009A838983CE0101960E940E0B2DE637ECD5
:103B7000FC01378726878DEE95E29587848789EB50
:103B80009EE19387828783EB9EED9187808786EB0A
:103B90009DEA9783868387E59EE89583848385EDF8
:103BA0009BEA9383828385E992E6918380830895DB
:103BB000CF93DF93CDB7DEB760970FB6F894DEBF33
:103BC0000FBECDBF20E030E03A87298741E050E0CA
:103BD0005C834B83AE01435F5F4F5A8349833887D1
:103BE0002F8325EE31E03E832D83788B6F879E8770
:103BF0008D87CE0101960E94961D2F923F924F9283
:103C00005F926F927F928F929F92AF92BF92CF926C
:103C1000DF92EF92FF920F931F93CF93DF93CDB775
:103C2000DEB728970FB6F894DEBF0FBECDBFFB01FD
:103C300037812481A22FA32BFC0142815381E08094
:103C4000F180A03009F495C25E834D83303009F4D1
:103C5000C2C06701AD80BE80CA0CDB1C7A83698359
:103C6000FB014085518558874F8340E050E001E1DA
:103C700010E0CA01FC82EB82D701FA010AC0F4010C
:103C800031963170821993098A0F9B1F303009F0E9
:103C9000F9C04F016F817885E617F70708F09EC0DD
:103CA000AC15BD0509F4EEC07D013D91632F66237F
:103CB0002AF01701632E77242A0184C0632F6F71C5
:103CC000062F1127752F7695542E5794412E479421
:103CD000702E7794612C67947695579447947794D7
:103CE0006794F70171817F73A72FBB27303E08F4DB
:103CF00055C0742F7295707F12957127107F7127B0
:103D000002951027007F1027E52FE695542E579433
:103D1000B795A795212C2794E6955794B795A79525
:103D200027944B2E3A2EF701A281AF736A2E772487
:103D300062287328303F08F437C05694479477942C
:103D40006794012D07955694479477946794079547
:103D5000B42DA72D162D660F771F660F771F6C7178
:103D600070706A2B7B2BF70133813F73632E7724AE
:103D7000602A712A31E06114710401E110E06007EA
:103D8000710709F0312D31703030AD80BE8009F0FF
:103D900079C01701D70114962B0114C06A2A7B2A17
:103DA0001701D70112960AC0612FF02FE12D462A84
:103DB000572A6E2A7F2A1701D7011396AD80BE803D
:103DC00001E110E031E0611471044006510609F48C
:103DD00056CF312D54CFAD80BE8058C0AC15BD0537
:103DE00009F450C06C91362F33230AF01CC2603E98
:103DF00008F419C2603F08F416C2FD0131813F7317
:103E00004801032F1127B42FB295B07F1295B12727
:103E1000107FB12702951027007F1027A12F102FA8
:103E2000012D32813F73C32EDD2456954795D794DB
:103E3000C794312D379556954795D794C7943795A4
:103E4000B42EAD2C4C2DAA2ABB2A660F771F660F05
:103E5000771F6C7170706A297B29302B412B53813D
:103E60005F73E52FFF27E32BF42B31E0E115F1051C
:103E70006805790509F0312D31703030AD80BE8094
:103E800009F4D1C169817A81EB80FC80BE82AD8268
:103E9000203009F424C0FB01A580B680ED81FE81AD
:103EA000E830F105B886AF8208F025C0E11520E0C2
:103EB00030E0F10509F442C1C90108C05527240FBB
:103EC000351F01968E179F0709F438C1D701A80F37
:103ED000B91F5C9141E0503C8CF7412DEFCFFB01C5
:103EE0008385948525853685F90126813781B7013B
:103EF0004D815E8147C1CF01817090708115910520
:103F000019F420E030E00BC0DF01AE7FAE0DBF1D25
:103F10009C9181E0903C0CF4812D282F3327F6955D
:103F2000E79580EC90E01C0180E090E04C01FC8281
:103F3000EB82670117C0F3018501E01BF10B57010C
:103F4000CE0CDF1CD801A370B070CA01892F99274D
:103F5000820F931F5070480F591FA115B1059A0188
:103F600009F0ABC0E115F10509F4E4C07601E03CCD
:103F7000F1053F01AF0110F0C101AC016A01CC0CA9
:103F8000DD1C44305A015105A40108F4D4CF860148
:103F9000087F1170D7010A0F1B1FA4012D01F20128
:103FA00080819181FC01F295E295EF70EF27FF701F
:103FB000EF27F695E795F695E7958095909592957C
:103FC00082958F7089279F708927969587959695FA
:103FD0008795969587958E2B9F2B81709170840F76
:103FE000951FF20142815381FA01F295E295EF703B
:103FF000EF27FF70EF27F695E795F695E795409543
:104000005095529542954F7045275F7045275695BC
:10401000479556954795569547954E2B5F2B417082
:104020005170480F591FF20184819581FC01F2956E
:10403000E295EF70EF27FF70EF27F695E795F6957D
:10404000E79580959095929582958F7089279F70BE
:1040500089279695879596958795969587958E2B22
:104060009F2B81709170840F951FF20146815781BB
:10407000FA01F295E295EF70EF27FF70EF27F695C2
:10408000E795F695E79540955095529542954F7076
:1040900045275F7045275695479556954795569500
:1040A00047954E2B5F2B41705170480F591F189642
:1040B000A017B10709F072CF3ECF0C7F1070000F30
:1040C000111FA00EB11EAA0FBB1FC501AA0DBB1D5B
:1040D00020E030E0FC01819191918F01FC01F2958B
:1040E000E295EF70EF27FF70EF27F695E795F695CD
:1040F000E79580959095929582958F7089279F700E
:1041000089279695879596958795969587958E2B71
:104110009F2B81709170280F391FC8010A171B0748
:1041200009F0D8CFC901892F9927840F951F3070C6
:10413000280F391FED81FE81EB80FC80AF81B885AF
:104140002A173B07A8F4A21BB30BFB012285822F81
:10415000992700E010E0223091050CF032C0811563
:10416000910509F437C080E090E01C018D0133C057
:10417000AF01FB018385948525853685F90126816C
:104180003781B701F9010995082F01701070C80136
:1041900028960FB6F894DEBF0FBECDBFDF91CF914A
:1041A0001F910F91FF90EF90DF90CF90BF90AF9055
:1041B0009F908F907F906F905F904F903F902F9047
:1041C00008958230910531F48D0116950795119669
:1041D000B695A7951D01FB01C280D380A080B18058
:1041E000658476848384948480E090E0F301801772
:1041F000910768F42085318501962C01C401A50141
:10420000B601F90109958030C20181F30AC0268107
:104210003781C401B7014D815E81F9010995803074
:10422000B1F001E0B2CF81159105EB80FC8009F47B
:104230002BC08A159B0508F024C0D701A80FB91F11
:104240003C91303C0CF020C040E050E01EC0A0E0AB
:10425000B0E001E0C101A817B90708F0012DA817C7
:10426000B90708F092CFF301208531851196C4017A
:10427000A501B601F9017D010995D701803049F307
:1042800084CF8A159B0501F7A70169817A814115C1
:10429000510529F07A014115510529F4F7CD411551
:1042A000510509F4F3CD5C01F1CDFC0180819181D0
:1042B00022813381F90126813781F90109959927F6
:1042C0000895CF93DF93CDB7DEB76C970FB6F89410
:1042D000DEBF0FBECDBF2BE230E03C832B8322E755
:1042E00031E03A8329832CE031E038872F839E83A5
:1042F0008D8380E090E09A8B898B82E090E09C87B0
:104300008B872CE131E03A872987988B8F87CE0104
:1043100045969E878D8785E591E29C8F8B8FCE0198
:1043200005969A8F898F8DEF9DE1988F8F8BCE01A7
:1043300001969E8B8D8BCE0109960E94961DDB0106
:104340008F939F930E94D121BF91AF91A29F800D27
:10435000911DA39F900DB29F900D11240895A1E28D
:104360001A2EAA1BBB1BFD010DC0AA1FBB1FEE1FEF
:10437000FF1FA217B307E407F50720F0A21BB30B3A
:10438000E40BF50B661F771F881F991F1A9469F7B6
:1043900060957095809590959B01AC01BD01CF0112
:1043A00008950E943B22A59F900DB49F900DA49F5D
:1043B000800D911D11240895689401C0E8948F9296
:1043C0009F92CF93DF930E94EA21DF91CF919F903C
:1043D0008F90089588249924F401E401B0E49F9318
:1043E000AA279A158B049C04ED05FE05CF05D0077E
:1043F000A10798F4AD2FDC2FCF2FFE2FE92D982C9D
:10440000892E982F872F762F652F542F432F322FE9
:104410002227B85031F7BF9127C01B2EBF91BB2771
:10442000220F331F441F551F661F771F881F991FB8
:10443000881C991CEE1FFF1FCC1FDD1FAA1FBB1F6E
:104440008A149B04EC05FD05CE05DF05A007B10726
:1044500048F08A189B08EC09FD09CE09DF09A00B7A
:10446000B10B21601A94E1F62EF49401AF01BE0164
:10447000CD01000C0895A29FB001B39FC001A39F7E
:10448000700D811D1124911DB29F700D811D11248D
:08449000911D0895F894FFCF7F
:1044980024010A000000000000000000530300008F
:1044A80001006806530300000100B61DE501000085
:1044B800E50102003C72656461637465643E000056
:1044C800617474656D707420746F206469766964B2
:1044D80065206279207A65726F6173736572746999
:1044E8006F6E206661696C65643A206F66667365F5
:1044F80074203C2053656C663A3A43415041434925
:10450800545963616C6C65642060526573756C7492
:104518003A3A756E77726170282960206F6E206153
:104528006E2060457272602076616C75654F757497
:104538004F66426F756E64734572726F7263616C19
:104548006C656420604F7074696F6E3A3A756E7767
:10455800726170282960206F6E206120604E6F6E36
:1045680065602076616C75650008040201000C0026
:0845780003080402013A2000CF
:00000001FF
