:100000000C9434030C9451030C94FF0C0C94510386
:100010000C9451030C9451030C9451030C940B0D4C
:100020000C9451030C9451030C9451030C94510300
:100030000C9451030C9451030C94DC0C0C9451035C
:100040000C9451030C9451030C9451030C945103E0
:100050000C9451030C94210D0C9451030C945103F6
:100060000C9451030C94510300000100560B010045
:100070002C1701008823010070300100EA3D0100C7
:10008000FE4B0100B05A01000A6A0100117A01001A
:10009000CE8A0100499C01008AAE01009AC101008C
:1000A00082D501004BEA010000000200AB160200FD
:1000B000572E02000F470200E0600200D57B0200CD
:1000C000FB97020061B5020014D4020023F4020081
:1000D0009D15030092380300145D03003383030071
:1000E00003AB030096D4030000000400562D040067
:1000F000AE5C04001F8E0400C0C10400AAF7040017
:10010000F72F0500C26A050028A8050045E805008C
:10011000392B06002471060028BA0600670607007E
:10012000065607002CA9070000000800AC5A08007A
:100130005CB908003D1C09007F83090053EF0900EA
:10014000ED5F0A0084D50A004F500B008AD00B00E7
:1001500073560C0049E20C0050740D00CE0C0E00DA
:100160000CAC0E0058520F000000100058B51000E3
:10017000B87211007A381200FE061300A6DE1300D2
:10018000DBBF140008AB15009EA0160014A11700D9
:10019000E5AC180092C41900A0E81A009C191C00D4
:1001A00019581D00B0A41E0000002000B16A2100F3
:1001B00070E52200F5702400FC0D26004DBD2700DF
:1001C000B67F290010562B003D412D0029422F00FB
:1001D000CB593100238933003FD135003833380003
:1001E00032B03A005F493D000000400062D5420055
:1001F000E1CA4500EAE14800F81B4C00997A4F003B
:100200006BFF52001FAC56007A825A0052845E0087
:1002100095B36200461267007EA26B006F667000A5
:1002200063607500BF927A0000008000C3AA850059
:10023000C2958B00D3C39100F037980032F59E0031
:10024000D7FEA5003F58AD00F304B500A408BD00DB
:100250002A67C5008C24CE00FD44D700DFCCE00027
:10026000C7C0EA007D25F5000000000187550B019D
:10027000842B1701A7872301E16F300165EA3D0157
:10028000ADFD4B017EB05A01E6096A0147117A01C2
:1002900054CE8A0118499C01FA89AE01BE99C10168
:1002A0008E81D501FA4AEA01000000020EAB160267
:1002B00008572E024E0F4702C1DF6002CAD47B02EC
:1002C0005BFB9702FC60B502CD13D4028E22F402D0
:1002D000A89C150330923803F3135D037C3383032A
:1002E0001C03AB03F495D403000000041B562D043B
:1002F0000FAE5C049C1E8E0483BFC10493A9F70457
:10030000B5F62F05F7C16A059A27A8051D45E8052A
:1003100051392B0661247106E627BA06F7660607EF
:1003200037065607E92BA9070000000836AC5A0823
:100330001E5CB908373D1C09057F83092653EF0968
:100340006BED5F0AEF83D50A334F500B3A8AD00B1F
:10035000A172560CC148E20CCD4F740DEFCD0C0EBE
:100360006E0CAC0ED157520F000000106D58B51036
:100370003CB872116E7A38120AFE06134CA6DE13D0
:10038000D5DABF14DD07AB15669EA0167414A1174D
:1003900042E5AC188391C419999FE81ADE9B191C99
:1003A000DD18581DA3AFA41E00000020DAB06A219A
:1003B0007970E522DDF4702414FC0D26984CBD27DD
:1003C000AAB57F29BB0F562BCD3C412DE828422FE3
:1003D00084CA593105238933333FD135BB3733388C
:1003E000BA31B03A455F493D00000040B461D542A2
:1003F000F2E0CA45BAE9E14829F81B4C30997A4F36
:10040000556BFF52751FAC569A79825AD051845E53
:100410000995B3620B461267657EA26B766F6670B4
:10042000746360758BBE927A0000008068C3AA85F1
:10043000E4C1958B74D3C39152F037986132F59E25
:10044000AAD6FEA5EA3E58AD34F304B59FA308BD75
:10045000112A67C5158C24CECBFC44D7ECDECCE04A
:10046000E8C6C0EA157D25F500007101E0024E04E2
:10047000BA0525078E08F7095D0BC30C270E8A0FF6
:10048000EB104B12AA1308156416BF171919711A2D
:10049000C81B1E1D731EC61F19216A22BA230825F8
:1004A0005626A227ED28372A802BC82C0F2E542F32
:1004B0009830DC311E335F349F35DE361B385839B7
:1004C000943ACE3B083D413E783FAF40E44119436A
:1004D0004C447F45B046E14710493F4A6C4B994C2C
:1004E000C54DEF4E195042516A529153B754DC55E5
:1004F000005724584659685A895BA85CC75DE55E79
:1005000003601F613A6255636F648865A066B767D0
:10051000CE68E469F86A0C6C206D326E446F5570D9
:1005200065717472837390749D75AA76B577C0787F
:10053000CA79D37ADB7BE37CEA7DF07EF67FFB80B1
:10054000FF81028305840785088609870988088951
:10055000068A048B018CFE8CFA8DF58EEF8FE99064
:10056000E291DB92D293CA94C095B696AB97A098CD
:100570009499879A7A9B6C9C5E9D4F9E3F9F2EA07C
:100580001EA10CA2FAA2E7A3D4A4C0A5ABA696A76D
:1005900081A86AA953AA3CAB24AC0CADF2ADD9AE8C
:1005A000BEAFA4B088B16CB250B333B415B5F7B5D3
:1005B000D9B6BAB79AB87AB959BA38BB16BCF4BC2E
:1005C000D1BDADBE8ABF65C040C11BC2F5C2CFC39D
:1005D000A8C480C558C630C707C8DEC8B4C98ACA0F
:1005E0005FCB34CC08CDDCCDAFCE82CF54D026D17A
:1005F000F7D1C8D299D369D438D507D6D6D6A4D7DF
:1006000072D83FD90CDAD9DAA5DB70DC3BDD06DE27
:10061000D0DE9ADF63E02CE1F5E1BDE285E34CE456
:1006200013E5D9E59FE665E72AE8EFE8B3E977EA5D
:100630003BEBFEEBC1EC83ED45EE06EFC8EF88F037
:1006400049F109F2C8F287F346F405F5C3F580F6DF
:100650003EF7FBF7B7F873F92FFAEAFAA5FB60FC4F
:100660001AFDD4FD8EFE47FF11241FBECFEFD8E048
:10067000DEBFCDBF11E0A0E0B1E0E4E0F6E302C0F0
:1006800005900D92A237B107D9F721E0A2E7B1E0BA
:1006900001C01D92A738B207E1F70E945D0D0C94CE
:1006A000001B0C9400002F923F924F925F926F922A
:1006B0007F928F929F92AF92BF92CF92DF92EF92F2
:1006C000FF920F931F93CF93DF93CDB7DEB7609761
:1006D0000FB6F894DEBF0FBECDBF2E837A016C013A
:1006E00001ED13E04801061B170B93E081E0023D8A
:1006F000190758F0803061F482E00115180770F492
:1007000016950795169507951FC0812D8030A1F38A
:1007100000E010E082E00115180790F383E0011576
:10072000180718F4005811400FC01802902D11241A
:10073000089F812D1124890F982F8827002D1127BC
:10074000082B192B0058174021E631E540E050E016
:10075000B801CA010E94551A969587957795969586
:10076000879577950115110519F0272F382F02C0AD
:1007700021E030E00115110540E050E011F0492F73
:10078000512D0FEF1FEFB801C8010E94651AF60145
:100790008081918162817381280F391F461F571F05
:1007A000B12C281739074607570781E008F04DC0DC
:1007B00080301C870B8709F44EC08030B80109F4E3
:1007C000B9018FEF6F3F78078B859C858007910774
:1007D00081E009F08B2D8170803040E050E09A017B
:1007E000D40109F49B01F601318320838030CA01D2
:1007F00011F48B859C85F60193838283AE19BF0922
:1008000083E0A23DB80781E008F48B2D80309A0187
:1008100009F49D01C90192958295907F9827807F68
:100820009827880F991F880F991F880F991F293EB5
:10083000F1E0E1E0E9873F077D836C8338872F8310
:1008400088F08050944F9C0111C08B2D80301C8704
:100850000B8709F0B2CF5C874B878030B80109F471
:10086000AFCFAFCF20E034EF281B390B6B857C85F1
:10087000CA0149010E94551A7C01892F912DFC0162
:10088000EE0FFF1FEE0FFF1FE859FF4F24E0DE01C0
:100890001D9634E045914D933150E1F78E3F91051F
:1008A00010F08EEF90E0880F991F880F991F8459E0
:1008B0009F4F4F8558896D847E84DE011D96FC0113
:1008C00085918D932150E1F7DA014D855E858F8505
:1008D0009889461557058A079B0708F0B986198538
:1008E0001170FA01E619F709BC016A0B7B0B930141
:1008F000241B350BAD01480B590B312E103009F478
:100900009F012D01832D803009F4AB01F701FE2FEB
:10091000EE2780E090E06C01B6015F017601860170
:100920000E946719832D803059F0215030404F4F7D
:100930005F4F6F4F7F4F641A750A460A570A04C00B
:10094000640E751E461E571E5A8649868401C801CC
:10095000892F9927FC01EE0FFF1FEE0FFF1FE859AB
:10096000FF4F24E0DE011D9634E045914D93315058
:10097000E1F71E3F910510F08EEF90E0880F991F70
:10098000880F991F84599F4F8F8498884D845E8467
:10099000DE011D96FC0185918D932150E1F721E048
:1009A0004D855E858F85988944155505880599057F
:1009B00008F0212D2170FA01E419F509BC0168093C
:1009C00079097201E41AF50AA401480B590B322E79
:1009D000203009F47F01832D803009F4AB01102F02
:1009E0000027580100E010E09701B801C801680134
:1009F00078010E946719832D803061F021503040CA
:100A00004F4F5F4F6F4F7F4F441A550AD401A60BCB
:100A1000B70B05C0440E551ED401A61FB71FE985AC
:100A2000FA8581E02F813885293E380708F03AC0E1
:100A300061147104E007F10709F4812D81708030A1
:100A400009F49BC081E041145104A007B10709F4E7
:100A5000812D8170803009F490C061E070E09801D0
:100A6000A801C80153016F0178013D010E94941A49
:100A700019014A019801A80161E070E0C801520122
:100A800063010E94941A2801421A530A81E090E0FF
:100A9000DC01A40BB50B38016218730888099909A9
:100AA000FC0102C01197319781E041145104A00765
:100AB000B10709F4812D8170803069F081E0641400
:100AC0007504EA07FB0709F0812D8170803061F021
:100AD0002FEF3FE021C02B853C8522952F7032956A
:100AE00023273F70232718C09801A301BF01C80125
:100AF00052016D0178010E94941A912D812D229549
:100B00002F70329523273F702327429534274F704B
:100B10004327342F282B392B9FEF4FEF5FEF81E0D6
:100B20006C817D816F3F79076B857C8564077507D4
:100B300009F0812D81709E81903011F4B90104C0BB
:100B40006FEF7FE0621B730B60960FB6F894DEBF09
:100B50000FBECDBFDF91CF911F910F91FF90EF900E
:100B6000DF90CF90BF90AF909F908F907F906F90CD
:100B70005F904F903F902F90089580E291E069E15F
:100B800070E00E94301A2F923F924F925F926F92C4
:100B90007F928F929F92AF92BF92CF92DF92EF920D
:100BA000FF920F931F93CF93DF93CDB7DEB72897B4
:100BB0000FB6F894DEBF0FBECDBF6115710509F405
:100BC00068C01C01FB01EF2FFF277E3FF105CF011D
:100BD00010F08EEF90E0880F991F880F991F8459AD
:100BE0009F4F9B01322F22275901EE0FFF1FEE0F5F
:100BF000FF1FE859FF4F40307C836B8324E0DE0108
:100C000009F44EC0159634E045914D933150E1F70B
:100C10008F8098846D807E80DE011596FC01859121
:100C20008D932150E1F7A1E04D815E818F81988500
:100C3000461557058805990508F0A12DA170FA0100
:100C4000E619F709BC01680979099301241B350BE2
:100C5000A401480B590BA03009F49F015A2EA03073
:100C600009F4AB0100E010E0B801C80168017801A7
:100C70000E946719852D803009F45CC021503040F6
:100C80004F4F5F4F6F4F7F4F641A750A860A970A5E
:100C900055C0929582958F7089279F7089277AC158
:100CA000159634E045914D933150E1F74F815885C9
:100CB0008D809E80DE011596FC0185918D932150DB
:100CC000E1F7DA0111E04D815E818F819885481549
:100CD00059058A079B0708F0112D1170FA01E819D0
:100CE000F909BC016A0B7B0B9401241B350BAD0188
:100CF000480B590B103009F49F013D01512E103063
:100D000009F4AB0100E010E0B801C8016801780106
:100D10000E946719852D803009F4A2C0215030400F
:100D20004F4F5F4F6F4F7F4F841A950AF301E60BC9
:100D3000F70B9BC0640E751E861E971E81E0611422
:100D400071048006910609F4812D8170803009F4C8
:100D50003AC161E070E09801A8012B01C80153017C
:100D6000640178010E94941AF801E21BF30BD2018E
:100D7000A40BB50B9101A801B801C8015F016D0179
:100D80000E9467199201041B150BD901A60BB70B22
:100D900081E001151105A207B30708F4812D8170C8
:100DA0008030C9F481E0411551056207730709F4E9
:100DB000812D8170803009F406C161E070E020E08F
:100DC00030E0A901C90158016D01790189010E9432
:100DD000941A8901DA01A115B10509F057C0C801BB
:100DE00096958795802B912B9C0136952795369566
:100DF0002795282B392BA901529542954F704527ED
:100E00005F704527422B532BCA01892F9927842BCA
:100E1000952B809590959C01369527952575357570
:100E2000821B930B9C01237333739695879596953C
:100E3000879583739373820F931F9C01329522953C
:100E40002F7023273F702327280F391F2F703F70E3
:100E5000C901892F9927820F931F9070409655C022
:100E6000840E951EF301E61FF71F31979101A8012B
:100E7000B801C80154016F0178010E9467198A0105
:100E8000DB011196A115B10509F4A9CFCD01969505
:100E900087958A2B9B2B9C01369527953695279510
:100EA000282B392BA901529542954F7045275F7029
:100EB0004527422B532BCA01892F9927842B952B29
:100EC000809590959C013695279525753575821BE3
:100ED000930B9C012373337396958795969587950D
:100EE00083739373820F931F9C01329522952F7009
:100EF00023273F702327280F391F2F703F70C90108
:100F0000892F9927820F931F907020E030E0482F9F
:100F10004F71403039F0000F111FAA1FBB1F4A95B7
:100F20004030C9F7AA0FBB1FF12DFF1FAA0FBB1F2F
:100F3000FF1FEB2FEE7FF170E859FB4F42E0DE011F
:100F4000159655915D934150E1F76FE070E0681B95
:100F5000790B032F0295B02FB07FA22FA295BA274D
:100F6000A07FBA27EB81FC81F295AF27F07FAF27F6
:100F7000E295FE27E07FFE270F70112D812C912C2A
:100F80004D815E81C9015F016D01780184010E947C
:100F9000941AC90128960FB6F894DEBF0FBECDBFD4
:100FA000DF91CF911F910F91FF90EF90DF90CF9045
:100FB000BF90AF909F908F907F906F905F904F9079
:100FC0003F902F90089580E291E069E170E00E94E7
:100FD000301A2F923F924F925F926F927F928F9230
:100FE0009F92AF92BF92CF92DF92EF92FF920F93B8
:100FF0001F93CF93DF93CDB7DEB72A970FB6F89440
:10100000DEBF0FBECDBF21E0209386015998519AD3
:1010100022E230E03093C5002093C40022E0209308
:10102000C00028E12093C10026E02093C200209157
:10103000C00020722030D9F32091C00020722030EF
:10104000D9F32DE02093C6002091C00020722030FB
:10105000D9F32AE02093C6002091C00020722030EE
:10106000D9F32DE02093C6002091C00020722030DB
:10107000D9F32AE02093C600FC0186819781FC0108
:10108000E680F780C480D58082819381A081B18180
:101090002091C00020722030D9F320E52093C600B3
:1010A0002091C00020722030D9F321E62093C600A1
:1010B0002091C00020722030D9F32EE62093C60084
:1010C0002091C00020722030D9F329E62093C60079
:1010D0002091C00020722030D9F323E62093C6006F
:1010E0002091C00020722030D9F320E22093C60066
:1010F0002091C00020722030D9F32FE62093C60043
:101100002091C00020722030D9F323E62093C6003E
:101110002091C00020722030D9F323E62093C6002E
:101120002091C00020722030D9F325E72093C6001B
:101130002091C00020722030D9F322E72093C6000E
:101140002091C00020722030D9F322E72093C600FE
:101150002091C00020722030D9F325E62093C600EC
:101160002091C00020722030D9F324E62093C600DD
:101170002091C00020722030D9F320E22093C600D5
:101180002091C00020722030D9F329E62093C600B8
:101190002091C00020722030D9F32EE62093C600A3
:1011A0002091C00020722030D9F320E22093C600A5
:1011B0002091C00020722030D9F326E62093C6008B
:1011C0002091C00020722030D9F329E62093C60078
:1011D0002091C00020722030D9F32CE62093C60065
:1011E0002091C00020722030D9F325E62093C6005C
:1011F0002091C00020722030D9F320E22093C60055
:101200002091C00020722030D9F327E22093C6003D
:101210008115910571F08A0F9B1F2C913091C000B0
:1012200030723030D9F32093C6001196A817B90751
:10123000A1F78091C00080728030D9F387E280935B
:10124000C6008091C00080728030D9F380E2809324
:10125000C6008091C00080728030D9F381E680930F
:10126000C6008091C00080728030D9F384E78093FB
:10127000C6008091C00080728030D9F380E28093F4
:10128000C6008091C00080728030D9F38CE68093D4
:10129000C6008091C00080728030D9F389E68093C7
:1012A000C6008091C00080728030D9F38EE68093B2
:1012B000C6008091C00080728030D9F385E68093AB
:1012C000C6008091C00080728030D9F380E28093A4
:1012D000C60081E091E098878F839E838D839C83F5
:1012E0008B839A8389832AE030E000E010E0B60126
:1012F000C701A8010E94651A60636A87960181E0B0
:1013000089872A303105E006F10608F0812D8170C9
:10131000803011F40C94AB0C89E090E04C01CE01CC
:101320000196F401DC01AE0FBF1F2C913091C0007B
:1013300030723030D9F32093C6003196EA30F1058F
:1013400089F78091C00080728030D9F38AE0809361
:10135000C6002D98259A87EF9FE32BE73AE14BE7EC
:1013600054E04FC0FA013197F1F72D98FC01319705
:10137000F1F7FC013197F1F7FC013197F1F7FC012E
:101380003197F1F7FC013197F1F7FC013197F1F753
:10139000FC013197F1F7FC013197F1F7FC0131972E
:1013A000F1F7FC013197F1F7FC013197F1F7FC01FE
:1013B0003197F1F7FC013197F1F7FC013197F1F723
:1013C000FC013197F1F7FC013197F1F7FC013197FE
:1013D000F1F7FC013197F1F7FC013197F1F7FC01CE
:1013E0003197F1F7FC013197F1F7FC013197F1F7F3
:1013F000FC013197F1F7FC013197F1F7F9013197D1
:10140000F1F72D9AFC013197F1F7FC013197F1F7D3
:10141000FC013197F1F7FC013197F1F7FC013197AD
:10142000F1F7FC013197F1F7FC013197F1F7FC017D
:101430003197F1F7FC013197F1F7FC013197F1F7A2
:10144000FC013197F1F7FC013197F1F7FC0131977D
:10145000F1F7FC013197F1F7FC013197F1F7FC014D
:101460003197F1F7FC013197F1F7FC013197F1F772
:10147000FC013197F1F7FC013197F1F7FC0131974D
:10148000F1F7FC013197F1F7FC013197F1F7FC011D
:101490003197F1F7F9013197F1F72D98FC01319768
:1014A000F1F7FC013197F1F7FC013197F1F7FC01FD
:1014B0003197F1F7FC013197F1F7FC013197F1F722
:1014C000FC013197F1F7FC013197F1F7FC013197FD
:1014D000F1F7FC013197F1F7FC013197F1F7FC01CD
:1014E0003197F1F7FC013197F1F7FC013197F1F7F2
:1014F000FC013197F1F7FC013197F1F7FC013197CD
:10150000F1F7FC013197F1F7FC013197F1F7FC019C
:101510003197F1F7FC013197F1F7FC013197F1F7C1
:10152000FC013197F1F7FC013197F1F7F90131979F
:10153000F1F72D9AFC013197F1F7FC013197F1F7A2
:10154000FC013197F1F7FC013197F1F7FC0131977C
:10155000F1F7FC013197F1F7FC013197F1F7FC014C
:101560003197F1F7FC013197F1F7FC013197F1F771
:10157000FC013197F1F7FC013197F1F7FC0131974C
:10158000F1F7FC013197F1F7FC013197F1F7FC011C
:101590003197F1F7FC013197F1F7FC013197F1F741
:1015A000FC013197F1F7FC013197F1F7FC0131971C
:1015B000F1F7FC013197F1F7FC013197F1F7FC01EC
:1015C0003197F1F7F9013197F1F72D98FC01319737
:1015D000F1F7FC013197F1F7FC013197F1F7FC01CC
:1015E0003197F1F7FC013197F1F7FC013197F1F7F1
:1015F000FC013197F1F7FC013197F1F7FC013197CC
:10160000F1F7FC013197F1F7FC013197F1F7FC019B
:101610003197F1F7FC013197F1F7FC013197F1F7C0
:10162000FC013197F1F7FC013197F1F7FC0131979B
:10163000F1F7FC013197F1F7FC013197F1F7FC016B
:101640003197F1F7FC013197F1F7FC013197F1F790
:10165000FC013197F1F7FC013197F1F7F90131976E
:10166000F1F72D9AFC013197F1F7FC013197F1F771
:10167000FC013197F1F7FC013197F1F7FC0131974B
:10168000F1F7FC013197F1F7FC013197F1F7FC011B
:101690003197F1F7FC013197F1F7FC013197F1F740
:1016A000FC013197F1F7FC013197F1F7FC0131971B
:1016B000F1F7FC013197F1F7FC013197F1F7FC01EB
:1016C0003197F1F7FC013197F1F7FC013197F1F710
:1016D000FC013197F1F7FC013197F1F7FC013197EB
:1016E000F1F7FC013197F1F7FC013197F1F7FC01BB
:1016F0003197F1F7F9013197F1F72D98FC01319706
:10170000F1F7FC013197F1F7FC013197F1F7FC019A
:101710003197F1F7FC013197F1F7FC013197F1F7BF
:10172000FC013197F1F7FC013197F1F7FC0131979A
:10173000F1F7FC013197F1F7FC013197F1F7FC016A
:101740003197F1F7FC013197F1F7FC013197F1F78F
:10175000FC013197F1F7FC013197F1F7FC0131976A
:10176000F1F7FC013197F1F7FC013197F1F7FC013A
:101770003197F1F7FC013197F1F7FC013197F1F75F
:10178000FC013197F1F7FC013197F1F7F90131973D
:10179000F1F72D9AB801F80107C0A1706F5F7F4F74
:1017A000EF4FFF4FA03059F0DC011197F1F7A1E0A6
:1017B00069377105E007F10780F3A12DEECFFA013B
:1017C0003197F1F72D98FC013197F1F7FC01319732
:1017D000F1F7FC013197F1F7FC013197F1F7FC01CA
:1017E0003197F1F7FC013197F1F7FC013197F1F7EF
:1017F000FC013197F1F7FC013197F1F7FC013197CA
:10180000F1F7FC013197F1F7FC013197F1F7FC0199
:101810003197F1F7FC013197F1F7FC013197F1F7BE
:10182000FC013197F1F7FC013197F1F7FC01319799
:10183000F1F7FC013197F1F7FC013197F1F7FC0169
:101840003197F1F7FC013197F1F7FC013197F1F78E
:10185000FC013197F1F7F9013197F1F72D9AB801B1
:10186000F80107C0A1706F5F7F4FEF4FFF4FA030AF
:1018700059F0DC011197F1F7A1E069377105E00734
:10188000F10780F3A12DEECFFA013197F1F72D98F2
:10189000FC013197F1F7FC013197F1F7FC01319729
:1018A000F1F7FC013197F1F7FC013197F1F7FC01F9
:1018B0003197F1F7FC013197F1F7FC013197F1F71E
:1018C000FC013197F1F7FC013197F1F7FC013197F9
:1018D000F1F7FC013197F1F7FC013197F1F7FC01C9
:1018E0003197F1F7FC013197F1F7FC013197F1F7EE
:1018F000FC013197F1F7FC013197F1F7FC013197C9
:10190000F1F7FC013197F1F7FC013197F1F7FC0198
:101910003197F1F7FC013197F1F7FC013197F1F7BD
:10192000F9013197F1F72D9AB801F80109C0A170BA
:101930006F5F7F4FEF4FFF4FA03011F40C94B2094F
:10194000DC011197F1F7A1E069377105E007F107B4
:1019500070F3A12DECCF89E090E04C01CE0101960F
:101960001C0107C0817080309601750111F00C9444
:101970008F092901B201C7012AE030E03901A8012D
:101980000E94651A69015A01B601C5019301A801B7
:101990000E94651A6063C4010197D1014C01A80F30
:1019A000B91F6C9381E0920124363105E006F106FF
:1019B00008F4D8CF812DD6CF0F920FB60F922F9368
:1019C0003F938F939F938091720190917301209127
:1019D000740130917501805F9F4F2F4F3F4F90935F
:1019E00073018093720130937501209374019F916C
:1019F0008F913F912F910F900FBE0F9018950F92DE
:101A00000FB60F928F9381E0809385018F910F9095
:101A10000FBE0F9018950F920FB60F921F921124C0
:101A20008F9381E08093860180918401813019F445
:101A3000109284012A9A8F911F900F900FBE0F90E1
:101A400018950F920FB60F922F933F938F939F93FA
:101A5000AF93BF93EF93FF9381E0809386018091D2
:101A6000780090917900209183013327220F331F52
:101A700029583E4FF9019183808380918301982FEB
:101A800093959370909383018E5F8370A82FBB27EB
:101A9000A158BE4F8C9190917C00907F982B909391
:101AA0007C00FF91EF91BF91AF919F918F913F91FA
:101AB0002F910F900FBE0F9018950E945F0D2F92DF
:101AC0003F924F925F926F927F928F929F92AF92CE
:101AD000BF92CF92DF92EF92FF920F931F93CF931B
:101AE000DF93CDB7DEB76C970FB6F894DEBF0FBEAD
:101AF000CDBF9FB7F89480918601803011F00C948F
:101B0000601981E0809386019FBF53985B9A92E0B1
:101B10009DBB98E09093690097E890937A0090E4D9
:101B200090937C0090917E00906190937E003C9811
:101B3000449890917E00906290937E003D984598E5
:101B400052985A9A3A98429A3998419A2D98259AD9
:101B50002B98239A24982C9A2A98229A90E59CBD37
:101B60008DBD789480917C00807F846080937C0020
:101B700080917A00806480937A0080917A008074EA
:101B80008030D9F7809178009091790020917C0085
:101B9000207F256020937C0020917A002064209390
:101BA0007A0020917A0020742030D9F720917800B3
:101BB0003091790040917C00407F466040937C00EA
:101BC00040917A00406440937A0040917A004074DA
:101BD0004030D9F7409178005091790060917C00B5
:101BE000607F676060937C0060917A0060646093BE
:101BF0007A0060917A0060746030D9F76091780063
:101C000070917900E6E0F7E0F0938201E0938101C2
:101C1000E4E0F5E0F0938001E0937F0170937E01B2
:101C200060937D0150937C0140937B0130937A0156
:101C3000209379019093780180937701109283012A
:101C400021E0209376012093860184E480937C0038
:101C500010927B008FEE80937A0080917C00807FD1
:101C6000856080937C005C98549A5D98559A5E9844
:101C7000569A5F98579A2098289A86B176B13A98E2
:101C80004298399841982998219A32E034BD9AEFC8
:101C900097BD95E095BD30936E0016BC20938601EC
:101CA0001C8EA0E0B0E0BB8FAA8FB98FA88FBF8B2E
:101CB000AE8BBD8BAC8B9BB19F7090619BB9309309
:101CC000B00094E09093B10098E79093B300309304
:101CD00070008470803083E009F082E072707827B1
:101CE000CE0147969B838A8380ED97E0998788870A
:101CF000BD87AC87BB87AA87012DE12DE12C812D03
:101D00008D83B98BA88BBF87AE87BF83AE83812DB0
:101D10008B8B7A8B24C0A82FB82FBB0FBB0BA3597A
:101D2000BE4F9C91D10181E080938601892F8295DD
:101D30008F709F709295907F982B892F8373880F57
:101D4000880F969596959373982B892F8575880F94
:101D500096959575982B8BB18F70892B8BB9EC82EA
:101D60002AC091E081E08D83909386018D89A82F10
:101D7000BB27A359BE4F8C91D301982F92959F708A
:101D80008F708295807F892B982F9373990F990F6D
:101D9000869586958373892B982F9575990F8695CF
:101DA0008575892B9BB19F70982B9BB9809184017D
:101DB000803009F470C1702E8FB7F894C0907D0107
:101DC000D0907E01E0907B01F0907C01A0907901A1
:101DD000B0907A0180907701909078018FBF96B58E
:101DE000009174011091750120907201309073017F
:101DF00086B59817982FA0F791E0E03031E009F40C
:101E0000312D6E2E23B12170522E203009F0912DEC
:101E100039273170432E282F3327220F331F9A2F53
:101E2000991F220F331F991F832F722F612D20E8D6
:101E30003EE3AD010E94651A220D331D401F511F64
:101E4000842D803081F001E05026E52D3D872C87E0
:101E50005B874A87AA89A0E0B0E08B8981708030D7
:101E600009F0A4CF43C0872D803009F435C0C901E3
:101E70006C857D85861B970BBA01EA85FB856E0B09
:101E80007F0B01E081329105A0E0B0E06A077B079B
:101E900081E008F0812D81708030AA89E62D09F05B
:101EA00020C0E13009F046C06D89862F9927623045
:101EB00091050CF094C08115910509F0A0C0BA8F6E
:101EC000A98FB88FAF8BBC8FAB8F1E8A80E091E05B
:101ED0009D8B8C8B84E0AAC0012DAA89A0E0B0E084
:101EE000E62D8B898170803009F060CF3D0181E063
:101EF000A885B985A217B307AE81BF81A407B5072E
:101F000008F0812D8170803009F444C08D899E894C
:101F100082304CF4A92FB92FBB0FBB0B803091F44A
:101F2000AC59BE4F18C0823081F48CE09030A1F0E3
:101F300083E012C0E12D012D8B898170803009F082
:101F400035CFD4CFA759BE4F06C0A92FB92FBB0F8D
:101F5000BB0BA359BE4F8C91A1E091E09B8BA0934A
:101F60008601982F92959F708F708295807F892B24
:101F7000982F9373990F990F869586958373892B64
:101F8000982F9575990F86958575892B9BB19F70B4
:101F9000982B9BB981E0A889B989A217B307AE85B0
:101FA000BF85A407B50708F0812D81708030D3016B
:101FB00009F4FCCE2C593F4F398B288B4F4F5F4F84
:101FC0005F874E878D818170803009F4CACE81E0B1
:101FD000809386019BB19F70812D8D83E6CE8230E8
:101FE0009105D1F4BA8FA98FB88FAF8BBC8FAB8F0F
:101FF0001E8A80E093E09D8B8C8B81E017C0BA8FA6
:10200000A98FB88FAF8BBC8FAB8F1E8A80E092E018
:102010009D8B8C8B82E00AC01C8EBB8FAA8FB98FE0
:10202000A88FBF8BAE8BBD8BAC8B88E061E091E05D
:102030009D83609386018295982F907F8F70892B66
:10204000982F9373990F990F869586958373892B93
:10205000982F9575990F86958575892B9BB19F70E3
:10206000982B9BB9C9018C599F4F998B888BCA01BA
:102070008F4F9F4F9F878E87C9018053984F9987B5
:102080008887CA018F4F9F4F9F838E83812D8B8BB3
:10209000012DE1E02BCF702E29B19FB7F8948091EC
:1020A0008501109285019FBF122F147051E092E0BC
:1020B000103009F091E00C810170003039F4229564
:1020C000207F220F220F220B2370922F212F269583
:1020D00026952C834D89242F3327423031051D014D
:1020E0000CF052C02115310509F07BC0AB8DBC8DC1
:1020F0008030072D29F08E898670823009F402C164
:10210000892F8250823008F0FAC0A72F6E2E8E8958
:10211000682F7727823071050CF4E2C162307105B7
:1021200009F464C3633081ED93E0710509F078C36D
:102130008E199F09F12C21E0823D33E0930708F4CA
:102140002F2D162D20309101EC8009F49C01922D49
:102150009295907F32959327307F9327229532274F
:10216000207F3227832F722F612D21ED33E0A101D3
:102170000E94651AB9016F3F8FE0780708F455C2D5
:102180008FEF9FE0BC0151C22230310509F05CC0E5
:10219000803009F05CC06E2E8E89803009F451C108
:1021A0008A819B81B701A60121E00E9453038170BF
:1021B0008030AA8920E030E01901EC8051E009F478
:1021C0000EC3003009F40AC3103009F007C38FEFC3
:1021D0009FEF9A8F898F988F8F8BB101212D072DBB
:1021E000DAC7AB8DBC8D9230072D0CF041C021EDCC
:1021F00033E0903009F0A8C02A193B0941E0223DA4
:1022000083E0380781E0EC8008F4812D8030C10143
:1022100009F4C9011E2F9C0132952295307F322787
:10222000207F3227220F331F220F331F220F331F2D
:10223000893E940708F474C12050344FB901893E97
:10224000940708F074C174C1803009F432C0CD0124
:10225000A72F6E2E9A8F898F988F8F8B8E891E8ACB
:1022600021E0803009F4212DB101EC80072D93C7C6
:10227000923009F092C0A72F6E2E8E89682F772793
:10228000823071050CF0D9C161157105212DEC80EA
:1022900009F481C7162D212D8A819B81B401A501E6
:1022A000F22E0E9453038170803009F4BEC182E097
:1022B0009AC62E89822F9927223091050CF09AC058
:1022C0008115910533E081ED93E009F047C188194C
:1022D000990921E0823D9307EC8008F057C1212D38
:1022E00020308D0109F456C1011582E0180708F06D
:1022F00057C1FE2E169507951695079592C39030F7
:1023000009F0B4C081ED93E08819990921E02E8B82
:10231000823D33E0930708F4212D2030810109F438
:102320008C01F12CB295B07FA295BA27A07FBA2775
:10233000011582E0180708F07BC05D01DE2E1695BE
:10234000079516950795C8C12C193D0983E08E8B1A
:1023500041E0223D380781E0EC8008F4812D803097
:10236000C10109F4C9011E2F9C0132952295307FCD
:102370003227207F3227220F331F220F331F220FD5
:10238000331F893E940708F413C12050344FB9011C
:10239000893E940708F013C113C1803009F42AC1A3
:1023A00021ED33E02A193B0941E0223D83E0380763
:1023B00081E008F4812D8030C101EC8009F4C9016D
:1023C0001E2F9C0132952295307F3227207F3227A5
:1023D000220F331F220F331F220F331F893E940712
:1023E00008F45AC22050344FB901893E940708F0CE
:1023F0005AC25AC28230910533E081ED93E009F070
:1024000038C18E199F0921E0823D930708F4212DE0
:1024100020308D0109F48C01011582E01807EC8051
:1024200008F05BC2FE2E1695079516950795DBC33F
:1024300001155D01DE2E130708F03FC10058114061
:102440004BC1212D8A819B81B401A501122F0E94CD
:1024500053038170803009F0ABC1AA8980E090E01D
:102460001C01EC80072D51E0212F95C684E08E8B56
:102470008FEF9FE08A1B9B0B9295907F8295982708
:10248000807F9827F12CE12C5C019A8F898FF88E40
:10249000EF8A81ED93E08C199D0921E0823D33E0C4
:1024A000930770F4212D2030810169F0011582E03D
:1024B000180770F4DE2E169507951695079530C20D
:1024C0002030810199F78C01011582E0180790F303
:1024D0000115DE2E130708F014C20058114020C267
:1024E00061157105212DEC8009F455C681ED93E04D
:1024F0008819990921E0823D33E0930708F0A8C1CB
:10250000212D20308101F62C09F4A7C1011582E0AC
:10251000180708F0A8C11695079516950795E2C308
:1025200060E074EF621B730B893E940708F0412D45
:10253000CD0192958295907F9827807F98276D0195
:102540000E94C305B6019A8F898F80E090E02C012C
:102550001201588E4F8A21E02E8BBCC18A199B092B
:1025600021E0823D9307EC8008F071C0212D2030DE
:102570008D0109F470C0011582E0180708F071C0E0
:10258000FE2E1695079516950795B8C220308D0139
:1025900009F0AACE8C01011582E0180708F4A9CE33
:1025A0000115FE2E130708F02DC20058114039C244
:1025B00060E074EF621B730B893E940708F0412DB5
:1025C000CD018095909592958295907F9827807FF8
:1025D00098276D010E94C305B6019A8F898F80E00C
:1025E00090E02C011201588E4F8AAA89612E51E089
:1025F00021E0D1C5A72F6E2E8E89682F77278230D4
:102600007105DCF461157105212DEC8009F4C3C559
:10261000162D212D8A819B81B401A501F22E0E94E5
:1026200053038170803009F0D9C4AA8980E090E01A
:102630001C01612E51E02F2DAEC56230710509F0ED
:10264000BFC08FEF9FE0BC01212DEC80A4C52030DE
:102650008D0109F090CF8C01011582E0180708F474
:102660008FCF0115FE2E130708F039C20058114014
:1026700045C28C199D0921E0823D930740F4212D2C
:102680002030BD01EC8039F0003049F42EC12030FB
:10269000BD01EC80C9F7BC01003009F426C110303F
:1026A00009F023C1611582E0780708F004C3FE2E0B
:1026B000769567957695679527C51302802D112429
:1026C000039F212D1124280F322F2227002D11279F
:1026D000022B132B00581740B801C10121E631E548
:1026E000A1010E94551A969587957795969587959D
:1026F00077950115110521E030E011F0272F382FD3
:102700000115110540E050E06FEF7FEF11F0492F08
:10271000512DEF2CCB010E94651A2E0D3F1D4A1D35
:102720005B1D81E02E153F054A055B0591E0072DF5
:1027300008F0912D9030EFEFFFEFBF01AA896D2CCB
:10274000EC8009F4BA019030AF01E0E0F0E01F0145
:1027500009F4A9014F3F9FEF59072FEF3FEF6207A1
:10276000730791E009F0912D91709030910109F477
:102770009B013A8F298F9030910109F49A01388F8B
:102780002F8B4F3F9FEF59072FEF3FEF62077307E4
:1027900009F4812D8170803051E011F482E08E8B3C
:1027A00062956F70729567277F70672721E0F3C489
:1027B00021E02E8BAA8980E090E01C01EC80E9C426
:1027C000162D8A819B81B701A60121E00E94530347
:1027D0008170803009F006C1212D06C11E8A21E0DA
:1027E0008030072D09F0D7C4212DD5C481ED93E0A9
:1027F0008A199B0921E0823D33E0930708F03AC033
:10280000212D20308101D62C09F439C0011582E038
:10281000180708F03AC01695079516950795D5C282
:102820008C199D0921E0823D33E0930708F4212DA6
:1028300020308101EC80F62C09F48C01011582E036
:10284000180708F0D8C016950795169507955FC329
:1028500020308101F62C09F059CE8C01011582E05F
:10286000180708F458CE0115130708F02CC20058B9
:10287000114038C220308101D62C09F0C7CF8C011D
:10288000011582E0180708F4C6CF0115130708F0F8
:102890008DC20058114099C260E074EF621B730B47
:1028A000893E940708F0412DCD0192958295907F45
:1028B0009827807F98276D010E94C305B6019A8FE3
:1028C000898F80E090E02C011201588E4F8A21E020
:1028D0002E8B2C8BAA89612E5DC40115FE2E130749
:1028E00008F072C1005811407EC1611582E078077E
:1028F000072D08F0D8C11E2F7695679576956795B8
:1029000088C31302802D1124039F212D1124280F29
:10291000322F2227002D1127022B132B005817408E
:10292000B801C10121E631E5A1010E94551A969531
:10293000879577959695879577950115110521E0EF
:1029400030E011F0272F382F0115110540E050E03D
:102950006FEF7FEF11F0492F512DCB010E94651AC7
:102960002E0D3F1D4A1D5B1D81E02E153F054A05BA
:102970005B0591E0072D08F0912D9030EFEFFFEF10
:10298000BF01AA896D2CEC8009F4BA019030AF0127
:10299000E0E0F0E01F0109F4A9014F3F9FEF590764
:1029A0002FEF3FEF6207730709F0812D81708030B0
:1029B000910109F49B013A8F298F8030910109F42C
:1029C0009A01388F2F8B803009F01E8A62956F70C4
:1029D000729567277F7067278FEF9FE068277927B9
:1029E00021E0D8C31E8A21E0AA8980E090E01C0182
:1029F000612EEC80CFC30115130708F079C200588F
:102A0000114085C21302802D1124039F212D112412
:102A1000280F322F2227002D1127022B132B0058AD
:102A20001740B801CD0121E631E5AD010E94551AEC
:102A300096958795779596958795779501151105C4
:102A400021E030E011F0272F382F0115110540E06B
:102A500050E06FEF7FEF11F0492F512DCB010E9415
:102A6000651A8F89988D698D7A8D280F391F461FB9
:102A7000571F281739074607570781E0072D08F029
:102A8000812D8030EFEFFFEFBF01AA896F2C09F491
:102A9000BA018030CF0140E050E01A0109F4C901C9
:102AA0008F3F2FEF92072FEF3FEF6207730721E071
:102AB00009F0212D322F21702030A10109F4AC0141
:102AC000588F4F8B2030C10109F4CB019A8F898F29
:102AD000203051E0232F09F462C181E05FC113026D
:102AE000802D1124039F212D1124280F322F2227FE
:102AF000002D1127022B132B00581740B801CD01D0
:102B000021E631E5AD010E94551A96958795779596
:102B10009695879577950115110521E030E011F024
:102B2000272F382F0115110540E050E06FEF7FEFA0
:102B300011F0492F512DCB010E94651A6F89788DB4
:102B4000E98DFA8D260F371F4E1F5F1F81E0261774
:102B500037074E075F0791E0072D08F0912D903061
:102B6000EFEFFFEFBF0109F4BA019030AF01E0E0F1
:102B7000F0E02F0109F4A9014F3F9FEF59072FEF14
:102B80003FEF6207730709F0812D81708030920159
:102B900009F49A01388F2F8B80301201920109F4C9
:102BA0009B013A8F298F80308FEF9FE0BC01212D50
:102BB000AA896F2C51E009F4EEC282E08E8B21E0ED
:102BC0008FEF9FE0BC01E7C21302802D1124039F09
:102BD000212D1124280F322F2227002D1127022BFF
:102BE000132B00581740B801CD0121E631E5AD01A6
:102BF0000E94551A9695879577959695879577951E
:102C00000115110521E030E011F0272F382F0115B3
:102C1000110540E050E06FEF7FEF11F0492F512D8B
:102C2000CB010E94651A8F89988D698D7A8D280F46
:102C3000391F461F571F281739074607570781E0D6
:102C4000072D08F0812D8030EFEFFFEFBF01AA893B
:102C50006F2C09F4BA018030CF0140E050E01A0136
:102C600009F4C9018F3F2FEF92072FEF3FEF620763
:102C7000730721E009F0212D322F21702030A101AE
:102C800009F4AC01588F4F8B2030C10109F4CB01FE
:102C90009A8F898F203051E0232F11F083E08E8BA3
:102CA000609570957CC061151E2F730708F0A2C156
:102CB00060587140AEC16115FE2E730708F015C251
:102CC0006058714021C21302802D1124039F212DD1
:102CD0001124280F322F2227002D1127022B132B0E
:102CE00000581740B801C10121E631E5A1010E9459
:102CF000551A9695879577959695879577950115A9
:102D0000110521E030E011F0272F382F01151105B2
:102D100040E050E06FEF7FEF11F0492F512DCB01D4
:102D20000E94651A8F89988D698D7A8D280F391FB9
:102D3000461F571F281739074607570781E0072DF9
:102D400008F0812D8030EFEFFFEFBF01AA896F2CD3
:102D500009F4BA018030CF0140E050E01A0109F4D3
:102D6000C9018F3F2FEF92072FEF3FEF62077307E5
:102D700021E009F0212D322F21702030A10109F42A
:102D8000AC01588F4F8B2030C10109F4CB019A8FD1
:102D9000898F203051E0232F11F082E08E8B6295D5
:102DA0006F70729567277F706727F5C11302802DBA
:102DB0001124039F212D1124280F322F2227002DAB
:102DC0001127022B132B00581740B801C10121E62F
:102DD00031E5A1010E94551A9695879577959695AC
:102DE000879577950115110521E030E011F0272F27
:102DF000382F0115110540E050E06FEF7FEF11F023
:102E0000492F512DCB010E94651A8F89988D698DAC
:102E10007A8D280F391F461F571FE1E0E9832817D5
:102E200039074607570781E008F0812D80306FEFA2
:102E30007FEF8B0109F48A018030CB0140E050E044
:102E400009F4C9018F3F2FEF92070607170711F00A
:102E5000212D2983298121702030BA0109F4BC0178
:102E6000788F6F8B2030CA0109F4C8019A8F898F3F
:102E7000203033E009F03E8B81ED93E08E199F09FD
:102E800021E0823D930708F4212D20309A0109F4B6
:102E90009C01942F9295907F32959327307F9327B2
:102EA00022953227207F3227832F722F612D21ED2B
:102EB00033E00E94651A2F3F8FE0380710F02FEFA4
:102EC0003FE08FEF9FE07C012E253F25B80100E019
:102ED00010E01801C101A1010E94551ABC016E2524
:102EE0007F25AA896D2CEC80072D51E0298153C1E3
:102EF0001302802D1124039F212D1124280F322F1E
:102F00002227002D1127022B132B00581740B80140
:102F1000C10121E631E5A1010E94551A96958795D8
:102F200077959695879577950115110521E030E005
:102F300011F0272F382F0115110540E050E06FEFF9
:102F40007FEF11F0492F512DCB010E94651A8F8917
:102F5000988D698D7A8D280F391F461F571F2817A6
:102F600039074607570781E0072D08F0812D80308B
:102F7000EFEFFFEFBF01AA896F2C09F4BA0180308F
:102F8000CF0140E050E01A0109F4C9018F3F2FEF53
:102F900092072FEF3FEF6207730721E009F0212D21
:102FA000322F21702030A10109F4AC01588F4F8BD2
:102FB0002030C10109F4CB019A8F898F203051E074
:102FC000232F09F01E8A62956F70729567277F70B4
:102FD00067278FEF9FE068277927DDC09C8982E013
:102FE000903009F083E08E8B21E0AA8980E090E0A8
:102FF0001C0171CC7302802D1124639F212D11249B
:10300000280F322F2227602D7727622B732B6058D1
:103010007740CD0121E631E56B01AD010E94551AE3
:10302000A6019695879577959695879577954115FD
:10303000510521E030E011F0272F382F41155105BF
:1030400040E050E06FEF7FEF11F0492F512DCB01A1
:103050000E94651A6F89788DE98DFA8D260F371FCA
:103060004E1F5F1F81E0261737074E075F0791E06D
:1030700008F0912D9030EFEFFFEFBF0109F4BA0196
:103080009030AF01E0E0F0E02F0109F4A9014F3FDB
:103090009FEF59072FEF3FEF6207730791E009F0A9
:1030A000912D91709030920109F49A01388F2F8BF5
:1030B0009030920109F49B013A8F298F4F3F9FEF87
:1030C00059072FEF3FEF6207730709F4812D8170D5
:1030D00080301201B201212DAA89612E51E009F040
:1030E0005AC01E8A21E0B10156C07302802D1124FE
:1030F000639F212D1124280F322F2227602D77273F
:10310000622B732B60587740CD0121E631E56B01CE
:10311000AD018D010E94551AA60196958795779568
:103120009695879577954115510521E030E011F08E
:10313000272F382F41155105A8016FEF7FEF11F0B0
:10314000492F512DCB018B010E94651A6F89788D13
:10315000E98DFA8D260F371F4E1F5F1F81E026175E
:1031600037074E075F0708F0812D8030B80109F45A
:10317000B901788F6F8B8030C80120E030E02901E1
:1031800009F4CA019A8F898F1201B201212DAA89EF
:103190006F2C072D51E0E5267C8F6B8F2A9870638A
:1031A0007EBD8DB58823EAF78EB56EBD7A2F8DB5BD
:1031B0008823EAF78EB581E0809384012170203066
:1031C000E62DD10111F40C94AF0E8E899D897230D9
:1031D00054F4703091F492300CF023C0903082306F
:1031E00008F440C03BC0723081F492300CF021C032
:1031F0009030803009F032C035C092300CF021C0E0
:103200009030803009F02EC029C0292F2250223062
:1032100008F428C09030F1F4282F2A952330F0F0DC
:1032200021C09230B9F425B12D7F8030312DC1F409
:103230001CC0923099F025B12D7F8330312D80F064
:1032400014C0923009F035C025B12D7F8030312D6A
:1032500061F406C0282F2A95223020F425B12D7F55
:1032600032E003C025B12D7F312D232B25B92B89C9
:103270002170203011F40C94AF0E923054F4A82F2A
:10328000B82FBB0FBB0B903081F4AC59BE4F0C94E0
:10329000910E923011F00C948B0E9CE0803011F462
:1032A0000C94930E93E00C94930EA759BE4F0C947C
:1032B000910E25B12D7F8330312D08F0D1CFD5CFA0
:1032C0009FBF89E391E06BE270E00E94301A2F9279
:1032D0003F924F925F926F927F928F929F92AF92A6
:1032E000BF92CF92DF92EF92FF920F931F93CF93F3
:1032F000DF93CDB7DEB726970FB6F894DEBF0FBECB
:10330000CDBF260145015C011B015C834B83390164
:10331000B701C8010E94551A8B016C01B4015E828D
:103320004D82C2019101A5010E94551A5B017C01E9
:10333000A00EB11EEC1CFD1C00E010E0B201C801A3
:103340009301A8010E94551A6B011C01B401C80128
:103350004B805C809201A8010E94551AC60ED71EB0
:10336000281E391EC801881F991F9A838983B401BA
:10337000C8019301A8010E94551A4B013C016D81BF
:103380007E81C8019201A8010E94551A6C0C7D1C17
:10339000621D731D29813A81821F931F6A0D7B1D57
:1033A0008E1D9F1D9401A30126960FB6F894DEBFD3
:1033B0000FBECDBFDF91CF911F910F91FF90EF9086
:1033C000DF90CF90BF90AF909F908F907F906F9045
:1033D0005F904F903F902F900895CF93DF93CDB79C
:1033E000DEB72A970FB6F894DEBF0FBECDBF9A871F
:1033F00089878CE091E09E838D8381E791E09C83B7
:103400008B8380E091E098878F8381E090E09A83BE
:103410008983CE0101960E94E90708952DE637ECD5
:10342000FC01378726878DEE95E29587848789EBA7
:103430009EE19387828783EB9EED9187808786EB61
:103440009DEA9783868387E59EE89583848385ED4F
:103450009BEA9383828385E992E691838083089532
:10346000CF93DF93CDB7DEB760970FB6F894DEBF8A
:103470000FBECDBF20E030E03A87298741E050E021
:103480005C834B83AE01435F5F4F5A834983388728
:103490002F8321E731E03E832D83788B6F879E87D2
:1034A0008D87CE0101960E94ED19DB018F939F93CA
:1034B0000E94871ABF91AF91A29F800D911DA39F7B
:1034C000900DB29F900D11240895A1E21A2EAA1B0F
:1034D000BB1BFD010DC0AA1FBB1FEE1FFF1FA217C4
:1034E000B307E407F50720F0A21BB30BE40BF50BC1
:1034F000661F771F881F991F1A9469F7609570954A
:10350000809590959B01AC01BD01CF0108950E946B
:10351000F11AA59F900DB49F900DA49F800D911D51
:1035200011240895689401C0E8948F929F92CF93DC
:10353000DF930E94A01ADF91CF919F908F90089502
:1035400088249924F401E401B0E49F93AA279A15F2
:103550008B049C04ED05FE05CF05D007A10798F468
:10356000AD2FDC2FCF2FFE2FE92D982C892E982FF1
:10357000872F762F652F542F432F322F2227B850B5
:1035800031F7BF9127C01B2EBF91BB27220F331FDE
:10359000441F551F661F771F881F991F881C991C81
:1035A000EE1FFF1FCC1FDD1FAA1FBB1F8A149B0429
:1035B000EC05FD05CE05DF05A007B10748F08A1828
:1035C0009B08EC09FD09CE09DF09A00BB10B2160B6
:1035D0001A94E1F62EF49401AF01BE01CD01000C66
:1035E0000895A29FB001B39FC001A39F700D811DDC
:1035F0001124911DB29F700D811D1124911D0895FC
:04360000F894FFCF6C
:1036040014010A0000000000000000000D1A000070
:1036140001000E1A3C72656461637465643E0000C7
:10362400617474656D707420746F20646976696464
:1036340065206279207A65726F63616C6C656420C1
:10364400604F7074696F6E3A3A756E777261702864
:103654002960206F6E206120604E6F6E6560207659
:10366400616C75650008040201000C000308040283
:02367400010053
:00000001FF
