:100000000C9434000C940D1B0C946B1B0C9451003D
:100010000C9451000C9451000C9451000C9451001C
:100020000C9451000C9451000C9451000C9451000C
:100030000C9451000C9451000C94721A0C945100C1
:100040000C9451000C9451000C9451000C945100EC
:100050000C9451000C94951A0C9451000C9451007E
:100060000C9451000C94510011241FBECFEFD8E026
:10007000DEBFCDBF13E0A0E0B1E0E8EEF3E502C0E3
:1000800005900D92A033B107D9F723E0A0E3B3E0C8
:1000900001C01D92A137B207E1F70E94721B0C94B8
:1000A000F2290C9400002F923F924F925F926F9230
:1000B0007F928F929F92AF92BF92CF92DF92EF92F8
:1000C000FF920F931F93CF93DF93CDB7DEB7CA5A3A
:1000D000D0400FB6F894DEBF0FBECDBF0FB6CD5ADD
:1000E000DF4F7FAF6EAFC355D0400FBEFC018080A5
:1000F0009180628173810FB6C759DF4F7FAF6EAFBA
:10010000C956D0400FBEA0E0B0E0680D791DCD010A
:10011000881F991F24803580620D731D8A1F9B1FC5
:1001200046805780640D751D8A1F9B1F60847184F3
:10013000660D771D8A1F9B1FA284B3846A0D7B1DE9
:100140008A1F9B1FC484D5840FB6CB5ADF4FDFAE06
:10015000CEAEC555D0400FBE6C0D7D1D8A1F9B1FB6
:10016000C684D7840FB6C95ADF4FDFAECEAEC755AF
:10017000D0400FBE6C0D7D1D8A1F9B1FC088D1888B
:100180000FB6C75ADF4FDFAECEAEC955D0400FBE57
:100190006C0D7D1D8A1F9B1FC288D3880FB6C55A60
:1001A000DF4FDFAECEAECB55D0400FBE6C0D7D1D08
:1001B0008A1F9B1FC488D5880FB6C35ADF4FDFAE96
:1001C000CEAECD55D0400FBE6C0D7D1D8A1F9B1F3E
:1001D000C688D7880FB6C15ADF4FDFAECEAECF5537
:1001E000D0400FBE6C0D7D1D8A1F9B1FC08CD18C13
:1001F0000FB6CF59DF4FDFAECEAEC156D0400FBEE7
:100200006C0D7D1D8A1F9B1FC28CD38C0FB6CD59E0
:10021000DF4FDFAECEAEC356D0400FBE6C0D7D1D9E
:100220008A1F9B1FC48CD58C0FB6CB59DF4FDFAE16
:10023000CEAEC556D0400FBE6C0D7D1D8A1F9B1FD4
:10024000C68CD78C0FB6C959DF4FDFAECEAEC756BE
:10025000D0400FBE6C0D7D1D8A1F9B1F62956F7075
:10026000729567277F706727829578278F70872719
:10027000782F681579050FB6CE5BDF4F3FAF2EAFF5
:10028000C254D0400FBE0FB6EE961FAF0EAFEE9722
:100290000FBE0FB6EC965FAF4EAFEC970FBE0FB62A
:1002A000EA96FFAEEEAEEA970FBE0FB6C15BDF4F28
:1002B0009FAE8EAECF54D0400FBE20F09B012819C8
:1002C000390903C09401261B370B7B01B90140E0BB
:1002D00050E0CA010E94B2278B014C010FB6C759EA
:1002E000DF4F8EAD9FADC956D0400FBEE816F90660
:1002F0000FB6C559DF4FFFAEEEAECB56D0400FBEA6
:1003000020F09701281B390B03C09C012E193F09CF
:10031000B90140E050E0CA010E94B227600F711F8E
:10032000881D991DF12C21E00FB6CF5ADF4F2EAF5B
:10033000C155D0400FBE601771078805990521E0AF
:1003400008F02F2D0FEF1FEF2030480109F44B016B
:100350002030680109F46C010FB6C559DF4F8EAD2E
:100360009FADCB56D0400FBE8215930520F09C0167
:100370002219330903C09101281B390BB90140E050
:1003800050E0CA010E94B227680D791D8C1D9D1D89
:10039000681579058C059D0521E0B8F02F2D2030DA
:1003A0004801B1F02030680109F46C010FB6C5595D
:1003B000DF4F8EAD9FADCB56D0400FBE8415950557
:1003C00060F09C01241935090BC02030480151F719
:1003D0004B012030680149F3E9CF9201281B390B0A
:1003E000B90140E050E0CA010E94B227680D791DB2
:1003F0008C1D9D1D681579058C059D0521E0B8F0C3
:100400002F2D20304801B1F02030680109F46C0133
:100410000FB6C559DF4F8EAD9FADCB56D0400FBE46
:100420008615970560F09C01261937090BC020300E
:10043000480151F74B012030680149F3E9CF93019E
:10044000281B390BB90140E050E0CA010E94B227D5
:10045000680D791D8C1D9D1D681579058C059D0500
:1004600021E0B8F02F2D20304801B1F02030680194
:1004700009F46C010FB6C559DF4F8EAD9FADCB5659
:10048000D0400FBE8A159B0560F09C012A193B09DC
:100490000BC02030480151F74B012030680149F36F
:1004A000E9CF9501281B390BB90140E050E0CA01A2
:1004B0000E94B227680D791D8C1D9D1D6815790558
:1004C0008C059D0521E008F41FC02F2D2030480128
:1004D000F1F02030680109F46C010FB6C559DF4F07
:1004E0008EAD9FADCB56D0400FBE0FB6CB5ADF4F6F
:1004F0004EAD5FADC555D0400FBE8417950760F077
:100500009C01241B350B0BC02030480111F74B0117
:100510002030680109F3E1CF9A01281B390BB9019A
:1005200040E050E0CA010E94B227680D791D8C1D81
:100530009D1D681579058C059D0521E008F41FC0F7
:100540002F2D20304801F1F02030680109F46C01B2
:100550000FB6C559DF4F8EAD9FADCB56D0400FBE05
:100560000FB6C95ADF4F4EAD5FADC755D0400FBE75
:100570008417950760F09C01241B350B0BC02030BD
:10058000480111F74B012030680109F3E1CF9A01CE
:10059000281B390BB90140E050E0CA010E94B22784
:1005A000680D791D8C1D9D1D681579058C059D05AF
:1005B00021E008F41FC02F2D20304801F1F0203039
:1005C000680109F46C010FB6C559DF4F8EAD9FADC0
:1005D000CB56D0400FBE0FB6C75ADF4F4EAD5FAD02
:1005E000C955D0400FBE8417950760F09C01241BAD
:1005F000350B0BC02030480111F74B01203068014A
:1006000009F3E1CF9A01281B390BB90140E050E012
:10061000CA010E94B227680D791D8C1D9D1D6815A9
:1006200079058C059D0521E008F41FC02F2D203091
:100630004801F1F02030680109F46C010FB6C5598A
:10064000DF4F8EAD9FADCB56D0400FBE0FB6C55A13
:10065000DF4F4EAD5FADCB55D0400FBE8417950731
:1006600060F09C01241B350B0BC02030480111F7B2
:100670004B012030680109F3E1CF9A01281B390BA7
:10068000B90140E050E0CA010E94B227680D791D0F
:100690008C1D9D1D681579058C059D0521E008F4CC
:1006A0001FC02F2D20304801F1F02030680109F4DF
:1006B0006C010FB6C559DF4F8EAD9FADCB56D04004
:1006C0000FBE0FB6C35ADF4F4EAD5FADCD55D04014
:1006D0000FBE8417950760F09C01241B350B0BC0DF
:1006E0002030480111F74B012030680109F3E1CFB8
:1006F0009A01281B390BB90140E050E0CA010E9461
:10070000B227680D791D8C1D9D1D681579058C0516
:100710009D0521E008F41FC02F2D20304801F1F085
:100720002030680109F46C010FB6C559DF4F8EAD5A
:100730009FADCB56D0400FBE0FB6C15ADF4F4EAD66
:100740005FADCF55D0400FBE8417950760F09C0178
:10075000241B350B0BC02030480111F74B01203012
:10076000680109F3E1CF9A01281B390BB90140E078
:1007700050E0CA010E94B227680D791D8C1D9D1D95
:10078000681579058C059D0521E008F41FC02F2D03
:1007900020304801F1F02030680109F46C010FB6F7
:1007A000C559DF4F8EAD9FADCB56D0400FBE0FB6B3
:1007B000CF59DF4F4EAD5FADC156D0400FBE84174D
:1007C000950760F09C01241B350B0BC020304801BD
:1007D00011F74B012030680109F3E1CF9A01281B82
:1007E000390BB90140E050E0CA010E94B227680D00
:1007F000791D8C1D9D1D681579058C059D0521E0D1
:1008000008F421C02F2D2030480109F41FC02030EA
:10081000680109F46C010FB6C559DF4F8EAD9FAD6D
:10082000CB56D0400FBE0FB6CD59DF4F2EAD3FADEA
:10083000C356D0400FBE8217930768F0A9019C01F0
:10084000241B350B0AC02030480109F74B0120302A
:10085000680101F3E0CF281B390BB90140E050E0FB
:10086000CA010E94B227680D791D8C1D9D1D681557
:1008700079058C059D0521E008F41FC02F2D20303F
:100880004801F1F02030680109F46C010FB6C55938
:10089000DF4F8EAD9FADCB56D0400FBE0FB6CB59BC
:1008A000DF4F4EAD5FADC556D0400FBE84179507E4
:1008B00060F09C01241B350B0BC02030480111F760
:1008C0004B012030680109F3E1CF9A01281B390B55
:1008D000B90140E050E0CA010E94B227680D791DBD
:1008E0008C1D9D1D681579058C059D0521E008F07E
:1008F0002F2D203048010FB6C959DF4F4EAD5FADE7
:10090000C756D0400FBE09F44B012030680109F4EE
:100910006C010FB6C559DF4F8EAD9FADCB56D040A1
:100920000FBE8417950720F09C01241B350B03C0D4
:100930009A01281B390BB90140E050E0CA010E941E
:10094000B227680D791D8C1D9D1D681579058C05D4
:100950009D0521E008F02F2D2030A8010FB6C759C2
:10096000DF4FEEADFFADC956D0400FBE0FB6CF5929
:10097000DF4FCEACDFACC156D0400FBE0FB6C15A70
:10098000DF4F8EAC9FACCF55D0400FBE09F4AC0109
:1009900020300FB6C959DF4FAEADBFADC756D040FE
:1009A0000FBE09F48B010031110580E090E048078B
:1009B00059070FB6C15BDF4F2EAD3FADCF54D040CE
:1009C0000FBE38F00FB6CF5ADF4FFEAEC155D04044
:1009D0000FBEE217F307CF010FB6CB59DF4F6EAD55
:1009E0007FADC556D0400FBE08F0C9012E173F0796
:1009F0000FB6C35ADF4FEEACFFACCD55D0400FBEA3
:100A000008F4EDC0F901E215F305910108F0ECC01E
:100A10002816390608F4EDC0F901E415F505920130
:100A200008F0ECC02816390608F4EDC01C01421489
:100A3000530408F0ECC0E615F705C30108F0CF0138
:100A4000421453040FB6CD59DF4F2EAD3FADC35600
:100A5000D0400FBE08F021016414750408F0FC01B9
:100A6000EA15FB05C5010FB6CB5ADF4F2EAC3FACE4
:100A7000C555D0400FBE08F4D1C0CF016414750431
:100A800008F0D0C0A614B70408F0FC01E215F30585
:100A9000C1010FB6C95ADF4F4EAC5FACC755D0404D
:100AA0000FBE08F4C5C0CF01A614B70408F0C4C037
:100AB0002A143B0408F0FC01E415F505C2010FB649
:100AC000C75ADF4F6EAC7FACC955D0400FBE08F49B
:100AD000B9C0CF012A143B0408F0B8C04214530433
:100AE00008F0FC01E615F705C3010FB6C55ADF4F44
:100AF000AEACBFACCB55D0400FBE08F4ADC0CF01FB
:100B00004214530408F0ACC06414750408F4ADC07A
:100B1000FC01EA15FB05C50108F0ACC064147504BE
:100B200008F4ADC03201A614B70408F0ACC0EE154D
:100B3000FF05C70108F4ADC0CF01A614B70408F043
:100B4000ACC0EA14FB0408F4ADC0FC01E815F905DB
:100B5000C40108F0ACC0EA14FB0408F4ADC0750190
:100B60008E149F0408F0ACC0EC15FD05C60108F416
:100B7000ADC0CF018E149F0408F0ACC0C814D904D6
:100B800008F4ADC0FC01E217F307C90108F0ACC0DE
:100B9000C814D90408F4ADC064012C153D0508F053
:100BA000ACC0E617F707CB0108F4ADC0CF012C1598
:100BB0003D0508F0ACC06217730708F4ADC0FC0136
:100BC000EA17FB07CD0108F0ACC06217730708F401
:100BD000ADC0B901A617B70708F0ABC0ABC0E215AE
:100BE000F305910108F414CF9F012816390608F087
:100BF00013CFE415F505920108F414CF9F012816D0
:100C0000390608F013CF4214530408F414CFF90145
:100C1000E615F705C30108F012CF12CF641475046E
:100C200008F430CF3201A614B70408F02ECF2ECF2F
:100C3000A614B70408F43CCF53012A143B0408F06F
:100C40003ACF3ACF2A143B0408F448CF1501421496
:100C5000530408F046CF46CF4214530408F454CF4F
:100C600021016414750408F053CFEA15FB05C50192
:100C700008F454CFCF016414750408F053CFA614C0
:100C8000B70408F454CFFC01EE15FF05C70108F0C6
:100C900053CFA614B70408F454CF5301EA14FB044D
:100CA00008F053CFE815F905C40108F454CFCF017B
:100CB000EA14FB0408F053CF8E149F0408F454CFB9
:100CC000FC01EC15FD05C60108F053CF8E149F04FE
:100CD00008F454CF4701C814D90408F053CFE217E1
:100CE000F307C90108F454CFCF01C814D90408F0A0
:100CF00053CF2C153D0508F454CFFC01E617F70738
:100D0000CB0108F053CF2C153D0508F454CF9601C4
:100D10006217730708F053CFEA17FB07CD0108F4F9
:100D200054CFCF016217730708F053CFA617B70748
:100D300008F0FC010FB6CF5ADF4F8EADC155D04041
:100D40000FBE8170A617B70708F0DB0180300FB621
:100D5000C759DF4FFFAFEEAFC956D0400FBE0FB639
:100D6000C959DF4FBFAFAEAFC756D0400FBE29F055
:100D700080E090E0BC010C94681402950F7012950D
:100D800001271F700127429514274F701427529591
:100D900045275F7045274115510509F044C0C8013A
:100DA00096958795802B912B9C01369527953695A6
:100DB0002795282B392BB901729562956F7067279B
:100DC0007F706727622B732BCB01892F9927862B86
:100DD000972B809590959C013695279525753575AF
:100DE000821B930B9C01237333739695879596957D
:100DF000879583739373820F931F9C01329522957D
:100E00002F7023273F702327280F391F2F703F7023
:100E1000C901892F9927820F931F907040968030C7
:100E200009F042C049C0CA0196958795842B952B3D
:100E30009C013695279536952795282B392BB90196
:100E4000729562956F7067277F706727622B732B8F
:100E5000CB01892F9927862B972B809590959C0104
:100E60003695279525753575821B930B9C01237349
:100E70003373969587959695879583739373820FB1
:100E8000931F9C01329522952F7023273F702327B3
:100E9000280F391F2F703F70C901892F9927820FA2
:100EA000931F9070803041F0282F000F111F441FB6
:100EB000551F2A952030C9F7212F342F452F512D4A
:100EC000B90160957095F02FE12DB12DA12D1F2F47
:100ED000110F012D001F112DE12CF12C06231723DA
:100EE000BA01609570956E217F21A01BB10BE60BB6
:100EF000F70BFF0F612D661F712DE12DF12D9695DA
:100F00008795A12DA795B82F912D812D281B390BE1
:100F10004A0B5B0B260F371F4E1F5F1F4058514B6C
:100F2000842F880F852F881F912D991F8F579040F0
:100F30000FB62C969FAF8EAF2C970FBE81704F7758
:100F400050704068803089F0819500E010E0280101
:100F500006C0220F331F441F551F913049F083955F
:100F600091E08030B1F3912DF4CF00E010E0280142
:100F700080E291E0211531054807590781E008F02A
:100F8000812D8170803019F4E0E0F3E002C0E0E0F0
:100F9000F2E0DF01A0640FB62B968EAF2B970FBE49
:100FA0008030C20111F480E89DEF220F331F441FEF
:100FB000551F220F331F441F551F480F591F220F63
:100FC000331F441F551F40505440241535054A0710
:100FD0005B0781E00CF0812D81708030B20109F453
:100FE000BD013D01DA01A61BB70BE22EEE0CF32E7C
:100FF000FF1CAA1FBB1F803009F4E068CF0180628C
:10100000E414F5040FB6E4969FAF8EAFE4970FBEDD
:10101000A807B90781E00CF0812D81708030B20102
:1010200031F40FB6E4966EAD7FADE4970FBE6D015F
:10103000C61AD70A0E2D000F1F2D111FCC1CDD1C48
:10104000803009F4E064CF018061041515050FB606
:10105000E2969FAF8EAFE2970FBEC806D90681E039
:101060000CF0812D81708030B20131F40FB6E29620
:101070006EAD7FADE2970FBE4601861A970AA02E8D
:10108000AA0CB12EBB1C881C991C803009F4E062AC
:10109000CF010896A414B5040FB6E0969FAF8EAFAB
:1010A000E0970FBE8806990681E00CF0812D0FB6FF
:1010B0002396DFAECEAE23970FBE81708030B20193
:1010C00031F40FB6E0966EAD7FADE0970FBE6401D0
:1010D000C61AD70A2A2C220C3B2C331CCC1CDD1C34
:1010E000803009F47096CF010496241435040FB6AD
:1010F000AE969FAF8EAFAE970FBEC806D90681E001
:101100000CF0812DBCAEABAE81708030B20131F4F9
:101110000FB6AE966EAD7FADAE970FBE5601A61A56
:10112000B70A622D660F732D771F0FB6CD59DF4FAB
:101130007FAF6EAFC356D0400FBEAA1CBB1C0FB60C
:10114000CB59DF4FBFAEAEAEC556D0400FBE8030DC
:101150000FB621961FAF0EAF21970FBE09F4389638
:101160008F0132960FB6CD59DF4F8EAD9FADC3566E
:10117000D0400FBE841595050FB6CB59DF4F8EAD0D
:101180009FADC556D0400FBE0FB6AC96FFAFEEAFC9
:10119000AC970FBE8E079F0781E00CF0812D817008
:1011A0008030B20131F40FB6AC966EAD7FADAC9726
:1011B0000FBE0FB6CB59DF4FEEADFFADC556D040D9
:1011C0000FBEE61BF70B0FB6CD59DF4F6EAD7FADEF
:1011D000C356D0400FBEA62EAA0CB72EBB1CEE1FC6
:1011E000FF1F803019F4C801049601C0C801BC017A
:1011F0000196A414B5040FB6AA969FAF8EAFAA9716
:101200000FBEE807F90781E00CF0812D8170803076
:101210000FB62796BFAFAEAF27970FBE9EAE8DAE6F
:10122000DAAEC9AEDB0109F4129682010050104813
:101230004D01AF4FBF4F0FB6C05CDF4FBFAFAEAF7A
:10124000C054D0400FBE8030C20131F40FB6AA9610
:101250008EAD9FADAA970FBEBF01681B790B8A2D7B
:10126000880F9B2D991F661F771F0FB6E6969FAFBD
:101270008EAFE6970FBE801791070FB6C05CDF4FA9
:101280008EAD9FADC054D0400FBE0FB6E8967FAF75
:101290006EAFE8970FBE6807790781E00CF0812DEB
:1012A000FEABEDAB0FB629967FAE6EAE29970FBEA3
:1012B00081708030B20109F4B8018030F20141F44C
:1012C0000FB6C05CDF4FEEADFFADC054D0400FBED7
:1012D0000FB6E696AEADBFADE6970FBEA61BB70B39
:1012E0000FB6E8966EAD7FADE8970FBE6E0B7F0B25
:1012F000AA0FBB1F661F771F0FB6CF59DF4F7FAFF7
:101300006EAFC156D0400FBEF401803009F4319663
:10131000C2018050904CBF016F4F7F4F0FB6A8960F
:101320009FAF8EAFA8970FBEA817B9070FB6CF59BA
:10133000DF4F8EAD9FADC156D0400FBE0FB6A69603
:101340007FAF6EAFA6970FBE8607970781E00CF0C0
:10135000812D4F0181708030B20131F40FB6A89613
:101360006EAD7FADA8970FBE1AAB09AB8030F2010E
:1013700031F40FB6A696EEADFFADA6970FBEB8AB93
:10138000AFA7A61BB70B0FB6CF59DF4F6EAD7FAD22
:10139000C156D0400FBE6E0B7F0BAA0FBB1F0FB6FE
:1013A000C15ADF4FBFAFAEAFCF55D0400FBE661FA3
:1013B000771F0FB6C35ADF4F7FAF6EAFCD55D0400A
:1013C0000FBEF201E050F048D401AF4FBF4F803064
:1013D000B20109F4BF01803009F44D01DB01A050D6
:1013E000B04E8401F401EF4FFF4F0FB6C15ADF4FEB
:1013F0008EAD9FADCF55D0400FBE8A179B070FB65D
:10140000C35ADF4F8EAD9FADCD55D0400FBE0FB646
:10141000A496FFAFEEAFA4970FBE8E079F0781E0A3
:101420000CF0812D81708030F20109F4FD01BEA71E
:10143000ADA78030D20131F40FB6A496AEADBFADEA
:10144000A4970FBE0FB6C15ADF4FCEACDFACCF555D
:10145000D0400FBECE1ADF0A0FB6C35ADF4FEEAD33
:10146000FFADCD55D0400FBEEA0BFB0BCC0CDD1C05
:10147000EE1FFF1F0FB6C55ADF4FFFAFEEAFCB55C4
:10148000D0400FBEFB01E050F04CD801AF4FBF4F32
:10149000803009F4BF018030C80109F4CD01DB01BF
:1014A000A050B04F8C01FC01EF4FFF4FCA16DB0676
:1014B0000FB6C55ADF4F8EAD9FADCB55D0400FBE96
:1014C0000FB6A296FFAFEEAFA2970FBE8E079F0793
:1014D00081E00CF0812D81708030F20109F4FD0172
:1014E000BAA7A9A78030D20131F40FB6A296AEAD4B
:1014F000BFADA2970FBEDCA6CBA6CE1ADF0A0FB6F1
:10150000C55ADF4FEEADFFADCB55D0400FBEEA0B55
:10151000FB0BCC0CDD1C0FB6C75ADF4FDFAECEAED7
:10152000C955D0400FBE6F01CC1CDD1CFB01E05043
:10153000F04ED801AF4FBF4F803009F4BF0180306B
:10154000C80109F4CD013501DB01A050B84F8C0171
:10155000FC01EF4FFF4F0FB6C75ADF4F8EAD9FAD67
:10156000C955D0400FBE8A179B070FB6A096FFAF94
:10157000EEAFA0970FBECE06DF0681E00CF0812D06
:10158000510181708030F20109F4FD011701BEA301
:10159000ADA38030D20131F40FB6A096AEADBFAD91
:1015A000A0970FBE0FB6C75ADF4FEEACFFACC955C0
:1015B000D0400FBEEE1AFF0AF601EA0BFB0BEE0C51
:1015C000FF1C0FB6C95ADF4FFFAEEEAEC755D04075
:1015D0000FBEEE1FFF1F0FB6CB5ADF4FFFAFEEAFB0
:1015E000C555D0400FBEFB01E050F04FD801AF4FC2
:1015F000BF4F803009F4BF018030C8010FB6259677
:101600003FAE2EAE25970FBE09F4CD01DB01A050F1
:10161000BC4F8C01FC01EF4FFF4F0FB6C95ADF4F93
:101620008EAD9FADC755D0400FBE8A179B070FB632
:10163000CB5ADF4F8EAD9FADC555D0400FBE0FB614
:101640006E96FFAFEEAF6E970FBE8E079F0781E0DD
:10165000B8AEAFAA0CF0812D81708030F2017CAA67
:101660006BAA09F4FD01BCA3ABA38030D20131F415
:101670000FB66E96AEADBFAD6E970FBE0FB6C95A20
:10168000DF4F6EAC7FACC755D0400FBE6E1A7F0ADD
:101690000FB6CB5ADF4FEEADFFADC555D0400FBEF4
:1016A000EA0BFB0B660C771CEE1FFF1F0FB6CF5A21
:1016B000DF4FFFAFEEAFC155D0400FBEFB01E05092
:1016C000F84FD801AF4FBF4F803009F4BF018030D1
:1016D000C80109F4CD01DB01A050BE4F8C01FC0113
:1016E000EF4FFF4F6A167B060FB6CF5ADF4F8EAD16
:1016F0009FADC155D0400FBE0FB66C96FFAFEEAF99
:101700006C970FBE8E079F0781E00CF0812D8170D2
:101710008030F20109F4FD01B8A3AF8F8030D2010F
:1017200031F40FB66C96AEADBFAD6C970FBE5301E2
:10173000AE1ABF0A0FB6CF5ADF4FEEADFFADC1559F
:10174000D0400FBEEA0BFB0BAA0CBB1C0FB6C15B53
:10175000DF4FBFAEAEAECF54D0400FBE7F01EE1C08
:10176000FF1CFB01E050FC4FD801AF4FBF4F803052
:1017700009F4BF018030C80109F4CD01DB01A0509C
:10178000BF4F8C01FC01EF4FFF4F0FB6C15BDF4F26
:101790008EAD9FADCF54D0400FBE8A179B070FB6BA
:1017A0006A96FFAFEEAF6A970FBEEE06FF0681E0C6
:1017B0000CF0812D81708030F20109F4FD01BC8FA5
:1017C000AB8F8030D20131F40FB66A96AEADBFADAB
:1017D0006A970FBE0FB6C15BDF4F2EAC3FACCF5444
:1017E000D0400FBE2E1A3F0AF701EA0BFB0B220C6A
:1017F000331C0FB6C55BDF4F3FAE2EAECB54D0408F
:101800000FBE1F01221C331CFB01E050FE4FD8010C
:10181000AF4FBF4F803009F4BF018030C80109F4D9
:10182000CD01DB01A058BF4F8C01FC01EF4FFF4FF2
:101830000FB6C55BDF4F8EAD9FADCB54D0400FBE12
:101840008A179B070FB66896FFAFEEAF68970FBE7B
:101850002E063F0681E00CF0812D81708030F20170
:1018600009F4FD01FE8EED8EBE8BAD8B8030D20172
:1018700031F40FB66896AEADBFAD68970FBE0FB628
:10188000C55BDF4FEEACFFACCB54D0400FBEEE1AC1
:10189000FF0AF101EA0BFB0BEE0CFF1C0FB6C85B55
:1018A000DF4FFFAEEEAEC854D0400FBE7F01EE1C3E
:1018B000FF1CFB01E050FF4FD801AF4FBF4F8030FE
:1018C00009F4BF018030C80109F4CD01DB01A05C3F
:1018D000BF4F8C01FC01EF4FFF4F0FB6C85BDF4FCE
:1018E0008EAD9FADC854D0400FBE8A179B070FB670
:1018F0006696FFAFEEAF66970FBEEE06FF0681E07D
:101900000CF0812D81708030F20109F4FD01BE8759
:10191000AD878030D20131F40FB66696AEADBFAD63
:1019200066970FBE0FB6C85BDF4F8EAC9FACC85436
:10193000D0400FBE8E1A9F0AF701EA0BFB0B880CF2
:10194000991C0FB6CA5BDF4F9FAE8EAEC654D04017
:101950000FBE4F01881C991CFB01E058FF4FD801B6
:10196000AF4FBF4F803009F4BF018030C80109F488
:10197000CD01DB01A05EBF4F8C01FC01EF4FFF4F9B
:101980000FB6CA5BDF4F8EAD9FADC654D0400FBEC1
:101990008A179B070FB66496FFAFEEAF64970FBE32
:1019A0008E069F0681E00CF0812D81708030F2015F
:1019B00009F4FD015601BC87AB878030D20131F4B8
:1019C0000FB66496AEADBFAD64970FBE0FB6CA5BDF
:1019D000DF4FCEACDFACC654D0400FBECE1ADF0A0C
:1019E000F401EA0BFB0BCC0CDD1C0FB6CC5BDF4F1C
:1019F000DFAECEAEC454D0400FBE6F01CC1CDD1C98
:101A0000FB01E05CFF4FD801AF4FBF4F803009F4BE
:101A1000BF018030C80109F4CD01DB01A05FBF4FD9
:101A20008C01FC01EF4FFF4F0FB6CC5BDF4F8EAD4B
:101A30009FADC454D0400FBE8A179B070FB6629665
:101A4000FFAFEEAF62970FBECE06DF0681E00CF06F
:101A5000812D81708030F20109F4FD01B887AF83D8
:101A6000B8A6AFA28030D20131F40FB66296AEAD07
:101A7000BFAD62970FBE0FB6CC5BDF4FAEACBFAC55
:101A8000C454D0400FBEAE1ABF0ADA86C986CA0A4D
:101A9000DB0AAA0CBB1CCC1CDD1CFB01E05EFF4F6B
:101AA000D801AF4FBF4F803009F4BF018030C8016B
:101AB00009F4CD01DB01A85FBF4F8C018F4F9F4F11
:101AC000AA16BB060FB660969FAF8EAF60970FBE8B
:101AD000C806D90681E00CF0812D81708030F201BA
:101AE00009F4FD01BE83AD83988A8F867AA269A22C
:101AF0008030D20131F40FB66096AEADBFAD6097C5
:101B00000FBE35016E1A7F0A46018A0A9B0A660CCF
:101B1000771C881C991CFB01E05FFF4FD801AF4F79
:101B2000BF4F803009F4BF018030C80109F4CD01F6
:101B3000DB01AC5FBF4F8C018F4F9F4F6A167B0656
:101B40000FB62E969FAF8EAF2E970FBE88069906C2
:101B500081E00CF0812D81708030F20109F4FD01EB
:101B6000BC83AB83388E2F8A8030D20131F40FB61C
:101B70002E96AEADBFAD2E970FBE13012E1A3F0AA3
:101B800024014A0A5B0A220C331C441C551CFB012D
:101B9000E85FFF4FD801AF4FBF4F803009F4BF015E
:101BA000FA8AE98A803009F48D01CB018E5F9F4F5C
:101BB0007801D801AF4FBF4F281639064A065B0699
:101BC00011E00CF0112D11701030E0E0F0E009F49C
:101BD000FC019A8F898FBC8AAB8A103080E090E03C
:101BE00009F4CD01BA83A9835101AE1ABF0AD2010B
:101BF000A80BB90BAA0CBB1CAA1FBB1FCB018C5F87
:101C00009F4FF701EF4FFF4F103009F4BC01103028
:101C100009F47F016A157B05C7018A079B0781E0EC
:101C20000CF0812DE82FE170E03011F46FEF7FEFC1
:101C30000FB6C35BDF4F9FAF8EAFCD54D0400FBE0A
:101C40000FEF1FE7E030F70109F4F8016A197B098B
:101C5000EA0BFB0BFF778FEF6F3F7807E007F10789
:101C600081E009F0812D0FB6C65BDF4F8EAFCA54FD
:101C7000D0400FBE898D9A8D2816390689819A81A8
:101C800048065906A1E060E070E05B010CF4A12D6C
:101C9000A170B070AA0FBB1F8A2D881F9B2D991FA2
:101CA0009A8F898F8B819C81681679060FB62E9644
:101CB0008EAD9FAD2E970FBE8806990681E06FA866
:101CC00078AC4F88588C0CF4812D81709070880FFF
:101CD000991FEA2DEE1FFB2DFF1F880F991FEE1F86
:101CE000FF1F0FB62E96FFAFEEAF2E970FBE6B897C
:101CF0007C89ED81FE816E177F070FB660966EAD11
:101D00007FAD60970FBEC606D706E1E00DAD1EADF4
:101D1000CBACDCAC0CF4E12DE170F070EE0FFF1FEA
:101D2000EA2CEE1CFB2CFF1CEE0FFF1FEE1CFF1C11
:101D3000EE0FFF1F0FB66096FFAFEEAF60970FBEBE
:101D4000EE1CFF1CFC8AEB8A0FB6CC5BDF4F6EAD3E
:101D50007FADC454D0400FBEEF81F8856E177F076A
:101D600069857A850FB66296EEADFFAD62970FBEBC
:101D70006E077F07E1E00CF4E12DE170F0707B2D40
:101D80007295707F6A2D62957627962E607F7627F2
:101D9000F295262E6F27F07F6F270FB6CC5BDF4FB3
:101DA0007FAF6EAFC454D0400FBEE295FE27E07FF8
:101DB000FE270FB66296FFAFEEAF62970FBE0FB66B
:101DC000CA5BDF4F6EAD7FADC654D0400FBEEB8512
:101DD000FC856E177F076F8578890FB66496EEAD28
:101DE000FFAD64970FBE6E077F07E1E00CF4E12DB5
:101DF0000FB664969FAF8EAF64970FBEE170F07020
:101E0000F295622D6F27F07F6F27E295FE27E07F26
:101E1000FE27EE0FFF1F661F0FB6CC5BDF4F8EADA8
:101E20009FADC454D0400FBE792F771F788B6F873A
:101E30000FB6C85BDF4F8EAD9FADC854D0400FBE0C
:101E40006D857E858617970789899A890FB666966C
:101E50006EAD7FAD66970FBE8607970781E00CF4E5
:101E6000812D817090707C018B2D86959A2D979590
:101E7000F794E794612D6795869597950FB6C85BA3
:101E8000DF4F9FAF8EAFC854D0400FBEF794E7949A
:101E900067950FB6CA5BDF4F7FAF6EAFC654D040B9
:101EA0000FBE0FB6C55BDF4F8EAD9FADCB54D0409C
:101EB0000FBE2D883E88821593050FB668968EADAD
:101EC0009FAD68970FBE4806590681E0792D0CF446
:101ED000812D817090702C018B2D86959A2C979472
:101EE000579447940FB6C55BDF4F5FAE4EAECB54F1
:101EF000D0400FBE212C27940FB6C15BDF4F8EADB3
:101F00009FADCF54D0400FBE4B8C5C8C8415950593
:101F10008D8D9E8D0FB66A964EAC5FAC6A970FBEE4
:101F20008405950581E00CF4812D882E89A19AA164
:101F30004F8C58A0841595050FB6CF5ADF4F8EAD44
:101F40009FADC155D0400FBE0FB66C964EAC5FAC86
:101F50006C970FBE8405950581E00CF4812D81708E
:101F60009070880F991F0FB66C969FAF8EAF6C97CD
:101F70000FBE9A2D991F0FB6CF5ADF4F9FAF8EAF6E
:101F8000C155D0400FBE0FB6C95ADF4F8EAD9FADC1
:101F9000C755D0400FBE4BA05CA0841595050FB669
:101FA000CB5ADF4F8EAD9FADC555D0400FBE0FB69B
:101FB0006E964EAC5FAC6E970FBE8405950581E0C2
:101FC0000CF4812D81709070880F991F2C019A2D2F
:101FD000991F440C551C0FB66E965FAE4EAE6E97B1
:101FE0000FBE991F0FB6C95ADF4F9FAF8EAFC755AF
:101FF000D0400FBE0FB6C75ADF4F8EAD9FADC9554B
:10200000D0400FBE4DA05EA0841595058FA198A568
:102010000FB6A0964EAC5FACA0970FBE8405950599
:1020200081E00CF4812D0FB6CB5ADF4FBFAFAEAFBE
:10203000C555D0400FBE81709070880F991FDC018C
:102040009A2D991FAA0FBB1F991FAA0FBB1F0FB66E
:10205000A096BFAFAEAFA0970FBE991F0FB6C75ADD
:10206000DF4F9FAF8EAFC955D0400FBE8BA59CA54B
:10207000A9A5BAA58A179B070FB6C55ADF4F8EAD23
:102080009FADCB55D0400FBE0FB6A296AEADBFAD43
:10209000A2970FBE8A079B07A1E00CF4A12DA170A7
:1020A000B070707FB295972F9B27B07F9B270FB69C
:1020B000C55ADF4F9FAF8EAFCB55D0400FBEA29514
:1020C000BA27A07FBA270FB6A296BFAFAEAFA2972E
:1020D0000FBE0FB6C15ADF4F8EAD9FADCF55D0406A
:1020E0000FBEADA5BEA58A179B070FB6C35ADF4F1B
:1020F0008EAD9FADCD55D0400FBE0FB6A496AEAD00
:10210000BFADA4970FBE8A079B07A1E00CF4A12DD9
:10211000A170B070B2957B27B07F7B27A295BA27BC
:10212000A07FBA27AA0FBB1F771F8FA598A90FB64C
:10213000A8964EAC5FACA8970FBE841595050FB658
:10214000CF59DF4F8EAD9FADC156D0400FBE0FB6F9
:10215000A6964EAC5FACA6970FBE8405950581E0B0
:102160000CF4812D817090702C018A2D86955794E6
:102170004794912D97958695579447940FB6A896B6
:102180005FAE4EAEA8970FBE97950FB6CF59DF4FF3
:102190009FAF8EAFC156D0400FBE89A99AA90FB686
:1021A000E6964EAC5FACE6970FBE481659060FB6E2
:1021B000C05CDF4F8EAD9FADC054D0400FBE0FB698
:1021C000E8964EAC5FACE8970FBE4806590681E032
:1021D0000CF4812D817090702C018A2D8695579476
:1021E00047940FB6C05CDF4F5FAE4EAEC054D040D8
:1021F0000FBE912D97950FB6C15ADF4F9FAF8EAF8F
:10220000CF55D0400FBE8BA99CA98A159B058DA9DF
:102210009EA90FB6AA964EAC5FACAA970FBE8405D6
:10222000950581E00CF4812D0FB6C35ADF4F9FAFA7
:102230008EAFCD55D0400FBE0FB6CD59DF4F8EAD0E
:102240009FADC356D0400FBE8A159B050FB6CB5924
:10225000DF4F8EAD9FADC556D0400FBE0FB6AC96CA
:102260004EAC5FACAC970FBE8405950581E00CF4D5
:10227000812D81709070880F991F0FB6E8969FAFDF
:102280008EAFE8970FBE6A147B040FB6AE968EAD84
:102290009FADAE970FBE69AC7AAC6806790681E057
:1022A0000CF4812D81709070880F991F880F991FF1
:1022B0000FB6E6969FAF8EAFE6970FBECA14DB044B
:1022C0000FB6E0968EAD9FADE0970FBE08071907D9
:1022D00001E00CF4012DD72E0FB6CB59DF4FFFAF25
:1022E000EEAFC556D0400FBE01701070000F111F29
:1022F000000F111F000F111F80E090E00FB6219614
:102300006EAD7FAD21970FBE681779070FB6E296C5
:102310008EAD9FADE2970FBE0FB623966EAD7FAD2B
:1023200023970FBE6807790781E00CF4812D817037
:1023300090709295907F82959827807F982760E093
:1023400070E00FB62596EEADFFAD25970FBEE617F0
:10235000F7070FB627966EAD7FAD27970FBE0FB666
:10236000E496EEADFFADE4970FBE6E077F0761E028
:102370000CF4612DE82DE170F0705F0161707070F8
:102380007295707F62957627607F7627660F771F3C
:10239000E0E0F0E02E173F070FB629962EAD3FADD7
:1023A00029970FBE4207530741E00CF4412D0FB6A9
:1023B000C65BDF4F2EADCA54D0400FBE21700FB6A2
:1023C000C65BDF4F2EAFCA54D0400FBE0FB6C35B03
:1023D000DF4F2EAD3FADCD54D0400FBE21703070D9
:1023E0000FB6C35BDF4F3FAF2EAFCD54D0400FBE13
:1023F0000FB6C85BDF4F2EAD3FADC854D0400FBE07
:102400002F2D0FB6C85BDF4F3FAF2EAFC854D04063
:102410000FBE0FB6CA5BDF4F2EAD3FADC654D040E6
:102420000FBE3E2D0FB6CA5BDF4F3FAF2EAFC65477
:10243000D0400FBE0FB6C55BDF4F2EAD3FADCB54C6
:10244000D0400FBE832E0FB6C15BDF4F9FAE8EAE66
:10245000CF54D0400FBE322E0FB6C55BDF4F3FAE1C
:102460002EAECB54D0400FBE20E030E0322F2B2DCB
:102470000FB6E4963FAF2EAFE4970FBE3A2D212D55
:102480000FB6E2963FAF2EAFE2970FBE0FB6CF5A10
:10249000DF4F2EAD3FADC155D0400FBE0FB66C968D
:1024A000EEADFFAD6C970FBE2F2F0FB6CF5ADF4F9B
:1024B0003FAF2EAFC155D0400FBE3E2F212D0FB6DE
:1024C000E0963FAF2EAFE0970FBE0FB6C95ADF4F71
:1024D0002EAD3FADC755D0400FBE0FB66E96EEADD8
:1024E000FFAD6E970FBE2F2F0FB6C95ADF4F3FAF0C
:1024F0002EAFC755D0400FBE3E2F212D0FB6AE9642
:102500003FAF2EAFAE970FBE0FB6C75ADF4F2EADFF
:102510003FADC955D0400FBE0FB6A096EEADFFAD92
:10252000A0970FBE2F2F0FB6C75ADF4F3FAF2EAF6A
:10253000C955D0400FBEFE2EE12C0FB6C55ADF4F55
:102540002EAD3FADCB55D0400FBE0FB6A296EEAD2F
:10255000FFADA2970FBE2F2F0FB6C55ADF4F3FAF6B
:102560002EAFCB55D0400FBEBE2EA12CCB2E0FB61A
:10257000CD59DF4FDFAECEAEC356D0400FBEBA2F1F
:10258000A12D0FB6CF59DF4F2EAD3FADC156D04074
:102590000FBE212D0FB6CF59DF4F3FAF2EAFC15623
:1025A000D0400FBE0FB6C15ADF4F2EAD3FADCF5555
:1025B000D0400FBE212D0FB6C15ADF4F3FAF2EAF17
:1025C000CF55D0400FBE0FB6C35ADF4F2EAD3FAD33
:1025D000CD55D0400FBE217030700FB6C35ADF4FBB
:1025E0003FAF2EAFCD55D0400FBE712C612C312C9A
:1025F000212C912C812CD12CC12C312D212D4170DD
:10260000507056954795412C479456954795479459
:10261000542E512D412D0FB62B96EEAD2B970FBE9C
:10262000E03011F4E0E801C0E0E0F1E04E2A5F2A7A
:1026300064297529862B972B082B192B0FB6E69644
:102640008EAD9FADE6970FBE802B912B0FB6E8960F
:102650006EAD7FADE8970FBE682B792B0FB6C35ACE
:10266000DF4F8EAD9FADCD55D0400FBE860F971F6B
:10267000242B352BC22AD32A8C289D282828392898
:10268000622873280FB6C15ADF4F2EAD3FADCF552C
:10269000D0400FBE260D371D0FB6C05CDF4F4EADCC
:1026A0005FADC054D0400FBE481F591F0FB6CF5961
:1026B000DF4F8EAD9FADC156D0400FBE820F931F2E
:1026C0000FB6A8962EAD3FADA8970FBE241F351F9D
:1026D000A80FB91F0FB6CD59DF4F8EAD9FADC356B2
:1026E000D0400FBE821F931FAA0EBB1E0FB6C55A45
:1026F000DF4F2EAD3FADCB55D0400FBE281F391F49
:10270000EA0CFB1C0FB6C75ADF4F8EAD9FADC95503
:10271000D0400FBE821F931F0FB6AE964EAD5FAD79
:10272000AE970FBE4E0D5F1D0FB6C95ADF4F2EADCF
:102730003FADC755D0400FBE281F391F0FB6E096DA
:102740006EAD7FADE0970FBE640F751F0FB6CF5A09
:10275000DF4F8EAD9FADC155D0400FBE821F931F7E
:102760000FB6E2964EAD5FADE2970FBE460F571F14
:102770000FB6E4962EAD3FADE4970FBE281F391F6C
:102780000FB6C55BDF4F8EAD9FADCB54D0400FBEB3
:10279000840F951F0FB6C15BDF4F4EAD5FADCF54B9
:1027A000D0400FBE421F531F0FB6CA5BDF4F2EAD86
:1027B0003FADC654D0400FBE280F391F0FB6C85BBF
:1027C000DF4F8EAD9FADC854D0400FBE841F951F04
:1027D0000FB6CB59DF4F4EAD5FADC556D0400FBEE3
:1027E000420F531F2F853889281F391F0FB6629655
:1027F0008EAD9FAD62970FBE840F951F0FB6CC5B59
:10280000DF4F6EAD7FADC454D0400FBE621F731F4B
:102810000FB660962EAD3FAD60970FBE280F391FE3
:102820004B895C89461F571F0FB664968EAD9FADCE
:1028300064970FBE820F931F0FB62E962EAD3FAD3D
:102840002E970FBE241F351F0FB6CB5ADF4F6EAD2C
:102850007FADC555D0400FBE680F791F498D5A8D89
:10286000421F531F0FB6C35BDF4F8EAD9FADCD54DC
:10287000D0400FBE680F791F20E030E0421F531F89
:102880000FB6C65BDF4F8EADCA54D0400FBE80304E
:10289000C90119F4CB0181709070680F791F421F34
:1028A000531F56954795779567950FB62C962EAD85
:1028B0003FAD2C970FBE36952795812D8795369580
:1028C00027958795922F8078840F951F8050914C83
:1028D00000E010E04EEF52E45B016C0198010E94B1
:1028E0003E2740E054E498010E9470294B013C01CE
:1028F0009801A8010E946B29582EB401C3010E94BF
:10290000F22655200AF08B0120E03FEF4FE757E415
:10291000B401C3010E946B29181614F40FEF1FEFC6
:102920000FB6C759DF4F8EAD9FADC956D0400FBE11
:102930000FB6C959DF4F2EAD3FADC756D0400FBEC1
:10294000821B930B0FB6C759DF4F9FAF8EAFC9568F
:10295000D0400FBE01151105A12D812D09F4A3C191
:10296000C80196958795802B912B9C0136952795CC
:1029700036952795282B392BA901529542954F70F2
:1029800045275F704527422B532BCA01892F992772
:10299000842B952B809590959C01369527952575D0
:1029A0003575821B930B9C01237333739695879522
:1029B0009695879583739373820F931F9C0132952D
:1029C00022952F7023273F702327280F391F2F7040
:1029D0003F70C901892F9927820F931F282F2E70CE
:1029E0002A9522F0000F111F2A95E2F7005010449B
:1029F00020E560E070E001151207FB0110F0E0E057
:102A0000F0E3E00FF11FEE0FFF1F41E00115120789
:102A100021E008F4212D322F3295307F2227330F09
:102A200089011864E017F1077B0108F07801DF01E4
:102A3000AE19BF09AA0FBB1FE017F107E1E008F4C8
:102A4000E12DFE2FF295F07FEE272E2B3F2B8901F3
:102A50001464A017B1077B0108F07801FD01EE199D
:102A6000FF09EE0FFF1FA017B107A1E008F4A12D89
:102A7000BA2FAA27BB0FBB0FBB0F2A2B3B2B8901F9
:102A80001264E017F1077B0108F07801DF01AE194D
:102A9000BF09AA0FBB1FE017F107E1E008F4E12D21
:102AA000FE2FEE27FF0FFF0F2E2B3F2B8901116406
:102AB000A017B1077B0108F07801FD01EE19FF09AD
:102AC000EE0FFF1FA017B107A1E008F4A12DBA2F48
:102AD000AA27BB0F30642A2B3B2B89010068E01723
:102AE000F1077B0108F07801DF01AE19BF09AA0FD9
:102AF000BB1FE017F107E1E008F4E12DFE2FEE2700
:102B0000E22BF32B8F01005C1F4FA017B10708F0D9
:102B1000B8019D01261B370B220F331FA017B107E9
:102B200051E008F4512D652F772772956295707FDB
:102B30007627607F7627660F771F660F771F660FF1
:102B4000771F6E0F7F1FFB01B0962E173F0708F40B
:102B5000412DA42FBB27B295A295B07FBA27A07FA5
:102B6000BA27AA0FBB1FAA0FBB1FA60FB71F9070D3
:102B7000969587958730910509F482C04FE050E023
:102B80002E173F0710F4E0E0F0E0482759272E1BEE
:102B90003F0B220F331FFD01709661E02E173F0798
:102BA00008F4612D772772956295707F7627607F94
:102BB0007627660F771FA60FB71F4A30510508F416
:102BC0005FC02E173F0710F4E0E0F0E02E1B3F0B34
:102BD000220F331FFD01389661E02E173F0708F4DE
:102BE000612D772772956295707F7627607F7627B3
:102BF000A60FB71F8530910509F442C02E173F0775
:102C000010F4E0E0F0E02E1B3F0B220F331FFD011C
:102C1000149661E02A173B0708F4612D7727660FA9
:102C2000771F660F771F660F771FE60FF71F8F015D
:102C30004C30510508F423C0E0E0F0E02A173B07D0
:102C4000BF0108F0BD01261B370B220F331FD8012F
:102C500012962A173B0708F0FD0161E02A173B078F
:102C600008F4612D7727660F771F660F771F600FB7
:102C7000711F8330910509F0F3C3DB0101C0D80156
:102C80008A958F708A9522F0B695A7958A95E2F776
:102C9000CD01892F82958F709927B295A295AF703B
:102CA000AB27BF70AB270FB6CB59DF4F9FAF8EAFAF
:102CB000C556D0400FBE0FB6C959DF4FBFAFAEAF3C
:102CC000C756D0400FBE00E010E040E85FE3B5011A
:102CD000C60198016A010E9478274B013C010FB69A
:102CE000CD5ADF4FEEADFFADC355D0400FBE608172
:102CF0007181C80178010E94142620E030EC4FE772
:102D000054E40E9484282B011C01B701C6019201E2
:102D1000A1010E94122840EA50E497010E94702904
:102D20005B016C012BE734E14EEC5FE3B201C101C2
:102D30000E9470299501A6010E9413289B01AC01F5
:102D4000B401C3010E9470296B015C010FB6C75921
:102D5000DF4F0EAD1FADC956D0400FBEB801C70141
:102D60000E9414269B01AC01B601C5010E947F2878
:102D700088230AF0B2C00F77107020E639E080E0B7
:102D800090E0B8018C01A8010E94B227615C7F4FDE
:102D90008F4F9F4F2FE730E0A8010E94D6272C5974
:102DA0003F4F0FB6EC96AEADBFADEC970FBE8C911A
:102DB000803031F45E985C988BE79EE30197F1F7E1
:102DC000FD0110870783368325830FB6EA968EAD03
:102DD0009FADEA970FBE928381831C920FB6EE9649
:102DE0008EAD9FADEE970FBE948383830FB6CD5A01
:102DF000DF4FEEADFFADC355D0400FBE848195814E
:102E00005F012CE39202902D1124829F812D1124C9
:102E1000890F982F8827402D5527482B592B452F50
:102E2000552746954695241BD22E822F9927445C20
:102E3000C42E242F3327281B390B0FB6C559DF4F5B
:102E40006EAD7FADCB56D0400FBE6F777070C801AE
:102E5000A8010E94B227615C7F4F8F4F9F4F2FE7E1
:102E600030E0A8010E94D6277901F5010281138183
:102E70006DE570E0C8010E94C22783E00F3F18078C
:102E800010F06AE070E06B3071051D2D08F027C36B
:102E9000E10E9CE07902802D1124699F212D1124DF
:102EA000280F322F2227A02DBB27A22BB32BA85CE3
:102EB000BE4F2BEAE29E812D11248695869586953C
:102EC000890211248E2D8019E82FFF27EA0FFB1F9E
:102ED00080818030E9F08E2D47C20FB6CE5BDF4F88
:102EE000AEADBFADC254D0400FBE8C912A980FB684
:102EF000CB59DF4F2EAD3FADC556D0400FBE206B36
:102F00008170803009F47CC29DB59923D2F778C2D4
:102F10008E2D8395829F212D112426952695269509
:102F200029021124982F9019E92FFF27EA0FFB1F80
:102F30009081903009F018C29E2D9A95812D21E044
:102F4000E91608F0282F203009F4892F9BEA899F81
:102F5000312D11243695369536952CE03202112408
:102F6000382F3019E32FFF27EA0FFB1F3081303055
:102F700009F0FAC18E2D8E5F899F912D11249695AF
:102F80009695969592021124982F9019E92FFF2774
:102F9000EA0FFB1F9081903009F0E6C19E2D925000
:102FA000812D21E0E91608F0282F203009F4892F1F
:102FB0009BEA899F312D11243695369536952CE064
:102FC00032021124382F3019E32FFF27EA0FFB1F9D
:102FD0003081303009F0C8C18E2D8D5F899F912DD1
:102FE000112496959695969592021124982F9019F2
:102FF000E92FFF27EA0FFB1F9081903009F0B4C141
:103000009E2D9350812D21E0E91608F0282F2030C5
:1030100009F4892F9BEA899F312D11243695369525
:1030200036952CE032021124382F3019E32FFF2778
:10303000EA0FFB1F3081303009F096C18E2D8C5F76
:10304000899F912D1124969596959695920211241B
:10305000982F9019E92FFF27EA0FFB1F90819030DE
:1030600009F082C19E2D9450812D21E0E91608F0CF
:10307000282F203009F4892F9BEA899F312D1124B4
:103080003695369536952CE032021124382F3019BA
:10309000E32FFF27EA0FFB1F3081303009F064C1B6
:1030A0008E2D8B5F899F912D1124969596959695DF
:1030B00092021124982F9019E92FFF27EA0FFB1F86
:1030C0009081903009F050C19E2D9550812D21E0C6
:1030D000E91608F0282F203009F4892F9BEA899FF0
:1030E000312D11243695369536952CE03202112477
:1030F000382F3019E32FFF27EA0FFB1F30813030C4
:1031000009F032C18E2D8A5F899F912D11249695E9
:103110009695969592021124982F9019E92FFF27E2
:10312000EA0FFB1F9081903009F01EC19E2D965032
:10313000812D21E0E91608F0282F203009F4892F8D
:103140009BEA899F312D11243695369536952CE0D2
:1031500032021124382F3019E32FFF27EA0FFB1F0B
:10316000308130301D2D09F0FFC08E2D895F899F81
:10317000912D112496959695969592021124982F4B
:103180009019E92FFF27EA0FFB1F9081903009F07B
:10319000EBC09E2D9750812D21E0E91608F0282FD5
:1031A000203009F4892F9BEA899F312D112436950F
:1031B000369536952CE032021124382F3019E32F42
:1031C000FF27EA0FFB1F308130301D2D09F0CCC0E6
:1031D0008E2D885F899F912D1124969596959695B1
:1031E00092021124982F9019E92FFF27EA0FFB1F55
:1031F0009081903009F0B8C09E2D9850812D21E02B
:10320000E91608F0282F203009F4892F9BEA899FBE
:10321000312D11243695369536952CE03202112445
:10322000382F3019E32FFF27EA0FFB1F3081303092
:103230001D2D09F099C08E2D875F899F912D112436
:1032400096959695969592021124982F9019E92FAC
:10325000FF27EA0FFB1F9081903009F085C09E2D5B
:103260009950812D21E0E91608F0282F203009F42B
:10327000892F9BEA899F312D1124369536953695F5
:103280002CE032021124382F3019E32FFF27EA0FE8
:10329000FB1F308130301D2D09F066C08E2D865FFA
:1032A000899F912D112496959695969592021124B9
:1032B000982F9019E92FFF27EA0FFB1F908190307C
:1032C00009F052C09E2D9A50812D21E0E91608F098
:1032D000282F203009F4892F9BEA899F312D112452
:1032E0003695369536952CE032021124382F301958
:1032F000E32FFF27EA0FFB1F308130301D2D09F02F
:1033000033C08E2D855F899F912D112496959695BA
:10331000969592021124982F9019E92FFF27EA0F12
:10332000FB1F9081903009F01FC09E2D9B50812D76
:1033300021E0E91608F0282F203009F4892F9BEAB4
:10334000899F912D11249695969596952CE0920241
:103350001124982F9019292F3327A20FB31F9C9166
:10336000903009F48E2D1D2DC11608F4B2C08C15B5
:10337000982F08F09C2D811708F0192F812F99277D
:1033800028E730E040E050E0BA010E94D627183725
:1033900038F4329522952F7023273F70232702C0DF
:1033A0002FEF3FE00FB6CE5BDF4FAEADBFADC254E7
:1033B000D0400FBE30632A988C91813029F49DB59E
:1033C000992312F08030D9F73EBD8DB58823EAF7F6
:1033D0008EB52EBD8DB58823EAF71C928EB52A9A3C
:1033E0008FE090E00197F1F75E9A5C9A2A980FB609
:1033F000CB59DF4F2EAD3FADC556D0400FBE206B31
:103400002EBD8DB58823EAF78EB581E08C930FB67B
:10341000C959DF4F8EAD9FADC756D0400FBE8EBD90
:103420008DB58823EAF71C928EB52A9AC655DF4FD0
:103430000FB6F894DEBF0FBECDBFDF91CF911F91C5
:103440000F91FF90EF90DF90CF90BF90AF909F9043
:103450008F907F906F905F904F903F902F90089546
:103460002E1B3F0B220F331FE1E06217730708F09A
:10347000E12DAE2FBB27AA0FBB1FA60FB71F4E30E3
:10348000510508F4FDCB6217730718F060E070E097
:1034900002C060957095620F731F660F771F21E061
:1034A000A617B70708F0212D3327A20FB31F8130CD
:1034B000910509F4EDCBCD01880F991F892F8295D5
:1034C0008F709927B695A795B695A795B695A795A8
:1034D000EACB8CE191E06CE170E00E948F20CB019F
:1034E0000E94151E0F920FB60F922F933F938F934A
:1034F0009F9380913003909131032091320330915A
:103500003303805F9F4F2F4F3F4F90933103809342
:10351000300330933303209332039F918F913F9177
:103520002F910F900FBE0F9018950F920FB60F921C
:103530001F9211242F933F934F935F938F939F93E9
:10354000AF93BF93EF93FF9381E0809370038091DB
:1035500078009091790026E030914A03329F212D26
:103560001124402D5527322F2227242B352B409113
:103570004B035527440F551F420F531F4B5C5C4FA5
:10358000FA019183808390914B03292F2395812DFC
:103590002330382F08F42CC020914A032395233080
:1035A00008F42DC030934B03233008F42EC08093D1
:1035B0004A039EEF823008F491E0980FA92FBB27B1
:1035C000A95BBC4F8C9190917C00907F982B90933D
:1035D0007C00FF91EF91BF91AF919F918F915F918F
:1035E0004F913F912F911F900F900FBE0F90189504
:1035F000322F20914A032395233008F0D3CF392F5F
:1036000030934B03233008F0D2CF822F80934A03AC
:103610009EEF823008F4D0CFD0CF0F920FB60F922A
:103620001F9211242F933F934F935F936F937F9338
:103630008F939F93AF93BF93EF93FF9341E040939A
:103640007003209184003091850080E090E0909399
:1036500085008093840056B35170503019F046BBFA
:103660002FEF3FEF40916E03413009F432C041E04B
:1036700040936E0340914C0350914D034115510509
:1036800009F027C040916F03403160F4642F772721
:10369000660F771F625B7C4FFB013183208343956C
:1036A00040936F0310926E0390934D0380934C03ED
:1036B000FF91EF91BF91AF919F918F917F916F910A
:1036C0005F914F913F912F911F900F900FBE0F90E0
:1036D00018950E94D3200F920FB60F920F900FBE35
:1036E0000F9018950E94741B6F927F929F92AF92D9
:1036F000BF92CF92DF92EF92FF920F931F93CF93DF
:10370000DF93CDB7DEB7E0970FB6F894DEBF0FBEFC
:10371000CDBF8FB7F89490917003903019F08FBFA0
:103720000E94272191E0909370038FBF52989DBB18
:1037300083E08093690087E880937A0080E4809337
:103740007C002D98259A2B98239A24982C9A2A98B5
:10375000229A80E58CBD9DBD198253985B9A809119
:103760007E00816080937E003898409880917E0032
:10377000826080937E003998419880917E008460B9
:1037800080937E003A9842985E98569A5C98549A34
:1037900080917C00807F80937C0080917A0080649F
:1037A00080937A0080917A0080748030D9F7C0903D
:1037B0007800D090790020917C00207F21602093B8
:1037C0007C0020917A00206420937A0020917A0076
:1037D00020742030D9F7A0907800B0907900409103
:1037E0007C00407F426040937C0040917A004064BE
:1037F00040937A0040917A0040744030D9F740916C
:1038000078005091790060917C00607F60937C002B
:1038100060917A00606460937A0060917A006074CD
:103820006030D9F76091780070917900E0917C0068
:10383000E07FE160E0937C00E0917A00E064E09357
:103840007A00E0917A00E074E030D9F7E0917800F6
:10385000F0917900A0917C00A07FA260A0937C00F1
:10386000A0917A00A064A0937A00A0917A00A0743D
:10387000A030D9F7A0917800B091790010917C0028
:10388000107F10937C0010917A00106410937A00DE
:1038900010917A0010741030D9F7009178001091CF
:1038A000790080917C00807F816080937C00809192
:1038B0007A00806480937A0080917A0080748030EE
:1038C000D9F7E0907800F090790080917C00807FBB
:1038D000826080937C0080917A00806480937A007B
:1038E00080917A0080748030D9F78091780090912F
:1038F000790010924B0322E030E030934A0320938A
:10390000490320E031E0309348032093470390932C
:10391000460380934503B0934403A093430350931D
:10392000420340934103F0924003E0923F03F0933F
:103930003E03E0933D03B0923C03A0923B031093FF
:103940003A03009339037093380360933703D0929E
:103950003603C092350381E0809334038093700373
:1039600080E480937C0010927B008FEE80937A003D
:1039700080917C00807F816080937C0083E08093D5
:103980008100F2E0F4BD8AEF87BD85E085BDF0934C
:103990006E0016BC8BE99FE00197F1F77894FA83EB
:1039A00080E290E06C018EE493E05C01812D01C027
:1039B000892D9FB7F894609143037091440320913F
:1039C00041033091420362177307A90108F0AB016C
:1039D0002617370708F09B01609145037091460355
:1039E0006217730708F09B016417750708F09A01C6
:1039F000388B2F8760913D0370913E0320913B03EC
:103A000030913C0362177307A90108F0AB01261738
:103A1000370708F09B0160913F03709140036217E4
:103A2000730708F09B016417750708F09A013E8739
:103A30002D876091370370913803209135033091C1
:103A4000360362177307A90108F0AB012617370781
:103A500008F09B016091390370913A036217730774
:103A600008F09B016417750708F09A013C872B87C3
:103A70009FBF99B1987021E0903009F0212D81709D
:103A8000803009F02DC0903009F02AC01FB7F8949B
:103A900080914C0390914D038F3F8FE7980708F07A
:103AA000C0C0922ECE0141963C01B501A6010E94F4
:103AB000E2291FBF8FB7F8940091320310913303AE
:103AC000E0903003F09031038FBFBE01655F7F4F00
:103AD000AE014E5F5F4F9E012F5F3F4FC30147C056
:103AE000922EFF2ECE014196612DA6010E94EB2958
:103AF0000FB7F89480916E03813009F494C081E08F
:103B000080936E0310916F03103189F410926F034C
:103B100080914C0390914D038F3F8FE7980708F0F9
:103B200080C0CE014196B501A6010E94E229109203
:103B30006E030FBF103109F01CC08F2D813009F4C6
:103B400018C08FB7F8940091320310913303E090BE
:103B50003003F09031038FBFCE014196BE01655F07
:103B60007F4FAE014E5F5F4F9E012F5F3F4F0E9420
:103B700053004FB7F8948091320390913303209112
:103B80003003309131034FBFFA81F030D1F0F13082
:103B900009F00ECF4B815C816D817E814B5F5F4F61
:103BA0006F4F7F4FF1E0421753076807790781E0B5
:103BB00008F0812D8170803009F4FACEF2E0FA83AA
:103BC000F7CE4B815C81AF81B8856D817E8109859F
:103BD0001A85A40FB51F061F171FF12DE1E0A217CC
:103BE000B3070807190708F0EF2FE170E03039F04C
:103BF0003C832B83F1E0FA839E838D835E984E5C39
:103C00005F4F6F4F7F4FE1E0421753076807790717
:103C100008F4E12DE170E03009F0CACE5C98892DFE
:103C2000C8CE0E94FD200E94D320CF93DF93CDB752
:103C3000DEB768970FB6F894DEBF0FBECDBF2BE09E
:103C400030E03C832B839A83898380E090E09E87D9
:103C50008D8782E090E098878F8328E031E03E8373
:103C60002D839C878B87CE0141969A8789878CE428
:103C70009EE1988F8F8B9E012F5F3F4F3E8B2D8B48
:103C80009C8B8B8BCE0103969A8B898BCE010596EC
:103C900060E171E00E9455202F923F924F925F9217
:103CA0006F927F928F929F92AF92BF92CF92DF924C
:103CB000EF92FF920F931F93CF93DF93CDB7DEB7B1
:103CC00060970FB6F894DEBF0FBECDBF7B01FC013D
:103CD0000081118187E20031180708F447C060E1D4
:103CE00077E2C8010E94C22787E26802802D112472
:103CF00090E1699F912D1124980F7295707F790F33
:103D0000872FC62E982F8827202D3327282B392B35
:103D1000021B130B64E670E0C8010E94C227CB01AE
:103D2000880F991F825A9D4FFC01808191819E8747
:103D30008D8784E67802902D1124689F4C2D812D6B
:103D40001124890F982F8827202D3327282B392BD2
:103D5000021B130B000F111F025A1D4FF801808127
:103D60009181988B8F8781E090E03FC004361105E8
:103D700008F435C064E670E0C8010E94C22784E6FA
:103D80007802902D1124689F812D1124890F982F7E
:103D90008827202D3327282B392B021B130B000FCC
:103DA000111F025A1D4FF80180819181988B8F87D6
:103DB00083E090E08B010A301105B0F002979E017C
:103DC000245F3F4F280F391F000F111F025A1D4F4C
:103DD000F80140815181F901518340830DC085E094
:103DE00090E00A30110550F7402F0197DE011C9634
:103DF000A80FB91F40634C93F70123853485B9019F
:103E00006170707040E050E001E061156B01710578
:103E10004407550761E009F0612D6170603029F4B5
:103E20002A016030BA0139F008C0E1E1F0E02F0169
:103E30006030BA0111F46BE270E01B01A5E0B0E064
:103E4000B90164707070611571054407550709F474
:103E5000012D01701070BE01645F7F4F680F791FE4
:103E6000A81BB90BF7018481803009F435C0CA0E54
:103E7000DB1EF701858196813C014601C816D906F3
:103E800008F02AC02870307080E090E041E02115F1
:103E900031058807990709F0412D41704030B987F5
:103EA000A8877F836E83F70109F44CC0928581E077
:103EB000933009F0892F681879087B866A868030EC
:103EC0001D830C8309F479C0813009F079C080E04A
:103ED00090E00A851B857CC04B015D01F701C1881C
:103EE000D288E784F088C701B6019101A2010E943F
:103EF0005820803011F001E009C0F6012681378199
:103F0000C701B401A501F9010995082F01701070CE
:103F1000C80160960FB6F894DEBF0FBECDBFDF912B
:103F2000CF911F910F91FF90EF90DF90CF90BF90B6
:103F3000AF909F908F907F906F905F904F903F9049
:103F40002F900895208131813B872A8720E330E03C
:103F500031832083228133813B832A83938382832D
:103F60008285898381E08287C784D088A188B288CE
:103F7000C601B5019101A2010E94582001E08030E4
:103F800009F0C4CF6818790800E010E080E390E001
:103F90004C01D801C301A817B90708F06CC0F5019E
:103FA000208531851196C601A401B801F9012D01C2
:103FB0000995D201803071F39ECF00E010E00AC075
:103FC0008A859B858C011695079501969695879510
:103FD0009B878A87F701E280F380C080D180A18827
:103FE000B2888784908880E090E08017910770F411
:103FF000F5012085318501963C01C401A601B70178
:10400000F90109958030C30181F375CFC401B50171
:104010009101A2010C811D810E945820803009F07D
:104020006ACFF50126813781C4016E817F81488581
:104030005985F9010995803009F05DCFA0E0B0E025
:1040400001E08A859B85A817B90708F0012D8A85AC
:104050009B85A817B90708F059CFF5012085318550
:104060001196C401A601B701F9012D010995D201EC
:10407000803031F34BCFF50126813781C6016E8147
:104080007F8148855985F9010995803009F033CF42
:10409000F7018A859B8591838083898182878A81C4
:1040A0009B8193838283012D31CFCB010E942D21EF
:1040B000AF92BF92CF92DF92EF92FF92DA017B0133
:1040C00061E170E041E021153105A607B70709F06D
:1040D000412D4170403071F4F701A084B1846C012E
:1040E000A901BD01F5010995282FC601203011F065
:1040F00081E00DC00115110549F0F70126813781D6
:1041000040E050E0B801F901099501C0812D9927DF
:10411000FF90EF90DF90CF90BF90AF900895CF9336
:10412000DF93CDB7DEB760970FB6F894DEBF0FBE52
:10413000CDBF20E030E03A87298741E050E05C8342
:104140004B83FE013D96FA83E98338872F835E8394
:104150004D83788B6F879E878D87CE01019660E1B6
:1041600071E00E945520FB01878590892189328961
:10417000F901268137816CEB71E04BE050E0F901E9
:10418000099599270895FB018785908921893289AE
:10419000F9012681378167EC71E04EE050E0F901CA
:1041A000099599270895CF93DF93CDB7DEB761972F
:1041B0000FB6F894DEBF0FBECDBF80E090E09A87C7
:1041C000898781E090E09C838B8320E031E03A8313
:1041D000298398878F83CE010D969E838D8383ECF0
:1041E00090E2988B8F87CE0141969E878D87CE0176
:1041F000019660E171E00E945520CF93DF93CDB727
:10420000DEB761970FB6F894DEBF0FBECDBF80E07A
:1042100090E09A87898781E090E09C838B8324E0FB
:1042200031E03A83298398878F83CE010D969E8350
:104230008D8383EB90E2988B8F87CE0141969E878A
:104240008D87CE01019660E171E00E94552081E0EA
:1042500092E06BE270E00E948F202F923F924F928B
:104260005F926F927F928F929F92AF92BF92CF9206
:10427000DF92EF92FF920F931F93CF93DF93CDB70F
:10428000DEB72A970FB6F894DEBF0FBECDBFF89405
:1042900021E0209370031CBC5998519A22E230E02F
:1042A0003093C5002093C40022E02093C00028E191
:1042B0002093C10026E02093C2002091C00020720C
:1042C0002030D9F32091C00020722030D9F32DE0A6
:1042D0002093C6002091C00020722030D9F32AE03C
:1042E0002093C6002091C00020722030D9F32DE029
:1042F0002093C6002091C00020722030D9F32AE01C
:104300002093C600FC01E680F780C480D5808281BE
:104310009381A081B1812091C00020722030D9F317
:1043200020E52093C6002091C00020722030D9F3F0
:1043300021E62093C6002091C00020722030D9F3DE
:104340002EE62093C6002091C00020722030D9F3C1
:1043500029E62093C6002091C00020722030D9F3B6
:1043600023E62093C6002091C00020722030D9F3AC
:1043700020E22093C6002091C00020722030D9F3A3
:104380002FE62093C6002091C00020722030D9F380
:1043900023E62093C6002091C00020722030D9F37C
:1043A00023E62093C6002091C00020722030D9F36C
:1043B00025E72093C6002091C00020722030D9F359
:1043C00022E72093C6002091C00020722030D9F34C
:1043D00022E72093C6002091C00020722030D9F33C
:1043E00025E62093C6002091C00020722030D9F32A
:1043F00024E62093C6002091C00020722030D9F31B
:1044000020E22093C6002091C00020722030D9F312
:1044100029E62093C6002091C00020722030D9F3F5
:104420002EE62093C6002091C00020722030D9F3E0
:1044300020E22093C6002091C00020722030D9F3E2
:1044400026E62093C6002091C00020722030D9F3C8
:1044500029E62093C6002091C00020722030D9F3B5
:104460002CE62093C6002091C00020722030D9F3A2
:1044700025E62093C6002091C00020722030D9F399
:1044800020E22093C6002091C00020722030D9F392
:1044900027E22093C6008115910571F08A0F9B1FBA
:1044A0002C913091C00030723030D9F32093C60087
:1044B0001196A817B907A1F78091C00080728030CB
:1044C000D9F387E28093C6008091C000807280306B
:1044D000D9F380E28093C6008091C0008072803062
:1044E000D9F381E68093C6008091C000807280304D
:1044F000D9F384E78093C6008091C0008072803039
:10450000D9F380E28093C6008091C0008072803031
:10451000D9F38CE68093C6008091C0008072803011
:10452000D9F389E68093C6008091C0008072803004
:10453000D9F38EE68093C6008091C00080728030EF
:10454000D9F385E68093C6008091C00080728030E8
:10455000D9F380E28093C6002AE030E000E010E06A
:10456000B601C701A8010E94D62760636A87960139
:1045700081E02A303105E006F10608F0812D8170D6
:10458000803019F0E9E0F0E034C089E090E04C01BF
:10459000CE0101961C0106C0817080309601750124
:1045A00009F023C02901B201C7012AE030E0390136
:1045B000A8010E94D62769015A01B601C5019301DD
:1045C000A8010E94D6276063C4010197D1014C0164
:1045D000A80FB91F6C9381E0920124363105E006E3
:1045E000F10608F4D9CF812DD7CFF401EA30F105D7
:1045F00089F0CE010196DC01AE0FBF1F2C913091E6
:10460000C00030723030D9F32093C6003196EA30C2
:10461000F10589F78091C00080728030D9F38AE07B
:104620008093C6002D98259A87EF9FE32BE73AE108
:104630004BE754E04FC0FA013197F1F72D98FC0198
:104640003197F1F7FC013197F1F7FC013197F1F760
:10465000FC013197F1F7FC013197F1F7FC0131973B
:10466000F1F7FC013197F1F7FC013197F1F7FC010B
:104670003197F1F7FC013197F1F7FC013197F1F730
:10468000FC013197F1F7FC013197F1F7FC0131970B
:10469000F1F7FC013197F1F7FC013197F1F7FC01DB
:1046A0003197F1F7FC013197F1F7FC013197F1F700
:1046B000FC013197F1F7FC013197F1F7FC013197DB
:1046C000F1F7FC013197F1F7FC013197F1F7F901AE
:1046D0003197F1F72D9AFC013197F1F7FC013197F1
:1046E000F1F7FC013197F1F7FC013197F1F7FC018B
:1046F0003197F1F7FC013197F1F7FC013197F1F7B0
:10470000FC013197F1F7FC013197F1F7FC0131978A
:10471000F1F7FC013197F1F7FC013197F1F7FC015A
:104720003197F1F7FC013197F1F7FC013197F1F77F
:10473000FC013197F1F7FC013197F1F7FC0131975A
:10474000F1F7FC013197F1F7FC013197F1F7FC012A
:104750003197F1F7FC013197F1F7FC013197F1F74F
:10476000FC013197F1F7F9013197F1F72D98FC0130
:104770003197F1F7FC013197F1F7FC013197F1F72F
:10478000FC013197F1F7FC013197F1F7FC0131970A
:10479000F1F7FC013197F1F7FC013197F1F7FC01DA
:1047A0003197F1F7FC013197F1F7FC013197F1F7FF
:1047B000FC013197F1F7FC013197F1F7FC013197DA
:1047C000F1F7FC013197F1F7FC013197F1F7FC01AA
:1047D0003197F1F7FC013197F1F7FC013197F1F7CF
:1047E000FC013197F1F7FC013197F1F7FC013197AA
:1047F000F1F7FC013197F1F7FC013197F1F7F9017D
:104800003197F1F72D9AFC013197F1F7FC013197BF
:10481000F1F7FC013197F1F7FC013197F1F7FC0159
:104820003197F1F7FC013197F1F7FC013197F1F77E
:10483000FC013197F1F7FC013197F1F7FC01319759
:10484000F1F7FC013197F1F7FC013197F1F7FC0129
:104850003197F1F7FC013197F1F7FC013197F1F74E
:10486000FC013197F1F7FC013197F1F7FC01319729
:10487000F1F7FC013197F1F7FC013197F1F7FC01F9
:104880003197F1F7FC013197F1F7FC013197F1F71E
:10489000FC013197F1F7F9013197F1F72D98FC01FF
:1048A0003197F1F7FC013197F1F7FC013197F1F7FE
:1048B000FC013197F1F7FC013197F1F7FC013197D9
:1048C000F1F7FC013197F1F7FC013197F1F7FC01A9
:1048D0003197F1F7FC013197F1F7FC013197F1F7CE
:1048E000FC013197F1F7FC013197F1F7FC013197A9
:1048F000F1F7FC013197F1F7FC013197F1F7FC0179
:104900003197F1F7FC013197F1F7FC013197F1F79D
:10491000FC013197F1F7FC013197F1F7FC01319778
:10492000F1F7FC013197F1F7FC013197F1F7F9014B
:104930003197F1F72D9AFC013197F1F7FC0131978E
:10494000F1F7FC013197F1F7FC013197F1F7FC0128
:104950003197F1F7FC013197F1F7FC013197F1F74D
:10496000FC013197F1F7FC013197F1F7FC01319728
:10497000F1F7FC013197F1F7FC013197F1F7FC01F8
:104980003197F1F7FC013197F1F7FC013197F1F71D
:10499000FC013197F1F7FC013197F1F7FC013197F8
:1049A000F1F7FC013197F1F7FC013197F1F7FC01C8
:1049B0003197F1F7FC013197F1F7FC013197F1F7ED
:1049C000FC013197F1F7F9013197F1F72D98FC01CE
:1049D0003197F1F7FC013197F1F7FC013197F1F7CD
:1049E000FC013197F1F7FC013197F1F7FC013197A8
:1049F000F1F7FC013197F1F7FC013197F1F7FC0178
:104A00003197F1F7FC013197F1F7FC013197F1F79C
:104A1000FC013197F1F7FC013197F1F7FC01319777
:104A2000F1F7FC013197F1F7FC013197F1F7FC0147
:104A30003197F1F7FC013197F1F7FC013197F1F76C
:104A4000FC013197F1F7FC013197F1F7FC01319747
:104A5000F1F7FC013197F1F7FC013197F1F7F9011A
:104A60003197F1F72D9AB801F80107C0A1706F5F77
:104A70007F4FEF4FFF4FA03059F0DC011197F1F756
:104A8000A1E069377105E007F10780F3A12DEECFB2
:104A9000FA013197F1F72D98FC013197F1F7FC01FC
:104AA0003197F1F7FC013197F1F7FC013197F1F7FC
:104AB000FC013197F1F7FC013197F1F7FC013197D7
:104AC000F1F7FC013197F1F7FC013197F1F7FC01A7
:104AD0003197F1F7FC013197F1F7FC013197F1F7CC
:104AE000FC013197F1F7FC013197F1F7FC013197A7
:104AF000F1F7FC013197F1F7FC013197F1F7FC0177
:104B00003197F1F7FC013197F1F7FC013197F1F79B
:104B1000FC013197F1F7FC013197F1F7FC01319776
:104B2000F1F7FC013197F1F7F9013197F1F72D9A7F
:104B3000B801F80107C0A1706F5F7F4FEF4FFF4FC3
:104B4000A03059F0DC011197F1F7A1E06937710548
:104B5000E007F10780F3A12DEECFFA013197F1F7CD
:104B60002D98FC013197F1F7FC013197F1F7FC0129
:104B70003197F1F7FC013197F1F7FC013197F1F72B
:104B8000FC013197F1F7FC013197F1F7FC01319706
:104B9000F1F7FC013197F1F7FC013197F1F7FC01D6
:104BA0003197F1F7FC013197F1F7FC013197F1F7FB
:104BB000FC013197F1F7FC013197F1F7FC013197D6
:104BC000F1F7FC013197F1F7FC013197F1F7FC01A6
:104BD0003197F1F7FC013197F1F7FC013197F1F7CB
:104BE000FC013197F1F7FC013197F1F7FC013197A6
:104BF000F1F7F9013197F1F72D9AB801F80109C0E1
:104C0000A1706F5F7F4FEF4FFF4FA03011F40C94F6
:104C10001B23DC011197F1F7A1E069377105E0076B
:104C2000F10770F3A12DECCFEF92FF920F931F933A
:104C300020E030E041E0611571058207930709F03B
:104C4000412D4170403009F048C08115910509F0AF
:104C500046C09B0136952795262B372BA9015695E3
:104C6000479556954795422B532BFA01F295E295BD
:104C7000EF70EF27FF70EF27E42BF52B9F01232F19
:104C800033272E2B3F2B20953095A901569547951C
:104C900045755575241B350BA90143735373369520
:104CA00027953695279523733373240F351FA90154
:104CB000529542954F7045275F704527420F531F0D
:104CC0004F705F70FA01EF2FFF27E40FF51FF070B0
:104CD0007096E03009F044C04BC0C9017DC09C0112
:104CE00036952795282B392BA9015695479556952A
:104CF0004795422B532BFA01F295E295EF70EF277F
:104D0000FF70EF27E42BF52B9F01232F33272E2B4A
:104D10003F2B20953095A9015695479545755575BA
:104D2000241B350BA901437353733695279536958C
:104D3000279523733373240F351FA901529542958C
:104D40004F7045275F704527420F531F4F705F70AC
:104D5000FA01EF2FFF27E40FF51FF070E03041F06C
:104D60002E2F660F771F881F991F2A952030C9F7AD
:104D7000272F382F892F912DA90140955095762FF7
:104D8000612DB12DA12D172F110F012D001F112DF8
:104D9000E12CF12C04231523AC01409550954E21B4
:104DA0005F21A01BB10B640B750B770F412D441FC6
:104DB000512D612D712DF695E795A12DA795BE2F4B
:104DC000F12DE12D2E1B3F0B8A0B9B0B240F351F62
:104DD000861F971F8058914BB9011F910F91FF902B
:104DE000EF9008959B0160E87FE341E021153105D4
:104DF0008607970708F0412D417060E070E0403071
:104E000011F0CB010895E0E8FFE441E02115310500
:104E10008E079F0708F0412D41704030E1F0AC0152
:104E2000942F832F722F612D9068440F551F212DD1
:104E3000221F252F2E3909F420C02E5906C0969521
:104E40008795779567953130C1F0239531E0203013
:104E5000B1F3312DF4CFE0E8FFE741E02130310537
:104E60008E079F0738F0412D403031F06FEF7FEF14
:104E7000CB0108954030D1F7CB0108956F927F9216
:104E80008F929F92BF92CF92DF92EF92FF920F93F9
:104E90001F936A0149018C017B010E947F28B82E73
:104EA000882337010AF03401B401C6019401A60138
:104EB0000E94DD298030A1F0BB209801AAF4803047
:104EC00009F48901B701C8011F910F91FF90EF907C
:104ED000DF90CF90BF909F908F907F906F900895BC
:104EE0007301BB2098015AF39601803051F3EACF49
:104EF0006F927F928F929F92BF92CF92DF92EF92AA
:104F0000FF920F931F938A0179016C014B010E945C
:104F10007F28B82E882337010AF03401B401C60176
:104F20009401A6010E94DD298030A1F0BB209801E8
:104F3000AAF4803009F48901B701C8011F910F91CB
:104F4000FF90EF90DF90CF90BF909F908F907F90D9
:104F50006F9008957301BB2098015AF39601803039
:104F600051F3EACFDB018F939F930E94F827BF9103
:104F7000AF91A29F800D911DA39F900DB29F900DA8
:104F800011240895AA1BBB1B51E107C0AA1FBB1F18
:104F9000A617B70710F0A61BB70B881F991F5A95C5
:104FA000A9F780959095BC01CD010895A1E21A2E34
:104FB000AA1BBB1BFD010DC0AA1FBB1FEE1FFF1FBD
:104FC000A217B307E407F50720F0A21BB30BE40B0D
:104FD000F50B661F771F881F991F1A9469F7609554
:104FE0007095809590959B01AC01BD01CF0108950E
:104FF0000E940328A59F900DB49F900DA49F800D43
:10500000911D11240895A29FB001B39FC001A39FD9
:10501000700D811D1124911DB29F700D811D1124F1
:10502000911D08955058BB27AA270E942A280C9446
:1050300031290E94232938F00E942A2920F039F4CE
:105040009F3F19F426F40C9420290EF4E095E7FB19
:105050000C941A29E92F0E94422958F3BA176207C3
:1050600073078407950720F079F4A6F50C9464295A
:105070000EF4E0950B2EBA2FA02D0B01B901900173
:105080000C01CA01A0011124FF27591B99F0593FB7
:1050900050F4503E68F11A16F040A22F232F342FFF
:1050A0004427585FF3CF469537952795A795F0404D
:1050B0005395C9F77EF41F16BA0B620B730B840B62
:1050C000BAF09150A1F0FF0FBB1F661F771F881F1A
:1050D000C2F70EC0BA0F621F731F841F48F4879572
:1050E00077956795B795F7959E3F08F0B0CF939564
:1050F000880F08F09927EE0F9795879508950E94DD
:10510000F62808F481E008950E9498280C9431292B
:105110000E942A2958F00E94232940F029F45F3F79
:1051200029F00C941A2951110C9465290C9420290A
:105130000E94422968F39923B1F3552391F3951BFB
:10514000550BBB27AA2762177307840738F09F5FA8
:105150005F4F220F331F441FAA1FA9F335D00E2E15
:105160003AF0E0E832D091505040E695001CCAF782
:105170002BD0FE2F29D0660F771F881FBB1F261745
:1051800037074807AB07B0E809F0BB0B802DBF011C
:10519000FF2793585F4F3AF09E3F510578F00C94EB
:1051A0001A290C9465295F3FE4F3983ED4F3869561
:1051B00077956795B795F7959F5FC9F7880F911D0C
:1051C0009695879597F90895E1E0660F771F881FF8
:1051D000BB1F621773078407BA0720F0621B730BAB
:1051E000840BBA0BEE1F88F7E0950895990F00081D
:1051F000550FAA0BE0E8FEEF16161706E807F907A9
:10520000C0F012161306E407F50798F0621B730B43
:10521000840B950B39F40A2661F0232B242B252BC4
:1052200021F408950A2609F4A140A6958FEF811D67
:10523000811D089597F99F6780E870E060E0089508
:105240009FEF80EC089500240A941616170618069E
:105250000906089500240A9412161306140605067A
:105260000895092E0394000C11F4882352F0BB0F0B
:1052700040F4BF2B11F460FF04C06F5F7F4F8F4F6E
:105280009F4F089557FD9058440F551F59F05F3FA9
:1052900071F04795880F97FB991F61F09F3F79F058
:1052A00087950895121613061406551FF2CF4695DA
:1052B000F1DF08C0161617061806991FF1CF86955C
:1052C0007105610508940895E894BB276627772740
:1052D000CB0197F908950E94F62808F48FEF0895FE
:1052E0000E9483290C9431290E94232938F00E94BE
:1052F0002A2920F0952311F00C941A290C942029C6
:1053000011240C9465290E94422970F3959FC1F3E2
:10531000950F50E0551F629FF001729FBB27F00D63
:10532000B11D639FAA27F00DB11DAA1F649F6627B8
:10533000B00DA11D661F829F2227B00DA11D621F07
:10534000739FB00DA11D621F839FA00D611D221FC1
:10535000749F3327A00D611D231F849F600D211DA5
:10536000822F762F6A2F11249F5750409AF0F1F028
:1053700088234AF0EE0FFF1FBB1F661F771F881F91
:1053800091505040A9F79E3F510580F00C941A2986
:105390000C9465295F3FE4F3983ED4F386957795A6
:1053A0006795B795F795E7959F5FC1F7FE2B880F37
:1053B000911D9695879597F908950E94F628880B78
:1053C000990B0895FB01DC0102C001900D92415040
:1053D0005040D8F70895DC0101C06D934150504012
:0853E000E0F70895F894FFCFF7
:1053E800D5011200E7011A002C0220004C0212001D
:1053F80026030A00000000000000000061737365C6
:105408007274696F6E206661696C65643A206D69B3
:105418006E203C3D206D6178010000000000000016
:105428000000000001000000000100000000000072
:10543800010000000001000000000100010000015F
:10544800000100000000010001000001000100004F
:10545800010001000101000100010100010001003B
:105468000101000100010100010001010101000129
:105478000101010001000101010100010101010018
:105488000101010101010101010101000101010105
:10549800010101010101010101010101426F727263
:1054A8006F774572726F72426F72726F774D757453
:1054B8004572726F72616C726561647920626F7295
:1054C800726F7765643A20616C7265616479206DEA
:1054D800757461626C7920626F72726F7765643A75
:1054E8002063616C6C656420604F7074696F6E3AFC
:1054F8003A756E77726170282960206F6E2061207E
:10550800604E6F6E65602076616C7565696E646566
:1055180078206F7574206F6620626F756E64733AB9
:1055280020746865206C656E20697320206275742C
:105538002074686520696E6465782069732030304E
:10554800303130323033303430353036303730382F
:10555800303931303131313231333134313531361E
:105568003137313831393230323132323233323404
:1055780032353236323732383239333033313332EA
:1055880033333334333533363337333833393430D0
:1055980034313432343334343435343634373438BF
:1055A80034393530353135323533353435353536AE
:1055B8003537353835393630363136323633363494
:1055C800363536363637363836393730373137327A
:1055D8003733373437353736373737383739383060
:1055E800383138323833383438353836383738384F
:1055F800383939303931393239333934393539363E
:105608003937393839393C72656461637465643E89
:00000001FF
